{
	"OMS/oms.sol": {
		"OMS": {
			"abi": [
				{
					"inputs": [],
					"stateMutability": "nonpayable",
					"type": "constructor"
				},
				{
					"anonymous": false,
					"inputs": [
						{
							"indexed": false,
							"internalType": "address",
							"name": "",
							"type": "address"
						}
					],
					"name": "nuevoCentroValidado",
					"type": "event"
				},
				{
					"anonymous": false,
					"inputs": [
						{
							"indexed": false,
							"internalType": "address",
							"name": "",
							"type": "address"
						},
						{
							"indexed": false,
							"internalType": "address",
							"name": "",
							"type": "address"
						}
					],
					"name": "nuevoContrato",
					"type": "event"
				},
				{
					"anonymous": false,
					"inputs": [
						{
							"indexed": false,
							"internalType": "address",
							"name": "",
							"type": "address"
						}
					],
					"name": "solicitudAcceso",
					"type": "event"
				},
				{
					"inputs": [
						{
							"internalType": "address",
							"name": "",
							"type": "address"
						}
					],
					"name": "centroSaludContrato",
					"outputs": [
						{
							"internalType": "address",
							"name": "",
							"type": "address"
						}
					],
					"stateMutability": "view",
					"type": "function"
				},
				{
					"inputs": [
						{
							"internalType": "address",
							"name": "_centroSalud",
							"type": "address"
						}
					],
					"name": "centrosSalud",
					"outputs": [],
					"stateMutability": "nonpayable",
					"type": "function"
				},
				{
					"inputs": [
						{
							"internalType": "uint256",
							"name": "",
							"type": "uint256"
						}
					],
					"name": "direccionesContratosSalud",
					"outputs": [
						{
							"internalType": "address",
							"name": "",
							"type": "address"
						}
					],
					"stateMutability": "view",
					"type": "function"
				},
				{
					"inputs": [],
					"name": "factoryCentroSalud",
					"outputs": [],
					"stateMutability": "nonpayable",
					"type": "function"
				},
				{
					"inputs": [],
					"name": "oms",
					"outputs": [
						{
							"internalType": "address",
							"name": "",
							"type": "address"
						}
					],
					"stateMutability": "view",
					"type": "function"
				},
				{
					"inputs": [],
					"name": "solicitarAcceso",
					"outputs": [],
					"stateMutability": "nonpayable",
					"type": "function"
				},
				{
					"inputs": [
						{
							"internalType": "address",
							"name": "",
							"type": "address"
						}
					],
					"name": "validacionCentrosSalud",
					"outputs": [
						{
							"internalType": "bool",
							"name": "",
							"type": "bool"
						}
					],
					"stateMutability": "view",
					"type": "function"
				},
				{
					"inputs": [],
					"name": "visualizarSolicitudes",
					"outputs": [
						{
							"internalType": "address[]",
							"name": "",
							"type": "address[]"
						}
					],
					"stateMutability": "view",
					"type": "function"
				}
			],
			"devdoc": {
				"kind": "dev",
				"methods": {},
				"version": 1
			},
			"evm": {
				"assembly": "    /* \"OMS/oms.sol\":107:3079  contract OMS {... */\n  mstore(0x40, 0x80)\n    /* \"OMS/oms.sol\":247:297  constructor () {... */\n  callvalue\n  dup1\n  iszero\n  tag_1\n  jumpi\n  0x00\n  dup1\n  revert\ntag_1:\n  pop\n    /* \"OMS/oms.sol\":279:289  msg.sender */\n  caller\n    /* \"OMS/oms.sol\":273:276  oms */\n  0x00\n  dup1\n    /* \"OMS/oms.sol\":273:289  oms = msg.sender */\n  0x0100\n  exp\n  dup2\n  sload\n  dup2\n  0xffffffffffffffffffffffffffffffffffffffff\n  mul\n  not\n  and\n  swap1\n  dup4\n  0xffffffffffffffffffffffffffffffffffffffff\n  and\n  mul\n  or\n  swap1\n  sstore\n  pop\n    /* \"OMS/oms.sol\":107:3079  contract OMS {... */\n  dataSize(sub_0)\n  dup1\n  dataOffset(sub_0)\n  0x00\n  codecopy\n  0x00\n  return\nstop\n\nsub_0: assembly {\n        /* \"OMS/oms.sol\":107:3079  contract OMS {... */\n      mstore(0x40, 0x80)\n      callvalue\n      dup1\n      iszero\n      tag_1\n      jumpi\n      0x00\n      dup1\n      revert\n    tag_1:\n      pop\n      jumpi(tag_2, lt(calldatasize, 0x04))\n      shr(0xe0, calldataload(0x00))\n      dup1\n      0xa1387a98\n      gt\n      tag_11\n      jumpi\n      dup1\n      0xa1387a98\n      eq\n      tag_7\n      jumpi\n      dup1\n      0xa71f6143\n      eq\n      tag_8\n      jumpi\n      dup1\n      0xdea4e40e\n      eq\n      tag_9\n      jumpi\n      dup1\n      0xf82c3fee\n      eq\n      tag_10\n      jumpi\n      jump(tag_2)\n    tag_11:\n      dup1\n      0x1a6f9f1a\n      eq\n      tag_3\n      jumpi\n      dup1\n      0x24a823c8\n      eq\n      tag_4\n      jumpi\n      dup1\n      0x58775f8b\n      eq\n      tag_5\n      jumpi\n      dup1\n      0x9f66212b\n      eq\n      tag_6\n      jumpi\n    tag_2:\n      0x00\n      dup1\n      revert\n        /* \"OMS/oms.sol\":187:205  address public oms */\n    tag_3:\n      tag_12\n      tag_13\n      jump\t// in\n    tag_12:\n      mload(0x40)\n      tag_14\n      swap2\n      swap1\n      tag_15\n      jump\t// in\n    tag_14:\n      mload(0x40)\n      dup1\n      swap2\n      sub\n      swap1\n      return\n        /* \"OMS/oms.sol\":952:994  address[] public direccionesContratosSalud */\n    tag_4:\n      tag_16\n      0x04\n      dup1\n      calldatasize\n      sub\n      dup2\n      add\n      swap1\n      tag_17\n      swap2\n      swap1\n      tag_18\n      jump\t// in\n    tag_17:\n      tag_19\n      jump\t// in\n    tag_16:\n      mload(0x40)\n      tag_20\n      swap2\n      swap1\n      tag_15\n      jump\t// in\n    tag_20:\n      mload(0x40)\n      dup1\n      swap2\n      sub\n      swap1\n      return\n        /* \"OMS/oms.sol\":408:463  mapping (address => bool) public validacionCentrosSalud */\n    tag_5:\n      tag_21\n      0x04\n      dup1\n      calldatasize\n      sub\n      dup2\n      add\n      swap1\n      tag_22\n      swap2\n      swap1\n      tag_23\n      jump\t// in\n    tag_22:\n      tag_24\n      jump\t// in\n    tag_21:\n      mload(0x40)\n      tag_25\n      swap2\n      swap1\n      tag_26\n      jump\t// in\n    tag_25:\n      mload(0x40)\n      dup1\n      swap2\n      sub\n      swap1\n      return\n        /* \"OMS/oms.sol\":1728:1856  function visualizarSolicitudes() public view onlyOMS(msg.sender) returns(address[] memory) {... */\n    tag_6:\n      tag_27\n      tag_28\n      jump\t// in\n    tag_27:\n      mload(0x40)\n      tag_29\n      swap2\n      swap1\n      tag_30\n      jump\t// in\n    tag_29:\n      mload(0x40)\n      dup1\n      swap2\n      sub\n      swap1\n      return\n        /* \"OMS/oms.sol\":1517:1641  function solicitarAcceso() public {... */\n    tag_7:\n      tag_31\n      tag_32\n      jump\t// in\n    tag_31:\n      stop\n        /* \"OMS/oms.sol\":545:600  mapping (address => address) public centroSaludContrato */\n    tag_8:\n      tag_33\n      0x04\n      dup1\n      calldatasize\n      sub\n      dup2\n      add\n      swap1\n      tag_34\n      swap2\n      swap1\n      tag_23\n      jump\t// in\n    tag_34:\n      tag_35\n      jump\t// in\n    tag_33:\n      mload(0x40)\n      tag_36\n      swap2\n      swap1\n      tag_15\n      jump\t// in\n    tag_36:\n      mload(0x40)\n      dup1\n      swap2\n      sub\n      swap1\n      return\n        /* \"OMS/oms.sol\":1956:2235  function centrosSalud(address _centroSalud) public onlyOMS(msg.sender) {... */\n    tag_9:\n      tag_37\n      0x04\n      dup1\n      calldatasize\n      sub\n      dup2\n      add\n      swap1\n      tag_38\n      swap2\n      swap1\n      tag_23\n      jump\t// in\n    tag_38:\n      tag_39\n      jump\t// in\n    tag_37:\n      stop\n        /* \"OMS/oms.sol\":2324:3074  function factoryCentroSalud() public {... */\n    tag_10:\n      tag_40\n      tag_41\n      jump\t// in\n    tag_40:\n      stop\n        /* \"OMS/oms.sol\":187:205  address public oms */\n    tag_13:\n      0x00\n      dup1\n      sload\n      swap1\n      0x0100\n      exp\n      swap1\n      div\n      0xffffffffffffffffffffffffffffffffffffffff\n      and\n      dup2\n      jump\t// out\n        /* \"OMS/oms.sol\":952:994  address[] public direccionesContratosSalud */\n    tag_19:\n      0x03\n      dup2\n      dup2\n      sload\n      dup2\n      lt\n      tag_42\n      jumpi\n      0x00\n      dup1\n      revert\n    tag_42:\n      swap1\n      0x00\n      mstore\n      keccak256(0x00, 0x20)\n      add\n      0x00\n      swap2\n      pop\n      sload\n      swap1\n      0x0100\n      exp\n      swap1\n      div\n      0xffffffffffffffffffffffffffffffffffffffff\n      and\n      dup2\n      jump\t// out\n        /* \"OMS/oms.sol\":408:463  mapping (address => bool) public validacionCentrosSalud */\n    tag_24:\n      mstore(0x20, 0x01)\n      dup1\n      0x00\n      mstore\n      keccak256(0x00, 0x40)\n      0x00\n      swap2\n      pop\n      sload\n      swap1\n      0x0100\n      exp\n      swap1\n      div\n      0xff\n      and\n      dup2\n      jump\t// out\n        /* \"OMS/oms.sol\":1728:1856  function visualizarSolicitudes() public view onlyOMS(msg.sender) returns(address[] memory) {... */\n    tag_28:\n        /* \"OMS/oms.sol\":1801:1817  address[] memory */\n      0x60\n        /* \"OMS/oms.sol\":1781:1791  msg.sender */\n      caller\n        /* \"OMS/oms.sol\":1378:1381  oms */\n      0x00\n      dup1\n      sload\n      swap1\n      0x0100\n      exp\n      swap1\n      div\n      0xffffffffffffffffffffffffffffffffffffffff\n      and\n        /* \"OMS/oms.sol\":1364:1381  _direccion == oms */\n      0xffffffffffffffffffffffffffffffffffffffff\n      and\n        /* \"OMS/oms.sol\":1364:1374  _direccion */\n      dup2\n        /* \"OMS/oms.sol\":1364:1381  _direccion == oms */\n      0xffffffffffffffffffffffffffffffffffffffff\n      and\n      eq\n        /* \"OMS/oms.sol\":1356:1431  require(_direccion == oms, \"No tienes permisos para ejecutar esta funcion\") */\n      tag_45\n      jumpi\n      mload(0x40)\n      0x08c379a000000000000000000000000000000000000000000000000000000000\n      dup2\n      mstore\n      0x04\n      add\n      tag_46\n      swap1\n      tag_47\n      jump\t// in\n    tag_46:\n      mload(0x40)\n      dup1\n      swap2\n      sub\n      swap1\n      revert\n    tag_45:\n        /* \"OMS/oms.sol\":1837:1848  solicitudes */\n      0x04\n        /* \"OMS/oms.sol\":1830:1848  return solicitudes */\n      dup1\n      sload\n      dup1\n      0x20\n      mul\n      0x20\n      add\n      mload(0x40)\n      swap1\n      dup2\n      add\n      0x40\n      mstore\n      dup1\n      swap3\n      swap2\n      swap1\n      dup2\n      dup2\n      mstore\n      0x20\n      add\n      dup3\n      dup1\n      sload\n      dup1\n      iszero\n      tag_49\n      jumpi\n      0x20\n      mul\n      dup3\n      add\n      swap2\n      swap1\n      0x00\n      mstore\n      keccak256(0x00, 0x20)\n      swap1\n    tag_50:\n      dup2\n      0x00\n      swap1\n      sload\n      swap1\n      0x0100\n      exp\n      swap1\n      div\n      0xffffffffffffffffffffffffffffffffffffffff\n      and\n      0xffffffffffffffffffffffffffffffffffffffff\n      and\n      dup2\n      mstore\n      0x20\n      add\n      swap1\n      0x01\n      add\n      swap1\n      dup1\n      dup4\n      gt\n      tag_50\n      jumpi\n    tag_49:\n      pop\n      pop\n      pop\n      pop\n      pop\n      swap2\n      pop\n        /* \"OMS/oms.sol\":1728:1856  function visualizarSolicitudes() public view onlyOMS(msg.sender) returns(address[] memory) {... */\n      pop\n      swap1\n      jump\t// out\n        /* \"OMS/oms.sol\":1517:1641  function solicitarAcceso() public {... */\n    tag_32:\n        /* \"OMS/oms.sol\":1562:1573  solicitudes */\n      0x04\n        /* \"OMS/oms.sol\":1579:1589  msg.sender */\n      caller\n        /* \"OMS/oms.sol\":1562:1590  solicitudes.push(msg.sender) */\n      swap1\n      dup1\n      0x01\n      dup2\n      sload\n      add\n      dup1\n      dup3\n      sstore\n      dup1\n      swap2\n      pop\n      pop\n      0x01\n      swap1\n      sub\n      swap1\n      0x00\n      mstore\n      keccak256(0x00, 0x20)\n      add\n      0x00\n      swap1\n      swap2\n      swap1\n      swap2\n      swap1\n      swap2\n      0x0100\n      exp\n      dup2\n      sload\n      dup2\n      0xffffffffffffffffffffffffffffffffffffffff\n      mul\n      not\n      and\n      swap1\n      dup4\n      0xffffffffffffffffffffffffffffffffffffffff\n      and\n      mul\n      or\n      swap1\n      sstore\n      pop\n        /* \"OMS/oms.sol\":1606:1633  solicitudAcceso(msg.sender) */\n      0xf3fef0dfb6ac5b9a824f8a58c8525ca724416b1c5748ee4fb5f998fe4c1441a4\n        /* \"OMS/oms.sol\":1622:1632  msg.sender */\n      caller\n        /* \"OMS/oms.sol\":1606:1633  solicitudAcceso(msg.sender) */\n      mload(0x40)\n      tag_53\n      swap2\n      swap1\n      tag_15\n      jump\t// in\n    tag_53:\n      mload(0x40)\n      dup1\n      swap2\n      sub\n      swap1\n      log1\n        /* \"OMS/oms.sol\":1517:1641  function solicitarAcceso() public {... */\n      jump\t// out\n        /* \"OMS/oms.sol\":545:600  mapping (address => address) public centroSaludContrato */\n    tag_35:\n      mstore(0x20, 0x02)\n      dup1\n      0x00\n      mstore\n      keccak256(0x00, 0x40)\n      0x00\n      swap2\n      pop\n      sload\n      swap1\n      0x0100\n      exp\n      swap1\n      div\n      0xffffffffffffffffffffffffffffffffffffffff\n      and\n      dup2\n      jump\t// out\n        /* \"OMS/oms.sol\":1956:2235  function centrosSalud(address _centroSalud) public onlyOMS(msg.sender) {... */\n    tag_39:\n        /* \"OMS/oms.sol\":2015:2025  msg.sender */\n      caller\n        /* \"OMS/oms.sol\":1378:1381  oms */\n      0x00\n      dup1\n      sload\n      swap1\n      0x0100\n      exp\n      swap1\n      div\n      0xffffffffffffffffffffffffffffffffffffffff\n      and\n        /* \"OMS/oms.sol\":1364:1381  _direccion == oms */\n      0xffffffffffffffffffffffffffffffffffffffff\n      and\n        /* \"OMS/oms.sol\":1364:1374  _direccion */\n      dup2\n        /* \"OMS/oms.sol\":1364:1381  _direccion == oms */\n      0xffffffffffffffffffffffffffffffffffffffff\n      and\n      eq\n        /* \"OMS/oms.sol\":1356:1431  require(_direccion == oms, \"No tienes permisos para ejecutar esta funcion\") */\n      tag_55\n      jumpi\n      mload(0x40)\n      0x08c379a000000000000000000000000000000000000000000000000000000000\n      dup2\n      mstore\n      0x04\n      add\n      tag_56\n      swap1\n      tag_47\n      jump\t// in\n    tag_56:\n      mload(0x40)\n      dup1\n      swap2\n      sub\n      swap1\n      revert\n    tag_55:\n        /* \"OMS/oms.sol\":2142:2146  true */\n      0x01\n        /* \"OMS/oms.sol\":2103:2125  validacionCentrosSalud */\n      dup1\n        /* \"OMS/oms.sol\":2103:2139  validacionCentrosSalud[_centroSalud] */\n      0x00\n        /* \"OMS/oms.sol\":2126:2138  _centroSalud */\n      dup5\n        /* \"OMS/oms.sol\":2103:2139  validacionCentrosSalud[_centroSalud] */\n      0xffffffffffffffffffffffffffffffffffffffff\n      and\n      0xffffffffffffffffffffffffffffffffffffffff\n      and\n      dup2\n      mstore\n      0x20\n      add\n      swap1\n      dup2\n      mstore\n      0x20\n      add\n      0x00\n      keccak256\n      0x00\n        /* \"OMS/oms.sol\":2103:2146  validacionCentrosSalud[_centroSalud] = true */\n      0x0100\n      exp\n      dup2\n      sload\n      dup2\n      0xff\n      mul\n      not\n      and\n      swap1\n      dup4\n      iszero\n      iszero\n      mul\n      or\n      swap1\n      sstore\n      pop\n        /* \"OMS/oms.sol\":2194:2227  nuevoCentroValidado(_centroSalud) */\n      0xa06e56fe363849ca555483d9dfbabf40e281a3039cd640777f366803bbaf5717\n        /* \"OMS/oms.sol\":2214:2226  _centroSalud */\n      dup3\n        /* \"OMS/oms.sol\":2194:2227  nuevoCentroValidado(_centroSalud) */\n      mload(0x40)\n      tag_58\n      swap2\n      swap1\n      tag_15\n      jump\t// in\n    tag_58:\n      mload(0x40)\n      dup1\n      swap2\n      sub\n      swap1\n      log1\n        /* \"OMS/oms.sol\":1956:2235  function centrosSalud(address _centroSalud) public onlyOMS(msg.sender) {... */\n      pop\n      pop\n      jump\t// out\n        /* \"OMS/oms.sol\":2324:3074  function factoryCentroSalud() public {... */\n    tag_41:\n        /* \"OMS/oms.sol\":2530:2534  true */\n      0x01\n        /* \"OMS/oms.sol\":2492:2534  validacionCentrosSalud[msg.sender] == true */\n      iszero\n      iszero\n        /* \"OMS/oms.sol\":2492:2514  validacionCentrosSalud */\n      0x01\n        /* \"OMS/oms.sol\":2492:2526  validacionCentrosSalud[msg.sender] */\n      0x00\n        /* \"OMS/oms.sol\":2515:2525  msg.sender */\n      caller\n        /* \"OMS/oms.sol\":2492:2526  validacionCentrosSalud[msg.sender] */\n      0xffffffffffffffffffffffffffffffffffffffff\n      and\n      0xffffffffffffffffffffffffffffffffffffffff\n      and\n      dup2\n      mstore\n      0x20\n      add\n      swap1\n      dup2\n      mstore\n      0x20\n      add\n      0x00\n      keccak256\n      0x00\n      swap1\n      sload\n      swap1\n      0x0100\n      exp\n      swap1\n      div\n      0xff\n      and\n        /* \"OMS/oms.sol\":2492:2534  validacionCentrosSalud[msg.sender] == true */\n      iszero\n      iszero\n      eq\n        /* \"OMS/oms.sol\":2484:2584  require(validacionCentrosSalud[msg.sender] == true, \"No tienes permisos para realizar esta funcion\") */\n      tag_60\n      jumpi\n      mload(0x40)\n      0x08c379a000000000000000000000000000000000000000000000000000000000\n      dup2\n      mstore\n      0x04\n      add\n      tag_61\n      swap1\n      tag_62\n      jump\t// in\n    tag_61:\n      mload(0x40)\n      dup1\n      swap2\n      sub\n      swap1\n      revert\n    tag_60:\n        /* \"OMS/oms.sol\":2658:2685  address contratoCentroSalud */\n      0x00\n        /* \"OMS/oms.sol\":2712:2722  msg.sender */\n      caller\n        /* \"OMS/oms.sol\":2696:2723  new CentroSalud(msg.sender) */\n      mload(0x40)\n      tag_63\n      swap1\n      tag_64\n      jump\t// in\n    tag_63:\n      tag_65\n      swap2\n      swap1\n      tag_15\n      jump\t// in\n    tag_65:\n      mload(0x40)\n      dup1\n      swap2\n      sub\n      swap1\n      0x00\n      create\n      dup1\n      iszero\n      dup1\n      iszero\n      tag_66\n      jumpi\n      returndatasize\n      0x00\n      dup1\n      returndatacopy\n      revert(0x00, returndatasize)\n    tag_66:\n      pop\n        /* \"OMS/oms.sol\":2658:2724  address contratoCentroSalud = address(new CentroSalud(msg.sender)) */\n      swap1\n      pop\n        /* \"OMS/oms.sol\":2795:2820  direccionesContratosSalud */\n      0x03\n        /* \"OMS/oms.sol\":2826:2845  contratoCentroSalud */\n      dup2\n        /* \"OMS/oms.sol\":2795:2846  direccionesContratosSalud.push(contratoCentroSalud) */\n      swap1\n      dup1\n      0x01\n      dup2\n      sload\n      add\n      dup1\n      dup3\n      sstore\n      dup1\n      swap2\n      pop\n      pop\n      0x01\n      swap1\n      sub\n      swap1\n      0x00\n      mstore\n      keccak256(0x00, 0x20)\n      add\n      0x00\n      swap1\n      swap2\n      swap1\n      swap2\n      swap1\n      swap2\n      0x0100\n      exp\n      dup2\n      sload\n      dup2\n      0xffffffffffffffffffffffffffffffffffffffff\n      mul\n      not\n      and\n      swap1\n      dup4\n      0xffffffffffffffffffffffffffffffffffffffff\n      and\n      mul\n      or\n      swap1\n      sstore\n      pop\n        /* \"OMS/oms.sol\":2953:2972  contratoCentroSalud */\n      dup1\n        /* \"OMS/oms.sol\":2919:2938  centroSaludContrato */\n      0x02\n        /* \"OMS/oms.sol\":2919:2950  centroSaludContrato[msg.sender] */\n      0x00\n        /* \"OMS/oms.sol\":2939:2949  msg.sender */\n      caller\n        /* \"OMS/oms.sol\":2919:2950  centroSaludContrato[msg.sender] */\n      0xffffffffffffffffffffffffffffffffffffffff\n      and\n      0xffffffffffffffffffffffffffffffffffffffff\n      and\n      dup2\n      mstore\n      0x20\n      add\n      swap1\n      dup2\n      mstore\n      0x20\n      add\n      0x00\n      keccak256\n      0x00\n        /* \"OMS/oms.sol\":2919:2972  centroSaludContrato[msg.sender] = contratoCentroSalud */\n      0x0100\n      exp\n      dup2\n      sload\n      dup2\n      0xffffffffffffffffffffffffffffffffffffffff\n      mul\n      not\n      and\n      swap1\n      dup4\n      0xffffffffffffffffffffffffffffffffffffffff\n      and\n      mul\n      or\n      swap1\n      sstore\n      pop\n        /* \"OMS/oms.sol\":3020:3066  nuevoContrato(contratoCentroSalud, msg.sender) */\n      0x9430b0ce80ec1fd1b9e38e786053a7ffbf9efbce2ac81e9cd4db1813371fb078\n        /* \"OMS/oms.sol\":3034:3053  contratoCentroSalud */\n      dup2\n        /* \"OMS/oms.sol\":3055:3065  msg.sender */\n      caller\n        /* \"OMS/oms.sol\":3020:3066  nuevoContrato(contratoCentroSalud, msg.sender) */\n      mload(0x40)\n      tag_68\n      swap3\n      swap2\n      swap1\n      tag_69\n      jump\t// in\n    tag_68:\n      mload(0x40)\n      dup1\n      swap2\n      sub\n      swap1\n      log1\n        /* \"OMS/oms.sol\":2361:3074  {... */\n      pop\n        /* \"OMS/oms.sol\":2324:3074  function factoryCentroSalud() public {... */\n      jump\t// out\n    tag_64:\n      dataSize(sub_0)\n      dup1\n      dataOffset(sub_0)\n      dup4\n      codecopy\n      add\n      swap1\n      jump\t// out\n        /* \"#utility.yul\":7:133   */\n    tag_70:\n        /* \"#utility.yul\":44:51   */\n      0x00\n        /* \"#utility.yul\":84:126   */\n      0xffffffffffffffffffffffffffffffffffffffff\n        /* \"#utility.yul\":77:82   */\n      dup3\n        /* \"#utility.yul\":73:127   */\n      and\n        /* \"#utility.yul\":62:127   */\n      swap1\n      pop\n        /* \"#utility.yul\":7:133   */\n      swap2\n      swap1\n      pop\n      jump\t// out\n        /* \"#utility.yul\":139:235   */\n    tag_71:\n        /* \"#utility.yul\":176:183   */\n      0x00\n        /* \"#utility.yul\":205:229   */\n      tag_98\n        /* \"#utility.yul\":223:228   */\n      dup3\n        /* \"#utility.yul\":205:229   */\n      tag_70\n      jump\t// in\n    tag_98:\n        /* \"#utility.yul\":194:229   */\n      swap1\n      pop\n        /* \"#utility.yul\":139:235   */\n      swap2\n      swap1\n      pop\n      jump\t// out\n        /* \"#utility.yul\":241:359   */\n    tag_72:\n        /* \"#utility.yul\":328:352   */\n      tag_100\n        /* \"#utility.yul\":346:351   */\n      dup2\n        /* \"#utility.yul\":328:352   */\n      tag_71\n      jump\t// in\n    tag_100:\n        /* \"#utility.yul\":323:326   */\n      dup3\n        /* \"#utility.yul\":316:353   */\n      mstore\n        /* \"#utility.yul\":241:359   */\n      pop\n      pop\n      jump\t// out\n        /* \"#utility.yul\":365:587   */\n    tag_15:\n        /* \"#utility.yul\":458:462   */\n      0x00\n        /* \"#utility.yul\":496:498   */\n      0x20\n        /* \"#utility.yul\":485:494   */\n      dup3\n        /* \"#utility.yul\":481:499   */\n      add\n        /* \"#utility.yul\":473:499   */\n      swap1\n      pop\n        /* \"#utility.yul\":509:580   */\n      tag_102\n        /* \"#utility.yul\":577:578   */\n      0x00\n        /* \"#utility.yul\":566:575   */\n      dup4\n        /* \"#utility.yul\":562:579   */\n      add\n        /* \"#utility.yul\":553:559   */\n      dup5\n        /* \"#utility.yul\":509:580   */\n      tag_72\n      jump\t// in\n    tag_102:\n        /* \"#utility.yul\":365:587   */\n      swap3\n      swap2\n      pop\n      pop\n      jump\t// out\n        /* \"#utility.yul\":674:791   */\n    tag_74:\n        /* \"#utility.yul\":783:784   */\n      0x00\n        /* \"#utility.yul\":780:781   */\n      dup1\n        /* \"#utility.yul\":773:785   */\n      revert\n        /* \"#utility.yul\":920:997   */\n    tag_76:\n        /* \"#utility.yul\":957:964   */\n      0x00\n        /* \"#utility.yul\":986:991   */\n      dup2\n        /* \"#utility.yul\":975:991   */\n      swap1\n      pop\n        /* \"#utility.yul\":920:997   */\n      swap2\n      swap1\n      pop\n      jump\t// out\n        /* \"#utility.yul\":1003:1125   */\n    tag_77:\n        /* \"#utility.yul\":1076:1100   */\n      tag_108\n        /* \"#utility.yul\":1094:1099   */\n      dup2\n        /* \"#utility.yul\":1076:1100   */\n      tag_76\n      jump\t// in\n    tag_108:\n        /* \"#utility.yul\":1069:1074   */\n      dup2\n        /* \"#utility.yul\":1066:1101   */\n      eq\n        /* \"#utility.yul\":1056:1119   */\n      tag_109\n      jumpi\n        /* \"#utility.yul\":1115:1116   */\n      0x00\n        /* \"#utility.yul\":1112:1113   */\n      dup1\n        /* \"#utility.yul\":1105:1117   */\n      revert\n        /* \"#utility.yul\":1056:1119   */\n    tag_109:\n        /* \"#utility.yul\":1003:1125   */\n      pop\n      jump\t// out\n        /* \"#utility.yul\":1131:1270   */\n    tag_78:\n        /* \"#utility.yul\":1177:1182   */\n      0x00\n        /* \"#utility.yul\":1215:1221   */\n      dup2\n        /* \"#utility.yul\":1202:1222   */\n      calldataload\n        /* \"#utility.yul\":1193:1222   */\n      swap1\n      pop\n        /* \"#utility.yul\":1231:1264   */\n      tag_111\n        /* \"#utility.yul\":1258:1263   */\n      dup2\n        /* \"#utility.yul\":1231:1264   */\n      tag_77\n      jump\t// in\n    tag_111:\n        /* \"#utility.yul\":1131:1270   */\n      swap3\n      swap2\n      pop\n      pop\n      jump\t// out\n        /* \"#utility.yul\":1276:1605   */\n    tag_18:\n        /* \"#utility.yul\":1335:1341   */\n      0x00\n        /* \"#utility.yul\":1384:1386   */\n      0x20\n        /* \"#utility.yul\":1372:1381   */\n      dup3\n        /* \"#utility.yul\":1363:1370   */\n      dup5\n        /* \"#utility.yul\":1359:1382   */\n      sub\n        /* \"#utility.yul\":1355:1387   */\n      slt\n        /* \"#utility.yul\":1352:1471   */\n      iszero\n      tag_113\n      jumpi\n        /* \"#utility.yul\":1390:1469   */\n      tag_114\n      tag_74\n      jump\t// in\n    tag_114:\n        /* \"#utility.yul\":1352:1471   */\n    tag_113:\n        /* \"#utility.yul\":1510:1511   */\n      0x00\n        /* \"#utility.yul\":1535:1588   */\n      tag_115\n        /* \"#utility.yul\":1580:1587   */\n      dup5\n        /* \"#utility.yul\":1571:1577   */\n      dup3\n        /* \"#utility.yul\":1560:1569   */\n      dup6\n        /* \"#utility.yul\":1556:1578   */\n      add\n        /* \"#utility.yul\":1535:1588   */\n      tag_78\n      jump\t// in\n    tag_115:\n        /* \"#utility.yul\":1525:1588   */\n      swap2\n      pop\n        /* \"#utility.yul\":1481:1598   */\n      pop\n        /* \"#utility.yul\":1276:1605   */\n      swap3\n      swap2\n      pop\n      pop\n      jump\t// out\n        /* \"#utility.yul\":1611:1733   */\n    tag_79:\n        /* \"#utility.yul\":1684:1708   */\n      tag_117\n        /* \"#utility.yul\":1702:1707   */\n      dup2\n        /* \"#utility.yul\":1684:1708   */\n      tag_71\n      jump\t// in\n    tag_117:\n        /* \"#utility.yul\":1677:1682   */\n      dup2\n        /* \"#utility.yul\":1674:1709   */\n      eq\n        /* \"#utility.yul\":1664:1727   */\n      tag_118\n      jumpi\n        /* \"#utility.yul\":1723:1724   */\n      0x00\n        /* \"#utility.yul\":1720:1721   */\n      dup1\n        /* \"#utility.yul\":1713:1725   */\n      revert\n        /* \"#utility.yul\":1664:1727   */\n    tag_118:\n        /* \"#utility.yul\":1611:1733   */\n      pop\n      jump\t// out\n        /* \"#utility.yul\":1739:1878   */\n    tag_80:\n        /* \"#utility.yul\":1785:1790   */\n      0x00\n        /* \"#utility.yul\":1823:1829   */\n      dup2\n        /* \"#utility.yul\":1810:1830   */\n      calldataload\n        /* \"#utility.yul\":1801:1830   */\n      swap1\n      pop\n        /* \"#utility.yul\":1839:1872   */\n      tag_120\n        /* \"#utility.yul\":1866:1871   */\n      dup2\n        /* \"#utility.yul\":1839:1872   */\n      tag_79\n      jump\t// in\n    tag_120:\n        /* \"#utility.yul\":1739:1878   */\n      swap3\n      swap2\n      pop\n      pop\n      jump\t// out\n        /* \"#utility.yul\":1884:2213   */\n    tag_23:\n        /* \"#utility.yul\":1943:1949   */\n      0x00\n        /* \"#utility.yul\":1992:1994   */\n      0x20\n        /* \"#utility.yul\":1980:1989   */\n      dup3\n        /* \"#utility.yul\":1971:1978   */\n      dup5\n        /* \"#utility.yul\":1967:1990   */\n      sub\n        /* \"#utility.yul\":1963:1995   */\n      slt\n        /* \"#utility.yul\":1960:2079   */\n      iszero\n      tag_122\n      jumpi\n        /* \"#utility.yul\":1998:2077   */\n      tag_123\n      tag_74\n      jump\t// in\n    tag_123:\n        /* \"#utility.yul\":1960:2079   */\n    tag_122:\n        /* \"#utility.yul\":2118:2119   */\n      0x00\n        /* \"#utility.yul\":2143:2196   */\n      tag_124\n        /* \"#utility.yul\":2188:2195   */\n      dup5\n        /* \"#utility.yul\":2179:2185   */\n      dup3\n        /* \"#utility.yul\":2168:2177   */\n      dup6\n        /* \"#utility.yul\":2164:2186   */\n      add\n        /* \"#utility.yul\":2143:2196   */\n      tag_80\n      jump\t// in\n    tag_124:\n        /* \"#utility.yul\":2133:2196   */\n      swap2\n      pop\n        /* \"#utility.yul\":2089:2206   */\n      pop\n        /* \"#utility.yul\":1884:2213   */\n      swap3\n      swap2\n      pop\n      pop\n      jump\t// out\n        /* \"#utility.yul\":2219:2309   */\n    tag_81:\n        /* \"#utility.yul\":2253:2260   */\n      0x00\n        /* \"#utility.yul\":2296:2301   */\n      dup2\n        /* \"#utility.yul\":2289:2302   */\n      iszero\n        /* \"#utility.yul\":2282:2303   */\n      iszero\n        /* \"#utility.yul\":2271:2303   */\n      swap1\n      pop\n        /* \"#utility.yul\":2219:2309   */\n      swap2\n      swap1\n      pop\n      jump\t// out\n        /* \"#utility.yul\":2315:2424   */\n    tag_82:\n        /* \"#utility.yul\":2396:2417   */\n      tag_127\n        /* \"#utility.yul\":2411:2416   */\n      dup2\n        /* \"#utility.yul\":2396:2417   */\n      tag_81\n      jump\t// in\n    tag_127:\n        /* \"#utility.yul\":2391:2394   */\n      dup3\n        /* \"#utility.yul\":2384:2418   */\n      mstore\n        /* \"#utility.yul\":2315:2424   */\n      pop\n      pop\n      jump\t// out\n        /* \"#utility.yul\":2430:2640   */\n    tag_26:\n        /* \"#utility.yul\":2517:2521   */\n      0x00\n        /* \"#utility.yul\":2555:2557   */\n      0x20\n        /* \"#utility.yul\":2544:2553   */\n      dup3\n        /* \"#utility.yul\":2540:2558   */\n      add\n        /* \"#utility.yul\":2532:2558   */\n      swap1\n      pop\n        /* \"#utility.yul\":2568:2633   */\n      tag_129\n        /* \"#utility.yul\":2630:2631   */\n      0x00\n        /* \"#utility.yul\":2619:2628   */\n      dup4\n        /* \"#utility.yul\":2615:2632   */\n      add\n        /* \"#utility.yul\":2606:2612   */\n      dup5\n        /* \"#utility.yul\":2568:2633   */\n      tag_82\n      jump\t// in\n    tag_129:\n        /* \"#utility.yul\":2430:2640   */\n      swap3\n      swap2\n      pop\n      pop\n      jump\t// out\n        /* \"#utility.yul\":2646:2760   */\n    tag_83:\n        /* \"#utility.yul\":2713:2719   */\n      0x00\n        /* \"#utility.yul\":2747:2752   */\n      dup2\n        /* \"#utility.yul\":2741:2753   */\n      mload\n        /* \"#utility.yul\":2731:2753   */\n      swap1\n      pop\n        /* \"#utility.yul\":2646:2760   */\n      swap2\n      swap1\n      pop\n      jump\t// out\n        /* \"#utility.yul\":2766:2950   */\n    tag_84:\n        /* \"#utility.yul\":2865:2876   */\n      0x00\n        /* \"#utility.yul\":2899:2905   */\n      dup3\n        /* \"#utility.yul\":2894:2897   */\n      dup3\n        /* \"#utility.yul\":2887:2906   */\n      mstore\n        /* \"#utility.yul\":2939:2943   */\n      0x20\n        /* \"#utility.yul\":2934:2937   */\n      dup3\n        /* \"#utility.yul\":2930:2944   */\n      add\n        /* \"#utility.yul\":2915:2944   */\n      swap1\n      pop\n        /* \"#utility.yul\":2766:2950   */\n      swap3\n      swap2\n      pop\n      pop\n      jump\t// out\n        /* \"#utility.yul\":2956:3088   */\n    tag_85:\n        /* \"#utility.yul\":3023:3027   */\n      0x00\n        /* \"#utility.yul\":3046:3049   */\n      dup2\n        /* \"#utility.yul\":3038:3049   */\n      swap1\n      pop\n        /* \"#utility.yul\":3076:3080   */\n      0x20\n        /* \"#utility.yul\":3071:3074   */\n      dup3\n        /* \"#utility.yul\":3067:3081   */\n      add\n        /* \"#utility.yul\":3059:3081   */\n      swap1\n      pop\n        /* \"#utility.yul\":2956:3088   */\n      swap2\n      swap1\n      pop\n      jump\t// out\n        /* \"#utility.yul\":3094:3202   */\n    tag_86:\n        /* \"#utility.yul\":3171:3195   */\n      tag_134\n        /* \"#utility.yul\":3189:3194   */\n      dup2\n        /* \"#utility.yul\":3171:3195   */\n      tag_71\n      jump\t// in\n    tag_134:\n        /* \"#utility.yul\":3166:3169   */\n      dup3\n        /* \"#utility.yul\":3159:3196   */\n      mstore\n        /* \"#utility.yul\":3094:3202   */\n      pop\n      pop\n      jump\t// out\n        /* \"#utility.yul\":3208:3387   */\n    tag_87:\n        /* \"#utility.yul\":3277:3287   */\n      0x00\n        /* \"#utility.yul\":3298:3344   */\n      tag_136\n        /* \"#utility.yul\":3340:3343   */\n      dup4\n        /* \"#utility.yul\":3332:3338   */\n      dup4\n        /* \"#utility.yul\":3298:3344   */\n      tag_86\n      jump\t// in\n    tag_136:\n        /* \"#utility.yul\":3376:3380   */\n      0x20\n        /* \"#utility.yul\":3371:3374   */\n      dup4\n        /* \"#utility.yul\":3367:3381   */\n      add\n        /* \"#utility.yul\":3353:3381   */\n      swap1\n      pop\n        /* \"#utility.yul\":3208:3387   */\n      swap3\n      swap2\n      pop\n      pop\n      jump\t// out\n        /* \"#utility.yul\":3393:3506   */\n    tag_88:\n        /* \"#utility.yul\":3463:3467   */\n      0x00\n        /* \"#utility.yul\":3495:3499   */\n      0x20\n        /* \"#utility.yul\":3490:3493   */\n      dup3\n        /* \"#utility.yul\":3486:3500   */\n      add\n        /* \"#utility.yul\":3478:3500   */\n      swap1\n      pop\n        /* \"#utility.yul\":3393:3506   */\n      swap2\n      swap1\n      pop\n      jump\t// out\n        /* \"#utility.yul\":3542:4274   */\n    tag_89:\n        /* \"#utility.yul\":3661:3664   */\n      0x00\n        /* \"#utility.yul\":3690:3744   */\n      tag_139\n        /* \"#utility.yul\":3738:3743   */\n      dup3\n        /* \"#utility.yul\":3690:3744   */\n      tag_83\n      jump\t// in\n    tag_139:\n        /* \"#utility.yul\":3760:3846   */\n      tag_140\n        /* \"#utility.yul\":3839:3845   */\n      dup2\n        /* \"#utility.yul\":3834:3837   */\n      dup6\n        /* \"#utility.yul\":3760:3846   */\n      tag_84\n      jump\t// in\n    tag_140:\n        /* \"#utility.yul\":3753:3846   */\n      swap4\n      pop\n        /* \"#utility.yul\":3870:3926   */\n      tag_141\n        /* \"#utility.yul\":3920:3925   */\n      dup4\n        /* \"#utility.yul\":3870:3926   */\n      tag_85\n      jump\t// in\n    tag_141:\n        /* \"#utility.yul\":3949:3956   */\n      dup1\n        /* \"#utility.yul\":3980:3981   */\n      0x00\n        /* \"#utility.yul\":3965:4249   */\n    tag_142:\n        /* \"#utility.yul\":3990:3996   */\n      dup4\n        /* \"#utility.yul\":3987:3988   */\n      dup2\n        /* \"#utility.yul\":3984:3997   */\n      lt\n        /* \"#utility.yul\":3965:4249   */\n      iszero\n      tag_144\n      jumpi\n        /* \"#utility.yul\":4066:4072   */\n      dup2\n        /* \"#utility.yul\":4060:4073   */\n      mload\n        /* \"#utility.yul\":4093:4156   */\n      tag_145\n        /* \"#utility.yul\":4152:4155   */\n      dup9\n        /* \"#utility.yul\":4137:4150   */\n      dup3\n        /* \"#utility.yul\":4093:4156   */\n      tag_87\n      jump\t// in\n    tag_145:\n        /* \"#utility.yul\":4086:4156   */\n      swap8\n      pop\n        /* \"#utility.yul\":4179:4239   */\n      tag_146\n        /* \"#utility.yul\":4232:4238   */\n      dup4\n        /* \"#utility.yul\":4179:4239   */\n      tag_88\n      jump\t// in\n    tag_146:\n        /* \"#utility.yul\":4169:4239   */\n      swap3\n      pop\n        /* \"#utility.yul\":4025:4249   */\n      pop\n        /* \"#utility.yul\":4012:4013   */\n      0x01\n        /* \"#utility.yul\":4009:4010   */\n      dup2\n        /* \"#utility.yul\":4005:4014   */\n      add\n        /* \"#utility.yul\":4000:4014   */\n      swap1\n      pop\n        /* \"#utility.yul\":3965:4249   */\n      jump(tag_142)\n    tag_144:\n        /* \"#utility.yul\":3969:3983   */\n      pop\n        /* \"#utility.yul\":4265:4268   */\n      dup6\n        /* \"#utility.yul\":4258:4268   */\n      swap4\n      pop\n        /* \"#utility.yul\":3666:4274   */\n      pop\n      pop\n      pop\n        /* \"#utility.yul\":3542:4274   */\n      swap3\n      swap2\n      pop\n      pop\n      jump\t// out\n        /* \"#utility.yul\":4280:4653   */\n    tag_30:\n        /* \"#utility.yul\":4423:4427   */\n      0x00\n        /* \"#utility.yul\":4461:4463   */\n      0x20\n        /* \"#utility.yul\":4450:4459   */\n      dup3\n        /* \"#utility.yul\":4446:4464   */\n      add\n        /* \"#utility.yul\":4438:4464   */\n      swap1\n      pop\n        /* \"#utility.yul\":4510:4519   */\n      dup2\n        /* \"#utility.yul\":4504:4508   */\n      dup2\n        /* \"#utility.yul\":4500:4520   */\n      sub\n        /* \"#utility.yul\":4496:4497   */\n      0x00\n        /* \"#utility.yul\":4485:4494   */\n      dup4\n        /* \"#utility.yul\":4481:4498   */\n      add\n        /* \"#utility.yul\":4474:4521   */\n      mstore\n        /* \"#utility.yul\":4538:4646   */\n      tag_148\n        /* \"#utility.yul\":4641:4645   */\n      dup2\n        /* \"#utility.yul\":4632:4638   */\n      dup5\n        /* \"#utility.yul\":4538:4646   */\n      tag_89\n      jump\t// in\n    tag_148:\n        /* \"#utility.yul\":4530:4646   */\n      swap1\n      pop\n        /* \"#utility.yul\":4280:4653   */\n      swap3\n      swap2\n      pop\n      pop\n      jump\t// out\n        /* \"#utility.yul\":4659:4828   */\n    tag_90:\n        /* \"#utility.yul\":4743:4754   */\n      0x00\n        /* \"#utility.yul\":4777:4783   */\n      dup3\n        /* \"#utility.yul\":4772:4775   */\n      dup3\n        /* \"#utility.yul\":4765:4784   */\n      mstore\n        /* \"#utility.yul\":4817:4821   */\n      0x20\n        /* \"#utility.yul\":4812:4815   */\n      dup3\n        /* \"#utility.yul\":4808:4822   */\n      add\n        /* \"#utility.yul\":4793:4822   */\n      swap1\n      pop\n        /* \"#utility.yul\":4659:4828   */\n      swap3\n      swap2\n      pop\n      pop\n      jump\t// out\n        /* \"#utility.yul\":4834:5066   */\n    tag_91:\n        /* \"#utility.yul\":4974:5008   */\n      0x4e6f207469656e6573207065726d69736f73207061726120656a656375746172\n        /* \"#utility.yul\":4970:4971   */\n      0x00\n        /* \"#utility.yul\":4962:4968   */\n      dup3\n        /* \"#utility.yul\":4958:4972   */\n      add\n        /* \"#utility.yul\":4951:5009   */\n      mstore\n        /* \"#utility.yul\":5043:5058   */\n      0x20657374612066756e63696f6e00000000000000000000000000000000000000\n        /* \"#utility.yul\":5038:5040   */\n      0x20\n        /* \"#utility.yul\":5030:5036   */\n      dup3\n        /* \"#utility.yul\":5026:5041   */\n      add\n        /* \"#utility.yul\":5019:5059   */\n      mstore\n        /* \"#utility.yul\":4834:5066   */\n      pop\n      jump\t// out\n        /* \"#utility.yul\":5072:5438   */\n    tag_92:\n        /* \"#utility.yul\":5214:5217   */\n      0x00\n        /* \"#utility.yul\":5235:5302   */\n      tag_152\n        /* \"#utility.yul\":5299:5301   */\n      0x2d\n        /* \"#utility.yul\":5294:5297   */\n      dup4\n        /* \"#utility.yul\":5235:5302   */\n      tag_90\n      jump\t// in\n    tag_152:\n        /* \"#utility.yul\":5228:5302   */\n      swap2\n      pop\n        /* \"#utility.yul\":5311:5404   */\n      tag_153\n        /* \"#utility.yul\":5400:5403   */\n      dup3\n        /* \"#utility.yul\":5311:5404   */\n      tag_91\n      jump\t// in\n    tag_153:\n        /* \"#utility.yul\":5429:5431   */\n      0x40\n        /* \"#utility.yul\":5424:5427   */\n      dup3\n        /* \"#utility.yul\":5420:5432   */\n      add\n        /* \"#utility.yul\":5413:5432   */\n      swap1\n      pop\n        /* \"#utility.yul\":5072:5438   */\n      swap2\n      swap1\n      pop\n      jump\t// out\n        /* \"#utility.yul\":5444:5863   */\n    tag_47:\n        /* \"#utility.yul\":5610:5614   */\n      0x00\n        /* \"#utility.yul\":5648:5650   */\n      0x20\n        /* \"#utility.yul\":5637:5646   */\n      dup3\n        /* \"#utility.yul\":5633:5651   */\n      add\n        /* \"#utility.yul\":5625:5651   */\n      swap1\n      pop\n        /* \"#utility.yul\":5697:5706   */\n      dup2\n        /* \"#utility.yul\":5691:5695   */\n      dup2\n        /* \"#utility.yul\":5687:5707   */\n      sub\n        /* \"#utility.yul\":5683:5684   */\n      0x00\n        /* \"#utility.yul\":5672:5681   */\n      dup4\n        /* \"#utility.yul\":5668:5685   */\n      add\n        /* \"#utility.yul\":5661:5708   */\n      mstore\n        /* \"#utility.yul\":5725:5856   */\n      tag_155\n        /* \"#utility.yul\":5851:5855   */\n      dup2\n        /* \"#utility.yul\":5725:5856   */\n      tag_92\n      jump\t// in\n    tag_155:\n        /* \"#utility.yul\":5717:5856   */\n      swap1\n      pop\n        /* \"#utility.yul\":5444:5863   */\n      swap2\n      swap1\n      pop\n      jump\t// out\n        /* \"#utility.yul\":5869:6101   */\n    tag_93:\n        /* \"#utility.yul\":6009:6043   */\n      0x4e6f207469656e6573207065726d69736f732070617261207265616c697a6172\n        /* \"#utility.yul\":6005:6006   */\n      0x00\n        /* \"#utility.yul\":5997:6003   */\n      dup3\n        /* \"#utility.yul\":5993:6007   */\n      add\n        /* \"#utility.yul\":5986:6044   */\n      mstore\n        /* \"#utility.yul\":6078:6093   */\n      0x20657374612066756e63696f6e00000000000000000000000000000000000000\n        /* \"#utility.yul\":6073:6075   */\n      0x20\n        /* \"#utility.yul\":6065:6071   */\n      dup3\n        /* \"#utility.yul\":6061:6076   */\n      add\n        /* \"#utility.yul\":6054:6094   */\n      mstore\n        /* \"#utility.yul\":5869:6101   */\n      pop\n      jump\t// out\n        /* \"#utility.yul\":6107:6473   */\n    tag_94:\n        /* \"#utility.yul\":6249:6252   */\n      0x00\n        /* \"#utility.yul\":6270:6337   */\n      tag_158\n        /* \"#utility.yul\":6334:6336   */\n      0x2d\n        /* \"#utility.yul\":6329:6332   */\n      dup4\n        /* \"#utility.yul\":6270:6337   */\n      tag_90\n      jump\t// in\n    tag_158:\n        /* \"#utility.yul\":6263:6337   */\n      swap2\n      pop\n        /* \"#utility.yul\":6346:6439   */\n      tag_159\n        /* \"#utility.yul\":6435:6438   */\n      dup3\n        /* \"#utility.yul\":6346:6439   */\n      tag_93\n      jump\t// in\n    tag_159:\n        /* \"#utility.yul\":6464:6466   */\n      0x40\n        /* \"#utility.yul\":6459:6462   */\n      dup3\n        /* \"#utility.yul\":6455:6467   */\n      add\n        /* \"#utility.yul\":6448:6467   */\n      swap1\n      pop\n        /* \"#utility.yul\":6107:6473   */\n      swap2\n      swap1\n      pop\n      jump\t// out\n        /* \"#utility.yul\":6479:6898   */\n    tag_62:\n        /* \"#utility.yul\":6645:6649   */\n      0x00\n        /* \"#utility.yul\":6683:6685   */\n      0x20\n        /* \"#utility.yul\":6672:6681   */\n      dup3\n        /* \"#utility.yul\":6668:6686   */\n      add\n        /* \"#utility.yul\":6660:6686   */\n      swap1\n      pop\n        /* \"#utility.yul\":6732:6741   */\n      dup2\n        /* \"#utility.yul\":6726:6730   */\n      dup2\n        /* \"#utility.yul\":6722:6742   */\n      sub\n        /* \"#utility.yul\":6718:6719   */\n      0x00\n        /* \"#utility.yul\":6707:6716   */\n      dup4\n        /* \"#utility.yul\":6703:6720   */\n      add\n        /* \"#utility.yul\":6696:6743   */\n      mstore\n        /* \"#utility.yul\":6760:6891   */\n      tag_161\n        /* \"#utility.yul\":6886:6890   */\n      dup2\n        /* \"#utility.yul\":6760:6891   */\n      tag_94\n      jump\t// in\n    tag_161:\n        /* \"#utility.yul\":6752:6891   */\n      swap1\n      pop\n        /* \"#utility.yul\":6479:6898   */\n      swap2\n      swap1\n      pop\n      jump\t// out\n        /* \"#utility.yul\":6904:7236   */\n    tag_69:\n        /* \"#utility.yul\":7025:7029   */\n      0x00\n        /* \"#utility.yul\":7063:7065   */\n      0x40\n        /* \"#utility.yul\":7052:7061   */\n      dup3\n        /* \"#utility.yul\":7048:7066   */\n      add\n        /* \"#utility.yul\":7040:7066   */\n      swap1\n      pop\n        /* \"#utility.yul\":7076:7147   */\n      tag_163\n        /* \"#utility.yul\":7144:7145   */\n      0x00\n        /* \"#utility.yul\":7133:7142   */\n      dup4\n        /* \"#utility.yul\":7129:7146   */\n      add\n        /* \"#utility.yul\":7120:7126   */\n      dup6\n        /* \"#utility.yul\":7076:7147   */\n      tag_72\n      jump\t// in\n    tag_163:\n        /* \"#utility.yul\":7157:7229   */\n      tag_164\n        /* \"#utility.yul\":7225:7227   */\n      0x20\n        /* \"#utility.yul\":7214:7223   */\n      dup4\n        /* \"#utility.yul\":7210:7228   */\n      add\n        /* \"#utility.yul\":7201:7207   */\n      dup5\n        /* \"#utility.yul\":7157:7229   */\n      tag_72\n      jump\t// in\n    tag_164:\n        /* \"#utility.yul\":6904:7236   */\n      swap4\n      swap3\n      pop\n      pop\n      pop\n      jump\t// out\n    stop\n\n    sub_0: assembly {\n            /* \"OMS/oms.sol\":3135:5390  contract CentroSalud {... */\n          mstore(0x40, 0x80)\n            /* \"OMS/oms.sol\":3278:3406  constructor(address _direccion) {... */\n          callvalue\n          dup1\n          iszero\n          tag_1\n          jumpi\n          0x00\n          dup1\n          revert\n        tag_1:\n          pop\n          mload(0x40)\n          sub(codesize, bytecodeSize)\n          dup1\n          bytecodeSize\n          dup4\n          codecopy\n          dup2\n          dup2\n          add\n          0x40\n          mstore\n          dup2\n          add\n          swap1\n          tag_2\n          swap2\n          swap1\n          tag_3\n          jump\t// in\n        tag_2:\n            /* \"OMS/oms.sol\":3344:3354  _direccion */\n          dup1\n            /* \"OMS/oms.sol\":3321:3341  direccionCentroSalud */\n          0x00\n          dup1\n            /* \"OMS/oms.sol\":3321:3354  direccionCentroSalud = _direccion */\n          0x0100\n          exp\n          dup2\n          sload\n          dup2\n          0xffffffffffffffffffffffffffffffffffffffff\n          mul\n          not\n          and\n          swap1\n          dup4\n          0xffffffffffffffffffffffffffffffffffffffff\n          and\n          mul\n          or\n          swap1\n          sstore\n          pop\n            /* \"OMS/oms.sol\":3393:3397  this */\n          address\n            /* \"OMS/oms.sol\":3365:3382  direccionContrato */\n          0x01\n          0x00\n            /* \"OMS/oms.sol\":3365:3398  direccionContrato = address(this) */\n          0x0100\n          exp\n          dup2\n          sload\n          dup2\n          0xffffffffffffffffffffffffffffffffffffffff\n          mul\n          not\n          and\n          swap1\n          dup4\n          0xffffffffffffffffffffffffffffffffffffffff\n          and\n          mul\n          or\n          swap1\n          sstore\n          pop\n            /* \"OMS/oms.sol\":3278:3406  constructor(address _direccion) {... */\n          pop\n            /* \"OMS/oms.sol\":3135:5390  contract CentroSalud {... */\n          jump(tag_6)\n            /* \"#utility.yul\":88:205   */\n        tag_8:\n            /* \"#utility.yul\":197:198   */\n          0x00\n            /* \"#utility.yul\":194:195   */\n          dup1\n            /* \"#utility.yul\":187:199   */\n          revert\n            /* \"#utility.yul\":334:460   */\n        tag_10:\n            /* \"#utility.yul\":371:378   */\n          0x00\n            /* \"#utility.yul\":411:453   */\n          0xffffffffffffffffffffffffffffffffffffffff\n            /* \"#utility.yul\":404:409   */\n          dup3\n            /* \"#utility.yul\":400:454   */\n          and\n            /* \"#utility.yul\":389:454   */\n          swap1\n          pop\n            /* \"#utility.yul\":334:460   */\n          swap2\n          swap1\n          pop\n          jump\t// out\n            /* \"#utility.yul\":466:562   */\n        tag_11:\n            /* \"#utility.yul\":503:510   */\n          0x00\n            /* \"#utility.yul\":532:556   */\n          tag_20\n            /* \"#utility.yul\":550:555   */\n          dup3\n            /* \"#utility.yul\":532:556   */\n          tag_10\n          jump\t// in\n        tag_20:\n            /* \"#utility.yul\":521:556   */\n          swap1\n          pop\n            /* \"#utility.yul\":466:562   */\n          swap2\n          swap1\n          pop\n          jump\t// out\n            /* \"#utility.yul\":568:690   */\n        tag_12:\n            /* \"#utility.yul\":641:665   */\n          tag_22\n            /* \"#utility.yul\":659:664   */\n          dup2\n            /* \"#utility.yul\":641:665   */\n          tag_11\n          jump\t// in\n        tag_22:\n            /* \"#utility.yul\":634:639   */\n          dup2\n            /* \"#utility.yul\":631:666   */\n          eq\n            /* \"#utility.yul\":621:684   */\n          tag_23\n          jumpi\n            /* \"#utility.yul\":680:681   */\n          0x00\n            /* \"#utility.yul\":677:678   */\n          dup1\n            /* \"#utility.yul\":670:682   */\n          revert\n            /* \"#utility.yul\":621:684   */\n        tag_23:\n            /* \"#utility.yul\":568:690   */\n          pop\n          jump\t// out\n            /* \"#utility.yul\":696:839   */\n        tag_13:\n            /* \"#utility.yul\":753:758   */\n          0x00\n            /* \"#utility.yul\":784:790   */\n          dup2\n            /* \"#utility.yul\":778:791   */\n          mload\n            /* \"#utility.yul\":769:791   */\n          swap1\n          pop\n            /* \"#utility.yul\":800:833   */\n          tag_25\n            /* \"#utility.yul\":827:832   */\n          dup2\n            /* \"#utility.yul\":800:833   */\n          tag_12\n          jump\t// in\n        tag_25:\n            /* \"#utility.yul\":696:839   */\n          swap3\n          swap2\n          pop\n          pop\n          jump\t// out\n            /* \"#utility.yul\":845:1196   */\n        tag_3:\n            /* \"#utility.yul\":915:921   */\n          0x00\n            /* \"#utility.yul\":964:966   */\n          0x20\n            /* \"#utility.yul\":952:961   */\n          dup3\n            /* \"#utility.yul\":943:950   */\n          dup5\n            /* \"#utility.yul\":939:962   */\n          sub\n            /* \"#utility.yul\":935:967   */\n          slt\n            /* \"#utility.yul\":932:1051   */\n          iszero\n          tag_27\n          jumpi\n            /* \"#utility.yul\":970:1049   */\n          tag_28\n          tag_8\n          jump\t// in\n        tag_28:\n            /* \"#utility.yul\":932:1051   */\n        tag_27:\n            /* \"#utility.yul\":1090:1091   */\n          0x00\n            /* \"#utility.yul\":1115:1179   */\n          tag_29\n            /* \"#utility.yul\":1171:1178   */\n          dup5\n            /* \"#utility.yul\":1162:1168   */\n          dup3\n            /* \"#utility.yul\":1151:1160   */\n          dup6\n            /* \"#utility.yul\":1147:1169   */\n          add\n            /* \"#utility.yul\":1115:1179   */\n          tag_13\n          jump\t// in\n        tag_29:\n            /* \"#utility.yul\":1105:1179   */\n          swap2\n          pop\n            /* \"#utility.yul\":1061:1189   */\n          pop\n            /* \"#utility.yul\":845:1196   */\n          swap3\n          swap2\n          pop\n          pop\n          jump\t// out\n            /* \"OMS/oms.sol\":3135:5390  contract CentroSalud {... */\n        tag_6:\n          dataSize(sub_0)\n          dup1\n          dataOffset(sub_0)\n          0x00\n          codecopy\n          0x00\n          return\n        stop\n\n        sub_0: assembly {\n                /* \"OMS/oms.sol\":3135:5390  contract CentroSalud {... */\n              mstore(0x40, 0x80)\n              callvalue\n              dup1\n              iszero\n              tag_1\n              jumpi\n              0x00\n              dup1\n              revert\n            tag_1:\n              pop\n              jumpi(tag_2, lt(calldatasize, 0x04))\n              shr(0xe0, calldataload(0x00))\n              dup1\n              0x39282f7e\n              eq\n              tag_3\n              jumpi\n              dup1\n              0x4c231a9b\n              eq\n              tag_4\n              jumpi\n              dup1\n              0x53e6f6ae\n              eq\n              tag_5\n              jumpi\n              dup1\n              0x8707585f\n              eq\n              tag_6\n              jumpi\n            tag_2:\n              0x00\n              dup1\n              revert\n                /* \"OMS/oms.sol\":3195:3230  address public direccionCentroSalud */\n            tag_3:\n              tag_7\n              tag_8\n              jump\t// in\n            tag_7:\n              mload(0x40)\n              tag_9\n              swap2\n              swap1\n              tag_10\n              jump\t// in\n            tag_9:\n              mload(0x40)\n              dup1\n              swap2\n              sub\n              swap1\n              return\n                /* \"OMS/oms.sol\":3237:3269  address public direccionContrato */\n            tag_4:\n              tag_11\n              tag_12\n              jump\t// in\n            tag_11:\n              mload(0x40)\n              tag_13\n              swap2\n              swap1\n              tag_10\n              jump\t// in\n            tag_13:\n              mload(0x40)\n              dup1\n              swap2\n              sub\n              swap1\n              return\n                /* \"OMS/oms.sol\":4743:5385  function visualizarResultados(string memory _idPersona) public view returns(string memory, string memory) {... */\n            tag_5:\n              tag_14\n              0x04\n              dup1\n              calldatasize\n              sub\n              dup2\n              add\n              swap1\n              tag_15\n              swap2\n              swap1\n              tag_16\n              jump\t// in\n            tag_15:\n              tag_17\n              jump\t// in\n            tag_14:\n              mload(0x40)\n              tag_18\n              swap3\n              swap2\n              swap1\n              tag_19\n              jump\t// in\n            tag_18:\n              mload(0x40)\n              dup1\n              swap2\n              sub\n              swap1\n              return\n                /* \"OMS/oms.sol\":4140:4671  function resultadosPrueba(string memory _idPersona, bool _resultadoPrueba, string memory _codigoIPFS) public onlyCentroSalud(msg.sender) {... */\n            tag_6:\n              tag_20\n              0x04\n              dup1\n              calldatasize\n              sub\n              dup2\n              add\n              swap1\n              tag_21\n              swap2\n              swap1\n              tag_22\n              jump\t// in\n            tag_21:\n              tag_23\n              jump\t// in\n            tag_20:\n              stop\n                /* \"OMS/oms.sol\":3195:3230  address public direccionCentroSalud */\n            tag_8:\n              0x00\n              dup1\n              sload\n              swap1\n              0x0100\n              exp\n              swap1\n              div\n              0xffffffffffffffffffffffffffffffffffffffff\n              and\n              dup2\n              jump\t// out\n                /* \"OMS/oms.sol\":3237:3269  address public direccionContrato */\n            tag_12:\n              0x01\n              0x00\n              swap1\n              sload\n              swap1\n              0x0100\n              exp\n              swap1\n              div\n              0xffffffffffffffffffffffffffffffffffffffff\n              and\n              dup2\n              jump\t// out\n                /* \"OMS/oms.sol\":4743:5385  function visualizarResultados(string memory _idPersona) public view returns(string memory, string memory) {... */\n            tag_17:\n                /* \"OMS/oms.sol\":4819:4832  string memory */\n              0x60\n                /* \"OMS/oms.sol\":4834:4847  string memory */\n              dup1\n                /* \"OMS/oms.sol\":4907:4928  bytes32 hashIdPersona */\n              0x00\n                /* \"OMS/oms.sol\":4958:4968  _idPersona */\n              dup4\n                /* \"OMS/oms.sol\":4941:4969  abi.encodePacked(_idPersona) */\n              add(0x20, mload(0x40))\n              tag_25\n              swap2\n              swap1\n              tag_26\n              jump\t// in\n            tag_25:\n              mload(0x40)\n              0x20\n              dup2\n              dup4\n              sub\n              sub\n              dup2\n              mstore\n              swap1\n              0x40\n              mstore\n                /* \"OMS/oms.sol\":4931:4970  keccak256(abi.encodePacked(_idPersona)) */\n              dup1\n              mload\n              swap1\n              0x20\n              add\n              keccak256\n                /* \"OMS/oms.sol\":4907:4970  bytes32 hashIdPersona = keccak256(abi.encodePacked(_idPersona)) */\n              swap1\n              pop\n                /* \"OMS/oms.sol\":5031:5060  string memory resultadoPrueba */\n              0x60\n                /* \"OMS/oms.sol\":5125:5129  true */\n              0x01\n                /* \"OMS/oms.sol\":5077:5129  resultadosMedicos[hashIdPersona].diagnostico == true */\n              iszero\n              iszero\n                /* \"OMS/oms.sol\":5077:5094  resultadosMedicos */\n              0x02\n                /* \"OMS/oms.sol\":5077:5109  resultadosMedicos[hashIdPersona] */\n              0x00\n                /* \"OMS/oms.sol\":5095:5108  hashIdPersona */\n              dup5\n                /* \"OMS/oms.sol\":5077:5109  resultadosMedicos[hashIdPersona] */\n              dup2\n              mstore\n              0x20\n              add\n              swap1\n              dup2\n              mstore\n              0x20\n              add\n              0x00\n              keccak256\n                /* \"OMS/oms.sol\":5077:5121  resultadosMedicos[hashIdPersona].diagnostico */\n              0x00\n              add\n              0x00\n              swap1\n              sload\n              swap1\n              0x0100\n              exp\n              swap1\n              div\n              0xff\n              and\n                /* \"OMS/oms.sol\":5077:5129  resultadosMedicos[hashIdPersona].diagnostico == true */\n              iszero\n              iszero\n              sub\n                /* \"OMS/oms.sol\":5073:5247  if (resultadosMedicos[hashIdPersona].diagnostico == true) {... */\n              tag_27\n              jumpi\n                /* \"OMS/oms.sol\":5146:5174  resultadoPrueba = \"Positivo\" */\n              mload(0x40)\n              dup1\n              0x40\n              add\n              0x40\n              mstore\n              dup1\n              0x08\n              dup2\n              mstore\n              0x20\n              add\n              0x506f73697469766f000000000000000000000000000000000000000000000000\n              dup2\n              mstore\n              pop\n              swap1\n              pop\n                /* \"OMS/oms.sol\":5073:5247  if (resultadosMedicos[hashIdPersona].diagnostico == true) {... */\n              jump(tag_28)\n            tag_27:\n                /* \"OMS/oms.sol\":5207:5235  resultadoPrueba = \"Negativo\" */\n              mload(0x40)\n              dup1\n              0x40\n              add\n              0x40\n              mstore\n              dup1\n              0x08\n              dup2\n              mstore\n              0x20\n              add\n              0x4e6567617469766f000000000000000000000000000000000000000000000000\n              dup2\n              mstore\n              pop\n              swap1\n              pop\n                /* \"OMS/oms.sol\":5073:5247  if (resultadosMedicos[hashIdPersona].diagnostico == true) {... */\n            tag_28:\n                /* \"OMS/oms.sol\":5315:5330  resultadoPrueba */\n              dup1\n                /* \"OMS/oms.sol\":5333:5350  resultadosMedicos */\n              0x02\n                /* \"OMS/oms.sol\":5333:5365  resultadosMedicos[hashIdPersona] */\n              0x00\n                /* \"OMS/oms.sol\":5351:5364  hashIdPersona */\n              dup5\n                /* \"OMS/oms.sol\":5333:5365  resultadosMedicos[hashIdPersona] */\n              dup2\n              mstore\n              0x20\n              add\n              swap1\n              dup2\n              mstore\n              0x20\n              add\n              0x00\n              keccak256\n                /* \"OMS/oms.sol\":5333:5376  resultadosMedicos[hashIdPersona].codigoIPFS */\n              0x01\n              add\n                /* \"OMS/oms.sol\":5307:5377  return (resultadoPrueba,  resultadosMedicos[hashIdPersona].codigoIPFS) */\n              dup1\n              dup1\n              sload\n              tag_29\n              swap1\n              tag_30\n              jump\t// in\n            tag_29:\n              dup1\n              0x1f\n              add\n              0x20\n              dup1\n              swap2\n              div\n              mul\n              0x20\n              add\n              mload(0x40)\n              swap1\n              dup2\n              add\n              0x40\n              mstore\n              dup1\n              swap3\n              swap2\n              swap1\n              dup2\n              dup2\n              mstore\n              0x20\n              add\n              dup3\n              dup1\n              sload\n              tag_31\n              swap1\n              tag_30\n              jump\t// in\n            tag_31:\n              dup1\n              iszero\n              tag_32\n              jumpi\n              dup1\n              0x1f\n              lt\n              tag_33\n              jumpi\n              0x0100\n              dup1\n              dup4\n              sload\n              div\n              mul\n              dup4\n              mstore\n              swap2\n              0x20\n              add\n              swap2\n              jump(tag_32)\n            tag_33:\n              dup3\n              add\n              swap2\n              swap1\n              0x00\n              mstore\n              keccak256(0x00, 0x20)\n              swap1\n            tag_34:\n              dup2\n              sload\n              dup2\n              mstore\n              swap1\n              0x01\n              add\n              swap1\n              0x20\n              add\n              dup1\n              dup4\n              gt\n              tag_34\n              jumpi\n              dup3\n              swap1\n              sub\n              0x1f\n              and\n              dup3\n              add\n              swap2\n            tag_32:\n              pop\n              pop\n              pop\n              pop\n              pop\n              swap1\n              pop\n              swap4\n              pop\n              swap4\n              pop\n              pop\n              pop\n                /* \"OMS/oms.sol\":4743:5385  function visualizarResultados(string memory _idPersona) public view returns(string memory, string memory) {... */\n              swap2\n              pop\n              swap2\n              jump\t// out\n                /* \"OMS/oms.sol\":4140:4671  function resultadosPrueba(string memory _idPersona, bool _resultadoPrueba, string memory _codigoIPFS) public onlyCentroSalud(msg.sender) {... */\n            tag_23:\n                /* \"OMS/oms.sol\":4265:4275  msg.sender */\n              caller\n                /* \"OMS/oms.sol\":3918:3938  direccionCentroSalud */\n              0x00\n              dup1\n              sload\n              swap1\n              0x0100\n              exp\n              swap1\n              div\n              0xffffffffffffffffffffffffffffffffffffffff\n              and\n                /* \"OMS/oms.sol\":3904:3938  _direccion == direccionCentroSalud */\n              0xffffffffffffffffffffffffffffffffffffffff\n              and\n                /* \"OMS/oms.sol\":3904:3914  _direccion */\n              dup2\n                /* \"OMS/oms.sol\":3904:3938  _direccion == direccionCentroSalud */\n              0xffffffffffffffffffffffffffffffffffffffff\n              and\n              eq\n                /* \"OMS/oms.sol\":3896:3988  require(_direccion == direccionCentroSalud, \"No tienes permisos para ejecutar esta funcion\") */\n              tag_36\n              jumpi\n              mload(0x40)\n              0x08c379a000000000000000000000000000000000000000000000000000000000\n              dup2\n              mstore\n              0x04\n              add\n              tag_37\n              swap1\n              tag_38\n              jump\t// in\n            tag_37:\n              mload(0x40)\n              dup1\n              swap2\n              sub\n              swap1\n              revert\n            tag_36:\n                /* \"OMS/oms.sol\":4341:4362  bytes32 hashIdPersona */\n              0x00\n                /* \"OMS/oms.sol\":4392:4402  _idPersona */\n              dup5\n                /* \"OMS/oms.sol\":4375:4403  abi.encodePacked(_idPersona) */\n              add(0x20, mload(0x40))\n              tag_40\n              swap2\n              swap1\n              tag_26\n              jump\t// in\n            tag_40:\n              mload(0x40)\n              0x20\n              dup2\n              dup4\n              sub\n              sub\n              dup2\n              mstore\n              swap1\n              0x40\n              mstore\n                /* \"OMS/oms.sol\":4365:4404  keccak256(abi.encodePacked(_idPersona)) */\n              dup1\n              mload\n              swap1\n              0x20\n              add\n              keccak256\n                /* \"OMS/oms.sol\":4341:4404  bytes32 hashIdPersona = keccak256(abi.encodePacked(_idPersona)) */\n              swap1\n              pop\n                /* \"OMS/oms.sol\":4527:4567  Resultado(_resultadoPrueba, _codigoIPFS) */\n              mload(0x40)\n              dup1\n              0x40\n              add\n              0x40\n              mstore\n              dup1\n                /* \"OMS/oms.sol\":4537:4553  _resultadoPrueba */\n              dup6\n                /* \"OMS/oms.sol\":4527:4567  Resultado(_resultadoPrueba, _codigoIPFS) */\n              iszero\n              iszero\n              dup2\n              mstore\n              0x20\n              add\n                /* \"OMS/oms.sol\":4555:4566  _codigoIPFS */\n              dup5\n                /* \"OMS/oms.sol\":4527:4567  Resultado(_resultadoPrueba, _codigoIPFS) */\n              dup2\n              mstore\n              pop\n                /* \"OMS/oms.sol\":4492:4509  resultadosMedicos */\n              0x02\n                /* \"OMS/oms.sol\":4492:4524  resultadosMedicos[hashIdPersona] */\n              0x00\n                /* \"OMS/oms.sol\":4510:4523  hashIdPersona */\n              dup4\n                /* \"OMS/oms.sol\":4492:4524  resultadosMedicos[hashIdPersona] */\n              dup2\n              mstore\n              0x20\n              add\n              swap1\n              dup2\n              mstore\n              0x20\n              add\n              0x00\n              keccak256\n                /* \"OMS/oms.sol\":4492:4567  resultadosMedicos[hashIdPersona] = Resultado(_resultadoPrueba, _codigoIPFS) */\n              0x00\n              dup3\n              add\n              mload\n              dup2\n              0x00\n              add\n              exp(0x0100, 0x00)\n              dup2\n              sload\n              dup2\n              0xff\n              mul\n              not\n              and\n              swap1\n              dup4\n              iszero\n              iszero\n              mul\n              or\n              swap1\n              sstore\n              pop\n              0x20\n              dup3\n              add\n              mload\n              dup2\n              0x01\n              add\n              swap1\n              dup2\n              tag_41\n              swap2\n              swap1\n              tag_42\n              jump\t// in\n            tag_41:\n              pop\n              swap1\n              pop\n              pop\n                /* \"OMS/oms.sol\":4618:4663  nuevoResultado(_codigoIPFS, _resultadoPrueba) */\n              0x99d08ba2a7620bf3c6b644d9b20e406e19716924a4b5a939c7582fc507cb95f1\n                /* \"OMS/oms.sol\":4633:4644  _codigoIPFS */\n              dup4\n                /* \"OMS/oms.sol\":4646:4662  _resultadoPrueba */\n              dup6\n                /* \"OMS/oms.sol\":4618:4663  nuevoResultado(_codigoIPFS, _resultadoPrueba) */\n              mload(0x40)\n              tag_43\n              swap3\n              swap2\n              swap1\n              tag_44\n              jump\t// in\n            tag_43:\n              mload(0x40)\n              dup1\n              swap2\n              sub\n              swap1\n              log1\n                /* \"OMS/oms.sol\":4277:4671  {... */\n              pop\n                /* \"OMS/oms.sol\":4140:4671  function resultadosPrueba(string memory _idPersona, bool _resultadoPrueba, string memory _codigoIPFS) public onlyCentroSalud(msg.sender) {... */\n              pop\n              pop\n              pop\n              pop\n              jump\t// out\n                /* \"#utility.yul\":7:133   */\n            tag_45:\n                /* \"#utility.yul\":44:51   */\n              0x00\n                /* \"#utility.yul\":84:126   */\n              0xffffffffffffffffffffffffffffffffffffffff\n                /* \"#utility.yul\":77:82   */\n              dup3\n                /* \"#utility.yul\":73:127   */\n              and\n                /* \"#utility.yul\":62:127   */\n              swap1\n              pop\n                /* \"#utility.yul\":7:133   */\n              swap2\n              swap1\n              pop\n              jump\t// out\n                /* \"#utility.yul\":139:235   */\n            tag_46:\n                /* \"#utility.yul\":176:183   */\n              0x00\n                /* \"#utility.yul\":205:229   */\n              tag_93\n                /* \"#utility.yul\":223:228   */\n              dup3\n                /* \"#utility.yul\":205:229   */\n              tag_45\n              jump\t// in\n            tag_93:\n                /* \"#utility.yul\":194:229   */\n              swap1\n              pop\n                /* \"#utility.yul\":139:235   */\n              swap2\n              swap1\n              pop\n              jump\t// out\n                /* \"#utility.yul\":241:359   */\n            tag_47:\n                /* \"#utility.yul\":328:352   */\n              tag_95\n                /* \"#utility.yul\":346:351   */\n              dup2\n                /* \"#utility.yul\":328:352   */\n              tag_46\n              jump\t// in\n            tag_95:\n                /* \"#utility.yul\":323:326   */\n              dup3\n                /* \"#utility.yul\":316:353   */\n              mstore\n                /* \"#utility.yul\":241:359   */\n              pop\n              pop\n              jump\t// out\n                /* \"#utility.yul\":365:587   */\n            tag_10:\n                /* \"#utility.yul\":458:462   */\n              0x00\n                /* \"#utility.yul\":496:498   */\n              0x20\n                /* \"#utility.yul\":485:494   */\n              dup3\n                /* \"#utility.yul\":481:499   */\n              add\n                /* \"#utility.yul\":473:499   */\n              swap1\n              pop\n                /* \"#utility.yul\":509:580   */\n              tag_97\n                /* \"#utility.yul\":577:578   */\n              0x00\n                /* \"#utility.yul\":566:575   */\n              dup4\n                /* \"#utility.yul\":562:579   */\n              add\n                /* \"#utility.yul\":553:559   */\n              dup5\n                /* \"#utility.yul\":509:580   */\n              tag_47\n              jump\t// in\n            tag_97:\n                /* \"#utility.yul\":365:587   */\n              swap3\n              swap2\n              pop\n              pop\n              jump\t// out\n                /* \"#utility.yul\":593:668   */\n            tag_48:\n                /* \"#utility.yul\":626:632   */\n              0x00\n                /* \"#utility.yul\":659:661   */\n              0x40\n                /* \"#utility.yul\":653:662   */\n              mload\n                /* \"#utility.yul\":643:662   */\n              swap1\n              pop\n                /* \"#utility.yul\":593:668   */\n              swap1\n              jump\t// out\n                /* \"#utility.yul\":674:791   */\n            tag_49:\n                /* \"#utility.yul\":783:784   */\n              0x00\n                /* \"#utility.yul\":780:781   */\n              dup1\n                /* \"#utility.yul\":773:785   */\n              revert\n                /* \"#utility.yul\":797:914   */\n            tag_50:\n                /* \"#utility.yul\":906:907   */\n              0x00\n                /* \"#utility.yul\":903:904   */\n              dup1\n                /* \"#utility.yul\":896:908   */\n              revert\n                /* \"#utility.yul\":920:1037   */\n            tag_51:\n                /* \"#utility.yul\":1029:1030   */\n              0x00\n                /* \"#utility.yul\":1026:1027   */\n              dup1\n                /* \"#utility.yul\":1019:1031   */\n              revert\n                /* \"#utility.yul\":1043:1160   */\n            tag_52:\n                /* \"#utility.yul\":1152:1153   */\n              0x00\n                /* \"#utility.yul\":1149:1150   */\n              dup1\n                /* \"#utility.yul\":1142:1154   */\n              revert\n                /* \"#utility.yul\":1166:1268   */\n            tag_53:\n                /* \"#utility.yul\":1207:1213   */\n              0x00\n                /* \"#utility.yul\":1258:1260   */\n              0x1f\n                /* \"#utility.yul\":1254:1261   */\n              not\n                /* \"#utility.yul\":1249:1251   */\n              0x1f\n                /* \"#utility.yul\":1242:1247   */\n              dup4\n                /* \"#utility.yul\":1238:1252   */\n              add\n                /* \"#utility.yul\":1234:1262   */\n              and\n                /* \"#utility.yul\":1224:1262   */\n              swap1\n              pop\n                /* \"#utility.yul\":1166:1268   */\n              swap2\n              swap1\n              pop\n              jump\t// out\n                /* \"#utility.yul\":1274:1454   */\n            tag_54:\n                /* \"#utility.yul\":1322:1399   */\n              0x4e487b7100000000000000000000000000000000000000000000000000000000\n                /* \"#utility.yul\":1319:1320   */\n              0x00\n                /* \"#utility.yul\":1312:1400   */\n              mstore\n                /* \"#utility.yul\":1419:1423   */\n              0x41\n                /* \"#utility.yul\":1416:1417   */\n              0x04\n                /* \"#utility.yul\":1409:1424   */\n              mstore\n                /* \"#utility.yul\":1443:1447   */\n              0x24\n                /* \"#utility.yul\":1440:1441   */\n              0x00\n                /* \"#utility.yul\":1433:1448   */\n              revert\n                /* \"#utility.yul\":1460:1741   */\n            tag_55:\n                /* \"#utility.yul\":1543:1570   */\n              tag_106\n                /* \"#utility.yul\":1565:1569   */\n              dup3\n                /* \"#utility.yul\":1543:1570   */\n              tag_53\n              jump\t// in\n            tag_106:\n                /* \"#utility.yul\":1535:1541   */\n              dup2\n                /* \"#utility.yul\":1531:1571   */\n              add\n                /* \"#utility.yul\":1673:1679   */\n              dup2\n                /* \"#utility.yul\":1661:1671   */\n              dup2\n                /* \"#utility.yul\":1658:1680   */\n              lt\n                /* \"#utility.yul\":1637:1655   */\n              0xffffffffffffffff\n                /* \"#utility.yul\":1625:1635   */\n              dup3\n                /* \"#utility.yul\":1622:1656   */\n              gt\n                /* \"#utility.yul\":1619:1681   */\n              or\n                /* \"#utility.yul\":1616:1704   */\n              iszero\n              tag_107\n              jumpi\n                /* \"#utility.yul\":1684:1702   */\n              tag_108\n              tag_54\n              jump\t// in\n            tag_108:\n                /* \"#utility.yul\":1616:1704   */\n            tag_107:\n                /* \"#utility.yul\":1724:1734   */\n              dup1\n                /* \"#utility.yul\":1720:1722   */\n              0x40\n                /* \"#utility.yul\":1713:1735   */\n              mstore\n                /* \"#utility.yul\":1503:1741   */\n              pop\n                /* \"#utility.yul\":1460:1741   */\n              pop\n              pop\n              jump\t// out\n                /* \"#utility.yul\":1747:1876   */\n            tag_56:\n                /* \"#utility.yul\":1781:1787   */\n              0x00\n                /* \"#utility.yul\":1808:1828   */\n              tag_110\n              tag_48\n              jump\t// in\n            tag_110:\n                /* \"#utility.yul\":1798:1828   */\n              swap1\n              pop\n                /* \"#utility.yul\":1837:1870   */\n              tag_111\n                /* \"#utility.yul\":1865:1869   */\n              dup3\n                /* \"#utility.yul\":1857:1863   */\n              dup3\n                /* \"#utility.yul\":1837:1870   */\n              tag_55\n              jump\t// in\n            tag_111:\n                /* \"#utility.yul\":1747:1876   */\n              swap2\n              swap1\n              pop\n              jump\t// out\n                /* \"#utility.yul\":1882:2190   */\n            tag_57:\n                /* \"#utility.yul\":1944:1948   */\n              0x00\n                /* \"#utility.yul\":2034:2052   */\n              0xffffffffffffffff\n                /* \"#utility.yul\":2026:2032   */\n              dup3\n                /* \"#utility.yul\":2023:2053   */\n              gt\n                /* \"#utility.yul\":2020:2076   */\n              iszero\n              tag_113\n              jumpi\n                /* \"#utility.yul\":2056:2074   */\n              tag_114\n              tag_54\n              jump\t// in\n            tag_114:\n                /* \"#utility.yul\":2020:2076   */\n            tag_113:\n                /* \"#utility.yul\":2094:2123   */\n              tag_115\n                /* \"#utility.yul\":2116:2122   */\n              dup3\n                /* \"#utility.yul\":2094:2123   */\n              tag_53\n              jump\t// in\n            tag_115:\n                /* \"#utility.yul\":2086:2123   */\n              swap1\n              pop\n                /* \"#utility.yul\":2178:2182   */\n              0x20\n                /* \"#utility.yul\":2172:2176   */\n              dup2\n                /* \"#utility.yul\":2168:2183   */\n              add\n                /* \"#utility.yul\":2160:2183   */\n              swap1\n              pop\n                /* \"#utility.yul\":1882:2190   */\n              swap2\n              swap1\n              pop\n              jump\t// out\n                /* \"#utility.yul\":2196:2342   */\n            tag_58:\n                /* \"#utility.yul\":2293:2299   */\n              dup3\n                /* \"#utility.yul\":2288:2291   */\n              dup2\n                /* \"#utility.yul\":2283:2286   */\n              dup4\n                /* \"#utility.yul\":2270:2300   */\n              calldatacopy\n                /* \"#utility.yul\":2334:2335   */\n              0x00\n                /* \"#utility.yul\":2325:2331   */\n              dup4\n                /* \"#utility.yul\":2320:2323   */\n              dup4\n                /* \"#utility.yul\":2316:2332   */\n              add\n                /* \"#utility.yul\":2309:2336   */\n              mstore\n                /* \"#utility.yul\":2196:2342   */\n              pop\n              pop\n              pop\n              jump\t// out\n                /* \"#utility.yul\":2348:2773   */\n            tag_59:\n                /* \"#utility.yul\":2426:2431   */\n              0x00\n                /* \"#utility.yul\":2451:2517   */\n              tag_118\n                /* \"#utility.yul\":2467:2516   */\n              tag_119\n                /* \"#utility.yul\":2509:2515   */\n              dup5\n                /* \"#utility.yul\":2467:2516   */\n              tag_57\n              jump\t// in\n            tag_119:\n                /* \"#utility.yul\":2451:2517   */\n              tag_56\n              jump\t// in\n            tag_118:\n                /* \"#utility.yul\":2442:2517   */\n              swap1\n              pop\n                /* \"#utility.yul\":2540:2546   */\n              dup3\n                /* \"#utility.yul\":2533:2538   */\n              dup2\n                /* \"#utility.yul\":2526:2547   */\n              mstore\n                /* \"#utility.yul\":2578:2582   */\n              0x20\n                /* \"#utility.yul\":2571:2576   */\n              dup2\n                /* \"#utility.yul\":2567:2583   */\n              add\n                /* \"#utility.yul\":2616:2619   */\n              dup5\n                /* \"#utility.yul\":2607:2613   */\n              dup5\n                /* \"#utility.yul\":2602:2605   */\n              dup5\n                /* \"#utility.yul\":2598:2614   */\n              add\n                /* \"#utility.yul\":2595:2620   */\n              gt\n                /* \"#utility.yul\":2592:2704   */\n              iszero\n              tag_120\n              jumpi\n                /* \"#utility.yul\":2623:2702   */\n              tag_121\n              tag_52\n              jump\t// in\n            tag_121:\n                /* \"#utility.yul\":2592:2704   */\n            tag_120:\n                /* \"#utility.yul\":2713:2767   */\n              tag_122\n                /* \"#utility.yul\":2760:2766   */\n              dup5\n                /* \"#utility.yul\":2755:2758   */\n              dup3\n                /* \"#utility.yul\":2750:2753   */\n              dup6\n                /* \"#utility.yul\":2713:2767   */\n              tag_58\n              jump\t// in\n            tag_122:\n                /* \"#utility.yul\":2432:2773   */\n              pop\n                /* \"#utility.yul\":2348:2773   */\n              swap4\n              swap3\n              pop\n              pop\n              pop\n              jump\t// out\n                /* \"#utility.yul\":2793:3133   */\n            tag_60:\n                /* \"#utility.yul\":2849:2854   */\n              0x00\n                /* \"#utility.yul\":2898:2901   */\n              dup3\n                /* \"#utility.yul\":2891:2895   */\n              0x1f\n                /* \"#utility.yul\":2883:2889   */\n              dup4\n                /* \"#utility.yul\":2879:2896   */\n              add\n                /* \"#utility.yul\":2875:2902   */\n              slt\n                /* \"#utility.yul\":2865:2987   */\n              tag_124\n              jumpi\n                /* \"#utility.yul\":2906:2985   */\n              tag_125\n              tag_51\n              jump\t// in\n            tag_125:\n                /* \"#utility.yul\":2865:2987   */\n            tag_124:\n                /* \"#utility.yul\":3023:3029   */\n              dup2\n                /* \"#utility.yul\":3010:3030   */\n              calldataload\n                /* \"#utility.yul\":3048:3127   */\n              tag_126\n                /* \"#utility.yul\":3123:3126   */\n              dup5\n                /* \"#utility.yul\":3115:3121   */\n              dup3\n                /* \"#utility.yul\":3108:3112   */\n              0x20\n                /* \"#utility.yul\":3100:3106   */\n              dup7\n                /* \"#utility.yul\":3096:3113   */\n              add\n                /* \"#utility.yul\":3048:3127   */\n              tag_59\n              jump\t// in\n            tag_126:\n                /* \"#utility.yul\":3039:3127   */\n              swap2\n              pop\n                /* \"#utility.yul\":2855:3133   */\n              pop\n                /* \"#utility.yul\":2793:3133   */\n              swap3\n              swap2\n              pop\n              pop\n              jump\t// out\n                /* \"#utility.yul\":3139:3648   */\n            tag_16:\n                /* \"#utility.yul\":3208:3214   */\n              0x00\n                /* \"#utility.yul\":3257:3259   */\n              0x20\n                /* \"#utility.yul\":3245:3254   */\n              dup3\n                /* \"#utility.yul\":3236:3243   */\n              dup5\n                /* \"#utility.yul\":3232:3255   */\n              sub\n                /* \"#utility.yul\":3228:3260   */\n              slt\n                /* \"#utility.yul\":3225:3344   */\n              iszero\n              tag_128\n              jumpi\n                /* \"#utility.yul\":3263:3342   */\n              tag_129\n              tag_49\n              jump\t// in\n            tag_129:\n                /* \"#utility.yul\":3225:3344   */\n            tag_128:\n                /* \"#utility.yul\":3411:3412   */\n              0x00\n                /* \"#utility.yul\":3400:3409   */\n              dup3\n                /* \"#utility.yul\":3396:3413   */\n              add\n                /* \"#utility.yul\":3383:3414   */\n              calldataload\n                /* \"#utility.yul\":3441:3459   */\n              0xffffffffffffffff\n                /* \"#utility.yul\":3433:3439   */\n              dup2\n                /* \"#utility.yul\":3430:3460   */\n              gt\n                /* \"#utility.yul\":3427:3544   */\n              iszero\n              tag_130\n              jumpi\n                /* \"#utility.yul\":3463:3542   */\n              tag_131\n              tag_50\n              jump\t// in\n            tag_131:\n                /* \"#utility.yul\":3427:3544   */\n            tag_130:\n                /* \"#utility.yul\":3568:3631   */\n              tag_132\n                /* \"#utility.yul\":3623:3630   */\n              dup5\n                /* \"#utility.yul\":3614:3620   */\n              dup3\n                /* \"#utility.yul\":3603:3612   */\n              dup6\n                /* \"#utility.yul\":3599:3621   */\n              add\n                /* \"#utility.yul\":3568:3631   */\n              tag_60\n              jump\t// in\n            tag_132:\n                /* \"#utility.yul\":3558:3631   */\n              swap2\n              pop\n                /* \"#utility.yul\":3354:3641   */\n              pop\n                /* \"#utility.yul\":3139:3648   */\n              swap3\n              swap2\n              pop\n              pop\n              jump\t// out\n                /* \"#utility.yul\":3654:3753   */\n            tag_61:\n                /* \"#utility.yul\":3706:3712   */\n              0x00\n                /* \"#utility.yul\":3740:3745   */\n              dup2\n                /* \"#utility.yul\":3734:3746   */\n              mload\n                /* \"#utility.yul\":3724:3746   */\n              swap1\n              pop\n                /* \"#utility.yul\":3654:3753   */\n              swap2\n              swap1\n              pop\n              jump\t// out\n                /* \"#utility.yul\":3759:3928   */\n            tag_62:\n                /* \"#utility.yul\":3843:3854   */\n              0x00\n                /* \"#utility.yul\":3877:3883   */\n              dup3\n                /* \"#utility.yul\":3872:3875   */\n              dup3\n                /* \"#utility.yul\":3865:3884   */\n              mstore\n                /* \"#utility.yul\":3917:3921   */\n              0x20\n                /* \"#utility.yul\":3912:3915   */\n              dup3\n                /* \"#utility.yul\":3908:3922   */\n              add\n                /* \"#utility.yul\":3893:3922   */\n              swap1\n              pop\n                /* \"#utility.yul\":3759:3928   */\n              swap3\n              swap2\n              pop\n              pop\n              jump\t// out\n                /* \"#utility.yul\":3934:4180   */\n            tag_63:\n                /* \"#utility.yul\":4015:4016   */\n              0x00\n                /* \"#utility.yul\":4025:4138   */\n            tag_136:\n                /* \"#utility.yul\":4039:4045   */\n              dup4\n                /* \"#utility.yul\":4036:4037   */\n              dup2\n                /* \"#utility.yul\":4033:4046   */\n              lt\n                /* \"#utility.yul\":4025:4138   */\n              iszero\n              tag_138\n              jumpi\n                /* \"#utility.yul\":4124:4125   */\n              dup1\n                /* \"#utility.yul\":4119:4122   */\n              dup3\n                /* \"#utility.yul\":4115:4126   */\n              add\n                /* \"#utility.yul\":4109:4127   */\n              mload\n                /* \"#utility.yul\":4105:4106   */\n              dup2\n                /* \"#utility.yul\":4100:4103   */\n              dup5\n                /* \"#utility.yul\":4096:4107   */\n              add\n                /* \"#utility.yul\":4089:4128   */\n              mstore\n                /* \"#utility.yul\":4061:4063   */\n              0x20\n                /* \"#utility.yul\":4058:4059   */\n              dup2\n                /* \"#utility.yul\":4054:4064   */\n              add\n                /* \"#utility.yul\":4049:4064   */\n              swap1\n              pop\n                /* \"#utility.yul\":4025:4138   */\n              jump(tag_136)\n            tag_138:\n                /* \"#utility.yul\":4172:4173   */\n              0x00\n                /* \"#utility.yul\":4163:4169   */\n              dup5\n                /* \"#utility.yul\":4158:4161   */\n              dup5\n                /* \"#utility.yul\":4154:4170   */\n              add\n                /* \"#utility.yul\":4147:4174   */\n              mstore\n                /* \"#utility.yul\":3996:4180   */\n              pop\n                /* \"#utility.yul\":3934:4180   */\n              pop\n              pop\n              pop\n              jump\t// out\n                /* \"#utility.yul\":4186:4563   */\n            tag_64:\n                /* \"#utility.yul\":4274:4277   */\n              0x00\n                /* \"#utility.yul\":4302:4341   */\n              tag_140\n                /* \"#utility.yul\":4335:4340   */\n              dup3\n                /* \"#utility.yul\":4302:4341   */\n              tag_61\n              jump\t// in\n            tag_140:\n                /* \"#utility.yul\":4357:4428   */\n              tag_141\n                /* \"#utility.yul\":4421:4427   */\n              dup2\n                /* \"#utility.yul\":4416:4419   */\n              dup6\n                /* \"#utility.yul\":4357:4428   */\n              tag_62\n              jump\t// in\n            tag_141:\n                /* \"#utility.yul\":4350:4428   */\n              swap4\n              pop\n                /* \"#utility.yul\":4437:4502   */\n              tag_142\n                /* \"#utility.yul\":4495:4501   */\n              dup2\n                /* \"#utility.yul\":4490:4493   */\n              dup6\n                /* \"#utility.yul\":4483:4487   */\n              0x20\n                /* \"#utility.yul\":4476:4481   */\n              dup7\n                /* \"#utility.yul\":4472:4488   */\n              add\n                /* \"#utility.yul\":4437:4502   */\n              tag_63\n              jump\t// in\n            tag_142:\n                /* \"#utility.yul\":4527:4556   */\n              tag_143\n                /* \"#utility.yul\":4549:4555   */\n              dup2\n                /* \"#utility.yul\":4527:4556   */\n              tag_53\n              jump\t// in\n            tag_143:\n                /* \"#utility.yul\":4522:4525   */\n              dup5\n                /* \"#utility.yul\":4518:4557   */\n              add\n                /* \"#utility.yul\":4511:4557   */\n              swap2\n              pop\n                /* \"#utility.yul\":4278:4563   */\n              pop\n                /* \"#utility.yul\":4186:4563   */\n              swap3\n              swap2\n              pop\n              pop\n              jump\t// out\n                /* \"#utility.yul\":4569:5083   */\n            tag_19:\n                /* \"#utility.yul\":4730:4734   */\n              0x00\n                /* \"#utility.yul\":4768:4770   */\n              0x40\n                /* \"#utility.yul\":4757:4766   */\n              dup3\n                /* \"#utility.yul\":4753:4771   */\n              add\n                /* \"#utility.yul\":4745:4771   */\n              swap1\n              pop\n                /* \"#utility.yul\":4817:4826   */\n              dup2\n                /* \"#utility.yul\":4811:4815   */\n              dup2\n                /* \"#utility.yul\":4807:4827   */\n              sub\n                /* \"#utility.yul\":4803:4804   */\n              0x00\n                /* \"#utility.yul\":4792:4801   */\n              dup4\n                /* \"#utility.yul\":4788:4805   */\n              add\n                /* \"#utility.yul\":4781:4828   */\n              mstore\n                /* \"#utility.yul\":4845:4923   */\n              tag_145\n                /* \"#utility.yul\":4918:4922   */\n              dup2\n                /* \"#utility.yul\":4909:4915   */\n              dup6\n                /* \"#utility.yul\":4845:4923   */\n              tag_64\n              jump\t// in\n            tag_145:\n                /* \"#utility.yul\":4837:4923   */\n              swap1\n              pop\n                /* \"#utility.yul\":4970:4979   */\n              dup2\n                /* \"#utility.yul\":4964:4968   */\n              dup2\n                /* \"#utility.yul\":4960:4980   */\n              sub\n                /* \"#utility.yul\":4955:4957   */\n              0x20\n                /* \"#utility.yul\":4944:4953   */\n              dup4\n                /* \"#utility.yul\":4940:4958   */\n              add\n                /* \"#utility.yul\":4933:4981   */\n              mstore\n                /* \"#utility.yul\":4998:5076   */\n              tag_146\n                /* \"#utility.yul\":5071:5075   */\n              dup2\n                /* \"#utility.yul\":5062:5068   */\n              dup5\n                /* \"#utility.yul\":4998:5076   */\n              tag_64\n              jump\t// in\n            tag_146:\n                /* \"#utility.yul\":4990:5076   */\n              swap1\n              pop\n                /* \"#utility.yul\":4569:5083   */\n              swap4\n              swap3\n              pop\n              pop\n              pop\n              jump\t// out\n                /* \"#utility.yul\":5089:5179   */\n            tag_65:\n                /* \"#utility.yul\":5123:5130   */\n              0x00\n                /* \"#utility.yul\":5166:5171   */\n              dup2\n                /* \"#utility.yul\":5159:5172   */\n              iszero\n                /* \"#utility.yul\":5152:5173   */\n              iszero\n                /* \"#utility.yul\":5141:5173   */\n              swap1\n              pop\n                /* \"#utility.yul\":5089:5179   */\n              swap2\n              swap1\n              pop\n              jump\t// out\n                /* \"#utility.yul\":5185:5301   */\n            tag_66:\n                /* \"#utility.yul\":5255:5276   */\n              tag_149\n                /* \"#utility.yul\":5270:5275   */\n              dup2\n                /* \"#utility.yul\":5255:5276   */\n              tag_65\n              jump\t// in\n            tag_149:\n                /* \"#utility.yul\":5248:5253   */\n              dup2\n                /* \"#utility.yul\":5245:5277   */\n              eq\n                /* \"#utility.yul\":5235:5295   */\n              tag_150\n              jumpi\n                /* \"#utility.yul\":5291:5292   */\n              0x00\n                /* \"#utility.yul\":5288:5289   */\n              dup1\n                /* \"#utility.yul\":5281:5293   */\n              revert\n                /* \"#utility.yul\":5235:5295   */\n            tag_150:\n                /* \"#utility.yul\":5185:5301   */\n              pop\n              jump\t// out\n                /* \"#utility.yul\":5307:5440   */\n            tag_67:\n                /* \"#utility.yul\":5350:5355   */\n              0x00\n                /* \"#utility.yul\":5388:5394   */\n              dup2\n                /* \"#utility.yul\":5375:5395   */\n              calldataload\n                /* \"#utility.yul\":5366:5395   */\n              swap1\n              pop\n                /* \"#utility.yul\":5404:5434   */\n              tag_152\n                /* \"#utility.yul\":5428:5433   */\n              dup2\n                /* \"#utility.yul\":5404:5434   */\n              tag_66\n              jump\t// in\n            tag_152:\n                /* \"#utility.yul\":5307:5440   */\n              swap3\n              swap2\n              pop\n              pop\n              jump\t// out\n                /* \"#utility.yul\":5446:6419   */\n            tag_22:\n                /* \"#utility.yul\":5540:5546   */\n              0x00\n                /* \"#utility.yul\":5548:5554   */\n              dup1\n                /* \"#utility.yul\":5556:5562   */\n              0x00\n                /* \"#utility.yul\":5605:5607   */\n              0x60\n                /* \"#utility.yul\":5593:5602   */\n              dup5\n                /* \"#utility.yul\":5584:5591   */\n              dup7\n                /* \"#utility.yul\":5580:5603   */\n              sub\n                /* \"#utility.yul\":5576:5608   */\n              slt\n                /* \"#utility.yul\":5573:5692   */\n              iszero\n              tag_154\n              jumpi\n                /* \"#utility.yul\":5611:5690   */\n              tag_155\n              tag_49\n              jump\t// in\n            tag_155:\n                /* \"#utility.yul\":5573:5692   */\n            tag_154:\n                /* \"#utility.yul\":5759:5760   */\n              0x00\n                /* \"#utility.yul\":5748:5757   */\n              dup5\n                /* \"#utility.yul\":5744:5761   */\n              add\n                /* \"#utility.yul\":5731:5762   */\n              calldataload\n                /* \"#utility.yul\":5789:5807   */\n              0xffffffffffffffff\n                /* \"#utility.yul\":5781:5787   */\n              dup2\n                /* \"#utility.yul\":5778:5808   */\n              gt\n                /* \"#utility.yul\":5775:5892   */\n              iszero\n              tag_156\n              jumpi\n                /* \"#utility.yul\":5811:5890   */\n              tag_157\n              tag_50\n              jump\t// in\n            tag_157:\n                /* \"#utility.yul\":5775:5892   */\n            tag_156:\n                /* \"#utility.yul\":5916:5979   */\n              tag_158\n                /* \"#utility.yul\":5971:5978   */\n              dup7\n                /* \"#utility.yul\":5962:5968   */\n              dup3\n                /* \"#utility.yul\":5951:5960   */\n              dup8\n                /* \"#utility.yul\":5947:5969   */\n              add\n                /* \"#utility.yul\":5916:5979   */\n              tag_60\n              jump\t// in\n            tag_158:\n                /* \"#utility.yul\":5906:5979   */\n              swap4\n              pop\n                /* \"#utility.yul\":5702:5989   */\n              pop\n                /* \"#utility.yul\":6028:6030   */\n              0x20\n                /* \"#utility.yul\":6054:6104   */\n              tag_159\n                /* \"#utility.yul\":6096:6103   */\n              dup7\n                /* \"#utility.yul\":6087:6093   */\n              dup3\n                /* \"#utility.yul\":6076:6085   */\n              dup8\n                /* \"#utility.yul\":6072:6094   */\n              add\n                /* \"#utility.yul\":6054:6104   */\n              tag_67\n              jump\t// in\n            tag_159:\n                /* \"#utility.yul\":6044:6104   */\n              swap3\n              pop\n                /* \"#utility.yul\":5999:6114   */\n              pop\n                /* \"#utility.yul\":6181:6183   */\n              0x40\n                /* \"#utility.yul\":6170:6179   */\n              dup5\n                /* \"#utility.yul\":6166:6184   */\n              add\n                /* \"#utility.yul\":6153:6185   */\n              calldataload\n                /* \"#utility.yul\":6212:6230   */\n              0xffffffffffffffff\n                /* \"#utility.yul\":6204:6210   */\n              dup2\n                /* \"#utility.yul\":6201:6231   */\n              gt\n                /* \"#utility.yul\":6198:6315   */\n              iszero\n              tag_160\n              jumpi\n                /* \"#utility.yul\":6234:6313   */\n              tag_161\n              tag_50\n              jump\t// in\n            tag_161:\n                /* \"#utility.yul\":6198:6315   */\n            tag_160:\n                /* \"#utility.yul\":6339:6402   */\n              tag_162\n                /* \"#utility.yul\":6394:6401   */\n              dup7\n                /* \"#utility.yul\":6385:6391   */\n              dup3\n                /* \"#utility.yul\":6374:6383   */\n              dup8\n                /* \"#utility.yul\":6370:6392   */\n              add\n                /* \"#utility.yul\":6339:6402   */\n              tag_60\n              jump\t// in\n            tag_162:\n                /* \"#utility.yul\":6329:6402   */\n              swap2\n              pop\n                /* \"#utility.yul\":6124:6412   */\n              pop\n                /* \"#utility.yul\":5446:6419   */\n              swap3\n              pop\n              swap3\n              pop\n              swap3\n              jump\t// out\n                /* \"#utility.yul\":6425:6573   */\n            tag_68:\n                /* \"#utility.yul\":6527:6538   */\n              0x00\n                /* \"#utility.yul\":6564:6567   */\n              dup2\n                /* \"#utility.yul\":6549:6567   */\n              swap1\n              pop\n                /* \"#utility.yul\":6425:6573   */\n              swap3\n              swap2\n              pop\n              pop\n              jump\t// out\n                /* \"#utility.yul\":6579:6969   */\n            tag_69:\n                /* \"#utility.yul\":6685:6688   */\n              0x00\n                /* \"#utility.yul\":6713:6752   */\n              tag_165\n                /* \"#utility.yul\":6746:6751   */\n              dup3\n                /* \"#utility.yul\":6713:6752   */\n              tag_61\n              jump\t// in\n            tag_165:\n                /* \"#utility.yul\":6768:6857   */\n              tag_166\n                /* \"#utility.yul\":6850:6856   */\n              dup2\n                /* \"#utility.yul\":6845:6848   */\n              dup6\n                /* \"#utility.yul\":6768:6857   */\n              tag_68\n              jump\t// in\n            tag_166:\n                /* \"#utility.yul\":6761:6857   */\n              swap4\n              pop\n                /* \"#utility.yul\":6866:6931   */\n              tag_167\n                /* \"#utility.yul\":6924:6930   */\n              dup2\n                /* \"#utility.yul\":6919:6922   */\n              dup6\n                /* \"#utility.yul\":6912:6916   */\n              0x20\n                /* \"#utility.yul\":6905:6910   */\n              dup7\n                /* \"#utility.yul\":6901:6917   */\n              add\n                /* \"#utility.yul\":6866:6931   */\n              tag_63\n              jump\t// in\n            tag_167:\n                /* \"#utility.yul\":6956:6962   */\n              dup1\n                /* \"#utility.yul\":6951:6954   */\n              dup5\n                /* \"#utility.yul\":6947:6963   */\n              add\n                /* \"#utility.yul\":6940:6963   */\n              swap2\n              pop\n                /* \"#utility.yul\":6689:6969   */\n              pop\n                /* \"#utility.yul\":6579:6969   */\n              swap3\n              swap2\n              pop\n              pop\n              jump\t// out\n                /* \"#utility.yul\":6975:7250   */\n            tag_26:\n                /* \"#utility.yul\":7107:7110   */\n              0x00\n                /* \"#utility.yul\":7129:7224   */\n              tag_169\n                /* \"#utility.yul\":7220:7223   */\n              dup3\n                /* \"#utility.yul\":7211:7217   */\n              dup5\n                /* \"#utility.yul\":7129:7224   */\n              tag_69\n              jump\t// in\n            tag_169:\n                /* \"#utility.yul\":7122:7224   */\n              swap2\n              pop\n                /* \"#utility.yul\":7241:7244   */\n              dup2\n                /* \"#utility.yul\":7234:7244   */\n              swap1\n              pop\n                /* \"#utility.yul\":6975:7250   */\n              swap3\n              swap2\n              pop\n              pop\n              jump\t// out\n                /* \"#utility.yul\":7256:7436   */\n            tag_70:\n                /* \"#utility.yul\":7304:7381   */\n              0x4e487b7100000000000000000000000000000000000000000000000000000000\n                /* \"#utility.yul\":7301:7302   */\n              0x00\n                /* \"#utility.yul\":7294:7382   */\n              mstore\n                /* \"#utility.yul\":7401:7405   */\n              0x22\n                /* \"#utility.yul\":7398:7399   */\n              0x04\n                /* \"#utility.yul\":7391:7406   */\n              mstore\n                /* \"#utility.yul\":7425:7429   */\n              0x24\n                /* \"#utility.yul\":7422:7423   */\n              0x00\n                /* \"#utility.yul\":7415:7430   */\n              revert\n                /* \"#utility.yul\":7442:7762   */\n            tag_30:\n                /* \"#utility.yul\":7486:7492   */\n              0x00\n                /* \"#utility.yul\":7523:7524   */\n              0x02\n                /* \"#utility.yul\":7517:7521   */\n              dup3\n                /* \"#utility.yul\":7513:7525   */\n              div\n                /* \"#utility.yul\":7503:7525   */\n              swap1\n              pop\n                /* \"#utility.yul\":7570:7571   */\n              0x01\n                /* \"#utility.yul\":7564:7568   */\n              dup3\n                /* \"#utility.yul\":7560:7572   */\n              and\n                /* \"#utility.yul\":7591:7609   */\n              dup1\n                /* \"#utility.yul\":7581:7662   */\n              tag_172\n              jumpi\n                /* \"#utility.yul\":7647:7651   */\n              0x7f\n                /* \"#utility.yul\":7639:7645   */\n              dup3\n                /* \"#utility.yul\":7635:7652   */\n              and\n                /* \"#utility.yul\":7625:7652   */\n              swap2\n              pop\n                /* \"#utility.yul\":7581:7662   */\n            tag_172:\n                /* \"#utility.yul\":7709:7711   */\n              0x20\n                /* \"#utility.yul\":7701:7707   */\n              dup3\n                /* \"#utility.yul\":7698:7712   */\n              lt\n                /* \"#utility.yul\":7678:7696   */\n              dup2\n                /* \"#utility.yul\":7675:7713   */\n              sub\n                /* \"#utility.yul\":7672:7756   */\n              tag_173\n              jumpi\n                /* \"#utility.yul\":7728:7746   */\n              tag_174\n              tag_70\n              jump\t// in\n            tag_174:\n                /* \"#utility.yul\":7672:7756   */\n            tag_173:\n                /* \"#utility.yul\":7493:7762   */\n              pop\n                /* \"#utility.yul\":7442:7762   */\n              swap2\n              swap1\n              pop\n              jump\t// out\n                /* \"#utility.yul\":7768:8000   */\n            tag_71:\n                /* \"#utility.yul\":7908:7942   */\n              0x4e6f207469656e6573207065726d69736f73207061726120656a656375746172\n                /* \"#utility.yul\":7904:7905   */\n              0x00\n                /* \"#utility.yul\":7896:7902   */\n              dup3\n                /* \"#utility.yul\":7892:7906   */\n              add\n                /* \"#utility.yul\":7885:7943   */\n              mstore\n                /* \"#utility.yul\":7977:7992   */\n              0x20657374612066756e63696f6e00000000000000000000000000000000000000\n                /* \"#utility.yul\":7972:7974   */\n              0x20\n                /* \"#utility.yul\":7964:7970   */\n              dup3\n                /* \"#utility.yul\":7960:7975   */\n              add\n                /* \"#utility.yul\":7953:7993   */\n              mstore\n                /* \"#utility.yul\":7768:8000   */\n              pop\n              jump\t// out\n                /* \"#utility.yul\":8006:8372   */\n            tag_72:\n                /* \"#utility.yul\":8148:8151   */\n              0x00\n                /* \"#utility.yul\":8169:8236   */\n              tag_177\n                /* \"#utility.yul\":8233:8235   */\n              0x2d\n                /* \"#utility.yul\":8228:8231   */\n              dup4\n                /* \"#utility.yul\":8169:8236   */\n              tag_62\n              jump\t// in\n            tag_177:\n                /* \"#utility.yul\":8162:8236   */\n              swap2\n              pop\n                /* \"#utility.yul\":8245:8338   */\n              tag_178\n                /* \"#utility.yul\":8334:8337   */\n              dup3\n                /* \"#utility.yul\":8245:8338   */\n              tag_71\n              jump\t// in\n            tag_178:\n                /* \"#utility.yul\":8363:8365   */\n              0x40\n                /* \"#utility.yul\":8358:8361   */\n              dup3\n                /* \"#utility.yul\":8354:8366   */\n              add\n                /* \"#utility.yul\":8347:8366   */\n              swap1\n              pop\n                /* \"#utility.yul\":8006:8372   */\n              swap2\n              swap1\n              pop\n              jump\t// out\n                /* \"#utility.yul\":8378:8797   */\n            tag_38:\n                /* \"#utility.yul\":8544:8548   */\n              0x00\n                /* \"#utility.yul\":8582:8584   */\n              0x20\n                /* \"#utility.yul\":8571:8580   */\n              dup3\n                /* \"#utility.yul\":8567:8585   */\n              add\n                /* \"#utility.yul\":8559:8585   */\n              swap1\n              pop\n                /* \"#utility.yul\":8631:8640   */\n              dup2\n                /* \"#utility.yul\":8625:8629   */\n              dup2\n                /* \"#utility.yul\":8621:8641   */\n              sub\n                /* \"#utility.yul\":8617:8618   */\n              0x00\n                /* \"#utility.yul\":8606:8615   */\n              dup4\n                /* \"#utility.yul\":8602:8619   */\n              add\n                /* \"#utility.yul\":8595:8642   */\n              mstore\n                /* \"#utility.yul\":8659:8790   */\n              tag_180\n                /* \"#utility.yul\":8785:8789   */\n              dup2\n                /* \"#utility.yul\":8659:8790   */\n              tag_72\n              jump\t// in\n            tag_180:\n                /* \"#utility.yul\":8651:8790   */\n              swap1\n              pop\n                /* \"#utility.yul\":8378:8797   */\n              swap2\n              swap1\n              pop\n              jump\t// out\n                /* \"#utility.yul\":8803:8944   */\n            tag_73:\n                /* \"#utility.yul\":8852:8856   */\n              0x00\n                /* \"#utility.yul\":8875:8878   */\n              dup2\n                /* \"#utility.yul\":8867:8878   */\n              swap1\n              pop\n                /* \"#utility.yul\":8898:8901   */\n              dup2\n                /* \"#utility.yul\":8895:8896   */\n              0x00\n                /* \"#utility.yul\":8888:8902   */\n              mstore\n                /* \"#utility.yul\":8932:8936   */\n              0x20\n                /* \"#utility.yul\":8929:8930   */\n              0x00\n                /* \"#utility.yul\":8919:8937   */\n              keccak256\n                /* \"#utility.yul\":8911:8937   */\n              swap1\n              pop\n                /* \"#utility.yul\":8803:8944   */\n              swap2\n              swap1\n              pop\n              jump\t// out\n                /* \"#utility.yul\":8950:9043   */\n            tag_74:\n                /* \"#utility.yul\":8987:8993   */\n              0x00\n                /* \"#utility.yul\":9034:9036   */\n              0x20\n                /* \"#utility.yul\":9029:9031   */\n              0x1f\n                /* \"#utility.yul\":9022:9027   */\n              dup4\n                /* \"#utility.yul\":9018:9032   */\n              add\n                /* \"#utility.yul\":9014:9037   */\n              div\n                /* \"#utility.yul\":9004:9037   */\n              swap1\n              pop\n                /* \"#utility.yul\":8950:9043   */\n              swap2\n              swap1\n              pop\n              jump\t// out\n                /* \"#utility.yul\":9049:9156   */\n            tag_75:\n                /* \"#utility.yul\":9093:9101   */\n              0x00\n                /* \"#utility.yul\":9143:9148   */\n              dup3\n                /* \"#utility.yul\":9137:9141   */\n              dup3\n                /* \"#utility.yul\":9133:9149   */\n              shl\n                /* \"#utility.yul\":9112:9149   */\n              swap1\n              pop\n                /* \"#utility.yul\":9049:9156   */\n              swap3\n              swap2\n              pop\n              pop\n              jump\t// out\n                /* \"#utility.yul\":9162:9555   */\n            tag_76:\n                /* \"#utility.yul\":9231:9237   */\n              0x00\n                /* \"#utility.yul\":9281:9282   */\n              0x08\n                /* \"#utility.yul\":9269:9279   */\n              dup4\n                /* \"#utility.yul\":9265:9283   */\n              mul\n                /* \"#utility.yul\":9304:9401   */\n              tag_185\n                /* \"#utility.yul\":9334:9400   */\n              0xffffffffffffffffffffffffffffffffffffffffffffffffffffffffffffffff\n                /* \"#utility.yul\":9323:9332   */\n              dup3\n                /* \"#utility.yul\":9304:9401   */\n              tag_75\n              jump\t// in\n            tag_185:\n                /* \"#utility.yul\":9422:9461   */\n              tag_186\n                /* \"#utility.yul\":9452:9460   */\n              dup7\n                /* \"#utility.yul\":9441:9450   */\n              dup4\n                /* \"#utility.yul\":9422:9461   */\n              tag_75\n              jump\t// in\n            tag_186:\n                /* \"#utility.yul\":9410:9461   */\n              swap6\n              pop\n                /* \"#utility.yul\":9494:9498   */\n              dup1\n                /* \"#utility.yul\":9490:9499   */\n              not\n                /* \"#utility.yul\":9483:9488   */\n              dup5\n                /* \"#utility.yul\":9479:9500   */\n              and\n                /* \"#utility.yul\":9470:9500   */\n              swap4\n              pop\n                /* \"#utility.yul\":9543:9547   */\n              dup1\n                /* \"#utility.yul\":9533:9541   */\n              dup7\n                /* \"#utility.yul\":9529:9548   */\n              and\n                /* \"#utility.yul\":9522:9527   */\n              dup5\n                /* \"#utility.yul\":9519:9549   */\n              or\n                /* \"#utility.yul\":9509:9549   */\n              swap3\n              pop\n                /* \"#utility.yul\":9238:9555   */\n              pop\n              pop\n                /* \"#utility.yul\":9162:9555   */\n              swap4\n              swap3\n              pop\n              pop\n              pop\n              jump\t// out\n                /* \"#utility.yul\":9561:9638   */\n            tag_77:\n                /* \"#utility.yul\":9598:9605   */\n              0x00\n                /* \"#utility.yul\":9627:9632   */\n              dup2\n                /* \"#utility.yul\":9616:9632   */\n              swap1\n              pop\n                /* \"#utility.yul\":9561:9638   */\n              swap2\n              swap1\n              pop\n              jump\t// out\n                /* \"#utility.yul\":9644:9704   */\n            tag_78:\n                /* \"#utility.yul\":9672:9675   */\n              0x00\n                /* \"#utility.yul\":9693:9698   */\n              dup2\n                /* \"#utility.yul\":9686:9698   */\n              swap1\n              pop\n                /* \"#utility.yul\":9644:9704   */\n              swap2\n              swap1\n              pop\n              jump\t// out\n                /* \"#utility.yul\":9710:9852   */\n            tag_79:\n                /* \"#utility.yul\":9760:9769   */\n              0x00\n                /* \"#utility.yul\":9793:9846   */\n              tag_190\n                /* \"#utility.yul\":9811:9845   */\n              tag_191\n                /* \"#utility.yul\":9820:9844   */\n              tag_192\n                /* \"#utility.yul\":9838:9843   */\n              dup5\n                /* \"#utility.yul\":9820:9844   */\n              tag_77\n              jump\t// in\n            tag_192:\n                /* \"#utility.yul\":9811:9845   */\n              tag_78\n              jump\t// in\n            tag_191:\n                /* \"#utility.yul\":9793:9846   */\n              tag_77\n              jump\t// in\n            tag_190:\n                /* \"#utility.yul\":9780:9846   */\n              swap1\n              pop\n                /* \"#utility.yul\":9710:9852   */\n              swap2\n              swap1\n              pop\n              jump\t// out\n                /* \"#utility.yul\":9858:9933   */\n            tag_80:\n                /* \"#utility.yul\":9901:9904   */\n              0x00\n                /* \"#utility.yul\":9922:9927   */\n              dup2\n                /* \"#utility.yul\":9915:9927   */\n              swap1\n              pop\n                /* \"#utility.yul\":9858:9933   */\n              swap2\n              swap1\n              pop\n              jump\t// out\n                /* \"#utility.yul\":9939:10208   */\n            tag_81:\n                /* \"#utility.yul\":10049:10088   */\n              tag_195\n                /* \"#utility.yul\":10080:10087   */\n              dup4\n                /* \"#utility.yul\":10049:10088   */\n              tag_79\n              jump\t// in\n            tag_195:\n                /* \"#utility.yul\":10110:10201   */\n              tag_196\n                /* \"#utility.yul\":10159:10200   */\n              tag_197\n                /* \"#utility.yul\":10183:10199   */\n              dup3\n                /* \"#utility.yul\":10159:10200   */\n              tag_80\n              jump\t// in\n            tag_197:\n                /* \"#utility.yul\":10151:10157   */\n              dup5\n                /* \"#utility.yul\":10144:10148   */\n              dup5\n                /* \"#utility.yul\":10138:10149   */\n              sload\n                /* \"#utility.yul\":10110:10201   */\n              tag_76\n              jump\t// in\n            tag_196:\n                /* \"#utility.yul\":10104:10108   */\n              dup3\n                /* \"#utility.yul\":10097:10202   */\n              sstore\n                /* \"#utility.yul\":10015:10208   */\n              pop\n                /* \"#utility.yul\":9939:10208   */\n              pop\n              pop\n              pop\n              jump\t// out\n                /* \"#utility.yul\":10214:10287   */\n            tag_82:\n                /* \"#utility.yul\":10259:10262   */\n              0x00\n                /* \"#utility.yul\":10214:10287   */\n              swap1\n              jump\t// out\n                /* \"#utility.yul\":10293:10482   */\n            tag_83:\n                /* \"#utility.yul\":10370:10402   */\n              tag_200\n              tag_82\n              jump\t// in\n            tag_200:\n                /* \"#utility.yul\":10411:10476   */\n              tag_201\n                /* \"#utility.yul\":10469:10475   */\n              dup2\n                /* \"#utility.yul\":10461:10467   */\n              dup5\n                /* \"#utility.yul\":10455:10459   */\n              dup5\n                /* \"#utility.yul\":10411:10476   */\n              tag_81\n              jump\t// in\n            tag_201:\n                /* \"#utility.yul\":10346:10482   */\n              pop\n                /* \"#utility.yul\":10293:10482   */\n              pop\n              pop\n              jump\t// out\n                /* \"#utility.yul\":10488:10674   */\n            tag_84:\n                /* \"#utility.yul\":10548:10668   */\n            tag_203:\n                /* \"#utility.yul\":10565:10568   */\n              dup2\n                /* \"#utility.yul\":10558:10563   */\n              dup2\n                /* \"#utility.yul\":10555:10569   */\n              lt\n                /* \"#utility.yul\":10548:10668   */\n              iszero\n              tag_205\n              jumpi\n                /* \"#utility.yul\":10619:10658   */\n              tag_206\n                /* \"#utility.yul\":10656:10657   */\n              0x00\n                /* \"#utility.yul\":10649:10654   */\n              dup3\n                /* \"#utility.yul\":10619:10658   */\n              tag_83\n              jump\t// in\n            tag_206:\n                /* \"#utility.yul\":10592:10593   */\n              0x01\n                /* \"#utility.yul\":10585:10590   */\n              dup2\n                /* \"#utility.yul\":10581:10594   */\n              add\n                /* \"#utility.yul\":10572:10594   */\n              swap1\n              pop\n                /* \"#utility.yul\":10548:10668   */\n              jump(tag_203)\n            tag_205:\n                /* \"#utility.yul\":10488:10674   */\n              pop\n              pop\n              jump\t// out\n                /* \"#utility.yul\":10680:11223   */\n            tag_85:\n                /* \"#utility.yul\":10781:10783   */\n              0x1f\n                /* \"#utility.yul\":10776:10779   */\n              dup3\n                /* \"#utility.yul\":10773:10784   */\n              gt\n                /* \"#utility.yul\":10770:11216   */\n              iszero\n              tag_208\n              jumpi\n                /* \"#utility.yul\":10815:10853   */\n              tag_209\n                /* \"#utility.yul\":10847:10852   */\n              dup2\n                /* \"#utility.yul\":10815:10853   */\n              tag_73\n              jump\t// in\n            tag_209:\n                /* \"#utility.yul\":10899:10928   */\n              tag_210\n                /* \"#utility.yul\":10917:10927   */\n              dup5\n                /* \"#utility.yul\":10899:10928   */\n              tag_74\n              jump\t// in\n            tag_210:\n                /* \"#utility.yul\":10889:10897   */\n              dup2\n                /* \"#utility.yul\":10885:10929   */\n              add\n                /* \"#utility.yul\":11082:11084   */\n              0x20\n                /* \"#utility.yul\":11070:11080   */\n              dup6\n                /* \"#utility.yul\":11067:11085   */\n              lt\n                /* \"#utility.yul\":11064:11113   */\n              iszero\n              tag_211\n              jumpi\n                /* \"#utility.yul\":11103:11111   */\n              dup2\n                /* \"#utility.yul\":11088:11111   */\n              swap1\n              pop\n                /* \"#utility.yul\":11064:11113   */\n            tag_211:\n                /* \"#utility.yul\":11126:11206   */\n              tag_212\n                /* \"#utility.yul\":11182:11204   */\n              tag_213\n                /* \"#utility.yul\":11200:11203   */\n              dup6\n                /* \"#utility.yul\":11182:11204   */\n              tag_74\n              jump\t// in\n            tag_213:\n                /* \"#utility.yul\":11172:11180   */\n              dup4\n                /* \"#utility.yul\":11168:11205   */\n              add\n                /* \"#utility.yul\":11155:11166   */\n              dup3\n                /* \"#utility.yul\":11126:11206   */\n              tag_84\n              jump\t// in\n            tag_212:\n                /* \"#utility.yul\":10785:11216   */\n              pop\n              pop\n                /* \"#utility.yul\":10770:11216   */\n            tag_208:\n                /* \"#utility.yul\":10680:11223   */\n              pop\n              pop\n              pop\n              jump\t// out\n                /* \"#utility.yul\":11229:11346   */\n            tag_86:\n                /* \"#utility.yul\":11283:11291   */\n              0x00\n                /* \"#utility.yul\":11333:11338   */\n              dup3\n                /* \"#utility.yul\":11327:11331   */\n              dup3\n                /* \"#utility.yul\":11323:11339   */\n              shr\n                /* \"#utility.yul\":11302:11339   */\n              swap1\n              pop\n                /* \"#utility.yul\":11229:11346   */\n              swap3\n              swap2\n              pop\n              pop\n              jump\t// out\n                /* \"#utility.yul\":11352:11521   */\n            tag_87:\n                /* \"#utility.yul\":11396:11402   */\n              0x00\n                /* \"#utility.yul\":11429:11480   */\n              tag_216\n                /* \"#utility.yul\":11477:11478   */\n              0x00\n                /* \"#utility.yul\":11473:11479   */\n              not\n                /* \"#utility.yul\":11465:11470   */\n              dup5\n                /* \"#utility.yul\":11462:11463   */\n              0x08\n                /* \"#utility.yul\":11458:11471   */\n              mul\n                /* \"#utility.yul\":11429:11480   */\n              tag_86\n              jump\t// in\n            tag_216:\n                /* \"#utility.yul\":11425:11481   */\n              not\n                /* \"#utility.yul\":11510:11514   */\n              dup1\n                /* \"#utility.yul\":11504:11508   */\n              dup4\n                /* \"#utility.yul\":11500:11515   */\n              and\n                /* \"#utility.yul\":11490:11515   */\n              swap2\n              pop\n                /* \"#utility.yul\":11403:11521   */\n              pop\n                /* \"#utility.yul\":11352:11521   */\n              swap3\n              swap2\n              pop\n              pop\n              jump\t// out\n                /* \"#utility.yul\":11526:11821   */\n            tag_88:\n                /* \"#utility.yul\":11602:11606   */\n              0x00\n                /* \"#utility.yul\":11748:11777   */\n              tag_218\n                /* \"#utility.yul\":11773:11776   */\n              dup4\n                /* \"#utility.yul\":11767:11771   */\n              dup4\n                /* \"#utility.yul\":11748:11777   */\n              tag_87\n              jump\t// in\n            tag_218:\n                /* \"#utility.yul\":11740:11777   */\n              swap2\n              pop\n                /* \"#utility.yul\":11810:11813   */\n              dup3\n                /* \"#utility.yul\":11807:11808   */\n              0x02\n                /* \"#utility.yul\":11803:11814   */\n              mul\n                /* \"#utility.yul\":11797:11801   */\n              dup3\n                /* \"#utility.yul\":11794:11815   */\n              or\n                /* \"#utility.yul\":11786:11815   */\n              swap1\n              pop\n                /* \"#utility.yul\":11526:11821   */\n              swap3\n              swap2\n              pop\n              pop\n              jump\t// out\n                /* \"#utility.yul\":11826:13221   */\n            tag_42:\n                /* \"#utility.yul\":11943:11980   */\n              tag_220\n                /* \"#utility.yul\":11976:11979   */\n              dup3\n                /* \"#utility.yul\":11943:11980   */\n              tag_61\n              jump\t// in\n            tag_220:\n                /* \"#utility.yul\":12045:12063   */\n              0xffffffffffffffff\n                /* \"#utility.yul\":12037:12043   */\n              dup2\n                /* \"#utility.yul\":12034:12064   */\n              gt\n                /* \"#utility.yul\":12031:12087   */\n              iszero\n              tag_221\n              jumpi\n                /* \"#utility.yul\":12067:12085   */\n              tag_222\n              tag_54\n              jump\t// in\n            tag_222:\n                /* \"#utility.yul\":12031:12087   */\n            tag_221:\n                /* \"#utility.yul\":12111:12149   */\n              tag_223\n                /* \"#utility.yul\":12143:12147   */\n              dup3\n                /* \"#utility.yul\":12137:12148   */\n              sload\n                /* \"#utility.yul\":12111:12149   */\n              tag_30\n              jump\t// in\n            tag_223:\n                /* \"#utility.yul\":12196:12263   */\n              tag_224\n                /* \"#utility.yul\":12256:12262   */\n              dup3\n                /* \"#utility.yul\":12248:12254   */\n              dup3\n                /* \"#utility.yul\":12242:12246   */\n              dup6\n                /* \"#utility.yul\":12196:12263   */\n              tag_85\n              jump\t// in\n            tag_224:\n                /* \"#utility.yul\":12290:12291   */\n              0x00\n                /* \"#utility.yul\":12314:12318   */\n              0x20\n                /* \"#utility.yul\":12301:12318   */\n              swap1\n              pop\n                /* \"#utility.yul\":12346:12348   */\n              0x1f\n                /* \"#utility.yul\":12338:12344   */\n              dup4\n                /* \"#utility.yul\":12335:12349   */\n              gt\n                /* \"#utility.yul\":12363:12364   */\n              0x01\n                /* \"#utility.yul\":12358:12976   */\n              dup2\n              eq\n              tag_226\n              jumpi\n                /* \"#utility.yul\":13020:13021   */\n              0x00\n                /* \"#utility.yul\":13037:13043   */\n              dup5\n                /* \"#utility.yul\":13034:13111   */\n              iszero\n              tag_227\n              jumpi\n                /* \"#utility.yul\":13086:13095   */\n              dup3\n                /* \"#utility.yul\":13081:13084   */\n              dup8\n                /* \"#utility.yul\":13077:13096   */\n              add\n                /* \"#utility.yul\":13071:13097   */\n              mload\n                /* \"#utility.yul\":13062:13097   */\n              swap1\n              pop\n                /* \"#utility.yul\":13034:13111   */\n            tag_227:\n                /* \"#utility.yul\":13137:13204   */\n              tag_228\n                /* \"#utility.yul\":13197:13203   */\n              dup6\n                /* \"#utility.yul\":13190:13195   */\n              dup3\n                /* \"#utility.yul\":13137:13204   */\n              tag_88\n              jump\t// in\n            tag_228:\n                /* \"#utility.yul\":13131:13135   */\n              dup7\n                /* \"#utility.yul\":13124:13205   */\n              sstore\n                /* \"#utility.yul\":12993:13215   */\n              pop\n                /* \"#utility.yul\":12328:13215   */\n              jump(tag_225)\n                /* \"#utility.yul\":12358:12976   */\n            tag_226:\n                /* \"#utility.yul\":12410:12414   */\n              0x1f\n                /* \"#utility.yul\":12406:12415   */\n              not\n                /* \"#utility.yul\":12398:12404   */\n              dup5\n                /* \"#utility.yul\":12394:12416   */\n              and\n                /* \"#utility.yul\":12444:12481   */\n              tag_229\n                /* \"#utility.yul\":12476:12480   */\n              dup7\n                /* \"#utility.yul\":12444:12481   */\n              tag_73\n              jump\t// in\n            tag_229:\n                /* \"#utility.yul\":12503:12504   */\n              0x00\n                /* \"#utility.yul\":12517:12725   */\n            tag_230:\n                /* \"#utility.yul\":12531:12538   */\n              dup3\n                /* \"#utility.yul\":12528:12529   */\n              dup2\n                /* \"#utility.yul\":12525:12539   */\n              lt\n                /* \"#utility.yul\":12517:12725   */\n              iszero\n              tag_232\n              jumpi\n                /* \"#utility.yul\":12610:12619   */\n              dup5\n                /* \"#utility.yul\":12605:12608   */\n              dup10\n                /* \"#utility.yul\":12601:12620   */\n              add\n                /* \"#utility.yul\":12595:12621   */\n              mload\n                /* \"#utility.yul\":12587:12593   */\n              dup3\n                /* \"#utility.yul\":12580:12622   */\n              sstore\n                /* \"#utility.yul\":12661:12662   */\n              0x01\n                /* \"#utility.yul\":12653:12659   */\n              dup3\n                /* \"#utility.yul\":12649:12663   */\n              add\n                /* \"#utility.yul\":12639:12663   */\n              swap2\n              pop\n                /* \"#utility.yul\":12708:12710   */\n              0x20\n                /* \"#utility.yul\":12697:12706   */\n              dup6\n                /* \"#utility.yul\":12693:12711   */\n              add\n                /* \"#utility.yul\":12680:12711   */\n              swap5\n              pop\n                /* \"#utility.yul\":12554:12558   */\n              0x20\n                /* \"#utility.yul\":12551:12552   */\n              dup2\n                /* \"#utility.yul\":12547:12559   */\n              add\n                /* \"#utility.yul\":12542:12559   */\n              swap1\n              pop\n                /* \"#utility.yul\":12517:12725   */\n              jump(tag_230)\n            tag_232:\n                /* \"#utility.yul\":12753:12759   */\n              dup7\n                /* \"#utility.yul\":12744:12751   */\n              dup4\n                /* \"#utility.yul\":12741:12760   */\n              lt\n                /* \"#utility.yul\":12738:12917   */\n              iszero\n              tag_233\n              jumpi\n                /* \"#utility.yul\":12811:12820   */\n              dup5\n                /* \"#utility.yul\":12806:12809   */\n              dup10\n                /* \"#utility.yul\":12802:12821   */\n              add\n                /* \"#utility.yul\":12796:12822   */\n              mload\n                /* \"#utility.yul\":12854:12902   */\n              tag_234\n                /* \"#utility.yul\":12896:12900   */\n              0x1f\n                /* \"#utility.yul\":12888:12894   */\n              dup10\n                /* \"#utility.yul\":12884:12901   */\n              and\n                /* \"#utility.yul\":12873:12882   */\n              dup3\n                /* \"#utility.yul\":12854:12902   */\n              tag_87\n              jump\t// in\n            tag_234:\n                /* \"#utility.yul\":12846:12852   */\n              dup4\n                /* \"#utility.yul\":12839:12903   */\n              sstore\n                /* \"#utility.yul\":12761:12917   */\n              pop\n                /* \"#utility.yul\":12738:12917   */\n            tag_233:\n                /* \"#utility.yul\":12963:12964   */\n              0x01\n                /* \"#utility.yul\":12959:12960   */\n              0x02\n                /* \"#utility.yul\":12951:12957   */\n              dup9\n                /* \"#utility.yul\":12947:12961   */\n              mul\n                /* \"#utility.yul\":12943:12965   */\n              add\n                /* \"#utility.yul\":12937:12941   */\n              dup9\n                /* \"#utility.yul\":12930:12966   */\n              sstore\n                /* \"#utility.yul\":12365:12976   */\n              pop\n              pop\n              pop\n                /* \"#utility.yul\":12328:13215   */\n            tag_225:\n              pop\n                /* \"#utility.yul\":11918:13221   */\n              pop\n              pop\n              pop\n                /* \"#utility.yul\":11826:13221   */\n              pop\n              pop\n              jump\t// out\n                /* \"#utility.yul\":13227:13336   */\n            tag_89:\n                /* \"#utility.yul\":13308:13329   */\n              tag_236\n                /* \"#utility.yul\":13323:13328   */\n              dup2\n                /* \"#utility.yul\":13308:13329   */\n              tag_65\n              jump\t// in\n            tag_236:\n                /* \"#utility.yul\":13303:13306   */\n              dup3\n                /* \"#utility.yul\":13296:13330   */\n              mstore\n                /* \"#utility.yul\":13227:13336   */\n              pop\n              pop\n              jump\t// out\n                /* \"#utility.yul\":13342:13753   */\n            tag_44:\n                /* \"#utility.yul\":13477:13481   */\n              0x00\n                /* \"#utility.yul\":13515:13517   */\n              0x40\n                /* \"#utility.yul\":13504:13513   */\n              dup3\n                /* \"#utility.yul\":13500:13518   */\n              add\n                /* \"#utility.yul\":13492:13518   */\n              swap1\n              pop\n                /* \"#utility.yul\":13564:13573   */\n              dup2\n                /* \"#utility.yul\":13558:13562   */\n              dup2\n                /* \"#utility.yul\":13554:13574   */\n              sub\n                /* \"#utility.yul\":13550:13551   */\n              0x00\n                /* \"#utility.yul\":13539:13548   */\n              dup4\n                /* \"#utility.yul\":13535:13552   */\n              add\n                /* \"#utility.yul\":13528:13575   */\n              mstore\n                /* \"#utility.yul\":13592:13670   */\n              tag_238\n                /* \"#utility.yul\":13665:13669   */\n              dup2\n                /* \"#utility.yul\":13656:13662   */\n              dup6\n                /* \"#utility.yul\":13592:13670   */\n              tag_64\n              jump\t// in\n            tag_238:\n                /* \"#utility.yul\":13584:13670   */\n              swap1\n              pop\n                /* \"#utility.yul\":13680:13746   */\n              tag_239\n                /* \"#utility.yul\":13742:13744   */\n              0x20\n                /* \"#utility.yul\":13731:13740   */\n              dup4\n                /* \"#utility.yul\":13727:13745   */\n              add\n                /* \"#utility.yul\":13718:13724   */\n              dup5\n                /* \"#utility.yul\":13680:13746   */\n              tag_89\n              jump\t// in\n            tag_239:\n                /* \"#utility.yul\":13342:13753   */\n              swap4\n              swap3\n              pop\n              pop\n              pop\n              jump\t// out\n\n            auxdata: 0xa2646970667358221220034130a08c2fbcf880028b049f96d5ab1bb2ee632e8a119a710e56a77a933dc864736f6c63430008120033\n        }\n    }\n\n    auxdata: 0xa26469706673582212209d7c742e58b052c762ae1a4b7d55628cc8fa01dcdb185d82ef66ff14c8d9e43a64736f6c63430008120033\n}\n",
				"bytecode": {
					"linkReferences": {},
					"object": "608060405234801561001057600080fd5b50336000806101000a81548173ffffffffffffffffffffffffffffffffffffffff021916908373ffffffffffffffffffffffffffffffffffffffff1602179055506117ec806100606000396000f3fe608060405234801561001057600080fd5b50600436106100885760003560e01c8063a1387a981161005b578063a1387a9814610129578063a71f614314610133578063dea4e40e14610163578063f82c3fee1461017f57610088565b80631a6f9f1a1461008d57806324a823c8146100ab57806358775f8b146100db5780639f66212b1461010b575b600080fd5b610095610189565b6040516100a29190610750565b60405180910390f35b6100c560048036038101906100c091906107a6565b6101ad565b6040516100d29190610750565b60405180910390f35b6100f560048036038101906100f091906107ff565b6101ec565b6040516101029190610847565b60405180910390f35b61011361020c565b6040516101209190610920565b60405180910390f35b61013161032a565b005b61014d600480360381019061014891906107ff565b6103c6565b60405161015a9190610750565b60405180910390f35b61017d600480360381019061017891906107ff565b6103f9565b005b61018761051a565b005b60008054906101000a900473ffffffffffffffffffffffffffffffffffffffff1681565b600381815481106101bd57600080fd5b906000526020600020016000915054906101000a900473ffffffffffffffffffffffffffffffffffffffff1681565b60016020528060005260406000206000915054906101000a900460ff1681565b60603360008054906101000a900473ffffffffffffffffffffffffffffffffffffffff1673ffffffffffffffffffffffffffffffffffffffff168173ffffffffffffffffffffffffffffffffffffffff161461029d576040517f08c379a0000000000000000000000000000000000000000000000000000000008152600401610294906109c5565b60405180910390fd5b600480548060200260200160405190810160405280929190818152602001828054801561031f57602002820191906000526020600020905b8160009054906101000a900473ffffffffffffffffffffffffffffffffffffffff1673ffffffffffffffffffffffffffffffffffffffff16815260200190600101908083116102d5575b505050505091505090565b6004339080600181540180825580915050600190039060005260206000200160009091909190916101000a81548173ffffffffffffffffffffffffffffffffffffffff021916908373ffffffffffffffffffffffffffffffffffffffff1602179055507ff3fef0dfb6ac5b9a824f8a58c8525ca724416b1c5748ee4fb5f998fe4c1441a4336040516103bc9190610750565b60405180910390a1565b60026020528060005260406000206000915054906101000a900473ffffffffffffffffffffffffffffffffffffffff1681565b3360008054906101000a900473ffffffffffffffffffffffffffffffffffffffff1673ffffffffffffffffffffffffffffffffffffffff168173ffffffffffffffffffffffffffffffffffffffff1614610488576040517f08c379a000000000000000000000000000000000000000000000000000000000815260040161047f906109c5565b60405180910390fd5b60018060008473ffffffffffffffffffffffffffffffffffffffff1673ffffffffffffffffffffffffffffffffffffffff16815260200190815260200160002060006101000a81548160ff0219169083151502179055507fa06e56fe363849ca555483d9dfbabf40e281a3039cd640777f366803bbaf57178260405161050e9190610750565b60405180910390a15050565b60011515600160003373ffffffffffffffffffffffffffffffffffffffff1673ffffffffffffffffffffffffffffffffffffffff16815260200190815260200160002060009054906101000a900460ff161515146105ad576040517f08c379a00000000000000000000000000000000000000000000000000000000081526004016105a490610a57565b60405180910390fd5b6000336040516105bc90610702565b6105c69190610750565b604051809103906000f0801580156105e2573d6000803e3d6000fd5b5090506003819080600181540180825580915050600190039060005260206000200160009091909190916101000a81548173ffffffffffffffffffffffffffffffffffffffff021916908373ffffffffffffffffffffffffffffffffffffffff16021790555080600260003373ffffffffffffffffffffffffffffffffffffffff1673ffffffffffffffffffffffffffffffffffffffff16815260200190815260200160002060006101000a81548173ffffffffffffffffffffffffffffffffffffffff021916908373ffffffffffffffffffffffffffffffffffffffff1602179055507f9430b0ce80ec1fd1b9e38e786053a7ffbf9efbce2ac81e9cd4db1813371fb07881336040516106f7929190610a77565b60405180910390a150565b610d1680610aa183390190565b600073ffffffffffffffffffffffffffffffffffffffff82169050919050565b600061073a8261070f565b9050919050565b61074a8161072f565b82525050565b60006020820190506107656000830184610741565b92915050565b600080fd5b6000819050919050565b61078381610770565b811461078e57600080fd5b50565b6000813590506107a08161077a565b92915050565b6000602082840312156107bc576107bb61076b565b5b60006107ca84828501610791565b91505092915050565b6107dc8161072f565b81146107e757600080fd5b50565b6000813590506107f9816107d3565b92915050565b6000602082840312156108155761081461076b565b5b6000610823848285016107ea565b91505092915050565b60008115159050919050565b6108418161082c565b82525050565b600060208201905061085c6000830184610838565b92915050565b600081519050919050565b600082825260208201905092915050565b6000819050602082019050919050565b6108978161072f565b82525050565b60006108a9838361088e565b60208301905092915050565b6000602082019050919050565b60006108cd82610862565b6108d7818561086d565b93506108e28361087e565b8060005b838110156109135781516108fa888261089d565b9750610905836108b5565b9250506001810190506108e6565b5085935050505092915050565b6000602082019050818103600083015261093a81846108c2565b905092915050565b600082825260208201905092915050565b7f4e6f207469656e6573207065726d69736f73207061726120656a65637574617260008201527f20657374612066756e63696f6e00000000000000000000000000000000000000602082015250565b60006109af602d83610942565b91506109ba82610953565b604082019050919050565b600060208201905081810360008301526109de816109a2565b9050919050565b7f4e6f207469656e6573207065726d69736f732070617261207265616c697a617260008201527f20657374612066756e63696f6e00000000000000000000000000000000000000602082015250565b6000610a41602d83610942565b9150610a4c826109e5565b604082019050919050565b60006020820190508181036000830152610a7081610a34565b9050919050565b6000604082019050610a8c6000830185610741565b610a996020830184610741565b939250505056fe608060405234801561001057600080fd5b50604051610d16380380610d168339818101604052810190610032919061011c565b806000806101000a81548173ffffffffffffffffffffffffffffffffffffffff021916908373ffffffffffffffffffffffffffffffffffffffff16021790555030600160006101000a81548173ffffffffffffffffffffffffffffffffffffffff021916908373ffffffffffffffffffffffffffffffffffffffff16021790555050610149565b600080fd5b600073ffffffffffffffffffffffffffffffffffffffff82169050919050565b60006100e9826100be565b9050919050565b6100f9816100de565b811461010457600080fd5b50565b600081519050610116816100f0565b92915050565b600060208284031215610132576101316100b9565b5b600061014084828501610107565b91505092915050565b610bbe806101586000396000f3fe608060405234801561001057600080fd5b506004361061004c5760003560e01c806339282f7e146100515780634c231a9b1461006f57806353e6f6ae1461008d5780638707585f146100be575b600080fd5b6100596100da565b6040516100669190610445565b60405180910390f35b6100776100fe565b6040516100849190610445565b60405180910390f35b6100a760048036038101906100a291906105ba565b610124565b6040516100b5929190610682565b60405180910390f35b6100d860048036038101906100d391906106f1565b6102a7565b005b60008054906101000a900473ffffffffffffffffffffffffffffffffffffffff1681565b600160009054906101000a900473ffffffffffffffffffffffffffffffffffffffff1681565b60608060008360405160200161013a91906107b8565b6040516020818303038152906040528051906020012090506060600115156002600084815260200190815260200160002060000160009054906101000a900460ff161515036101c0576040518060400160405280600881526020017f506f73697469766f00000000000000000000000000000000000000000000000081525090506101f9565b6040518060400160405280600881526020017f4e6567617469766f00000000000000000000000000000000000000000000000081525090505b806002600084815260200190815260200160002060010180805461021c906107fe565b80601f0160208091040260200160405190810160405280929190818152602001828054610248906107fe565b80156102955780601f1061026a57610100808354040283529160200191610295565b820191906000526020600020905b81548152906001019060200180831161027857829003601f168201915b50505050509050935093505050915091565b3360008054906101000a900473ffffffffffffffffffffffffffffffffffffffff1673ffffffffffffffffffffffffffffffffffffffff168173ffffffffffffffffffffffffffffffffffffffff1614610336576040517f08c379a000000000000000000000000000000000000000000000000000000000815260040161032d906108a1565b60405180910390fd5b60008460405160200161034991906107b8565b60405160208183030381529060405280519060200120905060405180604001604052808515158152602001848152506002600083815260200190815260200160002060008201518160000160006101000a81548160ff02191690831515021790555060208201518160010190816103c09190610a77565b509050507f99d08ba2a7620bf3c6b644d9b20e406e19716924a4b5a939c7582fc507cb95f183856040516103f5929190610b58565b60405180910390a15050505050565b600073ffffffffffffffffffffffffffffffffffffffff82169050919050565b600061042f82610404565b9050919050565b61043f81610424565b82525050565b600060208201905061045a6000830184610436565b92915050565b6000604051905090565b600080fd5b600080fd5b600080fd5b600080fd5b6000601f19601f8301169050919050565b7f4e487b7100000000000000000000000000000000000000000000000000000000600052604160045260246000fd5b6104c78261047e565b810181811067ffffffffffffffff821117156104e6576104e561048f565b5b80604052505050565b60006104f9610460565b905061050582826104be565b919050565b600067ffffffffffffffff8211156105255761052461048f565b5b61052e8261047e565b9050602081019050919050565b82818337600083830152505050565b600061055d6105588461050a565b6104ef565b90508281526020810184848401111561057957610578610479565b5b61058484828561053b565b509392505050565b600082601f8301126105a1576105a0610474565b5b81356105b184826020860161054a565b91505092915050565b6000602082840312156105d0576105cf61046a565b5b600082013567ffffffffffffffff8111156105ee576105ed61046f565b5b6105fa8482850161058c565b91505092915050565b600081519050919050565b600082825260208201905092915050565b60005b8381101561063d578082015181840152602081019050610622565b60008484015250505050565b600061065482610603565b61065e818561060e565b935061066e81856020860161061f565b6106778161047e565b840191505092915050565b6000604082019050818103600083015261069c8185610649565b905081810360208301526106b08184610649565b90509392505050565b60008115159050919050565b6106ce816106b9565b81146106d957600080fd5b50565b6000813590506106eb816106c5565b92915050565b60008060006060848603121561070a5761070961046a565b5b600084013567ffffffffffffffff8111156107285761072761046f565b5b6107348682870161058c565b9350506020610745868287016106dc565b925050604084013567ffffffffffffffff8111156107665761076561046f565b5b6107728682870161058c565b9150509250925092565b600081905092915050565b600061079282610603565b61079c818561077c565b93506107ac81856020860161061f565b80840191505092915050565b60006107c48284610787565b915081905092915050565b7f4e487b7100000000000000000000000000000000000000000000000000000000600052602260045260246000fd5b6000600282049050600182168061081657607f821691505b602082108103610829576108286107cf565b5b50919050565b7f4e6f207469656e6573207065726d69736f73207061726120656a65637574617260008201527f20657374612066756e63696f6e00000000000000000000000000000000000000602082015250565b600061088b602d8361060e565b91506108968261082f565b604082019050919050565b600060208201905081810360008301526108ba8161087e565b9050919050565b60008190508160005260206000209050919050565b60006020601f8301049050919050565b600082821b905092915050565b6000600883026109237fffffffffffffffffffffffffffffffffffffffffffffffffffffffffffffffff826108e6565b61092d86836108e6565b95508019841693508086168417925050509392505050565b6000819050919050565b6000819050919050565b600061097461096f61096a84610945565b61094f565b610945565b9050919050565b6000819050919050565b61098e83610959565b6109a261099a8261097b565b8484546108f3565b825550505050565b600090565b6109b76109aa565b6109c2818484610985565b505050565b5b818110156109e6576109db6000826109af565b6001810190506109c8565b5050565b601f821115610a2b576109fc816108c1565b610a05846108d6565b81016020851015610a14578190505b610a28610a20856108d6565b8301826109c7565b50505b505050565b600082821c905092915050565b6000610a4e60001984600802610a30565b1980831691505092915050565b6000610a678383610a3d565b9150826002028217905092915050565b610a8082610603565b67ffffffffffffffff811115610a9957610a9861048f565b5b610aa382546107fe565b610aae8282856109ea565b600060209050601f831160018114610ae15760008415610acf578287015190505b610ad98582610a5b565b865550610b41565b601f198416610aef866108c1565b60005b82811015610b1757848901518255600182019150602085019450602081019050610af2565b86831015610b345784890151610b30601f891682610a3d565b8355505b6001600288020188555050505b505050505050565b610b52816106b9565b82525050565b60006040820190508181036000830152610b728185610649565b9050610b816020830184610b49565b939250505056fea2646970667358221220034130a08c2fbcf880028b049f96d5ab1bb2ee632e8a119a710e56a77a933dc864736f6c63430008120033a26469706673582212209d7c742e58b052c762ae1a4b7d55628cc8fa01dcdb185d82ef66ff14c8d9e43a64736f6c63430008120033",
					"opcodes": "PUSH1 0x80 PUSH1 0x40 MSTORE CALLVALUE DUP1 ISZERO PUSH2 0x10 JUMPI PUSH1 0x0 DUP1 REVERT JUMPDEST POP CALLER PUSH1 0x0 DUP1 PUSH2 0x100 EXP DUP2 SLOAD DUP2 PUSH20 0xFFFFFFFFFFFFFFFFFFFFFFFFFFFFFFFFFFFFFFFF MUL NOT AND SWAP1 DUP4 PUSH20 0xFFFFFFFFFFFFFFFFFFFFFFFFFFFFFFFFFFFFFFFF AND MUL OR SWAP1 SSTORE POP PUSH2 0x17EC DUP1 PUSH2 0x60 PUSH1 0x0 CODECOPY PUSH1 0x0 RETURN INVALID PUSH1 0x80 PUSH1 0x40 MSTORE CALLVALUE DUP1 ISZERO PUSH2 0x10 JUMPI PUSH1 0x0 DUP1 REVERT JUMPDEST POP PUSH1 0x4 CALLDATASIZE LT PUSH2 0x88 JUMPI PUSH1 0x0 CALLDATALOAD PUSH1 0xE0 SHR DUP1 PUSH4 0xA1387A98 GT PUSH2 0x5B JUMPI DUP1 PUSH4 0xA1387A98 EQ PUSH2 0x129 JUMPI DUP1 PUSH4 0xA71F6143 EQ PUSH2 0x133 JUMPI DUP1 PUSH4 0xDEA4E40E EQ PUSH2 0x163 JUMPI DUP1 PUSH4 0xF82C3FEE EQ PUSH2 0x17F JUMPI PUSH2 0x88 JUMP JUMPDEST DUP1 PUSH4 0x1A6F9F1A EQ PUSH2 0x8D JUMPI DUP1 PUSH4 0x24A823C8 EQ PUSH2 0xAB JUMPI DUP1 PUSH4 0x58775F8B EQ PUSH2 0xDB JUMPI DUP1 PUSH4 0x9F66212B EQ PUSH2 0x10B JUMPI JUMPDEST PUSH1 0x0 DUP1 REVERT JUMPDEST PUSH2 0x95 PUSH2 0x189 JUMP JUMPDEST PUSH1 0x40 MLOAD PUSH2 0xA2 SWAP2 SWAP1 PUSH2 0x750 JUMP JUMPDEST PUSH1 0x40 MLOAD DUP1 SWAP2 SUB SWAP1 RETURN JUMPDEST PUSH2 0xC5 PUSH1 0x4 DUP1 CALLDATASIZE SUB DUP2 ADD SWAP1 PUSH2 0xC0 SWAP2 SWAP1 PUSH2 0x7A6 JUMP JUMPDEST PUSH2 0x1AD JUMP JUMPDEST PUSH1 0x40 MLOAD PUSH2 0xD2 SWAP2 SWAP1 PUSH2 0x750 JUMP JUMPDEST PUSH1 0x40 MLOAD DUP1 SWAP2 SUB SWAP1 RETURN JUMPDEST PUSH2 0xF5 PUSH1 0x4 DUP1 CALLDATASIZE SUB DUP2 ADD SWAP1 PUSH2 0xF0 SWAP2 SWAP1 PUSH2 0x7FF JUMP JUMPDEST PUSH2 0x1EC JUMP JUMPDEST PUSH1 0x40 MLOAD PUSH2 0x102 SWAP2 SWAP1 PUSH2 0x847 JUMP JUMPDEST PUSH1 0x40 MLOAD DUP1 SWAP2 SUB SWAP1 RETURN JUMPDEST PUSH2 0x113 PUSH2 0x20C JUMP JUMPDEST PUSH1 0x40 MLOAD PUSH2 0x120 SWAP2 SWAP1 PUSH2 0x920 JUMP JUMPDEST PUSH1 0x40 MLOAD DUP1 SWAP2 SUB SWAP1 RETURN JUMPDEST PUSH2 0x131 PUSH2 0x32A JUMP JUMPDEST STOP JUMPDEST PUSH2 0x14D PUSH1 0x4 DUP1 CALLDATASIZE SUB DUP2 ADD SWAP1 PUSH2 0x148 SWAP2 SWAP1 PUSH2 0x7FF JUMP JUMPDEST PUSH2 0x3C6 JUMP JUMPDEST PUSH1 0x40 MLOAD PUSH2 0x15A SWAP2 SWAP1 PUSH2 0x750 JUMP JUMPDEST PUSH1 0x40 MLOAD DUP1 SWAP2 SUB SWAP1 RETURN JUMPDEST PUSH2 0x17D PUSH1 0x4 DUP1 CALLDATASIZE SUB DUP2 ADD SWAP1 PUSH2 0x178 SWAP2 SWAP1 PUSH2 0x7FF JUMP JUMPDEST PUSH2 0x3F9 JUMP JUMPDEST STOP JUMPDEST PUSH2 0x187 PUSH2 0x51A JUMP JUMPDEST STOP JUMPDEST PUSH1 0x0 DUP1 SLOAD SWAP1 PUSH2 0x100 EXP SWAP1 DIV PUSH20 0xFFFFFFFFFFFFFFFFFFFFFFFFFFFFFFFFFFFFFFFF AND DUP2 JUMP JUMPDEST PUSH1 0x3 DUP2 DUP2 SLOAD DUP2 LT PUSH2 0x1BD JUMPI PUSH1 0x0 DUP1 REVERT JUMPDEST SWAP1 PUSH1 0x0 MSTORE PUSH1 0x20 PUSH1 0x0 KECCAK256 ADD PUSH1 0x0 SWAP2 POP SLOAD SWAP1 PUSH2 0x100 EXP SWAP1 DIV PUSH20 0xFFFFFFFFFFFFFFFFFFFFFFFFFFFFFFFFFFFFFFFF AND DUP2 JUMP JUMPDEST PUSH1 0x1 PUSH1 0x20 MSTORE DUP1 PUSH1 0x0 MSTORE PUSH1 0x40 PUSH1 0x0 KECCAK256 PUSH1 0x0 SWAP2 POP SLOAD SWAP1 PUSH2 0x100 EXP SWAP1 DIV PUSH1 0xFF AND DUP2 JUMP JUMPDEST PUSH1 0x60 CALLER PUSH1 0x0 DUP1 SLOAD SWAP1 PUSH2 0x100 EXP SWAP1 DIV PUSH20 0xFFFFFFFFFFFFFFFFFFFFFFFFFFFFFFFFFFFFFFFF AND PUSH20 0xFFFFFFFFFFFFFFFFFFFFFFFFFFFFFFFFFFFFFFFF AND DUP2 PUSH20 0xFFFFFFFFFFFFFFFFFFFFFFFFFFFFFFFFFFFFFFFF AND EQ PUSH2 0x29D JUMPI PUSH1 0x40 MLOAD PUSH32 0x8C379A000000000000000000000000000000000000000000000000000000000 DUP2 MSTORE PUSH1 0x4 ADD PUSH2 0x294 SWAP1 PUSH2 0x9C5 JUMP JUMPDEST PUSH1 0x40 MLOAD DUP1 SWAP2 SUB SWAP1 REVERT JUMPDEST PUSH1 0x4 DUP1 SLOAD DUP1 PUSH1 0x20 MUL PUSH1 0x20 ADD PUSH1 0x40 MLOAD SWAP1 DUP2 ADD PUSH1 0x40 MSTORE DUP1 SWAP3 SWAP2 SWAP1 DUP2 DUP2 MSTORE PUSH1 0x20 ADD DUP3 DUP1 SLOAD DUP1 ISZERO PUSH2 0x31F JUMPI PUSH1 0x20 MUL DUP3 ADD SWAP2 SWAP1 PUSH1 0x0 MSTORE PUSH1 0x20 PUSH1 0x0 KECCAK256 SWAP1 JUMPDEST DUP2 PUSH1 0x0 SWAP1 SLOAD SWAP1 PUSH2 0x100 EXP SWAP1 DIV PUSH20 0xFFFFFFFFFFFFFFFFFFFFFFFFFFFFFFFFFFFFFFFF AND PUSH20 0xFFFFFFFFFFFFFFFFFFFFFFFFFFFFFFFFFFFFFFFF AND DUP2 MSTORE PUSH1 0x20 ADD SWAP1 PUSH1 0x1 ADD SWAP1 DUP1 DUP4 GT PUSH2 0x2D5 JUMPI JUMPDEST POP POP POP POP POP SWAP2 POP POP SWAP1 JUMP JUMPDEST PUSH1 0x4 CALLER SWAP1 DUP1 PUSH1 0x1 DUP2 SLOAD ADD DUP1 DUP3 SSTORE DUP1 SWAP2 POP POP PUSH1 0x1 SWAP1 SUB SWAP1 PUSH1 0x0 MSTORE PUSH1 0x20 PUSH1 0x0 KECCAK256 ADD PUSH1 0x0 SWAP1 SWAP2 SWAP1 SWAP2 SWAP1 SWAP2 PUSH2 0x100 EXP DUP2 SLOAD DUP2 PUSH20 0xFFFFFFFFFFFFFFFFFFFFFFFFFFFFFFFFFFFFFFFF MUL NOT AND SWAP1 DUP4 PUSH20 0xFFFFFFFFFFFFFFFFFFFFFFFFFFFFFFFFFFFFFFFF AND MUL OR SWAP1 SSTORE POP PUSH32 0xF3FEF0DFB6AC5B9A824F8A58C8525CA724416B1C5748EE4FB5F998FE4C1441A4 CALLER PUSH1 0x40 MLOAD PUSH2 0x3BC SWAP2 SWAP1 PUSH2 0x750 JUMP JUMPDEST PUSH1 0x40 MLOAD DUP1 SWAP2 SUB SWAP1 LOG1 JUMP JUMPDEST PUSH1 0x2 PUSH1 0x20 MSTORE DUP1 PUSH1 0x0 MSTORE PUSH1 0x40 PUSH1 0x0 KECCAK256 PUSH1 0x0 SWAP2 POP SLOAD SWAP1 PUSH2 0x100 EXP SWAP1 DIV PUSH20 0xFFFFFFFFFFFFFFFFFFFFFFFFFFFFFFFFFFFFFFFF AND DUP2 JUMP JUMPDEST CALLER PUSH1 0x0 DUP1 SLOAD SWAP1 PUSH2 0x100 EXP SWAP1 DIV PUSH20 0xFFFFFFFFFFFFFFFFFFFFFFFFFFFFFFFFFFFFFFFF AND PUSH20 0xFFFFFFFFFFFFFFFFFFFFFFFFFFFFFFFFFFFFFFFF AND DUP2 PUSH20 0xFFFFFFFFFFFFFFFFFFFFFFFFFFFFFFFFFFFFFFFF AND EQ PUSH2 0x488 JUMPI PUSH1 0x40 MLOAD PUSH32 0x8C379A000000000000000000000000000000000000000000000000000000000 DUP2 MSTORE PUSH1 0x4 ADD PUSH2 0x47F SWAP1 PUSH2 0x9C5 JUMP JUMPDEST PUSH1 0x40 MLOAD DUP1 SWAP2 SUB SWAP1 REVERT JUMPDEST PUSH1 0x1 DUP1 PUSH1 0x0 DUP5 PUSH20 0xFFFFFFFFFFFFFFFFFFFFFFFFFFFFFFFFFFFFFFFF AND PUSH20 0xFFFFFFFFFFFFFFFFFFFFFFFFFFFFFFFFFFFFFFFF AND DUP2 MSTORE PUSH1 0x20 ADD SWAP1 DUP2 MSTORE PUSH1 0x20 ADD PUSH1 0x0 KECCAK256 PUSH1 0x0 PUSH2 0x100 EXP DUP2 SLOAD DUP2 PUSH1 0xFF MUL NOT AND SWAP1 DUP4 ISZERO ISZERO MUL OR SWAP1 SSTORE POP PUSH32 0xA06E56FE363849CA555483D9DFBABF40E281A3039CD640777F366803BBAF5717 DUP3 PUSH1 0x40 MLOAD PUSH2 0x50E SWAP2 SWAP1 PUSH2 0x750 JUMP JUMPDEST PUSH1 0x40 MLOAD DUP1 SWAP2 SUB SWAP1 LOG1 POP POP JUMP JUMPDEST PUSH1 0x1 ISZERO ISZERO PUSH1 0x1 PUSH1 0x0 CALLER PUSH20 0xFFFFFFFFFFFFFFFFFFFFFFFFFFFFFFFFFFFFFFFF AND PUSH20 0xFFFFFFFFFFFFFFFFFFFFFFFFFFFFFFFFFFFFFFFF AND DUP2 MSTORE PUSH1 0x20 ADD SWAP1 DUP2 MSTORE PUSH1 0x20 ADD PUSH1 0x0 KECCAK256 PUSH1 0x0 SWAP1 SLOAD SWAP1 PUSH2 0x100 EXP SWAP1 DIV PUSH1 0xFF AND ISZERO ISZERO EQ PUSH2 0x5AD JUMPI PUSH1 0x40 MLOAD PUSH32 0x8C379A000000000000000000000000000000000000000000000000000000000 DUP2 MSTORE PUSH1 0x4 ADD PUSH2 0x5A4 SWAP1 PUSH2 0xA57 JUMP JUMPDEST PUSH1 0x40 MLOAD DUP1 SWAP2 SUB SWAP1 REVERT JUMPDEST PUSH1 0x0 CALLER PUSH1 0x40 MLOAD PUSH2 0x5BC SWAP1 PUSH2 0x702 JUMP JUMPDEST PUSH2 0x5C6 SWAP2 SWAP1 PUSH2 0x750 JUMP JUMPDEST PUSH1 0x40 MLOAD DUP1 SWAP2 SUB SWAP1 PUSH1 0x0 CREATE DUP1 ISZERO DUP1 ISZERO PUSH2 0x5E2 JUMPI RETURNDATASIZE PUSH1 0x0 DUP1 RETURNDATACOPY RETURNDATASIZE PUSH1 0x0 REVERT JUMPDEST POP SWAP1 POP PUSH1 0x3 DUP2 SWAP1 DUP1 PUSH1 0x1 DUP2 SLOAD ADD DUP1 DUP3 SSTORE DUP1 SWAP2 POP POP PUSH1 0x1 SWAP1 SUB SWAP1 PUSH1 0x0 MSTORE PUSH1 0x20 PUSH1 0x0 KECCAK256 ADD PUSH1 0x0 SWAP1 SWAP2 SWAP1 SWAP2 SWAP1 SWAP2 PUSH2 0x100 EXP DUP2 SLOAD DUP2 PUSH20 0xFFFFFFFFFFFFFFFFFFFFFFFFFFFFFFFFFFFFFFFF MUL NOT AND SWAP1 DUP4 PUSH20 0xFFFFFFFFFFFFFFFFFFFFFFFFFFFFFFFFFFFFFFFF AND MUL OR SWAP1 SSTORE POP DUP1 PUSH1 0x2 PUSH1 0x0 CALLER PUSH20 0xFFFFFFFFFFFFFFFFFFFFFFFFFFFFFFFFFFFFFFFF AND PUSH20 0xFFFFFFFFFFFFFFFFFFFFFFFFFFFFFFFFFFFFFFFF AND DUP2 MSTORE PUSH1 0x20 ADD SWAP1 DUP2 MSTORE PUSH1 0x20 ADD PUSH1 0x0 KECCAK256 PUSH1 0x0 PUSH2 0x100 EXP DUP2 SLOAD DUP2 PUSH20 0xFFFFFFFFFFFFFFFFFFFFFFFFFFFFFFFFFFFFFFFF MUL NOT AND SWAP1 DUP4 PUSH20 0xFFFFFFFFFFFFFFFFFFFFFFFFFFFFFFFFFFFFFFFF AND MUL OR SWAP1 SSTORE POP PUSH32 0x9430B0CE80EC1FD1B9E38E786053A7FFBF9EFBCE2AC81E9CD4DB1813371FB078 DUP2 CALLER PUSH1 0x40 MLOAD PUSH2 0x6F7 SWAP3 SWAP2 SWAP1 PUSH2 0xA77 JUMP JUMPDEST PUSH1 0x40 MLOAD DUP1 SWAP2 SUB SWAP1 LOG1 POP JUMP JUMPDEST PUSH2 0xD16 DUP1 PUSH2 0xAA1 DUP4 CODECOPY ADD SWAP1 JUMP JUMPDEST PUSH1 0x0 PUSH20 0xFFFFFFFFFFFFFFFFFFFFFFFFFFFFFFFFFFFFFFFF DUP3 AND SWAP1 POP SWAP2 SWAP1 POP JUMP JUMPDEST PUSH1 0x0 PUSH2 0x73A DUP3 PUSH2 0x70F JUMP JUMPDEST SWAP1 POP SWAP2 SWAP1 POP JUMP JUMPDEST PUSH2 0x74A DUP2 PUSH2 0x72F JUMP JUMPDEST DUP3 MSTORE POP POP JUMP JUMPDEST PUSH1 0x0 PUSH1 0x20 DUP3 ADD SWAP1 POP PUSH2 0x765 PUSH1 0x0 DUP4 ADD DUP5 PUSH2 0x741 JUMP JUMPDEST SWAP3 SWAP2 POP POP JUMP JUMPDEST PUSH1 0x0 DUP1 REVERT JUMPDEST PUSH1 0x0 DUP2 SWAP1 POP SWAP2 SWAP1 POP JUMP JUMPDEST PUSH2 0x783 DUP2 PUSH2 0x770 JUMP JUMPDEST DUP2 EQ PUSH2 0x78E JUMPI PUSH1 0x0 DUP1 REVERT JUMPDEST POP JUMP JUMPDEST PUSH1 0x0 DUP2 CALLDATALOAD SWAP1 POP PUSH2 0x7A0 DUP2 PUSH2 0x77A JUMP JUMPDEST SWAP3 SWAP2 POP POP JUMP JUMPDEST PUSH1 0x0 PUSH1 0x20 DUP3 DUP5 SUB SLT ISZERO PUSH2 0x7BC JUMPI PUSH2 0x7BB PUSH2 0x76B JUMP JUMPDEST JUMPDEST PUSH1 0x0 PUSH2 0x7CA DUP5 DUP3 DUP6 ADD PUSH2 0x791 JUMP JUMPDEST SWAP2 POP POP SWAP3 SWAP2 POP POP JUMP JUMPDEST PUSH2 0x7DC DUP2 PUSH2 0x72F JUMP JUMPDEST DUP2 EQ PUSH2 0x7E7 JUMPI PUSH1 0x0 DUP1 REVERT JUMPDEST POP JUMP JUMPDEST PUSH1 0x0 DUP2 CALLDATALOAD SWAP1 POP PUSH2 0x7F9 DUP2 PUSH2 0x7D3 JUMP JUMPDEST SWAP3 SWAP2 POP POP JUMP JUMPDEST PUSH1 0x0 PUSH1 0x20 DUP3 DUP5 SUB SLT ISZERO PUSH2 0x815 JUMPI PUSH2 0x814 PUSH2 0x76B JUMP JUMPDEST JUMPDEST PUSH1 0x0 PUSH2 0x823 DUP5 DUP3 DUP6 ADD PUSH2 0x7EA JUMP JUMPDEST SWAP2 POP POP SWAP3 SWAP2 POP POP JUMP JUMPDEST PUSH1 0x0 DUP2 ISZERO ISZERO SWAP1 POP SWAP2 SWAP1 POP JUMP JUMPDEST PUSH2 0x841 DUP2 PUSH2 0x82C JUMP JUMPDEST DUP3 MSTORE POP POP JUMP JUMPDEST PUSH1 0x0 PUSH1 0x20 DUP3 ADD SWAP1 POP PUSH2 0x85C PUSH1 0x0 DUP4 ADD DUP5 PUSH2 0x838 JUMP JUMPDEST SWAP3 SWAP2 POP POP JUMP JUMPDEST PUSH1 0x0 DUP2 MLOAD SWAP1 POP SWAP2 SWAP1 POP JUMP JUMPDEST PUSH1 0x0 DUP3 DUP3 MSTORE PUSH1 0x20 DUP3 ADD SWAP1 POP SWAP3 SWAP2 POP POP JUMP JUMPDEST PUSH1 0x0 DUP2 SWAP1 POP PUSH1 0x20 DUP3 ADD SWAP1 POP SWAP2 SWAP1 POP JUMP JUMPDEST PUSH2 0x897 DUP2 PUSH2 0x72F JUMP JUMPDEST DUP3 MSTORE POP POP JUMP JUMPDEST PUSH1 0x0 PUSH2 0x8A9 DUP4 DUP4 PUSH2 0x88E JUMP JUMPDEST PUSH1 0x20 DUP4 ADD SWAP1 POP SWAP3 SWAP2 POP POP JUMP JUMPDEST PUSH1 0x0 PUSH1 0x20 DUP3 ADD SWAP1 POP SWAP2 SWAP1 POP JUMP JUMPDEST PUSH1 0x0 PUSH2 0x8CD DUP3 PUSH2 0x862 JUMP JUMPDEST PUSH2 0x8D7 DUP2 DUP6 PUSH2 0x86D JUMP JUMPDEST SWAP4 POP PUSH2 0x8E2 DUP4 PUSH2 0x87E JUMP JUMPDEST DUP1 PUSH1 0x0 JUMPDEST DUP4 DUP2 LT ISZERO PUSH2 0x913 JUMPI DUP2 MLOAD PUSH2 0x8FA DUP9 DUP3 PUSH2 0x89D JUMP JUMPDEST SWAP8 POP PUSH2 0x905 DUP4 PUSH2 0x8B5 JUMP JUMPDEST SWAP3 POP POP PUSH1 0x1 DUP2 ADD SWAP1 POP PUSH2 0x8E6 JUMP JUMPDEST POP DUP6 SWAP4 POP POP POP POP SWAP3 SWAP2 POP POP JUMP JUMPDEST PUSH1 0x0 PUSH1 0x20 DUP3 ADD SWAP1 POP DUP2 DUP2 SUB PUSH1 0x0 DUP4 ADD MSTORE PUSH2 0x93A DUP2 DUP5 PUSH2 0x8C2 JUMP JUMPDEST SWAP1 POP SWAP3 SWAP2 POP POP JUMP JUMPDEST PUSH1 0x0 DUP3 DUP3 MSTORE PUSH1 0x20 DUP3 ADD SWAP1 POP SWAP3 SWAP2 POP POP JUMP JUMPDEST PUSH32 0x4E6F207469656E6573207065726D69736F73207061726120656A656375746172 PUSH1 0x0 DUP3 ADD MSTORE PUSH32 0x20657374612066756E63696F6E00000000000000000000000000000000000000 PUSH1 0x20 DUP3 ADD MSTORE POP JUMP JUMPDEST PUSH1 0x0 PUSH2 0x9AF PUSH1 0x2D DUP4 PUSH2 0x942 JUMP JUMPDEST SWAP2 POP PUSH2 0x9BA DUP3 PUSH2 0x953 JUMP JUMPDEST PUSH1 0x40 DUP3 ADD SWAP1 POP SWAP2 SWAP1 POP JUMP JUMPDEST PUSH1 0x0 PUSH1 0x20 DUP3 ADD SWAP1 POP DUP2 DUP2 SUB PUSH1 0x0 DUP4 ADD MSTORE PUSH2 0x9DE DUP2 PUSH2 0x9A2 JUMP JUMPDEST SWAP1 POP SWAP2 SWAP1 POP JUMP JUMPDEST PUSH32 0x4E6F207469656E6573207065726D69736F732070617261207265616C697A6172 PUSH1 0x0 DUP3 ADD MSTORE PUSH32 0x20657374612066756E63696F6E00000000000000000000000000000000000000 PUSH1 0x20 DUP3 ADD MSTORE POP JUMP JUMPDEST PUSH1 0x0 PUSH2 0xA41 PUSH1 0x2D DUP4 PUSH2 0x942 JUMP JUMPDEST SWAP2 POP PUSH2 0xA4C DUP3 PUSH2 0x9E5 JUMP JUMPDEST PUSH1 0x40 DUP3 ADD SWAP1 POP SWAP2 SWAP1 POP JUMP JUMPDEST PUSH1 0x0 PUSH1 0x20 DUP3 ADD SWAP1 POP DUP2 DUP2 SUB PUSH1 0x0 DUP4 ADD MSTORE PUSH2 0xA70 DUP2 PUSH2 0xA34 JUMP JUMPDEST SWAP1 POP SWAP2 SWAP1 POP JUMP JUMPDEST PUSH1 0x0 PUSH1 0x40 DUP3 ADD SWAP1 POP PUSH2 0xA8C PUSH1 0x0 DUP4 ADD DUP6 PUSH2 0x741 JUMP JUMPDEST PUSH2 0xA99 PUSH1 0x20 DUP4 ADD DUP5 PUSH2 0x741 JUMP JUMPDEST SWAP4 SWAP3 POP POP POP JUMP INVALID PUSH1 0x80 PUSH1 0x40 MSTORE CALLVALUE DUP1 ISZERO PUSH2 0x10 JUMPI PUSH1 0x0 DUP1 REVERT JUMPDEST POP PUSH1 0x40 MLOAD PUSH2 0xD16 CODESIZE SUB DUP1 PUSH2 0xD16 DUP4 CODECOPY DUP2 DUP2 ADD PUSH1 0x40 MSTORE DUP2 ADD SWAP1 PUSH2 0x32 SWAP2 SWAP1 PUSH2 0x11C JUMP JUMPDEST DUP1 PUSH1 0x0 DUP1 PUSH2 0x100 EXP DUP2 SLOAD DUP2 PUSH20 0xFFFFFFFFFFFFFFFFFFFFFFFFFFFFFFFFFFFFFFFF MUL NOT AND SWAP1 DUP4 PUSH20 0xFFFFFFFFFFFFFFFFFFFFFFFFFFFFFFFFFFFFFFFF AND MUL OR SWAP1 SSTORE POP ADDRESS PUSH1 0x1 PUSH1 0x0 PUSH2 0x100 EXP DUP2 SLOAD DUP2 PUSH20 0xFFFFFFFFFFFFFFFFFFFFFFFFFFFFFFFFFFFFFFFF MUL NOT AND SWAP1 DUP4 PUSH20 0xFFFFFFFFFFFFFFFFFFFFFFFFFFFFFFFFFFFFFFFF AND MUL OR SWAP1 SSTORE POP POP PUSH2 0x149 JUMP JUMPDEST PUSH1 0x0 DUP1 REVERT JUMPDEST PUSH1 0x0 PUSH20 0xFFFFFFFFFFFFFFFFFFFFFFFFFFFFFFFFFFFFFFFF DUP3 AND SWAP1 POP SWAP2 SWAP1 POP JUMP JUMPDEST PUSH1 0x0 PUSH2 0xE9 DUP3 PUSH2 0xBE JUMP JUMPDEST SWAP1 POP SWAP2 SWAP1 POP JUMP JUMPDEST PUSH2 0xF9 DUP2 PUSH2 0xDE JUMP JUMPDEST DUP2 EQ PUSH2 0x104 JUMPI PUSH1 0x0 DUP1 REVERT JUMPDEST POP JUMP JUMPDEST PUSH1 0x0 DUP2 MLOAD SWAP1 POP PUSH2 0x116 DUP2 PUSH2 0xF0 JUMP JUMPDEST SWAP3 SWAP2 POP POP JUMP JUMPDEST PUSH1 0x0 PUSH1 0x20 DUP3 DUP5 SUB SLT ISZERO PUSH2 0x132 JUMPI PUSH2 0x131 PUSH2 0xB9 JUMP JUMPDEST JUMPDEST PUSH1 0x0 PUSH2 0x140 DUP5 DUP3 DUP6 ADD PUSH2 0x107 JUMP JUMPDEST SWAP2 POP POP SWAP3 SWAP2 POP POP JUMP JUMPDEST PUSH2 0xBBE DUP1 PUSH2 0x158 PUSH1 0x0 CODECOPY PUSH1 0x0 RETURN INVALID PUSH1 0x80 PUSH1 0x40 MSTORE CALLVALUE DUP1 ISZERO PUSH2 0x10 JUMPI PUSH1 0x0 DUP1 REVERT JUMPDEST POP PUSH1 0x4 CALLDATASIZE LT PUSH2 0x4C JUMPI PUSH1 0x0 CALLDATALOAD PUSH1 0xE0 SHR DUP1 PUSH4 0x39282F7E EQ PUSH2 0x51 JUMPI DUP1 PUSH4 0x4C231A9B EQ PUSH2 0x6F JUMPI DUP1 PUSH4 0x53E6F6AE EQ PUSH2 0x8D JUMPI DUP1 PUSH4 0x8707585F EQ PUSH2 0xBE JUMPI JUMPDEST PUSH1 0x0 DUP1 REVERT JUMPDEST PUSH2 0x59 PUSH2 0xDA JUMP JUMPDEST PUSH1 0x40 MLOAD PUSH2 0x66 SWAP2 SWAP1 PUSH2 0x445 JUMP JUMPDEST PUSH1 0x40 MLOAD DUP1 SWAP2 SUB SWAP1 RETURN JUMPDEST PUSH2 0x77 PUSH2 0xFE JUMP JUMPDEST PUSH1 0x40 MLOAD PUSH2 0x84 SWAP2 SWAP1 PUSH2 0x445 JUMP JUMPDEST PUSH1 0x40 MLOAD DUP1 SWAP2 SUB SWAP1 RETURN JUMPDEST PUSH2 0xA7 PUSH1 0x4 DUP1 CALLDATASIZE SUB DUP2 ADD SWAP1 PUSH2 0xA2 SWAP2 SWAP1 PUSH2 0x5BA JUMP JUMPDEST PUSH2 0x124 JUMP JUMPDEST PUSH1 0x40 MLOAD PUSH2 0xB5 SWAP3 SWAP2 SWAP1 PUSH2 0x682 JUMP JUMPDEST PUSH1 0x40 MLOAD DUP1 SWAP2 SUB SWAP1 RETURN JUMPDEST PUSH2 0xD8 PUSH1 0x4 DUP1 CALLDATASIZE SUB DUP2 ADD SWAP1 PUSH2 0xD3 SWAP2 SWAP1 PUSH2 0x6F1 JUMP JUMPDEST PUSH2 0x2A7 JUMP JUMPDEST STOP JUMPDEST PUSH1 0x0 DUP1 SLOAD SWAP1 PUSH2 0x100 EXP SWAP1 DIV PUSH20 0xFFFFFFFFFFFFFFFFFFFFFFFFFFFFFFFFFFFFFFFF AND DUP2 JUMP JUMPDEST PUSH1 0x1 PUSH1 0x0 SWAP1 SLOAD SWAP1 PUSH2 0x100 EXP SWAP1 DIV PUSH20 0xFFFFFFFFFFFFFFFFFFFFFFFFFFFFFFFFFFFFFFFF AND DUP2 JUMP JUMPDEST PUSH1 0x60 DUP1 PUSH1 0x0 DUP4 PUSH1 0x40 MLOAD PUSH1 0x20 ADD PUSH2 0x13A SWAP2 SWAP1 PUSH2 0x7B8 JUMP JUMPDEST PUSH1 0x40 MLOAD PUSH1 0x20 DUP2 DUP4 SUB SUB DUP2 MSTORE SWAP1 PUSH1 0x40 MSTORE DUP1 MLOAD SWAP1 PUSH1 0x20 ADD KECCAK256 SWAP1 POP PUSH1 0x60 PUSH1 0x1 ISZERO ISZERO PUSH1 0x2 PUSH1 0x0 DUP5 DUP2 MSTORE PUSH1 0x20 ADD SWAP1 DUP2 MSTORE PUSH1 0x20 ADD PUSH1 0x0 KECCAK256 PUSH1 0x0 ADD PUSH1 0x0 SWAP1 SLOAD SWAP1 PUSH2 0x100 EXP SWAP1 DIV PUSH1 0xFF AND ISZERO ISZERO SUB PUSH2 0x1C0 JUMPI PUSH1 0x40 MLOAD DUP1 PUSH1 0x40 ADD PUSH1 0x40 MSTORE DUP1 PUSH1 0x8 DUP2 MSTORE PUSH1 0x20 ADD PUSH32 0x506F73697469766F000000000000000000000000000000000000000000000000 DUP2 MSTORE POP SWAP1 POP PUSH2 0x1F9 JUMP JUMPDEST PUSH1 0x40 MLOAD DUP1 PUSH1 0x40 ADD PUSH1 0x40 MSTORE DUP1 PUSH1 0x8 DUP2 MSTORE PUSH1 0x20 ADD PUSH32 0x4E6567617469766F000000000000000000000000000000000000000000000000 DUP2 MSTORE POP SWAP1 POP JUMPDEST DUP1 PUSH1 0x2 PUSH1 0x0 DUP5 DUP2 MSTORE PUSH1 0x20 ADD SWAP1 DUP2 MSTORE PUSH1 0x20 ADD PUSH1 0x0 KECCAK256 PUSH1 0x1 ADD DUP1 DUP1 SLOAD PUSH2 0x21C SWAP1 PUSH2 0x7FE JUMP JUMPDEST DUP1 PUSH1 0x1F ADD PUSH1 0x20 DUP1 SWAP2 DIV MUL PUSH1 0x20 ADD PUSH1 0x40 MLOAD SWAP1 DUP2 ADD PUSH1 0x40 MSTORE DUP1 SWAP3 SWAP2 SWAP1 DUP2 DUP2 MSTORE PUSH1 0x20 ADD DUP3 DUP1 SLOAD PUSH2 0x248 SWAP1 PUSH2 0x7FE JUMP JUMPDEST DUP1 ISZERO PUSH2 0x295 JUMPI DUP1 PUSH1 0x1F LT PUSH2 0x26A JUMPI PUSH2 0x100 DUP1 DUP4 SLOAD DIV MUL DUP4 MSTORE SWAP2 PUSH1 0x20 ADD SWAP2 PUSH2 0x295 JUMP JUMPDEST DUP3 ADD SWAP2 SWAP1 PUSH1 0x0 MSTORE PUSH1 0x20 PUSH1 0x0 KECCAK256 SWAP1 JUMPDEST DUP2 SLOAD DUP2 MSTORE SWAP1 PUSH1 0x1 ADD SWAP1 PUSH1 0x20 ADD DUP1 DUP4 GT PUSH2 0x278 JUMPI DUP3 SWAP1 SUB PUSH1 0x1F AND DUP3 ADD SWAP2 JUMPDEST POP POP POP POP POP SWAP1 POP SWAP4 POP SWAP4 POP POP POP SWAP2 POP SWAP2 JUMP JUMPDEST CALLER PUSH1 0x0 DUP1 SLOAD SWAP1 PUSH2 0x100 EXP SWAP1 DIV PUSH20 0xFFFFFFFFFFFFFFFFFFFFFFFFFFFFFFFFFFFFFFFF AND PUSH20 0xFFFFFFFFFFFFFFFFFFFFFFFFFFFFFFFFFFFFFFFF AND DUP2 PUSH20 0xFFFFFFFFFFFFFFFFFFFFFFFFFFFFFFFFFFFFFFFF AND EQ PUSH2 0x336 JUMPI PUSH1 0x40 MLOAD PUSH32 0x8C379A000000000000000000000000000000000000000000000000000000000 DUP2 MSTORE PUSH1 0x4 ADD PUSH2 0x32D SWAP1 PUSH2 0x8A1 JUMP JUMPDEST PUSH1 0x40 MLOAD DUP1 SWAP2 SUB SWAP1 REVERT JUMPDEST PUSH1 0x0 DUP5 PUSH1 0x40 MLOAD PUSH1 0x20 ADD PUSH2 0x349 SWAP2 SWAP1 PUSH2 0x7B8 JUMP JUMPDEST PUSH1 0x40 MLOAD PUSH1 0x20 DUP2 DUP4 SUB SUB DUP2 MSTORE SWAP1 PUSH1 0x40 MSTORE DUP1 MLOAD SWAP1 PUSH1 0x20 ADD KECCAK256 SWAP1 POP PUSH1 0x40 MLOAD DUP1 PUSH1 0x40 ADD PUSH1 0x40 MSTORE DUP1 DUP6 ISZERO ISZERO DUP2 MSTORE PUSH1 0x20 ADD DUP5 DUP2 MSTORE POP PUSH1 0x2 PUSH1 0x0 DUP4 DUP2 MSTORE PUSH1 0x20 ADD SWAP1 DUP2 MSTORE PUSH1 0x20 ADD PUSH1 0x0 KECCAK256 PUSH1 0x0 DUP3 ADD MLOAD DUP2 PUSH1 0x0 ADD PUSH1 0x0 PUSH2 0x100 EXP DUP2 SLOAD DUP2 PUSH1 0xFF MUL NOT AND SWAP1 DUP4 ISZERO ISZERO MUL OR SWAP1 SSTORE POP PUSH1 0x20 DUP3 ADD MLOAD DUP2 PUSH1 0x1 ADD SWAP1 DUP2 PUSH2 0x3C0 SWAP2 SWAP1 PUSH2 0xA77 JUMP JUMPDEST POP SWAP1 POP POP PUSH32 0x99D08BA2A7620BF3C6B644D9B20E406E19716924A4B5A939C7582FC507CB95F1 DUP4 DUP6 PUSH1 0x40 MLOAD PUSH2 0x3F5 SWAP3 SWAP2 SWAP1 PUSH2 0xB58 JUMP JUMPDEST PUSH1 0x40 MLOAD DUP1 SWAP2 SUB SWAP1 LOG1 POP POP POP POP POP JUMP JUMPDEST PUSH1 0x0 PUSH20 0xFFFFFFFFFFFFFFFFFFFFFFFFFFFFFFFFFFFFFFFF DUP3 AND SWAP1 POP SWAP2 SWAP1 POP JUMP JUMPDEST PUSH1 0x0 PUSH2 0x42F DUP3 PUSH2 0x404 JUMP JUMPDEST SWAP1 POP SWAP2 SWAP1 POP JUMP JUMPDEST PUSH2 0x43F DUP2 PUSH2 0x424 JUMP JUMPDEST DUP3 MSTORE POP POP JUMP JUMPDEST PUSH1 0x0 PUSH1 0x20 DUP3 ADD SWAP1 POP PUSH2 0x45A PUSH1 0x0 DUP4 ADD DUP5 PUSH2 0x436 JUMP JUMPDEST SWAP3 SWAP2 POP POP JUMP JUMPDEST PUSH1 0x0 PUSH1 0x40 MLOAD SWAP1 POP SWAP1 JUMP JUMPDEST PUSH1 0x0 DUP1 REVERT JUMPDEST PUSH1 0x0 DUP1 REVERT JUMPDEST PUSH1 0x0 DUP1 REVERT JUMPDEST PUSH1 0x0 DUP1 REVERT JUMPDEST PUSH1 0x0 PUSH1 0x1F NOT PUSH1 0x1F DUP4 ADD AND SWAP1 POP SWAP2 SWAP1 POP JUMP JUMPDEST PUSH32 0x4E487B7100000000000000000000000000000000000000000000000000000000 PUSH1 0x0 MSTORE PUSH1 0x41 PUSH1 0x4 MSTORE PUSH1 0x24 PUSH1 0x0 REVERT JUMPDEST PUSH2 0x4C7 DUP3 PUSH2 0x47E JUMP JUMPDEST DUP2 ADD DUP2 DUP2 LT PUSH8 0xFFFFFFFFFFFFFFFF DUP3 GT OR ISZERO PUSH2 0x4E6 JUMPI PUSH2 0x4E5 PUSH2 0x48F JUMP JUMPDEST JUMPDEST DUP1 PUSH1 0x40 MSTORE POP POP POP JUMP JUMPDEST PUSH1 0x0 PUSH2 0x4F9 PUSH2 0x460 JUMP JUMPDEST SWAP1 POP PUSH2 0x505 DUP3 DUP3 PUSH2 0x4BE JUMP JUMPDEST SWAP2 SWAP1 POP JUMP JUMPDEST PUSH1 0x0 PUSH8 0xFFFFFFFFFFFFFFFF DUP3 GT ISZERO PUSH2 0x525 JUMPI PUSH2 0x524 PUSH2 0x48F JUMP JUMPDEST JUMPDEST PUSH2 0x52E DUP3 PUSH2 0x47E JUMP JUMPDEST SWAP1 POP PUSH1 0x20 DUP2 ADD SWAP1 POP SWAP2 SWAP1 POP JUMP JUMPDEST DUP3 DUP2 DUP4 CALLDATACOPY PUSH1 0x0 DUP4 DUP4 ADD MSTORE POP POP POP JUMP JUMPDEST PUSH1 0x0 PUSH2 0x55D PUSH2 0x558 DUP5 PUSH2 0x50A JUMP JUMPDEST PUSH2 0x4EF JUMP JUMPDEST SWAP1 POP DUP3 DUP2 MSTORE PUSH1 0x20 DUP2 ADD DUP5 DUP5 DUP5 ADD GT ISZERO PUSH2 0x579 JUMPI PUSH2 0x578 PUSH2 0x479 JUMP JUMPDEST JUMPDEST PUSH2 0x584 DUP5 DUP3 DUP6 PUSH2 0x53B JUMP JUMPDEST POP SWAP4 SWAP3 POP POP POP JUMP JUMPDEST PUSH1 0x0 DUP3 PUSH1 0x1F DUP4 ADD SLT PUSH2 0x5A1 JUMPI PUSH2 0x5A0 PUSH2 0x474 JUMP JUMPDEST JUMPDEST DUP2 CALLDATALOAD PUSH2 0x5B1 DUP5 DUP3 PUSH1 0x20 DUP7 ADD PUSH2 0x54A JUMP JUMPDEST SWAP2 POP POP SWAP3 SWAP2 POP POP JUMP JUMPDEST PUSH1 0x0 PUSH1 0x20 DUP3 DUP5 SUB SLT ISZERO PUSH2 0x5D0 JUMPI PUSH2 0x5CF PUSH2 0x46A JUMP JUMPDEST JUMPDEST PUSH1 0x0 DUP3 ADD CALLDATALOAD PUSH8 0xFFFFFFFFFFFFFFFF DUP2 GT ISZERO PUSH2 0x5EE JUMPI PUSH2 0x5ED PUSH2 0x46F JUMP JUMPDEST JUMPDEST PUSH2 0x5FA DUP5 DUP3 DUP6 ADD PUSH2 0x58C JUMP JUMPDEST SWAP2 POP POP SWAP3 SWAP2 POP POP JUMP JUMPDEST PUSH1 0x0 DUP2 MLOAD SWAP1 POP SWAP2 SWAP1 POP JUMP JUMPDEST PUSH1 0x0 DUP3 DUP3 MSTORE PUSH1 0x20 DUP3 ADD SWAP1 POP SWAP3 SWAP2 POP POP JUMP JUMPDEST PUSH1 0x0 JUMPDEST DUP4 DUP2 LT ISZERO PUSH2 0x63D JUMPI DUP1 DUP3 ADD MLOAD DUP2 DUP5 ADD MSTORE PUSH1 0x20 DUP2 ADD SWAP1 POP PUSH2 0x622 JUMP JUMPDEST PUSH1 0x0 DUP5 DUP5 ADD MSTORE POP POP POP POP JUMP JUMPDEST PUSH1 0x0 PUSH2 0x654 DUP3 PUSH2 0x603 JUMP JUMPDEST PUSH2 0x65E DUP2 DUP6 PUSH2 0x60E JUMP JUMPDEST SWAP4 POP PUSH2 0x66E DUP2 DUP6 PUSH1 0x20 DUP7 ADD PUSH2 0x61F JUMP JUMPDEST PUSH2 0x677 DUP2 PUSH2 0x47E JUMP JUMPDEST DUP5 ADD SWAP2 POP POP SWAP3 SWAP2 POP POP JUMP JUMPDEST PUSH1 0x0 PUSH1 0x40 DUP3 ADD SWAP1 POP DUP2 DUP2 SUB PUSH1 0x0 DUP4 ADD MSTORE PUSH2 0x69C DUP2 DUP6 PUSH2 0x649 JUMP JUMPDEST SWAP1 POP DUP2 DUP2 SUB PUSH1 0x20 DUP4 ADD MSTORE PUSH2 0x6B0 DUP2 DUP5 PUSH2 0x649 JUMP JUMPDEST SWAP1 POP SWAP4 SWAP3 POP POP POP JUMP JUMPDEST PUSH1 0x0 DUP2 ISZERO ISZERO SWAP1 POP SWAP2 SWAP1 POP JUMP JUMPDEST PUSH2 0x6CE DUP2 PUSH2 0x6B9 JUMP JUMPDEST DUP2 EQ PUSH2 0x6D9 JUMPI PUSH1 0x0 DUP1 REVERT JUMPDEST POP JUMP JUMPDEST PUSH1 0x0 DUP2 CALLDATALOAD SWAP1 POP PUSH2 0x6EB DUP2 PUSH2 0x6C5 JUMP JUMPDEST SWAP3 SWAP2 POP POP JUMP JUMPDEST PUSH1 0x0 DUP1 PUSH1 0x0 PUSH1 0x60 DUP5 DUP7 SUB SLT ISZERO PUSH2 0x70A JUMPI PUSH2 0x709 PUSH2 0x46A JUMP JUMPDEST JUMPDEST PUSH1 0x0 DUP5 ADD CALLDATALOAD PUSH8 0xFFFFFFFFFFFFFFFF DUP2 GT ISZERO PUSH2 0x728 JUMPI PUSH2 0x727 PUSH2 0x46F JUMP JUMPDEST JUMPDEST PUSH2 0x734 DUP7 DUP3 DUP8 ADD PUSH2 0x58C JUMP JUMPDEST SWAP4 POP POP PUSH1 0x20 PUSH2 0x745 DUP7 DUP3 DUP8 ADD PUSH2 0x6DC JUMP JUMPDEST SWAP3 POP POP PUSH1 0x40 DUP5 ADD CALLDATALOAD PUSH8 0xFFFFFFFFFFFFFFFF DUP2 GT ISZERO PUSH2 0x766 JUMPI PUSH2 0x765 PUSH2 0x46F JUMP JUMPDEST JUMPDEST PUSH2 0x772 DUP7 DUP3 DUP8 ADD PUSH2 0x58C JUMP JUMPDEST SWAP2 POP POP SWAP3 POP SWAP3 POP SWAP3 JUMP JUMPDEST PUSH1 0x0 DUP2 SWAP1 POP SWAP3 SWAP2 POP POP JUMP JUMPDEST PUSH1 0x0 PUSH2 0x792 DUP3 PUSH2 0x603 JUMP JUMPDEST PUSH2 0x79C DUP2 DUP6 PUSH2 0x77C JUMP JUMPDEST SWAP4 POP PUSH2 0x7AC DUP2 DUP6 PUSH1 0x20 DUP7 ADD PUSH2 0x61F JUMP JUMPDEST DUP1 DUP5 ADD SWAP2 POP POP SWAP3 SWAP2 POP POP JUMP JUMPDEST PUSH1 0x0 PUSH2 0x7C4 DUP3 DUP5 PUSH2 0x787 JUMP JUMPDEST SWAP2 POP DUP2 SWAP1 POP SWAP3 SWAP2 POP POP JUMP JUMPDEST PUSH32 0x4E487B7100000000000000000000000000000000000000000000000000000000 PUSH1 0x0 MSTORE PUSH1 0x22 PUSH1 0x4 MSTORE PUSH1 0x24 PUSH1 0x0 REVERT JUMPDEST PUSH1 0x0 PUSH1 0x2 DUP3 DIV SWAP1 POP PUSH1 0x1 DUP3 AND DUP1 PUSH2 0x816 JUMPI PUSH1 0x7F DUP3 AND SWAP2 POP JUMPDEST PUSH1 0x20 DUP3 LT DUP2 SUB PUSH2 0x829 JUMPI PUSH2 0x828 PUSH2 0x7CF JUMP JUMPDEST JUMPDEST POP SWAP2 SWAP1 POP JUMP JUMPDEST PUSH32 0x4E6F207469656E6573207065726D69736F73207061726120656A656375746172 PUSH1 0x0 DUP3 ADD MSTORE PUSH32 0x20657374612066756E63696F6E00000000000000000000000000000000000000 PUSH1 0x20 DUP3 ADD MSTORE POP JUMP JUMPDEST PUSH1 0x0 PUSH2 0x88B PUSH1 0x2D DUP4 PUSH2 0x60E JUMP JUMPDEST SWAP2 POP PUSH2 0x896 DUP3 PUSH2 0x82F JUMP JUMPDEST PUSH1 0x40 DUP3 ADD SWAP1 POP SWAP2 SWAP1 POP JUMP JUMPDEST PUSH1 0x0 PUSH1 0x20 DUP3 ADD SWAP1 POP DUP2 DUP2 SUB PUSH1 0x0 DUP4 ADD MSTORE PUSH2 0x8BA DUP2 PUSH2 0x87E JUMP JUMPDEST SWAP1 POP SWAP2 SWAP1 POP JUMP JUMPDEST PUSH1 0x0 DUP2 SWAP1 POP DUP2 PUSH1 0x0 MSTORE PUSH1 0x20 PUSH1 0x0 KECCAK256 SWAP1 POP SWAP2 SWAP1 POP JUMP JUMPDEST PUSH1 0x0 PUSH1 0x20 PUSH1 0x1F DUP4 ADD DIV SWAP1 POP SWAP2 SWAP1 POP JUMP JUMPDEST PUSH1 0x0 DUP3 DUP3 SHL SWAP1 POP SWAP3 SWAP2 POP POP JUMP JUMPDEST PUSH1 0x0 PUSH1 0x8 DUP4 MUL PUSH2 0x923 PUSH32 0xFFFFFFFFFFFFFFFFFFFFFFFFFFFFFFFFFFFFFFFFFFFFFFFFFFFFFFFFFFFFFFFF DUP3 PUSH2 0x8E6 JUMP JUMPDEST PUSH2 0x92D DUP7 DUP4 PUSH2 0x8E6 JUMP JUMPDEST SWAP6 POP DUP1 NOT DUP5 AND SWAP4 POP DUP1 DUP7 AND DUP5 OR SWAP3 POP POP POP SWAP4 SWAP3 POP POP POP JUMP JUMPDEST PUSH1 0x0 DUP2 SWAP1 POP SWAP2 SWAP1 POP JUMP JUMPDEST PUSH1 0x0 DUP2 SWAP1 POP SWAP2 SWAP1 POP JUMP JUMPDEST PUSH1 0x0 PUSH2 0x974 PUSH2 0x96F PUSH2 0x96A DUP5 PUSH2 0x945 JUMP JUMPDEST PUSH2 0x94F JUMP JUMPDEST PUSH2 0x945 JUMP JUMPDEST SWAP1 POP SWAP2 SWAP1 POP JUMP JUMPDEST PUSH1 0x0 DUP2 SWAP1 POP SWAP2 SWAP1 POP JUMP JUMPDEST PUSH2 0x98E DUP4 PUSH2 0x959 JUMP JUMPDEST PUSH2 0x9A2 PUSH2 0x99A DUP3 PUSH2 0x97B JUMP JUMPDEST DUP5 DUP5 SLOAD PUSH2 0x8F3 JUMP JUMPDEST DUP3 SSTORE POP POP POP POP JUMP JUMPDEST PUSH1 0x0 SWAP1 JUMP JUMPDEST PUSH2 0x9B7 PUSH2 0x9AA JUMP JUMPDEST PUSH2 0x9C2 DUP2 DUP5 DUP5 PUSH2 0x985 JUMP JUMPDEST POP POP POP JUMP JUMPDEST JUMPDEST DUP2 DUP2 LT ISZERO PUSH2 0x9E6 JUMPI PUSH2 0x9DB PUSH1 0x0 DUP3 PUSH2 0x9AF JUMP JUMPDEST PUSH1 0x1 DUP2 ADD SWAP1 POP PUSH2 0x9C8 JUMP JUMPDEST POP POP JUMP JUMPDEST PUSH1 0x1F DUP3 GT ISZERO PUSH2 0xA2B JUMPI PUSH2 0x9FC DUP2 PUSH2 0x8C1 JUMP JUMPDEST PUSH2 0xA05 DUP5 PUSH2 0x8D6 JUMP JUMPDEST DUP2 ADD PUSH1 0x20 DUP6 LT ISZERO PUSH2 0xA14 JUMPI DUP2 SWAP1 POP JUMPDEST PUSH2 0xA28 PUSH2 0xA20 DUP6 PUSH2 0x8D6 JUMP JUMPDEST DUP4 ADD DUP3 PUSH2 0x9C7 JUMP JUMPDEST POP POP JUMPDEST POP POP POP JUMP JUMPDEST PUSH1 0x0 DUP3 DUP3 SHR SWAP1 POP SWAP3 SWAP2 POP POP JUMP JUMPDEST PUSH1 0x0 PUSH2 0xA4E PUSH1 0x0 NOT DUP5 PUSH1 0x8 MUL PUSH2 0xA30 JUMP JUMPDEST NOT DUP1 DUP4 AND SWAP2 POP POP SWAP3 SWAP2 POP POP JUMP JUMPDEST PUSH1 0x0 PUSH2 0xA67 DUP4 DUP4 PUSH2 0xA3D JUMP JUMPDEST SWAP2 POP DUP3 PUSH1 0x2 MUL DUP3 OR SWAP1 POP SWAP3 SWAP2 POP POP JUMP JUMPDEST PUSH2 0xA80 DUP3 PUSH2 0x603 JUMP JUMPDEST PUSH8 0xFFFFFFFFFFFFFFFF DUP2 GT ISZERO PUSH2 0xA99 JUMPI PUSH2 0xA98 PUSH2 0x48F JUMP JUMPDEST JUMPDEST PUSH2 0xAA3 DUP3 SLOAD PUSH2 0x7FE JUMP JUMPDEST PUSH2 0xAAE DUP3 DUP3 DUP6 PUSH2 0x9EA JUMP JUMPDEST PUSH1 0x0 PUSH1 0x20 SWAP1 POP PUSH1 0x1F DUP4 GT PUSH1 0x1 DUP2 EQ PUSH2 0xAE1 JUMPI PUSH1 0x0 DUP5 ISZERO PUSH2 0xACF JUMPI DUP3 DUP8 ADD MLOAD SWAP1 POP JUMPDEST PUSH2 0xAD9 DUP6 DUP3 PUSH2 0xA5B JUMP JUMPDEST DUP7 SSTORE POP PUSH2 0xB41 JUMP JUMPDEST PUSH1 0x1F NOT DUP5 AND PUSH2 0xAEF DUP7 PUSH2 0x8C1 JUMP JUMPDEST PUSH1 0x0 JUMPDEST DUP3 DUP2 LT ISZERO PUSH2 0xB17 JUMPI DUP5 DUP10 ADD MLOAD DUP3 SSTORE PUSH1 0x1 DUP3 ADD SWAP2 POP PUSH1 0x20 DUP6 ADD SWAP5 POP PUSH1 0x20 DUP2 ADD SWAP1 POP PUSH2 0xAF2 JUMP JUMPDEST DUP7 DUP4 LT ISZERO PUSH2 0xB34 JUMPI DUP5 DUP10 ADD MLOAD PUSH2 0xB30 PUSH1 0x1F DUP10 AND DUP3 PUSH2 0xA3D JUMP JUMPDEST DUP4 SSTORE POP JUMPDEST PUSH1 0x1 PUSH1 0x2 DUP9 MUL ADD DUP9 SSTORE POP POP POP JUMPDEST POP POP POP POP POP POP JUMP JUMPDEST PUSH2 0xB52 DUP2 PUSH2 0x6B9 JUMP JUMPDEST DUP3 MSTORE POP POP JUMP JUMPDEST PUSH1 0x0 PUSH1 0x40 DUP3 ADD SWAP1 POP DUP2 DUP2 SUB PUSH1 0x0 DUP4 ADD MSTORE PUSH2 0xB72 DUP2 DUP6 PUSH2 0x649 JUMP JUMPDEST SWAP1 POP PUSH2 0xB81 PUSH1 0x20 DUP4 ADD DUP5 PUSH2 0xB49 JUMP JUMPDEST SWAP4 SWAP3 POP POP POP JUMP INVALID LOG2 PUSH5 0x6970667358 0x22 SLT KECCAK256 SUB COINBASE ADDRESS LOG0 DUP13 0x2F 0xBC 0xF8 DUP1 MUL DUP12 DIV SWAP16 SWAP7 0xD5 0xAB SHL 0xB2 0xEE PUSH4 0x2E8A119A PUSH18 0xE56A77A933DC864736F6C63430008120033 LOG2 PUSH5 0x6970667358 0x22 SLT KECCAK256 SWAP14 PUSH29 0x742E58B052C762AE1A4B7D55628CC8FA01DCDB185D82EF66FF14C8D9E4 GASPRICE PUSH5 0x736F6C6343 STOP ADDMOD SLT STOP CALLER "
				},
				"gasEstimates": {
					"creation": {
						"codeDepositCost": "1224800",
						"executionCost": "25541",
						"totalCost": "1250341"
					},
					"external": {
						"centroSaludContrato(address)": "infinite",
						"centrosSalud(address)": "infinite",
						"direccionesContratosSalud(uint256)": "4979",
						"factoryCentroSalud()": "infinite",
						"oms()": "2512",
						"solicitarAcceso()": "49961",
						"validacionCentrosSalud(address)": "2890",
						"visualizarSolicitudes()": "infinite"
					}
				},
				"methodIdentifiers": {
					"centroSaludContrato(address)": "a71f6143",
					"centrosSalud(address)": "dea4e40e",
					"direccionesContratosSalud(uint256)": "24a823c8",
					"factoryCentroSalud()": "f82c3fee",
					"oms()": "1a6f9f1a",
					"solicitarAcceso()": "a1387a98",
					"validacionCentrosSalud(address)": "58775f8b",
					"visualizarSolicitudes()": "9f66212b"
				}
			},
			"storageLayout": {
				"storage": [
					{
						"astId": 4,
						"contract": "OMS/oms.sol:OMS",
						"label": "oms",
						"offset": 0,
						"slot": "0",
						"type": "t_address"
					},
					{
						"astId": 17,
						"contract": "OMS/oms.sol:OMS",
						"label": "validacionCentrosSalud",
						"offset": 0,
						"slot": "1",
						"type": "t_mapping(t_address,t_bool)"
					},
					{
						"astId": 21,
						"contract": "OMS/oms.sol:OMS",
						"label": "centroSaludContrato",
						"offset": 0,
						"slot": "2",
						"type": "t_mapping(t_address,t_address)"
					},
					{
						"astId": 24,
						"contract": "OMS/oms.sol:OMS",
						"label": "direccionesContratosSalud",
						"offset": 0,
						"slot": "3",
						"type": "t_array(t_address)dyn_storage"
					},
					{
						"astId": 27,
						"contract": "OMS/oms.sol:OMS",
						"label": "solicitudes",
						"offset": 0,
						"slot": "4",
						"type": "t_array(t_address)dyn_storage"
					}
				],
				"types": {
					"t_address": {
						"encoding": "inplace",
						"label": "address",
						"numberOfBytes": "20"
					},
					"t_array(t_address)dyn_storage": {
						"base": "t_address",
						"encoding": "dynamic_array",
						"label": "address[]",
						"numberOfBytes": "32"
					},
					"t_bool": {
						"encoding": "inplace",
						"label": "bool",
						"numberOfBytes": "1"
					},
					"t_mapping(t_address,t_address)": {
						"encoding": "mapping",
						"key": "t_address",
						"label": "mapping(address => address)",
						"numberOfBytes": "32",
						"value": "t_address"
					},
					"t_mapping(t_address,t_bool)": {
						"encoding": "mapping",
						"key": "t_address",
						"label": "mapping(address => bool)",
						"numberOfBytes": "32",
						"value": "t_bool"
					}
				}
			},
			"userdoc": {
				"kind": "user",
				"methods": {},
				"version": 1
			}
		}
	}
}