{
	"NOTAS/notas.sol": {
		"Notas": {
			"abi": [
				{
					"inputs": [],
					"stateMutability": "nonpayable",
					"type": "constructor"
				},
				{
					"anonymous": false,
					"inputs": [
						{
							"indexed": false,
							"internalType": "bytes32",
							"name": "",
							"type": "bytes32"
						}
					],
					"name": "alumnoEvaluado",
					"type": "event"
				},
				{
					"anonymous": false,
					"inputs": [
						{
							"indexed": false,
							"internalType": "string",
							"name": "",
							"type": "string"
						}
					],
					"name": "eventoRevision",
					"type": "event"
				},
				{
					"inputs": [
						{
							"internalType": "string",
							"name": "_idAlumno",
							"type": "string"
						},
						{
							"internalType": "uint256",
							"name": "_nota",
							"type": "uint256"
						}
					],
					"name": "evaluar",
					"outputs": [],
					"stateMutability": "nonpayable",
					"type": "function"
				},
				{
					"inputs": [],
					"name": "profesor",
					"outputs": [
						{
							"internalType": "address",
							"name": "",
							"type": "address"
						}
					],
					"stateMutability": "view",
					"type": "function"
				},
				{
					"inputs": [
						{
							"internalType": "string",
							"name": "_idAlumno",
							"type": "string"
						}
					],
					"name": "solicitarNota",
					"outputs": [
						{
							"internalType": "uint256",
							"name": "",
							"type": "uint256"
						}
					],
					"stateMutability": "view",
					"type": "function"
				},
				{
					"inputs": [
						{
							"internalType": "string",
							"name": "_idAlumno",
							"type": "string"
						}
					],
					"name": "solocitarRevision",
					"outputs": [],
					"stateMutability": "nonpayable",
					"type": "function"
				},
				{
					"inputs": [],
					"name": "verRevisiones",
					"outputs": [
						{
							"internalType": "string[]",
							"name": "",
							"type": "string[]"
						}
					],
					"stateMutability": "view",
					"type": "function"
				}
			],
			"devdoc": {
				"kind": "dev",
				"methods": {},
				"version": 1
			},
			"evm": {
				"assembly": "    /* \"NOTAS/notas.sol\":370:2428  contract Notas {... */\n  mstore(0x40, 0x80)\n    /* \"NOTAS/notas.sol\":478:533  constructor () {... */\n  callvalue\n  dup1\n  iszero\n  tag_1\n  jumpi\n  0x00\n  dup1\n  revert\ntag_1:\n  pop\n    /* \"NOTAS/notas.sol\":515:525  msg.sender */\n  caller\n    /* \"NOTAS/notas.sol\":504:512  profesor */\n  0x00\n  dup1\n    /* \"NOTAS/notas.sol\":504:525  profesor = msg.sender */\n  0x0100\n  exp\n  dup2\n  sload\n  dup2\n  0xffffffffffffffffffffffffffffffffffffffff\n  mul\n  not\n  and\n  swap1\n  dup4\n  0xffffffffffffffffffffffffffffffffffffffff\n  and\n  mul\n  or\n  swap1\n  sstore\n  pop\n    /* \"NOTAS/notas.sol\":370:2428  contract Notas {... */\n  dataSize(sub_0)\n  dup1\n  dataOffset(sub_0)\n  0x00\n  codecopy\n  0x00\n  return\nstop\n\nsub_0: assembly {\n        /* \"NOTAS/notas.sol\":370:2428  contract Notas {... */\n      mstore(0x40, 0x80)\n      callvalue\n      dup1\n      iszero\n      tag_1\n      jumpi\n      0x00\n      dup1\n      revert\n    tag_1:\n      pop\n      jumpi(tag_2, lt(calldatasize, 0x04))\n      shr(0xe0, calldataload(0x00))\n      dup1\n      0x383bebae\n      eq\n      tag_3\n      jumpi\n      dup1\n      0x398dfa79\n      eq\n      tag_4\n      jumpi\n      dup1\n      0x48debcee\n      eq\n      tag_5\n      jumpi\n      dup1\n      0x5ef74afe\n      eq\n      tag_6\n      jumpi\n      dup1\n      0xdf096576\n      eq\n      tag_7\n      jumpi\n    tag_2:\n      0x00\n      dup1\n      revert\n        /* \"NOTAS/notas.sol\":1119:1526  function evaluar(string memory _idAlumno, uint _nota) public unicamenteProfesor(msg.sender) {... */\n    tag_3:\n      tag_8\n      0x04\n      dup1\n      calldatasize\n      sub\n      dup2\n      add\n      swap1\n      tag_9\n      swap2\n      swap1\n      tag_10\n      jump\t// in\n    tag_9:\n      tag_11\n      jump\t// in\n    tag_8:\n      stop\n        /* \"NOTAS/notas.sol\":2215:2425  function verRevisiones() public view unicamenteProfesor(msg.sender) returns(string[] memory) {... */\n    tag_4:\n      tag_12\n      tag_13\n      jump\t// in\n    tag_12:\n      mload(0x40)\n      tag_14\n      swap2\n      swap1\n      tag_15\n      jump\t// in\n    tag_14:\n      mload(0x40)\n      dup1\n      swap2\n      sub\n      swap1\n      return\n        /* \"NOTAS/notas.sol\":1559:1920  function solicitarNota(string memory _idAlumno) public view returns(uint) {... */\n    tag_5:\n      tag_16\n      0x04\n      dup1\n      calldatasize\n      sub\n      dup2\n      add\n      swap1\n      tag_17\n      swap2\n      swap1\n      tag_18\n      jump\t// in\n    tag_17:\n      tag_19\n      jump\t// in\n    tag_16:\n      mload(0x40)\n      tag_20\n      swap2\n      swap1\n      tag_21\n      jump\t// in\n    tag_20:\n      mload(0x40)\n      dup1\n      swap2\n      sub\n      swap1\n      return\n        /* \"NOTAS/notas.sol\":1963:2174  function solocitarRevision(string memory _idAlumno) public {... */\n    tag_6:\n      tag_22\n      0x04\n      dup1\n      calldatasize\n      sub\n      dup2\n      add\n      swap1\n      tag_23\n      swap2\n      swap1\n      tag_18\n      jump\t// in\n    tag_23:\n      tag_24\n      jump\t// in\n    tag_22:\n      stop\n        /* \"NOTAS/notas.sol\":426:449  address public profesor */\n    tag_7:\n      tag_25\n      tag_26\n      jump\t// in\n    tag_25:\n      mload(0x40)\n      tag_27\n      swap2\n      swap1\n      tag_28\n      jump\t// in\n    tag_27:\n      mload(0x40)\n      dup1\n      swap2\n      sub\n      swap1\n      return\n        /* \"NOTAS/notas.sol\":1119:1526  function evaluar(string memory _idAlumno, uint _nota) public unicamenteProfesor(msg.sender) {... */\n    tag_11:\n        /* \"NOTAS/notas.sol\":1199:1209  msg.sender */\n      caller\n        /* \"NOTAS/notas.sol\":992:1000  profesor */\n      0x00\n      dup1\n      sload\n      swap1\n      0x0100\n      exp\n      swap1\n      div\n      0xffffffffffffffffffffffffffffffffffffffff\n      and\n        /* \"NOTAS/notas.sol\":978:1000  _direccion == profesor */\n      0xffffffffffffffffffffffffffffffffffffffff\n      and\n        /* \"NOTAS/notas.sol\":978:988  _direccion */\n      dup2\n        /* \"NOTAS/notas.sol\":978:1000  _direccion == profesor */\n      0xffffffffffffffffffffffffffffffffffffffff\n      and\n      eq\n        /* \"NOTAS/notas.sol\":970:1051  require(_direccion == profesor, \"No tienes permisos para ejecutar esta funcion.\") */\n      tag_30\n      jumpi\n      mload(0x40)\n      0x08c379a000000000000000000000000000000000000000000000000000000000\n      dup2\n      mstore\n      0x04\n      add\n      tag_31\n      swap1\n      tag_32\n      jump\t// in\n    tag_31:\n      mload(0x40)\n      dup1\n      swap2\n      sub\n      swap1\n      revert\n    tag_30:\n        /* \"NOTAS/notas.sol\":1274:1294  bytes32 hashIdAlumno */\n      0x00\n        /* \"NOTAS/notas.sol\":1324:1333  _idAlumno */\n      dup4\n        /* \"NOTAS/notas.sol\":1307:1334  abi.encodePacked(_idAlumno) */\n      add(0x20, mload(0x40))\n      tag_34\n      swap2\n      swap1\n      tag_35\n      jump\t// in\n    tag_34:\n      mload(0x40)\n      0x20\n      dup2\n      dup4\n      sub\n      sub\n      dup2\n      mstore\n      swap1\n      0x40\n      mstore\n        /* \"NOTAS/notas.sol\":1297:1335  keccak256(abi.encodePacked(_idAlumno)) */\n      dup1\n      mload\n      swap1\n      0x20\n      add\n      keccak256\n        /* \"NOTAS/notas.sol\":1274:1335  bytes32 hashIdAlumno = keccak256(abi.encodePacked(_idAlumno)) */\n      swap1\n      pop\n        /* \"NOTAS/notas.sol\":1437:1442  _nota */\n      dup3\n        /* \"NOTAS/notas.sol\":1415:1420  notas */\n      0x01\n        /* \"NOTAS/notas.sol\":1415:1434  notas[hashIdAlumno] */\n      0x00\n        /* \"NOTAS/notas.sol\":1421:1433  hashIdAlumno */\n      dup4\n        /* \"NOTAS/notas.sol\":1415:1434  notas[hashIdAlumno] */\n      dup2\n      mstore\n      0x20\n      add\n      swap1\n      dup2\n      mstore\n      0x20\n      add\n      0x00\n      keccak256\n        /* \"NOTAS/notas.sol\":1415:1442  notas[hashIdAlumno] = _nota */\n      dup2\n      swap1\n      sstore\n      pop\n        /* \"NOTAS/notas.sol\":1490:1518  alumnoEvaluado(hashIdAlumno) */\n      0x0a3c6f62477defa9fa18ec25f11bc12442e443ba8e3d8f822e381b98c0f39b08\n        /* \"NOTAS/notas.sol\":1505:1517  hashIdAlumno */\n      dup2\n        /* \"NOTAS/notas.sol\":1490:1518  alumnoEvaluado(hashIdAlumno) */\n      mload(0x40)\n      tag_36\n      swap2\n      swap1\n      tag_37\n      jump\t// in\n    tag_36:\n      mload(0x40)\n      dup1\n      swap2\n      sub\n      swap1\n      log1\n        /* \"NOTAS/notas.sol\":1211:1526  {... */\n      pop\n        /* \"NOTAS/notas.sol\":1119:1526  function evaluar(string memory _idAlumno, uint _nota) public unicamenteProfesor(msg.sender) {... */\n      pop\n      pop\n      pop\n      jump\t// out\n        /* \"NOTAS/notas.sol\":2215:2425  function verRevisiones() public view unicamenteProfesor(msg.sender) returns(string[] memory) {... */\n    tag_13:\n        /* \"NOTAS/notas.sol\":2291:2306  string[] memory */\n      0x60\n        /* \"NOTAS/notas.sol\":2271:2281  msg.sender */\n      caller\n        /* \"NOTAS/notas.sol\":992:1000  profesor */\n      0x00\n      dup1\n      sload\n      swap1\n      0x0100\n      exp\n      swap1\n      div\n      0xffffffffffffffffffffffffffffffffffffffff\n      and\n        /* \"NOTAS/notas.sol\":978:1000  _direccion == profesor */\n      0xffffffffffffffffffffffffffffffffffffffff\n      and\n        /* \"NOTAS/notas.sol\":978:988  _direccion */\n      dup2\n        /* \"NOTAS/notas.sol\":978:1000  _direccion == profesor */\n      0xffffffffffffffffffffffffffffffffffffffff\n      and\n      eq\n        /* \"NOTAS/notas.sol\":970:1051  require(_direccion == profesor, \"No tienes permisos para ejecutar esta funcion.\") */\n      tag_39\n      jumpi\n      mload(0x40)\n      0x08c379a000000000000000000000000000000000000000000000000000000000\n      dup2\n      mstore\n      0x04\n      add\n      tag_40\n      swap1\n      tag_32\n      jump\t// in\n    tag_40:\n      mload(0x40)\n      dup1\n      swap2\n      sub\n      swap1\n      revert\n    tag_39:\n        /* \"NOTAS/notas.sol\":2407:2417  revisiones */\n      0x02\n        /* \"NOTAS/notas.sol\":2400:2417  return revisiones */\n      dup1\n      sload\n      dup1\n      0x20\n      mul\n      0x20\n      add\n      mload(0x40)\n      swap1\n      dup2\n      add\n      0x40\n      mstore\n      dup1\n      swap3\n      swap2\n      swap1\n      dup2\n      dup2\n      mstore\n      0x20\n      add\n      0x00\n      swap1\n    tag_42:\n      dup3\n      dup3\n      lt\n      iszero\n      tag_43\n      jumpi\n      dup4\n      dup3\n      swap1\n      0x00\n      mstore\n      keccak256(0x00, 0x20)\n      add\n      dup1\n      sload\n      tag_45\n      swap1\n      tag_46\n      jump\t// in\n    tag_45:\n      dup1\n      0x1f\n      add\n      0x20\n      dup1\n      swap2\n      div\n      mul\n      0x20\n      add\n      mload(0x40)\n      swap1\n      dup2\n      add\n      0x40\n      mstore\n      dup1\n      swap3\n      swap2\n      swap1\n      dup2\n      dup2\n      mstore\n      0x20\n      add\n      dup3\n      dup1\n      sload\n      tag_47\n      swap1\n      tag_46\n      jump\t// in\n    tag_47:\n      dup1\n      iszero\n      tag_48\n      jumpi\n      dup1\n      0x1f\n      lt\n      tag_49\n      jumpi\n      0x0100\n      dup1\n      dup4\n      sload\n      div\n      mul\n      dup4\n      mstore\n      swap2\n      0x20\n      add\n      swap2\n      jump(tag_48)\n    tag_49:\n      dup3\n      add\n      swap2\n      swap1\n      0x00\n      mstore\n      keccak256(0x00, 0x20)\n      swap1\n    tag_50:\n      dup2\n      sload\n      dup2\n      mstore\n      swap1\n      0x01\n      add\n      swap1\n      0x20\n      add\n      dup1\n      dup4\n      gt\n      tag_50\n      jumpi\n      dup3\n      swap1\n      sub\n      0x1f\n      and\n      dup3\n      add\n      swap2\n    tag_48:\n      pop\n      pop\n      pop\n      pop\n      pop\n      dup2\n      mstore\n      0x20\n      add\n      swap1\n      0x01\n      add\n      swap1\n      jump(tag_42)\n    tag_43:\n      pop\n      pop\n      pop\n      pop\n      swap2\n      pop\n        /* \"NOTAS/notas.sol\":2215:2425  function verRevisiones() public view unicamenteProfesor(msg.sender) returns(string[] memory) {... */\n      pop\n      swap1\n      jump\t// out\n        /* \"NOTAS/notas.sol\":1559:1920  function solicitarNota(string memory _idAlumno) public view returns(uint) {... */\n    tag_19:\n        /* \"NOTAS/notas.sol\":1627:1631  uint */\n      0x00\n        /* \"NOTAS/notas.sol\":1696:1716  bytes32 hashIdAlumno */\n      dup1\n        /* \"NOTAS/notas.sol\":1746:1755  _idAlumno */\n      dup3\n        /* \"NOTAS/notas.sol\":1729:1756  abi.encodePacked(_idAlumno) */\n      add(0x20, mload(0x40))\n      tag_52\n      swap2\n      swap1\n      tag_35\n      jump\t// in\n    tag_52:\n      mload(0x40)\n      0x20\n      dup2\n      dup4\n      sub\n      sub\n      dup2\n      mstore\n      swap1\n      0x40\n      mstore\n        /* \"NOTAS/notas.sol\":1719:1757  keccak256(abi.encodePacked(_idAlumno)) */\n      dup1\n      mload\n      swap1\n      0x20\n      add\n      keccak256\n        /* \"NOTAS/notas.sol\":1696:1757  bytes32 hashIdAlumno = keccak256(abi.encodePacked(_idAlumno)) */\n      swap1\n      pop\n        /* \"NOTAS/notas.sol\":1820:1835  uint notaAlumno */\n      0x00\n        /* \"NOTAS/notas.sol\":1838:1843  notas */\n      0x01\n        /* \"NOTAS/notas.sol\":1838:1857  notas[hashIdAlumno] */\n      0x00\n        /* \"NOTAS/notas.sol\":1844:1856  hashIdAlumno */\n      dup4\n        /* \"NOTAS/notas.sol\":1838:1857  notas[hashIdAlumno] */\n      dup2\n      mstore\n      0x20\n      add\n      swap1\n      dup2\n      mstore\n      0x20\n      add\n      0x00\n      keccak256\n      sload\n        /* \"NOTAS/notas.sol\":1820:1857  uint notaAlumno = notas[hashIdAlumno] */\n      swap1\n      pop\n        /* \"NOTAS/notas.sol\":1901:1911  notaAlumno */\n      dup1\n        /* \"NOTAS/notas.sol\":1894:1912  return(notaAlumno) */\n      swap3\n      pop\n      pop\n      pop\n        /* \"NOTAS/notas.sol\":1559:1920  function solicitarNota(string memory _idAlumno) public view returns(uint) {... */\n      swap2\n      swap1\n      pop\n      jump\t// out\n        /* \"NOTAS/notas.sol\":1963:2174  function solocitarRevision(string memory _idAlumno) public {... */\n    tag_24:\n        /* \"NOTAS/notas.sol\":2099:2109  revisiones */\n      0x02\n        /* \"NOTAS/notas.sol\":2115:2124  _idAlumno */\n      dup2\n        /* \"NOTAS/notas.sol\":2099:2125  revisiones.push(_idAlumno) */\n      swap1\n      dup1\n      0x01\n      dup2\n      sload\n      add\n      dup1\n      dup3\n      sstore\n      dup1\n      swap2\n      pop\n      pop\n      0x01\n      swap1\n      sub\n      swap1\n      0x00\n      mstore\n      keccak256(0x00, 0x20)\n      add\n      0x00\n      swap1\n      swap2\n      swap1\n      swap2\n      swap1\n      swap2\n      pop\n      swap1\n      dup2\n      tag_55\n      swap2\n      swap1\n      tag_56\n      jump\t// in\n    tag_55:\n      pop\n        /* \"NOTAS/notas.sol\":2141:2166  eventoRevision(_idAlumno) */\n      0x2106682f28b0ca24370a9e991461ab39ab8032fb3df73fb628728436cf5bcdf6\n        /* \"NOTAS/notas.sol\":2156:2165  _idAlumno */\n      dup2\n        /* \"NOTAS/notas.sol\":2141:2166  eventoRevision(_idAlumno) */\n      mload(0x40)\n      tag_57\n      swap2\n      swap1\n      tag_58\n      jump\t// in\n    tag_57:\n      mload(0x40)\n      dup1\n      swap2\n      sub\n      swap1\n      log1\n        /* \"NOTAS/notas.sol\":1963:2174  function solocitarRevision(string memory _idAlumno) public {... */\n      pop\n      jump\t// out\n        /* \"NOTAS/notas.sol\":426:449  address public profesor */\n    tag_26:\n      0x00\n      dup1\n      sload\n      swap1\n      0x0100\n      exp\n      swap1\n      div\n      0xffffffffffffffffffffffffffffffffffffffff\n      and\n      dup2\n      jump\t// out\n        /* \"#utility.yul\":7:82   */\n    tag_59:\n        /* \"#utility.yul\":40:46   */\n      0x00\n        /* \"#utility.yul\":73:75   */\n      0x40\n        /* \"#utility.yul\":67:76   */\n      mload\n        /* \"#utility.yul\":57:76   */\n      swap1\n      pop\n        /* \"#utility.yul\":7:82   */\n      swap1\n      jump\t// out\n        /* \"#utility.yul\":88:205   */\n    tag_60:\n        /* \"#utility.yul\":197:198   */\n      0x00\n        /* \"#utility.yul\":194:195   */\n      dup1\n        /* \"#utility.yul\":187:199   */\n      revert\n        /* \"#utility.yul\":211:328   */\n    tag_61:\n        /* \"#utility.yul\":320:321   */\n      0x00\n        /* \"#utility.yul\":317:318   */\n      dup1\n        /* \"#utility.yul\":310:322   */\n      revert\n        /* \"#utility.yul\":334:451   */\n    tag_62:\n        /* \"#utility.yul\":443:444   */\n      0x00\n        /* \"#utility.yul\":440:441   */\n      dup1\n        /* \"#utility.yul\":433:445   */\n      revert\n        /* \"#utility.yul\":457:574   */\n    tag_63:\n        /* \"#utility.yul\":566:567   */\n      0x00\n        /* \"#utility.yul\":563:564   */\n      dup1\n        /* \"#utility.yul\":556:568   */\n      revert\n        /* \"#utility.yul\":580:682   */\n    tag_64:\n        /* \"#utility.yul\":621:627   */\n      0x00\n        /* \"#utility.yul\":672:674   */\n      0x1f\n        /* \"#utility.yul\":668:675   */\n      not\n        /* \"#utility.yul\":663:665   */\n      0x1f\n        /* \"#utility.yul\":656:661   */\n      dup4\n        /* \"#utility.yul\":652:666   */\n      add\n        /* \"#utility.yul\":648:676   */\n      and\n        /* \"#utility.yul\":638:676   */\n      swap1\n      pop\n        /* \"#utility.yul\":580:682   */\n      swap2\n      swap1\n      pop\n      jump\t// out\n        /* \"#utility.yul\":688:868   */\n    tag_65:\n        /* \"#utility.yul\":736:813   */\n      0x4e487b7100000000000000000000000000000000000000000000000000000000\n        /* \"#utility.yul\":733:734   */\n      0x00\n        /* \"#utility.yul\":726:814   */\n      mstore\n        /* \"#utility.yul\":833:837   */\n      0x41\n        /* \"#utility.yul\":830:831   */\n      0x04\n        /* \"#utility.yul\":823:838   */\n      mstore\n        /* \"#utility.yul\":857:861   */\n      0x24\n        /* \"#utility.yul\":854:855   */\n      0x00\n        /* \"#utility.yul\":847:862   */\n      revert\n        /* \"#utility.yul\":874:1155   */\n    tag_66:\n        /* \"#utility.yul\":957:984   */\n      tag_122\n        /* \"#utility.yul\":979:983   */\n      dup3\n        /* \"#utility.yul\":957:984   */\n      tag_64\n      jump\t// in\n    tag_122:\n        /* \"#utility.yul\":949:955   */\n      dup2\n        /* \"#utility.yul\":945:985   */\n      add\n        /* \"#utility.yul\":1087:1093   */\n      dup2\n        /* \"#utility.yul\":1075:1085   */\n      dup2\n        /* \"#utility.yul\":1072:1094   */\n      lt\n        /* \"#utility.yul\":1051:1069   */\n      0xffffffffffffffff\n        /* \"#utility.yul\":1039:1049   */\n      dup3\n        /* \"#utility.yul\":1036:1070   */\n      gt\n        /* \"#utility.yul\":1033:1095   */\n      or\n        /* \"#utility.yul\":1030:1118   */\n      iszero\n      tag_123\n      jumpi\n        /* \"#utility.yul\":1098:1116   */\n      tag_124\n      tag_65\n      jump\t// in\n    tag_124:\n        /* \"#utility.yul\":1030:1118   */\n    tag_123:\n        /* \"#utility.yul\":1138:1148   */\n      dup1\n        /* \"#utility.yul\":1134:1136   */\n      0x40\n        /* \"#utility.yul\":1127:1149   */\n      mstore\n        /* \"#utility.yul\":917:1155   */\n      pop\n        /* \"#utility.yul\":874:1155   */\n      pop\n      pop\n      jump\t// out\n        /* \"#utility.yul\":1161:1290   */\n    tag_67:\n        /* \"#utility.yul\":1195:1201   */\n      0x00\n        /* \"#utility.yul\":1222:1242   */\n      tag_126\n      tag_59\n      jump\t// in\n    tag_126:\n        /* \"#utility.yul\":1212:1242   */\n      swap1\n      pop\n        /* \"#utility.yul\":1251:1284   */\n      tag_127\n        /* \"#utility.yul\":1279:1283   */\n      dup3\n        /* \"#utility.yul\":1271:1277   */\n      dup3\n        /* \"#utility.yul\":1251:1284   */\n      tag_66\n      jump\t// in\n    tag_127:\n        /* \"#utility.yul\":1161:1290   */\n      swap2\n      swap1\n      pop\n      jump\t// out\n        /* \"#utility.yul\":1296:1604   */\n    tag_68:\n        /* \"#utility.yul\":1358:1362   */\n      0x00\n        /* \"#utility.yul\":1448:1466   */\n      0xffffffffffffffff\n        /* \"#utility.yul\":1440:1446   */\n      dup3\n        /* \"#utility.yul\":1437:1467   */\n      gt\n        /* \"#utility.yul\":1434:1490   */\n      iszero\n      tag_129\n      jumpi\n        /* \"#utility.yul\":1470:1488   */\n      tag_130\n      tag_65\n      jump\t// in\n    tag_130:\n        /* \"#utility.yul\":1434:1490   */\n    tag_129:\n        /* \"#utility.yul\":1508:1537   */\n      tag_131\n        /* \"#utility.yul\":1530:1536   */\n      dup3\n        /* \"#utility.yul\":1508:1537   */\n      tag_64\n      jump\t// in\n    tag_131:\n        /* \"#utility.yul\":1500:1537   */\n      swap1\n      pop\n        /* \"#utility.yul\":1592:1596   */\n      0x20\n        /* \"#utility.yul\":1586:1590   */\n      dup2\n        /* \"#utility.yul\":1582:1597   */\n      add\n        /* \"#utility.yul\":1574:1597   */\n      swap1\n      pop\n        /* \"#utility.yul\":1296:1604   */\n      swap2\n      swap1\n      pop\n      jump\t// out\n        /* \"#utility.yul\":1610:1756   */\n    tag_69:\n        /* \"#utility.yul\":1707:1713   */\n      dup3\n        /* \"#utility.yul\":1702:1705   */\n      dup2\n        /* \"#utility.yul\":1697:1700   */\n      dup4\n        /* \"#utility.yul\":1684:1714   */\n      calldatacopy\n        /* \"#utility.yul\":1748:1749   */\n      0x00\n        /* \"#utility.yul\":1739:1745   */\n      dup4\n        /* \"#utility.yul\":1734:1737   */\n      dup4\n        /* \"#utility.yul\":1730:1746   */\n      add\n        /* \"#utility.yul\":1723:1750   */\n      mstore\n        /* \"#utility.yul\":1610:1756   */\n      pop\n      pop\n      pop\n      jump\t// out\n        /* \"#utility.yul\":1762:2187   */\n    tag_70:\n        /* \"#utility.yul\":1840:1845   */\n      0x00\n        /* \"#utility.yul\":1865:1931   */\n      tag_134\n        /* \"#utility.yul\":1881:1930   */\n      tag_135\n        /* \"#utility.yul\":1923:1929   */\n      dup5\n        /* \"#utility.yul\":1881:1930   */\n      tag_68\n      jump\t// in\n    tag_135:\n        /* \"#utility.yul\":1865:1931   */\n      tag_67\n      jump\t// in\n    tag_134:\n        /* \"#utility.yul\":1856:1931   */\n      swap1\n      pop\n        /* \"#utility.yul\":1954:1960   */\n      dup3\n        /* \"#utility.yul\":1947:1952   */\n      dup2\n        /* \"#utility.yul\":1940:1961   */\n      mstore\n        /* \"#utility.yul\":1992:1996   */\n      0x20\n        /* \"#utility.yul\":1985:1990   */\n      dup2\n        /* \"#utility.yul\":1981:1997   */\n      add\n        /* \"#utility.yul\":2030:2033   */\n      dup5\n        /* \"#utility.yul\":2021:2027   */\n      dup5\n        /* \"#utility.yul\":2016:2019   */\n      dup5\n        /* \"#utility.yul\":2012:2028   */\n      add\n        /* \"#utility.yul\":2009:2034   */\n      gt\n        /* \"#utility.yul\":2006:2118   */\n      iszero\n      tag_136\n      jumpi\n        /* \"#utility.yul\":2037:2116   */\n      tag_137\n      tag_63\n      jump\t// in\n    tag_137:\n        /* \"#utility.yul\":2006:2118   */\n    tag_136:\n        /* \"#utility.yul\":2127:2181   */\n      tag_138\n        /* \"#utility.yul\":2174:2180   */\n      dup5\n        /* \"#utility.yul\":2169:2172   */\n      dup3\n        /* \"#utility.yul\":2164:2167   */\n      dup6\n        /* \"#utility.yul\":2127:2181   */\n      tag_69\n      jump\t// in\n    tag_138:\n        /* \"#utility.yul\":1846:2187   */\n      pop\n        /* \"#utility.yul\":1762:2187   */\n      swap4\n      swap3\n      pop\n      pop\n      pop\n      jump\t// out\n        /* \"#utility.yul\":2207:2547   */\n    tag_71:\n        /* \"#utility.yul\":2263:2268   */\n      0x00\n        /* \"#utility.yul\":2312:2315   */\n      dup3\n        /* \"#utility.yul\":2305:2309   */\n      0x1f\n        /* \"#utility.yul\":2297:2303   */\n      dup4\n        /* \"#utility.yul\":2293:2310   */\n      add\n        /* \"#utility.yul\":2289:2316   */\n      slt\n        /* \"#utility.yul\":2279:2401   */\n      tag_140\n      jumpi\n        /* \"#utility.yul\":2320:2399   */\n      tag_141\n      tag_62\n      jump\t// in\n    tag_141:\n        /* \"#utility.yul\":2279:2401   */\n    tag_140:\n        /* \"#utility.yul\":2437:2443   */\n      dup2\n        /* \"#utility.yul\":2424:2444   */\n      calldataload\n        /* \"#utility.yul\":2462:2541   */\n      tag_142\n        /* \"#utility.yul\":2537:2540   */\n      dup5\n        /* \"#utility.yul\":2529:2535   */\n      dup3\n        /* \"#utility.yul\":2522:2526   */\n      0x20\n        /* \"#utility.yul\":2514:2520   */\n      dup7\n        /* \"#utility.yul\":2510:2527   */\n      add\n        /* \"#utility.yul\":2462:2541   */\n      tag_70\n      jump\t// in\n    tag_142:\n        /* \"#utility.yul\":2453:2541   */\n      swap2\n      pop\n        /* \"#utility.yul\":2269:2547   */\n      pop\n        /* \"#utility.yul\":2207:2547   */\n      swap3\n      swap2\n      pop\n      pop\n      jump\t// out\n        /* \"#utility.yul\":2553:2630   */\n    tag_72:\n        /* \"#utility.yul\":2590:2597   */\n      0x00\n        /* \"#utility.yul\":2619:2624   */\n      dup2\n        /* \"#utility.yul\":2608:2624   */\n      swap1\n      pop\n        /* \"#utility.yul\":2553:2630   */\n      swap2\n      swap1\n      pop\n      jump\t// out\n        /* \"#utility.yul\":2636:2758   */\n    tag_73:\n        /* \"#utility.yul\":2709:2733   */\n      tag_145\n        /* \"#utility.yul\":2727:2732   */\n      dup2\n        /* \"#utility.yul\":2709:2733   */\n      tag_72\n      jump\t// in\n    tag_145:\n        /* \"#utility.yul\":2702:2707   */\n      dup2\n        /* \"#utility.yul\":2699:2734   */\n      eq\n        /* \"#utility.yul\":2689:2752   */\n      tag_146\n      jumpi\n        /* \"#utility.yul\":2748:2749   */\n      0x00\n        /* \"#utility.yul\":2745:2746   */\n      dup1\n        /* \"#utility.yul\":2738:2750   */\n      revert\n        /* \"#utility.yul\":2689:2752   */\n    tag_146:\n        /* \"#utility.yul\":2636:2758   */\n      pop\n      jump\t// out\n        /* \"#utility.yul\":2764:2903   */\n    tag_74:\n        /* \"#utility.yul\":2810:2815   */\n      0x00\n        /* \"#utility.yul\":2848:2854   */\n      dup2\n        /* \"#utility.yul\":2835:2855   */\n      calldataload\n        /* \"#utility.yul\":2826:2855   */\n      swap1\n      pop\n        /* \"#utility.yul\":2864:2897   */\n      tag_148\n        /* \"#utility.yul\":2891:2896   */\n      dup2\n        /* \"#utility.yul\":2864:2897   */\n      tag_73\n      jump\t// in\n    tag_148:\n        /* \"#utility.yul\":2764:2903   */\n      swap3\n      swap2\n      pop\n      pop\n      jump\t// out\n        /* \"#utility.yul\":2909:3563   */\n    tag_10:\n        /* \"#utility.yul\":2987:2993   */\n      0x00\n        /* \"#utility.yul\":2995:3001   */\n      dup1\n        /* \"#utility.yul\":3044:3046   */\n      0x40\n        /* \"#utility.yul\":3032:3041   */\n      dup4\n        /* \"#utility.yul\":3023:3030   */\n      dup6\n        /* \"#utility.yul\":3019:3042   */\n      sub\n        /* \"#utility.yul\":3015:3047   */\n      slt\n        /* \"#utility.yul\":3012:3131   */\n      iszero\n      tag_150\n      jumpi\n        /* \"#utility.yul\":3050:3129   */\n      tag_151\n      tag_60\n      jump\t// in\n    tag_151:\n        /* \"#utility.yul\":3012:3131   */\n    tag_150:\n        /* \"#utility.yul\":3198:3199   */\n      0x00\n        /* \"#utility.yul\":3187:3196   */\n      dup4\n        /* \"#utility.yul\":3183:3200   */\n      add\n        /* \"#utility.yul\":3170:3201   */\n      calldataload\n        /* \"#utility.yul\":3228:3246   */\n      0xffffffffffffffff\n        /* \"#utility.yul\":3220:3226   */\n      dup2\n        /* \"#utility.yul\":3217:3247   */\n      gt\n        /* \"#utility.yul\":3214:3331   */\n      iszero\n      tag_152\n      jumpi\n        /* \"#utility.yul\":3250:3329   */\n      tag_153\n      tag_61\n      jump\t// in\n    tag_153:\n        /* \"#utility.yul\":3214:3331   */\n    tag_152:\n        /* \"#utility.yul\":3355:3418   */\n      tag_154\n        /* \"#utility.yul\":3410:3417   */\n      dup6\n        /* \"#utility.yul\":3401:3407   */\n      dup3\n        /* \"#utility.yul\":3390:3399   */\n      dup7\n        /* \"#utility.yul\":3386:3408   */\n      add\n        /* \"#utility.yul\":3355:3418   */\n      tag_71\n      jump\t// in\n    tag_154:\n        /* \"#utility.yul\":3345:3418   */\n      swap3\n      pop\n        /* \"#utility.yul\":3141:3428   */\n      pop\n        /* \"#utility.yul\":3467:3469   */\n      0x20\n        /* \"#utility.yul\":3493:3546   */\n      tag_155\n        /* \"#utility.yul\":3538:3545   */\n      dup6\n        /* \"#utility.yul\":3529:3535   */\n      dup3\n        /* \"#utility.yul\":3518:3527   */\n      dup7\n        /* \"#utility.yul\":3514:3536   */\n      add\n        /* \"#utility.yul\":3493:3546   */\n      tag_74\n      jump\t// in\n    tag_155:\n        /* \"#utility.yul\":3483:3546   */\n      swap2\n      pop\n        /* \"#utility.yul\":3438:3556   */\n      pop\n        /* \"#utility.yul\":2909:3563   */\n      swap3\n      pop\n      swap3\n      swap1\n      pop\n      jump\t// out\n        /* \"#utility.yul\":3569:3693   */\n    tag_75:\n        /* \"#utility.yul\":3646:3652   */\n      0x00\n        /* \"#utility.yul\":3680:3685   */\n      dup2\n        /* \"#utility.yul\":3674:3686   */\n      mload\n        /* \"#utility.yul\":3664:3686   */\n      swap1\n      pop\n        /* \"#utility.yul\":3569:3693   */\n      swap2\n      swap1\n      pop\n      jump\t// out\n        /* \"#utility.yul\":3699:3893   */\n    tag_76:\n        /* \"#utility.yul\":3808:3819   */\n      0x00\n        /* \"#utility.yul\":3842:3848   */\n      dup3\n        /* \"#utility.yul\":3837:3840   */\n      dup3\n        /* \"#utility.yul\":3830:3849   */\n      mstore\n        /* \"#utility.yul\":3882:3886   */\n      0x20\n        /* \"#utility.yul\":3877:3880   */\n      dup3\n        /* \"#utility.yul\":3873:3887   */\n      add\n        /* \"#utility.yul\":3858:3887   */\n      swap1\n      pop\n        /* \"#utility.yul\":3699:3893   */\n      swap3\n      swap2\n      pop\n      pop\n      jump\t// out\n        /* \"#utility.yul\":3899:4041   */\n    tag_77:\n        /* \"#utility.yul\":3976:3980   */\n      0x00\n        /* \"#utility.yul\":3999:4002   */\n      dup2\n        /* \"#utility.yul\":3991:4002   */\n      swap1\n      pop\n        /* \"#utility.yul\":4029:4033   */\n      0x20\n        /* \"#utility.yul\":4024:4027   */\n      dup3\n        /* \"#utility.yul\":4020:4034   */\n      add\n        /* \"#utility.yul\":4012:4034   */\n      swap1\n      pop\n        /* \"#utility.yul\":3899:4041   */\n      swap2\n      swap1\n      pop\n      jump\t// out\n        /* \"#utility.yul\":4047:4146   */\n    tag_78:\n        /* \"#utility.yul\":4099:4105   */\n      0x00\n        /* \"#utility.yul\":4133:4138   */\n      dup2\n        /* \"#utility.yul\":4127:4139   */\n      mload\n        /* \"#utility.yul\":4117:4139   */\n      swap1\n      pop\n        /* \"#utility.yul\":4047:4146   */\n      swap2\n      swap1\n      pop\n      jump\t// out\n        /* \"#utility.yul\":4152:4311   */\n    tag_79:\n        /* \"#utility.yul\":4226:4237   */\n      0x00\n        /* \"#utility.yul\":4260:4266   */\n      dup3\n        /* \"#utility.yul\":4255:4258   */\n      dup3\n        /* \"#utility.yul\":4248:4267   */\n      mstore\n        /* \"#utility.yul\":4300:4304   */\n      0x20\n        /* \"#utility.yul\":4295:4298   */\n      dup3\n        /* \"#utility.yul\":4291:4305   */\n      add\n        /* \"#utility.yul\":4276:4305   */\n      swap1\n      pop\n        /* \"#utility.yul\":4152:4311   */\n      swap3\n      swap2\n      pop\n      pop\n      jump\t// out\n        /* \"#utility.yul\":4317:4563   */\n    tag_80:\n        /* \"#utility.yul\":4398:4399   */\n      0x00\n        /* \"#utility.yul\":4408:4521   */\n    tag_162:\n        /* \"#utility.yul\":4422:4428   */\n      dup4\n        /* \"#utility.yul\":4419:4420   */\n      dup2\n        /* \"#utility.yul\":4416:4429   */\n      lt\n        /* \"#utility.yul\":4408:4521   */\n      iszero\n      tag_164\n      jumpi\n        /* \"#utility.yul\":4507:4508   */\n      dup1\n        /* \"#utility.yul\":4502:4505   */\n      dup3\n        /* \"#utility.yul\":4498:4509   */\n      add\n        /* \"#utility.yul\":4492:4510   */\n      mload\n        /* \"#utility.yul\":4488:4489   */\n      dup2\n        /* \"#utility.yul\":4483:4486   */\n      dup5\n        /* \"#utility.yul\":4479:4490   */\n      add\n        /* \"#utility.yul\":4472:4511   */\n      mstore\n        /* \"#utility.yul\":4444:4446   */\n      0x20\n        /* \"#utility.yul\":4441:4442   */\n      dup2\n        /* \"#utility.yul\":4437:4447   */\n      add\n        /* \"#utility.yul\":4432:4447   */\n      swap1\n      pop\n        /* \"#utility.yul\":4408:4521   */\n      jump(tag_162)\n    tag_164:\n        /* \"#utility.yul\":4555:4556   */\n      0x00\n        /* \"#utility.yul\":4546:4552   */\n      dup5\n        /* \"#utility.yul\":4541:4544   */\n      dup5\n        /* \"#utility.yul\":4537:4553   */\n      add\n        /* \"#utility.yul\":4530:4557   */\n      mstore\n        /* \"#utility.yul\":4379:4563   */\n      pop\n        /* \"#utility.yul\":4317:4563   */\n      pop\n      pop\n      pop\n      jump\t// out\n        /* \"#utility.yul\":4569:4926   */\n    tag_81:\n        /* \"#utility.yul\":4647:4650   */\n      0x00\n        /* \"#utility.yul\":4675:4714   */\n      tag_166\n        /* \"#utility.yul\":4708:4713   */\n      dup3\n        /* \"#utility.yul\":4675:4714   */\n      tag_78\n      jump\t// in\n    tag_166:\n        /* \"#utility.yul\":4730:4791   */\n      tag_167\n        /* \"#utility.yul\":4784:4790   */\n      dup2\n        /* \"#utility.yul\":4779:4782   */\n      dup6\n        /* \"#utility.yul\":4730:4791   */\n      tag_79\n      jump\t// in\n    tag_167:\n        /* \"#utility.yul\":4723:4791   */\n      swap4\n      pop\n        /* \"#utility.yul\":4800:4865   */\n      tag_168\n        /* \"#utility.yul\":4858:4864   */\n      dup2\n        /* \"#utility.yul\":4853:4856   */\n      dup6\n        /* \"#utility.yul\":4846:4850   */\n      0x20\n        /* \"#utility.yul\":4839:4844   */\n      dup7\n        /* \"#utility.yul\":4835:4851   */\n      add\n        /* \"#utility.yul\":4800:4865   */\n      tag_80\n      jump\t// in\n    tag_168:\n        /* \"#utility.yul\":4890:4919   */\n      tag_169\n        /* \"#utility.yul\":4912:4918   */\n      dup2\n        /* \"#utility.yul\":4890:4919   */\n      tag_64\n      jump\t// in\n    tag_169:\n        /* \"#utility.yul\":4885:4888   */\n      dup5\n        /* \"#utility.yul\":4881:4920   */\n      add\n        /* \"#utility.yul\":4874:4920   */\n      swap2\n      pop\n        /* \"#utility.yul\":4651:4926   */\n      pop\n        /* \"#utility.yul\":4569:4926   */\n      swap3\n      swap2\n      pop\n      pop\n      jump\t// out\n        /* \"#utility.yul\":4932:5128   */\n    tag_82:\n        /* \"#utility.yul\":5021:5031   */\n      0x00\n        /* \"#utility.yul\":5056:5122   */\n      tag_171\n        /* \"#utility.yul\":5118:5121   */\n      dup4\n        /* \"#utility.yul\":5110:5116   */\n      dup4\n        /* \"#utility.yul\":5056:5122   */\n      tag_81\n      jump\t// in\n    tag_171:\n        /* \"#utility.yul\":5042:5122   */\n      swap1\n      pop\n        /* \"#utility.yul\":4932:5128   */\n      swap3\n      swap2\n      pop\n      pop\n      jump\t// out\n        /* \"#utility.yul\":5134:5257   */\n    tag_83:\n        /* \"#utility.yul\":5214:5218   */\n      0x00\n        /* \"#utility.yul\":5246:5250   */\n      0x20\n        /* \"#utility.yul\":5241:5244   */\n      dup3\n        /* \"#utility.yul\":5237:5251   */\n      add\n        /* \"#utility.yul\":5229:5251   */\n      swap1\n      pop\n        /* \"#utility.yul\":5134:5257   */\n      swap2\n      swap1\n      pop\n      jump\t// out\n        /* \"#utility.yul\":5291:6282   */\n    tag_84:\n        /* \"#utility.yul\":5430:5433   */\n      0x00\n        /* \"#utility.yul\":5459:5523   */\n      tag_174\n        /* \"#utility.yul\":5517:5522   */\n      dup3\n        /* \"#utility.yul\":5459:5523   */\n      tag_75\n      jump\t// in\n    tag_174:\n        /* \"#utility.yul\":5539:5635   */\n      tag_175\n        /* \"#utility.yul\":5628:5634   */\n      dup2\n        /* \"#utility.yul\":5623:5626   */\n      dup6\n        /* \"#utility.yul\":5539:5635   */\n      tag_76\n      jump\t// in\n    tag_175:\n        /* \"#utility.yul\":5532:5635   */\n      swap4\n      pop\n        /* \"#utility.yul\":5661:5664   */\n      dup4\n        /* \"#utility.yul\":5706:5710   */\n      0x20\n        /* \"#utility.yul\":5698:5704   */\n      dup3\n        /* \"#utility.yul\":5694:5711   */\n      mul\n        /* \"#utility.yul\":5689:5692   */\n      dup6\n        /* \"#utility.yul\":5685:5712   */\n      add\n        /* \"#utility.yul\":5736:5802   */\n      tag_176\n        /* \"#utility.yul\":5796:5801   */\n      dup6\n        /* \"#utility.yul\":5736:5802   */\n      tag_77\n      jump\t// in\n    tag_176:\n        /* \"#utility.yul\":5825:5832   */\n      dup1\n        /* \"#utility.yul\":5856:5857   */\n      0x00\n        /* \"#utility.yul\":5841:6237   */\n    tag_177:\n        /* \"#utility.yul\":5866:5872   */\n      dup6\n        /* \"#utility.yul\":5863:5864   */\n      dup2\n        /* \"#utility.yul\":5860:5873   */\n      lt\n        /* \"#utility.yul\":5841:6237   */\n      iszero\n      tag_179\n      jumpi\n        /* \"#utility.yul\":5937:5946   */\n      dup5\n        /* \"#utility.yul\":5931:5935   */\n      dup5\n        /* \"#utility.yul\":5927:5947   */\n      sub\n        /* \"#utility.yul\":5922:5925   */\n      dup10\n        /* \"#utility.yul\":5915:5948   */\n      mstore\n        /* \"#utility.yul\":5988:5994   */\n      dup2\n        /* \"#utility.yul\":5982:5995   */\n      mload\n        /* \"#utility.yul\":6016:6100   */\n      tag_180\n        /* \"#utility.yul\":6095:6099   */\n      dup6\n        /* \"#utility.yul\":6080:6093   */\n      dup3\n        /* \"#utility.yul\":6016:6100   */\n      tag_82\n      jump\t// in\n    tag_180:\n        /* \"#utility.yul\":6008:6100   */\n      swap5\n      pop\n        /* \"#utility.yul\":6123:6193   */\n      tag_181\n        /* \"#utility.yul\":6186:6192   */\n      dup4\n        /* \"#utility.yul\":6123:6193   */\n      tag_83\n      jump\t// in\n    tag_181:\n        /* \"#utility.yul\":6113:6193   */\n      swap3\n      pop\n        /* \"#utility.yul\":6222:6226   */\n      0x20\n        /* \"#utility.yul\":6217:6220   */\n      dup11\n        /* \"#utility.yul\":6213:6227   */\n      add\n        /* \"#utility.yul\":6206:6227   */\n      swap10\n      pop\n        /* \"#utility.yul\":5901:6237   */\n      pop\n        /* \"#utility.yul\":5888:5889   */\n      0x01\n        /* \"#utility.yul\":5885:5886   */\n      dup2\n        /* \"#utility.yul\":5881:5890   */\n      add\n        /* \"#utility.yul\":5876:5890   */\n      swap1\n      pop\n        /* \"#utility.yul\":5841:6237   */\n      jump(tag_177)\n    tag_179:\n        /* \"#utility.yul\":5845:5859   */\n      pop\n        /* \"#utility.yul\":6253:6257   */\n      dup3\n        /* \"#utility.yul\":6246:6257   */\n      swap8\n      pop\n        /* \"#utility.yul\":6273:6276   */\n      dup8\n        /* \"#utility.yul\":6266:6276   */\n      swap6\n      pop\n        /* \"#utility.yul\":5435:6282   */\n      pop\n      pop\n      pop\n      pop\n      pop\n        /* \"#utility.yul\":5291:6282   */\n      swap3\n      swap2\n      pop\n      pop\n      jump\t// out\n        /* \"#utility.yul\":6288:6701   */\n    tag_15:\n        /* \"#utility.yul\":6451:6455   */\n      0x00\n        /* \"#utility.yul\":6489:6491   */\n      0x20\n        /* \"#utility.yul\":6478:6487   */\n      dup3\n        /* \"#utility.yul\":6474:6492   */\n      add\n        /* \"#utility.yul\":6466:6492   */\n      swap1\n      pop\n        /* \"#utility.yul\":6538:6547   */\n      dup2\n        /* \"#utility.yul\":6532:6536   */\n      dup2\n        /* \"#utility.yul\":6528:6548   */\n      sub\n        /* \"#utility.yul\":6524:6525   */\n      0x00\n        /* \"#utility.yul\":6513:6522   */\n      dup4\n        /* \"#utility.yul\":6509:6526   */\n      add\n        /* \"#utility.yul\":6502:6549   */\n      mstore\n        /* \"#utility.yul\":6566:6694   */\n      tag_183\n        /* \"#utility.yul\":6689:6693   */\n      dup2\n        /* \"#utility.yul\":6680:6686   */\n      dup5\n        /* \"#utility.yul\":6566:6694   */\n      tag_84\n      jump\t// in\n    tag_183:\n        /* \"#utility.yul\":6558:6694   */\n      swap1\n      pop\n        /* \"#utility.yul\":6288:6701   */\n      swap3\n      swap2\n      pop\n      pop\n      jump\t// out\n        /* \"#utility.yul\":6707:7216   */\n    tag_18:\n        /* \"#utility.yul\":6776:6782   */\n      0x00\n        /* \"#utility.yul\":6825:6827   */\n      0x20\n        /* \"#utility.yul\":6813:6822   */\n      dup3\n        /* \"#utility.yul\":6804:6811   */\n      dup5\n        /* \"#utility.yul\":6800:6823   */\n      sub\n        /* \"#utility.yul\":6796:6828   */\n      slt\n        /* \"#utility.yul\":6793:6912   */\n      iszero\n      tag_185\n      jumpi\n        /* \"#utility.yul\":6831:6910   */\n      tag_186\n      tag_60\n      jump\t// in\n    tag_186:\n        /* \"#utility.yul\":6793:6912   */\n    tag_185:\n        /* \"#utility.yul\":6979:6980   */\n      0x00\n        /* \"#utility.yul\":6968:6977   */\n      dup3\n        /* \"#utility.yul\":6964:6981   */\n      add\n        /* \"#utility.yul\":6951:6982   */\n      calldataload\n        /* \"#utility.yul\":7009:7027   */\n      0xffffffffffffffff\n        /* \"#utility.yul\":7001:7007   */\n      dup2\n        /* \"#utility.yul\":6998:7028   */\n      gt\n        /* \"#utility.yul\":6995:7112   */\n      iszero\n      tag_187\n      jumpi\n        /* \"#utility.yul\":7031:7110   */\n      tag_188\n      tag_61\n      jump\t// in\n    tag_188:\n        /* \"#utility.yul\":6995:7112   */\n    tag_187:\n        /* \"#utility.yul\":7136:7199   */\n      tag_189\n        /* \"#utility.yul\":7191:7198   */\n      dup5\n        /* \"#utility.yul\":7182:7188   */\n      dup3\n        /* \"#utility.yul\":7171:7180   */\n      dup6\n        /* \"#utility.yul\":7167:7189   */\n      add\n        /* \"#utility.yul\":7136:7199   */\n      tag_71\n      jump\t// in\n    tag_189:\n        /* \"#utility.yul\":7126:7199   */\n      swap2\n      pop\n        /* \"#utility.yul\":6922:7209   */\n      pop\n        /* \"#utility.yul\":6707:7216   */\n      swap3\n      swap2\n      pop\n      pop\n      jump\t// out\n        /* \"#utility.yul\":7222:7340   */\n    tag_85:\n        /* \"#utility.yul\":7309:7333   */\n      tag_191\n        /* \"#utility.yul\":7327:7332   */\n      dup2\n        /* \"#utility.yul\":7309:7333   */\n      tag_72\n      jump\t// in\n    tag_191:\n        /* \"#utility.yul\":7304:7307   */\n      dup3\n        /* \"#utility.yul\":7297:7334   */\n      mstore\n        /* \"#utility.yul\":7222:7340   */\n      pop\n      pop\n      jump\t// out\n        /* \"#utility.yul\":7346:7568   */\n    tag_21:\n        /* \"#utility.yul\":7439:7443   */\n      0x00\n        /* \"#utility.yul\":7477:7479   */\n      0x20\n        /* \"#utility.yul\":7466:7475   */\n      dup3\n        /* \"#utility.yul\":7462:7480   */\n      add\n        /* \"#utility.yul\":7454:7480   */\n      swap1\n      pop\n        /* \"#utility.yul\":7490:7561   */\n      tag_193\n        /* \"#utility.yul\":7558:7559   */\n      0x00\n        /* \"#utility.yul\":7547:7556   */\n      dup4\n        /* \"#utility.yul\":7543:7560   */\n      add\n        /* \"#utility.yul\":7534:7540   */\n      dup5\n        /* \"#utility.yul\":7490:7561   */\n      tag_85\n      jump\t// in\n    tag_193:\n        /* \"#utility.yul\":7346:7568   */\n      swap3\n      swap2\n      pop\n      pop\n      jump\t// out\n        /* \"#utility.yul\":7574:7700   */\n    tag_86:\n        /* \"#utility.yul\":7611:7618   */\n      0x00\n        /* \"#utility.yul\":7651:7693   */\n      0xffffffffffffffffffffffffffffffffffffffff\n        /* \"#utility.yul\":7644:7649   */\n      dup3\n        /* \"#utility.yul\":7640:7694   */\n      and\n        /* \"#utility.yul\":7629:7694   */\n      swap1\n      pop\n        /* \"#utility.yul\":7574:7700   */\n      swap2\n      swap1\n      pop\n      jump\t// out\n        /* \"#utility.yul\":7706:7802   */\n    tag_87:\n        /* \"#utility.yul\":7743:7750   */\n      0x00\n        /* \"#utility.yul\":7772:7796   */\n      tag_196\n        /* \"#utility.yul\":7790:7795   */\n      dup3\n        /* \"#utility.yul\":7772:7796   */\n      tag_86\n      jump\t// in\n    tag_196:\n        /* \"#utility.yul\":7761:7796   */\n      swap1\n      pop\n        /* \"#utility.yul\":7706:7802   */\n      swap2\n      swap1\n      pop\n      jump\t// out\n        /* \"#utility.yul\":7808:7926   */\n    tag_88:\n        /* \"#utility.yul\":7895:7919   */\n      tag_198\n        /* \"#utility.yul\":7913:7918   */\n      dup2\n        /* \"#utility.yul\":7895:7919   */\n      tag_87\n      jump\t// in\n    tag_198:\n        /* \"#utility.yul\":7890:7893   */\n      dup3\n        /* \"#utility.yul\":7883:7920   */\n      mstore\n        /* \"#utility.yul\":7808:7926   */\n      pop\n      pop\n      jump\t// out\n        /* \"#utility.yul\":7932:8154   */\n    tag_28:\n        /* \"#utility.yul\":8025:8029   */\n      0x00\n        /* \"#utility.yul\":8063:8065   */\n      0x20\n        /* \"#utility.yul\":8052:8061   */\n      dup3\n        /* \"#utility.yul\":8048:8066   */\n      add\n        /* \"#utility.yul\":8040:8066   */\n      swap1\n      pop\n        /* \"#utility.yul\":8076:8147   */\n      tag_200\n        /* \"#utility.yul\":8144:8145   */\n      0x00\n        /* \"#utility.yul\":8133:8142   */\n      dup4\n        /* \"#utility.yul\":8129:8146   */\n      add\n        /* \"#utility.yul\":8120:8126   */\n      dup5\n        /* \"#utility.yul\":8076:8147   */\n      tag_88\n      jump\t// in\n    tag_200:\n        /* \"#utility.yul\":7932:8154   */\n      swap3\n      swap2\n      pop\n      pop\n      jump\t// out\n        /* \"#utility.yul\":8160:8329   */\n    tag_89:\n        /* \"#utility.yul\":8244:8255   */\n      0x00\n        /* \"#utility.yul\":8278:8284   */\n      dup3\n        /* \"#utility.yul\":8273:8276   */\n      dup3\n        /* \"#utility.yul\":8266:8285   */\n      mstore\n        /* \"#utility.yul\":8318:8322   */\n      0x20\n        /* \"#utility.yul\":8313:8316   */\n      dup3\n        /* \"#utility.yul\":8309:8323   */\n      add\n        /* \"#utility.yul\":8294:8323   */\n      swap1\n      pop\n        /* \"#utility.yul\":8160:8329   */\n      swap3\n      swap2\n      pop\n      pop\n      jump\t// out\n        /* \"#utility.yul\":8335:8568   */\n    tag_90:\n        /* \"#utility.yul\":8475:8509   */\n      0x4e6f207469656e6573207065726d69736f73207061726120656a656375746172\n        /* \"#utility.yul\":8471:8472   */\n      0x00\n        /* \"#utility.yul\":8463:8469   */\n      dup3\n        /* \"#utility.yul\":8459:8473   */\n      add\n        /* \"#utility.yul\":8452:8510   */\n      mstore\n        /* \"#utility.yul\":8544:8560   */\n      0x20657374612066756e63696f6e2e000000000000000000000000000000000000\n        /* \"#utility.yul\":8539:8541   */\n      0x20\n        /* \"#utility.yul\":8531:8537   */\n      dup3\n        /* \"#utility.yul\":8527:8542   */\n      add\n        /* \"#utility.yul\":8520:8561   */\n      mstore\n        /* \"#utility.yul\":8335:8568   */\n      pop\n      jump\t// out\n        /* \"#utility.yul\":8574:8940   */\n    tag_91:\n        /* \"#utility.yul\":8716:8719   */\n      0x00\n        /* \"#utility.yul\":8737:8804   */\n      tag_204\n        /* \"#utility.yul\":8801:8803   */\n      0x2e\n        /* \"#utility.yul\":8796:8799   */\n      dup4\n        /* \"#utility.yul\":8737:8804   */\n      tag_89\n      jump\t// in\n    tag_204:\n        /* \"#utility.yul\":8730:8804   */\n      swap2\n      pop\n        /* \"#utility.yul\":8813:8906   */\n      tag_205\n        /* \"#utility.yul\":8902:8905   */\n      dup3\n        /* \"#utility.yul\":8813:8906   */\n      tag_90\n      jump\t// in\n    tag_205:\n        /* \"#utility.yul\":8931:8933   */\n      0x40\n        /* \"#utility.yul\":8926:8929   */\n      dup3\n        /* \"#utility.yul\":8922:8934   */\n      add\n        /* \"#utility.yul\":8915:8934   */\n      swap1\n      pop\n        /* \"#utility.yul\":8574:8940   */\n      swap2\n      swap1\n      pop\n      jump\t// out\n        /* \"#utility.yul\":8946:9365   */\n    tag_32:\n        /* \"#utility.yul\":9112:9116   */\n      0x00\n        /* \"#utility.yul\":9150:9152   */\n      0x20\n        /* \"#utility.yul\":9139:9148   */\n      dup3\n        /* \"#utility.yul\":9135:9153   */\n      add\n        /* \"#utility.yul\":9127:9153   */\n      swap1\n      pop\n        /* \"#utility.yul\":9199:9208   */\n      dup2\n        /* \"#utility.yul\":9193:9197   */\n      dup2\n        /* \"#utility.yul\":9189:9209   */\n      sub\n        /* \"#utility.yul\":9185:9186   */\n      0x00\n        /* \"#utility.yul\":9174:9183   */\n      dup4\n        /* \"#utility.yul\":9170:9187   */\n      add\n        /* \"#utility.yul\":9163:9210   */\n      mstore\n        /* \"#utility.yul\":9227:9358   */\n      tag_207\n        /* \"#utility.yul\":9353:9357   */\n      dup2\n        /* \"#utility.yul\":9227:9358   */\n      tag_91\n      jump\t// in\n    tag_207:\n        /* \"#utility.yul\":9219:9358   */\n      swap1\n      pop\n        /* \"#utility.yul\":8946:9365   */\n      swap2\n      swap1\n      pop\n      jump\t// out\n        /* \"#utility.yul\":9371:9519   */\n    tag_92:\n        /* \"#utility.yul\":9473:9484   */\n      0x00\n        /* \"#utility.yul\":9510:9513   */\n      dup2\n        /* \"#utility.yul\":9495:9513   */\n      swap1\n      pop\n        /* \"#utility.yul\":9371:9519   */\n      swap3\n      swap2\n      pop\n      pop\n      jump\t// out\n        /* \"#utility.yul\":9525:9915   */\n    tag_93:\n        /* \"#utility.yul\":9631:9634   */\n      0x00\n        /* \"#utility.yul\":9659:9698   */\n      tag_210\n        /* \"#utility.yul\":9692:9697   */\n      dup3\n        /* \"#utility.yul\":9659:9698   */\n      tag_78\n      jump\t// in\n    tag_210:\n        /* \"#utility.yul\":9714:9803   */\n      tag_211\n        /* \"#utility.yul\":9796:9802   */\n      dup2\n        /* \"#utility.yul\":9791:9794   */\n      dup6\n        /* \"#utility.yul\":9714:9803   */\n      tag_92\n      jump\t// in\n    tag_211:\n        /* \"#utility.yul\":9707:9803   */\n      swap4\n      pop\n        /* \"#utility.yul\":9812:9877   */\n      tag_212\n        /* \"#utility.yul\":9870:9876   */\n      dup2\n        /* \"#utility.yul\":9865:9868   */\n      dup6\n        /* \"#utility.yul\":9858:9862   */\n      0x20\n        /* \"#utility.yul\":9851:9856   */\n      dup7\n        /* \"#utility.yul\":9847:9863   */\n      add\n        /* \"#utility.yul\":9812:9877   */\n      tag_80\n      jump\t// in\n    tag_212:\n        /* \"#utility.yul\":9902:9908   */\n      dup1\n        /* \"#utility.yul\":9897:9900   */\n      dup5\n        /* \"#utility.yul\":9893:9909   */\n      add\n        /* \"#utility.yul\":9886:9909   */\n      swap2\n      pop\n        /* \"#utility.yul\":9635:9915   */\n      pop\n        /* \"#utility.yul\":9525:9915   */\n      swap3\n      swap2\n      pop\n      pop\n      jump\t// out\n        /* \"#utility.yul\":9921:10196   */\n    tag_35:\n        /* \"#utility.yul\":10053:10056   */\n      0x00\n        /* \"#utility.yul\":10075:10170   */\n      tag_214\n        /* \"#utility.yul\":10166:10169   */\n      dup3\n        /* \"#utility.yul\":10157:10163   */\n      dup5\n        /* \"#utility.yul\":10075:10170   */\n      tag_93\n      jump\t// in\n    tag_214:\n        /* \"#utility.yul\":10068:10170   */\n      swap2\n      pop\n        /* \"#utility.yul\":10187:10190   */\n      dup2\n        /* \"#utility.yul\":10180:10190   */\n      swap1\n      pop\n        /* \"#utility.yul\":9921:10196   */\n      swap3\n      swap2\n      pop\n      pop\n      jump\t// out\n        /* \"#utility.yul\":10202:10279   */\n    tag_94:\n        /* \"#utility.yul\":10239:10246   */\n      0x00\n        /* \"#utility.yul\":10268:10273   */\n      dup2\n        /* \"#utility.yul\":10257:10273   */\n      swap1\n      pop\n        /* \"#utility.yul\":10202:10279   */\n      swap2\n      swap1\n      pop\n      jump\t// out\n        /* \"#utility.yul\":10285:10403   */\n    tag_95:\n        /* \"#utility.yul\":10372:10396   */\n      tag_217\n        /* \"#utility.yul\":10390:10395   */\n      dup2\n        /* \"#utility.yul\":10372:10396   */\n      tag_94\n      jump\t// in\n    tag_217:\n        /* \"#utility.yul\":10367:10370   */\n      dup3\n        /* \"#utility.yul\":10360:10397   */\n      mstore\n        /* \"#utility.yul\":10285:10403   */\n      pop\n      pop\n      jump\t// out\n        /* \"#utility.yul\":10409:10631   */\n    tag_37:\n        /* \"#utility.yul\":10502:10506   */\n      0x00\n        /* \"#utility.yul\":10540:10542   */\n      0x20\n        /* \"#utility.yul\":10529:10538   */\n      dup3\n        /* \"#utility.yul\":10525:10543   */\n      add\n        /* \"#utility.yul\":10517:10543   */\n      swap1\n      pop\n        /* \"#utility.yul\":10553:10624   */\n      tag_219\n        /* \"#utility.yul\":10621:10622   */\n      0x00\n        /* \"#utility.yul\":10610:10619   */\n      dup4\n        /* \"#utility.yul\":10606:10623   */\n      add\n        /* \"#utility.yul\":10597:10603   */\n      dup5\n        /* \"#utility.yul\":10553:10624   */\n      tag_95\n      jump\t// in\n    tag_219:\n        /* \"#utility.yul\":10409:10631   */\n      swap3\n      swap2\n      pop\n      pop\n      jump\t// out\n        /* \"#utility.yul\":10637:10817   */\n    tag_96:\n        /* \"#utility.yul\":10685:10762   */\n      0x4e487b7100000000000000000000000000000000000000000000000000000000\n        /* \"#utility.yul\":10682:10683   */\n      0x00\n        /* \"#utility.yul\":10675:10763   */\n      mstore\n        /* \"#utility.yul\":10782:10786   */\n      0x22\n        /* \"#utility.yul\":10779:10780   */\n      0x04\n        /* \"#utility.yul\":10772:10787   */\n      mstore\n        /* \"#utility.yul\":10806:10810   */\n      0x24\n        /* \"#utility.yul\":10803:10804   */\n      0x00\n        /* \"#utility.yul\":10796:10811   */\n      revert\n        /* \"#utility.yul\":10823:11143   */\n    tag_46:\n        /* \"#utility.yul\":10867:10873   */\n      0x00\n        /* \"#utility.yul\":10904:10905   */\n      0x02\n        /* \"#utility.yul\":10898:10902   */\n      dup3\n        /* \"#utility.yul\":10894:10906   */\n      div\n        /* \"#utility.yul\":10884:10906   */\n      swap1\n      pop\n        /* \"#utility.yul\":10951:10952   */\n      0x01\n        /* \"#utility.yul\":10945:10949   */\n      dup3\n        /* \"#utility.yul\":10941:10953   */\n      and\n        /* \"#utility.yul\":10972:10990   */\n      dup1\n        /* \"#utility.yul\":10962:11043   */\n      tag_222\n      jumpi\n        /* \"#utility.yul\":11028:11032   */\n      0x7f\n        /* \"#utility.yul\":11020:11026   */\n      dup3\n        /* \"#utility.yul\":11016:11033   */\n      and\n        /* \"#utility.yul\":11006:11033   */\n      swap2\n      pop\n        /* \"#utility.yul\":10962:11043   */\n    tag_222:\n        /* \"#utility.yul\":11090:11092   */\n      0x20\n        /* \"#utility.yul\":11082:11088   */\n      dup3\n        /* \"#utility.yul\":11079:11093   */\n      lt\n        /* \"#utility.yul\":11059:11077   */\n      dup2\n        /* \"#utility.yul\":11056:11094   */\n      sub\n        /* \"#utility.yul\":11053:11137   */\n      tag_223\n      jumpi\n        /* \"#utility.yul\":11109:11127   */\n      tag_224\n      tag_96\n      jump\t// in\n    tag_224:\n        /* \"#utility.yul\":11053:11137   */\n    tag_223:\n        /* \"#utility.yul\":10874:11143   */\n      pop\n        /* \"#utility.yul\":10823:11143   */\n      swap2\n      swap1\n      pop\n      jump\t// out\n        /* \"#utility.yul\":11149:11290   */\n    tag_97:\n        /* \"#utility.yul\":11198:11202   */\n      0x00\n        /* \"#utility.yul\":11221:11224   */\n      dup2\n        /* \"#utility.yul\":11213:11224   */\n      swap1\n      pop\n        /* \"#utility.yul\":11244:11247   */\n      dup2\n        /* \"#utility.yul\":11241:11242   */\n      0x00\n        /* \"#utility.yul\":11234:11248   */\n      mstore\n        /* \"#utility.yul\":11278:11282   */\n      0x20\n        /* \"#utility.yul\":11275:11276   */\n      0x00\n        /* \"#utility.yul\":11265:11283   */\n      keccak256\n        /* \"#utility.yul\":11257:11283   */\n      swap1\n      pop\n        /* \"#utility.yul\":11149:11290   */\n      swap2\n      swap1\n      pop\n      jump\t// out\n        /* \"#utility.yul\":11296:11389   */\n    tag_98:\n        /* \"#utility.yul\":11333:11339   */\n      0x00\n        /* \"#utility.yul\":11380:11382   */\n      0x20\n        /* \"#utility.yul\":11375:11377   */\n      0x1f\n        /* \"#utility.yul\":11368:11373   */\n      dup4\n        /* \"#utility.yul\":11364:11378   */\n      add\n        /* \"#utility.yul\":11360:11383   */\n      div\n        /* \"#utility.yul\":11350:11383   */\n      swap1\n      pop\n        /* \"#utility.yul\":11296:11389   */\n      swap2\n      swap1\n      pop\n      jump\t// out\n        /* \"#utility.yul\":11395:11502   */\n    tag_99:\n        /* \"#utility.yul\":11439:11447   */\n      0x00\n        /* \"#utility.yul\":11489:11494   */\n      dup3\n        /* \"#utility.yul\":11483:11487   */\n      dup3\n        /* \"#utility.yul\":11479:11495   */\n      shl\n        /* \"#utility.yul\":11458:11495   */\n      swap1\n      pop\n        /* \"#utility.yul\":11395:11502   */\n      swap3\n      swap2\n      pop\n      pop\n      jump\t// out\n        /* \"#utility.yul\":11508:11901   */\n    tag_100:\n        /* \"#utility.yul\":11577:11583   */\n      0x00\n        /* \"#utility.yul\":11627:11628   */\n      0x08\n        /* \"#utility.yul\":11615:11625   */\n      dup4\n        /* \"#utility.yul\":11611:11629   */\n      mul\n        /* \"#utility.yul\":11650:11747   */\n      tag_229\n        /* \"#utility.yul\":11680:11746   */\n      0xffffffffffffffffffffffffffffffffffffffffffffffffffffffffffffffff\n        /* \"#utility.yul\":11669:11678   */\n      dup3\n        /* \"#utility.yul\":11650:11747   */\n      tag_99\n      jump\t// in\n    tag_229:\n        /* \"#utility.yul\":11768:11807   */\n      tag_230\n        /* \"#utility.yul\":11798:11806   */\n      dup7\n        /* \"#utility.yul\":11787:11796   */\n      dup4\n        /* \"#utility.yul\":11768:11807   */\n      tag_99\n      jump\t// in\n    tag_230:\n        /* \"#utility.yul\":11756:11807   */\n      swap6\n      pop\n        /* \"#utility.yul\":11840:11844   */\n      dup1\n        /* \"#utility.yul\":11836:11845   */\n      not\n        /* \"#utility.yul\":11829:11834   */\n      dup5\n        /* \"#utility.yul\":11825:11846   */\n      and\n        /* \"#utility.yul\":11816:11846   */\n      swap4\n      pop\n        /* \"#utility.yul\":11889:11893   */\n      dup1\n        /* \"#utility.yul\":11879:11887   */\n      dup7\n        /* \"#utility.yul\":11875:11894   */\n      and\n        /* \"#utility.yul\":11868:11873   */\n      dup5\n        /* \"#utility.yul\":11865:11895   */\n      or\n        /* \"#utility.yul\":11855:11895   */\n      swap3\n      pop\n        /* \"#utility.yul\":11584:11901   */\n      pop\n      pop\n        /* \"#utility.yul\":11508:11901   */\n      swap4\n      swap3\n      pop\n      pop\n      pop\n      jump\t// out\n        /* \"#utility.yul\":11907:11967   */\n    tag_101:\n        /* \"#utility.yul\":11935:11938   */\n      0x00\n        /* \"#utility.yul\":11956:11961   */\n      dup2\n        /* \"#utility.yul\":11949:11961   */\n      swap1\n      pop\n        /* \"#utility.yul\":11907:11967   */\n      swap2\n      swap1\n      pop\n      jump\t// out\n        /* \"#utility.yul\":11973:12115   */\n    tag_102:\n        /* \"#utility.yul\":12023:12032   */\n      0x00\n        /* \"#utility.yul\":12056:12109   */\n      tag_233\n        /* \"#utility.yul\":12074:12108   */\n      tag_234\n        /* \"#utility.yul\":12083:12107   */\n      tag_235\n        /* \"#utility.yul\":12101:12106   */\n      dup5\n        /* \"#utility.yul\":12083:12107   */\n      tag_72\n      jump\t// in\n    tag_235:\n        /* \"#utility.yul\":12074:12108   */\n      tag_101\n      jump\t// in\n    tag_234:\n        /* \"#utility.yul\":12056:12109   */\n      tag_72\n      jump\t// in\n    tag_233:\n        /* \"#utility.yul\":12043:12109   */\n      swap1\n      pop\n        /* \"#utility.yul\":11973:12115   */\n      swap2\n      swap1\n      pop\n      jump\t// out\n        /* \"#utility.yul\":12121:12196   */\n    tag_103:\n        /* \"#utility.yul\":12164:12167   */\n      0x00\n        /* \"#utility.yul\":12185:12190   */\n      dup2\n        /* \"#utility.yul\":12178:12190   */\n      swap1\n      pop\n        /* \"#utility.yul\":12121:12196   */\n      swap2\n      swap1\n      pop\n      jump\t// out\n        /* \"#utility.yul\":12202:12471   */\n    tag_104:\n        /* \"#utility.yul\":12312:12351   */\n      tag_238\n        /* \"#utility.yul\":12343:12350   */\n      dup4\n        /* \"#utility.yul\":12312:12351   */\n      tag_102\n      jump\t// in\n    tag_238:\n        /* \"#utility.yul\":12373:12464   */\n      tag_239\n        /* \"#utility.yul\":12422:12463   */\n      tag_240\n        /* \"#utility.yul\":12446:12462   */\n      dup3\n        /* \"#utility.yul\":12422:12463   */\n      tag_103\n      jump\t// in\n    tag_240:\n        /* \"#utility.yul\":12414:12420   */\n      dup5\n        /* \"#utility.yul\":12407:12411   */\n      dup5\n        /* \"#utility.yul\":12401:12412   */\n      sload\n        /* \"#utility.yul\":12373:12464   */\n      tag_100\n      jump\t// in\n    tag_239:\n        /* \"#utility.yul\":12367:12371   */\n      dup3\n        /* \"#utility.yul\":12360:12465   */\n      sstore\n        /* \"#utility.yul\":12278:12471   */\n      pop\n        /* \"#utility.yul\":12202:12471   */\n      pop\n      pop\n      pop\n      jump\t// out\n        /* \"#utility.yul\":12477:12550   */\n    tag_105:\n        /* \"#utility.yul\":12522:12525   */\n      0x00\n        /* \"#utility.yul\":12477:12550   */\n      swap1\n      jump\t// out\n        /* \"#utility.yul\":12556:12745   */\n    tag_106:\n        /* \"#utility.yul\":12633:12665   */\n      tag_243\n      tag_105\n      jump\t// in\n    tag_243:\n        /* \"#utility.yul\":12674:12739   */\n      tag_244\n        /* \"#utility.yul\":12732:12738   */\n      dup2\n        /* \"#utility.yul\":12724:12730   */\n      dup5\n        /* \"#utility.yul\":12718:12722   */\n      dup5\n        /* \"#utility.yul\":12674:12739   */\n      tag_104\n      jump\t// in\n    tag_244:\n        /* \"#utility.yul\":12609:12745   */\n      pop\n        /* \"#utility.yul\":12556:12745   */\n      pop\n      pop\n      jump\t// out\n        /* \"#utility.yul\":12751:12937   */\n    tag_107:\n        /* \"#utility.yul\":12811:12931   */\n    tag_246:\n        /* \"#utility.yul\":12828:12831   */\n      dup2\n        /* \"#utility.yul\":12821:12826   */\n      dup2\n        /* \"#utility.yul\":12818:12832   */\n      lt\n        /* \"#utility.yul\":12811:12931   */\n      iszero\n      tag_248\n      jumpi\n        /* \"#utility.yul\":12882:12921   */\n      tag_249\n        /* \"#utility.yul\":12919:12920   */\n      0x00\n        /* \"#utility.yul\":12912:12917   */\n      dup3\n        /* \"#utility.yul\":12882:12921   */\n      tag_106\n      jump\t// in\n    tag_249:\n        /* \"#utility.yul\":12855:12856   */\n      0x01\n        /* \"#utility.yul\":12848:12853   */\n      dup2\n        /* \"#utility.yul\":12844:12857   */\n      add\n        /* \"#utility.yul\":12835:12857   */\n      swap1\n      pop\n        /* \"#utility.yul\":12811:12931   */\n      jump(tag_246)\n    tag_248:\n        /* \"#utility.yul\":12751:12937   */\n      pop\n      pop\n      jump\t// out\n        /* \"#utility.yul\":12943:13486   */\n    tag_108:\n        /* \"#utility.yul\":13044:13046   */\n      0x1f\n        /* \"#utility.yul\":13039:13042   */\n      dup3\n        /* \"#utility.yul\":13036:13047   */\n      gt\n        /* \"#utility.yul\":13033:13479   */\n      iszero\n      tag_251\n      jumpi\n        /* \"#utility.yul\":13078:13116   */\n      tag_252\n        /* \"#utility.yul\":13110:13115   */\n      dup2\n        /* \"#utility.yul\":13078:13116   */\n      tag_97\n      jump\t// in\n    tag_252:\n        /* \"#utility.yul\":13162:13191   */\n      tag_253\n        /* \"#utility.yul\":13180:13190   */\n      dup5\n        /* \"#utility.yul\":13162:13191   */\n      tag_98\n      jump\t// in\n    tag_253:\n        /* \"#utility.yul\":13152:13160   */\n      dup2\n        /* \"#utility.yul\":13148:13192   */\n      add\n        /* \"#utility.yul\":13345:13347   */\n      0x20\n        /* \"#utility.yul\":13333:13343   */\n      dup6\n        /* \"#utility.yul\":13330:13348   */\n      lt\n        /* \"#utility.yul\":13327:13376   */\n      iszero\n      tag_254\n      jumpi\n        /* \"#utility.yul\":13366:13374   */\n      dup2\n        /* \"#utility.yul\":13351:13374   */\n      swap1\n      pop\n        /* \"#utility.yul\":13327:13376   */\n    tag_254:\n        /* \"#utility.yul\":13389:13469   */\n      tag_255\n        /* \"#utility.yul\":13445:13467   */\n      tag_256\n        /* \"#utility.yul\":13463:13466   */\n      dup6\n        /* \"#utility.yul\":13445:13467   */\n      tag_98\n      jump\t// in\n    tag_256:\n        /* \"#utility.yul\":13435:13443   */\n      dup4\n        /* \"#utility.yul\":13431:13468   */\n      add\n        /* \"#utility.yul\":13418:13429   */\n      dup3\n        /* \"#utility.yul\":13389:13469   */\n      tag_107\n      jump\t// in\n    tag_255:\n        /* \"#utility.yul\":13048:13479   */\n      pop\n      pop\n        /* \"#utility.yul\":13033:13479   */\n    tag_251:\n        /* \"#utility.yul\":12943:13486   */\n      pop\n      pop\n      pop\n      jump\t// out\n        /* \"#utility.yul\":13492:13609   */\n    tag_109:\n        /* \"#utility.yul\":13546:13554   */\n      0x00\n        /* \"#utility.yul\":13596:13601   */\n      dup3\n        /* \"#utility.yul\":13590:13594   */\n      dup3\n        /* \"#utility.yul\":13586:13602   */\n      shr\n        /* \"#utility.yul\":13565:13602   */\n      swap1\n      pop\n        /* \"#utility.yul\":13492:13609   */\n      swap3\n      swap2\n      pop\n      pop\n      jump\t// out\n        /* \"#utility.yul\":13615:13784   */\n    tag_110:\n        /* \"#utility.yul\":13659:13665   */\n      0x00\n        /* \"#utility.yul\":13692:13743   */\n      tag_259\n        /* \"#utility.yul\":13740:13741   */\n      0x00\n        /* \"#utility.yul\":13736:13742   */\n      not\n        /* \"#utility.yul\":13728:13733   */\n      dup5\n        /* \"#utility.yul\":13725:13726   */\n      0x08\n        /* \"#utility.yul\":13721:13734   */\n      mul\n        /* \"#utility.yul\":13692:13743   */\n      tag_109\n      jump\t// in\n    tag_259:\n        /* \"#utility.yul\":13688:13744   */\n      not\n        /* \"#utility.yul\":13773:13777   */\n      dup1\n        /* \"#utility.yul\":13767:13771   */\n      dup4\n        /* \"#utility.yul\":13763:13778   */\n      and\n        /* \"#utility.yul\":13753:13778   */\n      swap2\n      pop\n        /* \"#utility.yul\":13666:13784   */\n      pop\n        /* \"#utility.yul\":13615:13784   */\n      swap3\n      swap2\n      pop\n      pop\n      jump\t// out\n        /* \"#utility.yul\":13789:14084   */\n    tag_111:\n        /* \"#utility.yul\":13865:13869   */\n      0x00\n        /* \"#utility.yul\":14011:14040   */\n      tag_261\n        /* \"#utility.yul\":14036:14039   */\n      dup4\n        /* \"#utility.yul\":14030:14034   */\n      dup4\n        /* \"#utility.yul\":14011:14040   */\n      tag_110\n      jump\t// in\n    tag_261:\n        /* \"#utility.yul\":14003:14040   */\n      swap2\n      pop\n        /* \"#utility.yul\":14073:14076   */\n      dup3\n        /* \"#utility.yul\":14070:14071   */\n      0x02\n        /* \"#utility.yul\":14066:14077   */\n      mul\n        /* \"#utility.yul\":14060:14064   */\n      dup3\n        /* \"#utility.yul\":14057:14078   */\n      or\n        /* \"#utility.yul\":14049:14078   */\n      swap1\n      pop\n        /* \"#utility.yul\":13789:14084   */\n      swap3\n      swap2\n      pop\n      pop\n      jump\t// out\n        /* \"#utility.yul\":14089:15484   */\n    tag_56:\n        /* \"#utility.yul\":14206:14243   */\n      tag_263\n        /* \"#utility.yul\":14239:14242   */\n      dup3\n        /* \"#utility.yul\":14206:14243   */\n      tag_78\n      jump\t// in\n    tag_263:\n        /* \"#utility.yul\":14308:14326   */\n      0xffffffffffffffff\n        /* \"#utility.yul\":14300:14306   */\n      dup2\n        /* \"#utility.yul\":14297:14327   */\n      gt\n        /* \"#utility.yul\":14294:14350   */\n      iszero\n      tag_264\n      jumpi\n        /* \"#utility.yul\":14330:14348   */\n      tag_265\n      tag_65\n      jump\t// in\n    tag_265:\n        /* \"#utility.yul\":14294:14350   */\n    tag_264:\n        /* \"#utility.yul\":14374:14412   */\n      tag_266\n        /* \"#utility.yul\":14406:14410   */\n      dup3\n        /* \"#utility.yul\":14400:14411   */\n      sload\n        /* \"#utility.yul\":14374:14412   */\n      tag_46\n      jump\t// in\n    tag_266:\n        /* \"#utility.yul\":14459:14526   */\n      tag_267\n        /* \"#utility.yul\":14519:14525   */\n      dup3\n        /* \"#utility.yul\":14511:14517   */\n      dup3\n        /* \"#utility.yul\":14505:14509   */\n      dup6\n        /* \"#utility.yul\":14459:14526   */\n      tag_108\n      jump\t// in\n    tag_267:\n        /* \"#utility.yul\":14553:14554   */\n      0x00\n        /* \"#utility.yul\":14577:14581   */\n      0x20\n        /* \"#utility.yul\":14564:14581   */\n      swap1\n      pop\n        /* \"#utility.yul\":14609:14611   */\n      0x1f\n        /* \"#utility.yul\":14601:14607   */\n      dup4\n        /* \"#utility.yul\":14598:14612   */\n      gt\n        /* \"#utility.yul\":14626:14627   */\n      0x01\n        /* \"#utility.yul\":14621:15239   */\n      dup2\n      eq\n      tag_269\n      jumpi\n        /* \"#utility.yul\":15283:15284   */\n      0x00\n        /* \"#utility.yul\":15300:15306   */\n      dup5\n        /* \"#utility.yul\":15297:15374   */\n      iszero\n      tag_270\n      jumpi\n        /* \"#utility.yul\":15349:15358   */\n      dup3\n        /* \"#utility.yul\":15344:15347   */\n      dup8\n        /* \"#utility.yul\":15340:15359   */\n      add\n        /* \"#utility.yul\":15334:15360   */\n      mload\n        /* \"#utility.yul\":15325:15360   */\n      swap1\n      pop\n        /* \"#utility.yul\":15297:15374   */\n    tag_270:\n        /* \"#utility.yul\":15400:15467   */\n      tag_271\n        /* \"#utility.yul\":15460:15466   */\n      dup6\n        /* \"#utility.yul\":15453:15458   */\n      dup3\n        /* \"#utility.yul\":15400:15467   */\n      tag_111\n      jump\t// in\n    tag_271:\n        /* \"#utility.yul\":15394:15398   */\n      dup7\n        /* \"#utility.yul\":15387:15468   */\n      sstore\n        /* \"#utility.yul\":15256:15478   */\n      pop\n        /* \"#utility.yul\":14591:15478   */\n      jump(tag_268)\n        /* \"#utility.yul\":14621:15239   */\n    tag_269:\n        /* \"#utility.yul\":14673:14677   */\n      0x1f\n        /* \"#utility.yul\":14669:14678   */\n      not\n        /* \"#utility.yul\":14661:14667   */\n      dup5\n        /* \"#utility.yul\":14657:14679   */\n      and\n        /* \"#utility.yul\":14707:14744   */\n      tag_272\n        /* \"#utility.yul\":14739:14743   */\n      dup7\n        /* \"#utility.yul\":14707:14744   */\n      tag_97\n      jump\t// in\n    tag_272:\n        /* \"#utility.yul\":14766:14767   */\n      0x00\n        /* \"#utility.yul\":14780:14988   */\n    tag_273:\n        /* \"#utility.yul\":14794:14801   */\n      dup3\n        /* \"#utility.yul\":14791:14792   */\n      dup2\n        /* \"#utility.yul\":14788:14802   */\n      lt\n        /* \"#utility.yul\":14780:14988   */\n      iszero\n      tag_275\n      jumpi\n        /* \"#utility.yul\":14873:14882   */\n      dup5\n        /* \"#utility.yul\":14868:14871   */\n      dup10\n        /* \"#utility.yul\":14864:14883   */\n      add\n        /* \"#utility.yul\":14858:14884   */\n      mload\n        /* \"#utility.yul\":14850:14856   */\n      dup3\n        /* \"#utility.yul\":14843:14885   */\n      sstore\n        /* \"#utility.yul\":14924:14925   */\n      0x01\n        /* \"#utility.yul\":14916:14922   */\n      dup3\n        /* \"#utility.yul\":14912:14926   */\n      add\n        /* \"#utility.yul\":14902:14926   */\n      swap2\n      pop\n        /* \"#utility.yul\":14971:14973   */\n      0x20\n        /* \"#utility.yul\":14960:14969   */\n      dup6\n        /* \"#utility.yul\":14956:14974   */\n      add\n        /* \"#utility.yul\":14943:14974   */\n      swap5\n      pop\n        /* \"#utility.yul\":14817:14821   */\n      0x20\n        /* \"#utility.yul\":14814:14815   */\n      dup2\n        /* \"#utility.yul\":14810:14822   */\n      add\n        /* \"#utility.yul\":14805:14822   */\n      swap1\n      pop\n        /* \"#utility.yul\":14780:14988   */\n      jump(tag_273)\n    tag_275:\n        /* \"#utility.yul\":15016:15022   */\n      dup7\n        /* \"#utility.yul\":15007:15014   */\n      dup4\n        /* \"#utility.yul\":15004:15023   */\n      lt\n        /* \"#utility.yul\":15001:15180   */\n      iszero\n      tag_276\n      jumpi\n        /* \"#utility.yul\":15074:15083   */\n      dup5\n        /* \"#utility.yul\":15069:15072   */\n      dup10\n        /* \"#utility.yul\":15065:15084   */\n      add\n        /* \"#utility.yul\":15059:15085   */\n      mload\n        /* \"#utility.yul\":15117:15165   */\n      tag_277\n        /* \"#utility.yul\":15159:15163   */\n      0x1f\n        /* \"#utility.yul\":15151:15157   */\n      dup10\n        /* \"#utility.yul\":15147:15164   */\n      and\n        /* \"#utility.yul\":15136:15145   */\n      dup3\n        /* \"#utility.yul\":15117:15165   */\n      tag_110\n      jump\t// in\n    tag_277:\n        /* \"#utility.yul\":15109:15115   */\n      dup4\n        /* \"#utility.yul\":15102:15166   */\n      sstore\n        /* \"#utility.yul\":15024:15180   */\n      pop\n        /* \"#utility.yul\":15001:15180   */\n    tag_276:\n        /* \"#utility.yul\":15226:15227   */\n      0x01\n        /* \"#utility.yul\":15222:15223   */\n      0x02\n        /* \"#utility.yul\":15214:15220   */\n      dup9\n        /* \"#utility.yul\":15210:15224   */\n      mul\n        /* \"#utility.yul\":15206:15228   */\n      add\n        /* \"#utility.yul\":15200:15204   */\n      dup9\n        /* \"#utility.yul\":15193:15229   */\n      sstore\n        /* \"#utility.yul\":14628:15239   */\n      pop\n      pop\n      pop\n        /* \"#utility.yul\":14591:15478   */\n    tag_268:\n      pop\n        /* \"#utility.yul\":14181:15484   */\n      pop\n      pop\n      pop\n        /* \"#utility.yul\":14089:15484   */\n      pop\n      pop\n      jump\t// out\n        /* \"#utility.yul\":15490:15867   */\n    tag_112:\n        /* \"#utility.yul\":15578:15581   */\n      0x00\n        /* \"#utility.yul\":15606:15645   */\n      tag_279\n        /* \"#utility.yul\":15639:15644   */\n      dup3\n        /* \"#utility.yul\":15606:15645   */\n      tag_78\n      jump\t// in\n    tag_279:\n        /* \"#utility.yul\":15661:15732   */\n      tag_280\n        /* \"#utility.yul\":15725:15731   */\n      dup2\n        /* \"#utility.yul\":15720:15723   */\n      dup6\n        /* \"#utility.yul\":15661:15732   */\n      tag_89\n      jump\t// in\n    tag_280:\n        /* \"#utility.yul\":15654:15732   */\n      swap4\n      pop\n        /* \"#utility.yul\":15741:15806   */\n      tag_281\n        /* \"#utility.yul\":15799:15805   */\n      dup2\n        /* \"#utility.yul\":15794:15797   */\n      dup6\n        /* \"#utility.yul\":15787:15791   */\n      0x20\n        /* \"#utility.yul\":15780:15785   */\n      dup7\n        /* \"#utility.yul\":15776:15792   */\n      add\n        /* \"#utility.yul\":15741:15806   */\n      tag_80\n      jump\t// in\n    tag_281:\n        /* \"#utility.yul\":15831:15860   */\n      tag_282\n        /* \"#utility.yul\":15853:15859   */\n      dup2\n        /* \"#utility.yul\":15831:15860   */\n      tag_64\n      jump\t// in\n    tag_282:\n        /* \"#utility.yul\":15826:15829   */\n      dup5\n        /* \"#utility.yul\":15822:15861   */\n      add\n        /* \"#utility.yul\":15815:15861   */\n      swap2\n      pop\n        /* \"#utility.yul\":15582:15867   */\n      pop\n        /* \"#utility.yul\":15490:15867   */\n      swap3\n      swap2\n      pop\n      pop\n      jump\t// out\n        /* \"#utility.yul\":15873:16186   */\n    tag_58:\n        /* \"#utility.yul\":15986:15990   */\n      0x00\n        /* \"#utility.yul\":16024:16026   */\n      0x20\n        /* \"#utility.yul\":16013:16022   */\n      dup3\n        /* \"#utility.yul\":16009:16027   */\n      add\n        /* \"#utility.yul\":16001:16027   */\n      swap1\n      pop\n        /* \"#utility.yul\":16073:16082   */\n      dup2\n        /* \"#utility.yul\":16067:16071   */\n      dup2\n        /* \"#utility.yul\":16063:16083   */\n      sub\n        /* \"#utility.yul\":16059:16060   */\n      0x00\n        /* \"#utility.yul\":16048:16057   */\n      dup4\n        /* \"#utility.yul\":16044:16061   */\n      add\n        /* \"#utility.yul\":16037:16084   */\n      mstore\n        /* \"#utility.yul\":16101:16179   */\n      tag_284\n        /* \"#utility.yul\":16174:16178   */\n      dup2\n        /* \"#utility.yul\":16165:16171   */\n      dup5\n        /* \"#utility.yul\":16101:16179   */\n      tag_112\n      jump\t// in\n    tag_284:\n        /* \"#utility.yul\":16093:16179   */\n      swap1\n      pop\n        /* \"#utility.yul\":15873:16186   */\n      swap3\n      swap2\n      pop\n      pop\n      jump\t// out\n\n    auxdata: 0xa26469706673582212207b5f38b3769bbba16034d39541a0f4a5a20ce100eab5fcd0e53c6684be244ee064736f6c63430008120033\n}\n",
				"bytecode": {
					"linkReferences": {},
					"object": "608060405234801561001057600080fd5b50336000806101000a81548173ffffffffffffffffffffffffffffffffffffffff021916908373ffffffffffffffffffffffffffffffffffffffff160217905550610d10806100606000396000f3fe608060405234801561001057600080fd5b50600436106100575760003560e01c8063383bebae1461005c578063398dfa791461007857806348debcee146100965780635ef74afe146100c6578063df096576146100e2575b600080fd5b610076600480360381019061007191906105e9565b610100565b005b61008061020f565b60405161008d9190610786565b60405180910390f35b6100b060048036038101906100ab91906107a8565b610378565b6040516100bd9190610800565b60405180910390f35b6100e060048036038101906100db91906107a8565b6103c6565b005b6100ea610435565b6040516100f7919061085c565b60405180910390f35b3360008054906101000a900473ffffffffffffffffffffffffffffffffffffffff1673ffffffffffffffffffffffffffffffffffffffff168173ffffffffffffffffffffffffffffffffffffffff161461018f576040517f08c379a0000000000000000000000000000000000000000000000000000000008152600401610186906108fa565b60405180910390fd5b6000836040516020016101a29190610956565b6040516020818303038152906040528051906020012090508260016000838152602001908152602001600020819055507f0a3c6f62477defa9fa18ec25f11bc12442e443ba8e3d8f822e381b98c0f39b08816040516102019190610986565b60405180910390a150505050565b60603360008054906101000a900473ffffffffffffffffffffffffffffffffffffffff1673ffffffffffffffffffffffffffffffffffffffff168173ffffffffffffffffffffffffffffffffffffffff16146102a0576040517f08c379a0000000000000000000000000000000000000000000000000000000008152600401610297906108fa565b60405180910390fd5b6002805480602002602001604051908101604052809291908181526020016000905b8282101561036e5783829060005260206000200180546102e1906109d0565b80601f016020809104026020016040519081016040528092919081815260200182805461030d906109d0565b801561035a5780601f1061032f5761010080835404028352916020019161035a565b820191906000526020600020905b81548152906001019060200180831161033d57829003601f168201915b5050505050815260200190600101906102c2565b5050505091505090565b6000808260405160200161038c9190610956565b6040516020818303038152906040528051906020012090506000600160008381526020019081526020016000205490508092505050919050565b6002819080600181540180825580915050600190039060005260206000200160009091909190915090816103fa9190610bad565b507f2106682f28b0ca24370a9e991461ab39ab8032fb3df73fb628728436cf5bcdf68160405161042a9190610cb8565b60405180910390a150565b60008054906101000a900473ffffffffffffffffffffffffffffffffffffffff1681565b6000604051905090565b600080fd5b600080fd5b600080fd5b600080fd5b6000601f19601f8301169050919050565b7f4e487b7100000000000000000000000000000000000000000000000000000000600052604160045260246000fd5b6104c082610477565b810181811067ffffffffffffffff821117156104df576104de610488565b5b80604052505050565b60006104f2610459565b90506104fe82826104b7565b919050565b600067ffffffffffffffff82111561051e5761051d610488565b5b61052782610477565b9050602081019050919050565b82818337600083830152505050565b600061055661055184610503565b6104e8565b90508281526020810184848401111561057257610571610472565b5b61057d848285610534565b509392505050565b600082601f83011261059a5761059961046d565b5b81356105aa848260208601610543565b91505092915050565b6000819050919050565b6105c6816105b3565b81146105d157600080fd5b50565b6000813590506105e3816105bd565b92915050565b60008060408385031215610600576105ff610463565b5b600083013567ffffffffffffffff81111561061e5761061d610468565b5b61062a85828601610585565b925050602061063b858286016105d4565b9150509250929050565b600081519050919050565b600082825260208201905092915050565b6000819050602082019050919050565b600081519050919050565b600082825260208201905092915050565b60005b838110156106ab578082015181840152602081019050610690565b60008484015250505050565b60006106c282610671565b6106cc818561067c565b93506106dc81856020860161068d565b6106e581610477565b840191505092915050565b60006106fc83836106b7565b905092915050565b6000602082019050919050565b600061071c82610645565b6107268185610650565b93508360208202850161073885610661565b8060005b85811015610774578484038952815161075585826106f0565b945061076083610704565b925060208a0199505060018101905061073c565b50829750879550505050505092915050565b600060208201905081810360008301526107a08184610711565b905092915050565b6000602082840312156107be576107bd610463565b5b600082013567ffffffffffffffff8111156107dc576107db610468565b5b6107e884828501610585565b91505092915050565b6107fa816105b3565b82525050565b600060208201905061081560008301846107f1565b92915050565b600073ffffffffffffffffffffffffffffffffffffffff82169050919050565b60006108468261081b565b9050919050565b6108568161083b565b82525050565b6000602082019050610871600083018461084d565b92915050565b600082825260208201905092915050565b7f4e6f207469656e6573207065726d69736f73207061726120656a65637574617260008201527f20657374612066756e63696f6e2e000000000000000000000000000000000000602082015250565b60006108e4602e83610877565b91506108ef82610888565b604082019050919050565b60006020820190508181036000830152610913816108d7565b9050919050565b600081905092915050565b600061093082610671565b61093a818561091a565b935061094a81856020860161068d565b80840191505092915050565b60006109628284610925565b915081905092915050565b6000819050919050565b6109808161096d565b82525050565b600060208201905061099b6000830184610977565b92915050565b7f4e487b7100000000000000000000000000000000000000000000000000000000600052602260045260246000fd5b600060028204905060018216806109e857607f821691505b6020821081036109fb576109fa6109a1565b5b50919050565b60008190508160005260206000209050919050565b60006020601f8301049050919050565b600082821b905092915050565b600060088302610a637fffffffffffffffffffffffffffffffffffffffffffffffffffffffffffffffff82610a26565b610a6d8683610a26565b95508019841693508086168417925050509392505050565b6000819050919050565b6000610aaa610aa5610aa0846105b3565b610a85565b6105b3565b9050919050565b6000819050919050565b610ac483610a8f565b610ad8610ad082610ab1565b848454610a33565b825550505050565b600090565b610aed610ae0565b610af8818484610abb565b505050565b5b81811015610b1c57610b11600082610ae5565b600181019050610afe565b5050565b601f821115610b6157610b3281610a01565b610b3b84610a16565b81016020851015610b4a578190505b610b5e610b5685610a16565b830182610afd565b50505b505050565b600082821c905092915050565b6000610b8460001984600802610b66565b1980831691505092915050565b6000610b9d8383610b73565b9150826002028217905092915050565b610bb682610671565b67ffffffffffffffff811115610bcf57610bce610488565b5b610bd982546109d0565b610be4828285610b20565b600060209050601f831160018114610c175760008415610c05578287015190505b610c0f8582610b91565b865550610c77565b601f198416610c2586610a01565b60005b82811015610c4d57848901518255600182019150602085019450602081019050610c28565b86831015610c6a5784890151610c66601f891682610b73565b8355505b6001600288020188555050505b505050505050565b6000610c8a82610671565b610c948185610877565b9350610ca481856020860161068d565b610cad81610477565b840191505092915050565b60006020820190508181036000830152610cd28184610c7f565b90509291505056fea26469706673582212207b5f38b3769bbba16034d39541a0f4a5a20ce100eab5fcd0e53c6684be244ee064736f6c63430008120033",
					"opcodes": "PUSH1 0x80 PUSH1 0x40 MSTORE CALLVALUE DUP1 ISZERO PUSH2 0x10 JUMPI PUSH1 0x0 DUP1 REVERT JUMPDEST POP CALLER PUSH1 0x0 DUP1 PUSH2 0x100 EXP DUP2 SLOAD DUP2 PUSH20 0xFFFFFFFFFFFFFFFFFFFFFFFFFFFFFFFFFFFFFFFF MUL NOT AND SWAP1 DUP4 PUSH20 0xFFFFFFFFFFFFFFFFFFFFFFFFFFFFFFFFFFFFFFFF AND MUL OR SWAP1 SSTORE POP PUSH2 0xD10 DUP1 PUSH2 0x60 PUSH1 0x0 CODECOPY PUSH1 0x0 RETURN INVALID PUSH1 0x80 PUSH1 0x40 MSTORE CALLVALUE DUP1 ISZERO PUSH2 0x10 JUMPI PUSH1 0x0 DUP1 REVERT JUMPDEST POP PUSH1 0x4 CALLDATASIZE LT PUSH2 0x57 JUMPI PUSH1 0x0 CALLDATALOAD PUSH1 0xE0 SHR DUP1 PUSH4 0x383BEBAE EQ PUSH2 0x5C JUMPI DUP1 PUSH4 0x398DFA79 EQ PUSH2 0x78 JUMPI DUP1 PUSH4 0x48DEBCEE EQ PUSH2 0x96 JUMPI DUP1 PUSH4 0x5EF74AFE EQ PUSH2 0xC6 JUMPI DUP1 PUSH4 0xDF096576 EQ PUSH2 0xE2 JUMPI JUMPDEST PUSH1 0x0 DUP1 REVERT JUMPDEST PUSH2 0x76 PUSH1 0x4 DUP1 CALLDATASIZE SUB DUP2 ADD SWAP1 PUSH2 0x71 SWAP2 SWAP1 PUSH2 0x5E9 JUMP JUMPDEST PUSH2 0x100 JUMP JUMPDEST STOP JUMPDEST PUSH2 0x80 PUSH2 0x20F JUMP JUMPDEST PUSH1 0x40 MLOAD PUSH2 0x8D SWAP2 SWAP1 PUSH2 0x786 JUMP JUMPDEST PUSH1 0x40 MLOAD DUP1 SWAP2 SUB SWAP1 RETURN JUMPDEST PUSH2 0xB0 PUSH1 0x4 DUP1 CALLDATASIZE SUB DUP2 ADD SWAP1 PUSH2 0xAB SWAP2 SWAP1 PUSH2 0x7A8 JUMP JUMPDEST PUSH2 0x378 JUMP JUMPDEST PUSH1 0x40 MLOAD PUSH2 0xBD SWAP2 SWAP1 PUSH2 0x800 JUMP JUMPDEST PUSH1 0x40 MLOAD DUP1 SWAP2 SUB SWAP1 RETURN JUMPDEST PUSH2 0xE0 PUSH1 0x4 DUP1 CALLDATASIZE SUB DUP2 ADD SWAP1 PUSH2 0xDB SWAP2 SWAP1 PUSH2 0x7A8 JUMP JUMPDEST PUSH2 0x3C6 JUMP JUMPDEST STOP JUMPDEST PUSH2 0xEA PUSH2 0x435 JUMP JUMPDEST PUSH1 0x40 MLOAD PUSH2 0xF7 SWAP2 SWAP1 PUSH2 0x85C JUMP JUMPDEST PUSH1 0x40 MLOAD DUP1 SWAP2 SUB SWAP1 RETURN JUMPDEST CALLER PUSH1 0x0 DUP1 SLOAD SWAP1 PUSH2 0x100 EXP SWAP1 DIV PUSH20 0xFFFFFFFFFFFFFFFFFFFFFFFFFFFFFFFFFFFFFFFF AND PUSH20 0xFFFFFFFFFFFFFFFFFFFFFFFFFFFFFFFFFFFFFFFF AND DUP2 PUSH20 0xFFFFFFFFFFFFFFFFFFFFFFFFFFFFFFFFFFFFFFFF AND EQ PUSH2 0x18F JUMPI PUSH1 0x40 MLOAD PUSH32 0x8C379A000000000000000000000000000000000000000000000000000000000 DUP2 MSTORE PUSH1 0x4 ADD PUSH2 0x186 SWAP1 PUSH2 0x8FA JUMP JUMPDEST PUSH1 0x40 MLOAD DUP1 SWAP2 SUB SWAP1 REVERT JUMPDEST PUSH1 0x0 DUP4 PUSH1 0x40 MLOAD PUSH1 0x20 ADD PUSH2 0x1A2 SWAP2 SWAP1 PUSH2 0x956 JUMP JUMPDEST PUSH1 0x40 MLOAD PUSH1 0x20 DUP2 DUP4 SUB SUB DUP2 MSTORE SWAP1 PUSH1 0x40 MSTORE DUP1 MLOAD SWAP1 PUSH1 0x20 ADD KECCAK256 SWAP1 POP DUP3 PUSH1 0x1 PUSH1 0x0 DUP4 DUP2 MSTORE PUSH1 0x20 ADD SWAP1 DUP2 MSTORE PUSH1 0x20 ADD PUSH1 0x0 KECCAK256 DUP2 SWAP1 SSTORE POP PUSH32 0xA3C6F62477DEFA9FA18EC25F11BC12442E443BA8E3D8F822E381B98C0F39B08 DUP2 PUSH1 0x40 MLOAD PUSH2 0x201 SWAP2 SWAP1 PUSH2 0x986 JUMP JUMPDEST PUSH1 0x40 MLOAD DUP1 SWAP2 SUB SWAP1 LOG1 POP POP POP POP JUMP JUMPDEST PUSH1 0x60 CALLER PUSH1 0x0 DUP1 SLOAD SWAP1 PUSH2 0x100 EXP SWAP1 DIV PUSH20 0xFFFFFFFFFFFFFFFFFFFFFFFFFFFFFFFFFFFFFFFF AND PUSH20 0xFFFFFFFFFFFFFFFFFFFFFFFFFFFFFFFFFFFFFFFF AND DUP2 PUSH20 0xFFFFFFFFFFFFFFFFFFFFFFFFFFFFFFFFFFFFFFFF AND EQ PUSH2 0x2A0 JUMPI PUSH1 0x40 MLOAD PUSH32 0x8C379A000000000000000000000000000000000000000000000000000000000 DUP2 MSTORE PUSH1 0x4 ADD PUSH2 0x297 SWAP1 PUSH2 0x8FA JUMP JUMPDEST PUSH1 0x40 MLOAD DUP1 SWAP2 SUB SWAP1 REVERT JUMPDEST PUSH1 0x2 DUP1 SLOAD DUP1 PUSH1 0x20 MUL PUSH1 0x20 ADD PUSH1 0x40 MLOAD SWAP1 DUP2 ADD PUSH1 0x40 MSTORE DUP1 SWAP3 SWAP2 SWAP1 DUP2 DUP2 MSTORE PUSH1 0x20 ADD PUSH1 0x0 SWAP1 JUMPDEST DUP3 DUP3 LT ISZERO PUSH2 0x36E JUMPI DUP4 DUP3 SWAP1 PUSH1 0x0 MSTORE PUSH1 0x20 PUSH1 0x0 KECCAK256 ADD DUP1 SLOAD PUSH2 0x2E1 SWAP1 PUSH2 0x9D0 JUMP JUMPDEST DUP1 PUSH1 0x1F ADD PUSH1 0x20 DUP1 SWAP2 DIV MUL PUSH1 0x20 ADD PUSH1 0x40 MLOAD SWAP1 DUP2 ADD PUSH1 0x40 MSTORE DUP1 SWAP3 SWAP2 SWAP1 DUP2 DUP2 MSTORE PUSH1 0x20 ADD DUP3 DUP1 SLOAD PUSH2 0x30D SWAP1 PUSH2 0x9D0 JUMP JUMPDEST DUP1 ISZERO PUSH2 0x35A JUMPI DUP1 PUSH1 0x1F LT PUSH2 0x32F JUMPI PUSH2 0x100 DUP1 DUP4 SLOAD DIV MUL DUP4 MSTORE SWAP2 PUSH1 0x20 ADD SWAP2 PUSH2 0x35A JUMP JUMPDEST DUP3 ADD SWAP2 SWAP1 PUSH1 0x0 MSTORE PUSH1 0x20 PUSH1 0x0 KECCAK256 SWAP1 JUMPDEST DUP2 SLOAD DUP2 MSTORE SWAP1 PUSH1 0x1 ADD SWAP1 PUSH1 0x20 ADD DUP1 DUP4 GT PUSH2 0x33D JUMPI DUP3 SWAP1 SUB PUSH1 0x1F AND DUP3 ADD SWAP2 JUMPDEST POP POP POP POP POP DUP2 MSTORE PUSH1 0x20 ADD SWAP1 PUSH1 0x1 ADD SWAP1 PUSH2 0x2C2 JUMP JUMPDEST POP POP POP POP SWAP2 POP POP SWAP1 JUMP JUMPDEST PUSH1 0x0 DUP1 DUP3 PUSH1 0x40 MLOAD PUSH1 0x20 ADD PUSH2 0x38C SWAP2 SWAP1 PUSH2 0x956 JUMP JUMPDEST PUSH1 0x40 MLOAD PUSH1 0x20 DUP2 DUP4 SUB SUB DUP2 MSTORE SWAP1 PUSH1 0x40 MSTORE DUP1 MLOAD SWAP1 PUSH1 0x20 ADD KECCAK256 SWAP1 POP PUSH1 0x0 PUSH1 0x1 PUSH1 0x0 DUP4 DUP2 MSTORE PUSH1 0x20 ADD SWAP1 DUP2 MSTORE PUSH1 0x20 ADD PUSH1 0x0 KECCAK256 SLOAD SWAP1 POP DUP1 SWAP3 POP POP POP SWAP2 SWAP1 POP JUMP JUMPDEST PUSH1 0x2 DUP2 SWAP1 DUP1 PUSH1 0x1 DUP2 SLOAD ADD DUP1 DUP3 SSTORE DUP1 SWAP2 POP POP PUSH1 0x1 SWAP1 SUB SWAP1 PUSH1 0x0 MSTORE PUSH1 0x20 PUSH1 0x0 KECCAK256 ADD PUSH1 0x0 SWAP1 SWAP2 SWAP1 SWAP2 SWAP1 SWAP2 POP SWAP1 DUP2 PUSH2 0x3FA SWAP2 SWAP1 PUSH2 0xBAD JUMP JUMPDEST POP PUSH32 0x2106682F28B0CA24370A9E991461AB39AB8032FB3DF73FB628728436CF5BCDF6 DUP2 PUSH1 0x40 MLOAD PUSH2 0x42A SWAP2 SWAP1 PUSH2 0xCB8 JUMP JUMPDEST PUSH1 0x40 MLOAD DUP1 SWAP2 SUB SWAP1 LOG1 POP JUMP JUMPDEST PUSH1 0x0 DUP1 SLOAD SWAP1 PUSH2 0x100 EXP SWAP1 DIV PUSH20 0xFFFFFFFFFFFFFFFFFFFFFFFFFFFFFFFFFFFFFFFF AND DUP2 JUMP JUMPDEST PUSH1 0x0 PUSH1 0x40 MLOAD SWAP1 POP SWAP1 JUMP JUMPDEST PUSH1 0x0 DUP1 REVERT JUMPDEST PUSH1 0x0 DUP1 REVERT JUMPDEST PUSH1 0x0 DUP1 REVERT JUMPDEST PUSH1 0x0 DUP1 REVERT JUMPDEST PUSH1 0x0 PUSH1 0x1F NOT PUSH1 0x1F DUP4 ADD AND SWAP1 POP SWAP2 SWAP1 POP JUMP JUMPDEST PUSH32 0x4E487B7100000000000000000000000000000000000000000000000000000000 PUSH1 0x0 MSTORE PUSH1 0x41 PUSH1 0x4 MSTORE PUSH1 0x24 PUSH1 0x0 REVERT JUMPDEST PUSH2 0x4C0 DUP3 PUSH2 0x477 JUMP JUMPDEST DUP2 ADD DUP2 DUP2 LT PUSH8 0xFFFFFFFFFFFFFFFF DUP3 GT OR ISZERO PUSH2 0x4DF JUMPI PUSH2 0x4DE PUSH2 0x488 JUMP JUMPDEST JUMPDEST DUP1 PUSH1 0x40 MSTORE POP POP POP JUMP JUMPDEST PUSH1 0x0 PUSH2 0x4F2 PUSH2 0x459 JUMP JUMPDEST SWAP1 POP PUSH2 0x4FE DUP3 DUP3 PUSH2 0x4B7 JUMP JUMPDEST SWAP2 SWAP1 POP JUMP JUMPDEST PUSH1 0x0 PUSH8 0xFFFFFFFFFFFFFFFF DUP3 GT ISZERO PUSH2 0x51E JUMPI PUSH2 0x51D PUSH2 0x488 JUMP JUMPDEST JUMPDEST PUSH2 0x527 DUP3 PUSH2 0x477 JUMP JUMPDEST SWAP1 POP PUSH1 0x20 DUP2 ADD SWAP1 POP SWAP2 SWAP1 POP JUMP JUMPDEST DUP3 DUP2 DUP4 CALLDATACOPY PUSH1 0x0 DUP4 DUP4 ADD MSTORE POP POP POP JUMP JUMPDEST PUSH1 0x0 PUSH2 0x556 PUSH2 0x551 DUP5 PUSH2 0x503 JUMP JUMPDEST PUSH2 0x4E8 JUMP JUMPDEST SWAP1 POP DUP3 DUP2 MSTORE PUSH1 0x20 DUP2 ADD DUP5 DUP5 DUP5 ADD GT ISZERO PUSH2 0x572 JUMPI PUSH2 0x571 PUSH2 0x472 JUMP JUMPDEST JUMPDEST PUSH2 0x57D DUP5 DUP3 DUP6 PUSH2 0x534 JUMP JUMPDEST POP SWAP4 SWAP3 POP POP POP JUMP JUMPDEST PUSH1 0x0 DUP3 PUSH1 0x1F DUP4 ADD SLT PUSH2 0x59A JUMPI PUSH2 0x599 PUSH2 0x46D JUMP JUMPDEST JUMPDEST DUP2 CALLDATALOAD PUSH2 0x5AA DUP5 DUP3 PUSH1 0x20 DUP7 ADD PUSH2 0x543 JUMP JUMPDEST SWAP2 POP POP SWAP3 SWAP2 POP POP JUMP JUMPDEST PUSH1 0x0 DUP2 SWAP1 POP SWAP2 SWAP1 POP JUMP JUMPDEST PUSH2 0x5C6 DUP2 PUSH2 0x5B3 JUMP JUMPDEST DUP2 EQ PUSH2 0x5D1 JUMPI PUSH1 0x0 DUP1 REVERT JUMPDEST POP JUMP JUMPDEST PUSH1 0x0 DUP2 CALLDATALOAD SWAP1 POP PUSH2 0x5E3 DUP2 PUSH2 0x5BD JUMP JUMPDEST SWAP3 SWAP2 POP POP JUMP JUMPDEST PUSH1 0x0 DUP1 PUSH1 0x40 DUP4 DUP6 SUB SLT ISZERO PUSH2 0x600 JUMPI PUSH2 0x5FF PUSH2 0x463 JUMP JUMPDEST JUMPDEST PUSH1 0x0 DUP4 ADD CALLDATALOAD PUSH8 0xFFFFFFFFFFFFFFFF DUP2 GT ISZERO PUSH2 0x61E JUMPI PUSH2 0x61D PUSH2 0x468 JUMP JUMPDEST JUMPDEST PUSH2 0x62A DUP6 DUP3 DUP7 ADD PUSH2 0x585 JUMP JUMPDEST SWAP3 POP POP PUSH1 0x20 PUSH2 0x63B DUP6 DUP3 DUP7 ADD PUSH2 0x5D4 JUMP JUMPDEST SWAP2 POP POP SWAP3 POP SWAP3 SWAP1 POP JUMP JUMPDEST PUSH1 0x0 DUP2 MLOAD SWAP1 POP SWAP2 SWAP1 POP JUMP JUMPDEST PUSH1 0x0 DUP3 DUP3 MSTORE PUSH1 0x20 DUP3 ADD SWAP1 POP SWAP3 SWAP2 POP POP JUMP JUMPDEST PUSH1 0x0 DUP2 SWAP1 POP PUSH1 0x20 DUP3 ADD SWAP1 POP SWAP2 SWAP1 POP JUMP JUMPDEST PUSH1 0x0 DUP2 MLOAD SWAP1 POP SWAP2 SWAP1 POP JUMP JUMPDEST PUSH1 0x0 DUP3 DUP3 MSTORE PUSH1 0x20 DUP3 ADD SWAP1 POP SWAP3 SWAP2 POP POP JUMP JUMPDEST PUSH1 0x0 JUMPDEST DUP4 DUP2 LT ISZERO PUSH2 0x6AB JUMPI DUP1 DUP3 ADD MLOAD DUP2 DUP5 ADD MSTORE PUSH1 0x20 DUP2 ADD SWAP1 POP PUSH2 0x690 JUMP JUMPDEST PUSH1 0x0 DUP5 DUP5 ADD MSTORE POP POP POP POP JUMP JUMPDEST PUSH1 0x0 PUSH2 0x6C2 DUP3 PUSH2 0x671 JUMP JUMPDEST PUSH2 0x6CC DUP2 DUP6 PUSH2 0x67C JUMP JUMPDEST SWAP4 POP PUSH2 0x6DC DUP2 DUP6 PUSH1 0x20 DUP7 ADD PUSH2 0x68D JUMP JUMPDEST PUSH2 0x6E5 DUP2 PUSH2 0x477 JUMP JUMPDEST DUP5 ADD SWAP2 POP POP SWAP3 SWAP2 POP POP JUMP JUMPDEST PUSH1 0x0 PUSH2 0x6FC DUP4 DUP4 PUSH2 0x6B7 JUMP JUMPDEST SWAP1 POP SWAP3 SWAP2 POP POP JUMP JUMPDEST PUSH1 0x0 PUSH1 0x20 DUP3 ADD SWAP1 POP SWAP2 SWAP1 POP JUMP JUMPDEST PUSH1 0x0 PUSH2 0x71C DUP3 PUSH2 0x645 JUMP JUMPDEST PUSH2 0x726 DUP2 DUP6 PUSH2 0x650 JUMP JUMPDEST SWAP4 POP DUP4 PUSH1 0x20 DUP3 MUL DUP6 ADD PUSH2 0x738 DUP6 PUSH2 0x661 JUMP JUMPDEST DUP1 PUSH1 0x0 JUMPDEST DUP6 DUP2 LT ISZERO PUSH2 0x774 JUMPI DUP5 DUP5 SUB DUP10 MSTORE DUP2 MLOAD PUSH2 0x755 DUP6 DUP3 PUSH2 0x6F0 JUMP JUMPDEST SWAP5 POP PUSH2 0x760 DUP4 PUSH2 0x704 JUMP JUMPDEST SWAP3 POP PUSH1 0x20 DUP11 ADD SWAP10 POP POP PUSH1 0x1 DUP2 ADD SWAP1 POP PUSH2 0x73C JUMP JUMPDEST POP DUP3 SWAP8 POP DUP8 SWAP6 POP POP POP POP POP POP SWAP3 SWAP2 POP POP JUMP JUMPDEST PUSH1 0x0 PUSH1 0x20 DUP3 ADD SWAP1 POP DUP2 DUP2 SUB PUSH1 0x0 DUP4 ADD MSTORE PUSH2 0x7A0 DUP2 DUP5 PUSH2 0x711 JUMP JUMPDEST SWAP1 POP SWAP3 SWAP2 POP POP JUMP JUMPDEST PUSH1 0x0 PUSH1 0x20 DUP3 DUP5 SUB SLT ISZERO PUSH2 0x7BE JUMPI PUSH2 0x7BD PUSH2 0x463 JUMP JUMPDEST JUMPDEST PUSH1 0x0 DUP3 ADD CALLDATALOAD PUSH8 0xFFFFFFFFFFFFFFFF DUP2 GT ISZERO PUSH2 0x7DC JUMPI PUSH2 0x7DB PUSH2 0x468 JUMP JUMPDEST JUMPDEST PUSH2 0x7E8 DUP5 DUP3 DUP6 ADD PUSH2 0x585 JUMP JUMPDEST SWAP2 POP POP SWAP3 SWAP2 POP POP JUMP JUMPDEST PUSH2 0x7FA DUP2 PUSH2 0x5B3 JUMP JUMPDEST DUP3 MSTORE POP POP JUMP JUMPDEST PUSH1 0x0 PUSH1 0x20 DUP3 ADD SWAP1 POP PUSH2 0x815 PUSH1 0x0 DUP4 ADD DUP5 PUSH2 0x7F1 JUMP JUMPDEST SWAP3 SWAP2 POP POP JUMP JUMPDEST PUSH1 0x0 PUSH20 0xFFFFFFFFFFFFFFFFFFFFFFFFFFFFFFFFFFFFFFFF DUP3 AND SWAP1 POP SWAP2 SWAP1 POP JUMP JUMPDEST PUSH1 0x0 PUSH2 0x846 DUP3 PUSH2 0x81B JUMP JUMPDEST SWAP1 POP SWAP2 SWAP1 POP JUMP JUMPDEST PUSH2 0x856 DUP2 PUSH2 0x83B JUMP JUMPDEST DUP3 MSTORE POP POP JUMP JUMPDEST PUSH1 0x0 PUSH1 0x20 DUP3 ADD SWAP1 POP PUSH2 0x871 PUSH1 0x0 DUP4 ADD DUP5 PUSH2 0x84D JUMP JUMPDEST SWAP3 SWAP2 POP POP JUMP JUMPDEST PUSH1 0x0 DUP3 DUP3 MSTORE PUSH1 0x20 DUP3 ADD SWAP1 POP SWAP3 SWAP2 POP POP JUMP JUMPDEST PUSH32 0x4E6F207469656E6573207065726D69736F73207061726120656A656375746172 PUSH1 0x0 DUP3 ADD MSTORE PUSH32 0x20657374612066756E63696F6E2E000000000000000000000000000000000000 PUSH1 0x20 DUP3 ADD MSTORE POP JUMP JUMPDEST PUSH1 0x0 PUSH2 0x8E4 PUSH1 0x2E DUP4 PUSH2 0x877 JUMP JUMPDEST SWAP2 POP PUSH2 0x8EF DUP3 PUSH2 0x888 JUMP JUMPDEST PUSH1 0x40 DUP3 ADD SWAP1 POP SWAP2 SWAP1 POP JUMP JUMPDEST PUSH1 0x0 PUSH1 0x20 DUP3 ADD SWAP1 POP DUP2 DUP2 SUB PUSH1 0x0 DUP4 ADD MSTORE PUSH2 0x913 DUP2 PUSH2 0x8D7 JUMP JUMPDEST SWAP1 POP SWAP2 SWAP1 POP JUMP JUMPDEST PUSH1 0x0 DUP2 SWAP1 POP SWAP3 SWAP2 POP POP JUMP JUMPDEST PUSH1 0x0 PUSH2 0x930 DUP3 PUSH2 0x671 JUMP JUMPDEST PUSH2 0x93A DUP2 DUP6 PUSH2 0x91A JUMP JUMPDEST SWAP4 POP PUSH2 0x94A DUP2 DUP6 PUSH1 0x20 DUP7 ADD PUSH2 0x68D JUMP JUMPDEST DUP1 DUP5 ADD SWAP2 POP POP SWAP3 SWAP2 POP POP JUMP JUMPDEST PUSH1 0x0 PUSH2 0x962 DUP3 DUP5 PUSH2 0x925 JUMP JUMPDEST SWAP2 POP DUP2 SWAP1 POP SWAP3 SWAP2 POP POP JUMP JUMPDEST PUSH1 0x0 DUP2 SWAP1 POP SWAP2 SWAP1 POP JUMP JUMPDEST PUSH2 0x980 DUP2 PUSH2 0x96D JUMP JUMPDEST DUP3 MSTORE POP POP JUMP JUMPDEST PUSH1 0x0 PUSH1 0x20 DUP3 ADD SWAP1 POP PUSH2 0x99B PUSH1 0x0 DUP4 ADD DUP5 PUSH2 0x977 JUMP JUMPDEST SWAP3 SWAP2 POP POP JUMP JUMPDEST PUSH32 0x4E487B7100000000000000000000000000000000000000000000000000000000 PUSH1 0x0 MSTORE PUSH1 0x22 PUSH1 0x4 MSTORE PUSH1 0x24 PUSH1 0x0 REVERT JUMPDEST PUSH1 0x0 PUSH1 0x2 DUP3 DIV SWAP1 POP PUSH1 0x1 DUP3 AND DUP1 PUSH2 0x9E8 JUMPI PUSH1 0x7F DUP3 AND SWAP2 POP JUMPDEST PUSH1 0x20 DUP3 LT DUP2 SUB PUSH2 0x9FB JUMPI PUSH2 0x9FA PUSH2 0x9A1 JUMP JUMPDEST JUMPDEST POP SWAP2 SWAP1 POP JUMP JUMPDEST PUSH1 0x0 DUP2 SWAP1 POP DUP2 PUSH1 0x0 MSTORE PUSH1 0x20 PUSH1 0x0 KECCAK256 SWAP1 POP SWAP2 SWAP1 POP JUMP JUMPDEST PUSH1 0x0 PUSH1 0x20 PUSH1 0x1F DUP4 ADD DIV SWAP1 POP SWAP2 SWAP1 POP JUMP JUMPDEST PUSH1 0x0 DUP3 DUP3 SHL SWAP1 POP SWAP3 SWAP2 POP POP JUMP JUMPDEST PUSH1 0x0 PUSH1 0x8 DUP4 MUL PUSH2 0xA63 PUSH32 0xFFFFFFFFFFFFFFFFFFFFFFFFFFFFFFFFFFFFFFFFFFFFFFFFFFFFFFFFFFFFFFFF DUP3 PUSH2 0xA26 JUMP JUMPDEST PUSH2 0xA6D DUP7 DUP4 PUSH2 0xA26 JUMP JUMPDEST SWAP6 POP DUP1 NOT DUP5 AND SWAP4 POP DUP1 DUP7 AND DUP5 OR SWAP3 POP POP POP SWAP4 SWAP3 POP POP POP JUMP JUMPDEST PUSH1 0x0 DUP2 SWAP1 POP SWAP2 SWAP1 POP JUMP JUMPDEST PUSH1 0x0 PUSH2 0xAAA PUSH2 0xAA5 PUSH2 0xAA0 DUP5 PUSH2 0x5B3 JUMP JUMPDEST PUSH2 0xA85 JUMP JUMPDEST PUSH2 0x5B3 JUMP JUMPDEST SWAP1 POP SWAP2 SWAP1 POP JUMP JUMPDEST PUSH1 0x0 DUP2 SWAP1 POP SWAP2 SWAP1 POP JUMP JUMPDEST PUSH2 0xAC4 DUP4 PUSH2 0xA8F JUMP JUMPDEST PUSH2 0xAD8 PUSH2 0xAD0 DUP3 PUSH2 0xAB1 JUMP JUMPDEST DUP5 DUP5 SLOAD PUSH2 0xA33 JUMP JUMPDEST DUP3 SSTORE POP POP POP POP JUMP JUMPDEST PUSH1 0x0 SWAP1 JUMP JUMPDEST PUSH2 0xAED PUSH2 0xAE0 JUMP JUMPDEST PUSH2 0xAF8 DUP2 DUP5 DUP5 PUSH2 0xABB JUMP JUMPDEST POP POP POP JUMP JUMPDEST JUMPDEST DUP2 DUP2 LT ISZERO PUSH2 0xB1C JUMPI PUSH2 0xB11 PUSH1 0x0 DUP3 PUSH2 0xAE5 JUMP JUMPDEST PUSH1 0x1 DUP2 ADD SWAP1 POP PUSH2 0xAFE JUMP JUMPDEST POP POP JUMP JUMPDEST PUSH1 0x1F DUP3 GT ISZERO PUSH2 0xB61 JUMPI PUSH2 0xB32 DUP2 PUSH2 0xA01 JUMP JUMPDEST PUSH2 0xB3B DUP5 PUSH2 0xA16 JUMP JUMPDEST DUP2 ADD PUSH1 0x20 DUP6 LT ISZERO PUSH2 0xB4A JUMPI DUP2 SWAP1 POP JUMPDEST PUSH2 0xB5E PUSH2 0xB56 DUP6 PUSH2 0xA16 JUMP JUMPDEST DUP4 ADD DUP3 PUSH2 0xAFD JUMP JUMPDEST POP POP JUMPDEST POP POP POP JUMP JUMPDEST PUSH1 0x0 DUP3 DUP3 SHR SWAP1 POP SWAP3 SWAP2 POP POP JUMP JUMPDEST PUSH1 0x0 PUSH2 0xB84 PUSH1 0x0 NOT DUP5 PUSH1 0x8 MUL PUSH2 0xB66 JUMP JUMPDEST NOT DUP1 DUP4 AND SWAP2 POP POP SWAP3 SWAP2 POP POP JUMP JUMPDEST PUSH1 0x0 PUSH2 0xB9D DUP4 DUP4 PUSH2 0xB73 JUMP JUMPDEST SWAP2 POP DUP3 PUSH1 0x2 MUL DUP3 OR SWAP1 POP SWAP3 SWAP2 POP POP JUMP JUMPDEST PUSH2 0xBB6 DUP3 PUSH2 0x671 JUMP JUMPDEST PUSH8 0xFFFFFFFFFFFFFFFF DUP2 GT ISZERO PUSH2 0xBCF JUMPI PUSH2 0xBCE PUSH2 0x488 JUMP JUMPDEST JUMPDEST PUSH2 0xBD9 DUP3 SLOAD PUSH2 0x9D0 JUMP JUMPDEST PUSH2 0xBE4 DUP3 DUP3 DUP6 PUSH2 0xB20 JUMP JUMPDEST PUSH1 0x0 PUSH1 0x20 SWAP1 POP PUSH1 0x1F DUP4 GT PUSH1 0x1 DUP2 EQ PUSH2 0xC17 JUMPI PUSH1 0x0 DUP5 ISZERO PUSH2 0xC05 JUMPI DUP3 DUP8 ADD MLOAD SWAP1 POP JUMPDEST PUSH2 0xC0F DUP6 DUP3 PUSH2 0xB91 JUMP JUMPDEST DUP7 SSTORE POP PUSH2 0xC77 JUMP JUMPDEST PUSH1 0x1F NOT DUP5 AND PUSH2 0xC25 DUP7 PUSH2 0xA01 JUMP JUMPDEST PUSH1 0x0 JUMPDEST DUP3 DUP2 LT ISZERO PUSH2 0xC4D JUMPI DUP5 DUP10 ADD MLOAD DUP3 SSTORE PUSH1 0x1 DUP3 ADD SWAP2 POP PUSH1 0x20 DUP6 ADD SWAP5 POP PUSH1 0x20 DUP2 ADD SWAP1 POP PUSH2 0xC28 JUMP JUMPDEST DUP7 DUP4 LT ISZERO PUSH2 0xC6A JUMPI DUP5 DUP10 ADD MLOAD PUSH2 0xC66 PUSH1 0x1F DUP10 AND DUP3 PUSH2 0xB73 JUMP JUMPDEST DUP4 SSTORE POP JUMPDEST PUSH1 0x1 PUSH1 0x2 DUP9 MUL ADD DUP9 SSTORE POP POP POP JUMPDEST POP POP POP POP POP POP JUMP JUMPDEST PUSH1 0x0 PUSH2 0xC8A DUP3 PUSH2 0x671 JUMP JUMPDEST PUSH2 0xC94 DUP2 DUP6 PUSH2 0x877 JUMP JUMPDEST SWAP4 POP PUSH2 0xCA4 DUP2 DUP6 PUSH1 0x20 DUP7 ADD PUSH2 0x68D JUMP JUMPDEST PUSH2 0xCAD DUP2 PUSH2 0x477 JUMP JUMPDEST DUP5 ADD SWAP2 POP POP SWAP3 SWAP2 POP POP JUMP JUMPDEST PUSH1 0x0 PUSH1 0x20 DUP3 ADD SWAP1 POP DUP2 DUP2 SUB PUSH1 0x0 DUP4 ADD MSTORE PUSH2 0xCD2 DUP2 DUP5 PUSH2 0xC7F JUMP JUMPDEST SWAP1 POP SWAP3 SWAP2 POP POP JUMP INVALID LOG2 PUSH5 0x6970667358 0x22 SLT KECCAK256 PUSH28 0x5F38B3769BBBA16034D39541A0F4A5A20CE100EAB5FCD0E53C6684BE 0x24 0x4E 0xE0 PUSH5 0x736F6C6343 STOP ADDMOD SLT STOP CALLER "
				},
				"gasEstimates": {
					"creation": {
						"codeDepositCost": "668800",
						"executionCost": "24968",
						"totalCost": "693768"
					},
					"external": {
						"evaluar(string,uint256)": "infinite",
						"profesor()": "2577",
						"solicitarNota(string)": "infinite",
						"solocitarRevision(string)": "infinite",
						"verRevisiones()": "infinite"
					}
				},
				"methodIdentifiers": {
					"evaluar(string,uint256)": "383bebae",
					"profesor()": "df096576",
					"solicitarNota(string)": "48debcee",
					"solocitarRevision(string)": "5ef74afe",
					"verRevisiones()": "398dfa79"
				}
			},
			"storageLayout": {
				"storage": [
					{
						"astId": 3,
						"contract": "NOTAS/notas.sol:Notas",
						"label": "profesor",
						"offset": 0,
						"slot": "0",
						"type": "t_address"
					},
					{
						"astId": 16,
						"contract": "NOTAS/notas.sol:Notas",
						"label": "notas",
						"offset": 0,
						"slot": "1",
						"type": "t_mapping(t_bytes32,t_uint256)"
					},
					{
						"astId": 19,
						"contract": "NOTAS/notas.sol:Notas",
						"label": "revisiones",
						"offset": 0,
						"slot": "2",
						"type": "t_array(t_string_storage)dyn_storage"
					}
				],
				"types": {
					"t_address": {
						"encoding": "inplace",
						"label": "address",
						"numberOfBytes": "20"
					},
					"t_array(t_string_storage)dyn_storage": {
						"base": "t_string_storage",
						"encoding": "dynamic_array",
						"label": "string[]",
						"numberOfBytes": "32"
					},
					"t_bytes32": {
						"encoding": "inplace",
						"label": "bytes32",
						"numberOfBytes": "32"
					},
					"t_mapping(t_bytes32,t_uint256)": {
						"encoding": "mapping",
						"key": "t_bytes32",
						"label": "mapping(bytes32 => uint256)",
						"numberOfBytes": "32",
						"value": "t_uint256"
					},
					"t_string_storage": {
						"encoding": "bytes",
						"label": "string",
						"numberOfBytes": "32"
					},
					"t_uint256": {
						"encoding": "inplace",
						"label": "uint256",
						"numberOfBytes": "32"
					}
				}
			},
			"userdoc": {
				"kind": "user",
				"methods": {},
				"version": 1
			}
		}
	}
}