{
	"DISNEY/disney.sol": {
		"Disney": {
			"abi": [
				{
					"inputs": [],
					"stateMutability": "nonpayable",
					"type": "constructor"
				},
				{
					"anonymous": false,
					"inputs": [
						{
							"indexed": false,
							"internalType": "string",
							"name": "",
							"type": "string"
						}
					],
					"name": "bajaAtraccion",
					"type": "event"
				},
				{
					"anonymous": false,
					"inputs": [
						{
							"indexed": false,
							"internalType": "string",
							"name": "",
							"type": "string"
						},
						{
							"indexed": false,
							"internalType": "uint256",
							"name": "",
							"type": "uint256"
						},
						{
							"indexed": false,
							"internalType": "address",
							"name": "",
							"type": "address"
						}
					],
					"name": "disfrutaAtraccion",
					"type": "event"
				},
				{
					"anonymous": false,
					"inputs": [
						{
							"indexed": false,
							"internalType": "string",
							"name": "",
							"type": "string"
						},
						{
							"indexed": false,
							"internalType": "uint256",
							"name": "",
							"type": "uint256"
						},
						{
							"indexed": false,
							"internalType": "address",
							"name": "",
							"type": "address"
						}
					],
					"name": "disfrutaComida",
					"type": "event"
				},
				{
					"anonymous": false,
					"inputs": [
						{
							"indexed": false,
							"internalType": "string",
							"name": "",
							"type": "string"
						},
						{
							"indexed": false,
							"internalType": "uint256",
							"name": "",
							"type": "uint256"
						}
					],
					"name": "nuevaAtraccion",
					"type": "event"
				},
				{
					"anonymous": false,
					"inputs": [
						{
							"indexed": false,
							"internalType": "string",
							"name": "",
							"type": "string"
						},
						{
							"indexed": false,
							"internalType": "uint256",
							"name": "",
							"type": "uint256"
						}
					],
					"name": "nuevaComida",
					"type": "event"
				},
				{
					"anonymous": false,
					"inputs": [
						{
							"indexed": false,
							"internalType": "string",
							"name": "",
							"type": "string"
						}
					],
					"name": "quitarComida",
					"type": "event"
				},
				{
					"inputs": [
						{
							"internalType": "string",
							"name": "_nombreAtraccion",
							"type": "string"
						},
						{
							"internalType": "uint256",
							"name": "_precio",
							"type": "uint256"
						}
					],
					"name": "agregarAtraccion",
					"outputs": [],
					"stateMutability": "nonpayable",
					"type": "function"
				},
				{
					"inputs": [
						{
							"internalType": "string",
							"name": "_nombreComida",
							"type": "string"
						},
						{
							"internalType": "uint256",
							"name": "_precioComida",
							"type": "uint256"
						}
					],
					"name": "agregarComida",
					"outputs": [],
					"stateMutability": "nonpayable",
					"type": "function"
				},
				{
					"inputs": [],
					"name": "atraccionesDisponibles",
					"outputs": [
						{
							"internalType": "string[]",
							"name": "",
							"type": "string[]"
						}
					],
					"stateMutability": "view",
					"type": "function"
				},
				{
					"inputs": [
						{
							"internalType": "address",
							"name": "",
							"type": "address"
						}
					],
					"name": "clientes",
					"outputs": [
						{
							"internalType": "uint256",
							"name": "tokensComprados",
							"type": "uint256"
						}
					],
					"stateMutability": "view",
					"type": "function"
				},
				{
					"inputs": [
						{
							"internalType": "string",
							"name": "_nombreComida",
							"type": "string"
						}
					],
					"name": "comerComida",
					"outputs": [],
					"stateMutability": "nonpayable",
					"type": "function"
				},
				{
					"inputs": [
						{
							"internalType": "uint256",
							"name": "_numTokens",
							"type": "uint256"
						}
					],
					"name": "compraTokens",
					"outputs": [],
					"stateMutability": "payable",
					"type": "function"
				},
				{
					"inputs": [],
					"name": "consultarComidas",
					"outputs": [
						{
							"internalType": "string[]",
							"name": "",
							"type": "string[]"
						}
					],
					"stateMutability": "view",
					"type": "function"
				},
				{
					"inputs": [],
					"name": "consultarHistorialComidas",
					"outputs": [
						{
							"internalType": "string[]",
							"name": "",
							"type": "string[]"
						}
					],
					"stateMutability": "view",
					"type": "function"
				},
				{
					"inputs": [
						{
							"internalType": "string",
							"name": "_nombreAtraccion",
							"type": "string"
						}
					],
					"name": "deshabilitarAtraccion",
					"outputs": [],
					"stateMutability": "nonpayable",
					"type": "function"
				},
				{
					"inputs": [
						{
							"internalType": "uint256",
							"name": "_numTokens",
							"type": "uint256"
						}
					],
					"name": "devolverTokens",
					"outputs": [],
					"stateMutability": "payable",
					"type": "function"
				},
				{
					"inputs": [
						{
							"internalType": "string",
							"name": "_nombreComida",
							"type": "string"
						}
					],
					"name": "eliminarComida",
					"outputs": [],
					"stateMutability": "nonpayable",
					"type": "function"
				},
				{
					"inputs": [
						{
							"internalType": "uint256",
							"name": "_numTokens",
							"type": "uint256"
						}
					],
					"name": "generaTokens",
					"outputs": [],
					"stateMutability": "nonpayable",
					"type": "function"
				},
				{
					"inputs": [],
					"name": "historial",
					"outputs": [
						{
							"internalType": "string[]",
							"name": "",
							"type": "string[]"
						}
					],
					"stateMutability": "view",
					"type": "function"
				},
				{
					"inputs": [
						{
							"internalType": "string",
							"name": "",
							"type": "string"
						}
					],
					"name": "mappingAtracciones",
					"outputs": [
						{
							"internalType": "string",
							"name": "nombre",
							"type": "string"
						},
						{
							"internalType": "uint256",
							"name": "precio",
							"type": "uint256"
						},
						{
							"internalType": "bool",
							"name": "estado",
							"type": "bool"
						}
					],
					"stateMutability": "view",
					"type": "function"
				},
				{
					"inputs": [
						{
							"internalType": "string",
							"name": "",
							"type": "string"
						}
					],
					"name": "mappingComidas",
					"outputs": [
						{
							"internalType": "string",
							"name": "nombre",
							"type": "string"
						},
						{
							"internalType": "uint256",
							"name": "precio",
							"type": "uint256"
						},
						{
							"internalType": "bool",
							"name": "disponible",
							"type": "bool"
						}
					],
					"stateMutability": "view",
					"type": "function"
				},
				{
					"inputs": [],
					"name": "misTokens",
					"outputs": [
						{
							"internalType": "uint256",
							"name": "",
							"type": "uint256"
						}
					],
					"stateMutability": "view",
					"type": "function"
				},
				{
					"inputs": [],
					"name": "owner",
					"outputs": [
						{
							"internalType": "address payable",
							"name": "",
							"type": "address"
						}
					],
					"stateMutability": "view",
					"type": "function"
				},
				{
					"inputs": [
						{
							"internalType": "string",
							"name": "_nombreAtraccion",
							"type": "string"
						}
					],
					"name": "subirseAtraccion",
					"outputs": [],
					"stateMutability": "nonpayable",
					"type": "function"
				}
			],
			"devdoc": {
				"kind": "dev",
				"methods": {},
				"version": 1
			},
			"evm": {
				"assembly": "    /* \"DISNEY/disney.sol\":95:8434  contract Disney {... */\n  mstore(0x40, 0x80)\n    /* \"DISNEY/disney.sol\":313:414  constructor () {... */\n  callvalue\n  dup1\n  iszero\n  tag_1\n  jumpi\n  0x00\n  dup1\n  revert\ntag_1:\n  pop\n    /* \"DISNEY/disney.sol\":362:367  10000 */\n  0x2710\n    /* \"DISNEY/disney.sol\":347:368  new ERC20Basic(10000) */\n  mload(0x40)\n  tag_4\n  swap1\n  tag_5\n  jump\t// in\ntag_4:\n  tag_6\n  swap2\n  swap1\n  tag_7\n  jump\t// in\ntag_6:\n  mload(0x40)\n  dup1\n  swap2\n  sub\n  swap1\n  0x00\n  create\n  dup1\n  iszero\n  dup1\n  iszero\n  tag_8\n  jumpi\n  returndatasize\n  0x00\n  dup1\n  returndatacopy\n  revert(0x00, returndatasize)\ntag_8:\n  pop\n    /* \"DISNEY/disney.sol\":339:344  token */\n  0x00\n  dup1\n    /* \"DISNEY/disney.sol\":339:368  token = new ERC20Basic(10000) */\n  0x0100\n  exp\n  dup2\n  sload\n  dup2\n  0xffffffffffffffffffffffffffffffffffffffff\n  mul\n  not\n  and\n  swap1\n  dup4\n  0xffffffffffffffffffffffffffffffffffffffff\n  and\n  mul\n  or\n  swap1\n  sstore\n  pop\n    /* \"DISNEY/disney.sol\":395:405  msg.sender */\n  caller\n    /* \"DISNEY/disney.sol\":379:384  owner */\n  0x01\n  0x00\n    /* \"DISNEY/disney.sol\":379:406  owner = payable(msg.sender) */\n  0x0100\n  exp\n  dup2\n  sload\n  dup2\n  0xffffffffffffffffffffffffffffffffffffffff\n  mul\n  not\n  and\n  swap1\n  dup4\n  0xffffffffffffffffffffffffffffffffffffffff\n  and\n  mul\n  or\n  swap1\n  sstore\n  pop\n    /* \"DISNEY/disney.sol\":95:8434  contract Disney {... */\n  jump(tag_9)\ntag_5:\n  dataSize(sub_1)\n  dup1\n  dataOffset(sub_1)\n  dup4\n  codecopy\n  add\n  swap1\n  jump\t// out\n    /* \"#utility.yul\":7:96   */\ntag_10:\n    /* \"#utility.yul\":56:63   */\n  0x00\n    /* \"#utility.yul\":85:90   */\n  dup2\n    /* \"#utility.yul\":74:90   */\n  swap1\n  pop\n    /* \"#utility.yul\":7:96   */\n  swap2\n  swap1\n  pop\n  jump\t// out\n    /* \"#utility.yul\":102:179   */\ntag_11:\n    /* \"#utility.yul\":139:146   */\n  0x00\n    /* \"#utility.yul\":168:173   */\n  dup2\n    /* \"#utility.yul\":157:173   */\n  swap1\n  pop\n    /* \"#utility.yul\":102:179   */\n  swap2\n  swap1\n  pop\n  jump\t// out\n    /* \"#utility.yul\":185:245   */\ntag_12:\n    /* \"#utility.yul\":213:216   */\n  0x00\n    /* \"#utility.yul\":234:239   */\n  dup2\n    /* \"#utility.yul\":227:239   */\n  swap1\n  pop\n    /* \"#utility.yul\":185:245   */\n  swap2\n  swap1\n  pop\n  jump\t// out\n    /* \"#utility.yul\":251:417   */\ntag_13:\n    /* \"#utility.yul\":313:322   */\n  0x00\n    /* \"#utility.yul\":346:411   */\n  tag_20\n    /* \"#utility.yul\":364:410   */\n  tag_21\n    /* \"#utility.yul\":373:409   */\n  tag_22\n    /* \"#utility.yul\":403:408   */\n  dup5\n    /* \"#utility.yul\":373:409   */\n  tag_10\n  jump\t// in\ntag_22:\n    /* \"#utility.yul\":364:410   */\n  tag_12\n  jump\t// in\ntag_21:\n    /* \"#utility.yul\":346:411   */\n  tag_11\n  jump\t// in\ntag_20:\n    /* \"#utility.yul\":333:411   */\n  swap1\n  pop\n    /* \"#utility.yul\":251:417   */\n  swap2\n  swap1\n  pop\n  jump\t// out\n    /* \"#utility.yul\":423:578   */\ntag_14:\n    /* \"#utility.yul\":522:571   */\n  tag_24\n    /* \"#utility.yul\":565:570   */\n  dup2\n    /* \"#utility.yul\":522:571   */\n  tag_13\n  jump\t// in\ntag_24:\n    /* \"#utility.yul\":517:520   */\n  dup3\n    /* \"#utility.yul\":510:572   */\n  mstore\n    /* \"#utility.yul\":423:578   */\n  pop\n  pop\n  jump\t// out\n    /* \"#utility.yul\":584:830   */\ntag_7:\n    /* \"#utility.yul\":689:693   */\n  0x00\n    /* \"#utility.yul\":727:729   */\n  0x20\n    /* \"#utility.yul\":716:725   */\n  dup3\n    /* \"#utility.yul\":712:730   */\n  add\n    /* \"#utility.yul\":704:730   */\n  swap1\n  pop\n    /* \"#utility.yul\":740:823   */\n  tag_26\n    /* \"#utility.yul\":820:821   */\n  0x00\n    /* \"#utility.yul\":809:818   */\n  dup4\n    /* \"#utility.yul\":805:822   */\n  add\n    /* \"#utility.yul\":796:802   */\n  dup5\n    /* \"#utility.yul\":740:823   */\n  tag_14\n  jump\t// in\ntag_26:\n    /* \"#utility.yul\":584:830   */\n  swap3\n  swap2\n  pop\n  pop\n  jump\t// out\n    /* \"DISNEY/disney.sol\":95:8434  contract Disney {... */\ntag_9:\n  dataSize(sub_0)\n  dup1\n  dataOffset(sub_0)\n  0x00\n  codecopy\n  0x00\n  return\nstop\n\nsub_0: assembly {\n        /* \"DISNEY/disney.sol\":95:8434  contract Disney {... */\n      mstore(0x40, 0x80)\n      jumpi(tag_1, lt(calldatasize, 0x04))\n      shr(0xe0, calldataload(0x00))\n      dup1\n      0x4947830d\n      gt\n      tag_20\n      jumpi\n      dup1\n      0x74b23349\n      gt\n      tag_21\n      jumpi\n      dup1\n      0x74b23349\n      eq\n      tag_15\n      jumpi\n      dup1\n      0x7ac48e04\n      eq\n      tag_16\n      jumpi\n      dup1\n      0x8da5cb5b\n      eq\n      tag_17\n      jumpi\n      dup1\n      0xc29dd7c9\n      eq\n      tag_18\n      jumpi\n      dup1\n      0xfba9f844\n      eq\n      tag_19\n      jumpi\n      jump(tag_1)\n    tag_21:\n      dup1\n      0x4947830d\n      eq\n      tag_11\n      jumpi\n      dup1\n      0x6328f1c1\n      eq\n      tag_12\n      jumpi\n      dup1\n      0x652b67aa\n      eq\n      tag_13\n      jumpi\n      dup1\n      0x6d3a0894\n      eq\n      tag_14\n      jumpi\n      jump(tag_1)\n    tag_20:\n      dup1\n      0x216f91c1\n      gt\n      tag_22\n      jumpi\n      dup1\n      0x216f91c1\n      eq\n      tag_6\n      jumpi\n      dup1\n      0x21e0528b\n      eq\n      tag_7\n      jumpi\n      dup1\n      0x2e95161c\n      eq\n      tag_8\n      jumpi\n      dup1\n      0x33ea0db2\n      eq\n      tag_9\n      jumpi\n      dup1\n      0x369ccfaa\n      eq\n      tag_10\n      jumpi\n      jump(tag_1)\n    tag_22:\n      dup1\n      0x0cd93f64\n      eq\n      tag_2\n      jumpi\n      dup1\n      0x11f91c4b\n      eq\n      tag_3\n      jumpi\n      dup1\n      0x13e746fa\n      eq\n      tag_4\n      jumpi\n      dup1\n      0x14b9a735\n      eq\n      tag_5\n      jumpi\n    tag_1:\n      0x00\n      dup1\n      revert\n        /* \"DISNEY/disney.sol\":3796:4145  function deshabilitarAtraccion(string memory _nombreAtraccion) public unicamenteDisney(msg.sender) {... */\n    tag_2:\n      callvalue\n      dup1\n      iszero\n      tag_23\n      jumpi\n      0x00\n      dup1\n      revert\n    tag_23:\n      pop\n      tag_24\n      0x04\n      dup1\n      calldatasize\n      sub\n      dup2\n      add\n      swap1\n      tag_25\n      swap2\n      swap1\n      tag_26\n      jump\t// in\n    tag_25:\n      tag_27\n      jump\t// in\n    tag_24:\n      stop\n        /* \"DISNEY/disney.sol\":3263:3740  function agregarAtraccion(string memory _nombreAtraccion, uint _precio) public unicamenteDisney(msg.sender) {... */\n    tag_3:\n      callvalue\n      dup1\n      iszero\n      tag_28\n      jumpi\n      0x00\n      dup1\n      revert\n    tag_28:\n      pop\n      tag_29\n      0x04\n      dup1\n      calldatasize\n      sub\n      dup2\n      add\n      swap1\n      tag_30\n      swap2\n      swap1\n      tag_31\n      jump\t// in\n    tag_30:\n      tag_32\n      jump\t// in\n    tag_29:\n      stop\n        /* \"DISNEY/disney.sol\":7003:7299  function agregarComida(string memory _nombreComida, uint _precioComida) public unicamenteDisney(msg.sender) {... */\n    tag_4:\n      callvalue\n      dup1\n      iszero\n      tag_33\n      jumpi\n      0x00\n      dup1\n      revert\n    tag_33:\n      pop\n      tag_34\n      0x04\n      dup1\n      calldatasize\n      sub\n      dup2\n      add\n      swap1\n      tag_35\n      swap2\n      swap1\n      tag_31\n      jump\t// in\n    tag_35:\n      tag_36\n      jump\t// in\n    tag_34:\n      stop\n        /* \"DISNEY/disney.sol\":6699:6747  mapping (string => comida) public mappingComidas */\n    tag_5:\n      callvalue\n      dup1\n      iszero\n      tag_37\n      jumpi\n      0x00\n      dup1\n      revert\n    tag_37:\n      pop\n      tag_38\n      0x04\n      dup1\n      calldatasize\n      sub\n      dup2\n      add\n      swap1\n      tag_39\n      swap2\n      swap1\n      tag_26\n      jump\t// in\n    tag_39:\n      tag_40\n      jump\t// in\n    tag_38:\n      mload(0x40)\n      tag_41\n      swap4\n      swap3\n      swap2\n      swap1\n      tag_42\n      jump\t// in\n    tag_41:\n      mload(0x40)\n      dup1\n      swap2\n      sub\n      swap1\n      return\n        /* \"DISNEY/disney.sol\":5537:5653  function historial() public view returns(string[] memory) {... */\n    tag_6:\n      callvalue\n      dup1\n      iszero\n      tag_43\n      jumpi\n      0x00\n      dup1\n      revert\n    tag_43:\n      pop\n      tag_44\n      tag_45\n      jump\t// in\n    tag_44:\n      mload(0x40)\n      tag_46\n      swap2\n      swap1\n      tag_47\n      jump\t// in\n    tag_46:\n      mload(0x40)\n      dup1\n      swap2\n      sub\n      swap1\n      return\n        /* \"DISNEY/disney.sol\":1995:2096  function misTokens() public view returns (uint) {... */\n    tag_7:\n      callvalue\n      dup1\n      iszero\n      tag_48\n      jumpi\n      0x00\n      dup1\n      revert\n    tag_48:\n      pop\n      tag_49\n      tag_50\n      jump\t// in\n    tag_49:\n      mload(0x40)\n      tag_51\n      swap2\n      swap1\n      tag_52\n      jump\t// in\n    tag_51:\n      mload(0x40)\n      dup1\n      swap2\n      sub\n      swap1\n      return\n        /* \"DISNEY/disney.sol\":5700:6282  function devolverTokens(uint _numTokens) public payable {... */\n    tag_8:\n      tag_53\n      0x04\n      dup1\n      calldatasize\n      sub\n      dup2\n      add\n      swap1\n      tag_54\n      swap2\n      swap1\n      tag_55\n      jump\t// in\n    tag_54:\n      tag_56\n      jump\t// in\n    tag_53:\n      stop\n        /* \"DISNEY/disney.sol\":4304:5456  function subirseAtraccion(string memory _nombreAtraccion) public {... */\n    tag_9:\n      callvalue\n      dup1\n      iszero\n      tag_57\n      jumpi\n      0x00\n      dup1\n      revert\n    tag_57:\n      pop\n      tag_58\n      0x04\n      dup1\n      calldatasize\n      sub\n      dup2\n      add\n      swap1\n      tag_59\n      swap2\n      swap1\n      tag_26\n      jump\t// in\n    tag_59:\n      tag_60\n      jump\t// in\n    tag_58:\n      stop\n        /* \"DISNEY/disney.sol\":4188:4296  function atraccionesDisponibles() public view returns(string[] memory) {... */\n    tag_10:\n      callvalue\n      dup1\n      iszero\n      tag_61\n      jumpi\n      0x00\n      dup1\n      revert\n    tag_61:\n      pop\n      tag_62\n      tag_63\n      jump\t// in\n    tag_62:\n      mload(0x40)\n      tag_64\n      swap2\n      swap1\n      tag_47\n      jump\t// in\n    tag_64:\n      mload(0x40)\n      dup1\n      swap2\n      sub\n      swap1\n      return\n        /* \"DISNEY/disney.sol\":2145:2276  function generaTokens(uint _numTokens) public unicamenteDisney(msg.sender) {... */\n    tag_11:\n      callvalue\n      dup1\n      iszero\n      tag_65\n      jumpi\n      0x00\n      dup1\n      revert\n    tag_65:\n      pop\n      tag_66\n      0x04\n      dup1\n      calldatasize\n      sub\n      dup2\n      add\n      swap1\n      tag_67\n      swap2\n      swap1\n      tag_55\n      jump\t// in\n    tag_67:\n      tag_68\n      jump\t// in\n    tag_66:\n      stop\n        /* \"DISNEY/disney.sol\":7351:7550  function eliminarComida(string memory _nombreComida) public unicamenteDisney(msg.sender) {... */\n    tag_12:\n      callvalue\n      dup1\n      iszero\n      tag_69\n      jumpi\n      0x00\n      dup1\n      revert\n    tag_69:\n      pop\n      tag_70\n      0x04\n      dup1\n      calldatasize\n      sub\n      dup2\n      add\n      swap1\n      tag_71\n      swap2\n      swap1\n      tag_26\n      jump\t// in\n    tag_71:\n      tag_72\n      jump\t// in\n    tag_70:\n      stop\n        /* \"DISNEY/disney.sol\":2943:2998  mapping (string => atraccion) public mappingAtracciones */\n    tag_13:\n      callvalue\n      dup1\n      iszero\n      tag_73\n      jumpi\n      0x00\n      dup1\n      revert\n    tag_73:\n      pop\n      tag_74\n      0x04\n      dup1\n      calldatasize\n      sub\n      dup2\n      add\n      swap1\n      tag_75\n      swap2\n      swap1\n      tag_26\n      jump\t// in\n    tag_75:\n      tag_76\n      jump\t// in\n    tag_74:\n      mload(0x40)\n      tag_77\n      swap4\n      swap3\n      swap2\n      swap1\n      tag_42\n      jump\t// in\n    tag_77:\n      mload(0x40)\n      dup1\n      swap2\n      sub\n      swap1\n      return\n        /* \"DISNEY/disney.sol\":8303:8431  function consultarHistorialComidas() public view returns(string[] memory) {... */\n    tag_14:\n      callvalue\n      dup1\n      iszero\n      tag_78\n      jumpi\n      0x00\n      dup1\n      revert\n    tag_78:\n      pop\n      tag_79\n      tag_80\n      jump\t// in\n    tag_79:\n      mload(0x40)\n      tag_81\n      swap2\n      swap1\n      tag_47\n      jump\t// in\n    tag_81:\n      mload(0x40)\n      dup1\n      swap2\n      sub\n      swap1\n      return\n        /* \"DISNEY/disney.sol\":638:682  mapping (address => cliente) public clientes */\n    tag_15:\n      callvalue\n      dup1\n      iszero\n      tag_82\n      jumpi\n      0x00\n      dup1\n      revert\n    tag_82:\n      pop\n      tag_83\n      0x04\n      dup1\n      calldatasize\n      sub\n      dup2\n      add\n      swap1\n      tag_84\n      swap2\n      swap1\n      tag_85\n      jump\t// in\n    tag_84:\n      tag_86\n      jump\t// in\n    tag_83:\n      mload(0x40)\n      tag_87\n      swap2\n      swap1\n      tag_52\n      jump\t// in\n    tag_87:\n      mload(0x40)\n      dup1\n      swap2\n      sub\n      swap1\n      return\n        /* \"DISNEY/disney.sol\":7695:8225  function comerComida(string memory _nombreComida) public {... */\n    tag_16:\n      callvalue\n      dup1\n      iszero\n      tag_88\n      jumpi\n      0x00\n      dup1\n      revert\n    tag_88:\n      pop\n      tag_89\n      0x04\n      dup1\n      calldatasize\n      sub\n      dup2\n      add\n      swap1\n      tag_90\n      swap2\n      swap1\n      tag_26\n      jump\t// in\n    tag_90:\n      tag_91\n      jump\t// in\n    tag_89:\n      stop\n        /* \"DISNEY/disney.sol\":256:284  address payable public owner */\n    tag_17:\n      callvalue\n      dup1\n      iszero\n      tag_92\n      jumpi\n      0x00\n      dup1\n      revert\n    tag_92:\n      pop\n      tag_93\n      tag_94\n      jump\t// in\n    tag_93:\n      mload(0x40)\n      tag_95\n      swap2\n      swap1\n      tag_96\n      jump\t// in\n    tag_95:\n      mload(0x40)\n      dup1\n      swap2\n      sub\n      swap1\n      return\n        /* \"DISNEY/disney.sol\":1019:1933  function compraTokens(uint _numTokens) public payable {... */\n    tag_18:\n      tag_97\n      0x04\n      dup1\n      calldatasize\n      sub\n      dup2\n      add\n      swap1\n      tag_98\n      swap2\n      swap1\n      tag_55\n      jump\t// in\n    tag_98:\n      tag_99\n      jump\t// in\n    tag_97:\n      stop\n        /* \"DISNEY/disney.sol\":7589:7687  function consultarComidas() public view returns(string[] memory) {... */\n    tag_19:\n      callvalue\n      dup1\n      iszero\n      tag_100\n      jumpi\n      0x00\n      dup1\n      revert\n    tag_100:\n      pop\n      tag_101\n      tag_102\n      jump\t// in\n    tag_101:\n      mload(0x40)\n      tag_103\n      swap2\n      swap1\n      tag_47\n      jump\t// in\n    tag_103:\n      mload(0x40)\n      dup1\n      swap2\n      sub\n      swap1\n      return\n        /* \"DISNEY/disney.sol\":3796:4145  function deshabilitarAtraccion(string memory _nombreAtraccion) public unicamenteDisney(msg.sender) {... */\n    tag_27:\n        /* \"DISNEY/disney.sol\":3883:3893  msg.sender */\n      caller\n        /* \"DISNEY/disney.sol\":2435:2440  owner */\n      0x01\n      0x00\n      swap1\n      sload\n      swap1\n      0x0100\n      exp\n      swap1\n      div\n      0xffffffffffffffffffffffffffffffffffffffff\n      and\n        /* \"DISNEY/disney.sol\":2421:2440  _direccion == owner */\n      0xffffffffffffffffffffffffffffffffffffffff\n      and\n        /* \"DISNEY/disney.sol\":2421:2431  _direccion */\n      dup2\n        /* \"DISNEY/disney.sol\":2421:2440  _direccion == owner */\n      0xffffffffffffffffffffffffffffffffffffffff\n      and\n      eq\n        /* \"DISNEY/disney.sol\":2413:2490  require(_direccion == owner, \"No tienes permisos para ejecutar esta funcion\") */\n      tag_105\n      jumpi\n      mload(0x40)\n      0x08c379a000000000000000000000000000000000000000000000000000000000\n      dup2\n      mstore\n      0x04\n      add\n      tag_106\n      swap1\n      tag_107\n      jump\t// in\n    tag_106:\n      mload(0x40)\n      dup1\n      swap2\n      sub\n      swap1\n      revert\n    tag_105:\n        /* \"DISNEY/disney.sol\":4023:4028  false */\n      0x00\n        /* \"DISNEY/disney.sol\":3977:3995  mappingAtracciones */\n      0x03\n        /* \"DISNEY/disney.sol\":3996:4012  _nombreAtraccion */\n      dup4\n        /* \"DISNEY/disney.sol\":3977:4013  mappingAtracciones[_nombreAtraccion] */\n      mload(0x40)\n      tag_109\n      swap2\n      swap1\n      tag_110\n      jump\t// in\n    tag_109:\n      swap1\n      dup2\n      mstore\n      0x20\n      add\n      mload(0x40)\n      dup1\n      swap2\n      sub\n      swap1\n      keccak256\n        /* \"DISNEY/disney.sol\":3977:4020  mappingAtracciones[_nombreAtraccion].estado */\n      0x02\n      add\n      0x00\n        /* \"DISNEY/disney.sol\":3977:4028  mappingAtracciones[_nombreAtraccion].estado = false */\n      0x0100\n      exp\n      dup2\n      sload\n      dup2\n      0xff\n      mul\n      not\n      and\n      swap1\n      dup4\n      iszero\n      iszero\n      mul\n      or\n      swap1\n      sstore\n      pop\n        /* \"DISNEY/disney.sol\":4106:4137  bajaAtraccion(_nombreAtraccion) */\n      0xf367a8930b4fe6fe6b1dd76e4579b44eee6a1bdfaf7047ebcd0ebb97b4220fe5\n        /* \"DISNEY/disney.sol\":4120:4136  _nombreAtraccion */\n      dup3\n        /* \"DISNEY/disney.sol\":4106:4137  bajaAtraccion(_nombreAtraccion) */\n      mload(0x40)\n      tag_111\n      swap2\n      swap1\n      tag_112\n      jump\t// in\n    tag_111:\n      mload(0x40)\n      dup1\n      swap2\n      sub\n      swap1\n      log1\n        /* \"DISNEY/disney.sol\":3796:4145  function deshabilitarAtraccion(string memory _nombreAtraccion) public unicamenteDisney(msg.sender) {... */\n      pop\n      pop\n      jump\t// out\n        /* \"DISNEY/disney.sol\":3263:3740  function agregarAtraccion(string memory _nombreAtraccion, uint _precio) public unicamenteDisney(msg.sender) {... */\n    tag_32:\n        /* \"DISNEY/disney.sol\":3359:3369  msg.sender */\n      caller\n        /* \"DISNEY/disney.sol\":2435:2440  owner */\n      0x01\n      0x00\n      swap1\n      sload\n      swap1\n      0x0100\n      exp\n      swap1\n      div\n      0xffffffffffffffffffffffffffffffffffffffff\n      and\n        /* \"DISNEY/disney.sol\":2421:2440  _direccion == owner */\n      0xffffffffffffffffffffffffffffffffffffffff\n      and\n        /* \"DISNEY/disney.sol\":2421:2431  _direccion */\n      dup2\n        /* \"DISNEY/disney.sol\":2421:2440  _direccion == owner */\n      0xffffffffffffffffffffffffffffffffffffffff\n      and\n      eq\n        /* \"DISNEY/disney.sol\":2413:2490  require(_direccion == owner, \"No tienes permisos para ejecutar esta funcion\") */\n      tag_114\n      jumpi\n      mload(0x40)\n      0x08c379a000000000000000000000000000000000000000000000000000000000\n      dup2\n      mstore\n      0x04\n      add\n      tag_115\n      swap1\n      tag_107\n      jump\t// in\n    tag_115:\n      mload(0x40)\n      dup1\n      swap2\n      sub\n      swap1\n      revert\n    tag_114:\n        /* \"DISNEY/disney.sol\":3470:3512  atraccion(_nombreAtraccion, _precio, true) */\n      mload(0x40)\n      dup1\n      0x60\n      add\n      0x40\n      mstore\n      dup1\n        /* \"DISNEY/disney.sol\":3480:3496  _nombreAtraccion */\n      dup5\n        /* \"DISNEY/disney.sol\":3470:3512  atraccion(_nombreAtraccion, _precio, true) */\n      dup2\n      mstore\n      0x20\n      add\n        /* \"DISNEY/disney.sol\":3498:3505  _precio */\n      dup4\n        /* \"DISNEY/disney.sol\":3470:3512  atraccion(_nombreAtraccion, _precio, true) */\n      dup2\n      mstore\n      0x20\n      add\n        /* \"DISNEY/disney.sol\":3507:3511  true */\n      0x01\n        /* \"DISNEY/disney.sol\":3470:3512  atraccion(_nombreAtraccion, _precio, true) */\n      iszero\n      iszero\n      dup2\n      mstore\n      pop\n        /* \"DISNEY/disney.sol\":3431:3449  mappingAtracciones */\n      0x03\n        /* \"DISNEY/disney.sol\":3450:3466  _nombreAtraccion */\n      dup5\n        /* \"DISNEY/disney.sol\":3431:3467  mappingAtracciones[_nombreAtraccion] */\n      mload(0x40)\n      tag_117\n      swap2\n      swap1\n      tag_110\n      jump\t// in\n    tag_117:\n      swap1\n      dup2\n      mstore\n      0x20\n      add\n      mload(0x40)\n      dup1\n      swap2\n      sub\n      swap1\n      keccak256\n        /* \"DISNEY/disney.sol\":3431:3512  mappingAtracciones[_nombreAtraccion] = atraccion(_nombreAtraccion, _precio, true) */\n      0x00\n      dup3\n      add\n      mload\n      dup2\n      0x00\n      add\n      swap1\n      dup2\n      tag_118\n      swap2\n      swap1\n      tag_119\n      jump\t// in\n    tag_118:\n      pop\n      0x20\n      dup3\n      add\n      mload\n      dup2\n      0x01\n      add\n      sstore\n      0x40\n      dup3\n      add\n      mload\n      dup2\n      0x02\n      add\n      exp(0x0100, 0x00)\n      dup2\n      sload\n      dup2\n      0xff\n      mul\n      not\n      and\n      swap1\n      dup4\n      iszero\n      iszero\n      mul\n      or\n      swap1\n      sstore\n      pop\n      swap1\n      pop\n      pop\n        /* \"DISNEY/disney.sol\":3584:3595  atracciones */\n      0x04\n        /* \"DISNEY/disney.sol\":3601:3617  _nombreAtraccion */\n      dup4\n        /* \"DISNEY/disney.sol\":3584:3618  atracciones.push(_nombreAtraccion) */\n      swap1\n      dup1\n      0x01\n      dup2\n      sload\n      add\n      dup1\n      dup3\n      sstore\n      dup1\n      swap2\n      pop\n      pop\n      0x01\n      swap1\n      sub\n      swap1\n      0x00\n      mstore\n      keccak256(0x00, 0x20)\n      add\n      0x00\n      swap1\n      swap2\n      swap1\n      swap2\n      swap1\n      swap2\n      pop\n      swap1\n      dup2\n      tag_121\n      swap2\n      swap1\n      tag_119\n      jump\t// in\n    tag_121:\n      pop\n        /* \"DISNEY/disney.sol\":3691:3732  nuevaAtraccion(_nombreAtraccion, _precio) */\n      0xe8081c6dc6b02e2aa7421a7f6b9787d8ff210faa71f3e733c9bccdec2383845b\n        /* \"DISNEY/disney.sol\":3706:3722  _nombreAtraccion */\n      dup4\n        /* \"DISNEY/disney.sol\":3724:3731  _precio */\n      dup4\n        /* \"DISNEY/disney.sol\":3691:3732  nuevaAtraccion(_nombreAtraccion, _precio) */\n      mload(0x40)\n      tag_122\n      swap3\n      swap2\n      swap1\n      tag_123\n      jump\t// in\n    tag_122:\n      mload(0x40)\n      dup1\n      swap2\n      sub\n      swap1\n      log1\n        /* \"DISNEY/disney.sol\":3263:3740  function agregarAtraccion(string memory _nombreAtraccion, uint _precio) public unicamenteDisney(msg.sender) {... */\n      pop\n      pop\n      pop\n      jump\t// out\n        /* \"DISNEY/disney.sol\":7003:7299  function agregarComida(string memory _nombreComida, uint _precioComida) public unicamenteDisney(msg.sender) {... */\n    tag_36:\n        /* \"DISNEY/disney.sol\":7099:7109  msg.sender */\n      caller\n        /* \"DISNEY/disney.sol\":2435:2440  owner */\n      0x01\n      0x00\n      swap1\n      sload\n      swap1\n      0x0100\n      exp\n      swap1\n      div\n      0xffffffffffffffffffffffffffffffffffffffff\n      and\n        /* \"DISNEY/disney.sol\":2421:2440  _direccion == owner */\n      0xffffffffffffffffffffffffffffffffffffffff\n      and\n        /* \"DISNEY/disney.sol\":2421:2431  _direccion */\n      dup2\n        /* \"DISNEY/disney.sol\":2421:2440  _direccion == owner */\n      0xffffffffffffffffffffffffffffffffffffffff\n      and\n      eq\n        /* \"DISNEY/disney.sol\":2413:2490  require(_direccion == owner, \"No tienes permisos para ejecutar esta funcion\") */\n      tag_125\n      jumpi\n      mload(0x40)\n      0x08c379a000000000000000000000000000000000000000000000000000000000\n      dup2\n      mstore\n      0x04\n      add\n      tag_126\n      swap1\n      tag_107\n      jump\t// in\n    tag_126:\n      mload(0x40)\n      dup1\n      swap2\n      sub\n      swap1\n      revert\n    tag_125:\n        /* \"DISNEY/disney.sol\":7154:7196  comida(_nombreComida, _precioComida, true) */\n      mload(0x40)\n      dup1\n      0x60\n      add\n      0x40\n      mstore\n      dup1\n        /* \"DISNEY/disney.sol\":7161:7174  _nombreComida */\n      dup5\n        /* \"DISNEY/disney.sol\":7154:7196  comida(_nombreComida, _precioComida, true) */\n      dup2\n      mstore\n      0x20\n      add\n        /* \"DISNEY/disney.sol\":7176:7189  _precioComida */\n      dup4\n        /* \"DISNEY/disney.sol\":7154:7196  comida(_nombreComida, _precioComida, true) */\n      dup2\n      mstore\n      0x20\n      add\n        /* \"DISNEY/disney.sol\":7191:7195  true */\n      0x01\n        /* \"DISNEY/disney.sol\":7154:7196  comida(_nombreComida, _precioComida, true) */\n      iszero\n      iszero\n      dup2\n      mstore\n      pop\n        /* \"DISNEY/disney.sol\":7122:7136  mappingComidas */\n      0x06\n        /* \"DISNEY/disney.sol\":7137:7150  _nombreComida */\n      dup5\n        /* \"DISNEY/disney.sol\":7122:7151  mappingComidas[_nombreComida] */\n      mload(0x40)\n      tag_128\n      swap2\n      swap1\n      tag_110\n      jump\t// in\n    tag_128:\n      swap1\n      dup2\n      mstore\n      0x20\n      add\n      mload(0x40)\n      dup1\n      swap2\n      sub\n      swap1\n      keccak256\n        /* \"DISNEY/disney.sol\":7122:7196  mappingComidas[_nombreComida] = comida(_nombreComida, _precioComida, true) */\n      0x00\n      dup3\n      add\n      mload\n      dup2\n      0x00\n      add\n      swap1\n      dup2\n      tag_129\n      swap2\n      swap1\n      tag_119\n      jump\t// in\n    tag_129:\n      pop\n      0x20\n      dup3\n      add\n      mload\n      dup2\n      0x01\n      add\n      sstore\n      0x40\n      dup3\n      add\n      mload\n      dup2\n      0x02\n      add\n      exp(0x0100, 0x00)\n      dup2\n      sload\n      dup2\n      0xff\n      mul\n      not\n      and\n      swap1\n      dup4\n      iszero\n      iszero\n      mul\n      or\n      swap1\n      sstore\n      pop\n      swap1\n      pop\n      pop\n        /* \"DISNEY/disney.sol\":7207:7214  comidas */\n      0x07\n        /* \"DISNEY/disney.sol\":7220:7233  _nombreComida */\n      dup4\n        /* \"DISNEY/disney.sol\":7207:7234  comidas.push(_nombreComida) */\n      swap1\n      dup1\n      0x01\n      dup2\n      sload\n      add\n      dup1\n      dup3\n      sstore\n      dup1\n      swap2\n      pop\n      pop\n      0x01\n      swap1\n      sub\n      swap1\n      0x00\n      mstore\n      keccak256(0x00, 0x20)\n      add\n      0x00\n      swap1\n      swap2\n      swap1\n      swap2\n      swap1\n      swap2\n      pop\n      swap1\n      dup2\n      tag_131\n      swap2\n      swap1\n      tag_119\n      jump\t// in\n    tag_131:\n      pop\n        /* \"DISNEY/disney.sol\":7250:7291  nuevaComida(_nombreComida, _precioComida) */\n      0xff7d68708fb4c0cfd7f1177b4efcc7914bdd764a05cf8aa924d853e748aa4af4\n        /* \"DISNEY/disney.sol\":7262:7275  _nombreComida */\n      dup4\n        /* \"DISNEY/disney.sol\":7277:7290  _precioComida */\n      dup4\n        /* \"DISNEY/disney.sol\":7250:7291  nuevaComida(_nombreComida, _precioComida) */\n      mload(0x40)\n      tag_132\n      swap3\n      swap2\n      swap1\n      tag_123\n      jump\t// in\n    tag_132:\n      mload(0x40)\n      dup1\n      swap2\n      sub\n      swap1\n      log1\n        /* \"DISNEY/disney.sol\":7003:7299  function agregarComida(string memory _nombreComida, uint _precioComida) public unicamenteDisney(msg.sender) {... */\n      pop\n      pop\n      pop\n      jump\t// out\n        /* \"DISNEY/disney.sol\":6699:6747  mapping (string => comida) public mappingComidas */\n    tag_40:\n      0x06\n      dup2\n      dup1\n      mload\n      0x20\n      dup2\n      add\n      dup3\n      add\n      dup1\n      mload\n      dup5\n      dup3\n      mstore\n      0x20\n      dup4\n      add\n      0x20\n      dup6\n      add\n      keccak256\n      dup2\n      dup4\n      mstore\n      dup1\n      swap6\n      pop\n      pop\n      pop\n      pop\n      pop\n      pop\n      0x00\n      swap2\n      pop\n      swap1\n      pop\n      dup1\n      0x00\n      add\n      dup1\n      sload\n      tag_133\n      swap1\n      tag_134\n      jump\t// in\n    tag_133:\n      dup1\n      0x1f\n      add\n      0x20\n      dup1\n      swap2\n      div\n      mul\n      0x20\n      add\n      mload(0x40)\n      swap1\n      dup2\n      add\n      0x40\n      mstore\n      dup1\n      swap3\n      swap2\n      swap1\n      dup2\n      dup2\n      mstore\n      0x20\n      add\n      dup3\n      dup1\n      sload\n      tag_135\n      swap1\n      tag_134\n      jump\t// in\n    tag_135:\n      dup1\n      iszero\n      tag_136\n      jumpi\n      dup1\n      0x1f\n      lt\n      tag_137\n      jumpi\n      0x0100\n      dup1\n      dup4\n      sload\n      div\n      mul\n      dup4\n      mstore\n      swap2\n      0x20\n      add\n      swap2\n      jump(tag_136)\n    tag_137:\n      dup3\n      add\n      swap2\n      swap1\n      0x00\n      mstore\n      keccak256(0x00, 0x20)\n      swap1\n    tag_138:\n      dup2\n      sload\n      dup2\n      mstore\n      swap1\n      0x01\n      add\n      swap1\n      0x20\n      add\n      dup1\n      dup4\n      gt\n      tag_138\n      jumpi\n      dup3\n      swap1\n      sub\n      0x1f\n      and\n      dup3\n      add\n      swap2\n    tag_136:\n      pop\n      pop\n      pop\n      pop\n      pop\n      swap1\n      dup1\n      0x01\n      add\n      sload\n      swap1\n      dup1\n      0x02\n      add\n      0x00\n      swap1\n      sload\n      swap1\n      0x0100\n      exp\n      swap1\n      div\n      0xff\n      and\n      swap1\n      pop\n      dup4\n      jump\t// out\n        /* \"DISNEY/disney.sol\":5537:5653  function historial() public view returns(string[] memory) {... */\n    tag_45:\n        /* \"DISNEY/disney.sol\":5578:5593  string[] memory */\n      0x60\n        /* \"DISNEY/disney.sol\":5613:5633  historialAtracciones */\n      0x05\n        /* \"DISNEY/disney.sol\":5613:5645  historialAtracciones[msg.sender] */\n      0x00\n        /* \"DISNEY/disney.sol\":5634:5644  msg.sender */\n      caller\n        /* \"DISNEY/disney.sol\":5613:5645  historialAtracciones[msg.sender] */\n      0xffffffffffffffffffffffffffffffffffffffff\n      and\n      0xffffffffffffffffffffffffffffffffffffffff\n      and\n      dup2\n      mstore\n      0x20\n      add\n      swap1\n      dup2\n      mstore\n      0x20\n      add\n      0x00\n      keccak256\n        /* \"DISNEY/disney.sol\":5606:5645  return historialAtracciones[msg.sender] */\n      dup1\n      sload\n      dup1\n      0x20\n      mul\n      0x20\n      add\n      mload(0x40)\n      swap1\n      dup2\n      add\n      0x40\n      mstore\n      dup1\n      swap3\n      swap2\n      swap1\n      dup2\n      dup2\n      mstore\n      0x20\n      add\n      0x00\n      swap1\n    tag_140:\n      dup3\n      dup3\n      lt\n      iszero\n      tag_141\n      jumpi\n      dup4\n      dup3\n      swap1\n      0x00\n      mstore\n      keccak256(0x00, 0x20)\n      add\n      dup1\n      sload\n      tag_143\n      swap1\n      tag_134\n      jump\t// in\n    tag_143:\n      dup1\n      0x1f\n      add\n      0x20\n      dup1\n      swap2\n      div\n      mul\n      0x20\n      add\n      mload(0x40)\n      swap1\n      dup2\n      add\n      0x40\n      mstore\n      dup1\n      swap3\n      swap2\n      swap1\n      dup2\n      dup2\n      mstore\n      0x20\n      add\n      dup3\n      dup1\n      sload\n      tag_144\n      swap1\n      tag_134\n      jump\t// in\n    tag_144:\n      dup1\n      iszero\n      tag_145\n      jumpi\n      dup1\n      0x1f\n      lt\n      tag_146\n      jumpi\n      0x0100\n      dup1\n      dup4\n      sload\n      div\n      mul\n      dup4\n      mstore\n      swap2\n      0x20\n      add\n      swap2\n      jump(tag_145)\n    tag_146:\n      dup3\n      add\n      swap2\n      swap1\n      0x00\n      mstore\n      keccak256(0x00, 0x20)\n      swap1\n    tag_147:\n      dup2\n      sload\n      dup2\n      mstore\n      swap1\n      0x01\n      add\n      swap1\n      0x20\n      add\n      dup1\n      dup4\n      gt\n      tag_147\n      jumpi\n      dup3\n      swap1\n      sub\n      0x1f\n      and\n      dup3\n      add\n      swap2\n    tag_145:\n      pop\n      pop\n      pop\n      pop\n      pop\n      dup2\n      mstore\n      0x20\n      add\n      swap1\n      0x01\n      add\n      swap1\n      jump(tag_140)\n    tag_141:\n      pop\n      pop\n      pop\n      pop\n      swap1\n      pop\n        /* \"DISNEY/disney.sol\":5537:5653  function historial() public view returns(string[] memory) {... */\n      swap1\n      jump\t// out\n        /* \"DISNEY/disney.sol\":1995:2096  function misTokens() public view returns (uint) {... */\n    tag_50:\n        /* \"DISNEY/disney.sol\":2037:2041  uint */\n      0x00\n        /* \"DISNEY/disney.sol\":2061:2066  token */\n      dup1\n      0x00\n      swap1\n      sload\n      swap1\n      0x0100\n      exp\n      swap1\n      div\n      0xffffffffffffffffffffffffffffffffffffffff\n      and\n        /* \"DISNEY/disney.sol\":2061:2076  token.balanceOf */\n      0xffffffffffffffffffffffffffffffffffffffff\n      and\n      0x70a08231\n        /* \"DISNEY/disney.sol\":2077:2087  msg.sender */\n      caller\n        /* \"DISNEY/disney.sol\":2061:2088  token.balanceOf(msg.sender) */\n      mload(0x40)\n      dup3\n      0xffffffff\n      and\n      0xe0\n      shl\n      dup2\n      mstore\n      0x04\n      add\n      tag_149\n      swap2\n      swap1\n      tag_150\n      jump\t// in\n    tag_149:\n      0x20\n      mload(0x40)\n      dup1\n      dup4\n      sub\n      dup2\n      dup7\n      gas\n      staticcall\n      iszero\n      dup1\n      iszero\n      tag_152\n      jumpi\n      returndatasize\n      0x00\n      dup1\n      returndatacopy\n      revert(0x00, returndatasize)\n    tag_152:\n      pop\n      pop\n      pop\n      pop\n      mload(0x40)\n      returndatasize\n      not(0x1f)\n      0x1f\n      dup3\n      add\n      and\n      dup3\n      add\n      dup1\n      0x40\n      mstore\n      pop\n      dup2\n      add\n      swap1\n      tag_153\n      swap2\n      swap1\n      tag_154\n      jump\t// in\n    tag_153:\n        /* \"DISNEY/disney.sol\":2054:2088  return token.balanceOf(msg.sender) */\n      swap1\n      pop\n        /* \"DISNEY/disney.sol\":1995:2096  function misTokens() public view returns (uint) {... */\n      swap1\n      jump\t// out\n        /* \"DISNEY/disney.sol\":5700:6282  function devolverTokens(uint _numTokens) public payable {... */\n    tag_56:\n        /* \"DISNEY/disney.sol\":5844:5845  0 */\n      0x00\n        /* \"DISNEY/disney.sol\":5831:5841  _numTokens */\n      dup2\n        /* \"DISNEY/disney.sol\":5831:5845  _numTokens > 0 */\n      gt\n        /* \"DISNEY/disney.sol\":5823:5900  require(_numTokens > 0, \"Necesitas devolver una cantidad positiva de tokens\") */\n      tag_156\n      jumpi\n      mload(0x40)\n      0x08c379a000000000000000000000000000000000000000000000000000000000\n      dup2\n      mstore\n      0x04\n      add\n      tag_157\n      swap1\n      tag_158\n      jump\t// in\n    tag_157:\n      mload(0x40)\n      dup1\n      swap2\n      sub\n      swap1\n      revert\n    tag_156:\n        /* \"DISNEY/disney.sol\":5992:6002  _numTokens */\n      dup1\n        /* \"DISNEY/disney.sol\":5977:5988  misTokens() */\n      tag_159\n        /* \"DISNEY/disney.sol\":5977:5986  misTokens */\n      tag_50\n        /* \"DISNEY/disney.sol\":5977:5988  misTokens() */\n      jump\t// in\n    tag_159:\n        /* \"DISNEY/disney.sol\":5977:6002  misTokens() >= _numTokens */\n      lt\n      iszero\n        /* \"DISNEY/disney.sol\":5969:6047  require(misTokens() >= _numTokens, \"No tienes los tokens que deseas devolver\") */\n      tag_160\n      jumpi\n      mload(0x40)\n      0x08c379a000000000000000000000000000000000000000000000000000000000\n      dup2\n      mstore\n      0x04\n      add\n      tag_161\n      swap1\n      tag_162\n      jump\t// in\n    tag_161:\n      mload(0x40)\n      dup1\n      swap2\n      sub\n      swap1\n      revert\n    tag_160:\n        /* \"DISNEY/disney.sol\":6101:6106  token */\n      0x00\n      dup1\n      sload\n      swap1\n      0x0100\n      exp\n      swap1\n      div\n      0xffffffffffffffffffffffffffffffffffffffff\n      and\n        /* \"DISNEY/disney.sol\":6101:6121  token.transferDisney */\n      0xffffffffffffffffffffffffffffffffffffffff\n      and\n      0x5e413c87\n        /* \"DISNEY/disney.sol\":6122:6132  msg.sender */\n      caller\n        /* \"DISNEY/disney.sol\":6142:6146  this */\n      address\n        /* \"DISNEY/disney.sol\":6149:6159  _numTokens */\n      dup5\n        /* \"DISNEY/disney.sol\":6101:6160  token.transferDisney(msg.sender, address(this), _numTokens) */\n      mload(0x40)\n      dup5\n      0xffffffff\n      and\n      0xe0\n      shl\n      dup2\n      mstore\n      0x04\n      add\n      tag_163\n      swap4\n      swap3\n      swap2\n      swap1\n      tag_164\n      jump\t// in\n    tag_163:\n      0x20\n      mload(0x40)\n      dup1\n      dup4\n      sub\n      dup2\n      0x00\n      dup8\n      gas\n      call\n      iszero\n      dup1\n      iszero\n      tag_166\n      jumpi\n      returndatasize\n      0x00\n      dup1\n      returndatacopy\n      revert(0x00, returndatasize)\n    tag_166:\n      pop\n      pop\n      pop\n      pop\n      mload(0x40)\n      returndatasize\n      not(0x1f)\n      0x1f\n      dup3\n      add\n      and\n      dup3\n      add\n      dup1\n      0x40\n      mstore\n      pop\n      dup2\n      add\n      swap1\n      tag_167\n      swap2\n      swap1\n      tag_168\n      jump\t// in\n    tag_167:\n      pop\n        /* \"DISNEY/disney.sol\":6228:6238  msg.sender */\n      caller\n        /* \"DISNEY/disney.sol\":6220:6248  payable(msg.sender).transfer */\n      0xffffffffffffffffffffffffffffffffffffffff\n      and\n        /* \"DISNEY/disney.sol\":6220:6274  payable(msg.sender).transfer(precioTokens(_numTokens)) */\n      0x08fc\n        /* \"DISNEY/disney.sol\":6249:6273  precioTokens(_numTokens) */\n      tag_169\n        /* \"DISNEY/disney.sol\":6262:6272  _numTokens */\n      dup4\n        /* \"DISNEY/disney.sol\":6249:6261  precioTokens */\n      tag_170\n        /* \"DISNEY/disney.sol\":6249:6273  precioTokens(_numTokens) */\n      jump\t// in\n    tag_169:\n        /* \"DISNEY/disney.sol\":6220:6274  payable(msg.sender).transfer(precioTokens(_numTokens)) */\n      swap1\n      dup2\n      iszero\n      mul\n      swap1\n      mload(0x40)\n      0x00\n      mload(0x40)\n      dup1\n      dup4\n      sub\n      dup2\n      dup6\n      dup9\n      dup9\n      call\n      swap4\n      pop\n      pop\n      pop\n      pop\n      iszero\n      dup1\n      iszero\n      tag_172\n      jumpi\n      returndatasize\n      0x00\n      dup1\n      returndatacopy\n      revert(0x00, returndatasize)\n    tag_172:\n      pop\n        /* \"DISNEY/disney.sol\":5700:6282  function devolverTokens(uint _numTokens) public payable {... */\n      pop\n      jump\t// out\n        /* \"DISNEY/disney.sol\":4304:5456  function subirseAtraccion(string memory _nombreAtraccion) public {... */\n    tag_60:\n        /* \"DISNEY/disney.sol\":4427:4447  uint tokensAtraccion */\n      0x00\n        /* \"DISNEY/disney.sol\":4450:4468  mappingAtracciones */\n      0x03\n        /* \"DISNEY/disney.sol\":4469:4485  _nombreAtraccion */\n      dup3\n        /* \"DISNEY/disney.sol\":4450:4486  mappingAtracciones[_nombreAtraccion] */\n      mload(0x40)\n      tag_174\n      swap2\n      swap1\n      tag_110\n      jump\t// in\n    tag_174:\n      swap1\n      dup2\n      mstore\n      0x20\n      add\n      mload(0x40)\n      dup1\n      swap2\n      sub\n      swap1\n      keccak256\n        /* \"DISNEY/disney.sol\":4450:4493  mappingAtracciones[_nombreAtraccion].precio */\n      0x01\n      add\n      sload\n        /* \"DISNEY/disney.sol\":4427:4493  uint tokensAtraccion = mappingAtracciones[_nombreAtraccion].precio */\n      swap1\n      pop\n        /* \"DISNEY/disney.sol\":4604:4608  true */\n      0x01\n        /* \"DISNEY/disney.sol\":4557:4608  mappingAtracciones[_nombreAtraccion].estado == true */\n      iszero\n      iszero\n        /* \"DISNEY/disney.sol\":4557:4575  mappingAtracciones */\n      0x03\n        /* \"DISNEY/disney.sol\":4576:4592  _nombreAtraccion */\n      dup4\n        /* \"DISNEY/disney.sol\":4557:4593  mappingAtracciones[_nombreAtraccion] */\n      mload(0x40)\n      tag_175\n      swap2\n      swap1\n      tag_110\n      jump\t// in\n    tag_175:\n      swap1\n      dup2\n      mstore\n      0x20\n      add\n      mload(0x40)\n      dup1\n      swap2\n      sub\n      swap1\n      keccak256\n        /* \"DISNEY/disney.sol\":4557:4600  mappingAtracciones[_nombreAtraccion].estado */\n      0x02\n      add\n      0x00\n      swap1\n      sload\n      swap1\n      0x0100\n      exp\n      swap1\n      div\n      0xff\n      and\n        /* \"DISNEY/disney.sol\":4557:4608  mappingAtracciones[_nombreAtraccion].estado == true */\n      iszero\n      iszero\n      eq\n        /* \"DISNEY/disney.sol\":4549:4646  require(mappingAtracciones[_nombreAtraccion].estado == true, \"Esta atraccion no esta disponible\") */\n      tag_176\n      jumpi\n      mload(0x40)\n      0x08c379a000000000000000000000000000000000000000000000000000000000\n      dup2\n      mstore\n      0x04\n      add\n      tag_177\n      swap1\n      tag_178\n      jump\t// in\n    tag_177:\n      mload(0x40)\n      dup1\n      swap2\n      sub\n      swap1\n      revert\n    tag_176:\n        /* \"DISNEY/disney.sol\":4729:4744  tokensAtraccion */\n      dup1\n        /* \"DISNEY/disney.sol\":4714:4725  misTokens() */\n      tag_179\n        /* \"DISNEY/disney.sol\":4714:4723  misTokens */\n      tag_50\n        /* \"DISNEY/disney.sol\":4714:4725  misTokens() */\n      jump\t// in\n    tag_179:\n        /* \"DISNEY/disney.sol\":4714:4744  misTokens() >= tokensAtraccion */\n      lt\n      iszero\n        /* \"DISNEY/disney.sol\":4706:4794  require(misTokens() >= tokensAtraccion, \"No tiene suficiente saldo para esta atraccion\") */\n      tag_180\n      jumpi\n      mload(0x40)\n      0x08c379a000000000000000000000000000000000000000000000000000000000\n      dup2\n      mstore\n      0x04\n      add\n      tag_181\n      swap1\n      tag_182\n      jump\t// in\n    tag_181:\n      mload(0x40)\n      dup1\n      swap2\n      sub\n      swap1\n      revert\n    tag_180:\n        /* \"DISNEY/disney.sol\":5179:5184  token */\n      0x00\n      dup1\n      sload\n      swap1\n      0x0100\n      exp\n      swap1\n      div\n      0xffffffffffffffffffffffffffffffffffffffff\n      and\n        /* \"DISNEY/disney.sol\":5179:5199  token.transferDisney */\n      0xffffffffffffffffffffffffffffffffffffffff\n      and\n      0x5e413c87\n        /* \"DISNEY/disney.sol\":5200:5210  msg.sender */\n      caller\n        /* \"DISNEY/disney.sol\":5220:5224  this */\n      address\n        /* \"DISNEY/disney.sol\":5227:5242  tokensAtraccion */\n      dup5\n        /* \"DISNEY/disney.sol\":5179:5243  token.transferDisney(msg.sender, address(this), tokensAtraccion) */\n      mload(0x40)\n      dup5\n      0xffffffff\n      and\n      0xe0\n      shl\n      dup2\n      mstore\n      0x04\n      add\n      tag_183\n      swap4\n      swap3\n      swap2\n      swap1\n      tag_164\n      jump\t// in\n    tag_183:\n      0x20\n      mload(0x40)\n      dup1\n      dup4\n      sub\n      dup2\n      0x00\n      dup8\n      gas\n      call\n      iszero\n      dup1\n      iszero\n      tag_185\n      jumpi\n      returndatasize\n      0x00\n      dup1\n      returndatacopy\n      revert(0x00, returndatasize)\n    tag_185:\n      pop\n      pop\n      pop\n      pop\n      mload(0x40)\n      returndatasize\n      not(0x1f)\n      0x1f\n      dup3\n      add\n      and\n      dup3\n      add\n      dup1\n      0x40\n      mstore\n      pop\n      dup2\n      add\n      swap1\n      tag_186\n      swap2\n      swap1\n      tag_168\n      jump\t// in\n    tag_186:\n      pop\n        /* \"DISNEY/disney.sol\":5254:5274  historialAtracciones */\n      0x05\n        /* \"DISNEY/disney.sol\":5254:5286  historialAtracciones[msg.sender] */\n      0x00\n        /* \"DISNEY/disney.sol\":5275:5285  msg.sender */\n      caller\n        /* \"DISNEY/disney.sol\":5254:5286  historialAtracciones[msg.sender] */\n      0xffffffffffffffffffffffffffffffffffffffff\n      and\n      0xffffffffffffffffffffffffffffffffffffffff\n      and\n      dup2\n      mstore\n      0x20\n      add\n      swap1\n      dup2\n      mstore\n      0x20\n      add\n      0x00\n      keccak256\n        /* \"DISNEY/disney.sol\":5292:5308  _nombreAtraccion */\n      dup3\n        /* \"DISNEY/disney.sol\":5254:5309  historialAtracciones[msg.sender].push(_nombreAtraccion) */\n      swap1\n      dup1\n      0x01\n      dup2\n      sload\n      add\n      dup1\n      dup3\n      sstore\n      dup1\n      swap2\n      pop\n      pop\n      0x01\n      swap1\n      sub\n      swap1\n      0x00\n      mstore\n      keccak256(0x00, 0x20)\n      add\n      0x00\n      swap1\n      swap2\n      swap1\n      swap2\n      swap1\n      swap2\n      pop\n      swap1\n      dup2\n      tag_188\n      swap2\n      swap1\n      tag_119\n      jump\t// in\n    tag_188:\n      pop\n        /* \"DISNEY/disney.sol\":5384:5448  disfrutaAtraccion(_nombreAtraccion, tokensAtraccion, msg.sender) */\n      0xbaf6a0fff40567a8dcc9abdf2a6cfea5ceec4d3a871a3858d3d09fb1df6e9bfa\n        /* \"DISNEY/disney.sol\":5402:5418  _nombreAtraccion */\n      dup3\n        /* \"DISNEY/disney.sol\":5420:5435  tokensAtraccion */\n      dup3\n        /* \"DISNEY/disney.sol\":5437:5447  msg.sender */\n      caller\n        /* \"DISNEY/disney.sol\":5384:5448  disfrutaAtraccion(_nombreAtraccion, tokensAtraccion, msg.sender) */\n      mload(0x40)\n      tag_189\n      swap4\n      swap3\n      swap2\n      swap1\n      tag_190\n      jump\t// in\n    tag_189:\n      mload(0x40)\n      dup1\n      swap2\n      sub\n      swap1\n      log1\n        /* \"DISNEY/disney.sol\":4369:5456  {... */\n      pop\n        /* \"DISNEY/disney.sol\":4304:5456  function subirseAtraccion(string memory _nombreAtraccion) public {... */\n      pop\n      jump\t// out\n        /* \"DISNEY/disney.sol\":4188:4296  function atraccionesDisponibles() public view returns(string[] memory) {... */\n    tag_63:\n        /* \"DISNEY/disney.sol\":4242:4257  string[] memory */\n      0x60\n        /* \"DISNEY/disney.sol\":4277:4288  atracciones */\n      0x04\n        /* \"DISNEY/disney.sol\":4270:4288  return atracciones */\n      dup1\n      sload\n      dup1\n      0x20\n      mul\n      0x20\n      add\n      mload(0x40)\n      swap1\n      dup2\n      add\n      0x40\n      mstore\n      dup1\n      swap3\n      swap2\n      swap1\n      dup2\n      dup2\n      mstore\n      0x20\n      add\n      0x00\n      swap1\n    tag_192:\n      dup3\n      dup3\n      lt\n      iszero\n      tag_193\n      jumpi\n      dup4\n      dup3\n      swap1\n      0x00\n      mstore\n      keccak256(0x00, 0x20)\n      add\n      dup1\n      sload\n      tag_195\n      swap1\n      tag_134\n      jump\t// in\n    tag_195:\n      dup1\n      0x1f\n      add\n      0x20\n      dup1\n      swap2\n      div\n      mul\n      0x20\n      add\n      mload(0x40)\n      swap1\n      dup2\n      add\n      0x40\n      mstore\n      dup1\n      swap3\n      swap2\n      swap1\n      dup2\n      dup2\n      mstore\n      0x20\n      add\n      dup3\n      dup1\n      sload\n      tag_196\n      swap1\n      tag_134\n      jump\t// in\n    tag_196:\n      dup1\n      iszero\n      tag_197\n      jumpi\n      dup1\n      0x1f\n      lt\n      tag_198\n      jumpi\n      0x0100\n      dup1\n      dup4\n      sload\n      div\n      mul\n      dup4\n      mstore\n      swap2\n      0x20\n      add\n      swap2\n      jump(tag_197)\n    tag_198:\n      dup3\n      add\n      swap2\n      swap1\n      0x00\n      mstore\n      keccak256(0x00, 0x20)\n      swap1\n    tag_199:\n      dup2\n      sload\n      dup2\n      mstore\n      swap1\n      0x01\n      add\n      swap1\n      0x20\n      add\n      dup1\n      dup4\n      gt\n      tag_199\n      jumpi\n      dup3\n      swap1\n      sub\n      0x1f\n      and\n      dup3\n      add\n      swap2\n    tag_197:\n      pop\n      pop\n      pop\n      pop\n      pop\n      dup2\n      mstore\n      0x20\n      add\n      swap1\n      0x01\n      add\n      swap1\n      jump(tag_192)\n    tag_193:\n      pop\n      pop\n      pop\n      pop\n      swap1\n      pop\n        /* \"DISNEY/disney.sol\":4188:4296  function atraccionesDisponibles() public view returns(string[] memory) {... */\n      swap1\n      jump\t// out\n        /* \"DISNEY/disney.sol\":2145:2276  function generaTokens(uint _numTokens) public unicamenteDisney(msg.sender) {... */\n    tag_68:\n        /* \"DISNEY/disney.sol\":2208:2218  msg.sender */\n      caller\n        /* \"DISNEY/disney.sol\":2435:2440  owner */\n      0x01\n      0x00\n      swap1\n      sload\n      swap1\n      0x0100\n      exp\n      swap1\n      div\n      0xffffffffffffffffffffffffffffffffffffffff\n      and\n        /* \"DISNEY/disney.sol\":2421:2440  _direccion == owner */\n      0xffffffffffffffffffffffffffffffffffffffff\n      and\n        /* \"DISNEY/disney.sol\":2421:2431  _direccion */\n      dup2\n        /* \"DISNEY/disney.sol\":2421:2440  _direccion == owner */\n      0xffffffffffffffffffffffffffffffffffffffff\n      and\n      eq\n        /* \"DISNEY/disney.sol\":2413:2490  require(_direccion == owner, \"No tienes permisos para ejecutar esta funcion\") */\n      tag_201\n      jumpi\n      mload(0x40)\n      0x08c379a000000000000000000000000000000000000000000000000000000000\n      dup2\n      mstore\n      0x04\n      add\n      tag_202\n      swap1\n      tag_107\n      jump\t// in\n    tag_202:\n      mload(0x40)\n      dup1\n      swap2\n      sub\n      swap1\n      revert\n    tag_201:\n        /* \"DISNEY/disney.sol\":2231:2236  token */\n      0x00\n      dup1\n      sload\n      swap1\n      0x0100\n      exp\n      swap1\n      div\n      0xffffffffffffffffffffffffffffffffffffffff\n      and\n        /* \"DISNEY/disney.sol\":2231:2256  token.increaseTotalSupply */\n      0xffffffffffffffffffffffffffffffffffffffff\n      and\n      0x1d43cc98\n        /* \"DISNEY/disney.sol\":2257:2267  _numTokens */\n      dup4\n        /* \"DISNEY/disney.sol\":2231:2268  token.increaseTotalSupply(_numTokens) */\n      mload(0x40)\n      dup3\n      0xffffffff\n      and\n      0xe0\n      shl\n      dup2\n      mstore\n      0x04\n      add\n      tag_204\n      swap2\n      swap1\n      tag_52\n      jump\t// in\n    tag_204:\n      0x00\n      mload(0x40)\n      dup1\n      dup4\n      sub\n      dup2\n      0x00\n      dup8\n      dup1\n      extcodesize\n      iszero\n      dup1\n      iszero\n      tag_205\n      jumpi\n      0x00\n      dup1\n      revert\n    tag_205:\n      pop\n      gas\n      call\n      iszero\n      dup1\n      iszero\n      tag_207\n      jumpi\n      returndatasize\n      0x00\n      dup1\n      returndatacopy\n      revert(0x00, returndatasize)\n    tag_207:\n      pop\n      pop\n      pop\n      pop\n        /* \"DISNEY/disney.sol\":2145:2276  function generaTokens(uint _numTokens) public unicamenteDisney(msg.sender) {... */\n      pop\n      pop\n      jump\t// out\n        /* \"DISNEY/disney.sol\":7351:7550  function eliminarComida(string memory _nombreComida) public unicamenteDisney(msg.sender) {... */\n    tag_72:\n        /* \"DISNEY/disney.sol\":7428:7438  msg.sender */\n      caller\n        /* \"DISNEY/disney.sol\":2435:2440  owner */\n      0x01\n      0x00\n      swap1\n      sload\n      swap1\n      0x0100\n      exp\n      swap1\n      div\n      0xffffffffffffffffffffffffffffffffffffffff\n      and\n        /* \"DISNEY/disney.sol\":2421:2440  _direccion == owner */\n      0xffffffffffffffffffffffffffffffffffffffff\n      and\n        /* \"DISNEY/disney.sol\":2421:2431  _direccion */\n      dup2\n        /* \"DISNEY/disney.sol\":2421:2440  _direccion == owner */\n      0xffffffffffffffffffffffffffffffffffffffff\n      and\n      eq\n        /* \"DISNEY/disney.sol\":2413:2490  require(_direccion == owner, \"No tienes permisos para ejecutar esta funcion\") */\n      tag_209\n      jumpi\n      mload(0x40)\n      0x08c379a000000000000000000000000000000000000000000000000000000000\n      dup2\n      mstore\n      0x04\n      add\n      tag_210\n      swap1\n      tag_107\n      jump\t// in\n    tag_210:\n      mload(0x40)\n      dup1\n      swap2\n      sub\n      swap1\n      revert\n    tag_209:\n        /* \"DISNEY/disney.sol\":7494:7499  false */\n      0x00\n        /* \"DISNEY/disney.sol\":7451:7465  mappingComidas */\n      0x06\n        /* \"DISNEY/disney.sol\":7466:7479  _nombreComida */\n      dup4\n        /* \"DISNEY/disney.sol\":7451:7480  mappingComidas[_nombreComida] */\n      mload(0x40)\n      tag_212\n      swap2\n      swap1\n      tag_110\n      jump\t// in\n    tag_212:\n      swap1\n      dup2\n      mstore\n      0x20\n      add\n      mload(0x40)\n      dup1\n      swap2\n      sub\n      swap1\n      keccak256\n        /* \"DISNEY/disney.sol\":7451:7491  mappingComidas[_nombreComida].disponible */\n      0x02\n      add\n      0x00\n        /* \"DISNEY/disney.sol\":7451:7499  mappingComidas[_nombreComida].disponible = false */\n      0x0100\n      exp\n      dup2\n      sload\n      dup2\n      0xff\n      mul\n      not\n      and\n      swap1\n      dup4\n      iszero\n      iszero\n      mul\n      or\n      swap1\n      sstore\n      pop\n        /* \"DISNEY/disney.sol\":7515:7542  quitarComida(_nombreComida) */\n      0xd8d4765c18ff9b88481b923fb510b25188af6e7d6ee7094eb5ee925dd5a38a22\n        /* \"DISNEY/disney.sol\":7528:7541  _nombreComida */\n      dup3\n        /* \"DISNEY/disney.sol\":7515:7542  quitarComida(_nombreComida) */\n      mload(0x40)\n      tag_213\n      swap2\n      swap1\n      tag_112\n      jump\t// in\n    tag_213:\n      mload(0x40)\n      dup1\n      swap2\n      sub\n      swap1\n      log1\n        /* \"DISNEY/disney.sol\":7351:7550  function eliminarComida(string memory _nombreComida) public unicamenteDisney(msg.sender) {... */\n      pop\n      pop\n      jump\t// out\n        /* \"DISNEY/disney.sol\":2943:2998  mapping (string => atraccion) public mappingAtracciones */\n    tag_76:\n      0x03\n      dup2\n      dup1\n      mload\n      0x20\n      dup2\n      add\n      dup3\n      add\n      dup1\n      mload\n      dup5\n      dup3\n      mstore\n      0x20\n      dup4\n      add\n      0x20\n      dup6\n      add\n      keccak256\n      dup2\n      dup4\n      mstore\n      dup1\n      swap6\n      pop\n      pop\n      pop\n      pop\n      pop\n      pop\n      0x00\n      swap2\n      pop\n      swap1\n      pop\n      dup1\n      0x00\n      add\n      dup1\n      sload\n      tag_214\n      swap1\n      tag_134\n      jump\t// in\n    tag_214:\n      dup1\n      0x1f\n      add\n      0x20\n      dup1\n      swap2\n      div\n      mul\n      0x20\n      add\n      mload(0x40)\n      swap1\n      dup2\n      add\n      0x40\n      mstore\n      dup1\n      swap3\n      swap2\n      swap1\n      dup2\n      dup2\n      mstore\n      0x20\n      add\n      dup3\n      dup1\n      sload\n      tag_215\n      swap1\n      tag_134\n      jump\t// in\n    tag_215:\n      dup1\n      iszero\n      tag_216\n      jumpi\n      dup1\n      0x1f\n      lt\n      tag_217\n      jumpi\n      0x0100\n      dup1\n      dup4\n      sload\n      div\n      mul\n      dup4\n      mstore\n      swap2\n      0x20\n      add\n      swap2\n      jump(tag_216)\n    tag_217:\n      dup3\n      add\n      swap2\n      swap1\n      0x00\n      mstore\n      keccak256(0x00, 0x20)\n      swap1\n    tag_218:\n      dup2\n      sload\n      dup2\n      mstore\n      swap1\n      0x01\n      add\n      swap1\n      0x20\n      add\n      dup1\n      dup4\n      gt\n      tag_218\n      jumpi\n      dup3\n      swap1\n      sub\n      0x1f\n      and\n      dup3\n      add\n      swap2\n    tag_216:\n      pop\n      pop\n      pop\n      pop\n      pop\n      swap1\n      dup1\n      0x01\n      add\n      sload\n      swap1\n      dup1\n      0x02\n      add\n      0x00\n      swap1\n      sload\n      swap1\n      0x0100\n      exp\n      swap1\n      div\n      0xff\n      and\n      swap1\n      pop\n      dup4\n      jump\t// out\n        /* \"DISNEY/disney.sol\":8303:8431  function consultarHistorialComidas() public view returns(string[] memory) {... */\n    tag_80:\n        /* \"DISNEY/disney.sol\":8360:8375  string[] memory */\n      0x60\n        /* \"DISNEY/disney.sol\":8395:8411  historialComidas */\n      0x08\n        /* \"DISNEY/disney.sol\":8395:8423  historialComidas[msg.sender] */\n      0x00\n        /* \"DISNEY/disney.sol\":8412:8422  msg.sender */\n      caller\n        /* \"DISNEY/disney.sol\":8395:8423  historialComidas[msg.sender] */\n      0xffffffffffffffffffffffffffffffffffffffff\n      and\n      0xffffffffffffffffffffffffffffffffffffffff\n      and\n      dup2\n      mstore\n      0x20\n      add\n      swap1\n      dup2\n      mstore\n      0x20\n      add\n      0x00\n      keccak256\n        /* \"DISNEY/disney.sol\":8388:8423  return historialComidas[msg.sender] */\n      dup1\n      sload\n      dup1\n      0x20\n      mul\n      0x20\n      add\n      mload(0x40)\n      swap1\n      dup2\n      add\n      0x40\n      mstore\n      dup1\n      swap3\n      swap2\n      swap1\n      dup2\n      dup2\n      mstore\n      0x20\n      add\n      0x00\n      swap1\n    tag_220:\n      dup3\n      dup3\n      lt\n      iszero\n      tag_221\n      jumpi\n      dup4\n      dup3\n      swap1\n      0x00\n      mstore\n      keccak256(0x00, 0x20)\n      add\n      dup1\n      sload\n      tag_223\n      swap1\n      tag_134\n      jump\t// in\n    tag_223:\n      dup1\n      0x1f\n      add\n      0x20\n      dup1\n      swap2\n      div\n      mul\n      0x20\n      add\n      mload(0x40)\n      swap1\n      dup2\n      add\n      0x40\n      mstore\n      dup1\n      swap3\n      swap2\n      swap1\n      dup2\n      dup2\n      mstore\n      0x20\n      add\n      dup3\n      dup1\n      sload\n      tag_224\n      swap1\n      tag_134\n      jump\t// in\n    tag_224:\n      dup1\n      iszero\n      tag_225\n      jumpi\n      dup1\n      0x1f\n      lt\n      tag_226\n      jumpi\n      0x0100\n      dup1\n      dup4\n      sload\n      div\n      mul\n      dup4\n      mstore\n      swap2\n      0x20\n      add\n      swap2\n      jump(tag_225)\n    tag_226:\n      dup3\n      add\n      swap2\n      swap1\n      0x00\n      mstore\n      keccak256(0x00, 0x20)\n      swap1\n    tag_227:\n      dup2\n      sload\n      dup2\n      mstore\n      swap1\n      0x01\n      add\n      swap1\n      0x20\n      add\n      dup1\n      dup4\n      gt\n      tag_227\n      jumpi\n      dup3\n      swap1\n      sub\n      0x1f\n      and\n      dup3\n      add\n      swap2\n    tag_225:\n      pop\n      pop\n      pop\n      pop\n      pop\n      dup2\n      mstore\n      0x20\n      add\n      swap1\n      0x01\n      add\n      swap1\n      jump(tag_220)\n    tag_221:\n      pop\n      pop\n      pop\n      pop\n      swap1\n      pop\n        /* \"DISNEY/disney.sol\":8303:8431  function consultarHistorialComidas() public view returns(string[] memory) {... */\n      swap1\n      jump\t// out\n        /* \"DISNEY/disney.sol\":638:682  mapping (address => cliente) public clientes */\n    tag_86:\n      mstore(0x20, 0x02)\n      dup1\n      0x00\n      mstore\n      keccak256(0x00, 0x40)\n      0x00\n      swap2\n      pop\n      swap1\n      pop\n      dup1\n      0x00\n      add\n      sload\n      swap1\n      pop\n      dup2\n      jump\t// out\n        /* \"DISNEY/disney.sol\":7695:8225  function comerComida(string memory _nombreComida) public {... */\n    tag_91:\n        /* \"DISNEY/disney.sol\":7815:7819  true */\n      0x01\n        /* \"DISNEY/disney.sol\":7771:7819  mappingComidas[_nombreComida].disponible == true */\n      iszero\n      iszero\n        /* \"DISNEY/disney.sol\":7771:7785  mappingComidas */\n      0x06\n        /* \"DISNEY/disney.sol\":7786:7799  _nombreComida */\n      dup3\n        /* \"DISNEY/disney.sol\":7771:7800  mappingComidas[_nombreComida] */\n      mload(0x40)\n      tag_229\n      swap2\n      swap1\n      tag_110\n      jump\t// in\n    tag_229:\n      swap1\n      dup2\n      mstore\n      0x20\n      add\n      mload(0x40)\n      dup1\n      swap2\n      sub\n      swap1\n      keccak256\n        /* \"DISNEY/disney.sol\":7771:7811  mappingComidas[_nombreComida].disponible */\n      0x02\n      add\n      0x00\n      swap1\n      sload\n      swap1\n      0x0100\n      exp\n      swap1\n      div\n      0xff\n      and\n        /* \"DISNEY/disney.sol\":7771:7819  mappingComidas[_nombreComida].disponible == true */\n      iszero\n      iszero\n      eq\n        /* \"DISNEY/disney.sol\":7763:7854  require(mappingComidas[_nombreComida].disponible == true, \"Esta comida no esta disponible\") */\n      tag_230\n      jumpi\n      mload(0x40)\n      0x08c379a000000000000000000000000000000000000000000000000000000000\n      dup2\n      mstore\n      0x04\n      add\n      tag_231\n      swap1\n      tag_232\n      jump\t// in\n    tag_231:\n      mload(0x40)\n      dup1\n      swap2\n      sub\n      swap1\n      revert\n    tag_230:\n        /* \"DISNEY/disney.sol\":7867:7884  uint precioComida */\n      0x00\n        /* \"DISNEY/disney.sol\":7887:7901  mappingComidas */\n      0x06\n        /* \"DISNEY/disney.sol\":7902:7915  _nombreComida */\n      dup3\n        /* \"DISNEY/disney.sol\":7887:7916  mappingComidas[_nombreComida] */\n      mload(0x40)\n      tag_233\n      swap2\n      swap1\n      tag_110\n      jump\t// in\n    tag_233:\n      swap1\n      dup2\n      mstore\n      0x20\n      add\n      mload(0x40)\n      dup1\n      swap2\n      sub\n      swap1\n      keccak256\n        /* \"DISNEY/disney.sol\":7887:7923  mappingComidas[_nombreComida].precio */\n      0x01\n      add\n      sload\n        /* \"DISNEY/disney.sol\":7867:7923  uint precioComida = mappingComidas[_nombreComida].precio */\n      swap1\n      pop\n        /* \"DISNEY/disney.sol\":7958:7969  misTokens() */\n      tag_234\n        /* \"DISNEY/disney.sol\":7958:7967  misTokens */\n      tag_50\n        /* \"DISNEY/disney.sol\":7958:7969  misTokens() */\n      jump\t// in\n    tag_234:\n        /* \"DISNEY/disney.sol\":7942:7954  precioComida */\n      dup2\n        /* \"DISNEY/disney.sol\":7942:7969  precioComida <= misTokens() */\n      gt\n      iszero\n        /* \"DISNEY/disney.sol\":7934:8013  require(precioComida <= misTokens(), \"No tienes suficientes tokens para pagar\") */\n      tag_235\n      jumpi\n      mload(0x40)\n      0x08c379a000000000000000000000000000000000000000000000000000000000\n      dup2\n      mstore\n      0x04\n      add\n      tag_236\n      swap1\n      tag_237\n      jump\t// in\n    tag_236:\n      mload(0x40)\n      dup1\n      swap2\n      sub\n      swap1\n      revert\n    tag_235:\n        /* \"DISNEY/disney.sol\":8026:8031  token */\n      0x00\n      dup1\n      sload\n      swap1\n      0x0100\n      exp\n      swap1\n      div\n      0xffffffffffffffffffffffffffffffffffffffff\n      and\n        /* \"DISNEY/disney.sol\":8026:8046  token.transferDisney */\n      0xffffffffffffffffffffffffffffffffffffffff\n      and\n      0x5e413c87\n        /* \"DISNEY/disney.sol\":8047:8057  msg.sender */\n      caller\n        /* \"DISNEY/disney.sol\":8067:8071  this */\n      address\n        /* \"DISNEY/disney.sol\":8074:8086  precioComida */\n      dup5\n        /* \"DISNEY/disney.sol\":8026:8087  token.transferDisney(msg.sender, address(this), precioComida) */\n      mload(0x40)\n      dup5\n      0xffffffff\n      and\n      0xe0\n      shl\n      dup2\n      mstore\n      0x04\n      add\n      tag_238\n      swap4\n      swap3\n      swap2\n      swap1\n      tag_164\n      jump\t// in\n    tag_238:\n      0x20\n      mload(0x40)\n      dup1\n      dup4\n      sub\n      dup2\n      0x00\n      dup8\n      gas\n      call\n      iszero\n      dup1\n      iszero\n      tag_240\n      jumpi\n      returndatasize\n      0x00\n      dup1\n      returndatacopy\n      revert(0x00, returndatasize)\n    tag_240:\n      pop\n      pop\n      pop\n      pop\n      mload(0x40)\n      returndatasize\n      not(0x1f)\n      0x1f\n      dup3\n      add\n      and\n      dup3\n      add\n      dup1\n      0x40\n      mstore\n      pop\n      dup2\n      add\n      swap1\n      tag_241\n      swap2\n      swap1\n      tag_168\n      jump\t// in\n    tag_241:\n      pop\n        /* \"DISNEY/disney.sol\":8098:8114  historialComidas */\n      0x08\n        /* \"DISNEY/disney.sol\":8098:8126  historialComidas[msg.sender] */\n      0x00\n        /* \"DISNEY/disney.sol\":8115:8125  msg.sender */\n      caller\n        /* \"DISNEY/disney.sol\":8098:8126  historialComidas[msg.sender] */\n      0xffffffffffffffffffffffffffffffffffffffff\n      and\n      0xffffffffffffffffffffffffffffffffffffffff\n      and\n      dup2\n      mstore\n      0x20\n      add\n      swap1\n      dup2\n      mstore\n      0x20\n      add\n      0x00\n      keccak256\n        /* \"DISNEY/disney.sol\":8132:8145  _nombreComida */\n      dup3\n        /* \"DISNEY/disney.sol\":8098:8146  historialComidas[msg.sender].push(_nombreComida) */\n      swap1\n      dup1\n      0x01\n      dup2\n      sload\n      add\n      dup1\n      dup3\n      sstore\n      dup1\n      swap2\n      pop\n      pop\n      0x01\n      swap1\n      sub\n      swap1\n      0x00\n      mstore\n      keccak256(0x00, 0x20)\n      add\n      0x00\n      swap1\n      swap2\n      swap1\n      swap2\n      swap1\n      swap2\n      pop\n      swap1\n      dup2\n      tag_243\n      swap2\n      swap1\n      tag_119\n      jump\t// in\n    tag_243:\n      pop\n        /* \"DISNEY/disney.sol\":8162:8217  disfrutaComida(_nombreComida, precioComida, msg.sender) */\n      0x39077ce3b8675b07f88a99a0689b31e807fa6d51465a64eafd44f062e3ee64e5\n        /* \"DISNEY/disney.sol\":8177:8190  _nombreComida */\n      dup3\n        /* \"DISNEY/disney.sol\":8192:8204  precioComida */\n      dup3\n        /* \"DISNEY/disney.sol\":8206:8216  msg.sender */\n      caller\n        /* \"DISNEY/disney.sol\":8162:8217  disfrutaComida(_nombreComida, precioComida, msg.sender) */\n      mload(0x40)\n      tag_244\n      swap4\n      swap3\n      swap2\n      swap1\n      tag_190\n      jump\t// in\n    tag_244:\n      mload(0x40)\n      dup1\n      swap2\n      sub\n      swap1\n      log1\n        /* \"DISNEY/disney.sol\":7752:8225  {... */\n      pop\n        /* \"DISNEY/disney.sol\":7695:8225  function comerComida(string memory _nombreComida) public {... */\n      pop\n      jump\t// out\n        /* \"DISNEY/disney.sol\":256:284  address payable public owner */\n    tag_94:\n      0x01\n      0x00\n      swap1\n      sload\n      swap1\n      0x0100\n      exp\n      swap1\n      div\n      0xffffffffffffffffffffffffffffffffffffffff\n      and\n      dup2\n      jump\t// out\n        /* \"DISNEY/disney.sol\":1019:1933  function compraTokens(uint _numTokens) public payable {... */\n    tag_99:\n        /* \"DISNEY/disney.sol\":1131:1141  uint coste */\n      0x00\n        /* \"DISNEY/disney.sol\":1144:1168  precioTokens(_numTokens) */\n      tag_246\n        /* \"DISNEY/disney.sol\":1157:1167  _numTokens */\n      dup3\n        /* \"DISNEY/disney.sol\":1144:1156  precioTokens */\n      tag_170\n        /* \"DISNEY/disney.sol\":1144:1168  precioTokens(_numTokens) */\n      jump\t// in\n    tag_246:\n        /* \"DISNEY/disney.sol\":1131:1168  uint coste = precioTokens(_numTokens) */\n      swap1\n      pop\n        /* \"DISNEY/disney.sol\":1267:1272  coste */\n      dup1\n        /* \"DISNEY/disney.sol\":1254:1263  msg.value */\n      callvalue\n        /* \"DISNEY/disney.sol\":1254:1272  msg.value >= coste */\n      lt\n      iszero\n        /* \"DISNEY/disney.sol\":1246:1318  require(msg.value >= coste, \"Compra menos Tokens o paga con mas ethers\") */\n      tag_247\n      jumpi\n      mload(0x40)\n      0x08c379a000000000000000000000000000000000000000000000000000000000\n      dup2\n      mstore\n      0x04\n      add\n      tag_248\n      swap1\n      tag_249\n      jump\t// in\n    tag_248:\n      mload(0x40)\n      dup1\n      swap2\n      sub\n      swap1\n      revert\n    tag_247:\n        /* \"DISNEY/disney.sol\":1378:1394  uint returnValue */\n      0x00\n        /* \"DISNEY/disney.sol\":1409:1414  coste */\n      dup2\n        /* \"DISNEY/disney.sol\":1397:1406  msg.value */\n      callvalue\n        /* \"DISNEY/disney.sol\":1397:1414  msg.value - coste */\n      tag_250\n      swap2\n      swap1\n      tag_251\n      jump\t// in\n    tag_250:\n        /* \"DISNEY/disney.sol\":1378:1414  uint returnValue = msg.value - coste */\n      swap1\n      pop\n        /* \"DISNEY/disney.sol\":1493:1503  msg.sender */\n      caller\n        /* \"DISNEY/disney.sol\":1485:1513  payable(msg.sender).transfer */\n      0xffffffffffffffffffffffffffffffffffffffff\n      and\n        /* \"DISNEY/disney.sol\":1485:1526  payable(msg.sender).transfer(returnValue) */\n      0x08fc\n        /* \"DISNEY/disney.sol\":1514:1525  returnValue */\n      dup3\n        /* \"DISNEY/disney.sol\":1485:1526  payable(msg.sender).transfer(returnValue) */\n      swap1\n      dup2\n      iszero\n      mul\n      swap1\n      mload(0x40)\n      0x00\n      mload(0x40)\n      dup1\n      dup4\n      sub\n      dup2\n      dup6\n      dup9\n      dup9\n      call\n      swap4\n      pop\n      pop\n      pop\n      pop\n      iszero\n      dup1\n      iszero\n      tag_253\n      jumpi\n      returndatasize\n      0x00\n      dup1\n      returndatacopy\n      revert(0x00, returndatasize)\n    tag_253:\n      pop\n        /* \"DISNEY/disney.sol\":1594:1606  uint balance */\n      0x00\n        /* \"DISNEY/disney.sol\":1609:1614  token */\n      dup1\n      0x00\n      swap1\n      sload\n      swap1\n      0x0100\n      exp\n      swap1\n      div\n      0xffffffffffffffffffffffffffffffffffffffff\n      and\n        /* \"DISNEY/disney.sol\":1609:1624  token.balanceOf */\n      0xffffffffffffffffffffffffffffffffffffffff\n      and\n      0x70a08231\n        /* \"DISNEY/disney.sol\":1633:1637  this */\n      address\n        /* \"DISNEY/disney.sol\":1609:1639  token.balanceOf(address(this)) */\n      mload(0x40)\n      dup3\n      0xffffffff\n      and\n      0xe0\n      shl\n      dup2\n      mstore\n      0x04\n      add\n      tag_254\n      swap2\n      swap1\n      tag_150\n      jump\t// in\n    tag_254:\n      0x20\n      mload(0x40)\n      dup1\n      dup4\n      sub\n      dup2\n      dup7\n      gas\n      staticcall\n      iszero\n      dup1\n      iszero\n      tag_256\n      jumpi\n      returndatasize\n      0x00\n      dup1\n      returndatacopy\n      revert(0x00, returndatasize)\n    tag_256:\n      pop\n      pop\n      pop\n      pop\n      mload(0x40)\n      returndatasize\n      not(0x1f)\n      0x1f\n      dup3\n      add\n      and\n      dup3\n      add\n      dup1\n      0x40\n      mstore\n      pop\n      dup2\n      add\n      swap1\n      tag_257\n      swap2\n      swap1\n      tag_154\n      jump\t// in\n    tag_257:\n        /* \"DISNEY/disney.sol\":1594:1639  uint balance = token.balanceOf(address(this)) */\n      swap1\n      pop\n        /* \"DISNEY/disney.sol\":1672:1679  balance */\n      dup1\n        /* \"DISNEY/disney.sol\":1658:1668  _numTokens */\n      dup5\n        /* \"DISNEY/disney.sol\":1658:1679  _numTokens <= balance */\n      gt\n      iszero\n        /* \"DISNEY/disney.sol\":1650:1716  require(_numTokens <= balance, \"Compra un numero menor de Tokens\") */\n      tag_258\n      jumpi\n      mload(0x40)\n      0x08c379a000000000000000000000000000000000000000000000000000000000\n      dup2\n      mstore\n      0x04\n      add\n      tag_259\n      swap1\n      tag_260\n      jump\t// in\n    tag_259:\n      mload(0x40)\n      dup1\n      swap2\n      sub\n      swap1\n      revert\n    tag_258:\n        /* \"DISNEY/disney.sol\":1785:1790  token */\n      0x00\n      dup1\n      sload\n      swap1\n      0x0100\n      exp\n      swap1\n      div\n      0xffffffffffffffffffffffffffffffffffffffff\n      and\n        /* \"DISNEY/disney.sol\":1785:1799  token.transfer */\n      0xffffffffffffffffffffffffffffffffffffffff\n      and\n      0xa9059cbb\n        /* \"DISNEY/disney.sol\":1800:1810  msg.sender */\n      caller\n        /* \"DISNEY/disney.sol\":1812:1822  _numTokens */\n      dup7\n        /* \"DISNEY/disney.sol\":1785:1823  token.transfer(msg.sender, _numTokens) */\n      mload(0x40)\n      dup4\n      0xffffffff\n      and\n      0xe0\n      shl\n      dup2\n      mstore\n      0x04\n      add\n      tag_261\n      swap3\n      swap2\n      swap1\n      tag_262\n      jump\t// in\n    tag_261:\n      0x20\n      mload(0x40)\n      dup1\n      dup4\n      sub\n      dup2\n      0x00\n      dup8\n      gas\n      call\n      iszero\n      dup1\n      iszero\n      tag_264\n      jumpi\n      returndatasize\n      0x00\n      dup1\n      returndatacopy\n      revert(0x00, returndatasize)\n    tag_264:\n      pop\n      pop\n      pop\n      pop\n      mload(0x40)\n      returndatasize\n      not(0x1f)\n      0x1f\n      dup3\n      add\n      and\n      dup3\n      add\n      dup1\n      0x40\n      mstore\n      pop\n      dup2\n      add\n      swap1\n      tag_265\n      swap2\n      swap1\n      tag_168\n      jump\t// in\n    tag_265:\n      pop\n        /* \"DISNEY/disney.sol\":1915:1925  _numTokens */\n      dup4\n        /* \"DISNEY/disney.sol\":1875:1883  clientes */\n      0x02\n        /* \"DISNEY/disney.sol\":1875:1895  clientes[msg.sender] */\n      0x00\n        /* \"DISNEY/disney.sol\":1884:1894  msg.sender */\n      caller\n        /* \"DISNEY/disney.sol\":1875:1895  clientes[msg.sender] */\n      0xffffffffffffffffffffffffffffffffffffffff\n      and\n      0xffffffffffffffffffffffffffffffffffffffff\n      and\n      dup2\n      mstore\n      0x20\n      add\n      swap1\n      dup2\n      mstore\n      0x20\n      add\n      0x00\n      keccak256\n        /* \"DISNEY/disney.sol\":1875:1911  clientes[msg.sender].tokensComprados */\n      0x00\n      add\n      0x00\n        /* \"DISNEY/disney.sol\":1875:1925  clientes[msg.sender].tokensComprados += _numTokens */\n      dup3\n      dup3\n      sload\n      tag_266\n      swap2\n      swap1\n      tag_267\n      jump\t// in\n    tag_266:\n      swap3\n      pop\n      pop\n      dup2\n      swap1\n      sstore\n      pop\n        /* \"DISNEY/disney.sol\":1073:1933  {... */\n      pop\n      pop\n      pop\n        /* \"DISNEY/disney.sol\":1019:1933  function compraTokens(uint _numTokens) public payable {... */\n      pop\n      jump\t// out\n        /* \"DISNEY/disney.sol\":7589:7687  function consultarComidas() public view returns(string[] memory) {... */\n    tag_102:\n        /* \"DISNEY/disney.sol\":7637:7652  string[] memory */\n      0x60\n        /* \"DISNEY/disney.sol\":7672:7679  comidas */\n      0x07\n        /* \"DISNEY/disney.sol\":7665:7679  return comidas */\n      dup1\n      sload\n      dup1\n      0x20\n      mul\n      0x20\n      add\n      mload(0x40)\n      swap1\n      dup2\n      add\n      0x40\n      mstore\n      dup1\n      swap3\n      swap2\n      swap1\n      dup2\n      dup2\n      mstore\n      0x20\n      add\n      0x00\n      swap1\n    tag_269:\n      dup3\n      dup3\n      lt\n      iszero\n      tag_270\n      jumpi\n      dup4\n      dup3\n      swap1\n      0x00\n      mstore\n      keccak256(0x00, 0x20)\n      add\n      dup1\n      sload\n      tag_272\n      swap1\n      tag_134\n      jump\t// in\n    tag_272:\n      dup1\n      0x1f\n      add\n      0x20\n      dup1\n      swap2\n      div\n      mul\n      0x20\n      add\n      mload(0x40)\n      swap1\n      dup2\n      add\n      0x40\n      mstore\n      dup1\n      swap3\n      swap2\n      swap1\n      dup2\n      dup2\n      mstore\n      0x20\n      add\n      dup3\n      dup1\n      sload\n      tag_273\n      swap1\n      tag_134\n      jump\t// in\n    tag_273:\n      dup1\n      iszero\n      tag_274\n      jumpi\n      dup1\n      0x1f\n      lt\n      tag_275\n      jumpi\n      0x0100\n      dup1\n      dup4\n      sload\n      div\n      mul\n      dup4\n      mstore\n      swap2\n      0x20\n      add\n      swap2\n      jump(tag_274)\n    tag_275:\n      dup3\n      add\n      swap2\n      swap1\n      0x00\n      mstore\n      keccak256(0x00, 0x20)\n      swap1\n    tag_276:\n      dup2\n      sload\n      dup2\n      mstore\n      swap1\n      0x01\n      add\n      swap1\n      0x20\n      add\n      dup1\n      dup4\n      gt\n      tag_276\n      jumpi\n      dup3\n      swap1\n      sub\n      0x1f\n      and\n      dup3\n      add\n      swap2\n    tag_274:\n      pop\n      pop\n      pop\n      pop\n      pop\n      dup2\n      mstore\n      0x20\n      add\n      swap1\n      0x01\n      add\n      swap1\n      jump(tag_269)\n    tag_270:\n      pop\n      pop\n      pop\n      pop\n      swap1\n      pop\n        /* \"DISNEY/disney.sol\":7589:7687  function consultarComidas() public view returns(string[] memory) {... */\n      swap1\n      jump\t// out\n        /* \"DISNEY/disney.sol\":775:933  function precioTokens(uint _numTokens) internal pure returns(uint) {... */\n    tag_170:\n        /* \"DISNEY/disney.sol\":836:840  uint */\n      0x00\n        /* \"DISNEY/disney.sol\":917:924  1 ether */\n      0x0de0b6b3a7640000\n        /* \"DISNEY/disney.sol\":903:913  _numTokens */\n      dup3\n        /* \"DISNEY/disney.sol\":903:925  _numTokens * (1 ether) */\n      tag_278\n      swap2\n      swap1\n      tag_279\n      jump\t// in\n    tag_278:\n        /* \"DISNEY/disney.sol\":896:925  return _numTokens * (1 ether) */\n      swap1\n      pop\n        /* \"DISNEY/disney.sol\":775:933  function precioTokens(uint _numTokens) internal pure returns(uint) {... */\n      swap2\n      swap1\n      pop\n      jump\t// out\n        /* \"#utility.yul\":7:82   */\n    tag_280:\n        /* \"#utility.yul\":40:46   */\n      0x00\n        /* \"#utility.yul\":73:75   */\n      0x40\n        /* \"#utility.yul\":67:76   */\n      mload\n        /* \"#utility.yul\":57:76   */\n      swap1\n      pop\n        /* \"#utility.yul\":7:82   */\n      swap1\n      jump\t// out\n        /* \"#utility.yul\":88:205   */\n    tag_281:\n        /* \"#utility.yul\":197:198   */\n      0x00\n        /* \"#utility.yul\":194:195   */\n      dup1\n        /* \"#utility.yul\":187:199   */\n      revert\n        /* \"#utility.yul\":211:328   */\n    tag_282:\n        /* \"#utility.yul\":320:321   */\n      0x00\n        /* \"#utility.yul\":317:318   */\n      dup1\n        /* \"#utility.yul\":310:322   */\n      revert\n        /* \"#utility.yul\":334:451   */\n    tag_283:\n        /* \"#utility.yul\":443:444   */\n      0x00\n        /* \"#utility.yul\":440:441   */\n      dup1\n        /* \"#utility.yul\":433:445   */\n      revert\n        /* \"#utility.yul\":457:574   */\n    tag_284:\n        /* \"#utility.yul\":566:567   */\n      0x00\n        /* \"#utility.yul\":563:564   */\n      dup1\n        /* \"#utility.yul\":556:568   */\n      revert\n        /* \"#utility.yul\":580:682   */\n    tag_285:\n        /* \"#utility.yul\":621:627   */\n      0x00\n        /* \"#utility.yul\":672:674   */\n      0x1f\n        /* \"#utility.yul\":668:675   */\n      not\n        /* \"#utility.yul\":663:665   */\n      0x1f\n        /* \"#utility.yul\":656:661   */\n      dup4\n        /* \"#utility.yul\":652:666   */\n      add\n        /* \"#utility.yul\":648:676   */\n      and\n        /* \"#utility.yul\":638:676   */\n      swap1\n      pop\n        /* \"#utility.yul\":580:682   */\n      swap2\n      swap1\n      pop\n      jump\t// out\n        /* \"#utility.yul\":688:868   */\n    tag_286:\n        /* \"#utility.yul\":736:813   */\n      0x4e487b7100000000000000000000000000000000000000000000000000000000\n        /* \"#utility.yul\":733:734   */\n      0x00\n        /* \"#utility.yul\":726:814   */\n      mstore\n        /* \"#utility.yul\":833:837   */\n      0x41\n        /* \"#utility.yul\":830:831   */\n      0x04\n        /* \"#utility.yul\":823:838   */\n      mstore\n        /* \"#utility.yul\":857:861   */\n      0x24\n        /* \"#utility.yul\":854:855   */\n      0x00\n        /* \"#utility.yul\":847:862   */\n      revert\n        /* \"#utility.yul\":874:1155   */\n    tag_287:\n        /* \"#utility.yul\":957:984   */\n      tag_367\n        /* \"#utility.yul\":979:983   */\n      dup3\n        /* \"#utility.yul\":957:984   */\n      tag_285\n      jump\t// in\n    tag_367:\n        /* \"#utility.yul\":949:955   */\n      dup2\n        /* \"#utility.yul\":945:985   */\n      add\n        /* \"#utility.yul\":1087:1093   */\n      dup2\n        /* \"#utility.yul\":1075:1085   */\n      dup2\n        /* \"#utility.yul\":1072:1094   */\n      lt\n        /* \"#utility.yul\":1051:1069   */\n      0xffffffffffffffff\n        /* \"#utility.yul\":1039:1049   */\n      dup3\n        /* \"#utility.yul\":1036:1070   */\n      gt\n        /* \"#utility.yul\":1033:1095   */\n      or\n        /* \"#utility.yul\":1030:1118   */\n      iszero\n      tag_368\n      jumpi\n        /* \"#utility.yul\":1098:1116   */\n      tag_369\n      tag_286\n      jump\t// in\n    tag_369:\n        /* \"#utility.yul\":1030:1118   */\n    tag_368:\n        /* \"#utility.yul\":1138:1148   */\n      dup1\n        /* \"#utility.yul\":1134:1136   */\n      0x40\n        /* \"#utility.yul\":1127:1149   */\n      mstore\n        /* \"#utility.yul\":917:1155   */\n      pop\n        /* \"#utility.yul\":874:1155   */\n      pop\n      pop\n      jump\t// out\n        /* \"#utility.yul\":1161:1290   */\n    tag_288:\n        /* \"#utility.yul\":1195:1201   */\n      0x00\n        /* \"#utility.yul\":1222:1242   */\n      tag_371\n      tag_280\n      jump\t// in\n    tag_371:\n        /* \"#utility.yul\":1212:1242   */\n      swap1\n      pop\n        /* \"#utility.yul\":1251:1284   */\n      tag_372\n        /* \"#utility.yul\":1279:1283   */\n      dup3\n        /* \"#utility.yul\":1271:1277   */\n      dup3\n        /* \"#utility.yul\":1251:1284   */\n      tag_287\n      jump\t// in\n    tag_372:\n        /* \"#utility.yul\":1161:1290   */\n      swap2\n      swap1\n      pop\n      jump\t// out\n        /* \"#utility.yul\":1296:1604   */\n    tag_289:\n        /* \"#utility.yul\":1358:1362   */\n      0x00\n        /* \"#utility.yul\":1448:1466   */\n      0xffffffffffffffff\n        /* \"#utility.yul\":1440:1446   */\n      dup3\n        /* \"#utility.yul\":1437:1467   */\n      gt\n        /* \"#utility.yul\":1434:1490   */\n      iszero\n      tag_374\n      jumpi\n        /* \"#utility.yul\":1470:1488   */\n      tag_375\n      tag_286\n      jump\t// in\n    tag_375:\n        /* \"#utility.yul\":1434:1490   */\n    tag_374:\n        /* \"#utility.yul\":1508:1537   */\n      tag_376\n        /* \"#utility.yul\":1530:1536   */\n      dup3\n        /* \"#utility.yul\":1508:1537   */\n      tag_285\n      jump\t// in\n    tag_376:\n        /* \"#utility.yul\":1500:1537   */\n      swap1\n      pop\n        /* \"#utility.yul\":1592:1596   */\n      0x20\n        /* \"#utility.yul\":1586:1590   */\n      dup2\n        /* \"#utility.yul\":1582:1597   */\n      add\n        /* \"#utility.yul\":1574:1597   */\n      swap1\n      pop\n        /* \"#utility.yul\":1296:1604   */\n      swap2\n      swap1\n      pop\n      jump\t// out\n        /* \"#utility.yul\":1610:1756   */\n    tag_290:\n        /* \"#utility.yul\":1707:1713   */\n      dup3\n        /* \"#utility.yul\":1702:1705   */\n      dup2\n        /* \"#utility.yul\":1697:1700   */\n      dup4\n        /* \"#utility.yul\":1684:1714   */\n      calldatacopy\n        /* \"#utility.yul\":1748:1749   */\n      0x00\n        /* \"#utility.yul\":1739:1745   */\n      dup4\n        /* \"#utility.yul\":1734:1737   */\n      dup4\n        /* \"#utility.yul\":1730:1746   */\n      add\n        /* \"#utility.yul\":1723:1750   */\n      mstore\n        /* \"#utility.yul\":1610:1756   */\n      pop\n      pop\n      pop\n      jump\t// out\n        /* \"#utility.yul\":1762:2187   */\n    tag_291:\n        /* \"#utility.yul\":1840:1845   */\n      0x00\n        /* \"#utility.yul\":1865:1931   */\n      tag_379\n        /* \"#utility.yul\":1881:1930   */\n      tag_380\n        /* \"#utility.yul\":1923:1929   */\n      dup5\n        /* \"#utility.yul\":1881:1930   */\n      tag_289\n      jump\t// in\n    tag_380:\n        /* \"#utility.yul\":1865:1931   */\n      tag_288\n      jump\t// in\n    tag_379:\n        /* \"#utility.yul\":1856:1931   */\n      swap1\n      pop\n        /* \"#utility.yul\":1954:1960   */\n      dup3\n        /* \"#utility.yul\":1947:1952   */\n      dup2\n        /* \"#utility.yul\":1940:1961   */\n      mstore\n        /* \"#utility.yul\":1992:1996   */\n      0x20\n        /* \"#utility.yul\":1985:1990   */\n      dup2\n        /* \"#utility.yul\":1981:1997   */\n      add\n        /* \"#utility.yul\":2030:2033   */\n      dup5\n        /* \"#utility.yul\":2021:2027   */\n      dup5\n        /* \"#utility.yul\":2016:2019   */\n      dup5\n        /* \"#utility.yul\":2012:2028   */\n      add\n        /* \"#utility.yul\":2009:2034   */\n      gt\n        /* \"#utility.yul\":2006:2118   */\n      iszero\n      tag_381\n      jumpi\n        /* \"#utility.yul\":2037:2116   */\n      tag_382\n      tag_284\n      jump\t// in\n    tag_382:\n        /* \"#utility.yul\":2006:2118   */\n    tag_381:\n        /* \"#utility.yul\":2127:2181   */\n      tag_383\n        /* \"#utility.yul\":2174:2180   */\n      dup5\n        /* \"#utility.yul\":2169:2172   */\n      dup3\n        /* \"#utility.yul\":2164:2167   */\n      dup6\n        /* \"#utility.yul\":2127:2181   */\n      tag_290\n      jump\t// in\n    tag_383:\n        /* \"#utility.yul\":1846:2187   */\n      pop\n        /* \"#utility.yul\":1762:2187   */\n      swap4\n      swap3\n      pop\n      pop\n      pop\n      jump\t// out\n        /* \"#utility.yul\":2207:2547   */\n    tag_292:\n        /* \"#utility.yul\":2263:2268   */\n      0x00\n        /* \"#utility.yul\":2312:2315   */\n      dup3\n        /* \"#utility.yul\":2305:2309   */\n      0x1f\n        /* \"#utility.yul\":2297:2303   */\n      dup4\n        /* \"#utility.yul\":2293:2310   */\n      add\n        /* \"#utility.yul\":2289:2316   */\n      slt\n        /* \"#utility.yul\":2279:2401   */\n      tag_385\n      jumpi\n        /* \"#utility.yul\":2320:2399   */\n      tag_386\n      tag_283\n      jump\t// in\n    tag_386:\n        /* \"#utility.yul\":2279:2401   */\n    tag_385:\n        /* \"#utility.yul\":2437:2443   */\n      dup2\n        /* \"#utility.yul\":2424:2444   */\n      calldataload\n        /* \"#utility.yul\":2462:2541   */\n      tag_387\n        /* \"#utility.yul\":2537:2540   */\n      dup5\n        /* \"#utility.yul\":2529:2535   */\n      dup3\n        /* \"#utility.yul\":2522:2526   */\n      0x20\n        /* \"#utility.yul\":2514:2520   */\n      dup7\n        /* \"#utility.yul\":2510:2527   */\n      add\n        /* \"#utility.yul\":2462:2541   */\n      tag_291\n      jump\t// in\n    tag_387:\n        /* \"#utility.yul\":2453:2541   */\n      swap2\n      pop\n        /* \"#utility.yul\":2269:2547   */\n      pop\n        /* \"#utility.yul\":2207:2547   */\n      swap3\n      swap2\n      pop\n      pop\n      jump\t// out\n        /* \"#utility.yul\":2553:3062   */\n    tag_26:\n        /* \"#utility.yul\":2622:2628   */\n      0x00\n        /* \"#utility.yul\":2671:2673   */\n      0x20\n        /* \"#utility.yul\":2659:2668   */\n      dup3\n        /* \"#utility.yul\":2650:2657   */\n      dup5\n        /* \"#utility.yul\":2646:2669   */\n      sub\n        /* \"#utility.yul\":2642:2674   */\n      slt\n        /* \"#utility.yul\":2639:2758   */\n      iszero\n      tag_389\n      jumpi\n        /* \"#utility.yul\":2677:2756   */\n      tag_390\n      tag_281\n      jump\t// in\n    tag_390:\n        /* \"#utility.yul\":2639:2758   */\n    tag_389:\n        /* \"#utility.yul\":2825:2826   */\n      0x00\n        /* \"#utility.yul\":2814:2823   */\n      dup3\n        /* \"#utility.yul\":2810:2827   */\n      add\n        /* \"#utility.yul\":2797:2828   */\n      calldataload\n        /* \"#utility.yul\":2855:2873   */\n      0xffffffffffffffff\n        /* \"#utility.yul\":2847:2853   */\n      dup2\n        /* \"#utility.yul\":2844:2874   */\n      gt\n        /* \"#utility.yul\":2841:2958   */\n      iszero\n      tag_391\n      jumpi\n        /* \"#utility.yul\":2877:2956   */\n      tag_392\n      tag_282\n      jump\t// in\n    tag_392:\n        /* \"#utility.yul\":2841:2958   */\n    tag_391:\n        /* \"#utility.yul\":2982:3045   */\n      tag_393\n        /* \"#utility.yul\":3037:3044   */\n      dup5\n        /* \"#utility.yul\":3028:3034   */\n      dup3\n        /* \"#utility.yul\":3017:3026   */\n      dup6\n        /* \"#utility.yul\":3013:3035   */\n      add\n        /* \"#utility.yul\":2982:3045   */\n      tag_292\n      jump\t// in\n    tag_393:\n        /* \"#utility.yul\":2972:3045   */\n      swap2\n      pop\n        /* \"#utility.yul\":2768:3055   */\n      pop\n        /* \"#utility.yul\":2553:3062   */\n      swap3\n      swap2\n      pop\n      pop\n      jump\t// out\n        /* \"#utility.yul\":3068:3145   */\n    tag_293:\n        /* \"#utility.yul\":3105:3112   */\n      0x00\n        /* \"#utility.yul\":3134:3139   */\n      dup2\n        /* \"#utility.yul\":3123:3139   */\n      swap1\n      pop\n        /* \"#utility.yul\":3068:3145   */\n      swap2\n      swap1\n      pop\n      jump\t// out\n        /* \"#utility.yul\":3151:3273   */\n    tag_294:\n        /* \"#utility.yul\":3224:3248   */\n      tag_396\n        /* \"#utility.yul\":3242:3247   */\n      dup2\n        /* \"#utility.yul\":3224:3248   */\n      tag_293\n      jump\t// in\n    tag_396:\n        /* \"#utility.yul\":3217:3222   */\n      dup2\n        /* \"#utility.yul\":3214:3249   */\n      eq\n        /* \"#utility.yul\":3204:3267   */\n      tag_397\n      jumpi\n        /* \"#utility.yul\":3263:3264   */\n      0x00\n        /* \"#utility.yul\":3260:3261   */\n      dup1\n        /* \"#utility.yul\":3253:3265   */\n      revert\n        /* \"#utility.yul\":3204:3267   */\n    tag_397:\n        /* \"#utility.yul\":3151:3273   */\n      pop\n      jump\t// out\n        /* \"#utility.yul\":3279:3418   */\n    tag_295:\n        /* \"#utility.yul\":3325:3330   */\n      0x00\n        /* \"#utility.yul\":3363:3369   */\n      dup2\n        /* \"#utility.yul\":3350:3370   */\n      calldataload\n        /* \"#utility.yul\":3341:3370   */\n      swap1\n      pop\n        /* \"#utility.yul\":3379:3412   */\n      tag_399\n        /* \"#utility.yul\":3406:3411   */\n      dup2\n        /* \"#utility.yul\":3379:3412   */\n      tag_294\n      jump\t// in\n    tag_399:\n        /* \"#utility.yul\":3279:3418   */\n      swap3\n      swap2\n      pop\n      pop\n      jump\t// out\n        /* \"#utility.yul\":3424:4078   */\n    tag_31:\n        /* \"#utility.yul\":3502:3508   */\n      0x00\n        /* \"#utility.yul\":3510:3516   */\n      dup1\n        /* \"#utility.yul\":3559:3561   */\n      0x40\n        /* \"#utility.yul\":3547:3556   */\n      dup4\n        /* \"#utility.yul\":3538:3545   */\n      dup6\n        /* \"#utility.yul\":3534:3557   */\n      sub\n        /* \"#utility.yul\":3530:3562   */\n      slt\n        /* \"#utility.yul\":3527:3646   */\n      iszero\n      tag_401\n      jumpi\n        /* \"#utility.yul\":3565:3644   */\n      tag_402\n      tag_281\n      jump\t// in\n    tag_402:\n        /* \"#utility.yul\":3527:3646   */\n    tag_401:\n        /* \"#utility.yul\":3713:3714   */\n      0x00\n        /* \"#utility.yul\":3702:3711   */\n      dup4\n        /* \"#utility.yul\":3698:3715   */\n      add\n        /* \"#utility.yul\":3685:3716   */\n      calldataload\n        /* \"#utility.yul\":3743:3761   */\n      0xffffffffffffffff\n        /* \"#utility.yul\":3735:3741   */\n      dup2\n        /* \"#utility.yul\":3732:3762   */\n      gt\n        /* \"#utility.yul\":3729:3846   */\n      iszero\n      tag_403\n      jumpi\n        /* \"#utility.yul\":3765:3844   */\n      tag_404\n      tag_282\n      jump\t// in\n    tag_404:\n        /* \"#utility.yul\":3729:3846   */\n    tag_403:\n        /* \"#utility.yul\":3870:3933   */\n      tag_405\n        /* \"#utility.yul\":3925:3932   */\n      dup6\n        /* \"#utility.yul\":3916:3922   */\n      dup3\n        /* \"#utility.yul\":3905:3914   */\n      dup7\n        /* \"#utility.yul\":3901:3923   */\n      add\n        /* \"#utility.yul\":3870:3933   */\n      tag_292\n      jump\t// in\n    tag_405:\n        /* \"#utility.yul\":3860:3933   */\n      swap3\n      pop\n        /* \"#utility.yul\":3656:3943   */\n      pop\n        /* \"#utility.yul\":3982:3984   */\n      0x20\n        /* \"#utility.yul\":4008:4061   */\n      tag_406\n        /* \"#utility.yul\":4053:4060   */\n      dup6\n        /* \"#utility.yul\":4044:4050   */\n      dup3\n        /* \"#utility.yul\":4033:4042   */\n      dup7\n        /* \"#utility.yul\":4029:4051   */\n      add\n        /* \"#utility.yul\":4008:4061   */\n      tag_295\n      jump\t// in\n    tag_406:\n        /* \"#utility.yul\":3998:4061   */\n      swap2\n      pop\n        /* \"#utility.yul\":3953:4071   */\n      pop\n        /* \"#utility.yul\":3424:4078   */\n      swap3\n      pop\n      swap3\n      swap1\n      pop\n      jump\t// out\n        /* \"#utility.yul\":4084:4183   */\n    tag_296:\n        /* \"#utility.yul\":4136:4142   */\n      0x00\n        /* \"#utility.yul\":4170:4175   */\n      dup2\n        /* \"#utility.yul\":4164:4176   */\n      mload\n        /* \"#utility.yul\":4154:4176   */\n      swap1\n      pop\n        /* \"#utility.yul\":4084:4183   */\n      swap2\n      swap1\n      pop\n      jump\t// out\n        /* \"#utility.yul\":4189:4358   */\n    tag_297:\n        /* \"#utility.yul\":4273:4284   */\n      0x00\n        /* \"#utility.yul\":4307:4313   */\n      dup3\n        /* \"#utility.yul\":4302:4305   */\n      dup3\n        /* \"#utility.yul\":4295:4314   */\n      mstore\n        /* \"#utility.yul\":4347:4351   */\n      0x20\n        /* \"#utility.yul\":4342:4345   */\n      dup3\n        /* \"#utility.yul\":4338:4352   */\n      add\n        /* \"#utility.yul\":4323:4352   */\n      swap1\n      pop\n        /* \"#utility.yul\":4189:4358   */\n      swap3\n      swap2\n      pop\n      pop\n      jump\t// out\n        /* \"#utility.yul\":4364:4610   */\n    tag_298:\n        /* \"#utility.yul\":4445:4446   */\n      0x00\n        /* \"#utility.yul\":4455:4568   */\n    tag_410:\n        /* \"#utility.yul\":4469:4475   */\n      dup4\n        /* \"#utility.yul\":4466:4467   */\n      dup2\n        /* \"#utility.yul\":4463:4476   */\n      lt\n        /* \"#utility.yul\":4455:4568   */\n      iszero\n      tag_412\n      jumpi\n        /* \"#utility.yul\":4554:4555   */\n      dup1\n        /* \"#utility.yul\":4549:4552   */\n      dup3\n        /* \"#utility.yul\":4545:4556   */\n      add\n        /* \"#utility.yul\":4539:4557   */\n      mload\n        /* \"#utility.yul\":4535:4536   */\n      dup2\n        /* \"#utility.yul\":4530:4533   */\n      dup5\n        /* \"#utility.yul\":4526:4537   */\n      add\n        /* \"#utility.yul\":4519:4558   */\n      mstore\n        /* \"#utility.yul\":4491:4493   */\n      0x20\n        /* \"#utility.yul\":4488:4489   */\n      dup2\n        /* \"#utility.yul\":4484:4494   */\n      add\n        /* \"#utility.yul\":4479:4494   */\n      swap1\n      pop\n        /* \"#utility.yul\":4455:4568   */\n      jump(tag_410)\n    tag_412:\n        /* \"#utility.yul\":4602:4603   */\n      0x00\n        /* \"#utility.yul\":4593:4599   */\n      dup5\n        /* \"#utility.yul\":4588:4591   */\n      dup5\n        /* \"#utility.yul\":4584:4600   */\n      add\n        /* \"#utility.yul\":4577:4604   */\n      mstore\n        /* \"#utility.yul\":4426:4610   */\n      pop\n        /* \"#utility.yul\":4364:4610   */\n      pop\n      pop\n      pop\n      jump\t// out\n        /* \"#utility.yul\":4616:4993   */\n    tag_299:\n        /* \"#utility.yul\":4704:4707   */\n      0x00\n        /* \"#utility.yul\":4732:4771   */\n      tag_414\n        /* \"#utility.yul\":4765:4770   */\n      dup3\n        /* \"#utility.yul\":4732:4771   */\n      tag_296\n      jump\t// in\n    tag_414:\n        /* \"#utility.yul\":4787:4858   */\n      tag_415\n        /* \"#utility.yul\":4851:4857   */\n      dup2\n        /* \"#utility.yul\":4846:4849   */\n      dup6\n        /* \"#utility.yul\":4787:4858   */\n      tag_297\n      jump\t// in\n    tag_415:\n        /* \"#utility.yul\":4780:4858   */\n      swap4\n      pop\n        /* \"#utility.yul\":4867:4932   */\n      tag_416\n        /* \"#utility.yul\":4925:4931   */\n      dup2\n        /* \"#utility.yul\":4920:4923   */\n      dup6\n        /* \"#utility.yul\":4913:4917   */\n      0x20\n        /* \"#utility.yul\":4906:4911   */\n      dup7\n        /* \"#utility.yul\":4902:4918   */\n      add\n        /* \"#utility.yul\":4867:4932   */\n      tag_298\n      jump\t// in\n    tag_416:\n        /* \"#utility.yul\":4957:4986   */\n      tag_417\n        /* \"#utility.yul\":4979:4985   */\n      dup2\n        /* \"#utility.yul\":4957:4986   */\n      tag_285\n      jump\t// in\n    tag_417:\n        /* \"#utility.yul\":4952:4955   */\n      dup5\n        /* \"#utility.yul\":4948:4987   */\n      add\n        /* \"#utility.yul\":4941:4987   */\n      swap2\n      pop\n        /* \"#utility.yul\":4708:4993   */\n      pop\n        /* \"#utility.yul\":4616:4993   */\n      swap3\n      swap2\n      pop\n      pop\n      jump\t// out\n        /* \"#utility.yul\":4999:5117   */\n    tag_300:\n        /* \"#utility.yul\":5086:5110   */\n      tag_419\n        /* \"#utility.yul\":5104:5109   */\n      dup2\n        /* \"#utility.yul\":5086:5110   */\n      tag_293\n      jump\t// in\n    tag_419:\n        /* \"#utility.yul\":5081:5084   */\n      dup3\n        /* \"#utility.yul\":5074:5111   */\n      mstore\n        /* \"#utility.yul\":4999:5117   */\n      pop\n      pop\n      jump\t// out\n        /* \"#utility.yul\":5123:5213   */\n    tag_301:\n        /* \"#utility.yul\":5157:5164   */\n      0x00\n        /* \"#utility.yul\":5200:5205   */\n      dup2\n        /* \"#utility.yul\":5193:5206   */\n      iszero\n        /* \"#utility.yul\":5186:5207   */\n      iszero\n        /* \"#utility.yul\":5175:5207   */\n      swap1\n      pop\n        /* \"#utility.yul\":5123:5213   */\n      swap2\n      swap1\n      pop\n      jump\t// out\n        /* \"#utility.yul\":5219:5328   */\n    tag_302:\n        /* \"#utility.yul\":5300:5321   */\n      tag_422\n        /* \"#utility.yul\":5315:5320   */\n      dup2\n        /* \"#utility.yul\":5300:5321   */\n      tag_301\n      jump\t// in\n    tag_422:\n        /* \"#utility.yul\":5295:5298   */\n      dup3\n        /* \"#utility.yul\":5288:5322   */\n      mstore\n        /* \"#utility.yul\":5219:5328   */\n      pop\n      pop\n      jump\t// out\n        /* \"#utility.yul\":5334:5855   */\n    tag_42:\n        /* \"#utility.yul\":5497:5501   */\n      0x00\n        /* \"#utility.yul\":5535:5537   */\n      0x60\n        /* \"#utility.yul\":5524:5533   */\n      dup3\n        /* \"#utility.yul\":5520:5538   */\n      add\n        /* \"#utility.yul\":5512:5538   */\n      swap1\n      pop\n        /* \"#utility.yul\":5584:5593   */\n      dup2\n        /* \"#utility.yul\":5578:5582   */\n      dup2\n        /* \"#utility.yul\":5574:5594   */\n      sub\n        /* \"#utility.yul\":5570:5571   */\n      0x00\n        /* \"#utility.yul\":5559:5568   */\n      dup4\n        /* \"#utility.yul\":5555:5572   */\n      add\n        /* \"#utility.yul\":5548:5595   */\n      mstore\n        /* \"#utility.yul\":5612:5690   */\n      tag_424\n        /* \"#utility.yul\":5685:5689   */\n      dup2\n        /* \"#utility.yul\":5676:5682   */\n      dup7\n        /* \"#utility.yul\":5612:5690   */\n      tag_299\n      jump\t// in\n    tag_424:\n        /* \"#utility.yul\":5604:5690   */\n      swap1\n      pop\n        /* \"#utility.yul\":5700:5772   */\n      tag_425\n        /* \"#utility.yul\":5768:5770   */\n      0x20\n        /* \"#utility.yul\":5757:5766   */\n      dup4\n        /* \"#utility.yul\":5753:5771   */\n      add\n        /* \"#utility.yul\":5744:5750   */\n      dup6\n        /* \"#utility.yul\":5700:5772   */\n      tag_300\n      jump\t// in\n    tag_425:\n        /* \"#utility.yul\":5782:5848   */\n      tag_426\n        /* \"#utility.yul\":5844:5846   */\n      0x40\n        /* \"#utility.yul\":5833:5842   */\n      dup4\n        /* \"#utility.yul\":5829:5847   */\n      add\n        /* \"#utility.yul\":5820:5826   */\n      dup5\n        /* \"#utility.yul\":5782:5848   */\n      tag_302\n      jump\t// in\n    tag_426:\n        /* \"#utility.yul\":5334:5855   */\n      swap5\n      swap4\n      pop\n      pop\n      pop\n      pop\n      jump\t// out\n        /* \"#utility.yul\":5861:5985   */\n    tag_303:\n        /* \"#utility.yul\":5938:5944   */\n      0x00\n        /* \"#utility.yul\":5972:5977   */\n      dup2\n        /* \"#utility.yul\":5966:5978   */\n      mload\n        /* \"#utility.yul\":5956:5978   */\n      swap1\n      pop\n        /* \"#utility.yul\":5861:5985   */\n      swap2\n      swap1\n      pop\n      jump\t// out\n        /* \"#utility.yul\":5991:6185   */\n    tag_304:\n        /* \"#utility.yul\":6100:6111   */\n      0x00\n        /* \"#utility.yul\":6134:6140   */\n      dup3\n        /* \"#utility.yul\":6129:6132   */\n      dup3\n        /* \"#utility.yul\":6122:6141   */\n      mstore\n        /* \"#utility.yul\":6174:6178   */\n      0x20\n        /* \"#utility.yul\":6169:6172   */\n      dup3\n        /* \"#utility.yul\":6165:6179   */\n      add\n        /* \"#utility.yul\":6150:6179   */\n      swap1\n      pop\n        /* \"#utility.yul\":5991:6185   */\n      swap3\n      swap2\n      pop\n      pop\n      jump\t// out\n        /* \"#utility.yul\":6191:6333   */\n    tag_305:\n        /* \"#utility.yul\":6268:6272   */\n      0x00\n        /* \"#utility.yul\":6291:6294   */\n      dup2\n        /* \"#utility.yul\":6283:6294   */\n      swap1\n      pop\n        /* \"#utility.yul\":6321:6325   */\n      0x20\n        /* \"#utility.yul\":6316:6319   */\n      dup3\n        /* \"#utility.yul\":6312:6326   */\n      add\n        /* \"#utility.yul\":6304:6326   */\n      swap1\n      pop\n        /* \"#utility.yul\":6191:6333   */\n      swap2\n      swap1\n      pop\n      jump\t// out\n        /* \"#utility.yul\":6339:6498   */\n    tag_306:\n        /* \"#utility.yul\":6413:6424   */\n      0x00\n        /* \"#utility.yul\":6447:6453   */\n      dup3\n        /* \"#utility.yul\":6442:6445   */\n      dup3\n        /* \"#utility.yul\":6435:6454   */\n      mstore\n        /* \"#utility.yul\":6487:6491   */\n      0x20\n        /* \"#utility.yul\":6482:6485   */\n      dup3\n        /* \"#utility.yul\":6478:6492   */\n      add\n        /* \"#utility.yul\":6463:6492   */\n      swap1\n      pop\n        /* \"#utility.yul\":6339:6498   */\n      swap3\n      swap2\n      pop\n      pop\n      jump\t// out\n        /* \"#utility.yul\":6504:6861   */\n    tag_307:\n        /* \"#utility.yul\":6582:6585   */\n      0x00\n        /* \"#utility.yul\":6610:6649   */\n      tag_432\n        /* \"#utility.yul\":6643:6648   */\n      dup3\n        /* \"#utility.yul\":6610:6649   */\n      tag_296\n      jump\t// in\n    tag_432:\n        /* \"#utility.yul\":6665:6726   */\n      tag_433\n        /* \"#utility.yul\":6719:6725   */\n      dup2\n        /* \"#utility.yul\":6714:6717   */\n      dup6\n        /* \"#utility.yul\":6665:6726   */\n      tag_306\n      jump\t// in\n    tag_433:\n        /* \"#utility.yul\":6658:6726   */\n      swap4\n      pop\n        /* \"#utility.yul\":6735:6800   */\n      tag_434\n        /* \"#utility.yul\":6793:6799   */\n      dup2\n        /* \"#utility.yul\":6788:6791   */\n      dup6\n        /* \"#utility.yul\":6781:6785   */\n      0x20\n        /* \"#utility.yul\":6774:6779   */\n      dup7\n        /* \"#utility.yul\":6770:6786   */\n      add\n        /* \"#utility.yul\":6735:6800   */\n      tag_298\n      jump\t// in\n    tag_434:\n        /* \"#utility.yul\":6825:6854   */\n      tag_435\n        /* \"#utility.yul\":6847:6853   */\n      dup2\n        /* \"#utility.yul\":6825:6854   */\n      tag_285\n      jump\t// in\n    tag_435:\n        /* \"#utility.yul\":6820:6823   */\n      dup5\n        /* \"#utility.yul\":6816:6855   */\n      add\n        /* \"#utility.yul\":6809:6855   */\n      swap2\n      pop\n        /* \"#utility.yul\":6586:6861   */\n      pop\n        /* \"#utility.yul\":6504:6861   */\n      swap3\n      swap2\n      pop\n      pop\n      jump\t// out\n        /* \"#utility.yul\":6867:7063   */\n    tag_308:\n        /* \"#utility.yul\":6956:6966   */\n      0x00\n        /* \"#utility.yul\":6991:7057   */\n      tag_437\n        /* \"#utility.yul\":7053:7056   */\n      dup4\n        /* \"#utility.yul\":7045:7051   */\n      dup4\n        /* \"#utility.yul\":6991:7057   */\n      tag_307\n      jump\t// in\n    tag_437:\n        /* \"#utility.yul\":6977:7057   */\n      swap1\n      pop\n        /* \"#utility.yul\":6867:7063   */\n      swap3\n      swap2\n      pop\n      pop\n      jump\t// out\n        /* \"#utility.yul\":7069:7192   */\n    tag_309:\n        /* \"#utility.yul\":7149:7153   */\n      0x00\n        /* \"#utility.yul\":7181:7185   */\n      0x20\n        /* \"#utility.yul\":7176:7179   */\n      dup3\n        /* \"#utility.yul\":7172:7186   */\n      add\n        /* \"#utility.yul\":7164:7186   */\n      swap1\n      pop\n        /* \"#utility.yul\":7069:7192   */\n      swap2\n      swap1\n      pop\n      jump\t// out\n        /* \"#utility.yul\":7226:8217   */\n    tag_310:\n        /* \"#utility.yul\":7365:7368   */\n      0x00\n        /* \"#utility.yul\":7394:7458   */\n      tag_440\n        /* \"#utility.yul\":7452:7457   */\n      dup3\n        /* \"#utility.yul\":7394:7458   */\n      tag_303\n      jump\t// in\n    tag_440:\n        /* \"#utility.yul\":7474:7570   */\n      tag_441\n        /* \"#utility.yul\":7563:7569   */\n      dup2\n        /* \"#utility.yul\":7558:7561   */\n      dup6\n        /* \"#utility.yul\":7474:7570   */\n      tag_304\n      jump\t// in\n    tag_441:\n        /* \"#utility.yul\":7467:7570   */\n      swap4\n      pop\n        /* \"#utility.yul\":7596:7599   */\n      dup4\n        /* \"#utility.yul\":7641:7645   */\n      0x20\n        /* \"#utility.yul\":7633:7639   */\n      dup3\n        /* \"#utility.yul\":7629:7646   */\n      mul\n        /* \"#utility.yul\":7624:7627   */\n      dup6\n        /* \"#utility.yul\":7620:7647   */\n      add\n        /* \"#utility.yul\":7671:7737   */\n      tag_442\n        /* \"#utility.yul\":7731:7736   */\n      dup6\n        /* \"#utility.yul\":7671:7737   */\n      tag_305\n      jump\t// in\n    tag_442:\n        /* \"#utility.yul\":7760:7767   */\n      dup1\n        /* \"#utility.yul\":7791:7792   */\n      0x00\n        /* \"#utility.yul\":7776:8172   */\n    tag_443:\n        /* \"#utility.yul\":7801:7807   */\n      dup6\n        /* \"#utility.yul\":7798:7799   */\n      dup2\n        /* \"#utility.yul\":7795:7808   */\n      lt\n        /* \"#utility.yul\":7776:8172   */\n      iszero\n      tag_445\n      jumpi\n        /* \"#utility.yul\":7872:7881   */\n      dup5\n        /* \"#utility.yul\":7866:7870   */\n      dup5\n        /* \"#utility.yul\":7862:7882   */\n      sub\n        /* \"#utility.yul\":7857:7860   */\n      dup10\n        /* \"#utility.yul\":7850:7883   */\n      mstore\n        /* \"#utility.yul\":7923:7929   */\n      dup2\n        /* \"#utility.yul\":7917:7930   */\n      mload\n        /* \"#utility.yul\":7951:8035   */\n      tag_446\n        /* \"#utility.yul\":8030:8034   */\n      dup6\n        /* \"#utility.yul\":8015:8028   */\n      dup3\n        /* \"#utility.yul\":7951:8035   */\n      tag_308\n      jump\t// in\n    tag_446:\n        /* \"#utility.yul\":7943:8035   */\n      swap5\n      pop\n        /* \"#utility.yul\":8058:8128   */\n      tag_447\n        /* \"#utility.yul\":8121:8127   */\n      dup4\n        /* \"#utility.yul\":8058:8128   */\n      tag_309\n      jump\t// in\n    tag_447:\n        /* \"#utility.yul\":8048:8128   */\n      swap3\n      pop\n        /* \"#utility.yul\":8157:8161   */\n      0x20\n        /* \"#utility.yul\":8152:8155   */\n      dup11\n        /* \"#utility.yul\":8148:8162   */\n      add\n        /* \"#utility.yul\":8141:8162   */\n      swap10\n      pop\n        /* \"#utility.yul\":7836:8172   */\n      pop\n        /* \"#utility.yul\":7823:7824   */\n      0x01\n        /* \"#utility.yul\":7820:7821   */\n      dup2\n        /* \"#utility.yul\":7816:7825   */\n      add\n        /* \"#utility.yul\":7811:7825   */\n      swap1\n      pop\n        /* \"#utility.yul\":7776:8172   */\n      jump(tag_443)\n    tag_445:\n        /* \"#utility.yul\":7780:7794   */\n      pop\n        /* \"#utility.yul\":8188:8192   */\n      dup3\n        /* \"#utility.yul\":8181:8192   */\n      swap8\n      pop\n        /* \"#utility.yul\":8208:8211   */\n      dup8\n        /* \"#utility.yul\":8201:8211   */\n      swap6\n      pop\n        /* \"#utility.yul\":7370:8217   */\n      pop\n      pop\n      pop\n      pop\n      pop\n        /* \"#utility.yul\":7226:8217   */\n      swap3\n      swap2\n      pop\n      pop\n      jump\t// out\n        /* \"#utility.yul\":8223:8636   */\n    tag_47:\n        /* \"#utility.yul\":8386:8390   */\n      0x00\n        /* \"#utility.yul\":8424:8426   */\n      0x20\n        /* \"#utility.yul\":8413:8422   */\n      dup3\n        /* \"#utility.yul\":8409:8427   */\n      add\n        /* \"#utility.yul\":8401:8427   */\n      swap1\n      pop\n        /* \"#utility.yul\":8473:8482   */\n      dup2\n        /* \"#utility.yul\":8467:8471   */\n      dup2\n        /* \"#utility.yul\":8463:8483   */\n      sub\n        /* \"#utility.yul\":8459:8460   */\n      0x00\n        /* \"#utility.yul\":8448:8457   */\n      dup4\n        /* \"#utility.yul\":8444:8461   */\n      add\n        /* \"#utility.yul\":8437:8484   */\n      mstore\n        /* \"#utility.yul\":8501:8629   */\n      tag_449\n        /* \"#utility.yul\":8624:8628   */\n      dup2\n        /* \"#utility.yul\":8615:8621   */\n      dup5\n        /* \"#utility.yul\":8501:8629   */\n      tag_310\n      jump\t// in\n    tag_449:\n        /* \"#utility.yul\":8493:8629   */\n      swap1\n      pop\n        /* \"#utility.yul\":8223:8636   */\n      swap3\n      swap2\n      pop\n      pop\n      jump\t// out\n        /* \"#utility.yul\":8642:8864   */\n    tag_52:\n        /* \"#utility.yul\":8735:8739   */\n      0x00\n        /* \"#utility.yul\":8773:8775   */\n      0x20\n        /* \"#utility.yul\":8762:8771   */\n      dup3\n        /* \"#utility.yul\":8758:8776   */\n      add\n        /* \"#utility.yul\":8750:8776   */\n      swap1\n      pop\n        /* \"#utility.yul\":8786:8857   */\n      tag_451\n        /* \"#utility.yul\":8854:8855   */\n      0x00\n        /* \"#utility.yul\":8843:8852   */\n      dup4\n        /* \"#utility.yul\":8839:8856   */\n      add\n        /* \"#utility.yul\":8830:8836   */\n      dup5\n        /* \"#utility.yul\":8786:8857   */\n      tag_300\n      jump\t// in\n    tag_451:\n        /* \"#utility.yul\":8642:8864   */\n      swap3\n      swap2\n      pop\n      pop\n      jump\t// out\n        /* \"#utility.yul\":8870:9199   */\n    tag_55:\n        /* \"#utility.yul\":8929:8935   */\n      0x00\n        /* \"#utility.yul\":8978:8980   */\n      0x20\n        /* \"#utility.yul\":8966:8975   */\n      dup3\n        /* \"#utility.yul\":8957:8964   */\n      dup5\n        /* \"#utility.yul\":8953:8976   */\n      sub\n        /* \"#utility.yul\":8949:8981   */\n      slt\n        /* \"#utility.yul\":8946:9065   */\n      iszero\n      tag_453\n      jumpi\n        /* \"#utility.yul\":8984:9063   */\n      tag_454\n      tag_281\n      jump\t// in\n    tag_454:\n        /* \"#utility.yul\":8946:9065   */\n    tag_453:\n        /* \"#utility.yul\":9104:9105   */\n      0x00\n        /* \"#utility.yul\":9129:9182   */\n      tag_455\n        /* \"#utility.yul\":9174:9181   */\n      dup5\n        /* \"#utility.yul\":9165:9171   */\n      dup3\n        /* \"#utility.yul\":9154:9163   */\n      dup6\n        /* \"#utility.yul\":9150:9172   */\n      add\n        /* \"#utility.yul\":9129:9182   */\n      tag_295\n      jump\t// in\n    tag_455:\n        /* \"#utility.yul\":9119:9182   */\n      swap2\n      pop\n        /* \"#utility.yul\":9075:9192   */\n      pop\n        /* \"#utility.yul\":8870:9199   */\n      swap3\n      swap2\n      pop\n      pop\n      jump\t// out\n        /* \"#utility.yul\":9205:9331   */\n    tag_311:\n        /* \"#utility.yul\":9242:9249   */\n      0x00\n        /* \"#utility.yul\":9282:9324   */\n      0xffffffffffffffffffffffffffffffffffffffff\n        /* \"#utility.yul\":9275:9280   */\n      dup3\n        /* \"#utility.yul\":9271:9325   */\n      and\n        /* \"#utility.yul\":9260:9325   */\n      swap1\n      pop\n        /* \"#utility.yul\":9205:9331   */\n      swap2\n      swap1\n      pop\n      jump\t// out\n        /* \"#utility.yul\":9337:9433   */\n    tag_312:\n        /* \"#utility.yul\":9374:9381   */\n      0x00\n        /* \"#utility.yul\":9403:9427   */\n      tag_458\n        /* \"#utility.yul\":9421:9426   */\n      dup3\n        /* \"#utility.yul\":9403:9427   */\n      tag_311\n      jump\t// in\n    tag_458:\n        /* \"#utility.yul\":9392:9427   */\n      swap1\n      pop\n        /* \"#utility.yul\":9337:9433   */\n      swap2\n      swap1\n      pop\n      jump\t// out\n        /* \"#utility.yul\":9439:9561   */\n    tag_313:\n        /* \"#utility.yul\":9512:9536   */\n      tag_460\n        /* \"#utility.yul\":9530:9535   */\n      dup2\n        /* \"#utility.yul\":9512:9536   */\n      tag_312\n      jump\t// in\n    tag_460:\n        /* \"#utility.yul\":9505:9510   */\n      dup2\n        /* \"#utility.yul\":9502:9537   */\n      eq\n        /* \"#utility.yul\":9492:9555   */\n      tag_461\n      jumpi\n        /* \"#utility.yul\":9551:9552   */\n      0x00\n        /* \"#utility.yul\":9548:9549   */\n      dup1\n        /* \"#utility.yul\":9541:9553   */\n      revert\n        /* \"#utility.yul\":9492:9555   */\n    tag_461:\n        /* \"#utility.yul\":9439:9561   */\n      pop\n      jump\t// out\n        /* \"#utility.yul\":9567:9706   */\n    tag_314:\n        /* \"#utility.yul\":9613:9618   */\n      0x00\n        /* \"#utility.yul\":9651:9657   */\n      dup2\n        /* \"#utility.yul\":9638:9658   */\n      calldataload\n        /* \"#utility.yul\":9629:9658   */\n      swap1\n      pop\n        /* \"#utility.yul\":9667:9700   */\n      tag_463\n        /* \"#utility.yul\":9694:9699   */\n      dup2\n        /* \"#utility.yul\":9667:9700   */\n      tag_313\n      jump\t// in\n    tag_463:\n        /* \"#utility.yul\":9567:9706   */\n      swap3\n      swap2\n      pop\n      pop\n      jump\t// out\n        /* \"#utility.yul\":9712:10041   */\n    tag_85:\n        /* \"#utility.yul\":9771:9777   */\n      0x00\n        /* \"#utility.yul\":9820:9822   */\n      0x20\n        /* \"#utility.yul\":9808:9817   */\n      dup3\n        /* \"#utility.yul\":9799:9806   */\n      dup5\n        /* \"#utility.yul\":9795:9818   */\n      sub\n        /* \"#utility.yul\":9791:9823   */\n      slt\n        /* \"#utility.yul\":9788:9907   */\n      iszero\n      tag_465\n      jumpi\n        /* \"#utility.yul\":9826:9905   */\n      tag_466\n      tag_281\n      jump\t// in\n    tag_466:\n        /* \"#utility.yul\":9788:9907   */\n    tag_465:\n        /* \"#utility.yul\":9946:9947   */\n      0x00\n        /* \"#utility.yul\":9971:10024   */\n      tag_467\n        /* \"#utility.yul\":10016:10023   */\n      dup5\n        /* \"#utility.yul\":10007:10013   */\n      dup3\n        /* \"#utility.yul\":9996:10005   */\n      dup6\n        /* \"#utility.yul\":9992:10014   */\n      add\n        /* \"#utility.yul\":9971:10024   */\n      tag_314\n      jump\t// in\n    tag_467:\n        /* \"#utility.yul\":9961:10024   */\n      swap2\n      pop\n        /* \"#utility.yul\":9917:10034   */\n      pop\n        /* \"#utility.yul\":9712:10041   */\n      swap3\n      swap2\n      pop\n      pop\n      jump\t// out\n        /* \"#utility.yul\":10047:10151   */\n    tag_315:\n        /* \"#utility.yul\":10092:10099   */\n      0x00\n        /* \"#utility.yul\":10121:10145   */\n      tag_469\n        /* \"#utility.yul\":10139:10144   */\n      dup3\n        /* \"#utility.yul\":10121:10145   */\n      tag_311\n      jump\t// in\n    tag_469:\n        /* \"#utility.yul\":10110:10145   */\n      swap1\n      pop\n        /* \"#utility.yul\":10047:10151   */\n      swap2\n      swap1\n      pop\n      jump\t// out\n        /* \"#utility.yul\":10157:10299   */\n    tag_316:\n        /* \"#utility.yul\":10260:10292   */\n      tag_471\n        /* \"#utility.yul\":10286:10291   */\n      dup2\n        /* \"#utility.yul\":10260:10292   */\n      tag_315\n      jump\t// in\n    tag_471:\n        /* \"#utility.yul\":10255:10258   */\n      dup3\n        /* \"#utility.yul\":10248:10293   */\n      mstore\n        /* \"#utility.yul\":10157:10299   */\n      pop\n      pop\n      jump\t// out\n        /* \"#utility.yul\":10305:10559   */\n    tag_96:\n        /* \"#utility.yul\":10414:10418   */\n      0x00\n        /* \"#utility.yul\":10452:10454   */\n      0x20\n        /* \"#utility.yul\":10441:10450   */\n      dup3\n        /* \"#utility.yul\":10437:10455   */\n      add\n        /* \"#utility.yul\":10429:10455   */\n      swap1\n      pop\n        /* \"#utility.yul\":10465:10552   */\n      tag_473\n        /* \"#utility.yul\":10549:10550   */\n      0x00\n        /* \"#utility.yul\":10538:10547   */\n      dup4\n        /* \"#utility.yul\":10534:10551   */\n      add\n        /* \"#utility.yul\":10525:10531   */\n      dup5\n        /* \"#utility.yul\":10465:10552   */\n      tag_316\n      jump\t// in\n    tag_473:\n        /* \"#utility.yul\":10305:10559   */\n      swap3\n      swap2\n      pop\n      pop\n      jump\t// out\n        /* \"#utility.yul\":10565:10797   */\n    tag_317:\n        /* \"#utility.yul\":10705:10739   */\n      0x4e6f207469656e6573207065726d69736f73207061726120656a656375746172\n        /* \"#utility.yul\":10701:10702   */\n      0x00\n        /* \"#utility.yul\":10693:10699   */\n      dup3\n        /* \"#utility.yul\":10689:10703   */\n      add\n        /* \"#utility.yul\":10682:10740   */\n      mstore\n        /* \"#utility.yul\":10774:10789   */\n      0x20657374612066756e63696f6e00000000000000000000000000000000000000\n        /* \"#utility.yul\":10769:10771   */\n      0x20\n        /* \"#utility.yul\":10761:10767   */\n      dup3\n        /* \"#utility.yul\":10757:10772   */\n      add\n        /* \"#utility.yul\":10750:10790   */\n      mstore\n        /* \"#utility.yul\":10565:10797   */\n      pop\n      jump\t// out\n        /* \"#utility.yul\":10803:11169   */\n    tag_318:\n        /* \"#utility.yul\":10945:10948   */\n      0x00\n        /* \"#utility.yul\":10966:11033   */\n      tag_476\n        /* \"#utility.yul\":11030:11032   */\n      0x2d\n        /* \"#utility.yul\":11025:11028   */\n      dup4\n        /* \"#utility.yul\":10966:11033   */\n      tag_297\n      jump\t// in\n    tag_476:\n        /* \"#utility.yul\":10959:11033   */\n      swap2\n      pop\n        /* \"#utility.yul\":11042:11135   */\n      tag_477\n        /* \"#utility.yul\":11131:11134   */\n      dup3\n        /* \"#utility.yul\":11042:11135   */\n      tag_317\n      jump\t// in\n    tag_477:\n        /* \"#utility.yul\":11160:11162   */\n      0x40\n        /* \"#utility.yul\":11155:11158   */\n      dup3\n        /* \"#utility.yul\":11151:11163   */\n      add\n        /* \"#utility.yul\":11144:11163   */\n      swap1\n      pop\n        /* \"#utility.yul\":10803:11169   */\n      swap2\n      swap1\n      pop\n      jump\t// out\n        /* \"#utility.yul\":11175:11594   */\n    tag_107:\n        /* \"#utility.yul\":11341:11345   */\n      0x00\n        /* \"#utility.yul\":11379:11381   */\n      0x20\n        /* \"#utility.yul\":11368:11377   */\n      dup3\n        /* \"#utility.yul\":11364:11382   */\n      add\n        /* \"#utility.yul\":11356:11382   */\n      swap1\n      pop\n        /* \"#utility.yul\":11428:11437   */\n      dup2\n        /* \"#utility.yul\":11422:11426   */\n      dup2\n        /* \"#utility.yul\":11418:11438   */\n      sub\n        /* \"#utility.yul\":11414:11415   */\n      0x00\n        /* \"#utility.yul\":11403:11412   */\n      dup4\n        /* \"#utility.yul\":11399:11416   */\n      add\n        /* \"#utility.yul\":11392:11439   */\n      mstore\n        /* \"#utility.yul\":11456:11587   */\n      tag_479\n        /* \"#utility.yul\":11582:11586   */\n      dup2\n        /* \"#utility.yul\":11456:11587   */\n      tag_318\n      jump\t// in\n    tag_479:\n        /* \"#utility.yul\":11448:11587   */\n      swap1\n      pop\n        /* \"#utility.yul\":11175:11594   */\n      swap2\n      swap1\n      pop\n      jump\t// out\n        /* \"#utility.yul\":11600:11748   */\n    tag_319:\n        /* \"#utility.yul\":11702:11713   */\n      0x00\n        /* \"#utility.yul\":11739:11742   */\n      dup2\n        /* \"#utility.yul\":11724:11742   */\n      swap1\n      pop\n        /* \"#utility.yul\":11600:11748   */\n      swap3\n      swap2\n      pop\n      pop\n      jump\t// out\n        /* \"#utility.yul\":11754:12144   */\n    tag_320:\n        /* \"#utility.yul\":11860:11863   */\n      0x00\n        /* \"#utility.yul\":11888:11927   */\n      tag_482\n        /* \"#utility.yul\":11921:11926   */\n      dup3\n        /* \"#utility.yul\":11888:11927   */\n      tag_296\n      jump\t// in\n    tag_482:\n        /* \"#utility.yul\":11943:12032   */\n      tag_483\n        /* \"#utility.yul\":12025:12031   */\n      dup2\n        /* \"#utility.yul\":12020:12023   */\n      dup6\n        /* \"#utility.yul\":11943:12032   */\n      tag_319\n      jump\t// in\n    tag_483:\n        /* \"#utility.yul\":11936:12032   */\n      swap4\n      pop\n        /* \"#utility.yul\":12041:12106   */\n      tag_484\n        /* \"#utility.yul\":12099:12105   */\n      dup2\n        /* \"#utility.yul\":12094:12097   */\n      dup6\n        /* \"#utility.yul\":12087:12091   */\n      0x20\n        /* \"#utility.yul\":12080:12085   */\n      dup7\n        /* \"#utility.yul\":12076:12092   */\n      add\n        /* \"#utility.yul\":12041:12106   */\n      tag_298\n      jump\t// in\n    tag_484:\n        /* \"#utility.yul\":12131:12137   */\n      dup1\n        /* \"#utility.yul\":12126:12129   */\n      dup5\n        /* \"#utility.yul\":12122:12138   */\n      add\n        /* \"#utility.yul\":12115:12138   */\n      swap2\n      pop\n        /* \"#utility.yul\":11864:12144   */\n      pop\n        /* \"#utility.yul\":11754:12144   */\n      swap3\n      swap2\n      pop\n      pop\n      jump\t// out\n        /* \"#utility.yul\":12150:12425   */\n    tag_110:\n        /* \"#utility.yul\":12282:12285   */\n      0x00\n        /* \"#utility.yul\":12304:12399   */\n      tag_486\n        /* \"#utility.yul\":12395:12398   */\n      dup3\n        /* \"#utility.yul\":12386:12392   */\n      dup5\n        /* \"#utility.yul\":12304:12399   */\n      tag_320\n      jump\t// in\n    tag_486:\n        /* \"#utility.yul\":12297:12399   */\n      swap2\n      pop\n        /* \"#utility.yul\":12416:12419   */\n      dup2\n        /* \"#utility.yul\":12409:12419   */\n      swap1\n      pop\n        /* \"#utility.yul\":12150:12425   */\n      swap3\n      swap2\n      pop\n      pop\n      jump\t// out\n        /* \"#utility.yul\":12431:12744   */\n    tag_112:\n        /* \"#utility.yul\":12544:12548   */\n      0x00\n        /* \"#utility.yul\":12582:12584   */\n      0x20\n        /* \"#utility.yul\":12571:12580   */\n      dup3\n        /* \"#utility.yul\":12567:12585   */\n      add\n        /* \"#utility.yul\":12559:12585   */\n      swap1\n      pop\n        /* \"#utility.yul\":12631:12640   */\n      dup2\n        /* \"#utility.yul\":12625:12629   */\n      dup2\n        /* \"#utility.yul\":12621:12641   */\n      sub\n        /* \"#utility.yul\":12617:12618   */\n      0x00\n        /* \"#utility.yul\":12606:12615   */\n      dup4\n        /* \"#utility.yul\":12602:12619   */\n      add\n        /* \"#utility.yul\":12595:12642   */\n      mstore\n        /* \"#utility.yul\":12659:12737   */\n      tag_488\n        /* \"#utility.yul\":12732:12736   */\n      dup2\n        /* \"#utility.yul\":12723:12729   */\n      dup5\n        /* \"#utility.yul\":12659:12737   */\n      tag_299\n      jump\t// in\n    tag_488:\n        /* \"#utility.yul\":12651:12737   */\n      swap1\n      pop\n        /* \"#utility.yul\":12431:12744   */\n      swap3\n      swap2\n      pop\n      pop\n      jump\t// out\n        /* \"#utility.yul\":12750:12930   */\n    tag_321:\n        /* \"#utility.yul\":12798:12875   */\n      0x4e487b7100000000000000000000000000000000000000000000000000000000\n        /* \"#utility.yul\":12795:12796   */\n      0x00\n        /* \"#utility.yul\":12788:12876   */\n      mstore\n        /* \"#utility.yul\":12895:12899   */\n      0x22\n        /* \"#utility.yul\":12892:12893   */\n      0x04\n        /* \"#utility.yul\":12885:12900   */\n      mstore\n        /* \"#utility.yul\":12919:12923   */\n      0x24\n        /* \"#utility.yul\":12916:12917   */\n      0x00\n        /* \"#utility.yul\":12909:12924   */\n      revert\n        /* \"#utility.yul\":12936:13256   */\n    tag_134:\n        /* \"#utility.yul\":12980:12986   */\n      0x00\n        /* \"#utility.yul\":13017:13018   */\n      0x02\n        /* \"#utility.yul\":13011:13015   */\n      dup3\n        /* \"#utility.yul\":13007:13019   */\n      div\n        /* \"#utility.yul\":12997:13019   */\n      swap1\n      pop\n        /* \"#utility.yul\":13064:13065   */\n      0x01\n        /* \"#utility.yul\":13058:13062   */\n      dup3\n        /* \"#utility.yul\":13054:13066   */\n      and\n        /* \"#utility.yul\":13085:13103   */\n      dup1\n        /* \"#utility.yul\":13075:13156   */\n      tag_491\n      jumpi\n        /* \"#utility.yul\":13141:13145   */\n      0x7f\n        /* \"#utility.yul\":13133:13139   */\n      dup3\n        /* \"#utility.yul\":13129:13146   */\n      and\n        /* \"#utility.yul\":13119:13146   */\n      swap2\n      pop\n        /* \"#utility.yul\":13075:13156   */\n    tag_491:\n        /* \"#utility.yul\":13203:13205   */\n      0x20\n        /* \"#utility.yul\":13195:13201   */\n      dup3\n        /* \"#utility.yul\":13192:13206   */\n      lt\n        /* \"#utility.yul\":13172:13190   */\n      dup2\n        /* \"#utility.yul\":13169:13207   */\n      sub\n        /* \"#utility.yul\":13166:13250   */\n      tag_492\n      jumpi\n        /* \"#utility.yul\":13222:13240   */\n      tag_493\n      tag_321\n      jump\t// in\n    tag_493:\n        /* \"#utility.yul\":13166:13250   */\n    tag_492:\n        /* \"#utility.yul\":12987:13256   */\n      pop\n        /* \"#utility.yul\":12936:13256   */\n      swap2\n      swap1\n      pop\n      jump\t// out\n        /* \"#utility.yul\":13262:13403   */\n    tag_322:\n        /* \"#utility.yul\":13311:13315   */\n      0x00\n        /* \"#utility.yul\":13334:13337   */\n      dup2\n        /* \"#utility.yul\":13326:13337   */\n      swap1\n      pop\n        /* \"#utility.yul\":13357:13360   */\n      dup2\n        /* \"#utility.yul\":13354:13355   */\n      0x00\n        /* \"#utility.yul\":13347:13361   */\n      mstore\n        /* \"#utility.yul\":13391:13395   */\n      0x20\n        /* \"#utility.yul\":13388:13389   */\n      0x00\n        /* \"#utility.yul\":13378:13396   */\n      keccak256\n        /* \"#utility.yul\":13370:13396   */\n      swap1\n      pop\n        /* \"#utility.yul\":13262:13403   */\n      swap2\n      swap1\n      pop\n      jump\t// out\n        /* \"#utility.yul\":13409:13502   */\n    tag_323:\n        /* \"#utility.yul\":13446:13452   */\n      0x00\n        /* \"#utility.yul\":13493:13495   */\n      0x20\n        /* \"#utility.yul\":13488:13490   */\n      0x1f\n        /* \"#utility.yul\":13481:13486   */\n      dup4\n        /* \"#utility.yul\":13477:13491   */\n      add\n        /* \"#utility.yul\":13473:13496   */\n      div\n        /* \"#utility.yul\":13463:13496   */\n      swap1\n      pop\n        /* \"#utility.yul\":13409:13502   */\n      swap2\n      swap1\n      pop\n      jump\t// out\n        /* \"#utility.yul\":13508:13615   */\n    tag_324:\n        /* \"#utility.yul\":13552:13560   */\n      0x00\n        /* \"#utility.yul\":13602:13607   */\n      dup3\n        /* \"#utility.yul\":13596:13600   */\n      dup3\n        /* \"#utility.yul\":13592:13608   */\n      shl\n        /* \"#utility.yul\":13571:13608   */\n      swap1\n      pop\n        /* \"#utility.yul\":13508:13615   */\n      swap3\n      swap2\n      pop\n      pop\n      jump\t// out\n        /* \"#utility.yul\":13621:14014   */\n    tag_325:\n        /* \"#utility.yul\":13690:13696   */\n      0x00\n        /* \"#utility.yul\":13740:13741   */\n      0x08\n        /* \"#utility.yul\":13728:13738   */\n      dup4\n        /* \"#utility.yul\":13724:13742   */\n      mul\n        /* \"#utility.yul\":13763:13860   */\n      tag_498\n        /* \"#utility.yul\":13793:13859   */\n      0xffffffffffffffffffffffffffffffffffffffffffffffffffffffffffffffff\n        /* \"#utility.yul\":13782:13791   */\n      dup3\n        /* \"#utility.yul\":13763:13860   */\n      tag_324\n      jump\t// in\n    tag_498:\n        /* \"#utility.yul\":13881:13920   */\n      tag_499\n        /* \"#utility.yul\":13911:13919   */\n      dup7\n        /* \"#utility.yul\":13900:13909   */\n      dup4\n        /* \"#utility.yul\":13881:13920   */\n      tag_324\n      jump\t// in\n    tag_499:\n        /* \"#utility.yul\":13869:13920   */\n      swap6\n      pop\n        /* \"#utility.yul\":13953:13957   */\n      dup1\n        /* \"#utility.yul\":13949:13958   */\n      not\n        /* \"#utility.yul\":13942:13947   */\n      dup5\n        /* \"#utility.yul\":13938:13959   */\n      and\n        /* \"#utility.yul\":13929:13959   */\n      swap4\n      pop\n        /* \"#utility.yul\":14002:14006   */\n      dup1\n        /* \"#utility.yul\":13992:14000   */\n      dup7\n        /* \"#utility.yul\":13988:14007   */\n      and\n        /* \"#utility.yul\":13981:13986   */\n      dup5\n        /* \"#utility.yul\":13978:14008   */\n      or\n        /* \"#utility.yul\":13968:14008   */\n      swap3\n      pop\n        /* \"#utility.yul\":13697:14014   */\n      pop\n      pop\n        /* \"#utility.yul\":13621:14014   */\n      swap4\n      swap3\n      pop\n      pop\n      pop\n      jump\t// out\n        /* \"#utility.yul\":14020:14080   */\n    tag_326:\n        /* \"#utility.yul\":14048:14051   */\n      0x00\n        /* \"#utility.yul\":14069:14074   */\n      dup2\n        /* \"#utility.yul\":14062:14074   */\n      swap1\n      pop\n        /* \"#utility.yul\":14020:14080   */\n      swap2\n      swap1\n      pop\n      jump\t// out\n        /* \"#utility.yul\":14086:14228   */\n    tag_327:\n        /* \"#utility.yul\":14136:14145   */\n      0x00\n        /* \"#utility.yul\":14169:14222   */\n      tag_502\n        /* \"#utility.yul\":14187:14221   */\n      tag_503\n        /* \"#utility.yul\":14196:14220   */\n      tag_504\n        /* \"#utility.yul\":14214:14219   */\n      dup5\n        /* \"#utility.yul\":14196:14220   */\n      tag_293\n      jump\t// in\n    tag_504:\n        /* \"#utility.yul\":14187:14221   */\n      tag_326\n      jump\t// in\n    tag_503:\n        /* \"#utility.yul\":14169:14222   */\n      tag_293\n      jump\t// in\n    tag_502:\n        /* \"#utility.yul\":14156:14222   */\n      swap1\n      pop\n        /* \"#utility.yul\":14086:14228   */\n      swap2\n      swap1\n      pop\n      jump\t// out\n        /* \"#utility.yul\":14234:14309   */\n    tag_328:\n        /* \"#utility.yul\":14277:14280   */\n      0x00\n        /* \"#utility.yul\":14298:14303   */\n      dup2\n        /* \"#utility.yul\":14291:14303   */\n      swap1\n      pop\n        /* \"#utility.yul\":14234:14309   */\n      swap2\n      swap1\n      pop\n      jump\t// out\n        /* \"#utility.yul\":14315:14584   */\n    tag_329:\n        /* \"#utility.yul\":14425:14464   */\n      tag_507\n        /* \"#utility.yul\":14456:14463   */\n      dup4\n        /* \"#utility.yul\":14425:14464   */\n      tag_327\n      jump\t// in\n    tag_507:\n        /* \"#utility.yul\":14486:14577   */\n      tag_508\n        /* \"#utility.yul\":14535:14576   */\n      tag_509\n        /* \"#utility.yul\":14559:14575   */\n      dup3\n        /* \"#utility.yul\":14535:14576   */\n      tag_328\n      jump\t// in\n    tag_509:\n        /* \"#utility.yul\":14527:14533   */\n      dup5\n        /* \"#utility.yul\":14520:14524   */\n      dup5\n        /* \"#utility.yul\":14514:14525   */\n      sload\n        /* \"#utility.yul\":14486:14577   */\n      tag_325\n      jump\t// in\n    tag_508:\n        /* \"#utility.yul\":14480:14484   */\n      dup3\n        /* \"#utility.yul\":14473:14578   */\n      sstore\n        /* \"#utility.yul\":14391:14584   */\n      pop\n        /* \"#utility.yul\":14315:14584   */\n      pop\n      pop\n      pop\n      jump\t// out\n        /* \"#utility.yul\":14590:14663   */\n    tag_330:\n        /* \"#utility.yul\":14635:14638   */\n      0x00\n        /* \"#utility.yul\":14590:14663   */\n      swap1\n      jump\t// out\n        /* \"#utility.yul\":14669:14858   */\n    tag_331:\n        /* \"#utility.yul\":14746:14778   */\n      tag_512\n      tag_330\n      jump\t// in\n    tag_512:\n        /* \"#utility.yul\":14787:14852   */\n      tag_513\n        /* \"#utility.yul\":14845:14851   */\n      dup2\n        /* \"#utility.yul\":14837:14843   */\n      dup5\n        /* \"#utility.yul\":14831:14835   */\n      dup5\n        /* \"#utility.yul\":14787:14852   */\n      tag_329\n      jump\t// in\n    tag_513:\n        /* \"#utility.yul\":14722:14858   */\n      pop\n        /* \"#utility.yul\":14669:14858   */\n      pop\n      pop\n      jump\t// out\n        /* \"#utility.yul\":14864:15050   */\n    tag_332:\n        /* \"#utility.yul\":14924:15044   */\n    tag_515:\n        /* \"#utility.yul\":14941:14944   */\n      dup2\n        /* \"#utility.yul\":14934:14939   */\n      dup2\n        /* \"#utility.yul\":14931:14945   */\n      lt\n        /* \"#utility.yul\":14924:15044   */\n      iszero\n      tag_517\n      jumpi\n        /* \"#utility.yul\":14995:15034   */\n      tag_518\n        /* \"#utility.yul\":15032:15033   */\n      0x00\n        /* \"#utility.yul\":15025:15030   */\n      dup3\n        /* \"#utility.yul\":14995:15034   */\n      tag_331\n      jump\t// in\n    tag_518:\n        /* \"#utility.yul\":14968:14969   */\n      0x01\n        /* \"#utility.yul\":14961:14966   */\n      dup2\n        /* \"#utility.yul\":14957:14970   */\n      add\n        /* \"#utility.yul\":14948:14970   */\n      swap1\n      pop\n        /* \"#utility.yul\":14924:15044   */\n      jump(tag_515)\n    tag_517:\n        /* \"#utility.yul\":14864:15050   */\n      pop\n      pop\n      jump\t// out\n        /* \"#utility.yul\":15056:15599   */\n    tag_333:\n        /* \"#utility.yul\":15157:15159   */\n      0x1f\n        /* \"#utility.yul\":15152:15155   */\n      dup3\n        /* \"#utility.yul\":15149:15160   */\n      gt\n        /* \"#utility.yul\":15146:15592   */\n      iszero\n      tag_520\n      jumpi\n        /* \"#utility.yul\":15191:15229   */\n      tag_521\n        /* \"#utility.yul\":15223:15228   */\n      dup2\n        /* \"#utility.yul\":15191:15229   */\n      tag_322\n      jump\t// in\n    tag_521:\n        /* \"#utility.yul\":15275:15304   */\n      tag_522\n        /* \"#utility.yul\":15293:15303   */\n      dup5\n        /* \"#utility.yul\":15275:15304   */\n      tag_323\n      jump\t// in\n    tag_522:\n        /* \"#utility.yul\":15265:15273   */\n      dup2\n        /* \"#utility.yul\":15261:15305   */\n      add\n        /* \"#utility.yul\":15458:15460   */\n      0x20\n        /* \"#utility.yul\":15446:15456   */\n      dup6\n        /* \"#utility.yul\":15443:15461   */\n      lt\n        /* \"#utility.yul\":15440:15489   */\n      iszero\n      tag_523\n      jumpi\n        /* \"#utility.yul\":15479:15487   */\n      dup2\n        /* \"#utility.yul\":15464:15487   */\n      swap1\n      pop\n        /* \"#utility.yul\":15440:15489   */\n    tag_523:\n        /* \"#utility.yul\":15502:15582   */\n      tag_524\n        /* \"#utility.yul\":15558:15580   */\n      tag_525\n        /* \"#utility.yul\":15576:15579   */\n      dup6\n        /* \"#utility.yul\":15558:15580   */\n      tag_323\n      jump\t// in\n    tag_525:\n        /* \"#utility.yul\":15548:15556   */\n      dup4\n        /* \"#utility.yul\":15544:15581   */\n      add\n        /* \"#utility.yul\":15531:15542   */\n      dup3\n        /* \"#utility.yul\":15502:15582   */\n      tag_332\n      jump\t// in\n    tag_524:\n        /* \"#utility.yul\":15161:15592   */\n      pop\n      pop\n        /* \"#utility.yul\":15146:15592   */\n    tag_520:\n        /* \"#utility.yul\":15056:15599   */\n      pop\n      pop\n      pop\n      jump\t// out\n        /* \"#utility.yul\":15605:15722   */\n    tag_334:\n        /* \"#utility.yul\":15659:15667   */\n      0x00\n        /* \"#utility.yul\":15709:15714   */\n      dup3\n        /* \"#utility.yul\":15703:15707   */\n      dup3\n        /* \"#utility.yul\":15699:15715   */\n      shr\n        /* \"#utility.yul\":15678:15715   */\n      swap1\n      pop\n        /* \"#utility.yul\":15605:15722   */\n      swap3\n      swap2\n      pop\n      pop\n      jump\t// out\n        /* \"#utility.yul\":15728:15897   */\n    tag_335:\n        /* \"#utility.yul\":15772:15778   */\n      0x00\n        /* \"#utility.yul\":15805:15856   */\n      tag_528\n        /* \"#utility.yul\":15853:15854   */\n      0x00\n        /* \"#utility.yul\":15849:15855   */\n      not\n        /* \"#utility.yul\":15841:15846   */\n      dup5\n        /* \"#utility.yul\":15838:15839   */\n      0x08\n        /* \"#utility.yul\":15834:15847   */\n      mul\n        /* \"#utility.yul\":15805:15856   */\n      tag_334\n      jump\t// in\n    tag_528:\n        /* \"#utility.yul\":15801:15857   */\n      not\n        /* \"#utility.yul\":15886:15890   */\n      dup1\n        /* \"#utility.yul\":15880:15884   */\n      dup4\n        /* \"#utility.yul\":15876:15891   */\n      and\n        /* \"#utility.yul\":15866:15891   */\n      swap2\n      pop\n        /* \"#utility.yul\":15779:15897   */\n      pop\n        /* \"#utility.yul\":15728:15897   */\n      swap3\n      swap2\n      pop\n      pop\n      jump\t// out\n        /* \"#utility.yul\":15902:16197   */\n    tag_336:\n        /* \"#utility.yul\":15978:15982   */\n      0x00\n        /* \"#utility.yul\":16124:16153   */\n      tag_530\n        /* \"#utility.yul\":16149:16152   */\n      dup4\n        /* \"#utility.yul\":16143:16147   */\n      dup4\n        /* \"#utility.yul\":16124:16153   */\n      tag_335\n      jump\t// in\n    tag_530:\n        /* \"#utility.yul\":16116:16153   */\n      swap2\n      pop\n        /* \"#utility.yul\":16186:16189   */\n      dup3\n        /* \"#utility.yul\":16183:16184   */\n      0x02\n        /* \"#utility.yul\":16179:16190   */\n      mul\n        /* \"#utility.yul\":16173:16177   */\n      dup3\n        /* \"#utility.yul\":16170:16191   */\n      or\n        /* \"#utility.yul\":16162:16191   */\n      swap1\n      pop\n        /* \"#utility.yul\":15902:16197   */\n      swap3\n      swap2\n      pop\n      pop\n      jump\t// out\n        /* \"#utility.yul\":16202:17597   */\n    tag_119:\n        /* \"#utility.yul\":16319:16356   */\n      tag_532\n        /* \"#utility.yul\":16352:16355   */\n      dup3\n        /* \"#utility.yul\":16319:16356   */\n      tag_296\n      jump\t// in\n    tag_532:\n        /* \"#utility.yul\":16421:16439   */\n      0xffffffffffffffff\n        /* \"#utility.yul\":16413:16419   */\n      dup2\n        /* \"#utility.yul\":16410:16440   */\n      gt\n        /* \"#utility.yul\":16407:16463   */\n      iszero\n      tag_533\n      jumpi\n        /* \"#utility.yul\":16443:16461   */\n      tag_534\n      tag_286\n      jump\t// in\n    tag_534:\n        /* \"#utility.yul\":16407:16463   */\n    tag_533:\n        /* \"#utility.yul\":16487:16525   */\n      tag_535\n        /* \"#utility.yul\":16519:16523   */\n      dup3\n        /* \"#utility.yul\":16513:16524   */\n      sload\n        /* \"#utility.yul\":16487:16525   */\n      tag_134\n      jump\t// in\n    tag_535:\n        /* \"#utility.yul\":16572:16639   */\n      tag_536\n        /* \"#utility.yul\":16632:16638   */\n      dup3\n        /* \"#utility.yul\":16624:16630   */\n      dup3\n        /* \"#utility.yul\":16618:16622   */\n      dup6\n        /* \"#utility.yul\":16572:16639   */\n      tag_333\n      jump\t// in\n    tag_536:\n        /* \"#utility.yul\":16666:16667   */\n      0x00\n        /* \"#utility.yul\":16690:16694   */\n      0x20\n        /* \"#utility.yul\":16677:16694   */\n      swap1\n      pop\n        /* \"#utility.yul\":16722:16724   */\n      0x1f\n        /* \"#utility.yul\":16714:16720   */\n      dup4\n        /* \"#utility.yul\":16711:16725   */\n      gt\n        /* \"#utility.yul\":16739:16740   */\n      0x01\n        /* \"#utility.yul\":16734:17352   */\n      dup2\n      eq\n      tag_538\n      jumpi\n        /* \"#utility.yul\":17396:17397   */\n      0x00\n        /* \"#utility.yul\":17413:17419   */\n      dup5\n        /* \"#utility.yul\":17410:17487   */\n      iszero\n      tag_539\n      jumpi\n        /* \"#utility.yul\":17462:17471   */\n      dup3\n        /* \"#utility.yul\":17457:17460   */\n      dup8\n        /* \"#utility.yul\":17453:17472   */\n      add\n        /* \"#utility.yul\":17447:17473   */\n      mload\n        /* \"#utility.yul\":17438:17473   */\n      swap1\n      pop\n        /* \"#utility.yul\":17410:17487   */\n    tag_539:\n        /* \"#utility.yul\":17513:17580   */\n      tag_540\n        /* \"#utility.yul\":17573:17579   */\n      dup6\n        /* \"#utility.yul\":17566:17571   */\n      dup3\n        /* \"#utility.yul\":17513:17580   */\n      tag_336\n      jump\t// in\n    tag_540:\n        /* \"#utility.yul\":17507:17511   */\n      dup7\n        /* \"#utility.yul\":17500:17581   */\n      sstore\n        /* \"#utility.yul\":17369:17591   */\n      pop\n        /* \"#utility.yul\":16704:17591   */\n      jump(tag_537)\n        /* \"#utility.yul\":16734:17352   */\n    tag_538:\n        /* \"#utility.yul\":16786:16790   */\n      0x1f\n        /* \"#utility.yul\":16782:16791   */\n      not\n        /* \"#utility.yul\":16774:16780   */\n      dup5\n        /* \"#utility.yul\":16770:16792   */\n      and\n        /* \"#utility.yul\":16820:16857   */\n      tag_541\n        /* \"#utility.yul\":16852:16856   */\n      dup7\n        /* \"#utility.yul\":16820:16857   */\n      tag_322\n      jump\t// in\n    tag_541:\n        /* \"#utility.yul\":16879:16880   */\n      0x00\n        /* \"#utility.yul\":16893:17101   */\n    tag_542:\n        /* \"#utility.yul\":16907:16914   */\n      dup3\n        /* \"#utility.yul\":16904:16905   */\n      dup2\n        /* \"#utility.yul\":16901:16915   */\n      lt\n        /* \"#utility.yul\":16893:17101   */\n      iszero\n      tag_544\n      jumpi\n        /* \"#utility.yul\":16986:16995   */\n      dup5\n        /* \"#utility.yul\":16981:16984   */\n      dup10\n        /* \"#utility.yul\":16977:16996   */\n      add\n        /* \"#utility.yul\":16971:16997   */\n      mload\n        /* \"#utility.yul\":16963:16969   */\n      dup3\n        /* \"#utility.yul\":16956:16998   */\n      sstore\n        /* \"#utility.yul\":17037:17038   */\n      0x01\n        /* \"#utility.yul\":17029:17035   */\n      dup3\n        /* \"#utility.yul\":17025:17039   */\n      add\n        /* \"#utility.yul\":17015:17039   */\n      swap2\n      pop\n        /* \"#utility.yul\":17084:17086   */\n      0x20\n        /* \"#utility.yul\":17073:17082   */\n      dup6\n        /* \"#utility.yul\":17069:17087   */\n      add\n        /* \"#utility.yul\":17056:17087   */\n      swap5\n      pop\n        /* \"#utility.yul\":16930:16934   */\n      0x20\n        /* \"#utility.yul\":16927:16928   */\n      dup2\n        /* \"#utility.yul\":16923:16935   */\n      add\n        /* \"#utility.yul\":16918:16935   */\n      swap1\n      pop\n        /* \"#utility.yul\":16893:17101   */\n      jump(tag_542)\n    tag_544:\n        /* \"#utility.yul\":17129:17135   */\n      dup7\n        /* \"#utility.yul\":17120:17127   */\n      dup4\n        /* \"#utility.yul\":17117:17136   */\n      lt\n        /* \"#utility.yul\":17114:17293   */\n      iszero\n      tag_545\n      jumpi\n        /* \"#utility.yul\":17187:17196   */\n      dup5\n        /* \"#utility.yul\":17182:17185   */\n      dup10\n        /* \"#utility.yul\":17178:17197   */\n      add\n        /* \"#utility.yul\":17172:17198   */\n      mload\n        /* \"#utility.yul\":17230:17278   */\n      tag_546\n        /* \"#utility.yul\":17272:17276   */\n      0x1f\n        /* \"#utility.yul\":17264:17270   */\n      dup10\n        /* \"#utility.yul\":17260:17277   */\n      and\n        /* \"#utility.yul\":17249:17258   */\n      dup3\n        /* \"#utility.yul\":17230:17278   */\n      tag_335\n      jump\t// in\n    tag_546:\n        /* \"#utility.yul\":17222:17228   */\n      dup4\n        /* \"#utility.yul\":17215:17279   */\n      sstore\n        /* \"#utility.yul\":17137:17293   */\n      pop\n        /* \"#utility.yul\":17114:17293   */\n    tag_545:\n        /* \"#utility.yul\":17339:17340   */\n      0x01\n        /* \"#utility.yul\":17335:17336   */\n      0x02\n        /* \"#utility.yul\":17327:17333   */\n      dup9\n        /* \"#utility.yul\":17323:17337   */\n      mul\n        /* \"#utility.yul\":17319:17341   */\n      add\n        /* \"#utility.yul\":17313:17317   */\n      dup9\n        /* \"#utility.yul\":17306:17342   */\n      sstore\n        /* \"#utility.yul\":16741:17352   */\n      pop\n      pop\n      pop\n        /* \"#utility.yul\":16704:17591   */\n    tag_537:\n      pop\n        /* \"#utility.yul\":16294:17597   */\n      pop\n      pop\n      pop\n        /* \"#utility.yul\":16202:17597   */\n      pop\n      pop\n      jump\t// out\n        /* \"#utility.yul\":17603:18026   */\n    tag_123:\n        /* \"#utility.yul\":17744:17748   */\n      0x00\n        /* \"#utility.yul\":17782:17784   */\n      0x40\n        /* \"#utility.yul\":17771:17780   */\n      dup3\n        /* \"#utility.yul\":17767:17785   */\n      add\n        /* \"#utility.yul\":17759:17785   */\n      swap1\n      pop\n        /* \"#utility.yul\":17831:17840   */\n      dup2\n        /* \"#utility.yul\":17825:17829   */\n      dup2\n        /* \"#utility.yul\":17821:17841   */\n      sub\n        /* \"#utility.yul\":17817:17818   */\n      0x00\n        /* \"#utility.yul\":17806:17815   */\n      dup4\n        /* \"#utility.yul\":17802:17819   */\n      add\n        /* \"#utility.yul\":17795:17842   */\n      mstore\n        /* \"#utility.yul\":17859:17937   */\n      tag_548\n        /* \"#utility.yul\":17932:17936   */\n      dup2\n        /* \"#utility.yul\":17923:17929   */\n      dup6\n        /* \"#utility.yul\":17859:17937   */\n      tag_299\n      jump\t// in\n    tag_548:\n        /* \"#utility.yul\":17851:17937   */\n      swap1\n      pop\n        /* \"#utility.yul\":17947:18019   */\n      tag_549\n        /* \"#utility.yul\":18015:18017   */\n      0x20\n        /* \"#utility.yul\":18004:18013   */\n      dup4\n        /* \"#utility.yul\":18000:18018   */\n      add\n        /* \"#utility.yul\":17991:17997   */\n      dup5\n        /* \"#utility.yul\":17947:18019   */\n      tag_300\n      jump\t// in\n    tag_549:\n        /* \"#utility.yul\":17603:18026   */\n      swap4\n      swap3\n      pop\n      pop\n      pop\n      jump\t// out\n        /* \"#utility.yul\":18032:18150   */\n    tag_337:\n        /* \"#utility.yul\":18119:18143   */\n      tag_551\n        /* \"#utility.yul\":18137:18142   */\n      dup2\n        /* \"#utility.yul\":18119:18143   */\n      tag_312\n      jump\t// in\n    tag_551:\n        /* \"#utility.yul\":18114:18117   */\n      dup3\n        /* \"#utility.yul\":18107:18144   */\n      mstore\n        /* \"#utility.yul\":18032:18150   */\n      pop\n      pop\n      jump\t// out\n        /* \"#utility.yul\":18156:18378   */\n    tag_150:\n        /* \"#utility.yul\":18249:18253   */\n      0x00\n        /* \"#utility.yul\":18287:18289   */\n      0x20\n        /* \"#utility.yul\":18276:18285   */\n      dup3\n        /* \"#utility.yul\":18272:18290   */\n      add\n        /* \"#utility.yul\":18264:18290   */\n      swap1\n      pop\n        /* \"#utility.yul\":18300:18371   */\n      tag_553\n        /* \"#utility.yul\":18368:18369   */\n      0x00\n        /* \"#utility.yul\":18357:18366   */\n      dup4\n        /* \"#utility.yul\":18353:18370   */\n      add\n        /* \"#utility.yul\":18344:18350   */\n      dup5\n        /* \"#utility.yul\":18300:18371   */\n      tag_337\n      jump\t// in\n    tag_553:\n        /* \"#utility.yul\":18156:18378   */\n      swap3\n      swap2\n      pop\n      pop\n      jump\t// out\n        /* \"#utility.yul\":18384:18527   */\n    tag_338:\n        /* \"#utility.yul\":18441:18446   */\n      0x00\n        /* \"#utility.yul\":18472:18478   */\n      dup2\n        /* \"#utility.yul\":18466:18479   */\n      mload\n        /* \"#utility.yul\":18457:18479   */\n      swap1\n      pop\n        /* \"#utility.yul\":18488:18521   */\n      tag_555\n        /* \"#utility.yul\":18515:18520   */\n      dup2\n        /* \"#utility.yul\":18488:18521   */\n      tag_294\n      jump\t// in\n    tag_555:\n        /* \"#utility.yul\":18384:18527   */\n      swap3\n      swap2\n      pop\n      pop\n      jump\t// out\n        /* \"#utility.yul\":18533:18884   */\n    tag_154:\n        /* \"#utility.yul\":18603:18609   */\n      0x00\n        /* \"#utility.yul\":18652:18654   */\n      0x20\n        /* \"#utility.yul\":18640:18649   */\n      dup3\n        /* \"#utility.yul\":18631:18638   */\n      dup5\n        /* \"#utility.yul\":18627:18650   */\n      sub\n        /* \"#utility.yul\":18623:18655   */\n      slt\n        /* \"#utility.yul\":18620:18739   */\n      iszero\n      tag_557\n      jumpi\n        /* \"#utility.yul\":18658:18737   */\n      tag_558\n      tag_281\n      jump\t// in\n    tag_558:\n        /* \"#utility.yul\":18620:18739   */\n    tag_557:\n        /* \"#utility.yul\":18778:18779   */\n      0x00\n        /* \"#utility.yul\":18803:18867   */\n      tag_559\n        /* \"#utility.yul\":18859:18866   */\n      dup5\n        /* \"#utility.yul\":18850:18856   */\n      dup3\n        /* \"#utility.yul\":18839:18848   */\n      dup6\n        /* \"#utility.yul\":18835:18857   */\n      add\n        /* \"#utility.yul\":18803:18867   */\n      tag_338\n      jump\t// in\n    tag_559:\n        /* \"#utility.yul\":18793:18867   */\n      swap2\n      pop\n        /* \"#utility.yul\":18749:18877   */\n      pop\n        /* \"#utility.yul\":18533:18884   */\n      swap3\n      swap2\n      pop\n      pop\n      jump\t// out\n        /* \"#utility.yul\":18890:19127   */\n    tag_339:\n        /* \"#utility.yul\":19030:19064   */\n      0x4e6563657369746173206465766f6c76657220756e612063616e746964616420\n        /* \"#utility.yul\":19026:19027   */\n      0x00\n        /* \"#utility.yul\":19018:19024   */\n      dup3\n        /* \"#utility.yul\":19014:19028   */\n      add\n        /* \"#utility.yul\":19007:19065   */\n      mstore\n        /* \"#utility.yul\":19099:19119   */\n      0x706f73697469766120646520746f6b656e730000000000000000000000000000\n        /* \"#utility.yul\":19094:19096   */\n      0x20\n        /* \"#utility.yul\":19086:19092   */\n      dup3\n        /* \"#utility.yul\":19082:19097   */\n      add\n        /* \"#utility.yul\":19075:19120   */\n      mstore\n        /* \"#utility.yul\":18890:19127   */\n      pop\n      jump\t// out\n        /* \"#utility.yul\":19133:19499   */\n    tag_340:\n        /* \"#utility.yul\":19275:19278   */\n      0x00\n        /* \"#utility.yul\":19296:19363   */\n      tag_562\n        /* \"#utility.yul\":19360:19362   */\n      0x32\n        /* \"#utility.yul\":19355:19358   */\n      dup4\n        /* \"#utility.yul\":19296:19363   */\n      tag_297\n      jump\t// in\n    tag_562:\n        /* \"#utility.yul\":19289:19363   */\n      swap2\n      pop\n        /* \"#utility.yul\":19372:19465   */\n      tag_563\n        /* \"#utility.yul\":19461:19464   */\n      dup3\n        /* \"#utility.yul\":19372:19465   */\n      tag_339\n      jump\t// in\n    tag_563:\n        /* \"#utility.yul\":19490:19492   */\n      0x40\n        /* \"#utility.yul\":19485:19488   */\n      dup3\n        /* \"#utility.yul\":19481:19493   */\n      add\n        /* \"#utility.yul\":19474:19493   */\n      swap1\n      pop\n        /* \"#utility.yul\":19133:19499   */\n      swap2\n      swap1\n      pop\n      jump\t// out\n        /* \"#utility.yul\":19505:19924   */\n    tag_158:\n        /* \"#utility.yul\":19671:19675   */\n      0x00\n        /* \"#utility.yul\":19709:19711   */\n      0x20\n        /* \"#utility.yul\":19698:19707   */\n      dup3\n        /* \"#utility.yul\":19694:19712   */\n      add\n        /* \"#utility.yul\":19686:19712   */\n      swap1\n      pop\n        /* \"#utility.yul\":19758:19767   */\n      dup2\n        /* \"#utility.yul\":19752:19756   */\n      dup2\n        /* \"#utility.yul\":19748:19768   */\n      sub\n        /* \"#utility.yul\":19744:19745   */\n      0x00\n        /* \"#utility.yul\":19733:19742   */\n      dup4\n        /* \"#utility.yul\":19729:19746   */\n      add\n        /* \"#utility.yul\":19722:19769   */\n      mstore\n        /* \"#utility.yul\":19786:19917   */\n      tag_565\n        /* \"#utility.yul\":19912:19916   */\n      dup2\n        /* \"#utility.yul\":19786:19917   */\n      tag_340\n      jump\t// in\n    tag_565:\n        /* \"#utility.yul\":19778:19917   */\n      swap1\n      pop\n        /* \"#utility.yul\":19505:19924   */\n      swap2\n      swap1\n      pop\n      jump\t// out\n        /* \"#utility.yul\":19930:20157   */\n    tag_341:\n        /* \"#utility.yul\":20070:20104   */\n      0x4e6f207469656e6573206c6f7320746f6b656e73207175652064657365617320\n        /* \"#utility.yul\":20066:20067   */\n      0x00\n        /* \"#utility.yul\":20058:20064   */\n      dup3\n        /* \"#utility.yul\":20054:20068   */\n      add\n        /* \"#utility.yul\":20047:20105   */\n      mstore\n        /* \"#utility.yul\":20139:20149   */\n      0x6465766f6c766572000000000000000000000000000000000000000000000000\n        /* \"#utility.yul\":20134:20136   */\n      0x20\n        /* \"#utility.yul\":20126:20132   */\n      dup3\n        /* \"#utility.yul\":20122:20137   */\n      add\n        /* \"#utility.yul\":20115:20150   */\n      mstore\n        /* \"#utility.yul\":19930:20157   */\n      pop\n      jump\t// out\n        /* \"#utility.yul\":20163:20529   */\n    tag_342:\n        /* \"#utility.yul\":20305:20308   */\n      0x00\n        /* \"#utility.yul\":20326:20393   */\n      tag_568\n        /* \"#utility.yul\":20390:20392   */\n      0x28\n        /* \"#utility.yul\":20385:20388   */\n      dup4\n        /* \"#utility.yul\":20326:20393   */\n      tag_297\n      jump\t// in\n    tag_568:\n        /* \"#utility.yul\":20319:20393   */\n      swap2\n      pop\n        /* \"#utility.yul\":20402:20495   */\n      tag_569\n        /* \"#utility.yul\":20491:20494   */\n      dup3\n        /* \"#utility.yul\":20402:20495   */\n      tag_341\n      jump\t// in\n    tag_569:\n        /* \"#utility.yul\":20520:20522   */\n      0x40\n        /* \"#utility.yul\":20515:20518   */\n      dup3\n        /* \"#utility.yul\":20511:20523   */\n      add\n        /* \"#utility.yul\":20504:20523   */\n      swap1\n      pop\n        /* \"#utility.yul\":20163:20529   */\n      swap2\n      swap1\n      pop\n      jump\t// out\n        /* \"#utility.yul\":20535:20954   */\n    tag_162:\n        /* \"#utility.yul\":20701:20705   */\n      0x00\n        /* \"#utility.yul\":20739:20741   */\n      0x20\n        /* \"#utility.yul\":20728:20737   */\n      dup3\n        /* \"#utility.yul\":20724:20742   */\n      add\n        /* \"#utility.yul\":20716:20742   */\n      swap1\n      pop\n        /* \"#utility.yul\":20788:20797   */\n      dup2\n        /* \"#utility.yul\":20782:20786   */\n      dup2\n        /* \"#utility.yul\":20778:20798   */\n      sub\n        /* \"#utility.yul\":20774:20775   */\n      0x00\n        /* \"#utility.yul\":20763:20772   */\n      dup4\n        /* \"#utility.yul\":20759:20776   */\n      add\n        /* \"#utility.yul\":20752:20799   */\n      mstore\n        /* \"#utility.yul\":20816:20947   */\n      tag_571\n        /* \"#utility.yul\":20942:20946   */\n      dup2\n        /* \"#utility.yul\":20816:20947   */\n      tag_342\n      jump\t// in\n    tag_571:\n        /* \"#utility.yul\":20808:20947   */\n      swap1\n      pop\n        /* \"#utility.yul\":20535:20954   */\n      swap2\n      swap1\n      pop\n      jump\t// out\n        /* \"#utility.yul\":20960:21402   */\n    tag_164:\n        /* \"#utility.yul\":21109:21113   */\n      0x00\n        /* \"#utility.yul\":21147:21149   */\n      0x60\n        /* \"#utility.yul\":21136:21145   */\n      dup3\n        /* \"#utility.yul\":21132:21150   */\n      add\n        /* \"#utility.yul\":21124:21150   */\n      swap1\n      pop\n        /* \"#utility.yul\":21160:21231   */\n      tag_573\n        /* \"#utility.yul\":21228:21229   */\n      0x00\n        /* \"#utility.yul\":21217:21226   */\n      dup4\n        /* \"#utility.yul\":21213:21230   */\n      add\n        /* \"#utility.yul\":21204:21210   */\n      dup7\n        /* \"#utility.yul\":21160:21231   */\n      tag_337\n      jump\t// in\n    tag_573:\n        /* \"#utility.yul\":21241:21313   */\n      tag_574\n        /* \"#utility.yul\":21309:21311   */\n      0x20\n        /* \"#utility.yul\":21298:21307   */\n      dup4\n        /* \"#utility.yul\":21294:21312   */\n      add\n        /* \"#utility.yul\":21285:21291   */\n      dup6\n        /* \"#utility.yul\":21241:21313   */\n      tag_337\n      jump\t// in\n    tag_574:\n        /* \"#utility.yul\":21323:21395   */\n      tag_575\n        /* \"#utility.yul\":21391:21393   */\n      0x40\n        /* \"#utility.yul\":21380:21389   */\n      dup4\n        /* \"#utility.yul\":21376:21394   */\n      add\n        /* \"#utility.yul\":21367:21373   */\n      dup5\n        /* \"#utility.yul\":21323:21395   */\n      tag_300\n      jump\t// in\n    tag_575:\n        /* \"#utility.yul\":20960:21402   */\n      swap5\n      swap4\n      pop\n      pop\n      pop\n      pop\n      jump\t// out\n        /* \"#utility.yul\":21408:21524   */\n    tag_343:\n        /* \"#utility.yul\":21478:21499   */\n      tag_577\n        /* \"#utility.yul\":21493:21498   */\n      dup2\n        /* \"#utility.yul\":21478:21499   */\n      tag_301\n      jump\t// in\n    tag_577:\n        /* \"#utility.yul\":21471:21476   */\n      dup2\n        /* \"#utility.yul\":21468:21500   */\n      eq\n        /* \"#utility.yul\":21458:21518   */\n      tag_578\n      jumpi\n        /* \"#utility.yul\":21514:21515   */\n      0x00\n        /* \"#utility.yul\":21511:21512   */\n      dup1\n        /* \"#utility.yul\":21504:21516   */\n      revert\n        /* \"#utility.yul\":21458:21518   */\n    tag_578:\n        /* \"#utility.yul\":21408:21524   */\n      pop\n      jump\t// out\n        /* \"#utility.yul\":21530:21667   */\n    tag_344:\n        /* \"#utility.yul\":21584:21589   */\n      0x00\n        /* \"#utility.yul\":21615:21621   */\n      dup2\n        /* \"#utility.yul\":21609:21622   */\n      mload\n        /* \"#utility.yul\":21600:21622   */\n      swap1\n      pop\n        /* \"#utility.yul\":21631:21661   */\n      tag_580\n        /* \"#utility.yul\":21655:21660   */\n      dup2\n        /* \"#utility.yul\":21631:21661   */\n      tag_343\n      jump\t// in\n    tag_580:\n        /* \"#utility.yul\":21530:21667   */\n      swap3\n      swap2\n      pop\n      pop\n      jump\t// out\n        /* \"#utility.yul\":21673:22018   */\n    tag_168:\n        /* \"#utility.yul\":21740:21746   */\n      0x00\n        /* \"#utility.yul\":21789:21791   */\n      0x20\n        /* \"#utility.yul\":21777:21786   */\n      dup3\n        /* \"#utility.yul\":21768:21775   */\n      dup5\n        /* \"#utility.yul\":21764:21787   */\n      sub\n        /* \"#utility.yul\":21760:21792   */\n      slt\n        /* \"#utility.yul\":21757:21876   */\n      iszero\n      tag_582\n      jumpi\n        /* \"#utility.yul\":21795:21874   */\n      tag_583\n      tag_281\n      jump\t// in\n    tag_583:\n        /* \"#utility.yul\":21757:21876   */\n    tag_582:\n        /* \"#utility.yul\":21915:21916   */\n      0x00\n        /* \"#utility.yul\":21940:22001   */\n      tag_584\n        /* \"#utility.yul\":21993:22000   */\n      dup5\n        /* \"#utility.yul\":21984:21990   */\n      dup3\n        /* \"#utility.yul\":21973:21982   */\n      dup6\n        /* \"#utility.yul\":21969:21991   */\n      add\n        /* \"#utility.yul\":21940:22001   */\n      tag_344\n      jump\t// in\n    tag_584:\n        /* \"#utility.yul\":21930:22001   */\n      swap2\n      pop\n        /* \"#utility.yul\":21886:22011   */\n      pop\n        /* \"#utility.yul\":21673:22018   */\n      swap3\n      swap2\n      pop\n      pop\n      jump\t// out\n        /* \"#utility.yul\":22024:22244   */\n    tag_345:\n        /* \"#utility.yul\":22164:22198   */\n      0x4573746120617472616363696f6e206e6f206573746120646973706f6e69626c\n        /* \"#utility.yul\":22160:22161   */\n      0x00\n        /* \"#utility.yul\":22152:22158   */\n      dup3\n        /* \"#utility.yul\":22148:22162   */\n      add\n        /* \"#utility.yul\":22141:22199   */\n      mstore\n        /* \"#utility.yul\":22233:22236   */\n      0x6500000000000000000000000000000000000000000000000000000000000000\n        /* \"#utility.yul\":22228:22230   */\n      0x20\n        /* \"#utility.yul\":22220:22226   */\n      dup3\n        /* \"#utility.yul\":22216:22231   */\n      add\n        /* \"#utility.yul\":22209:22237   */\n      mstore\n        /* \"#utility.yul\":22024:22244   */\n      pop\n      jump\t// out\n        /* \"#utility.yul\":22250:22616   */\n    tag_346:\n        /* \"#utility.yul\":22392:22395   */\n      0x00\n        /* \"#utility.yul\":22413:22480   */\n      tag_587\n        /* \"#utility.yul\":22477:22479   */\n      0x21\n        /* \"#utility.yul\":22472:22475   */\n      dup4\n        /* \"#utility.yul\":22413:22480   */\n      tag_297\n      jump\t// in\n    tag_587:\n        /* \"#utility.yul\":22406:22480   */\n      swap2\n      pop\n        /* \"#utility.yul\":22489:22582   */\n      tag_588\n        /* \"#utility.yul\":22578:22581   */\n      dup3\n        /* \"#utility.yul\":22489:22582   */\n      tag_345\n      jump\t// in\n    tag_588:\n        /* \"#utility.yul\":22607:22609   */\n      0x40\n        /* \"#utility.yul\":22602:22605   */\n      dup3\n        /* \"#utility.yul\":22598:22610   */\n      add\n        /* \"#utility.yul\":22591:22610   */\n      swap1\n      pop\n        /* \"#utility.yul\":22250:22616   */\n      swap2\n      swap1\n      pop\n      jump\t// out\n        /* \"#utility.yul\":22622:23041   */\n    tag_178:\n        /* \"#utility.yul\":22788:22792   */\n      0x00\n        /* \"#utility.yul\":22826:22828   */\n      0x20\n        /* \"#utility.yul\":22815:22824   */\n      dup3\n        /* \"#utility.yul\":22811:22829   */\n      add\n        /* \"#utility.yul\":22803:22829   */\n      swap1\n      pop\n        /* \"#utility.yul\":22875:22884   */\n      dup2\n        /* \"#utility.yul\":22869:22873   */\n      dup2\n        /* \"#utility.yul\":22865:22885   */\n      sub\n        /* \"#utility.yul\":22861:22862   */\n      0x00\n        /* \"#utility.yul\":22850:22859   */\n      dup4\n        /* \"#utility.yul\":22846:22863   */\n      add\n        /* \"#utility.yul\":22839:22886   */\n      mstore\n        /* \"#utility.yul\":22903:23034   */\n      tag_590\n        /* \"#utility.yul\":23029:23033   */\n      dup2\n        /* \"#utility.yul\":22903:23034   */\n      tag_346\n      jump\t// in\n    tag_590:\n        /* \"#utility.yul\":22895:23034   */\n      swap1\n      pop\n        /* \"#utility.yul\":22622:23041   */\n      swap2\n      swap1\n      pop\n      jump\t// out\n        /* \"#utility.yul\":23047:23279   */\n    tag_347:\n        /* \"#utility.yul\":23187:23221   */\n      0x4e6f207469656e6520737566696369656e74652073616c646f20706172612065\n        /* \"#utility.yul\":23183:23184   */\n      0x00\n        /* \"#utility.yul\":23175:23181   */\n      dup3\n        /* \"#utility.yul\":23171:23185   */\n      add\n        /* \"#utility.yul\":23164:23222   */\n      mstore\n        /* \"#utility.yul\":23256:23271   */\n      0x73746120617472616363696f6e00000000000000000000000000000000000000\n        /* \"#utility.yul\":23251:23253   */\n      0x20\n        /* \"#utility.yul\":23243:23249   */\n      dup3\n        /* \"#utility.yul\":23239:23254   */\n      add\n        /* \"#utility.yul\":23232:23272   */\n      mstore\n        /* \"#utility.yul\":23047:23279   */\n      pop\n      jump\t// out\n        /* \"#utility.yul\":23285:23651   */\n    tag_348:\n        /* \"#utility.yul\":23427:23430   */\n      0x00\n        /* \"#utility.yul\":23448:23515   */\n      tag_593\n        /* \"#utility.yul\":23512:23514   */\n      0x2d\n        /* \"#utility.yul\":23507:23510   */\n      dup4\n        /* \"#utility.yul\":23448:23515   */\n      tag_297\n      jump\t// in\n    tag_593:\n        /* \"#utility.yul\":23441:23515   */\n      swap2\n      pop\n        /* \"#utility.yul\":23524:23617   */\n      tag_594\n        /* \"#utility.yul\":23613:23616   */\n      dup3\n        /* \"#utility.yul\":23524:23617   */\n      tag_347\n      jump\t// in\n    tag_594:\n        /* \"#utility.yul\":23642:23644   */\n      0x40\n        /* \"#utility.yul\":23637:23640   */\n      dup3\n        /* \"#utility.yul\":23633:23645   */\n      add\n        /* \"#utility.yul\":23626:23645   */\n      swap1\n      pop\n        /* \"#utility.yul\":23285:23651   */\n      swap2\n      swap1\n      pop\n      jump\t// out\n        /* \"#utility.yul\":23657:24076   */\n    tag_182:\n        /* \"#utility.yul\":23823:23827   */\n      0x00\n        /* \"#utility.yul\":23861:23863   */\n      0x20\n        /* \"#utility.yul\":23850:23859   */\n      dup3\n        /* \"#utility.yul\":23846:23864   */\n      add\n        /* \"#utility.yul\":23838:23864   */\n      swap1\n      pop\n        /* \"#utility.yul\":23910:23919   */\n      dup2\n        /* \"#utility.yul\":23904:23908   */\n      dup2\n        /* \"#utility.yul\":23900:23920   */\n      sub\n        /* \"#utility.yul\":23896:23897   */\n      0x00\n        /* \"#utility.yul\":23885:23894   */\n      dup4\n        /* \"#utility.yul\":23881:23898   */\n      add\n        /* \"#utility.yul\":23874:23921   */\n      mstore\n        /* \"#utility.yul\":23938:24069   */\n      tag_596\n        /* \"#utility.yul\":24064:24068   */\n      dup2\n        /* \"#utility.yul\":23938:24069   */\n      tag_348\n      jump\t// in\n    tag_596:\n        /* \"#utility.yul\":23930:24069   */\n      swap1\n      pop\n        /* \"#utility.yul\":23657:24076   */\n      swap2\n      swap1\n      pop\n      jump\t// out\n        /* \"#utility.yul\":24082:24615   */\n    tag_190:\n        /* \"#utility.yul\":24251:24255   */\n      0x00\n        /* \"#utility.yul\":24289:24291   */\n      0x60\n        /* \"#utility.yul\":24278:24287   */\n      dup3\n        /* \"#utility.yul\":24274:24292   */\n      add\n        /* \"#utility.yul\":24266:24292   */\n      swap1\n      pop\n        /* \"#utility.yul\":24338:24347   */\n      dup2\n        /* \"#utility.yul\":24332:24336   */\n      dup2\n        /* \"#utility.yul\":24328:24348   */\n      sub\n        /* \"#utility.yul\":24324:24325   */\n      0x00\n        /* \"#utility.yul\":24313:24322   */\n      dup4\n        /* \"#utility.yul\":24309:24326   */\n      add\n        /* \"#utility.yul\":24302:24349   */\n      mstore\n        /* \"#utility.yul\":24366:24444   */\n      tag_598\n        /* \"#utility.yul\":24439:24443   */\n      dup2\n        /* \"#utility.yul\":24430:24436   */\n      dup7\n        /* \"#utility.yul\":24366:24444   */\n      tag_299\n      jump\t// in\n    tag_598:\n        /* \"#utility.yul\":24358:24444   */\n      swap1\n      pop\n        /* \"#utility.yul\":24454:24526   */\n      tag_599\n        /* \"#utility.yul\":24522:24524   */\n      0x20\n        /* \"#utility.yul\":24511:24520   */\n      dup4\n        /* \"#utility.yul\":24507:24525   */\n      add\n        /* \"#utility.yul\":24498:24504   */\n      dup6\n        /* \"#utility.yul\":24454:24526   */\n      tag_300\n      jump\t// in\n    tag_599:\n        /* \"#utility.yul\":24536:24608   */\n      tag_600\n        /* \"#utility.yul\":24604:24606   */\n      0x40\n        /* \"#utility.yul\":24593:24602   */\n      dup4\n        /* \"#utility.yul\":24589:24607   */\n      add\n        /* \"#utility.yul\":24580:24586   */\n      dup5\n        /* \"#utility.yul\":24536:24608   */\n      tag_337\n      jump\t// in\n    tag_600:\n        /* \"#utility.yul\":24082:24615   */\n      swap5\n      swap4\n      pop\n      pop\n      pop\n      pop\n      jump\t// out\n        /* \"#utility.yul\":24621:24801   */\n    tag_349:\n        /* \"#utility.yul\":24761:24793   */\n      0x4573746120636f6d696461206e6f206573746120646973706f6e69626c650000\n        /* \"#utility.yul\":24757:24758   */\n      0x00\n        /* \"#utility.yul\":24749:24755   */\n      dup3\n        /* \"#utility.yul\":24745:24759   */\n      add\n        /* \"#utility.yul\":24738:24794   */\n      mstore\n        /* \"#utility.yul\":24621:24801   */\n      pop\n      jump\t// out\n        /* \"#utility.yul\":24807:25173   */\n    tag_350:\n        /* \"#utility.yul\":24949:24952   */\n      0x00\n        /* \"#utility.yul\":24970:25037   */\n      tag_603\n        /* \"#utility.yul\":25034:25036   */\n      0x1e\n        /* \"#utility.yul\":25029:25032   */\n      dup4\n        /* \"#utility.yul\":24970:25037   */\n      tag_297\n      jump\t// in\n    tag_603:\n        /* \"#utility.yul\":24963:25037   */\n      swap2\n      pop\n        /* \"#utility.yul\":25046:25139   */\n      tag_604\n        /* \"#utility.yul\":25135:25138   */\n      dup3\n        /* \"#utility.yul\":25046:25139   */\n      tag_349\n      jump\t// in\n    tag_604:\n        /* \"#utility.yul\":25164:25166   */\n      0x20\n        /* \"#utility.yul\":25159:25162   */\n      dup3\n        /* \"#utility.yul\":25155:25167   */\n      add\n        /* \"#utility.yul\":25148:25167   */\n      swap1\n      pop\n        /* \"#utility.yul\":24807:25173   */\n      swap2\n      swap1\n      pop\n      jump\t// out\n        /* \"#utility.yul\":25179:25598   */\n    tag_232:\n        /* \"#utility.yul\":25345:25349   */\n      0x00\n        /* \"#utility.yul\":25383:25385   */\n      0x20\n        /* \"#utility.yul\":25372:25381   */\n      dup3\n        /* \"#utility.yul\":25368:25386   */\n      add\n        /* \"#utility.yul\":25360:25386   */\n      swap1\n      pop\n        /* \"#utility.yul\":25432:25441   */\n      dup2\n        /* \"#utility.yul\":25426:25430   */\n      dup2\n        /* \"#utility.yul\":25422:25442   */\n      sub\n        /* \"#utility.yul\":25418:25419   */\n      0x00\n        /* \"#utility.yul\":25407:25416   */\n      dup4\n        /* \"#utility.yul\":25403:25420   */\n      add\n        /* \"#utility.yul\":25396:25443   */\n      mstore\n        /* \"#utility.yul\":25460:25591   */\n      tag_606\n        /* \"#utility.yul\":25586:25590   */\n      dup2\n        /* \"#utility.yul\":25460:25591   */\n      tag_350\n      jump\t// in\n    tag_606:\n        /* \"#utility.yul\":25452:25591   */\n      swap1\n      pop\n        /* \"#utility.yul\":25179:25598   */\n      swap2\n      swap1\n      pop\n      jump\t// out\n        /* \"#utility.yul\":25604:25830   */\n    tag_351:\n        /* \"#utility.yul\":25744:25778   */\n      0x4e6f207469656e657320737566696369656e74657320746f6b656e7320706172\n        /* \"#utility.yul\":25740:25741   */\n      0x00\n        /* \"#utility.yul\":25732:25738   */\n      dup3\n        /* \"#utility.yul\":25728:25742   */\n      add\n        /* \"#utility.yul\":25721:25779   */\n      mstore\n        /* \"#utility.yul\":25813:25822   */\n      0x6120706167617200000000000000000000000000000000000000000000000000\n        /* \"#utility.yul\":25808:25810   */\n      0x20\n        /* \"#utility.yul\":25800:25806   */\n      dup3\n        /* \"#utility.yul\":25796:25811   */\n      add\n        /* \"#utility.yul\":25789:25823   */\n      mstore\n        /* \"#utility.yul\":25604:25830   */\n      pop\n      jump\t// out\n        /* \"#utility.yul\":25836:26202   */\n    tag_352:\n        /* \"#utility.yul\":25978:25981   */\n      0x00\n        /* \"#utility.yul\":25999:26066   */\n      tag_609\n        /* \"#utility.yul\":26063:26065   */\n      0x27\n        /* \"#utility.yul\":26058:26061   */\n      dup4\n        /* \"#utility.yul\":25999:26066   */\n      tag_297\n      jump\t// in\n    tag_609:\n        /* \"#utility.yul\":25992:26066   */\n      swap2\n      pop\n        /* \"#utility.yul\":26075:26168   */\n      tag_610\n        /* \"#utility.yul\":26164:26167   */\n      dup3\n        /* \"#utility.yul\":26075:26168   */\n      tag_351\n      jump\t// in\n    tag_610:\n        /* \"#utility.yul\":26193:26195   */\n      0x40\n        /* \"#utility.yul\":26188:26191   */\n      dup3\n        /* \"#utility.yul\":26184:26196   */\n      add\n        /* \"#utility.yul\":26177:26196   */\n      swap1\n      pop\n        /* \"#utility.yul\":25836:26202   */\n      swap2\n      swap1\n      pop\n      jump\t// out\n        /* \"#utility.yul\":26208:26627   */\n    tag_237:\n        /* \"#utility.yul\":26374:26378   */\n      0x00\n        /* \"#utility.yul\":26412:26414   */\n      0x20\n        /* \"#utility.yul\":26401:26410   */\n      dup3\n        /* \"#utility.yul\":26397:26415   */\n      add\n        /* \"#utility.yul\":26389:26415   */\n      swap1\n      pop\n        /* \"#utility.yul\":26461:26470   */\n      dup2\n        /* \"#utility.yul\":26455:26459   */\n      dup2\n        /* \"#utility.yul\":26451:26471   */\n      sub\n        /* \"#utility.yul\":26447:26448   */\n      0x00\n        /* \"#utility.yul\":26436:26445   */\n      dup4\n        /* \"#utility.yul\":26432:26449   */\n      add\n        /* \"#utility.yul\":26425:26472   */\n      mstore\n        /* \"#utility.yul\":26489:26620   */\n      tag_612\n        /* \"#utility.yul\":26615:26619   */\n      dup2\n        /* \"#utility.yul\":26489:26620   */\n      tag_352\n      jump\t// in\n    tag_612:\n        /* \"#utility.yul\":26481:26620   */\n      swap1\n      pop\n        /* \"#utility.yul\":26208:26627   */\n      swap2\n      swap1\n      pop\n      jump\t// out\n        /* \"#utility.yul\":26633:26861   */\n    tag_353:\n        /* \"#utility.yul\":26773:26807   */\n      0x436f6d707261206d656e6f7320546f6b656e73206f207061676120636f6e206d\n        /* \"#utility.yul\":26769:26770   */\n      0x00\n        /* \"#utility.yul\":26761:26767   */\n      dup3\n        /* \"#utility.yul\":26757:26771   */\n      add\n        /* \"#utility.yul\":26750:26808   */\n      mstore\n        /* \"#utility.yul\":26842:26853   */\n      0x6173206574686572730000000000000000000000000000000000000000000000\n        /* \"#utility.yul\":26837:26839   */\n      0x20\n        /* \"#utility.yul\":26829:26835   */\n      dup3\n        /* \"#utility.yul\":26825:26840   */\n      add\n        /* \"#utility.yul\":26818:26854   */\n      mstore\n        /* \"#utility.yul\":26633:26861   */\n      pop\n      jump\t// out\n        /* \"#utility.yul\":26867:27233   */\n    tag_354:\n        /* \"#utility.yul\":27009:27012   */\n      0x00\n        /* \"#utility.yul\":27030:27097   */\n      tag_615\n        /* \"#utility.yul\":27094:27096   */\n      0x29\n        /* \"#utility.yul\":27089:27092   */\n      dup4\n        /* \"#utility.yul\":27030:27097   */\n      tag_297\n      jump\t// in\n    tag_615:\n        /* \"#utility.yul\":27023:27097   */\n      swap2\n      pop\n        /* \"#utility.yul\":27106:27199   */\n      tag_616\n        /* \"#utility.yul\":27195:27198   */\n      dup3\n        /* \"#utility.yul\":27106:27199   */\n      tag_353\n      jump\t// in\n    tag_616:\n        /* \"#utility.yul\":27224:27226   */\n      0x40\n        /* \"#utility.yul\":27219:27222   */\n      dup3\n        /* \"#utility.yul\":27215:27227   */\n      add\n        /* \"#utility.yul\":27208:27227   */\n      swap1\n      pop\n        /* \"#utility.yul\":26867:27233   */\n      swap2\n      swap1\n      pop\n      jump\t// out\n        /* \"#utility.yul\":27239:27658   */\n    tag_249:\n        /* \"#utility.yul\":27405:27409   */\n      0x00\n        /* \"#utility.yul\":27443:27445   */\n      0x20\n        /* \"#utility.yul\":27432:27441   */\n      dup3\n        /* \"#utility.yul\":27428:27446   */\n      add\n        /* \"#utility.yul\":27420:27446   */\n      swap1\n      pop\n        /* \"#utility.yul\":27492:27501   */\n      dup2\n        /* \"#utility.yul\":27486:27490   */\n      dup2\n        /* \"#utility.yul\":27482:27502   */\n      sub\n        /* \"#utility.yul\":27478:27479   */\n      0x00\n        /* \"#utility.yul\":27467:27476   */\n      dup4\n        /* \"#utility.yul\":27463:27480   */\n      add\n        /* \"#utility.yul\":27456:27503   */\n      mstore\n        /* \"#utility.yul\":27520:27651   */\n      tag_618\n        /* \"#utility.yul\":27646:27650   */\n      dup2\n        /* \"#utility.yul\":27520:27651   */\n      tag_354\n      jump\t// in\n    tag_618:\n        /* \"#utility.yul\":27512:27651   */\n      swap1\n      pop\n        /* \"#utility.yul\":27239:27658   */\n      swap2\n      swap1\n      pop\n      jump\t// out\n        /* \"#utility.yul\":27664:27844   */\n    tag_355:\n        /* \"#utility.yul\":27712:27789   */\n      0x4e487b7100000000000000000000000000000000000000000000000000000000\n        /* \"#utility.yul\":27709:27710   */\n      0x00\n        /* \"#utility.yul\":27702:27790   */\n      mstore\n        /* \"#utility.yul\":27809:27813   */\n      0x11\n        /* \"#utility.yul\":27806:27807   */\n      0x04\n        /* \"#utility.yul\":27799:27814   */\n      mstore\n        /* \"#utility.yul\":27833:27837   */\n      0x24\n        /* \"#utility.yul\":27830:27831   */\n      0x00\n        /* \"#utility.yul\":27823:27838   */\n      revert\n        /* \"#utility.yul\":27850:28044   */\n    tag_251:\n        /* \"#utility.yul\":27890:27894   */\n      0x00\n        /* \"#utility.yul\":27910:27930   */\n      tag_621\n        /* \"#utility.yul\":27928:27929   */\n      dup3\n        /* \"#utility.yul\":27910:27930   */\n      tag_293\n      jump\t// in\n    tag_621:\n        /* \"#utility.yul\":27905:27930   */\n      swap2\n      pop\n        /* \"#utility.yul\":27944:27964   */\n      tag_622\n        /* \"#utility.yul\":27962:27963   */\n      dup4\n        /* \"#utility.yul\":27944:27964   */\n      tag_293\n      jump\t// in\n    tag_622:\n        /* \"#utility.yul\":27939:27964   */\n      swap3\n      pop\n        /* \"#utility.yul\":27988:27989   */\n      dup3\n        /* \"#utility.yul\":27985:27986   */\n      dup3\n        /* \"#utility.yul\":27981:27990   */\n      sub\n        /* \"#utility.yul\":27973:27990   */\n      swap1\n      pop\n        /* \"#utility.yul\":28012:28013   */\n      dup2\n        /* \"#utility.yul\":28006:28010   */\n      dup2\n        /* \"#utility.yul\":28003:28014   */\n      gt\n        /* \"#utility.yul\":28000:28037   */\n      iszero\n      tag_623\n      jumpi\n        /* \"#utility.yul\":28017:28035   */\n      tag_624\n      tag_355\n      jump\t// in\n    tag_624:\n        /* \"#utility.yul\":28000:28037   */\n    tag_623:\n        /* \"#utility.yul\":27850:28044   */\n      swap3\n      swap2\n      pop\n      pop\n      jump\t// out\n        /* \"#utility.yul\":28050:28232   */\n    tag_356:\n        /* \"#utility.yul\":28190:28224   */\n      0x436f6d70726120756e206e756d65726f206d656e6f7220646520546f6b656e73\n        /* \"#utility.yul\":28186:28187   */\n      0x00\n        /* \"#utility.yul\":28178:28184   */\n      dup3\n        /* \"#utility.yul\":28174:28188   */\n      add\n        /* \"#utility.yul\":28167:28225   */\n      mstore\n        /* \"#utility.yul\":28050:28232   */\n      pop\n      jump\t// out\n        /* \"#utility.yul\":28238:28604   */\n    tag_357:\n        /* \"#utility.yul\":28380:28383   */\n      0x00\n        /* \"#utility.yul\":28401:28468   */\n      tag_627\n        /* \"#utility.yul\":28465:28467   */\n      0x20\n        /* \"#utility.yul\":28460:28463   */\n      dup4\n        /* \"#utility.yul\":28401:28468   */\n      tag_297\n      jump\t// in\n    tag_627:\n        /* \"#utility.yul\":28394:28468   */\n      swap2\n      pop\n        /* \"#utility.yul\":28477:28570   */\n      tag_628\n        /* \"#utility.yul\":28566:28569   */\n      dup3\n        /* \"#utility.yul\":28477:28570   */\n      tag_356\n      jump\t// in\n    tag_628:\n        /* \"#utility.yul\":28595:28597   */\n      0x20\n        /* \"#utility.yul\":28590:28593   */\n      dup3\n        /* \"#utility.yul\":28586:28598   */\n      add\n        /* \"#utility.yul\":28579:28598   */\n      swap1\n      pop\n        /* \"#utility.yul\":28238:28604   */\n      swap2\n      swap1\n      pop\n      jump\t// out\n        /* \"#utility.yul\":28610:29029   */\n    tag_260:\n        /* \"#utility.yul\":28776:28780   */\n      0x00\n        /* \"#utility.yul\":28814:28816   */\n      0x20\n        /* \"#utility.yul\":28803:28812   */\n      dup3\n        /* \"#utility.yul\":28799:28817   */\n      add\n        /* \"#utility.yul\":28791:28817   */\n      swap1\n      pop\n        /* \"#utility.yul\":28863:28872   */\n      dup2\n        /* \"#utility.yul\":28857:28861   */\n      dup2\n        /* \"#utility.yul\":28853:28873   */\n      sub\n        /* \"#utility.yul\":28849:28850   */\n      0x00\n        /* \"#utility.yul\":28838:28847   */\n      dup4\n        /* \"#utility.yul\":28834:28851   */\n      add\n        /* \"#utility.yul\":28827:28874   */\n      mstore\n        /* \"#utility.yul\":28891:29022   */\n      tag_630\n        /* \"#utility.yul\":29017:29021   */\n      dup2\n        /* \"#utility.yul\":28891:29022   */\n      tag_357\n      jump\t// in\n    tag_630:\n        /* \"#utility.yul\":28883:29022   */\n      swap1\n      pop\n        /* \"#utility.yul\":28610:29029   */\n      swap2\n      swap1\n      pop\n      jump\t// out\n        /* \"#utility.yul\":29035:29367   */\n    tag_262:\n        /* \"#utility.yul\":29156:29160   */\n      0x00\n        /* \"#utility.yul\":29194:29196   */\n      0x40\n        /* \"#utility.yul\":29183:29192   */\n      dup3\n        /* \"#utility.yul\":29179:29197   */\n      add\n        /* \"#utility.yul\":29171:29197   */\n      swap1\n      pop\n        /* \"#utility.yul\":29207:29278   */\n      tag_632\n        /* \"#utility.yul\":29275:29276   */\n      0x00\n        /* \"#utility.yul\":29264:29273   */\n      dup4\n        /* \"#utility.yul\":29260:29277   */\n      add\n        /* \"#utility.yul\":29251:29257   */\n      dup6\n        /* \"#utility.yul\":29207:29278   */\n      tag_337\n      jump\t// in\n    tag_632:\n        /* \"#utility.yul\":29288:29360   */\n      tag_633\n        /* \"#utility.yul\":29356:29358   */\n      0x20\n        /* \"#utility.yul\":29345:29354   */\n      dup4\n        /* \"#utility.yul\":29341:29359   */\n      add\n        /* \"#utility.yul\":29332:29338   */\n      dup5\n        /* \"#utility.yul\":29288:29360   */\n      tag_300\n      jump\t// in\n    tag_633:\n        /* \"#utility.yul\":29035:29367   */\n      swap4\n      swap3\n      pop\n      pop\n      pop\n      jump\t// out\n        /* \"#utility.yul\":29373:29564   */\n    tag_267:\n        /* \"#utility.yul\":29413:29416   */\n      0x00\n        /* \"#utility.yul\":29432:29452   */\n      tag_635\n        /* \"#utility.yul\":29450:29451   */\n      dup3\n        /* \"#utility.yul\":29432:29452   */\n      tag_293\n      jump\t// in\n    tag_635:\n        /* \"#utility.yul\":29427:29452   */\n      swap2\n      pop\n        /* \"#utility.yul\":29466:29486   */\n      tag_636\n        /* \"#utility.yul\":29484:29485   */\n      dup4\n        /* \"#utility.yul\":29466:29486   */\n      tag_293\n      jump\t// in\n    tag_636:\n        /* \"#utility.yul\":29461:29486   */\n      swap3\n      pop\n        /* \"#utility.yul\":29509:29510   */\n      dup3\n        /* \"#utility.yul\":29506:29507   */\n      dup3\n        /* \"#utility.yul\":29502:29511   */\n      add\n        /* \"#utility.yul\":29495:29511   */\n      swap1\n      pop\n        /* \"#utility.yul\":29530:29533   */\n      dup1\n        /* \"#utility.yul\":29527:29528   */\n      dup3\n        /* \"#utility.yul\":29524:29534   */\n      gt\n        /* \"#utility.yul\":29521:29557   */\n      iszero\n      tag_637\n      jumpi\n        /* \"#utility.yul\":29537:29555   */\n      tag_638\n      tag_355\n      jump\t// in\n    tag_638:\n        /* \"#utility.yul\":29521:29557   */\n    tag_637:\n        /* \"#utility.yul\":29373:29564   */\n      swap3\n      swap2\n      pop\n      pop\n      jump\t// out\n        /* \"#utility.yul\":29570:29980   */\n    tag_279:\n        /* \"#utility.yul\":29610:29617   */\n      0x00\n        /* \"#utility.yul\":29633:29653   */\n      tag_640\n        /* \"#utility.yul\":29651:29652   */\n      dup3\n        /* \"#utility.yul\":29633:29653   */\n      tag_293\n      jump\t// in\n    tag_640:\n        /* \"#utility.yul\":29628:29653   */\n      swap2\n      pop\n        /* \"#utility.yul\":29667:29687   */\n      tag_641\n        /* \"#utility.yul\":29685:29686   */\n      dup4\n        /* \"#utility.yul\":29667:29687   */\n      tag_293\n      jump\t// in\n    tag_641:\n        /* \"#utility.yul\":29662:29687   */\n      swap3\n      pop\n        /* \"#utility.yul\":29722:29723   */\n      dup3\n        /* \"#utility.yul\":29719:29720   */\n      dup3\n        /* \"#utility.yul\":29715:29724   */\n      mul\n        /* \"#utility.yul\":29744:29774   */\n      tag_642\n        /* \"#utility.yul\":29762:29773   */\n      dup2\n        /* \"#utility.yul\":29744:29774   */\n      tag_293\n      jump\t// in\n    tag_642:\n        /* \"#utility.yul\":29733:29774   */\n      swap2\n      pop\n        /* \"#utility.yul\":29923:29924   */\n      dup3\n        /* \"#utility.yul\":29914:29921   */\n      dup3\n        /* \"#utility.yul\":29910:29925   */\n      div\n        /* \"#utility.yul\":29907:29908   */\n      dup5\n        /* \"#utility.yul\":29904:29926   */\n      eq\n        /* \"#utility.yul\":29884:29885   */\n      dup4\n        /* \"#utility.yul\":29877:29886   */\n      iszero\n        /* \"#utility.yul\":29857:29940   */\n      or\n        /* \"#utility.yul\":29834:29973   */\n      tag_643\n      jumpi\n        /* \"#utility.yul\":29953:29971   */\n      tag_644\n      tag_355\n      jump\t// in\n    tag_644:\n        /* \"#utility.yul\":29834:29973   */\n    tag_643:\n        /* \"#utility.yul\":29618:29980   */\n      pop\n        /* \"#utility.yul\":29570:29980   */\n      swap3\n      swap2\n      pop\n      pop\n      jump\t// out\n\n    auxdata: 0xa2646970667358221220addb7c2fcfdfb5896bff92daaac1e9728a532d81553a5941e2cb32fec70dd3b164736f6c63430008120033\n}\n\nsub_1: assembly {\n        /* \"DISNEY/ERC20.sol\":1920:4860  contract ERC20Basic is IERC20 {... */\n      mstore(0x40, 0x80)\n        /* \"DISNEY/ERC20.sol\":2433:2561  constructor (uint _initialSupply) {... */\n      callvalue\n      dup1\n      iszero\n      tag_1\n      jumpi\n      0x00\n      dup1\n      revert\n    tag_1:\n      pop\n      mload(0x40)\n      sub(codesize, bytecodeSize)\n      dup1\n      bytecodeSize\n      dup4\n      codecopy\n      dup2\n      dup2\n      add\n      0x40\n      mstore\n      dup2\n      add\n      swap1\n      tag_2\n      swap2\n      swap1\n      tag_3\n      jump\t// in\n    tag_2:\n        /* \"DISNEY/ERC20.sol\":2493:2507  _initialSupply */\n      dup1\n        /* \"DISNEY/ERC20.sol\":2478:2490  totalSupply_ */\n      0x02\n        /* \"DISNEY/ERC20.sol\":2478:2507  totalSupply_ = _initialSupply */\n      dup2\n      swap1\n      sstore\n      pop\n        /* \"DISNEY/ERC20.sol\":2541:2553  totalSupply_ */\n      sload(0x02)\n        /* \"DISNEY/ERC20.sol\":2518:2526  balances */\n      0x00\n        /* \"DISNEY/ERC20.sol\":2518:2538  balances[msg.sender] */\n      dup1\n        /* \"DISNEY/ERC20.sol\":2527:2537  msg.sender */\n      caller\n        /* \"DISNEY/ERC20.sol\":2518:2538  balances[msg.sender] */\n      0xffffffffffffffffffffffffffffffffffffffff\n      and\n      0xffffffffffffffffffffffffffffffffffffffff\n      and\n      dup2\n      mstore\n      0x20\n      add\n      swap1\n      dup2\n      mstore\n      0x20\n      add\n      0x00\n      keccak256\n        /* \"DISNEY/ERC20.sol\":2518:2553  balances[msg.sender] = totalSupply_ */\n      dup2\n      swap1\n      sstore\n      pop\n        /* \"DISNEY/ERC20.sol\":2433:2561  constructor (uint _initialSupply) {... */\n      pop\n        /* \"DISNEY/ERC20.sol\":1920:4860  contract ERC20Basic is IERC20 {... */\n      jump(tag_6)\n        /* \"#utility.yul\":88:205   */\n    tag_8:\n        /* \"#utility.yul\":197:198   */\n      0x00\n        /* \"#utility.yul\":194:195   */\n      dup1\n        /* \"#utility.yul\":187:199   */\n      revert\n        /* \"#utility.yul\":334:411   */\n    tag_10:\n        /* \"#utility.yul\":371:378   */\n      0x00\n        /* \"#utility.yul\":400:405   */\n      dup2\n        /* \"#utility.yul\":389:405   */\n      swap1\n      pop\n        /* \"#utility.yul\":334:411   */\n      swap2\n      swap1\n      pop\n      jump\t// out\n        /* \"#utility.yul\":417:539   */\n    tag_11:\n        /* \"#utility.yul\":490:514   */\n      tag_19\n        /* \"#utility.yul\":508:513   */\n      dup2\n        /* \"#utility.yul\":490:514   */\n      tag_10\n      jump\t// in\n    tag_19:\n        /* \"#utility.yul\":483:488   */\n      dup2\n        /* \"#utility.yul\":480:515   */\n      eq\n        /* \"#utility.yul\":470:533   */\n      tag_20\n      jumpi\n        /* \"#utility.yul\":529:530   */\n      0x00\n        /* \"#utility.yul\":526:527   */\n      dup1\n        /* \"#utility.yul\":519:531   */\n      revert\n        /* \"#utility.yul\":470:533   */\n    tag_20:\n        /* \"#utility.yul\":417:539   */\n      pop\n      jump\t// out\n        /* \"#utility.yul\":545:688   */\n    tag_12:\n        /* \"#utility.yul\":602:607   */\n      0x00\n        /* \"#utility.yul\":633:639   */\n      dup2\n        /* \"#utility.yul\":627:640   */\n      mload\n        /* \"#utility.yul\":618:640   */\n      swap1\n      pop\n        /* \"#utility.yul\":649:682   */\n      tag_22\n        /* \"#utility.yul\":676:681   */\n      dup2\n        /* \"#utility.yul\":649:682   */\n      tag_11\n      jump\t// in\n    tag_22:\n        /* \"#utility.yul\":545:688   */\n      swap3\n      swap2\n      pop\n      pop\n      jump\t// out\n        /* \"#utility.yul\":694:1045   */\n    tag_3:\n        /* \"#utility.yul\":764:770   */\n      0x00\n        /* \"#utility.yul\":813:815   */\n      0x20\n        /* \"#utility.yul\":801:810   */\n      dup3\n        /* \"#utility.yul\":792:799   */\n      dup5\n        /* \"#utility.yul\":788:811   */\n      sub\n        /* \"#utility.yul\":784:816   */\n      slt\n        /* \"#utility.yul\":781:900   */\n      iszero\n      tag_24\n      jumpi\n        /* \"#utility.yul\":819:898   */\n      tag_25\n      tag_8\n      jump\t// in\n    tag_25:\n        /* \"#utility.yul\":781:900   */\n    tag_24:\n        /* \"#utility.yul\":939:940   */\n      0x00\n        /* \"#utility.yul\":964:1028   */\n      tag_26\n        /* \"#utility.yul\":1020:1027   */\n      dup5\n        /* \"#utility.yul\":1011:1017   */\n      dup3\n        /* \"#utility.yul\":1000:1009   */\n      dup6\n        /* \"#utility.yul\":996:1018   */\n      add\n        /* \"#utility.yul\":964:1028   */\n      tag_12\n      jump\t// in\n    tag_26:\n        /* \"#utility.yul\":954:1028   */\n      swap2\n      pop\n        /* \"#utility.yul\":910:1038   */\n      pop\n        /* \"#utility.yul\":694:1045   */\n      swap3\n      swap2\n      pop\n      pop\n      jump\t// out\n        /* \"DISNEY/ERC20.sol\":1920:4860  contract ERC20Basic is IERC20 {... */\n    tag_6:\n      dataSize(sub_0)\n      dup1\n      dataOffset(sub_0)\n      0x00\n      codecopy\n      0x00\n      return\n    stop\n\n    sub_0: assembly {\n            /* \"DISNEY/ERC20.sol\":1920:4860  contract ERC20Basic is IERC20 {... */\n          mstore(0x40, 0x80)\n          callvalue\n          dup1\n          iszero\n          tag_1\n          jumpi\n          0x00\n          dup1\n          revert\n        tag_1:\n          pop\n          jumpi(tag_2, lt(calldatasize, 0x04))\n          shr(0xe0, calldataload(0x00))\n          dup1\n          0x5e413c87\n          gt\n          tag_14\n          jumpi\n          dup1\n          0x5e413c87\n          eq\n          tag_8\n          jumpi\n          dup1\n          0x70a08231\n          eq\n          tag_9\n          jumpi\n          dup1\n          0xa3f4df7e\n          eq\n          tag_10\n          jumpi\n          dup1\n          0xa9059cbb\n          eq\n          tag_11\n          jumpi\n          dup1\n          0xdd62ed3e\n          eq\n          tag_12\n          jumpi\n          dup1\n          0xf76f8d78\n          eq\n          tag_13\n          jumpi\n          jump(tag_2)\n        tag_14:\n          dup1\n          0x095ea7b3\n          eq\n          tag_3\n          jumpi\n          dup1\n          0x18160ddd\n          eq\n          tag_4\n          jumpi\n          dup1\n          0x1d43cc98\n          eq\n          tag_5\n          jumpi\n          dup1\n          0x23b872dd\n          eq\n          tag_6\n          jumpi\n          dup1\n          0x2e0f2625\n          eq\n          tag_7\n          jumpi\n        tag_2:\n          0x00\n          dup1\n          revert\n            /* \"DISNEY/ERC20.sol\":4115:4341  function approve(address _delegate, uint _numTokens) public override returns(bool) {... */\n        tag_3:\n          tag_15\n          0x04\n          dup1\n          calldatasize\n          sub\n          dup2\n          add\n          swap1\n          tag_16\n          swap2\n          swap1\n          tag_17\n          jump\t// in\n        tag_16:\n          tag_18\n          jump\t// in\n        tag_15:\n          mload(0x40)\n          tag_19\n          swap2\n          swap1\n          tag_20\n          jump\t// in\n        tag_19:\n          mload(0x40)\n          dup1\n          swap2\n          sub\n          swap1\n          return\n            /* \"DISNEY/ERC20.sol\":2571:2667  function totalSupply() public override view returns(uint) {... */\n        tag_4:\n          tag_21\n          tag_22\n          jump\t// in\n        tag_21:\n          mload(0x40)\n          tag_23\n          swap2\n          swap1\n          tag_24\n          jump\t// in\n        tag_23:\n          mload(0x40)\n          dup1\n          swap2\n          sub\n          swap1\n          return\n            /* \"DISNEY/ERC20.sol\":2675:2833  function increaseTotalSupply(uint newTokensAmount) public {... */\n        tag_5:\n          tag_25\n          0x04\n          dup1\n          calldatasize\n          sub\n          dup2\n          add\n          swap1\n          tag_26\n          swap2\n          swap1\n          tag_27\n          jump\t// in\n        tag_26:\n          tag_28\n          jump\t// in\n        tag_25:\n          stop\n            /* \"DISNEY/ERC20.sol\":4349:4857  function transferFrom(address _owner, address _buyer, uint _numTokens) public override returns(bool) {... */\n        tag_6:\n          tag_29\n          0x04\n          dup1\n          calldatasize\n          sub\n          dup2\n          add\n          swap1\n          tag_30\n          swap2\n          swap1\n          tag_31\n          jump\t// in\n        tag_30:\n          tag_32\n          jump\t// in\n        tag_29:\n          mload(0x40)\n          tag_33\n          swap2\n          swap1\n          tag_20\n          jump\t// in\n        tag_33:\n          mload(0x40)\n          dup1\n          swap2\n          sub\n          swap1\n          return\n            /* \"DISNEY/ERC20.sol\":2059:2093  uint8 public constant DECIMALS = 2 */\n        tag_7:\n          tag_34\n          tag_35\n          jump\t// in\n        tag_34:\n          mload(0x40)\n          tag_36\n          swap2\n          swap1\n          tag_37\n          jump\t// in\n        tag_36:\n          mload(0x40)\n          dup1\n          swap2\n          sub\n          swap1\n          return\n            /* \"DISNEY/ERC20.sol\":3613:4107  function transferDisney(address _client, address _recipient, uint _numTokens) public override returns(bool) {... */\n        tag_8:\n          tag_38\n          0x04\n          dup1\n          calldatasize\n          sub\n          dup2\n          add\n          swap1\n          tag_39\n          swap2\n          swap1\n          tag_31\n          jump\t// in\n        tag_39:\n          tag_40\n          jump\t// in\n        tag_38:\n          mload(0x40)\n          tag_41\n          swap2\n          swap1\n          tag_20\n          jump\t// in\n        tag_41:\n          mload(0x40)\n          dup1\n          swap2\n          sub\n          swap1\n          return\n            /* \"DISNEY/ERC20.sol\":2841:2963  function balanceOf(address _tokenOwner) public override view returns(uint) {... */\n        tag_9:\n          tag_42\n          0x04\n          dup1\n          calldatasize\n          sub\n          dup2\n          add\n          swap1\n          tag_43\n          swap2\n          swap1\n          tag_44\n          jump\t// in\n        tag_43:\n          tag_45\n          jump\t// in\n        tag_42:\n          mload(0x40)\n          tag_46\n          swap2\n          swap1\n          tag_24\n          jump\t// in\n        tag_46:\n          mload(0x40)\n          dup1\n          swap2\n          sub\n          swap1\n          return\n            /* \"DISNEY/ERC20.sol\":1959:2008  string public constant NAME = \"ERC20BlockchainAZ\" */\n        tag_10:\n          tag_47\n          tag_48\n          jump\t// in\n        tag_47:\n          mload(0x40)\n          tag_49\n          swap2\n          swap1\n          tag_50\n          jump\t// in\n        tag_49:\n          mload(0x40)\n          dup1\n          swap2\n          sub\n          swap1\n          return\n            /* \"DISNEY/ERC20.sol\":3120:3605  function transfer(address _recipient, uint _numTokens) public override returns(bool) {... */\n        tag_11:\n          tag_51\n          0x04\n          dup1\n          calldatasize\n          sub\n          dup2\n          add\n          swap1\n          tag_52\n          swap2\n          swap1\n          tag_17\n          jump\t// in\n        tag_52:\n          tag_53\n          jump\t// in\n        tag_51:\n          mload(0x40)\n          tag_54\n          swap2\n          swap1\n          tag_20\n          jump\t// in\n        tag_54:\n          mload(0x40)\n          dup1\n          swap2\n          sub\n          swap1\n          return\n            /* \"DISNEY/ERC20.sol\":2971:3112  function allowance(address _owner, address _delegate) public override view returns(uint) {... */\n        tag_12:\n          tag_55\n          0x04\n          dup1\n          calldatasize\n          sub\n          dup2\n          add\n          swap1\n          tag_56\n          swap2\n          swap1\n          tag_57\n          jump\t// in\n        tag_56:\n          tag_58\n          jump\t// in\n        tag_55:\n          mload(0x40)\n          tag_59\n          swap2\n          swap1\n          tag_24\n          jump\t// in\n        tag_59:\n          mload(0x40)\n          dup1\n          swap2\n          sub\n          swap1\n          return\n            /* \"DISNEY/ERC20.sol\":2015:2052  string public constant SYMBOL = \"ERC\" */\n        tag_13:\n          tag_60\n          tag_61\n          jump\t// in\n        tag_60:\n          mload(0x40)\n          tag_62\n          swap2\n          swap1\n          tag_50\n          jump\t// in\n        tag_62:\n          mload(0x40)\n          dup1\n          swap2\n          sub\n          swap1\n          return\n            /* \"DISNEY/ERC20.sol\":4115:4341  function approve(address _delegate, uint _numTokens) public override returns(bool) {... */\n        tag_18:\n            /* \"DISNEY/ERC20.sol\":4192:4196  bool */\n          0x00\n            /* \"DISNEY/ERC20.sol\":4242:4252  _numTokens */\n          dup2\n            /* \"DISNEY/ERC20.sol\":4209:4216  allowed */\n          0x01\n            /* \"DISNEY/ERC20.sol\":4209:4228  allowed[msg.sender] */\n          0x00\n            /* \"DISNEY/ERC20.sol\":4217:4227  msg.sender */\n          caller\n            /* \"DISNEY/ERC20.sol\":4209:4228  allowed[msg.sender] */\n          0xffffffffffffffffffffffffffffffffffffffff\n          and\n          0xffffffffffffffffffffffffffffffffffffffff\n          and\n          dup2\n          mstore\n          0x20\n          add\n          swap1\n          dup2\n          mstore\n          0x20\n          add\n          0x00\n          keccak256\n            /* \"DISNEY/ERC20.sol\":4209:4239  allowed[msg.sender][_delegate] */\n          0x00\n            /* \"DISNEY/ERC20.sol\":4229:4238  _delegate */\n          dup6\n            /* \"DISNEY/ERC20.sol\":4209:4239  allowed[msg.sender][_delegate] */\n          0xffffffffffffffffffffffffffffffffffffffff\n          and\n          0xffffffffffffffffffffffffffffffffffffffff\n          and\n          dup2\n          mstore\n          0x20\n          add\n          swap1\n          dup2\n          mstore\n          0x20\n          add\n          0x00\n          keccak256\n            /* \"DISNEY/ERC20.sol\":4209:4252  allowed[msg.sender][_delegate] = _numTokens */\n          dup2\n          swap1\n          sstore\n          pop\n            /* \"DISNEY/ERC20.sol\":4289:4298  _delegate */\n          dup3\n            /* \"DISNEY/ERC20.sol\":4268:4311  Approval(msg.sender, _delegate, _numTokens) */\n          0xffffffffffffffffffffffffffffffffffffffff\n          and\n            /* \"DISNEY/ERC20.sol\":4277:4287  msg.sender */\n          caller\n            /* \"DISNEY/ERC20.sol\":4268:4311  Approval(msg.sender, _delegate, _numTokens) */\n          0xffffffffffffffffffffffffffffffffffffffff\n          and\n          0x8c5be1e5ebec7d5bd14f71427d1e84f3dd0314c0f7b2291e5b200ac8c7c3b925\n            /* \"DISNEY/ERC20.sol\":4300:4310  _numTokens */\n          dup5\n            /* \"DISNEY/ERC20.sol\":4268:4311  Approval(msg.sender, _delegate, _numTokens) */\n          mload(0x40)\n          tag_64\n          swap2\n          swap1\n          tag_24\n          jump\t// in\n        tag_64:\n          mload(0x40)\n          dup1\n          swap2\n          sub\n          swap1\n          log3\n            /* \"DISNEY/ERC20.sol\":4329:4333  true */\n          0x01\n            /* \"DISNEY/ERC20.sol\":4322:4333  return true */\n          swap1\n          pop\n            /* \"DISNEY/ERC20.sol\":4115:4341  function approve(address _delegate, uint _numTokens) public override returns(bool) {... */\n          swap3\n          swap2\n          pop\n          pop\n          jump\t// out\n            /* \"DISNEY/ERC20.sol\":2571:2667  function totalSupply() public override view returns(uint) {... */\n        tag_22:\n            /* \"DISNEY/ERC20.sol\":2623:2627  uint */\n          0x00\n            /* \"DISNEY/ERC20.sol\":2647:2659  totalSupply_ */\n          sload(0x02)\n            /* \"DISNEY/ERC20.sol\":2640:2659  return totalSupply_ */\n          swap1\n          pop\n            /* \"DISNEY/ERC20.sol\":2571:2667  function totalSupply() public override view returns(uint) {... */\n          swap1\n          jump\t// out\n            /* \"DISNEY/ERC20.sol\":2675:2833  function increaseTotalSupply(uint newTokensAmount) public {... */\n        tag_28:\n            /* \"DISNEY/ERC20.sol\":2760:2775  newTokensAmount */\n          dup1\n            /* \"DISNEY/ERC20.sol\":2744:2756  totalSupply_ */\n          0x02\n          0x00\n            /* \"DISNEY/ERC20.sol\":2744:2775  totalSupply_ += newTokensAmount */\n          dup3\n          dup3\n          sload\n          tag_67\n          swap2\n          swap1\n          tag_68\n          jump\t// in\n        tag_67:\n          swap3\n          pop\n          pop\n          dup2\n          swap1\n          sstore\n          pop\n            /* \"DISNEY/ERC20.sol\":2810:2825  newTokensAmount */\n          dup1\n            /* \"DISNEY/ERC20.sol\":2786:2794  balances */\n          0x00\n            /* \"DISNEY/ERC20.sol\":2786:2806  balances[msg.sender] */\n          dup1\n            /* \"DISNEY/ERC20.sol\":2795:2805  msg.sender */\n          caller\n            /* \"DISNEY/ERC20.sol\":2786:2806  balances[msg.sender] */\n          0xffffffffffffffffffffffffffffffffffffffff\n          and\n          0xffffffffffffffffffffffffffffffffffffffff\n          and\n          dup2\n          mstore\n          0x20\n          add\n          swap1\n          dup2\n          mstore\n          0x20\n          add\n          0x00\n          keccak256\n          0x00\n            /* \"DISNEY/ERC20.sol\":2786:2825  balances[msg.sender] += newTokensAmount */\n          dup3\n          dup3\n          sload\n          tag_69\n          swap2\n          swap1\n          tag_68\n          jump\t// in\n        tag_69:\n          swap3\n          pop\n          pop\n          dup2\n          swap1\n          sstore\n          pop\n            /* \"DISNEY/ERC20.sol\":2675:2833  function increaseTotalSupply(uint newTokensAmount) public {... */\n          pop\n          jump\t// out\n            /* \"DISNEY/ERC20.sol\":4349:4857  function transferFrom(address _owner, address _buyer, uint _numTokens) public override returns(bool) {... */\n        tag_32:\n            /* \"DISNEY/ERC20.sol\":4444:4448  bool */\n          0x00\n            /* \"DISNEY/ERC20.sol\":4483:4491  balances */\n          dup1\n            /* \"DISNEY/ERC20.sol\":4483:4499  balances[_owner] */\n          0x00\n            /* \"DISNEY/ERC20.sol\":4492:4498  _owner */\n          dup6\n            /* \"DISNEY/ERC20.sol\":4483:4499  balances[_owner] */\n          0xffffffffffffffffffffffffffffffffffffffff\n          and\n          0xffffffffffffffffffffffffffffffffffffffff\n          and\n          dup2\n          mstore\n          0x20\n          add\n          swap1\n          dup2\n          mstore\n          0x20\n          add\n          0x00\n          keccak256\n          sload\n            /* \"DISNEY/ERC20.sol\":4469:4479  _numTokens */\n          dup3\n            /* \"DISNEY/ERC20.sol\":4469:4499  _numTokens <= balances[_owner] */\n          gt\n          iszero\n            /* \"DISNEY/ERC20.sol\":4461:4500  require(_numTokens <= balances[_owner]) */\n          tag_71\n          jumpi\n          0x00\n          dup1\n          revert\n        tag_71:\n            /* \"DISNEY/ERC20.sol\":4533:4540  allowed */\n          0x01\n            /* \"DISNEY/ERC20.sol\":4533:4548  allowed[_owner] */\n          0x00\n            /* \"DISNEY/ERC20.sol\":4541:4547  _owner */\n          dup6\n            /* \"DISNEY/ERC20.sol\":4533:4548  allowed[_owner] */\n          0xffffffffffffffffffffffffffffffffffffffff\n          and\n          0xffffffffffffffffffffffffffffffffffffffff\n          and\n          dup2\n          mstore\n          0x20\n          add\n          swap1\n          dup2\n          mstore\n          0x20\n          add\n          0x00\n          keccak256\n            /* \"DISNEY/ERC20.sol\":4533:4560  allowed[_owner][msg.sender] */\n          0x00\n            /* \"DISNEY/ERC20.sol\":4549:4559  msg.sender */\n          caller\n            /* \"DISNEY/ERC20.sol\":4533:4560  allowed[_owner][msg.sender] */\n          0xffffffffffffffffffffffffffffffffffffffff\n          and\n          0xffffffffffffffffffffffffffffffffffffffff\n          and\n          dup2\n          mstore\n          0x20\n          add\n          swap1\n          dup2\n          mstore\n          0x20\n          add\n          0x00\n          keccak256\n          sload\n            /* \"DISNEY/ERC20.sol\":4519:4529  _numTokens */\n          dup3\n            /* \"DISNEY/ERC20.sol\":4519:4560  _numTokens <= allowed[_owner][msg.sender] */\n          gt\n          iszero\n            /* \"DISNEY/ERC20.sol\":4511:4561  require(_numTokens <= allowed[_owner][msg.sender]) */\n          tag_72\n          jumpi\n          0x00\n          dup1\n          revert\n        tag_72:\n            /* \"DISNEY/ERC20.sol\":4593:4625  balances[_owner].sub(_numTokens) */\n          tag_73\n            /* \"DISNEY/ERC20.sol\":4614:4624  _numTokens */\n          dup3\n            /* \"DISNEY/ERC20.sol\":4593:4601  balances */\n          0x00\n            /* \"DISNEY/ERC20.sol\":4593:4609  balances[_owner] */\n          dup1\n            /* \"DISNEY/ERC20.sol\":4602:4608  _owner */\n          dup8\n            /* \"DISNEY/ERC20.sol\":4593:4609  balances[_owner] */\n          0xffffffffffffffffffffffffffffffffffffffff\n          and\n          0xffffffffffffffffffffffffffffffffffffffff\n          and\n          dup2\n          mstore\n          0x20\n          add\n          swap1\n          dup2\n          mstore\n          0x20\n          add\n          0x00\n          keccak256\n          sload\n            /* \"DISNEY/ERC20.sol\":4593:4613  balances[_owner].sub */\n          tag_74\n          swap1\n            /* \"DISNEY/ERC20.sol\":4593:4625  balances[_owner].sub(_numTokens) */\n          swap2\n          swap1\n          0xffffffff\n          and\n          jump\t// in\n        tag_73:\n            /* \"DISNEY/ERC20.sol\":4574:4582  balances */\n          0x00\n            /* \"DISNEY/ERC20.sol\":4574:4590  balances[_owner] */\n          dup1\n            /* \"DISNEY/ERC20.sol\":4583:4589  _owner */\n          dup7\n            /* \"DISNEY/ERC20.sol\":4574:4590  balances[_owner] */\n          0xffffffffffffffffffffffffffffffffffffffff\n          and\n          0xffffffffffffffffffffffffffffffffffffffff\n          and\n          dup2\n          mstore\n          0x20\n          add\n          swap1\n          dup2\n          mstore\n          0x20\n          add\n          0x00\n          keccak256\n            /* \"DISNEY/ERC20.sol\":4574:4625  balances[_owner] = balances[_owner].sub(_numTokens) */\n          dup2\n          swap1\n          sstore\n          pop\n            /* \"DISNEY/ERC20.sol\":4666:4709  allowed[_owner][msg.sender].sub(_numTokens) */\n          tag_75\n            /* \"DISNEY/ERC20.sol\":4698:4708  _numTokens */\n          dup3\n            /* \"DISNEY/ERC20.sol\":4666:4673  allowed */\n          0x01\n            /* \"DISNEY/ERC20.sol\":4666:4681  allowed[_owner] */\n          0x00\n            /* \"DISNEY/ERC20.sol\":4674:4680  _owner */\n          dup8\n            /* \"DISNEY/ERC20.sol\":4666:4681  allowed[_owner] */\n          0xffffffffffffffffffffffffffffffffffffffff\n          and\n          0xffffffffffffffffffffffffffffffffffffffff\n          and\n          dup2\n          mstore\n          0x20\n          add\n          swap1\n          dup2\n          mstore\n          0x20\n          add\n          0x00\n          keccak256\n            /* \"DISNEY/ERC20.sol\":4666:4693  allowed[_owner][msg.sender] */\n          0x00\n            /* \"DISNEY/ERC20.sol\":4682:4692  msg.sender */\n          caller\n            /* \"DISNEY/ERC20.sol\":4666:4693  allowed[_owner][msg.sender] */\n          0xffffffffffffffffffffffffffffffffffffffff\n          and\n          0xffffffffffffffffffffffffffffffffffffffff\n          and\n          dup2\n          mstore\n          0x20\n          add\n          swap1\n          dup2\n          mstore\n          0x20\n          add\n          0x00\n          keccak256\n          sload\n            /* \"DISNEY/ERC20.sol\":4666:4697  allowed[_owner][msg.sender].sub */\n          tag_74\n          swap1\n            /* \"DISNEY/ERC20.sol\":4666:4709  allowed[_owner][msg.sender].sub(_numTokens) */\n          swap2\n          swap1\n          0xffffffff\n          and\n          jump\t// in\n        tag_75:\n            /* \"DISNEY/ERC20.sol\":4636:4643  allowed */\n          0x01\n            /* \"DISNEY/ERC20.sol\":4636:4651  allowed[_owner] */\n          0x00\n            /* \"DISNEY/ERC20.sol\":4644:4650  _owner */\n          dup7\n            /* \"DISNEY/ERC20.sol\":4636:4651  allowed[_owner] */\n          0xffffffffffffffffffffffffffffffffffffffff\n          and\n          0xffffffffffffffffffffffffffffffffffffffff\n          and\n          dup2\n          mstore\n          0x20\n          add\n          swap1\n          dup2\n          mstore\n          0x20\n          add\n          0x00\n          keccak256\n            /* \"DISNEY/ERC20.sol\":4636:4663  allowed[_owner][msg.sender] */\n          0x00\n            /* \"DISNEY/ERC20.sol\":4652:4662  msg.sender */\n          caller\n            /* \"DISNEY/ERC20.sol\":4636:4663  allowed[_owner][msg.sender] */\n          0xffffffffffffffffffffffffffffffffffffffff\n          and\n          0xffffffffffffffffffffffffffffffffffffffff\n          and\n          dup2\n          mstore\n          0x20\n          add\n          swap1\n          dup2\n          mstore\n          0x20\n          add\n          0x00\n          keccak256\n            /* \"DISNEY/ERC20.sol\":4636:4709  allowed[_owner][msg.sender] = allowed[_owner][msg.sender].sub(_numTokens) */\n          dup2\n          swap1\n          sstore\n          pop\n            /* \"DISNEY/ERC20.sol\":4739:4771  balances[_buyer].add(_numTokens) */\n          tag_76\n            /* \"DISNEY/ERC20.sol\":4760:4770  _numTokens */\n          dup3\n            /* \"DISNEY/ERC20.sol\":4739:4747  balances */\n          0x00\n            /* \"DISNEY/ERC20.sol\":4739:4755  balances[_buyer] */\n          dup1\n            /* \"DISNEY/ERC20.sol\":4748:4754  _buyer */\n          dup7\n            /* \"DISNEY/ERC20.sol\":4739:4755  balances[_buyer] */\n          0xffffffffffffffffffffffffffffffffffffffff\n          and\n          0xffffffffffffffffffffffffffffffffffffffff\n          and\n          dup2\n          mstore\n          0x20\n          add\n          swap1\n          dup2\n          mstore\n          0x20\n          add\n          0x00\n          keccak256\n          sload\n            /* \"DISNEY/ERC20.sol\":4739:4759  balances[_buyer].add */\n          tag_77\n          swap1\n            /* \"DISNEY/ERC20.sol\":4739:4771  balances[_buyer].add(_numTokens) */\n          swap2\n          swap1\n          0xffffffff\n          and\n          jump\t// in\n        tag_76:\n            /* \"DISNEY/ERC20.sol\":4720:4728  balances */\n          0x00\n            /* \"DISNEY/ERC20.sol\":4720:4736  balances[_buyer] */\n          dup1\n            /* \"DISNEY/ERC20.sol\":4729:4735  _buyer */\n          dup6\n            /* \"DISNEY/ERC20.sol\":4720:4736  balances[_buyer] */\n          0xffffffffffffffffffffffffffffffffffffffff\n          and\n          0xffffffffffffffffffffffffffffffffffffffff\n          and\n          dup2\n          mstore\n          0x20\n          add\n          swap1\n          dup2\n          mstore\n          0x20\n          add\n          0x00\n          keccak256\n            /* \"DISNEY/ERC20.sol\":4720:4771  balances[_buyer] = balances[_buyer].add(_numTokens) */\n          dup2\n          swap1\n          sstore\n          pop\n            /* \"DISNEY/ERC20.sol\":4806:4812  _buyer */\n          dup3\n            /* \"DISNEY/ERC20.sol\":4789:4825  Transfer(_owner, _buyer, _numTokens) */\n          0xffffffffffffffffffffffffffffffffffffffff\n          and\n            /* \"DISNEY/ERC20.sol\":4798:4804  _owner */\n          dup5\n            /* \"DISNEY/ERC20.sol\":4789:4825  Transfer(_owner, _buyer, _numTokens) */\n          0xffffffffffffffffffffffffffffffffffffffff\n          and\n          0xddf252ad1be2c89b69c2b068fc378daa952ba7f163c4a11628f55a4df523b3ef\n            /* \"DISNEY/ERC20.sol\":4814:4824  _numTokens */\n          dup5\n            /* \"DISNEY/ERC20.sol\":4789:4825  Transfer(_owner, _buyer, _numTokens) */\n          mload(0x40)\n          tag_78\n          swap2\n          swap1\n          tag_24\n          jump\t// in\n        tag_78:\n          mload(0x40)\n          dup1\n          swap2\n          sub\n          swap1\n          log3\n            /* \"DISNEY/ERC20.sol\":4845:4849  true */\n          0x01\n            /* \"DISNEY/ERC20.sol\":4838:4849  return true */\n          swap1\n          pop\n            /* \"DISNEY/ERC20.sol\":4349:4857  function transferFrom(address _owner, address _buyer, uint _numTokens) public override returns(bool) {... */\n          swap4\n          swap3\n          pop\n          pop\n          pop\n          jump\t// out\n            /* \"DISNEY/ERC20.sol\":2059:2093  uint8 public constant DECIMALS = 2 */\n        tag_35:\n            /* \"DISNEY/ERC20.sol\":2092:2093  2 */\n          0x02\n            /* \"DISNEY/ERC20.sol\":2059:2093  uint8 public constant DECIMALS = 2 */\n          dup2\n          jump\t// out\n            /* \"DISNEY/ERC20.sol\":3613:4107  function transferDisney(address _client, address _recipient, uint _numTokens) public override returns(bool) {... */\n        tag_40:\n            /* \"DISNEY/ERC20.sol\":3715:3719  bool */\n          0x00\n            /* \"DISNEY/ERC20.sol\":3754:3762  balances */\n          dup1\n            /* \"DISNEY/ERC20.sol\":3754:3771  balances[_client] */\n          0x00\n            /* \"DISNEY/ERC20.sol\":3763:3770  _client */\n          dup6\n            /* \"DISNEY/ERC20.sol\":3754:3771  balances[_client] */\n          0xffffffffffffffffffffffffffffffffffffffff\n          and\n          0xffffffffffffffffffffffffffffffffffffffff\n          and\n          dup2\n          mstore\n          0x20\n          add\n          swap1\n          dup2\n          mstore\n          0x20\n          add\n          0x00\n          keccak256\n          sload\n            /* \"DISNEY/ERC20.sol\":3740:3750  _numTokens */\n          dup3\n            /* \"DISNEY/ERC20.sol\":3740:3771  _numTokens <= balances[_client] */\n          gt\n          iszero\n            /* \"DISNEY/ERC20.sol\":3732:3772  require(_numTokens <= balances[_client]) */\n          tag_80\n          jumpi\n          0x00\n          dup1\n          revert\n        tag_80:\n            /* \"DISNEY/ERC20.sol\":3859:3892  balances[_client].sub(_numTokens) */\n          tag_81\n            /* \"DISNEY/ERC20.sol\":3881:3891  _numTokens */\n          dup3\n            /* \"DISNEY/ERC20.sol\":3859:3867  balances */\n          0x00\n            /* \"DISNEY/ERC20.sol\":3859:3876  balances[_client] */\n          dup1\n            /* \"DISNEY/ERC20.sol\":3868:3875  _client */\n          dup8\n            /* \"DISNEY/ERC20.sol\":3859:3876  balances[_client] */\n          0xffffffffffffffffffffffffffffffffffffffff\n          and\n          0xffffffffffffffffffffffffffffffffffffffff\n          and\n          dup2\n          mstore\n          0x20\n          add\n          swap1\n          dup2\n          mstore\n          0x20\n          add\n          0x00\n          keccak256\n          sload\n            /* \"DISNEY/ERC20.sol\":3859:3880  balances[_client].sub */\n          tag_74\n          swap1\n            /* \"DISNEY/ERC20.sol\":3859:3892  balances[_client].sub(_numTokens) */\n          swap2\n          swap1\n          0xffffffff\n          and\n          jump\t// in\n        tag_81:\n            /* \"DISNEY/ERC20.sol\":3839:3847  balances */\n          0x00\n            /* \"DISNEY/ERC20.sol\":3839:3856  balances[_client] */\n          dup1\n            /* \"DISNEY/ERC20.sol\":3848:3855  _client */\n          dup7\n            /* \"DISNEY/ERC20.sol\":3839:3856  balances[_client] */\n          0xffffffffffffffffffffffffffffffffffffffff\n          and\n          0xffffffffffffffffffffffffffffffffffffffff\n          and\n          dup2\n          mstore\n          0x20\n          add\n          swap1\n          dup2\n          mstore\n          0x20\n          add\n          0x00\n          keccak256\n            /* \"DISNEY/ERC20.sol\":3839:3892  balances[_client] = balances[_client].sub(_numTokens) */\n          dup2\n          swap1\n          sstore\n          pop\n            /* \"DISNEY/ERC20.sol\":3983:4016  balances[_client].add(_numTokens) */\n          tag_82\n            /* \"DISNEY/ERC20.sol\":4005:4015  _numTokens */\n          dup3\n            /* \"DISNEY/ERC20.sol\":3983:3991  balances */\n          0x00\n            /* \"DISNEY/ERC20.sol\":3983:4000  balances[_client] */\n          dup1\n            /* \"DISNEY/ERC20.sol\":3992:3999  _client */\n          dup8\n            /* \"DISNEY/ERC20.sol\":3983:4000  balances[_client] */\n          0xffffffffffffffffffffffffffffffffffffffff\n          and\n          0xffffffffffffffffffffffffffffffffffffffff\n          and\n          dup2\n          mstore\n          0x20\n          add\n          swap1\n          dup2\n          mstore\n          0x20\n          add\n          0x00\n          keccak256\n          sload\n            /* \"DISNEY/ERC20.sol\":3983:4004  balances[_client].add */\n          tag_77\n          swap1\n            /* \"DISNEY/ERC20.sol\":3983:4016  balances[_client].add(_numTokens) */\n          swap2\n          swap1\n          0xffffffff\n          and\n          jump\t// in\n        tag_82:\n            /* \"DISNEY/ERC20.sol\":3960:3968  balances */\n          0x00\n            /* \"DISNEY/ERC20.sol\":3960:3980  balances[_recipient] */\n          dup1\n            /* \"DISNEY/ERC20.sol\":3969:3979  _recipient */\n          dup6\n            /* \"DISNEY/ERC20.sol\":3960:3980  balances[_recipient] */\n          0xffffffffffffffffffffffffffffffffffffffff\n          and\n          0xffffffffffffffffffffffffffffffffffffffff\n          and\n          dup2\n          mstore\n          0x20\n          add\n          swap1\n          dup2\n          mstore\n          0x20\n          add\n          0x00\n          keccak256\n            /* \"DISNEY/ERC20.sol\":3960:4016  balances[_recipient] = balances[_client].add(_numTokens) */\n          dup2\n          swap1\n          sstore\n          pop\n            /* \"DISNEY/ERC20.sol\":4052:4062  _recipient */\n          dup3\n            /* \"DISNEY/ERC20.sol\":4034:4075  Transfer(_client, _recipient, _numTokens) */\n          0xffffffffffffffffffffffffffffffffffffffff\n          and\n            /* \"DISNEY/ERC20.sol\":4043:4050  _client */\n          dup5\n            /* \"DISNEY/ERC20.sol\":4034:4075  Transfer(_client, _recipient, _numTokens) */\n          0xffffffffffffffffffffffffffffffffffffffff\n          and\n          0xddf252ad1be2c89b69c2b068fc378daa952ba7f163c4a11628f55a4df523b3ef\n            /* \"DISNEY/ERC20.sol\":4064:4074  _numTokens */\n          dup5\n            /* \"DISNEY/ERC20.sol\":4034:4075  Transfer(_client, _recipient, _numTokens) */\n          mload(0x40)\n          tag_83\n          swap2\n          swap1\n          tag_24\n          jump\t// in\n        tag_83:\n          mload(0x40)\n          dup1\n          swap2\n          sub\n          swap1\n          log3\n            /* \"DISNEY/ERC20.sol\":4095:4099  true */\n          0x01\n            /* \"DISNEY/ERC20.sol\":4088:4099  return true */\n          swap1\n          pop\n            /* \"DISNEY/ERC20.sol\":3613:4107  function transferDisney(address _client, address _recipient, uint _numTokens) public override returns(bool) {... */\n          swap4\n          swap3\n          pop\n          pop\n          pop\n          jump\t// out\n            /* \"DISNEY/ERC20.sol\":2841:2963  function balanceOf(address _tokenOwner) public override view returns(uint) {... */\n        tag_45:\n            /* \"DISNEY/ERC20.sol\":2910:2914  uint */\n          0x00\n            /* \"DISNEY/ERC20.sol\":2934:2942  balances */\n          dup1\n            /* \"DISNEY/ERC20.sol\":2934:2955  balances[_tokenOwner] */\n          0x00\n            /* \"DISNEY/ERC20.sol\":2943:2954  _tokenOwner */\n          dup4\n            /* \"DISNEY/ERC20.sol\":2934:2955  balances[_tokenOwner] */\n          0xffffffffffffffffffffffffffffffffffffffff\n          and\n          0xffffffffffffffffffffffffffffffffffffffff\n          and\n          dup2\n          mstore\n          0x20\n          add\n          swap1\n          dup2\n          mstore\n          0x20\n          add\n          0x00\n          keccak256\n          sload\n            /* \"DISNEY/ERC20.sol\":2927:2955  return balances[_tokenOwner] */\n          swap1\n          pop\n            /* \"DISNEY/ERC20.sol\":2841:2963  function balanceOf(address _tokenOwner) public override view returns(uint) {... */\n          swap2\n          swap1\n          pop\n          jump\t// out\n            /* \"DISNEY/ERC20.sol\":1959:2008  string public constant NAME = \"ERC20BlockchainAZ\" */\n        tag_48:\n          mload(0x40)\n          dup1\n          0x40\n          add\n          0x40\n          mstore\n          dup1\n          0x11\n          dup2\n          mstore\n          0x20\n          add\n          0x4552433230426c6f636b636861696e415a000000000000000000000000000000\n          dup2\n          mstore\n          pop\n          dup2\n          jump\t// out\n            /* \"DISNEY/ERC20.sol\":3120:3605  function transfer(address _recipient, uint _numTokens) public override returns(bool) {... */\n        tag_53:\n            /* \"DISNEY/ERC20.sol\":3199:3203  bool */\n          0x00\n            /* \"DISNEY/ERC20.sol\":3238:3246  balances */\n          dup1\n            /* \"DISNEY/ERC20.sol\":3238:3258  balances[msg.sender] */\n          0x00\n            /* \"DISNEY/ERC20.sol\":3247:3257  msg.sender */\n          caller\n            /* \"DISNEY/ERC20.sol\":3238:3258  balances[msg.sender] */\n          0xffffffffffffffffffffffffffffffffffffffff\n          and\n          0xffffffffffffffffffffffffffffffffffffffff\n          and\n          dup2\n          mstore\n          0x20\n          add\n          swap1\n          dup2\n          mstore\n          0x20\n          add\n          0x00\n          keccak256\n          sload\n            /* \"DISNEY/ERC20.sol\":3224:3234  _numTokens */\n          dup3\n            /* \"DISNEY/ERC20.sol\":3224:3258  _numTokens <= balances[msg.sender] */\n          gt\n          iszero\n            /* \"DISNEY/ERC20.sol\":3216:3259  require(_numTokens <= balances[msg.sender]) */\n          tag_86\n          jumpi\n          0x00\n          dup1\n          revert\n        tag_86:\n            /* \"DISNEY/ERC20.sol\":3348:3384  balances[msg.sender].sub(_numTokens) */\n          tag_87\n            /* \"DISNEY/ERC20.sol\":3373:3383  _numTokens */\n          dup3\n            /* \"DISNEY/ERC20.sol\":3348:3356  balances */\n          0x00\n            /* \"DISNEY/ERC20.sol\":3348:3368  balances[msg.sender] */\n          dup1\n            /* \"DISNEY/ERC20.sol\":3357:3367  msg.sender */\n          caller\n            /* \"DISNEY/ERC20.sol\":3348:3368  balances[msg.sender] */\n          0xffffffffffffffffffffffffffffffffffffffff\n          and\n          0xffffffffffffffffffffffffffffffffffffffff\n          and\n          dup2\n          mstore\n          0x20\n          add\n          swap1\n          dup2\n          mstore\n          0x20\n          add\n          0x00\n          keccak256\n          sload\n            /* \"DISNEY/ERC20.sol\":3348:3372  balances[msg.sender].sub */\n          tag_74\n          swap1\n            /* \"DISNEY/ERC20.sol\":3348:3384  balances[msg.sender].sub(_numTokens) */\n          swap2\n          swap1\n          0xffffffff\n          and\n          jump\t// in\n        tag_87:\n            /* \"DISNEY/ERC20.sol\":3325:3333  balances */\n          0x00\n            /* \"DISNEY/ERC20.sol\":3325:3345  balances[msg.sender] */\n          dup1\n            /* \"DISNEY/ERC20.sol\":3334:3344  msg.sender */\n          caller\n            /* \"DISNEY/ERC20.sol\":3325:3345  balances[msg.sender] */\n          0xffffffffffffffffffffffffffffffffffffffff\n          and\n          0xffffffffffffffffffffffffffffffffffffffff\n          and\n          dup2\n          mstore\n          0x20\n          add\n          swap1\n          dup2\n          mstore\n          0x20\n          add\n          0x00\n          keccak256\n            /* \"DISNEY/ERC20.sol\":3325:3384  balances[msg.sender] = balances[msg.sender].sub(_numTokens) */\n          dup2\n          swap1\n          sstore\n          pop\n            /* \"DISNEY/ERC20.sol\":3475:3511  balances[_recipient].add(_numTokens) */\n          tag_88\n            /* \"DISNEY/ERC20.sol\":3500:3510  _numTokens */\n          dup3\n            /* \"DISNEY/ERC20.sol\":3475:3483  balances */\n          0x00\n            /* \"DISNEY/ERC20.sol\":3475:3495  balances[_recipient] */\n          dup1\n            /* \"DISNEY/ERC20.sol\":3484:3494  _recipient */\n          dup7\n            /* \"DISNEY/ERC20.sol\":3475:3495  balances[_recipient] */\n          0xffffffffffffffffffffffffffffffffffffffff\n          and\n          0xffffffffffffffffffffffffffffffffffffffff\n          and\n          dup2\n          mstore\n          0x20\n          add\n          swap1\n          dup2\n          mstore\n          0x20\n          add\n          0x00\n          keccak256\n          sload\n            /* \"DISNEY/ERC20.sol\":3475:3499  balances[_recipient].add */\n          tag_77\n          swap1\n            /* \"DISNEY/ERC20.sol\":3475:3511  balances[_recipient].add(_numTokens) */\n          swap2\n          swap1\n          0xffffffff\n          and\n          jump\t// in\n        tag_88:\n            /* \"DISNEY/ERC20.sol\":3452:3460  balances */\n          0x00\n            /* \"DISNEY/ERC20.sol\":3452:3472  balances[_recipient] */\n          dup1\n            /* \"DISNEY/ERC20.sol\":3461:3471  _recipient */\n          dup6\n            /* \"DISNEY/ERC20.sol\":3452:3472  balances[_recipient] */\n          0xffffffffffffffffffffffffffffffffffffffff\n          and\n          0xffffffffffffffffffffffffffffffffffffffff\n          and\n          dup2\n          mstore\n          0x20\n          add\n          swap1\n          dup2\n          mstore\n          0x20\n          add\n          0x00\n          keccak256\n            /* \"DISNEY/ERC20.sol\":3452:3511  balances[_recipient] = balances[_recipient].add(_numTokens) */\n          dup2\n          swap1\n          sstore\n          pop\n            /* \"DISNEY/ERC20.sol\":3550:3560  _recipient */\n          dup3\n            /* \"DISNEY/ERC20.sol\":3529:3573  Transfer(msg.sender, _recipient, _numTokens) */\n          0xffffffffffffffffffffffffffffffffffffffff\n          and\n            /* \"DISNEY/ERC20.sol\":3538:3548  msg.sender */\n          caller\n            /* \"DISNEY/ERC20.sol\":3529:3573  Transfer(msg.sender, _recipient, _numTokens) */\n          0xffffffffffffffffffffffffffffffffffffffff\n          and\n          0xddf252ad1be2c89b69c2b068fc378daa952ba7f163c4a11628f55a4df523b3ef\n            /* \"DISNEY/ERC20.sol\":3562:3572  _numTokens */\n          dup5\n            /* \"DISNEY/ERC20.sol\":3529:3573  Transfer(msg.sender, _recipient, _numTokens) */\n          mload(0x40)\n          tag_89\n          swap2\n          swap1\n          tag_24\n          jump\t// in\n        tag_89:\n          mload(0x40)\n          dup1\n          swap2\n          sub\n          swap1\n          log3\n            /* \"DISNEY/ERC20.sol\":3593:3597  true */\n          0x01\n            /* \"DISNEY/ERC20.sol\":3586:3597  return true */\n          swap1\n          pop\n            /* \"DISNEY/ERC20.sol\":3120:3605  function transfer(address _recipient, uint _numTokens) public override returns(bool) {... */\n          swap3\n          swap2\n          pop\n          pop\n          jump\t// out\n            /* \"DISNEY/ERC20.sol\":2971:3112  function allowance(address _owner, address _delegate) public override view returns(uint) {... */\n        tag_58:\n            /* \"DISNEY/ERC20.sol\":3054:3058  uint */\n          0x00\n            /* \"DISNEY/ERC20.sol\":3078:3085  allowed */\n          0x01\n            /* \"DISNEY/ERC20.sol\":3078:3093  allowed[_owner] */\n          0x00\n            /* \"DISNEY/ERC20.sol\":3086:3092  _owner */\n          dup5\n            /* \"DISNEY/ERC20.sol\":3078:3093  allowed[_owner] */\n          0xffffffffffffffffffffffffffffffffffffffff\n          and\n          0xffffffffffffffffffffffffffffffffffffffff\n          and\n          dup2\n          mstore\n          0x20\n          add\n          swap1\n          dup2\n          mstore\n          0x20\n          add\n          0x00\n          keccak256\n            /* \"DISNEY/ERC20.sol\":3078:3104  allowed[_owner][_delegate] */\n          0x00\n            /* \"DISNEY/ERC20.sol\":3094:3103  _delegate */\n          dup4\n            /* \"DISNEY/ERC20.sol\":3078:3104  allowed[_owner][_delegate] */\n          0xffffffffffffffffffffffffffffffffffffffff\n          and\n          0xffffffffffffffffffffffffffffffffffffffff\n          and\n          dup2\n          mstore\n          0x20\n          add\n          swap1\n          dup2\n          mstore\n          0x20\n          add\n          0x00\n          keccak256\n          sload\n            /* \"DISNEY/ERC20.sol\":3071:3104  return allowed[_owner][_delegate] */\n          swap1\n          pop\n            /* \"DISNEY/ERC20.sol\":2971:3112  function allowance(address _owner, address _delegate) public override view returns(uint) {... */\n          swap3\n          swap2\n          pop\n          pop\n          jump\t// out\n            /* \"DISNEY/ERC20.sol\":2015:2052  string public constant SYMBOL = \"ERC\" */\n        tag_61:\n          mload(0x40)\n          dup1\n          0x40\n          add\n          0x40\n          mstore\n          dup1\n          0x03\n          dup2\n          mstore\n          0x20\n          add\n          0x4552430000000000000000000000000000000000000000000000000000000000\n          dup2\n          mstore\n          pop\n          dup2\n          jump\t// out\n            /* \"DISNEY/SafeMath.sol\":319:438  function sub(uint256 a, uint256 b) internal pure returns (uint256) {... */\n        tag_74:\n            /* \"DISNEY/SafeMath.sol\":377:384  uint256 */\n          0x00\n            /* \"DISNEY/SafeMath.sol\":407:408  a */\n          dup3\n            /* \"DISNEY/SafeMath.sol\":402:403  b */\n          dup3\n            /* \"DISNEY/SafeMath.sol\":402:408  b <= a */\n          gt\n          iszero\n            /* \"DISNEY/SafeMath.sol\":395:409  assert(b <= a) */\n          tag_92\n          jumpi\n          tag_93\n          tag_94\n          jump\t// in\n        tag_93:\n        tag_92:\n            /* \"DISNEY/SafeMath.sol\":429:430  b */\n          dup2\n            /* \"DISNEY/SafeMath.sol\":425:426  a */\n          dup4\n            /* \"DISNEY/SafeMath.sol\":425:430  a - b */\n          tag_95\n          swap2\n          swap1\n          tag_96\n          jump\t// in\n        tag_95:\n            /* \"DISNEY/SafeMath.sol\":418:430  return a - b */\n          swap1\n          pop\n            /* \"DISNEY/SafeMath.sol\":319:438  function sub(uint256 a, uint256 b) internal pure returns (uint256) {... */\n          swap3\n          swap2\n          pop\n          pop\n          jump\t// out\n            /* \"DISNEY/SafeMath.sol\":464:605  function add(uint256 a, uint256 b) internal pure returns (uint256) {... */\n        tag_77:\n            /* \"DISNEY/SafeMath.sol\":522:529  uint256 */\n          0x00\n            /* \"DISNEY/SafeMath.sol\":540:549  uint256 c */\n          dup1\n            /* \"DISNEY/SafeMath.sol\":556:557  b */\n          dup3\n            /* \"DISNEY/SafeMath.sol\":552:553  a */\n          dup5\n            /* \"DISNEY/SafeMath.sol\":552:557  a + b */\n          tag_98\n          swap2\n          swap1\n          tag_68\n          jump\t// in\n        tag_98:\n            /* \"DISNEY/SafeMath.sol\":540:557  uint256 c = a + b */\n          swap1\n          pop\n            /* \"DISNEY/SafeMath.sol\":578:579  a */\n          dup4\n            /* \"DISNEY/SafeMath.sol\":573:574  c */\n          dup2\n            /* \"DISNEY/SafeMath.sol\":573:579  c >= a */\n          lt\n          iszero\n            /* \"DISNEY/SafeMath.sol\":566:580  assert(c >= a) */\n          tag_99\n          jumpi\n          tag_100\n          tag_94\n          jump\t// in\n        tag_100:\n        tag_99:\n            /* \"DISNEY/SafeMath.sol\":596:597  c */\n          dup1\n            /* \"DISNEY/SafeMath.sol\":589:597  return c */\n          swap2\n          pop\n          pop\n            /* \"DISNEY/SafeMath.sol\":464:605  function add(uint256 a, uint256 b) internal pure returns (uint256) {... */\n          swap3\n          swap2\n          pop\n          pop\n          jump\t// out\n            /* \"#utility.yul\":88:205   */\n        tag_102:\n            /* \"#utility.yul\":197:198   */\n          0x00\n            /* \"#utility.yul\":194:195   */\n          dup1\n            /* \"#utility.yul\":187:199   */\n          revert\n            /* \"#utility.yul\":334:460   */\n        tag_104:\n            /* \"#utility.yul\":371:378   */\n          0x00\n            /* \"#utility.yul\":411:453   */\n          0xffffffffffffffffffffffffffffffffffffffff\n            /* \"#utility.yul\":404:409   */\n          dup3\n            /* \"#utility.yul\":400:454   */\n          and\n            /* \"#utility.yul\":389:454   */\n          swap1\n          pop\n            /* \"#utility.yul\":334:460   */\n          swap2\n          swap1\n          pop\n          jump\t// out\n            /* \"#utility.yul\":466:562   */\n        tag_105:\n            /* \"#utility.yul\":503:510   */\n          0x00\n            /* \"#utility.yul\":532:556   */\n          tag_128\n            /* \"#utility.yul\":550:555   */\n          dup3\n            /* \"#utility.yul\":532:556   */\n          tag_104\n          jump\t// in\n        tag_128:\n            /* \"#utility.yul\":521:556   */\n          swap1\n          pop\n            /* \"#utility.yul\":466:562   */\n          swap2\n          swap1\n          pop\n          jump\t// out\n            /* \"#utility.yul\":568:690   */\n        tag_106:\n            /* \"#utility.yul\":641:665   */\n          tag_130\n            /* \"#utility.yul\":659:664   */\n          dup2\n            /* \"#utility.yul\":641:665   */\n          tag_105\n          jump\t// in\n        tag_130:\n            /* \"#utility.yul\":634:639   */\n          dup2\n            /* \"#utility.yul\":631:666   */\n          eq\n            /* \"#utility.yul\":621:684   */\n          tag_131\n          jumpi\n            /* \"#utility.yul\":680:681   */\n          0x00\n            /* \"#utility.yul\":677:678   */\n          dup1\n            /* \"#utility.yul\":670:682   */\n          revert\n            /* \"#utility.yul\":621:684   */\n        tag_131:\n            /* \"#utility.yul\":568:690   */\n          pop\n          jump\t// out\n            /* \"#utility.yul\":696:835   */\n        tag_107:\n            /* \"#utility.yul\":742:747   */\n          0x00\n            /* \"#utility.yul\":780:786   */\n          dup2\n            /* \"#utility.yul\":767:787   */\n          calldataload\n            /* \"#utility.yul\":758:787   */\n          swap1\n          pop\n            /* \"#utility.yul\":796:829   */\n          tag_133\n            /* \"#utility.yul\":823:828   */\n          dup2\n            /* \"#utility.yul\":796:829   */\n          tag_106\n          jump\t// in\n        tag_133:\n            /* \"#utility.yul\":696:835   */\n          swap3\n          swap2\n          pop\n          pop\n          jump\t// out\n            /* \"#utility.yul\":841:918   */\n        tag_108:\n            /* \"#utility.yul\":878:885   */\n          0x00\n            /* \"#utility.yul\":907:912   */\n          dup2\n            /* \"#utility.yul\":896:912   */\n          swap1\n          pop\n            /* \"#utility.yul\":841:918   */\n          swap2\n          swap1\n          pop\n          jump\t// out\n            /* \"#utility.yul\":924:1046   */\n        tag_109:\n            /* \"#utility.yul\":997:1021   */\n          tag_136\n            /* \"#utility.yul\":1015:1020   */\n          dup2\n            /* \"#utility.yul\":997:1021   */\n          tag_108\n          jump\t// in\n        tag_136:\n            /* \"#utility.yul\":990:995   */\n          dup2\n            /* \"#utility.yul\":987:1022   */\n          eq\n            /* \"#utility.yul\":977:1040   */\n          tag_137\n          jumpi\n            /* \"#utility.yul\":1036:1037   */\n          0x00\n            /* \"#utility.yul\":1033:1034   */\n          dup1\n            /* \"#utility.yul\":1026:1038   */\n          revert\n            /* \"#utility.yul\":977:1040   */\n        tag_137:\n            /* \"#utility.yul\":924:1046   */\n          pop\n          jump\t// out\n            /* \"#utility.yul\":1052:1191   */\n        tag_110:\n            /* \"#utility.yul\":1098:1103   */\n          0x00\n            /* \"#utility.yul\":1136:1142   */\n          dup2\n            /* \"#utility.yul\":1123:1143   */\n          calldataload\n            /* \"#utility.yul\":1114:1143   */\n          swap1\n          pop\n            /* \"#utility.yul\":1152:1185   */\n          tag_139\n            /* \"#utility.yul\":1179:1184   */\n          dup2\n            /* \"#utility.yul\":1152:1185   */\n          tag_109\n          jump\t// in\n        tag_139:\n            /* \"#utility.yul\":1052:1191   */\n          swap3\n          swap2\n          pop\n          pop\n          jump\t// out\n            /* \"#utility.yul\":1197:1671   */\n        tag_17:\n            /* \"#utility.yul\":1265:1271   */\n          0x00\n            /* \"#utility.yul\":1273:1279   */\n          dup1\n            /* \"#utility.yul\":1322:1324   */\n          0x40\n            /* \"#utility.yul\":1310:1319   */\n          dup4\n            /* \"#utility.yul\":1301:1308   */\n          dup6\n            /* \"#utility.yul\":1297:1320   */\n          sub\n            /* \"#utility.yul\":1293:1325   */\n          slt\n            /* \"#utility.yul\":1290:1409   */\n          iszero\n          tag_141\n          jumpi\n            /* \"#utility.yul\":1328:1407   */\n          tag_142\n          tag_102\n          jump\t// in\n        tag_142:\n            /* \"#utility.yul\":1290:1409   */\n        tag_141:\n            /* \"#utility.yul\":1448:1449   */\n          0x00\n            /* \"#utility.yul\":1473:1526   */\n          tag_143\n            /* \"#utility.yul\":1518:1525   */\n          dup6\n            /* \"#utility.yul\":1509:1515   */\n          dup3\n            /* \"#utility.yul\":1498:1507   */\n          dup7\n            /* \"#utility.yul\":1494:1516   */\n          add\n            /* \"#utility.yul\":1473:1526   */\n          tag_107\n          jump\t// in\n        tag_143:\n            /* \"#utility.yul\":1463:1526   */\n          swap3\n          pop\n            /* \"#utility.yul\":1419:1536   */\n          pop\n            /* \"#utility.yul\":1575:1577   */\n          0x20\n            /* \"#utility.yul\":1601:1654   */\n          tag_144\n            /* \"#utility.yul\":1646:1653   */\n          dup6\n            /* \"#utility.yul\":1637:1643   */\n          dup3\n            /* \"#utility.yul\":1626:1635   */\n          dup7\n            /* \"#utility.yul\":1622:1644   */\n          add\n            /* \"#utility.yul\":1601:1654   */\n          tag_110\n          jump\t// in\n        tag_144:\n            /* \"#utility.yul\":1591:1654   */\n          swap2\n          pop\n            /* \"#utility.yul\":1546:1664   */\n          pop\n            /* \"#utility.yul\":1197:1671   */\n          swap3\n          pop\n          swap3\n          swap1\n          pop\n          jump\t// out\n            /* \"#utility.yul\":1677:1767   */\n        tag_111:\n            /* \"#utility.yul\":1711:1718   */\n          0x00\n            /* \"#utility.yul\":1754:1759   */\n          dup2\n            /* \"#utility.yul\":1747:1760   */\n          iszero\n            /* \"#utility.yul\":1740:1761   */\n          iszero\n            /* \"#utility.yul\":1729:1761   */\n          swap1\n          pop\n            /* \"#utility.yul\":1677:1767   */\n          swap2\n          swap1\n          pop\n          jump\t// out\n            /* \"#utility.yul\":1773:1882   */\n        tag_112:\n            /* \"#utility.yul\":1854:1875   */\n          tag_147\n            /* \"#utility.yul\":1869:1874   */\n          dup2\n            /* \"#utility.yul\":1854:1875   */\n          tag_111\n          jump\t// in\n        tag_147:\n            /* \"#utility.yul\":1849:1852   */\n          dup3\n            /* \"#utility.yul\":1842:1876   */\n          mstore\n            /* \"#utility.yul\":1773:1882   */\n          pop\n          pop\n          jump\t// out\n            /* \"#utility.yul\":1888:2098   */\n        tag_20:\n            /* \"#utility.yul\":1975:1979   */\n          0x00\n            /* \"#utility.yul\":2013:2015   */\n          0x20\n            /* \"#utility.yul\":2002:2011   */\n          dup3\n            /* \"#utility.yul\":1998:2016   */\n          add\n            /* \"#utility.yul\":1990:2016   */\n          swap1\n          pop\n            /* \"#utility.yul\":2026:2091   */\n          tag_149\n            /* \"#utility.yul\":2088:2089   */\n          0x00\n            /* \"#utility.yul\":2077:2086   */\n          dup4\n            /* \"#utility.yul\":2073:2090   */\n          add\n            /* \"#utility.yul\":2064:2070   */\n          dup5\n            /* \"#utility.yul\":2026:2091   */\n          tag_112\n          jump\t// in\n        tag_149:\n            /* \"#utility.yul\":1888:2098   */\n          swap3\n          swap2\n          pop\n          pop\n          jump\t// out\n            /* \"#utility.yul\":2104:2222   */\n        tag_113:\n            /* \"#utility.yul\":2191:2215   */\n          tag_151\n            /* \"#utility.yul\":2209:2214   */\n          dup2\n            /* \"#utility.yul\":2191:2215   */\n          tag_108\n          jump\t// in\n        tag_151:\n            /* \"#utility.yul\":2186:2189   */\n          dup3\n            /* \"#utility.yul\":2179:2216   */\n          mstore\n            /* \"#utility.yul\":2104:2222   */\n          pop\n          pop\n          jump\t// out\n            /* \"#utility.yul\":2228:2450   */\n        tag_24:\n            /* \"#utility.yul\":2321:2325   */\n          0x00\n            /* \"#utility.yul\":2359:2361   */\n          0x20\n            /* \"#utility.yul\":2348:2357   */\n          dup3\n            /* \"#utility.yul\":2344:2362   */\n          add\n            /* \"#utility.yul\":2336:2362   */\n          swap1\n          pop\n            /* \"#utility.yul\":2372:2443   */\n          tag_153\n            /* \"#utility.yul\":2440:2441   */\n          0x00\n            /* \"#utility.yul\":2429:2438   */\n          dup4\n            /* \"#utility.yul\":2425:2442   */\n          add\n            /* \"#utility.yul\":2416:2422   */\n          dup5\n            /* \"#utility.yul\":2372:2443   */\n          tag_113\n          jump\t// in\n        tag_153:\n            /* \"#utility.yul\":2228:2450   */\n          swap3\n          swap2\n          pop\n          pop\n          jump\t// out\n            /* \"#utility.yul\":2456:2785   */\n        tag_27:\n            /* \"#utility.yul\":2515:2521   */\n          0x00\n            /* \"#utility.yul\":2564:2566   */\n          0x20\n            /* \"#utility.yul\":2552:2561   */\n          dup3\n            /* \"#utility.yul\":2543:2550   */\n          dup5\n            /* \"#utility.yul\":2539:2562   */\n          sub\n            /* \"#utility.yul\":2535:2567   */\n          slt\n            /* \"#utility.yul\":2532:2651   */\n          iszero\n          tag_155\n          jumpi\n            /* \"#utility.yul\":2570:2649   */\n          tag_156\n          tag_102\n          jump\t// in\n        tag_156:\n            /* \"#utility.yul\":2532:2651   */\n        tag_155:\n            /* \"#utility.yul\":2690:2691   */\n          0x00\n            /* \"#utility.yul\":2715:2768   */\n          tag_157\n            /* \"#utility.yul\":2760:2767   */\n          dup5\n            /* \"#utility.yul\":2751:2757   */\n          dup3\n            /* \"#utility.yul\":2740:2749   */\n          dup6\n            /* \"#utility.yul\":2736:2758   */\n          add\n            /* \"#utility.yul\":2715:2768   */\n          tag_110\n          jump\t// in\n        tag_157:\n            /* \"#utility.yul\":2705:2768   */\n          swap2\n          pop\n            /* \"#utility.yul\":2661:2778   */\n          pop\n            /* \"#utility.yul\":2456:2785   */\n          swap3\n          swap2\n          pop\n          pop\n          jump\t// out\n            /* \"#utility.yul\":2791:3410   */\n        tag_31:\n            /* \"#utility.yul\":2868:2874   */\n          0x00\n            /* \"#utility.yul\":2876:2882   */\n          dup1\n            /* \"#utility.yul\":2884:2890   */\n          0x00\n            /* \"#utility.yul\":2933:2935   */\n          0x60\n            /* \"#utility.yul\":2921:2930   */\n          dup5\n            /* \"#utility.yul\":2912:2919   */\n          dup7\n            /* \"#utility.yul\":2908:2931   */\n          sub\n            /* \"#utility.yul\":2904:2936   */\n          slt\n            /* \"#utility.yul\":2901:3020   */\n          iszero\n          tag_159\n          jumpi\n            /* \"#utility.yul\":2939:3018   */\n          tag_160\n          tag_102\n          jump\t// in\n        tag_160:\n            /* \"#utility.yul\":2901:3020   */\n        tag_159:\n            /* \"#utility.yul\":3059:3060   */\n          0x00\n            /* \"#utility.yul\":3084:3137   */\n          tag_161\n            /* \"#utility.yul\":3129:3136   */\n          dup7\n            /* \"#utility.yul\":3120:3126   */\n          dup3\n            /* \"#utility.yul\":3109:3118   */\n          dup8\n            /* \"#utility.yul\":3105:3127   */\n          add\n            /* \"#utility.yul\":3084:3137   */\n          tag_107\n          jump\t// in\n        tag_161:\n            /* \"#utility.yul\":3074:3137   */\n          swap4\n          pop\n            /* \"#utility.yul\":3030:3147   */\n          pop\n            /* \"#utility.yul\":3186:3188   */\n          0x20\n            /* \"#utility.yul\":3212:3265   */\n          tag_162\n            /* \"#utility.yul\":3257:3264   */\n          dup7\n            /* \"#utility.yul\":3248:3254   */\n          dup3\n            /* \"#utility.yul\":3237:3246   */\n          dup8\n            /* \"#utility.yul\":3233:3255   */\n          add\n            /* \"#utility.yul\":3212:3265   */\n          tag_107\n          jump\t// in\n        tag_162:\n            /* \"#utility.yul\":3202:3265   */\n          swap3\n          pop\n            /* \"#utility.yul\":3157:3275   */\n          pop\n            /* \"#utility.yul\":3314:3316   */\n          0x40\n            /* \"#utility.yul\":3340:3393   */\n          tag_163\n            /* \"#utility.yul\":3385:3392   */\n          dup7\n            /* \"#utility.yul\":3376:3382   */\n          dup3\n            /* \"#utility.yul\":3365:3374   */\n          dup8\n            /* \"#utility.yul\":3361:3383   */\n          add\n            /* \"#utility.yul\":3340:3393   */\n          tag_110\n          jump\t// in\n        tag_163:\n            /* \"#utility.yul\":3330:3393   */\n          swap2\n          pop\n            /* \"#utility.yul\":3285:3403   */\n          pop\n            /* \"#utility.yul\":2791:3410   */\n          swap3\n          pop\n          swap3\n          pop\n          swap3\n          jump\t// out\n            /* \"#utility.yul\":3416:3502   */\n        tag_114:\n            /* \"#utility.yul\":3451:3458   */\n          0x00\n            /* \"#utility.yul\":3491:3495   */\n          0xff\n            /* \"#utility.yul\":3484:3489   */\n          dup3\n            /* \"#utility.yul\":3480:3496   */\n          and\n            /* \"#utility.yul\":3469:3496   */\n          swap1\n          pop\n            /* \"#utility.yul\":3416:3502   */\n          swap2\n          swap1\n          pop\n          jump\t// out\n            /* \"#utility.yul\":3508:3620   */\n        tag_115:\n            /* \"#utility.yul\":3591:3613   */\n          tag_166\n            /* \"#utility.yul\":3607:3612   */\n          dup2\n            /* \"#utility.yul\":3591:3613   */\n          tag_114\n          jump\t// in\n        tag_166:\n            /* \"#utility.yul\":3586:3589   */\n          dup3\n            /* \"#utility.yul\":3579:3614   */\n          mstore\n            /* \"#utility.yul\":3508:3620   */\n          pop\n          pop\n          jump\t// out\n            /* \"#utility.yul\":3626:3840   */\n        tag_37:\n            /* \"#utility.yul\":3715:3719   */\n          0x00\n            /* \"#utility.yul\":3753:3755   */\n          0x20\n            /* \"#utility.yul\":3742:3751   */\n          dup3\n            /* \"#utility.yul\":3738:3756   */\n          add\n            /* \"#utility.yul\":3730:3756   */\n          swap1\n          pop\n            /* \"#utility.yul\":3766:3833   */\n          tag_168\n            /* \"#utility.yul\":3830:3831   */\n          0x00\n            /* \"#utility.yul\":3819:3828   */\n          dup4\n            /* \"#utility.yul\":3815:3832   */\n          add\n            /* \"#utility.yul\":3806:3812   */\n          dup5\n            /* \"#utility.yul\":3766:3833   */\n          tag_115\n          jump\t// in\n        tag_168:\n            /* \"#utility.yul\":3626:3840   */\n          swap3\n          swap2\n          pop\n          pop\n          jump\t// out\n            /* \"#utility.yul\":3846:4175   */\n        tag_44:\n            /* \"#utility.yul\":3905:3911   */\n          0x00\n            /* \"#utility.yul\":3954:3956   */\n          0x20\n            /* \"#utility.yul\":3942:3951   */\n          dup3\n            /* \"#utility.yul\":3933:3940   */\n          dup5\n            /* \"#utility.yul\":3929:3952   */\n          sub\n            /* \"#utility.yul\":3925:3957   */\n          slt\n            /* \"#utility.yul\":3922:4041   */\n          iszero\n          tag_170\n          jumpi\n            /* \"#utility.yul\":3960:4039   */\n          tag_171\n          tag_102\n          jump\t// in\n        tag_171:\n            /* \"#utility.yul\":3922:4041   */\n        tag_170:\n            /* \"#utility.yul\":4080:4081   */\n          0x00\n            /* \"#utility.yul\":4105:4158   */\n          tag_172\n            /* \"#utility.yul\":4150:4157   */\n          dup5\n            /* \"#utility.yul\":4141:4147   */\n          dup3\n            /* \"#utility.yul\":4130:4139   */\n          dup6\n            /* \"#utility.yul\":4126:4148   */\n          add\n            /* \"#utility.yul\":4105:4158   */\n          tag_107\n          jump\t// in\n        tag_172:\n            /* \"#utility.yul\":4095:4158   */\n          swap2\n          pop\n            /* \"#utility.yul\":4051:4168   */\n          pop\n            /* \"#utility.yul\":3846:4175   */\n          swap3\n          swap2\n          pop\n          pop\n          jump\t// out\n            /* \"#utility.yul\":4181:4280   */\n        tag_116:\n            /* \"#utility.yul\":4233:4239   */\n          0x00\n            /* \"#utility.yul\":4267:4272   */\n          dup2\n            /* \"#utility.yul\":4261:4273   */\n          mload\n            /* \"#utility.yul\":4251:4273   */\n          swap1\n          pop\n            /* \"#utility.yul\":4181:4280   */\n          swap2\n          swap1\n          pop\n          jump\t// out\n            /* \"#utility.yul\":4286:4455   */\n        tag_117:\n            /* \"#utility.yul\":4370:4381   */\n          0x00\n            /* \"#utility.yul\":4404:4410   */\n          dup3\n            /* \"#utility.yul\":4399:4402   */\n          dup3\n            /* \"#utility.yul\":4392:4411   */\n          mstore\n            /* \"#utility.yul\":4444:4448   */\n          0x20\n            /* \"#utility.yul\":4439:4442   */\n          dup3\n            /* \"#utility.yul\":4435:4449   */\n          add\n            /* \"#utility.yul\":4420:4449   */\n          swap1\n          pop\n            /* \"#utility.yul\":4286:4455   */\n          swap3\n          swap2\n          pop\n          pop\n          jump\t// out\n            /* \"#utility.yul\":4461:4707   */\n        tag_118:\n            /* \"#utility.yul\":4542:4543   */\n          0x00\n            /* \"#utility.yul\":4552:4665   */\n        tag_176:\n            /* \"#utility.yul\":4566:4572   */\n          dup4\n            /* \"#utility.yul\":4563:4564   */\n          dup2\n            /* \"#utility.yul\":4560:4573   */\n          lt\n            /* \"#utility.yul\":4552:4665   */\n          iszero\n          tag_178\n          jumpi\n            /* \"#utility.yul\":4651:4652   */\n          dup1\n            /* \"#utility.yul\":4646:4649   */\n          dup3\n            /* \"#utility.yul\":4642:4653   */\n          add\n            /* \"#utility.yul\":4636:4654   */\n          mload\n            /* \"#utility.yul\":4632:4633   */\n          dup2\n            /* \"#utility.yul\":4627:4630   */\n          dup5\n            /* \"#utility.yul\":4623:4634   */\n          add\n            /* \"#utility.yul\":4616:4655   */\n          mstore\n            /* \"#utility.yul\":4588:4590   */\n          0x20\n            /* \"#utility.yul\":4585:4586   */\n          dup2\n            /* \"#utility.yul\":4581:4591   */\n          add\n            /* \"#utility.yul\":4576:4591   */\n          swap1\n          pop\n            /* \"#utility.yul\":4552:4665   */\n          jump(tag_176)\n        tag_178:\n            /* \"#utility.yul\":4699:4700   */\n          0x00\n            /* \"#utility.yul\":4690:4696   */\n          dup5\n            /* \"#utility.yul\":4685:4688   */\n          dup5\n            /* \"#utility.yul\":4681:4697   */\n          add\n            /* \"#utility.yul\":4674:4701   */\n          mstore\n            /* \"#utility.yul\":4523:4707   */\n          pop\n            /* \"#utility.yul\":4461:4707   */\n          pop\n          pop\n          pop\n          jump\t// out\n            /* \"#utility.yul\":4713:4815   */\n        tag_119:\n            /* \"#utility.yul\":4754:4760   */\n          0x00\n            /* \"#utility.yul\":4805:4807   */\n          0x1f\n            /* \"#utility.yul\":4801:4808   */\n          not\n            /* \"#utility.yul\":4796:4798   */\n          0x1f\n            /* \"#utility.yul\":4789:4794   */\n          dup4\n            /* \"#utility.yul\":4785:4799   */\n          add\n            /* \"#utility.yul\":4781:4809   */\n          and\n            /* \"#utility.yul\":4771:4809   */\n          swap1\n          pop\n            /* \"#utility.yul\":4713:4815   */\n          swap2\n          swap1\n          pop\n          jump\t// out\n            /* \"#utility.yul\":4821:5198   */\n        tag_120:\n            /* \"#utility.yul\":4909:4912   */\n          0x00\n            /* \"#utility.yul\":4937:4976   */\n          tag_181\n            /* \"#utility.yul\":4970:4975   */\n          dup3\n            /* \"#utility.yul\":4937:4976   */\n          tag_116\n          jump\t// in\n        tag_181:\n            /* \"#utility.yul\":4992:5063   */\n          tag_182\n            /* \"#utility.yul\":5056:5062   */\n          dup2\n            /* \"#utility.yul\":5051:5054   */\n          dup6\n            /* \"#utility.yul\":4992:5063   */\n          tag_117\n          jump\t// in\n        tag_182:\n            /* \"#utility.yul\":4985:5063   */\n          swap4\n          pop\n            /* \"#utility.yul\":5072:5137   */\n          tag_183\n            /* \"#utility.yul\":5130:5136   */\n          dup2\n            /* \"#utility.yul\":5125:5128   */\n          dup6\n            /* \"#utility.yul\":5118:5122   */\n          0x20\n            /* \"#utility.yul\":5111:5116   */\n          dup7\n            /* \"#utility.yul\":5107:5123   */\n          add\n            /* \"#utility.yul\":5072:5137   */\n          tag_118\n          jump\t// in\n        tag_183:\n            /* \"#utility.yul\":5162:5191   */\n          tag_184\n            /* \"#utility.yul\":5184:5190   */\n          dup2\n            /* \"#utility.yul\":5162:5191   */\n          tag_119\n          jump\t// in\n        tag_184:\n            /* \"#utility.yul\":5157:5160   */\n          dup5\n            /* \"#utility.yul\":5153:5192   */\n          add\n            /* \"#utility.yul\":5146:5192   */\n          swap2\n          pop\n            /* \"#utility.yul\":4913:5198   */\n          pop\n            /* \"#utility.yul\":4821:5198   */\n          swap3\n          swap2\n          pop\n          pop\n          jump\t// out\n            /* \"#utility.yul\":5204:5517   */\n        tag_50:\n            /* \"#utility.yul\":5317:5321   */\n          0x00\n            /* \"#utility.yul\":5355:5357   */\n          0x20\n            /* \"#utility.yul\":5344:5353   */\n          dup3\n            /* \"#utility.yul\":5340:5358   */\n          add\n            /* \"#utility.yul\":5332:5358   */\n          swap1\n          pop\n            /* \"#utility.yul\":5404:5413   */\n          dup2\n            /* \"#utility.yul\":5398:5402   */\n          dup2\n            /* \"#utility.yul\":5394:5414   */\n          sub\n            /* \"#utility.yul\":5390:5391   */\n          0x00\n            /* \"#utility.yul\":5379:5388   */\n          dup4\n            /* \"#utility.yul\":5375:5392   */\n          add\n            /* \"#utility.yul\":5368:5415   */\n          mstore\n            /* \"#utility.yul\":5432:5510   */\n          tag_186\n            /* \"#utility.yul\":5505:5509   */\n          dup2\n            /* \"#utility.yul\":5496:5502   */\n          dup5\n            /* \"#utility.yul\":5432:5510   */\n          tag_120\n          jump\t// in\n        tag_186:\n            /* \"#utility.yul\":5424:5510   */\n          swap1\n          pop\n            /* \"#utility.yul\":5204:5517   */\n          swap3\n          swap2\n          pop\n          pop\n          jump\t// out\n            /* \"#utility.yul\":5523:5997   */\n        tag_57:\n            /* \"#utility.yul\":5591:5597   */\n          0x00\n            /* \"#utility.yul\":5599:5605   */\n          dup1\n            /* \"#utility.yul\":5648:5650   */\n          0x40\n            /* \"#utility.yul\":5636:5645   */\n          dup4\n            /* \"#utility.yul\":5627:5634   */\n          dup6\n            /* \"#utility.yul\":5623:5646   */\n          sub\n            /* \"#utility.yul\":5619:5651   */\n          slt\n            /* \"#utility.yul\":5616:5735   */\n          iszero\n          tag_188\n          jumpi\n            /* \"#utility.yul\":5654:5733   */\n          tag_189\n          tag_102\n          jump\t// in\n        tag_189:\n            /* \"#utility.yul\":5616:5735   */\n        tag_188:\n            /* \"#utility.yul\":5774:5775   */\n          0x00\n            /* \"#utility.yul\":5799:5852   */\n          tag_190\n            /* \"#utility.yul\":5844:5851   */\n          dup6\n            /* \"#utility.yul\":5835:5841   */\n          dup3\n            /* \"#utility.yul\":5824:5833   */\n          dup7\n            /* \"#utility.yul\":5820:5842   */\n          add\n            /* \"#utility.yul\":5799:5852   */\n          tag_107\n          jump\t// in\n        tag_190:\n            /* \"#utility.yul\":5789:5852   */\n          swap3\n          pop\n            /* \"#utility.yul\":5745:5862   */\n          pop\n            /* \"#utility.yul\":5901:5903   */\n          0x20\n            /* \"#utility.yul\":5927:5980   */\n          tag_191\n            /* \"#utility.yul\":5972:5979   */\n          dup6\n            /* \"#utility.yul\":5963:5969   */\n          dup3\n            /* \"#utility.yul\":5952:5961   */\n          dup7\n            /* \"#utility.yul\":5948:5970   */\n          add\n            /* \"#utility.yul\":5927:5980   */\n          tag_107\n          jump\t// in\n        tag_191:\n            /* \"#utility.yul\":5917:5980   */\n          swap2\n          pop\n            /* \"#utility.yul\":5872:5990   */\n          pop\n            /* \"#utility.yul\":5523:5997   */\n          swap3\n          pop\n          swap3\n          swap1\n          pop\n          jump\t// out\n            /* \"#utility.yul\":6003:6183   */\n        tag_121:\n            /* \"#utility.yul\":6051:6128   */\n          0x4e487b7100000000000000000000000000000000000000000000000000000000\n            /* \"#utility.yul\":6048:6049   */\n          0x00\n            /* \"#utility.yul\":6041:6129   */\n          mstore\n            /* \"#utility.yul\":6148:6152   */\n          0x11\n            /* \"#utility.yul\":6145:6146   */\n          0x04\n            /* \"#utility.yul\":6138:6153   */\n          mstore\n            /* \"#utility.yul\":6172:6176   */\n          0x24\n            /* \"#utility.yul\":6169:6170   */\n          0x00\n            /* \"#utility.yul\":6162:6177   */\n          revert\n            /* \"#utility.yul\":6189:6380   */\n        tag_68:\n            /* \"#utility.yul\":6229:6232   */\n          0x00\n            /* \"#utility.yul\":6248:6268   */\n          tag_194\n            /* \"#utility.yul\":6266:6267   */\n          dup3\n            /* \"#utility.yul\":6248:6268   */\n          tag_108\n          jump\t// in\n        tag_194:\n            /* \"#utility.yul\":6243:6268   */\n          swap2\n          pop\n            /* \"#utility.yul\":6282:6302   */\n          tag_195\n            /* \"#utility.yul\":6300:6301   */\n          dup4\n            /* \"#utility.yul\":6282:6302   */\n          tag_108\n          jump\t// in\n        tag_195:\n            /* \"#utility.yul\":6277:6302   */\n          swap3\n          pop\n            /* \"#utility.yul\":6325:6326   */\n          dup3\n            /* \"#utility.yul\":6322:6323   */\n          dup3\n            /* \"#utility.yul\":6318:6327   */\n          add\n            /* \"#utility.yul\":6311:6327   */\n          swap1\n          pop\n            /* \"#utility.yul\":6346:6349   */\n          dup1\n            /* \"#utility.yul\":6343:6344   */\n          dup3\n            /* \"#utility.yul\":6340:6350   */\n          gt\n            /* \"#utility.yul\":6337:6373   */\n          iszero\n          tag_196\n          jumpi\n            /* \"#utility.yul\":6353:6371   */\n          tag_197\n          tag_121\n          jump\t// in\n        tag_197:\n            /* \"#utility.yul\":6337:6373   */\n        tag_196:\n            /* \"#utility.yul\":6189:6380   */\n          swap3\n          swap2\n          pop\n          pop\n          jump\t// out\n            /* \"#utility.yul\":6386:6566   */\n        tag_94:\n            /* \"#utility.yul\":6434:6511   */\n          0x4e487b7100000000000000000000000000000000000000000000000000000000\n            /* \"#utility.yul\":6431:6432   */\n          0x00\n            /* \"#utility.yul\":6424:6512   */\n          mstore\n            /* \"#utility.yul\":6531:6535   */\n          0x01\n            /* \"#utility.yul\":6528:6529   */\n          0x04\n            /* \"#utility.yul\":6521:6536   */\n          mstore\n            /* \"#utility.yul\":6555:6559   */\n          0x24\n            /* \"#utility.yul\":6552:6553   */\n          0x00\n            /* \"#utility.yul\":6545:6560   */\n          revert\n            /* \"#utility.yul\":6572:6766   */\n        tag_96:\n            /* \"#utility.yul\":6612:6616   */\n          0x00\n            /* \"#utility.yul\":6632:6652   */\n          tag_200\n            /* \"#utility.yul\":6650:6651   */\n          dup3\n            /* \"#utility.yul\":6632:6652   */\n          tag_108\n          jump\t// in\n        tag_200:\n            /* \"#utility.yul\":6627:6652   */\n          swap2\n          pop\n            /* \"#utility.yul\":6666:6686   */\n          tag_201\n            /* \"#utility.yul\":6684:6685   */\n          dup4\n            /* \"#utility.yul\":6666:6686   */\n          tag_108\n          jump\t// in\n        tag_201:\n            /* \"#utility.yul\":6661:6686   */\n          swap3\n          pop\n            /* \"#utility.yul\":6710:6711   */\n          dup3\n            /* \"#utility.yul\":6707:6708   */\n          dup3\n            /* \"#utility.yul\":6703:6712   */\n          sub\n            /* \"#utility.yul\":6695:6712   */\n          swap1\n          pop\n            /* \"#utility.yul\":6734:6735   */\n          dup2\n            /* \"#utility.yul\":6728:6732   */\n          dup2\n            /* \"#utility.yul\":6725:6736   */\n          gt\n            /* \"#utility.yul\":6722:6759   */\n          iszero\n          tag_202\n          jumpi\n            /* \"#utility.yul\":6739:6757   */\n          tag_203\n          tag_121\n          jump\t// in\n        tag_203:\n            /* \"#utility.yul\":6722:6759   */\n        tag_202:\n            /* \"#utility.yul\":6572:6766   */\n          swap3\n          swap2\n          pop\n          pop\n          jump\t// out\n\n        auxdata: 0xa26469706673582212201caf5b574b1c28463262388db4499b193c46123df82c817060c1be22681f535164736f6c63430008120033\n    }\n}\n",
				"bytecode": {
					"linkReferences": {},
					"object": "60806040523480156200001157600080fd5b506127106040516200002390620000d3565b6200002f919062000138565b604051809103906000f0801580156200004c573d6000803e3d6000fd5b506000806101000a81548173ffffffffffffffffffffffffffffffffffffffff021916908373ffffffffffffffffffffffffffffffffffffffff16021790555033600160006101000a81548173ffffffffffffffffffffffffffffffffffffffff021916908373ffffffffffffffffffffffffffffffffffffffff16021790555062000155565b6111b18062002add83390190565b6000819050919050565b6000819050919050565b6000819050919050565b6000620001206200011a6200011484620000e1565b620000f5565b620000eb565b9050919050565b6200013281620000ff565b82525050565b60006020820190506200014f600083018462000127565b92915050565b61297880620001656000396000f3fe6080604052600436106101095760003560e01c80634947830d1161009557806374b233491161006457806374b233491461034a5780637ac48e04146103875780638da5cb5b146103b0578063c29dd7c9146103db578063fba9f844146103f757610109565b80634947830d1461028e5780636328f1c1146102b7578063652b67aa146102e05780636d3a08941461031f57610109565b8063216f91c1116100dc578063216f91c1146101c857806321e0528b146101f35780632e95161c1461021e57806333ea0db21461023a578063369ccfaa1461026357610109565b80630cd93f641461010e57806311f91c4b1461013757806313e746fa1461016057806314b9a73514610189575b600080fd5b34801561011a57600080fd5b5061013560048036038101906101309190611aae565b610422565b005b34801561014357600080fd5b5061015e60048036038101906101599190611b2d565b610528565b005b34801561016c57600080fd5b5061018760048036038101906101829190611b2d565b6106ab565b005b34801561019557600080fd5b506101b060048036038101906101ab9190611aae565b61082e565b6040516101bf93929190611c32565b60405180910390f35b3480156101d457600080fd5b506101dd610903565b6040516101ea9190611d7c565b60405180910390f35b3480156101ff57600080fd5b50610208610a19565b6040516102159190611d9e565b60405180910390f35b61023860048036038101906102339190611db9565b610abb565b005b34801561024657600080fd5b50610261600480360381019061025c9190611aae565b610c3b565b005b34801561026f57600080fd5b50610278610e72565b6040516102859190611d7c565b60405180910390f35b34801561029a57600080fd5b506102b560048036038101906102b09190611db9565b610f4b565b005b3480156102c357600080fd5b506102de60048036038101906102d99190611aae565b61106b565b005b3480156102ec57600080fd5b5061030760048036038101906103029190611aae565b611171565b60405161031693929190611c32565b60405180910390f35b34801561032b57600080fd5b50610334611246565b6040516103419190611d7c565b60405180910390f35b34801561035657600080fd5b50610371600480360381019061036c9190611e44565b61135c565b60405161037e9190611d9e565b60405180910390f35b34801561039357600080fd5b506103ae60048036038101906103a99190611aae565b61137a565b005b3480156103bc57600080fd5b506103c56115b1565b6040516103d29190611e92565b60405180910390f35b6103f560048036038101906103f09190611db9565b6115d7565b005b34801561040357600080fd5b5061040c61185e565b6040516104199190611d7c565b60405180910390f35b33600160009054906101000a900473ffffffffffffffffffffffffffffffffffffffff1673ffffffffffffffffffffffffffffffffffffffff168173ffffffffffffffffffffffffffffffffffffffff16146104b3576040517f08c379a00000000000000000000000000000000000000000000000000000000081526004016104aa90611f1f565b60405180910390fd5b60006003836040516104c59190611f7b565b908152602001604051809103902060020160006101000a81548160ff0219169083151502179055507ff367a8930b4fe6fe6b1dd76e4579b44eee6a1bdfaf7047ebcd0ebb97b4220fe58260405161051c9190611f92565b60405180910390a15050565b33600160009054906101000a900473ffffffffffffffffffffffffffffffffffffffff1673ffffffffffffffffffffffffffffffffffffffff168173ffffffffffffffffffffffffffffffffffffffff16146105b9576040517f08c379a00000000000000000000000000000000000000000000000000000000081526004016105b090611f1f565b60405180910390fd5b6040518060600160405280848152602001838152602001600115158152506003846040516105e79190611f7b565b9081526020016040518091039020600082015181600001908161060a91906121c0565b506020820151816001015560408201518160020160006101000a81548160ff02191690831515021790555090505060048390806001815401808255809150506001900390600052602060002001600090919091909150908161066c91906121c0565b507fe8081c6dc6b02e2aa7421a7f6b9787d8ff210faa71f3e733c9bccdec2383845b838360405161069e929190612292565b60405180910390a1505050565b33600160009054906101000a900473ffffffffffffffffffffffffffffffffffffffff1673ffffffffffffffffffffffffffffffffffffffff168173ffffffffffffffffffffffffffffffffffffffff161461073c576040517f08c379a000000000000000000000000000000000000000000000000000000000815260040161073390611f1f565b60405180910390fd5b60405180606001604052808481526020018381526020016001151581525060068460405161076a9190611f7b565b9081526020016040518091039020600082015181600001908161078d91906121c0565b506020820151816001015560408201518160020160006101000a81548160ff0219169083151502179055509050506007839080600181540180825580915050600190039060005260206000200160009091909190915090816107ef91906121c0565b507fff7d68708fb4c0cfd7f1177b4efcc7914bdd764a05cf8aa924d853e748aa4af48383604051610821929190612292565b60405180910390a1505050565b60068180516020810182018051848252602083016020850120818352809550505050505060009150905080600001805461086790611fe3565b80601f016020809104026020016040519081016040528092919081815260200182805461089390611fe3565b80156108e05780601f106108b5576101008083540402835291602001916108e0565b820191906000526020600020905b8154815290600101906020018083116108c357829003601f168201915b5050505050908060010154908060020160009054906101000a900460ff16905083565b6060600560003373ffffffffffffffffffffffffffffffffffffffff1673ffffffffffffffffffffffffffffffffffffffff168152602001908152602001600020805480602002602001604051908101604052809291908181526020016000905b82821015610a1057838290600052602060002001805461098390611fe3565b80601f01602080910402602001604051908101604052809291908181526020018280546109af90611fe3565b80156109fc5780601f106109d1576101008083540402835291602001916109fc565b820191906000526020600020905b8154815290600101906020018083116109df57829003601f168201915b505050505081526020019060010190610964565b50505050905090565b60008060009054906101000a900473ffffffffffffffffffffffffffffffffffffffff1673ffffffffffffffffffffffffffffffffffffffff166370a08231336040518263ffffffff1660e01b8152600401610a7591906122d1565b602060405180830381865afa158015610a92573d6000803e3d6000fd5b505050506040513d601f19601f82011682018060405250810190610ab69190612301565b905090565b60008111610afe576040517f08c379a0000000000000000000000000000000000000000000000000000000008152600401610af5906123a0565b60405180910390fd5b80610b07610a19565b1015610b48576040517f08c379a0000000000000000000000000000000000000000000000000000000008152600401610b3f90612432565b60405180910390fd5b60008054906101000a900473ffffffffffffffffffffffffffffffffffffffff1673ffffffffffffffffffffffffffffffffffffffff16635e413c873330846040518463ffffffff1660e01b8152600401610ba593929190612452565b6020604051808303816000875af1158015610bc4573d6000803e3d6000fd5b505050506040513d601f19601f82011682018060405250810190610be891906124b5565b503373ffffffffffffffffffffffffffffffffffffffff166108fc610c0c83611937565b9081150290604051600060405180830381858888f19350505050158015610c37573d6000803e3d6000fd5b5050565b6000600382604051610c4d9190611f7b565b908152602001604051809103902060010154905060011515600383604051610c759190611f7b565b908152602001604051809103902060020160009054906101000a900460ff16151514610cd6576040517f08c379a0000000000000000000000000000000000000000000000000000000008152600401610ccd90612554565b60405180910390fd5b80610cdf610a19565b1015610d20576040517f08c379a0000000000000000000000000000000000000000000000000000000008152600401610d17906125e6565b60405180910390fd5b60008054906101000a900473ffffffffffffffffffffffffffffffffffffffff1673ffffffffffffffffffffffffffffffffffffffff16635e413c873330846040518463ffffffff1660e01b8152600401610d7d93929190612452565b6020604051808303816000875af1158015610d9c573d6000803e3d6000fd5b505050506040513d601f19601f82011682018060405250810190610dc091906124b5565b50600560003373ffffffffffffffffffffffffffffffffffffffff1673ffffffffffffffffffffffffffffffffffffffff16815260200190815260200160002082908060018154018082558091505060019003906000526020600020016000909190919091509081610e3291906121c0565b507fbaf6a0fff40567a8dcc9abdf2a6cfea5ceec4d3a871a3858d3d09fb1df6e9bfa828233604051610e6693929190612606565b60405180910390a15050565b60606004805480602002602001604051908101604052809291908181526020016000905b82821015610f42578382906000526020600020018054610eb590611fe3565b80601f0160208091040260200160405190810160405280929190818152602001828054610ee190611fe3565b8015610f2e5780601f10610f0357610100808354040283529160200191610f2e565b820191906000526020600020905b815481529060010190602001808311610f1157829003601f168201915b505050505081526020019060010190610e96565b50505050905090565b33600160009054906101000a900473ffffffffffffffffffffffffffffffffffffffff1673ffffffffffffffffffffffffffffffffffffffff168173ffffffffffffffffffffffffffffffffffffffff1614610fdc576040517f08c379a0000000000000000000000000000000000000000000000000000000008152600401610fd390611f1f565b60405180910390fd5b60008054906101000a900473ffffffffffffffffffffffffffffffffffffffff1673ffffffffffffffffffffffffffffffffffffffff16631d43cc98836040518263ffffffff1660e01b81526004016110359190611d9e565b600060405180830381600087803b15801561104f57600080fd5b505af1158015611063573d6000803e3d6000fd5b505050505050565b33600160009054906101000a900473ffffffffffffffffffffffffffffffffffffffff1673ffffffffffffffffffffffffffffffffffffffff168173ffffffffffffffffffffffffffffffffffffffff16146110fc576040517f08c379a00000000000000000000000000000000000000000000000000000000081526004016110f390611f1f565b60405180910390fd5b600060068360405161110e9190611f7b565b908152602001604051809103902060020160006101000a81548160ff0219169083151502179055507fd8d4765c18ff9b88481b923fb510b25188af6e7d6ee7094eb5ee925dd5a38a22826040516111659190611f92565b60405180910390a15050565b6003818051602081018201805184825260208301602085012081835280955050505050506000915090508060000180546111aa90611fe3565b80601f01602080910402602001604051908101604052809291908181526020018280546111d690611fe3565b80156112235780601f106111f857610100808354040283529160200191611223565b820191906000526020600020905b81548152906001019060200180831161120657829003601f168201915b5050505050908060010154908060020160009054906101000a900460ff16905083565b6060600860003373ffffffffffffffffffffffffffffffffffffffff1673ffffffffffffffffffffffffffffffffffffffff168152602001908152602001600020805480602002602001604051908101604052809291908181526020016000905b828210156113535783829060005260206000200180546112c690611fe3565b80601f01602080910402602001604051908101604052809291908181526020018280546112f290611fe3565b801561133f5780601f106113145761010080835404028352916020019161133f565b820191906000526020600020905b81548152906001019060200180831161132257829003601f168201915b5050505050815260200190600101906112a7565b50505050905090565b60026020528060005260406000206000915090508060000154905081565b6001151560068260405161138e9190611f7b565b908152602001604051809103902060020160009054906101000a900460ff161515146113ef576040517f08c379a00000000000000000000000000000000000000000000000000000000081526004016113e690612690565b60405180910390fd5b60006006826040516114019190611f7b565b908152602001604051809103902060010154905061141d610a19565b81111561145f576040517f08c379a000000000000000000000000000000000000000000000000000000000815260040161145690612722565b60405180910390fd5b60008054906101000a900473ffffffffffffffffffffffffffffffffffffffff1673ffffffffffffffffffffffffffffffffffffffff16635e413c873330846040518463ffffffff1660e01b81526004016114bc93929190612452565b6020604051808303816000875af11580156114db573d6000803e3d6000fd5b505050506040513d601f19601f820116820180604052508101906114ff91906124b5565b50600860003373ffffffffffffffffffffffffffffffffffffffff1673ffffffffffffffffffffffffffffffffffffffff1681526020019081526020016000208290806001815401808255809150506001900390600052602060002001600090919091909150908161157191906121c0565b507f39077ce3b8675b07f88a99a0689b31e807fa6d51465a64eafd44f062e3ee64e58282336040516115a593929190612606565b60405180910390a15050565b600160009054906101000a900473ffffffffffffffffffffffffffffffffffffffff1681565b60006115e282611937565b905080341015611627576040517f08c379a000000000000000000000000000000000000000000000000000000000815260040161161e906127b4565b60405180910390fd5b600081346116359190612803565b90503373ffffffffffffffffffffffffffffffffffffffff166108fc829081150290604051600060405180830381858888f1935050505015801561167d573d6000803e3d6000fd5b5060008060009054906101000a900473ffffffffffffffffffffffffffffffffffffffff1673ffffffffffffffffffffffffffffffffffffffff166370a08231306040518263ffffffff1660e01b81526004016116da91906122d1565b602060405180830381865afa1580156116f7573d6000803e3d6000fd5b505050506040513d601f19601f8201168201806040525081019061171b9190612301565b905080841115611760576040517f08c379a000000000000000000000000000000000000000000000000000000000815260040161175790612883565b60405180910390fd5b60008054906101000a900473ffffffffffffffffffffffffffffffffffffffff1673ffffffffffffffffffffffffffffffffffffffff1663a9059cbb33866040518363ffffffff1660e01b81526004016117bb9291906128a3565b6020604051808303816000875af11580156117da573d6000803e3d6000fd5b505050506040513d601f19601f820116820180604052508101906117fe91906124b5565b5083600260003373ffffffffffffffffffffffffffffffffffffffff1673ffffffffffffffffffffffffffffffffffffffff168152602001908152602001600020600001600082825461185191906128cc565b9250508190555050505050565b60606007805480602002602001604051908101604052809291908181526020016000905b8282101561192e5783829060005260206000200180546118a190611fe3565b80601f01602080910402602001604051908101604052809291908181526020018280546118cd90611fe3565b801561191a5780601f106118ef5761010080835404028352916020019161191a565b820191906000526020600020905b8154815290600101906020018083116118fd57829003601f168201915b505050505081526020019060010190611882565b50505050905090565b6000670de0b6b3a76400008261194d9190612900565b9050919050565b6000604051905090565b600080fd5b600080fd5b600080fd5b600080fd5b6000601f19601f8301169050919050565b7f4e487b7100000000000000000000000000000000000000000000000000000000600052604160045260246000fd5b6119bb82611972565b810181811067ffffffffffffffff821117156119da576119d9611983565b5b80604052505050565b60006119ed611954565b90506119f982826119b2565b919050565b600067ffffffffffffffff821115611a1957611a18611983565b5b611a2282611972565b9050602081019050919050565b82818337600083830152505050565b6000611a51611a4c846119fe565b6119e3565b905082815260208101848484011115611a6d57611a6c61196d565b5b611a78848285611a2f565b509392505050565b600082601f830112611a9557611a94611968565b5b8135611aa5848260208601611a3e565b91505092915050565b600060208284031215611ac457611ac361195e565b5b600082013567ffffffffffffffff811115611ae257611ae1611963565b5b611aee84828501611a80565b91505092915050565b6000819050919050565b611b0a81611af7565b8114611b1557600080fd5b50565b600081359050611b2781611b01565b92915050565b60008060408385031215611b4457611b4361195e565b5b600083013567ffffffffffffffff811115611b6257611b61611963565b5b611b6e85828601611a80565b9250506020611b7f85828601611b18565b9150509250929050565b600081519050919050565b600082825260208201905092915050565b60005b83811015611bc3578082015181840152602081019050611ba8565b60008484015250505050565b6000611bda82611b89565b611be48185611b94565b9350611bf4818560208601611ba5565b611bfd81611972565b840191505092915050565b611c1181611af7565b82525050565b60008115159050919050565b611c2c81611c17565b82525050565b60006060820190508181036000830152611c4c8186611bcf565b9050611c5b6020830185611c08565b611c686040830184611c23565b949350505050565b600081519050919050565b600082825260208201905092915050565b6000819050602082019050919050565b600082825260208201905092915050565b6000611cb882611b89565b611cc28185611c9c565b9350611cd2818560208601611ba5565b611cdb81611972565b840191505092915050565b6000611cf28383611cad565b905092915050565b6000602082019050919050565b6000611d1282611c70565b611d1c8185611c7b565b935083602082028501611d2e85611c8c565b8060005b85811015611d6a5784840389528151611d4b8582611ce6565b9450611d5683611cfa565b925060208a01995050600181019050611d32565b50829750879550505050505092915050565b60006020820190508181036000830152611d968184611d07565b905092915050565b6000602082019050611db36000830184611c08565b92915050565b600060208284031215611dcf57611dce61195e565b5b6000611ddd84828501611b18565b91505092915050565b600073ffffffffffffffffffffffffffffffffffffffff82169050919050565b6000611e1182611de6565b9050919050565b611e2181611e06565b8114611e2c57600080fd5b50565b600081359050611e3e81611e18565b92915050565b600060208284031215611e5a57611e5961195e565b5b6000611e6884828501611e2f565b91505092915050565b6000611e7c82611de6565b9050919050565b611e8c81611e71565b82525050565b6000602082019050611ea76000830184611e83565b92915050565b7f4e6f207469656e6573207065726d69736f73207061726120656a65637574617260008201527f20657374612066756e63696f6e00000000000000000000000000000000000000602082015250565b6000611f09602d83611b94565b9150611f1482611ead565b604082019050919050565b60006020820190508181036000830152611f3881611efc565b9050919050565b600081905092915050565b6000611f5582611b89565b611f5f8185611f3f565b9350611f6f818560208601611ba5565b80840191505092915050565b6000611f878284611f4a565b915081905092915050565b60006020820190508181036000830152611fac8184611bcf565b905092915050565b7f4e487b7100000000000000000000000000000000000000000000000000000000600052602260045260246000fd5b60006002820490506001821680611ffb57607f821691505b60208210810361200e5761200d611fb4565b5b50919050565b60008190508160005260206000209050919050565b60006020601f8301049050919050565b600082821b905092915050565b6000600883026120767fffffffffffffffffffffffffffffffffffffffffffffffffffffffffffffffff82612039565b6120808683612039565b95508019841693508086168417925050509392505050565b6000819050919050565b60006120bd6120b86120b384611af7565b612098565b611af7565b9050919050565b6000819050919050565b6120d7836120a2565b6120eb6120e3826120c4565b848454612046565b825550505050565b600090565b6121006120f3565b61210b8184846120ce565b505050565b5b8181101561212f576121246000826120f8565b600181019050612111565b5050565b601f8211156121745761214581612014565b61214e84612029565b8101602085101561215d578190505b61217161216985612029565b830182612110565b50505b505050565b600082821c905092915050565b600061219760001984600802612179565b1980831691505092915050565b60006121b08383612186565b9150826002028217905092915050565b6121c982611b89565b67ffffffffffffffff8111156121e2576121e1611983565b5b6121ec8254611fe3565b6121f7828285612133565b600060209050601f83116001811461222a5760008415612218578287015190505b61222285826121a4565b86555061228a565b601f19841661223886612014565b60005b828110156122605784890151825560018201915060208501945060208101905061223b565b8683101561227d5784890151612279601f891682612186565b8355505b6001600288020188555050505b505050505050565b600060408201905081810360008301526122ac8185611bcf565b90506122bb6020830184611c08565b9392505050565b6122cb81611e06565b82525050565b60006020820190506122e660008301846122c2565b92915050565b6000815190506122fb81611b01565b92915050565b6000602082840312156123175761231661195e565b5b6000612325848285016122ec565b91505092915050565b7f4e6563657369746173206465766f6c76657220756e612063616e74696461642060008201527f706f73697469766120646520746f6b656e730000000000000000000000000000602082015250565b600061238a603283611b94565b91506123958261232e565b604082019050919050565b600060208201905081810360008301526123b98161237d565b9050919050565b7f4e6f207469656e6573206c6f7320746f6b656e7320717565206465736561732060008201527f6465766f6c766572000000000000000000000000000000000000000000000000602082015250565b600061241c602883611b94565b9150612427826123c0565b604082019050919050565b6000602082019050818103600083015261244b8161240f565b9050919050565b600060608201905061246760008301866122c2565b61247460208301856122c2565b6124816040830184611c08565b949350505050565b61249281611c17565b811461249d57600080fd5b50565b6000815190506124af81612489565b92915050565b6000602082840312156124cb576124ca61195e565b5b60006124d9848285016124a0565b91505092915050565b7f4573746120617472616363696f6e206e6f206573746120646973706f6e69626c60008201527f6500000000000000000000000000000000000000000000000000000000000000602082015250565b600061253e602183611b94565b9150612549826124e2565b604082019050919050565b6000602082019050818103600083015261256d81612531565b9050919050565b7f4e6f207469656e6520737566696369656e74652073616c646f2070617261206560008201527f73746120617472616363696f6e00000000000000000000000000000000000000602082015250565b60006125d0602d83611b94565b91506125db82612574565b604082019050919050565b600060208201905081810360008301526125ff816125c3565b9050919050565b600060608201905081810360008301526126208186611bcf565b905061262f6020830185611c08565b61263c60408301846122c2565b949350505050565b7f4573746120636f6d696461206e6f206573746120646973706f6e69626c650000600082015250565b600061267a601e83611b94565b915061268582612644565b602082019050919050565b600060208201905081810360008301526126a98161266d565b9050919050565b7f4e6f207469656e657320737566696369656e74657320746f6b656e732070617260008201527f6120706167617200000000000000000000000000000000000000000000000000602082015250565b600061270c602783611b94565b9150612717826126b0565b604082019050919050565b6000602082019050818103600083015261273b816126ff565b9050919050565b7f436f6d707261206d656e6f7320546f6b656e73206f207061676120636f6e206d60008201527f6173206574686572730000000000000000000000000000000000000000000000602082015250565b600061279e602983611b94565b91506127a982612742565b604082019050919050565b600060208201905081810360008301526127cd81612791565b9050919050565b7f4e487b7100000000000000000000000000000000000000000000000000000000600052601160045260246000fd5b600061280e82611af7565b915061281983611af7565b9250828203905081811115612831576128306127d4565b5b92915050565b7f436f6d70726120756e206e756d65726f206d656e6f7220646520546f6b656e73600082015250565b600061286d602083611b94565b915061287882612837565b602082019050919050565b6000602082019050818103600083015261289c81612860565b9050919050565b60006040820190506128b860008301856122c2565b6128c56020830184611c08565b9392505050565b60006128d782611af7565b91506128e283611af7565b92508282019050808211156128fa576128f96127d4565b5b92915050565b600061290b82611af7565b915061291683611af7565b925082820261292481611af7565b9150828204841483151761293b5761293a6127d4565b5b509291505056fea2646970667358221220addb7c2fcfdfb5896bff92daaac1e9728a532d81553a5941e2cb32fec70dd3b164736f6c63430008120033608060405234801561001057600080fd5b50604051620011b1380380620011b1833981810160405281019061003491906100c1565b806002819055506002546000803373ffffffffffffffffffffffffffffffffffffffff1673ffffffffffffffffffffffffffffffffffffffff16815260200190815260200160002081905550506100ee565b600080fd5b6000819050919050565b61009e8161008b565b81146100a957600080fd5b50565b6000815190506100bb81610095565b92915050565b6000602082840312156100d7576100d6610086565b5b60006100e5848285016100ac565b91505092915050565b6110b380620000fe6000396000f3fe608060405234801561001057600080fd5b50600436106100a95760003560e01c80635e413c87116100715780635e413c871461016657806370a0823114610196578063a3f4df7e146101c6578063a9059cbb146101e4578063dd62ed3e14610214578063f76f8d7814610244576100a9565b8063095ea7b3146100ae57806318160ddd146100de5780631d43cc98146100fc57806323b872dd146101185780632e0f262514610148575b600080fd5b6100c860048036038101906100c39190610d41565b610262565b6040516100d59190610d9c565b60405180910390f35b6100e6610354565b6040516100f39190610dc6565b60405180910390f35b61011660048036038101906101119190610de1565b61035e565b005b610132600480360381019061012d9190610e0e565b6103cf565b60405161013f9190610d9c565b60405180910390f35b61015061074a565b60405161015d9190610e7d565b60405180910390f35b610180600480360381019061017b9190610e0e565b61074f565b60405161018d9190610d9c565b60405180910390f35b6101b060048036038101906101ab9190610e98565b610932565b6040516101bd9190610dc6565b60405180910390f35b6101ce61097a565b6040516101db9190610f55565b60405180910390f35b6101fe60048036038101906101f99190610d41565b6109b3565b60405161020b9190610d9c565b60405180910390f35b61022e60048036038101906102299190610f77565b610b95565b60405161023b9190610dc6565b60405180910390f35b61024c610c1c565b6040516102599190610f55565b60405180910390f35b600081600160003373ffffffffffffffffffffffffffffffffffffffff1673ffffffffffffffffffffffffffffffffffffffff16815260200190815260200160002060008573ffffffffffffffffffffffffffffffffffffffff1673ffffffffffffffffffffffffffffffffffffffff168152602001908152602001600020819055508273ffffffffffffffffffffffffffffffffffffffff163373ffffffffffffffffffffffffffffffffffffffff167f8c5be1e5ebec7d5bd14f71427d1e84f3dd0314c0f7b2291e5b200ac8c7c3b925846040516103429190610dc6565b60405180910390a36001905092915050565b6000600254905090565b80600260008282546103709190610fe6565b92505081905550806000803373ffffffffffffffffffffffffffffffffffffffff1673ffffffffffffffffffffffffffffffffffffffff16815260200190815260200160002060008282546103c59190610fe6565b9250508190555050565b60008060008573ffffffffffffffffffffffffffffffffffffffff1673ffffffffffffffffffffffffffffffffffffffff1681526020019081526020016000205482111561041c57600080fd5b600160008573ffffffffffffffffffffffffffffffffffffffff1673ffffffffffffffffffffffffffffffffffffffff16815260200190815260200160002060003373ffffffffffffffffffffffffffffffffffffffff1673ffffffffffffffffffffffffffffffffffffffff168152602001908152602001600020548211156104a557600080fd5b6104f6826000808773ffffffffffffffffffffffffffffffffffffffff1673ffffffffffffffffffffffffffffffffffffffff16815260200190815260200160002054610c5590919063ffffffff16565b6000808673ffffffffffffffffffffffffffffffffffffffff1673ffffffffffffffffffffffffffffffffffffffff168152602001908152602001600020819055506105c782600160008773ffffffffffffffffffffffffffffffffffffffff1673ffffffffffffffffffffffffffffffffffffffff16815260200190815260200160002060003373ffffffffffffffffffffffffffffffffffffffff1673ffffffffffffffffffffffffffffffffffffffff16815260200190815260200160002054610c5590919063ffffffff16565b600160008673ffffffffffffffffffffffffffffffffffffffff1673ffffffffffffffffffffffffffffffffffffffff16815260200190815260200160002060003373ffffffffffffffffffffffffffffffffffffffff1673ffffffffffffffffffffffffffffffffffffffff16815260200190815260200160002081905550610698826000808673ffffffffffffffffffffffffffffffffffffffff1673ffffffffffffffffffffffffffffffffffffffff16815260200190815260200160002054610c7c90919063ffffffff16565b6000808573ffffffffffffffffffffffffffffffffffffffff1673ffffffffffffffffffffffffffffffffffffffff168152602001908152602001600020819055508273ffffffffffffffffffffffffffffffffffffffff168473ffffffffffffffffffffffffffffffffffffffff167fddf252ad1be2c89b69c2b068fc378daa952ba7f163c4a11628f55a4df523b3ef846040516107379190610dc6565b60405180910390a3600190509392505050565b600281565b60008060008573ffffffffffffffffffffffffffffffffffffffff1673ffffffffffffffffffffffffffffffffffffffff1681526020019081526020016000205482111561079c57600080fd5b6107ed826000808773ffffffffffffffffffffffffffffffffffffffff1673ffffffffffffffffffffffffffffffffffffffff16815260200190815260200160002054610c5590919063ffffffff16565b6000808673ffffffffffffffffffffffffffffffffffffffff1673ffffffffffffffffffffffffffffffffffffffff16815260200190815260200160002081905550610880826000808773ffffffffffffffffffffffffffffffffffffffff1673ffffffffffffffffffffffffffffffffffffffff16815260200190815260200160002054610c7c90919063ffffffff16565b6000808573ffffffffffffffffffffffffffffffffffffffff1673ffffffffffffffffffffffffffffffffffffffff168152602001908152602001600020819055508273ffffffffffffffffffffffffffffffffffffffff168473ffffffffffffffffffffffffffffffffffffffff167fddf252ad1be2c89b69c2b068fc378daa952ba7f163c4a11628f55a4df523b3ef8460405161091f9190610dc6565b60405180910390a3600190509392505050565b60008060008373ffffffffffffffffffffffffffffffffffffffff1673ffffffffffffffffffffffffffffffffffffffff168152602001908152602001600020549050919050565b6040518060400160405280601181526020017f4552433230426c6f636b636861696e415a00000000000000000000000000000081525081565b60008060003373ffffffffffffffffffffffffffffffffffffffff1673ffffffffffffffffffffffffffffffffffffffff16815260200190815260200160002054821115610a0057600080fd5b610a51826000803373ffffffffffffffffffffffffffffffffffffffff1673ffffffffffffffffffffffffffffffffffffffff16815260200190815260200160002054610c5590919063ffffffff16565b6000803373ffffffffffffffffffffffffffffffffffffffff1673ffffffffffffffffffffffffffffffffffffffff16815260200190815260200160002081905550610ae4826000808673ffffffffffffffffffffffffffffffffffffffff1673ffffffffffffffffffffffffffffffffffffffff16815260200190815260200160002054610c7c90919063ffffffff16565b6000808573ffffffffffffffffffffffffffffffffffffffff1673ffffffffffffffffffffffffffffffffffffffff168152602001908152602001600020819055508273ffffffffffffffffffffffffffffffffffffffff163373ffffffffffffffffffffffffffffffffffffffff167fddf252ad1be2c89b69c2b068fc378daa952ba7f163c4a11628f55a4df523b3ef84604051610b839190610dc6565b60405180910390a36001905092915050565b6000600160008473ffffffffffffffffffffffffffffffffffffffff1673ffffffffffffffffffffffffffffffffffffffff16815260200190815260200160002060008373ffffffffffffffffffffffffffffffffffffffff1673ffffffffffffffffffffffffffffffffffffffff16815260200190815260200160002054905092915050565b6040518060400160405280600381526020017f455243000000000000000000000000000000000000000000000000000000000081525081565b600082821115610c6857610c6761101a565b5b8183610c749190611049565b905092915050565b6000808284610c8b9190610fe6565b905083811015610c9e57610c9d61101a565b5b8091505092915050565b600080fd5b600073ffffffffffffffffffffffffffffffffffffffff82169050919050565b6000610cd882610cad565b9050919050565b610ce881610ccd565b8114610cf357600080fd5b50565b600081359050610d0581610cdf565b92915050565b6000819050919050565b610d1e81610d0b565b8114610d2957600080fd5b50565b600081359050610d3b81610d15565b92915050565b60008060408385031215610d5857610d57610ca8565b5b6000610d6685828601610cf6565b9250506020610d7785828601610d2c565b9150509250929050565b60008115159050919050565b610d9681610d81565b82525050565b6000602082019050610db16000830184610d8d565b92915050565b610dc081610d0b565b82525050565b6000602082019050610ddb6000830184610db7565b92915050565b600060208284031215610df757610df6610ca8565b5b6000610e0584828501610d2c565b91505092915050565b600080600060608486031215610e2757610e26610ca8565b5b6000610e3586828701610cf6565b9350506020610e4686828701610cf6565b9250506040610e5786828701610d2c565b9150509250925092565b600060ff82169050919050565b610e7781610e61565b82525050565b6000602082019050610e926000830184610e6e565b92915050565b600060208284031215610eae57610ead610ca8565b5b6000610ebc84828501610cf6565b91505092915050565b600081519050919050565b600082825260208201905092915050565b60005b83811015610eff578082015181840152602081019050610ee4565b60008484015250505050565b6000601f19601f8301169050919050565b6000610f2782610ec5565b610f318185610ed0565b9350610f41818560208601610ee1565b610f4a81610f0b565b840191505092915050565b60006020820190508181036000830152610f6f8184610f1c565b905092915050565b60008060408385031215610f8e57610f8d610ca8565b5b6000610f9c85828601610cf6565b9250506020610fad85828601610cf6565b9150509250929050565b7f4e487b7100000000000000000000000000000000000000000000000000000000600052601160045260246000fd5b6000610ff182610d0b565b9150610ffc83610d0b565b925082820190508082111561101457611013610fb7565b5b92915050565b7f4e487b7100000000000000000000000000000000000000000000000000000000600052600160045260246000fd5b600061105482610d0b565b915061105f83610d0b565b925082820390508181111561107757611076610fb7565b5b9291505056fea26469706673582212201caf5b574b1c28463262388db4499b193c46123df82c817060c1be22681f535164736f6c63430008120033",
					"opcodes": "PUSH1 0x80 PUSH1 0x40 MSTORE CALLVALUE DUP1 ISZERO PUSH3 0x11 JUMPI PUSH1 0x0 DUP1 REVERT JUMPDEST POP PUSH2 0x2710 PUSH1 0x40 MLOAD PUSH3 0x23 SWAP1 PUSH3 0xD3 JUMP JUMPDEST PUSH3 0x2F SWAP2 SWAP1 PUSH3 0x138 JUMP JUMPDEST PUSH1 0x40 MLOAD DUP1 SWAP2 SUB SWAP1 PUSH1 0x0 CREATE DUP1 ISZERO DUP1 ISZERO PUSH3 0x4C JUMPI RETURNDATASIZE PUSH1 0x0 DUP1 RETURNDATACOPY RETURNDATASIZE PUSH1 0x0 REVERT JUMPDEST POP PUSH1 0x0 DUP1 PUSH2 0x100 EXP DUP2 SLOAD DUP2 PUSH20 0xFFFFFFFFFFFFFFFFFFFFFFFFFFFFFFFFFFFFFFFF MUL NOT AND SWAP1 DUP4 PUSH20 0xFFFFFFFFFFFFFFFFFFFFFFFFFFFFFFFFFFFFFFFF AND MUL OR SWAP1 SSTORE POP CALLER PUSH1 0x1 PUSH1 0x0 PUSH2 0x100 EXP DUP2 SLOAD DUP2 PUSH20 0xFFFFFFFFFFFFFFFFFFFFFFFFFFFFFFFFFFFFFFFF MUL NOT AND SWAP1 DUP4 PUSH20 0xFFFFFFFFFFFFFFFFFFFFFFFFFFFFFFFFFFFFFFFF AND MUL OR SWAP1 SSTORE POP PUSH3 0x155 JUMP JUMPDEST PUSH2 0x11B1 DUP1 PUSH3 0x2ADD DUP4 CODECOPY ADD SWAP1 JUMP JUMPDEST PUSH1 0x0 DUP2 SWAP1 POP SWAP2 SWAP1 POP JUMP JUMPDEST PUSH1 0x0 DUP2 SWAP1 POP SWAP2 SWAP1 POP JUMP JUMPDEST PUSH1 0x0 DUP2 SWAP1 POP SWAP2 SWAP1 POP JUMP JUMPDEST PUSH1 0x0 PUSH3 0x120 PUSH3 0x11A PUSH3 0x114 DUP5 PUSH3 0xE1 JUMP JUMPDEST PUSH3 0xF5 JUMP JUMPDEST PUSH3 0xEB JUMP JUMPDEST SWAP1 POP SWAP2 SWAP1 POP JUMP JUMPDEST PUSH3 0x132 DUP2 PUSH3 0xFF JUMP JUMPDEST DUP3 MSTORE POP POP JUMP JUMPDEST PUSH1 0x0 PUSH1 0x20 DUP3 ADD SWAP1 POP PUSH3 0x14F PUSH1 0x0 DUP4 ADD DUP5 PUSH3 0x127 JUMP JUMPDEST SWAP3 SWAP2 POP POP JUMP JUMPDEST PUSH2 0x2978 DUP1 PUSH3 0x165 PUSH1 0x0 CODECOPY PUSH1 0x0 RETURN INVALID PUSH1 0x80 PUSH1 0x40 MSTORE PUSH1 0x4 CALLDATASIZE LT PUSH2 0x109 JUMPI PUSH1 0x0 CALLDATALOAD PUSH1 0xE0 SHR DUP1 PUSH4 0x4947830D GT PUSH2 0x95 JUMPI DUP1 PUSH4 0x74B23349 GT PUSH2 0x64 JUMPI DUP1 PUSH4 0x74B23349 EQ PUSH2 0x34A JUMPI DUP1 PUSH4 0x7AC48E04 EQ PUSH2 0x387 JUMPI DUP1 PUSH4 0x8DA5CB5B EQ PUSH2 0x3B0 JUMPI DUP1 PUSH4 0xC29DD7C9 EQ PUSH2 0x3DB JUMPI DUP1 PUSH4 0xFBA9F844 EQ PUSH2 0x3F7 JUMPI PUSH2 0x109 JUMP JUMPDEST DUP1 PUSH4 0x4947830D EQ PUSH2 0x28E JUMPI DUP1 PUSH4 0x6328F1C1 EQ PUSH2 0x2B7 JUMPI DUP1 PUSH4 0x652B67AA EQ PUSH2 0x2E0 JUMPI DUP1 PUSH4 0x6D3A0894 EQ PUSH2 0x31F JUMPI PUSH2 0x109 JUMP JUMPDEST DUP1 PUSH4 0x216F91C1 GT PUSH2 0xDC JUMPI DUP1 PUSH4 0x216F91C1 EQ PUSH2 0x1C8 JUMPI DUP1 PUSH4 0x21E0528B EQ PUSH2 0x1F3 JUMPI DUP1 PUSH4 0x2E95161C EQ PUSH2 0x21E JUMPI DUP1 PUSH4 0x33EA0DB2 EQ PUSH2 0x23A JUMPI DUP1 PUSH4 0x369CCFAA EQ PUSH2 0x263 JUMPI PUSH2 0x109 JUMP JUMPDEST DUP1 PUSH4 0xCD93F64 EQ PUSH2 0x10E JUMPI DUP1 PUSH4 0x11F91C4B EQ PUSH2 0x137 JUMPI DUP1 PUSH4 0x13E746FA EQ PUSH2 0x160 JUMPI DUP1 PUSH4 0x14B9A735 EQ PUSH2 0x189 JUMPI JUMPDEST PUSH1 0x0 DUP1 REVERT JUMPDEST CALLVALUE DUP1 ISZERO PUSH2 0x11A JUMPI PUSH1 0x0 DUP1 REVERT JUMPDEST POP PUSH2 0x135 PUSH1 0x4 DUP1 CALLDATASIZE SUB DUP2 ADD SWAP1 PUSH2 0x130 SWAP2 SWAP1 PUSH2 0x1AAE JUMP JUMPDEST PUSH2 0x422 JUMP JUMPDEST STOP JUMPDEST CALLVALUE DUP1 ISZERO PUSH2 0x143 JUMPI PUSH1 0x0 DUP1 REVERT JUMPDEST POP PUSH2 0x15E PUSH1 0x4 DUP1 CALLDATASIZE SUB DUP2 ADD SWAP1 PUSH2 0x159 SWAP2 SWAP1 PUSH2 0x1B2D JUMP JUMPDEST PUSH2 0x528 JUMP JUMPDEST STOP JUMPDEST CALLVALUE DUP1 ISZERO PUSH2 0x16C JUMPI PUSH1 0x0 DUP1 REVERT JUMPDEST POP PUSH2 0x187 PUSH1 0x4 DUP1 CALLDATASIZE SUB DUP2 ADD SWAP1 PUSH2 0x182 SWAP2 SWAP1 PUSH2 0x1B2D JUMP JUMPDEST PUSH2 0x6AB JUMP JUMPDEST STOP JUMPDEST CALLVALUE DUP1 ISZERO PUSH2 0x195 JUMPI PUSH1 0x0 DUP1 REVERT JUMPDEST POP PUSH2 0x1B0 PUSH1 0x4 DUP1 CALLDATASIZE SUB DUP2 ADD SWAP1 PUSH2 0x1AB SWAP2 SWAP1 PUSH2 0x1AAE JUMP JUMPDEST PUSH2 0x82E JUMP JUMPDEST PUSH1 0x40 MLOAD PUSH2 0x1BF SWAP4 SWAP3 SWAP2 SWAP1 PUSH2 0x1C32 JUMP JUMPDEST PUSH1 0x40 MLOAD DUP1 SWAP2 SUB SWAP1 RETURN JUMPDEST CALLVALUE DUP1 ISZERO PUSH2 0x1D4 JUMPI PUSH1 0x0 DUP1 REVERT JUMPDEST POP PUSH2 0x1DD PUSH2 0x903 JUMP JUMPDEST PUSH1 0x40 MLOAD PUSH2 0x1EA SWAP2 SWAP1 PUSH2 0x1D7C JUMP JUMPDEST PUSH1 0x40 MLOAD DUP1 SWAP2 SUB SWAP1 RETURN JUMPDEST CALLVALUE DUP1 ISZERO PUSH2 0x1FF JUMPI PUSH1 0x0 DUP1 REVERT JUMPDEST POP PUSH2 0x208 PUSH2 0xA19 JUMP JUMPDEST PUSH1 0x40 MLOAD PUSH2 0x215 SWAP2 SWAP1 PUSH2 0x1D9E JUMP JUMPDEST PUSH1 0x40 MLOAD DUP1 SWAP2 SUB SWAP1 RETURN JUMPDEST PUSH2 0x238 PUSH1 0x4 DUP1 CALLDATASIZE SUB DUP2 ADD SWAP1 PUSH2 0x233 SWAP2 SWAP1 PUSH2 0x1DB9 JUMP JUMPDEST PUSH2 0xABB JUMP JUMPDEST STOP JUMPDEST CALLVALUE DUP1 ISZERO PUSH2 0x246 JUMPI PUSH1 0x0 DUP1 REVERT JUMPDEST POP PUSH2 0x261 PUSH1 0x4 DUP1 CALLDATASIZE SUB DUP2 ADD SWAP1 PUSH2 0x25C SWAP2 SWAP1 PUSH2 0x1AAE JUMP JUMPDEST PUSH2 0xC3B JUMP JUMPDEST STOP JUMPDEST CALLVALUE DUP1 ISZERO PUSH2 0x26F JUMPI PUSH1 0x0 DUP1 REVERT JUMPDEST POP PUSH2 0x278 PUSH2 0xE72 JUMP JUMPDEST PUSH1 0x40 MLOAD PUSH2 0x285 SWAP2 SWAP1 PUSH2 0x1D7C JUMP JUMPDEST PUSH1 0x40 MLOAD DUP1 SWAP2 SUB SWAP1 RETURN JUMPDEST CALLVALUE DUP1 ISZERO PUSH2 0x29A JUMPI PUSH1 0x0 DUP1 REVERT JUMPDEST POP PUSH2 0x2B5 PUSH1 0x4 DUP1 CALLDATASIZE SUB DUP2 ADD SWAP1 PUSH2 0x2B0 SWAP2 SWAP1 PUSH2 0x1DB9 JUMP JUMPDEST PUSH2 0xF4B JUMP JUMPDEST STOP JUMPDEST CALLVALUE DUP1 ISZERO PUSH2 0x2C3 JUMPI PUSH1 0x0 DUP1 REVERT JUMPDEST POP PUSH2 0x2DE PUSH1 0x4 DUP1 CALLDATASIZE SUB DUP2 ADD SWAP1 PUSH2 0x2D9 SWAP2 SWAP1 PUSH2 0x1AAE JUMP JUMPDEST PUSH2 0x106B JUMP JUMPDEST STOP JUMPDEST CALLVALUE DUP1 ISZERO PUSH2 0x2EC JUMPI PUSH1 0x0 DUP1 REVERT JUMPDEST POP PUSH2 0x307 PUSH1 0x4 DUP1 CALLDATASIZE SUB DUP2 ADD SWAP1 PUSH2 0x302 SWAP2 SWAP1 PUSH2 0x1AAE JUMP JUMPDEST PUSH2 0x1171 JUMP JUMPDEST PUSH1 0x40 MLOAD PUSH2 0x316 SWAP4 SWAP3 SWAP2 SWAP1 PUSH2 0x1C32 JUMP JUMPDEST PUSH1 0x40 MLOAD DUP1 SWAP2 SUB SWAP1 RETURN JUMPDEST CALLVALUE DUP1 ISZERO PUSH2 0x32B JUMPI PUSH1 0x0 DUP1 REVERT JUMPDEST POP PUSH2 0x334 PUSH2 0x1246 JUMP JUMPDEST PUSH1 0x40 MLOAD PUSH2 0x341 SWAP2 SWAP1 PUSH2 0x1D7C JUMP JUMPDEST PUSH1 0x40 MLOAD DUP1 SWAP2 SUB SWAP1 RETURN JUMPDEST CALLVALUE DUP1 ISZERO PUSH2 0x356 JUMPI PUSH1 0x0 DUP1 REVERT JUMPDEST POP PUSH2 0x371 PUSH1 0x4 DUP1 CALLDATASIZE SUB DUP2 ADD SWAP1 PUSH2 0x36C SWAP2 SWAP1 PUSH2 0x1E44 JUMP JUMPDEST PUSH2 0x135C JUMP JUMPDEST PUSH1 0x40 MLOAD PUSH2 0x37E SWAP2 SWAP1 PUSH2 0x1D9E JUMP JUMPDEST PUSH1 0x40 MLOAD DUP1 SWAP2 SUB SWAP1 RETURN JUMPDEST CALLVALUE DUP1 ISZERO PUSH2 0x393 JUMPI PUSH1 0x0 DUP1 REVERT JUMPDEST POP PUSH2 0x3AE PUSH1 0x4 DUP1 CALLDATASIZE SUB DUP2 ADD SWAP1 PUSH2 0x3A9 SWAP2 SWAP1 PUSH2 0x1AAE JUMP JUMPDEST PUSH2 0x137A JUMP JUMPDEST STOP JUMPDEST CALLVALUE DUP1 ISZERO PUSH2 0x3BC JUMPI PUSH1 0x0 DUP1 REVERT JUMPDEST POP PUSH2 0x3C5 PUSH2 0x15B1 JUMP JUMPDEST PUSH1 0x40 MLOAD PUSH2 0x3D2 SWAP2 SWAP1 PUSH2 0x1E92 JUMP JUMPDEST PUSH1 0x40 MLOAD DUP1 SWAP2 SUB SWAP1 RETURN JUMPDEST PUSH2 0x3F5 PUSH1 0x4 DUP1 CALLDATASIZE SUB DUP2 ADD SWAP1 PUSH2 0x3F0 SWAP2 SWAP1 PUSH2 0x1DB9 JUMP JUMPDEST PUSH2 0x15D7 JUMP JUMPDEST STOP JUMPDEST CALLVALUE DUP1 ISZERO PUSH2 0x403 JUMPI PUSH1 0x0 DUP1 REVERT JUMPDEST POP PUSH2 0x40C PUSH2 0x185E JUMP JUMPDEST PUSH1 0x40 MLOAD PUSH2 0x419 SWAP2 SWAP1 PUSH2 0x1D7C JUMP JUMPDEST PUSH1 0x40 MLOAD DUP1 SWAP2 SUB SWAP1 RETURN JUMPDEST CALLER PUSH1 0x1 PUSH1 0x0 SWAP1 SLOAD SWAP1 PUSH2 0x100 EXP SWAP1 DIV PUSH20 0xFFFFFFFFFFFFFFFFFFFFFFFFFFFFFFFFFFFFFFFF AND PUSH20 0xFFFFFFFFFFFFFFFFFFFFFFFFFFFFFFFFFFFFFFFF AND DUP2 PUSH20 0xFFFFFFFFFFFFFFFFFFFFFFFFFFFFFFFFFFFFFFFF AND EQ PUSH2 0x4B3 JUMPI PUSH1 0x40 MLOAD PUSH32 0x8C379A000000000000000000000000000000000000000000000000000000000 DUP2 MSTORE PUSH1 0x4 ADD PUSH2 0x4AA SWAP1 PUSH2 0x1F1F JUMP JUMPDEST PUSH1 0x40 MLOAD DUP1 SWAP2 SUB SWAP1 REVERT JUMPDEST PUSH1 0x0 PUSH1 0x3 DUP4 PUSH1 0x40 MLOAD PUSH2 0x4C5 SWAP2 SWAP1 PUSH2 0x1F7B JUMP JUMPDEST SWAP1 DUP2 MSTORE PUSH1 0x20 ADD PUSH1 0x40 MLOAD DUP1 SWAP2 SUB SWAP1 KECCAK256 PUSH1 0x2 ADD PUSH1 0x0 PUSH2 0x100 EXP DUP2 SLOAD DUP2 PUSH1 0xFF MUL NOT AND SWAP1 DUP4 ISZERO ISZERO MUL OR SWAP1 SSTORE POP PUSH32 0xF367A8930B4FE6FE6B1DD76E4579B44EEE6A1BDFAF7047EBCD0EBB97B4220FE5 DUP3 PUSH1 0x40 MLOAD PUSH2 0x51C SWAP2 SWAP1 PUSH2 0x1F92 JUMP JUMPDEST PUSH1 0x40 MLOAD DUP1 SWAP2 SUB SWAP1 LOG1 POP POP JUMP JUMPDEST CALLER PUSH1 0x1 PUSH1 0x0 SWAP1 SLOAD SWAP1 PUSH2 0x100 EXP SWAP1 DIV PUSH20 0xFFFFFFFFFFFFFFFFFFFFFFFFFFFFFFFFFFFFFFFF AND PUSH20 0xFFFFFFFFFFFFFFFFFFFFFFFFFFFFFFFFFFFFFFFF AND DUP2 PUSH20 0xFFFFFFFFFFFFFFFFFFFFFFFFFFFFFFFFFFFFFFFF AND EQ PUSH2 0x5B9 JUMPI PUSH1 0x40 MLOAD PUSH32 0x8C379A000000000000000000000000000000000000000000000000000000000 DUP2 MSTORE PUSH1 0x4 ADD PUSH2 0x5B0 SWAP1 PUSH2 0x1F1F JUMP JUMPDEST PUSH1 0x40 MLOAD DUP1 SWAP2 SUB SWAP1 REVERT JUMPDEST PUSH1 0x40 MLOAD DUP1 PUSH1 0x60 ADD PUSH1 0x40 MSTORE DUP1 DUP5 DUP2 MSTORE PUSH1 0x20 ADD DUP4 DUP2 MSTORE PUSH1 0x20 ADD PUSH1 0x1 ISZERO ISZERO DUP2 MSTORE POP PUSH1 0x3 DUP5 PUSH1 0x40 MLOAD PUSH2 0x5E7 SWAP2 SWAP1 PUSH2 0x1F7B JUMP JUMPDEST SWAP1 DUP2 MSTORE PUSH1 0x20 ADD PUSH1 0x40 MLOAD DUP1 SWAP2 SUB SWAP1 KECCAK256 PUSH1 0x0 DUP3 ADD MLOAD DUP2 PUSH1 0x0 ADD SWAP1 DUP2 PUSH2 0x60A SWAP2 SWAP1 PUSH2 0x21C0 JUMP JUMPDEST POP PUSH1 0x20 DUP3 ADD MLOAD DUP2 PUSH1 0x1 ADD SSTORE PUSH1 0x40 DUP3 ADD MLOAD DUP2 PUSH1 0x2 ADD PUSH1 0x0 PUSH2 0x100 EXP DUP2 SLOAD DUP2 PUSH1 0xFF MUL NOT AND SWAP1 DUP4 ISZERO ISZERO MUL OR SWAP1 SSTORE POP SWAP1 POP POP PUSH1 0x4 DUP4 SWAP1 DUP1 PUSH1 0x1 DUP2 SLOAD ADD DUP1 DUP3 SSTORE DUP1 SWAP2 POP POP PUSH1 0x1 SWAP1 SUB SWAP1 PUSH1 0x0 MSTORE PUSH1 0x20 PUSH1 0x0 KECCAK256 ADD PUSH1 0x0 SWAP1 SWAP2 SWAP1 SWAP2 SWAP1 SWAP2 POP SWAP1 DUP2 PUSH2 0x66C SWAP2 SWAP1 PUSH2 0x21C0 JUMP JUMPDEST POP PUSH32 0xE8081C6DC6B02E2AA7421A7F6B9787D8FF210FAA71F3E733C9BCCDEC2383845B DUP4 DUP4 PUSH1 0x40 MLOAD PUSH2 0x69E SWAP3 SWAP2 SWAP1 PUSH2 0x2292 JUMP JUMPDEST PUSH1 0x40 MLOAD DUP1 SWAP2 SUB SWAP1 LOG1 POP POP POP JUMP JUMPDEST CALLER PUSH1 0x1 PUSH1 0x0 SWAP1 SLOAD SWAP1 PUSH2 0x100 EXP SWAP1 DIV PUSH20 0xFFFFFFFFFFFFFFFFFFFFFFFFFFFFFFFFFFFFFFFF AND PUSH20 0xFFFFFFFFFFFFFFFFFFFFFFFFFFFFFFFFFFFFFFFF AND DUP2 PUSH20 0xFFFFFFFFFFFFFFFFFFFFFFFFFFFFFFFFFFFFFFFF AND EQ PUSH2 0x73C JUMPI PUSH1 0x40 MLOAD PUSH32 0x8C379A000000000000000000000000000000000000000000000000000000000 DUP2 MSTORE PUSH1 0x4 ADD PUSH2 0x733 SWAP1 PUSH2 0x1F1F JUMP JUMPDEST PUSH1 0x40 MLOAD DUP1 SWAP2 SUB SWAP1 REVERT JUMPDEST PUSH1 0x40 MLOAD DUP1 PUSH1 0x60 ADD PUSH1 0x40 MSTORE DUP1 DUP5 DUP2 MSTORE PUSH1 0x20 ADD DUP4 DUP2 MSTORE PUSH1 0x20 ADD PUSH1 0x1 ISZERO ISZERO DUP2 MSTORE POP PUSH1 0x6 DUP5 PUSH1 0x40 MLOAD PUSH2 0x76A SWAP2 SWAP1 PUSH2 0x1F7B JUMP JUMPDEST SWAP1 DUP2 MSTORE PUSH1 0x20 ADD PUSH1 0x40 MLOAD DUP1 SWAP2 SUB SWAP1 KECCAK256 PUSH1 0x0 DUP3 ADD MLOAD DUP2 PUSH1 0x0 ADD SWAP1 DUP2 PUSH2 0x78D SWAP2 SWAP1 PUSH2 0x21C0 JUMP JUMPDEST POP PUSH1 0x20 DUP3 ADD MLOAD DUP2 PUSH1 0x1 ADD SSTORE PUSH1 0x40 DUP3 ADD MLOAD DUP2 PUSH1 0x2 ADD PUSH1 0x0 PUSH2 0x100 EXP DUP2 SLOAD DUP2 PUSH1 0xFF MUL NOT AND SWAP1 DUP4 ISZERO ISZERO MUL OR SWAP1 SSTORE POP SWAP1 POP POP PUSH1 0x7 DUP4 SWAP1 DUP1 PUSH1 0x1 DUP2 SLOAD ADD DUP1 DUP3 SSTORE DUP1 SWAP2 POP POP PUSH1 0x1 SWAP1 SUB SWAP1 PUSH1 0x0 MSTORE PUSH1 0x20 PUSH1 0x0 KECCAK256 ADD PUSH1 0x0 SWAP1 SWAP2 SWAP1 SWAP2 SWAP1 SWAP2 POP SWAP1 DUP2 PUSH2 0x7EF SWAP2 SWAP1 PUSH2 0x21C0 JUMP JUMPDEST POP PUSH32 0xFF7D68708FB4C0CFD7F1177B4EFCC7914BDD764A05CF8AA924D853E748AA4AF4 DUP4 DUP4 PUSH1 0x40 MLOAD PUSH2 0x821 SWAP3 SWAP2 SWAP1 PUSH2 0x2292 JUMP JUMPDEST PUSH1 0x40 MLOAD DUP1 SWAP2 SUB SWAP1 LOG1 POP POP POP JUMP JUMPDEST PUSH1 0x6 DUP2 DUP1 MLOAD PUSH1 0x20 DUP2 ADD DUP3 ADD DUP1 MLOAD DUP5 DUP3 MSTORE PUSH1 0x20 DUP4 ADD PUSH1 0x20 DUP6 ADD KECCAK256 DUP2 DUP4 MSTORE DUP1 SWAP6 POP POP POP POP POP POP PUSH1 0x0 SWAP2 POP SWAP1 POP DUP1 PUSH1 0x0 ADD DUP1 SLOAD PUSH2 0x867 SWAP1 PUSH2 0x1FE3 JUMP JUMPDEST DUP1 PUSH1 0x1F ADD PUSH1 0x20 DUP1 SWAP2 DIV MUL PUSH1 0x20 ADD PUSH1 0x40 MLOAD SWAP1 DUP2 ADD PUSH1 0x40 MSTORE DUP1 SWAP3 SWAP2 SWAP1 DUP2 DUP2 MSTORE PUSH1 0x20 ADD DUP3 DUP1 SLOAD PUSH2 0x893 SWAP1 PUSH2 0x1FE3 JUMP JUMPDEST DUP1 ISZERO PUSH2 0x8E0 JUMPI DUP1 PUSH1 0x1F LT PUSH2 0x8B5 JUMPI PUSH2 0x100 DUP1 DUP4 SLOAD DIV MUL DUP4 MSTORE SWAP2 PUSH1 0x20 ADD SWAP2 PUSH2 0x8E0 JUMP JUMPDEST DUP3 ADD SWAP2 SWAP1 PUSH1 0x0 MSTORE PUSH1 0x20 PUSH1 0x0 KECCAK256 SWAP1 JUMPDEST DUP2 SLOAD DUP2 MSTORE SWAP1 PUSH1 0x1 ADD SWAP1 PUSH1 0x20 ADD DUP1 DUP4 GT PUSH2 0x8C3 JUMPI DUP3 SWAP1 SUB PUSH1 0x1F AND DUP3 ADD SWAP2 JUMPDEST POP POP POP POP POP SWAP1 DUP1 PUSH1 0x1 ADD SLOAD SWAP1 DUP1 PUSH1 0x2 ADD PUSH1 0x0 SWAP1 SLOAD SWAP1 PUSH2 0x100 EXP SWAP1 DIV PUSH1 0xFF AND SWAP1 POP DUP4 JUMP JUMPDEST PUSH1 0x60 PUSH1 0x5 PUSH1 0x0 CALLER PUSH20 0xFFFFFFFFFFFFFFFFFFFFFFFFFFFFFFFFFFFFFFFF AND PUSH20 0xFFFFFFFFFFFFFFFFFFFFFFFFFFFFFFFFFFFFFFFF AND DUP2 MSTORE PUSH1 0x20 ADD SWAP1 DUP2 MSTORE PUSH1 0x20 ADD PUSH1 0x0 KECCAK256 DUP1 SLOAD DUP1 PUSH1 0x20 MUL PUSH1 0x20 ADD PUSH1 0x40 MLOAD SWAP1 DUP2 ADD PUSH1 0x40 MSTORE DUP1 SWAP3 SWAP2 SWAP1 DUP2 DUP2 MSTORE PUSH1 0x20 ADD PUSH1 0x0 SWAP1 JUMPDEST DUP3 DUP3 LT ISZERO PUSH2 0xA10 JUMPI DUP4 DUP3 SWAP1 PUSH1 0x0 MSTORE PUSH1 0x20 PUSH1 0x0 KECCAK256 ADD DUP1 SLOAD PUSH2 0x983 SWAP1 PUSH2 0x1FE3 JUMP JUMPDEST DUP1 PUSH1 0x1F ADD PUSH1 0x20 DUP1 SWAP2 DIV MUL PUSH1 0x20 ADD PUSH1 0x40 MLOAD SWAP1 DUP2 ADD PUSH1 0x40 MSTORE DUP1 SWAP3 SWAP2 SWAP1 DUP2 DUP2 MSTORE PUSH1 0x20 ADD DUP3 DUP1 SLOAD PUSH2 0x9AF SWAP1 PUSH2 0x1FE3 JUMP JUMPDEST DUP1 ISZERO PUSH2 0x9FC JUMPI DUP1 PUSH1 0x1F LT PUSH2 0x9D1 JUMPI PUSH2 0x100 DUP1 DUP4 SLOAD DIV MUL DUP4 MSTORE SWAP2 PUSH1 0x20 ADD SWAP2 PUSH2 0x9FC JUMP JUMPDEST DUP3 ADD SWAP2 SWAP1 PUSH1 0x0 MSTORE PUSH1 0x20 PUSH1 0x0 KECCAK256 SWAP1 JUMPDEST DUP2 SLOAD DUP2 MSTORE SWAP1 PUSH1 0x1 ADD SWAP1 PUSH1 0x20 ADD DUP1 DUP4 GT PUSH2 0x9DF JUMPI DUP3 SWAP1 SUB PUSH1 0x1F AND DUP3 ADD SWAP2 JUMPDEST POP POP POP POP POP DUP2 MSTORE PUSH1 0x20 ADD SWAP1 PUSH1 0x1 ADD SWAP1 PUSH2 0x964 JUMP JUMPDEST POP POP POP POP SWAP1 POP SWAP1 JUMP JUMPDEST PUSH1 0x0 DUP1 PUSH1 0x0 SWAP1 SLOAD SWAP1 PUSH2 0x100 EXP SWAP1 DIV PUSH20 0xFFFFFFFFFFFFFFFFFFFFFFFFFFFFFFFFFFFFFFFF AND PUSH20 0xFFFFFFFFFFFFFFFFFFFFFFFFFFFFFFFFFFFFFFFF AND PUSH4 0x70A08231 CALLER PUSH1 0x40 MLOAD DUP3 PUSH4 0xFFFFFFFF AND PUSH1 0xE0 SHL DUP2 MSTORE PUSH1 0x4 ADD PUSH2 0xA75 SWAP2 SWAP1 PUSH2 0x22D1 JUMP JUMPDEST PUSH1 0x20 PUSH1 0x40 MLOAD DUP1 DUP4 SUB DUP2 DUP7 GAS STATICCALL ISZERO DUP1 ISZERO PUSH2 0xA92 JUMPI RETURNDATASIZE PUSH1 0x0 DUP1 RETURNDATACOPY RETURNDATASIZE PUSH1 0x0 REVERT JUMPDEST POP POP POP POP PUSH1 0x40 MLOAD RETURNDATASIZE PUSH1 0x1F NOT PUSH1 0x1F DUP3 ADD AND DUP3 ADD DUP1 PUSH1 0x40 MSTORE POP DUP2 ADD SWAP1 PUSH2 0xAB6 SWAP2 SWAP1 PUSH2 0x2301 JUMP JUMPDEST SWAP1 POP SWAP1 JUMP JUMPDEST PUSH1 0x0 DUP2 GT PUSH2 0xAFE JUMPI PUSH1 0x40 MLOAD PUSH32 0x8C379A000000000000000000000000000000000000000000000000000000000 DUP2 MSTORE PUSH1 0x4 ADD PUSH2 0xAF5 SWAP1 PUSH2 0x23A0 JUMP JUMPDEST PUSH1 0x40 MLOAD DUP1 SWAP2 SUB SWAP1 REVERT JUMPDEST DUP1 PUSH2 0xB07 PUSH2 0xA19 JUMP JUMPDEST LT ISZERO PUSH2 0xB48 JUMPI PUSH1 0x40 MLOAD PUSH32 0x8C379A000000000000000000000000000000000000000000000000000000000 DUP2 MSTORE PUSH1 0x4 ADD PUSH2 0xB3F SWAP1 PUSH2 0x2432 JUMP JUMPDEST PUSH1 0x40 MLOAD DUP1 SWAP2 SUB SWAP1 REVERT JUMPDEST PUSH1 0x0 DUP1 SLOAD SWAP1 PUSH2 0x100 EXP SWAP1 DIV PUSH20 0xFFFFFFFFFFFFFFFFFFFFFFFFFFFFFFFFFFFFFFFF AND PUSH20 0xFFFFFFFFFFFFFFFFFFFFFFFFFFFFFFFFFFFFFFFF AND PUSH4 0x5E413C87 CALLER ADDRESS DUP5 PUSH1 0x40 MLOAD DUP5 PUSH4 0xFFFFFFFF AND PUSH1 0xE0 SHL DUP2 MSTORE PUSH1 0x4 ADD PUSH2 0xBA5 SWAP4 SWAP3 SWAP2 SWAP1 PUSH2 0x2452 JUMP JUMPDEST PUSH1 0x20 PUSH1 0x40 MLOAD DUP1 DUP4 SUB DUP2 PUSH1 0x0 DUP8 GAS CALL ISZERO DUP1 ISZERO PUSH2 0xBC4 JUMPI RETURNDATASIZE PUSH1 0x0 DUP1 RETURNDATACOPY RETURNDATASIZE PUSH1 0x0 REVERT JUMPDEST POP POP POP POP PUSH1 0x40 MLOAD RETURNDATASIZE PUSH1 0x1F NOT PUSH1 0x1F DUP3 ADD AND DUP3 ADD DUP1 PUSH1 0x40 MSTORE POP DUP2 ADD SWAP1 PUSH2 0xBE8 SWAP2 SWAP1 PUSH2 0x24B5 JUMP JUMPDEST POP CALLER PUSH20 0xFFFFFFFFFFFFFFFFFFFFFFFFFFFFFFFFFFFFFFFF AND PUSH2 0x8FC PUSH2 0xC0C DUP4 PUSH2 0x1937 JUMP JUMPDEST SWAP1 DUP2 ISZERO MUL SWAP1 PUSH1 0x40 MLOAD PUSH1 0x0 PUSH1 0x40 MLOAD DUP1 DUP4 SUB DUP2 DUP6 DUP9 DUP9 CALL SWAP4 POP POP POP POP ISZERO DUP1 ISZERO PUSH2 0xC37 JUMPI RETURNDATASIZE PUSH1 0x0 DUP1 RETURNDATACOPY RETURNDATASIZE PUSH1 0x0 REVERT JUMPDEST POP POP JUMP JUMPDEST PUSH1 0x0 PUSH1 0x3 DUP3 PUSH1 0x40 MLOAD PUSH2 0xC4D SWAP2 SWAP1 PUSH2 0x1F7B JUMP JUMPDEST SWAP1 DUP2 MSTORE PUSH1 0x20 ADD PUSH1 0x40 MLOAD DUP1 SWAP2 SUB SWAP1 KECCAK256 PUSH1 0x1 ADD SLOAD SWAP1 POP PUSH1 0x1 ISZERO ISZERO PUSH1 0x3 DUP4 PUSH1 0x40 MLOAD PUSH2 0xC75 SWAP2 SWAP1 PUSH2 0x1F7B JUMP JUMPDEST SWAP1 DUP2 MSTORE PUSH1 0x20 ADD PUSH1 0x40 MLOAD DUP1 SWAP2 SUB SWAP1 KECCAK256 PUSH1 0x2 ADD PUSH1 0x0 SWAP1 SLOAD SWAP1 PUSH2 0x100 EXP SWAP1 DIV PUSH1 0xFF AND ISZERO ISZERO EQ PUSH2 0xCD6 JUMPI PUSH1 0x40 MLOAD PUSH32 0x8C379A000000000000000000000000000000000000000000000000000000000 DUP2 MSTORE PUSH1 0x4 ADD PUSH2 0xCCD SWAP1 PUSH2 0x2554 JUMP JUMPDEST PUSH1 0x40 MLOAD DUP1 SWAP2 SUB SWAP1 REVERT JUMPDEST DUP1 PUSH2 0xCDF PUSH2 0xA19 JUMP JUMPDEST LT ISZERO PUSH2 0xD20 JUMPI PUSH1 0x40 MLOAD PUSH32 0x8C379A000000000000000000000000000000000000000000000000000000000 DUP2 MSTORE PUSH1 0x4 ADD PUSH2 0xD17 SWAP1 PUSH2 0x25E6 JUMP JUMPDEST PUSH1 0x40 MLOAD DUP1 SWAP2 SUB SWAP1 REVERT JUMPDEST PUSH1 0x0 DUP1 SLOAD SWAP1 PUSH2 0x100 EXP SWAP1 DIV PUSH20 0xFFFFFFFFFFFFFFFFFFFFFFFFFFFFFFFFFFFFFFFF AND PUSH20 0xFFFFFFFFFFFFFFFFFFFFFFFFFFFFFFFFFFFFFFFF AND PUSH4 0x5E413C87 CALLER ADDRESS DUP5 PUSH1 0x40 MLOAD DUP5 PUSH4 0xFFFFFFFF AND PUSH1 0xE0 SHL DUP2 MSTORE PUSH1 0x4 ADD PUSH2 0xD7D SWAP4 SWAP3 SWAP2 SWAP1 PUSH2 0x2452 JUMP JUMPDEST PUSH1 0x20 PUSH1 0x40 MLOAD DUP1 DUP4 SUB DUP2 PUSH1 0x0 DUP8 GAS CALL ISZERO DUP1 ISZERO PUSH2 0xD9C JUMPI RETURNDATASIZE PUSH1 0x0 DUP1 RETURNDATACOPY RETURNDATASIZE PUSH1 0x0 REVERT JUMPDEST POP POP POP POP PUSH1 0x40 MLOAD RETURNDATASIZE PUSH1 0x1F NOT PUSH1 0x1F DUP3 ADD AND DUP3 ADD DUP1 PUSH1 0x40 MSTORE POP DUP2 ADD SWAP1 PUSH2 0xDC0 SWAP2 SWAP1 PUSH2 0x24B5 JUMP JUMPDEST POP PUSH1 0x5 PUSH1 0x0 CALLER PUSH20 0xFFFFFFFFFFFFFFFFFFFFFFFFFFFFFFFFFFFFFFFF AND PUSH20 0xFFFFFFFFFFFFFFFFFFFFFFFFFFFFFFFFFFFFFFFF AND DUP2 MSTORE PUSH1 0x20 ADD SWAP1 DUP2 MSTORE PUSH1 0x20 ADD PUSH1 0x0 KECCAK256 DUP3 SWAP1 DUP1 PUSH1 0x1 DUP2 SLOAD ADD DUP1 DUP3 SSTORE DUP1 SWAP2 POP POP PUSH1 0x1 SWAP1 SUB SWAP1 PUSH1 0x0 MSTORE PUSH1 0x20 PUSH1 0x0 KECCAK256 ADD PUSH1 0x0 SWAP1 SWAP2 SWAP1 SWAP2 SWAP1 SWAP2 POP SWAP1 DUP2 PUSH2 0xE32 SWAP2 SWAP1 PUSH2 0x21C0 JUMP JUMPDEST POP PUSH32 0xBAF6A0FFF40567A8DCC9ABDF2A6CFEA5CEEC4D3A871A3858D3D09FB1DF6E9BFA DUP3 DUP3 CALLER PUSH1 0x40 MLOAD PUSH2 0xE66 SWAP4 SWAP3 SWAP2 SWAP1 PUSH2 0x2606 JUMP JUMPDEST PUSH1 0x40 MLOAD DUP1 SWAP2 SUB SWAP1 LOG1 POP POP JUMP JUMPDEST PUSH1 0x60 PUSH1 0x4 DUP1 SLOAD DUP1 PUSH1 0x20 MUL PUSH1 0x20 ADD PUSH1 0x40 MLOAD SWAP1 DUP2 ADD PUSH1 0x40 MSTORE DUP1 SWAP3 SWAP2 SWAP1 DUP2 DUP2 MSTORE PUSH1 0x20 ADD PUSH1 0x0 SWAP1 JUMPDEST DUP3 DUP3 LT ISZERO PUSH2 0xF42 JUMPI DUP4 DUP3 SWAP1 PUSH1 0x0 MSTORE PUSH1 0x20 PUSH1 0x0 KECCAK256 ADD DUP1 SLOAD PUSH2 0xEB5 SWAP1 PUSH2 0x1FE3 JUMP JUMPDEST DUP1 PUSH1 0x1F ADD PUSH1 0x20 DUP1 SWAP2 DIV MUL PUSH1 0x20 ADD PUSH1 0x40 MLOAD SWAP1 DUP2 ADD PUSH1 0x40 MSTORE DUP1 SWAP3 SWAP2 SWAP1 DUP2 DUP2 MSTORE PUSH1 0x20 ADD DUP3 DUP1 SLOAD PUSH2 0xEE1 SWAP1 PUSH2 0x1FE3 JUMP JUMPDEST DUP1 ISZERO PUSH2 0xF2E JUMPI DUP1 PUSH1 0x1F LT PUSH2 0xF03 JUMPI PUSH2 0x100 DUP1 DUP4 SLOAD DIV MUL DUP4 MSTORE SWAP2 PUSH1 0x20 ADD SWAP2 PUSH2 0xF2E JUMP JUMPDEST DUP3 ADD SWAP2 SWAP1 PUSH1 0x0 MSTORE PUSH1 0x20 PUSH1 0x0 KECCAK256 SWAP1 JUMPDEST DUP2 SLOAD DUP2 MSTORE SWAP1 PUSH1 0x1 ADD SWAP1 PUSH1 0x20 ADD DUP1 DUP4 GT PUSH2 0xF11 JUMPI DUP3 SWAP1 SUB PUSH1 0x1F AND DUP3 ADD SWAP2 JUMPDEST POP POP POP POP POP DUP2 MSTORE PUSH1 0x20 ADD SWAP1 PUSH1 0x1 ADD SWAP1 PUSH2 0xE96 JUMP JUMPDEST POP POP POP POP SWAP1 POP SWAP1 JUMP JUMPDEST CALLER PUSH1 0x1 PUSH1 0x0 SWAP1 SLOAD SWAP1 PUSH2 0x100 EXP SWAP1 DIV PUSH20 0xFFFFFFFFFFFFFFFFFFFFFFFFFFFFFFFFFFFFFFFF AND PUSH20 0xFFFFFFFFFFFFFFFFFFFFFFFFFFFFFFFFFFFFFFFF AND DUP2 PUSH20 0xFFFFFFFFFFFFFFFFFFFFFFFFFFFFFFFFFFFFFFFF AND EQ PUSH2 0xFDC JUMPI PUSH1 0x40 MLOAD PUSH32 0x8C379A000000000000000000000000000000000000000000000000000000000 DUP2 MSTORE PUSH1 0x4 ADD PUSH2 0xFD3 SWAP1 PUSH2 0x1F1F JUMP JUMPDEST PUSH1 0x40 MLOAD DUP1 SWAP2 SUB SWAP1 REVERT JUMPDEST PUSH1 0x0 DUP1 SLOAD SWAP1 PUSH2 0x100 EXP SWAP1 DIV PUSH20 0xFFFFFFFFFFFFFFFFFFFFFFFFFFFFFFFFFFFFFFFF AND PUSH20 0xFFFFFFFFFFFFFFFFFFFFFFFFFFFFFFFFFFFFFFFF AND PUSH4 0x1D43CC98 DUP4 PUSH1 0x40 MLOAD DUP3 PUSH4 0xFFFFFFFF AND PUSH1 0xE0 SHL DUP2 MSTORE PUSH1 0x4 ADD PUSH2 0x1035 SWAP2 SWAP1 PUSH2 0x1D9E JUMP JUMPDEST PUSH1 0x0 PUSH1 0x40 MLOAD DUP1 DUP4 SUB DUP2 PUSH1 0x0 DUP8 DUP1 EXTCODESIZE ISZERO DUP1 ISZERO PUSH2 0x104F JUMPI PUSH1 0x0 DUP1 REVERT JUMPDEST POP GAS CALL ISZERO DUP1 ISZERO PUSH2 0x1063 JUMPI RETURNDATASIZE PUSH1 0x0 DUP1 RETURNDATACOPY RETURNDATASIZE PUSH1 0x0 REVERT JUMPDEST POP POP POP POP POP POP JUMP JUMPDEST CALLER PUSH1 0x1 PUSH1 0x0 SWAP1 SLOAD SWAP1 PUSH2 0x100 EXP SWAP1 DIV PUSH20 0xFFFFFFFFFFFFFFFFFFFFFFFFFFFFFFFFFFFFFFFF AND PUSH20 0xFFFFFFFFFFFFFFFFFFFFFFFFFFFFFFFFFFFFFFFF AND DUP2 PUSH20 0xFFFFFFFFFFFFFFFFFFFFFFFFFFFFFFFFFFFFFFFF AND EQ PUSH2 0x10FC JUMPI PUSH1 0x40 MLOAD PUSH32 0x8C379A000000000000000000000000000000000000000000000000000000000 DUP2 MSTORE PUSH1 0x4 ADD PUSH2 0x10F3 SWAP1 PUSH2 0x1F1F JUMP JUMPDEST PUSH1 0x40 MLOAD DUP1 SWAP2 SUB SWAP1 REVERT JUMPDEST PUSH1 0x0 PUSH1 0x6 DUP4 PUSH1 0x40 MLOAD PUSH2 0x110E SWAP2 SWAP1 PUSH2 0x1F7B JUMP JUMPDEST SWAP1 DUP2 MSTORE PUSH1 0x20 ADD PUSH1 0x40 MLOAD DUP1 SWAP2 SUB SWAP1 KECCAK256 PUSH1 0x2 ADD PUSH1 0x0 PUSH2 0x100 EXP DUP2 SLOAD DUP2 PUSH1 0xFF MUL NOT AND SWAP1 DUP4 ISZERO ISZERO MUL OR SWAP1 SSTORE POP PUSH32 0xD8D4765C18FF9B88481B923FB510B25188AF6E7D6EE7094EB5EE925DD5A38A22 DUP3 PUSH1 0x40 MLOAD PUSH2 0x1165 SWAP2 SWAP1 PUSH2 0x1F92 JUMP JUMPDEST PUSH1 0x40 MLOAD DUP1 SWAP2 SUB SWAP1 LOG1 POP POP JUMP JUMPDEST PUSH1 0x3 DUP2 DUP1 MLOAD PUSH1 0x20 DUP2 ADD DUP3 ADD DUP1 MLOAD DUP5 DUP3 MSTORE PUSH1 0x20 DUP4 ADD PUSH1 0x20 DUP6 ADD KECCAK256 DUP2 DUP4 MSTORE DUP1 SWAP6 POP POP POP POP POP POP PUSH1 0x0 SWAP2 POP SWAP1 POP DUP1 PUSH1 0x0 ADD DUP1 SLOAD PUSH2 0x11AA SWAP1 PUSH2 0x1FE3 JUMP JUMPDEST DUP1 PUSH1 0x1F ADD PUSH1 0x20 DUP1 SWAP2 DIV MUL PUSH1 0x20 ADD PUSH1 0x40 MLOAD SWAP1 DUP2 ADD PUSH1 0x40 MSTORE DUP1 SWAP3 SWAP2 SWAP1 DUP2 DUP2 MSTORE PUSH1 0x20 ADD DUP3 DUP1 SLOAD PUSH2 0x11D6 SWAP1 PUSH2 0x1FE3 JUMP JUMPDEST DUP1 ISZERO PUSH2 0x1223 JUMPI DUP1 PUSH1 0x1F LT PUSH2 0x11F8 JUMPI PUSH2 0x100 DUP1 DUP4 SLOAD DIV MUL DUP4 MSTORE SWAP2 PUSH1 0x20 ADD SWAP2 PUSH2 0x1223 JUMP JUMPDEST DUP3 ADD SWAP2 SWAP1 PUSH1 0x0 MSTORE PUSH1 0x20 PUSH1 0x0 KECCAK256 SWAP1 JUMPDEST DUP2 SLOAD DUP2 MSTORE SWAP1 PUSH1 0x1 ADD SWAP1 PUSH1 0x20 ADD DUP1 DUP4 GT PUSH2 0x1206 JUMPI DUP3 SWAP1 SUB PUSH1 0x1F AND DUP3 ADD SWAP2 JUMPDEST POP POP POP POP POP SWAP1 DUP1 PUSH1 0x1 ADD SLOAD SWAP1 DUP1 PUSH1 0x2 ADD PUSH1 0x0 SWAP1 SLOAD SWAP1 PUSH2 0x100 EXP SWAP1 DIV PUSH1 0xFF AND SWAP1 POP DUP4 JUMP JUMPDEST PUSH1 0x60 PUSH1 0x8 PUSH1 0x0 CALLER PUSH20 0xFFFFFFFFFFFFFFFFFFFFFFFFFFFFFFFFFFFFFFFF AND PUSH20 0xFFFFFFFFFFFFFFFFFFFFFFFFFFFFFFFFFFFFFFFF AND DUP2 MSTORE PUSH1 0x20 ADD SWAP1 DUP2 MSTORE PUSH1 0x20 ADD PUSH1 0x0 KECCAK256 DUP1 SLOAD DUP1 PUSH1 0x20 MUL PUSH1 0x20 ADD PUSH1 0x40 MLOAD SWAP1 DUP2 ADD PUSH1 0x40 MSTORE DUP1 SWAP3 SWAP2 SWAP1 DUP2 DUP2 MSTORE PUSH1 0x20 ADD PUSH1 0x0 SWAP1 JUMPDEST DUP3 DUP3 LT ISZERO PUSH2 0x1353 JUMPI DUP4 DUP3 SWAP1 PUSH1 0x0 MSTORE PUSH1 0x20 PUSH1 0x0 KECCAK256 ADD DUP1 SLOAD PUSH2 0x12C6 SWAP1 PUSH2 0x1FE3 JUMP JUMPDEST DUP1 PUSH1 0x1F ADD PUSH1 0x20 DUP1 SWAP2 DIV MUL PUSH1 0x20 ADD PUSH1 0x40 MLOAD SWAP1 DUP2 ADD PUSH1 0x40 MSTORE DUP1 SWAP3 SWAP2 SWAP1 DUP2 DUP2 MSTORE PUSH1 0x20 ADD DUP3 DUP1 SLOAD PUSH2 0x12F2 SWAP1 PUSH2 0x1FE3 JUMP JUMPDEST DUP1 ISZERO PUSH2 0x133F JUMPI DUP1 PUSH1 0x1F LT PUSH2 0x1314 JUMPI PUSH2 0x100 DUP1 DUP4 SLOAD DIV MUL DUP4 MSTORE SWAP2 PUSH1 0x20 ADD SWAP2 PUSH2 0x133F JUMP JUMPDEST DUP3 ADD SWAP2 SWAP1 PUSH1 0x0 MSTORE PUSH1 0x20 PUSH1 0x0 KECCAK256 SWAP1 JUMPDEST DUP2 SLOAD DUP2 MSTORE SWAP1 PUSH1 0x1 ADD SWAP1 PUSH1 0x20 ADD DUP1 DUP4 GT PUSH2 0x1322 JUMPI DUP3 SWAP1 SUB PUSH1 0x1F AND DUP3 ADD SWAP2 JUMPDEST POP POP POP POP POP DUP2 MSTORE PUSH1 0x20 ADD SWAP1 PUSH1 0x1 ADD SWAP1 PUSH2 0x12A7 JUMP JUMPDEST POP POP POP POP SWAP1 POP SWAP1 JUMP JUMPDEST PUSH1 0x2 PUSH1 0x20 MSTORE DUP1 PUSH1 0x0 MSTORE PUSH1 0x40 PUSH1 0x0 KECCAK256 PUSH1 0x0 SWAP2 POP SWAP1 POP DUP1 PUSH1 0x0 ADD SLOAD SWAP1 POP DUP2 JUMP JUMPDEST PUSH1 0x1 ISZERO ISZERO PUSH1 0x6 DUP3 PUSH1 0x40 MLOAD PUSH2 0x138E SWAP2 SWAP1 PUSH2 0x1F7B JUMP JUMPDEST SWAP1 DUP2 MSTORE PUSH1 0x20 ADD PUSH1 0x40 MLOAD DUP1 SWAP2 SUB SWAP1 KECCAK256 PUSH1 0x2 ADD PUSH1 0x0 SWAP1 SLOAD SWAP1 PUSH2 0x100 EXP SWAP1 DIV PUSH1 0xFF AND ISZERO ISZERO EQ PUSH2 0x13EF JUMPI PUSH1 0x40 MLOAD PUSH32 0x8C379A000000000000000000000000000000000000000000000000000000000 DUP2 MSTORE PUSH1 0x4 ADD PUSH2 0x13E6 SWAP1 PUSH2 0x2690 JUMP JUMPDEST PUSH1 0x40 MLOAD DUP1 SWAP2 SUB SWAP1 REVERT JUMPDEST PUSH1 0x0 PUSH1 0x6 DUP3 PUSH1 0x40 MLOAD PUSH2 0x1401 SWAP2 SWAP1 PUSH2 0x1F7B JUMP JUMPDEST SWAP1 DUP2 MSTORE PUSH1 0x20 ADD PUSH1 0x40 MLOAD DUP1 SWAP2 SUB SWAP1 KECCAK256 PUSH1 0x1 ADD SLOAD SWAP1 POP PUSH2 0x141D PUSH2 0xA19 JUMP JUMPDEST DUP2 GT ISZERO PUSH2 0x145F JUMPI PUSH1 0x40 MLOAD PUSH32 0x8C379A000000000000000000000000000000000000000000000000000000000 DUP2 MSTORE PUSH1 0x4 ADD PUSH2 0x1456 SWAP1 PUSH2 0x2722 JUMP JUMPDEST PUSH1 0x40 MLOAD DUP1 SWAP2 SUB SWAP1 REVERT JUMPDEST PUSH1 0x0 DUP1 SLOAD SWAP1 PUSH2 0x100 EXP SWAP1 DIV PUSH20 0xFFFFFFFFFFFFFFFFFFFFFFFFFFFFFFFFFFFFFFFF AND PUSH20 0xFFFFFFFFFFFFFFFFFFFFFFFFFFFFFFFFFFFFFFFF AND PUSH4 0x5E413C87 CALLER ADDRESS DUP5 PUSH1 0x40 MLOAD DUP5 PUSH4 0xFFFFFFFF AND PUSH1 0xE0 SHL DUP2 MSTORE PUSH1 0x4 ADD PUSH2 0x14BC SWAP4 SWAP3 SWAP2 SWAP1 PUSH2 0x2452 JUMP JUMPDEST PUSH1 0x20 PUSH1 0x40 MLOAD DUP1 DUP4 SUB DUP2 PUSH1 0x0 DUP8 GAS CALL ISZERO DUP1 ISZERO PUSH2 0x14DB JUMPI RETURNDATASIZE PUSH1 0x0 DUP1 RETURNDATACOPY RETURNDATASIZE PUSH1 0x0 REVERT JUMPDEST POP POP POP POP PUSH1 0x40 MLOAD RETURNDATASIZE PUSH1 0x1F NOT PUSH1 0x1F DUP3 ADD AND DUP3 ADD DUP1 PUSH1 0x40 MSTORE POP DUP2 ADD SWAP1 PUSH2 0x14FF SWAP2 SWAP1 PUSH2 0x24B5 JUMP JUMPDEST POP PUSH1 0x8 PUSH1 0x0 CALLER PUSH20 0xFFFFFFFFFFFFFFFFFFFFFFFFFFFFFFFFFFFFFFFF AND PUSH20 0xFFFFFFFFFFFFFFFFFFFFFFFFFFFFFFFFFFFFFFFF AND DUP2 MSTORE PUSH1 0x20 ADD SWAP1 DUP2 MSTORE PUSH1 0x20 ADD PUSH1 0x0 KECCAK256 DUP3 SWAP1 DUP1 PUSH1 0x1 DUP2 SLOAD ADD DUP1 DUP3 SSTORE DUP1 SWAP2 POP POP PUSH1 0x1 SWAP1 SUB SWAP1 PUSH1 0x0 MSTORE PUSH1 0x20 PUSH1 0x0 KECCAK256 ADD PUSH1 0x0 SWAP1 SWAP2 SWAP1 SWAP2 SWAP1 SWAP2 POP SWAP1 DUP2 PUSH2 0x1571 SWAP2 SWAP1 PUSH2 0x21C0 JUMP JUMPDEST POP PUSH32 0x39077CE3B8675B07F88A99A0689B31E807FA6D51465A64EAFD44F062E3EE64E5 DUP3 DUP3 CALLER PUSH1 0x40 MLOAD PUSH2 0x15A5 SWAP4 SWAP3 SWAP2 SWAP1 PUSH2 0x2606 JUMP JUMPDEST PUSH1 0x40 MLOAD DUP1 SWAP2 SUB SWAP1 LOG1 POP POP JUMP JUMPDEST PUSH1 0x1 PUSH1 0x0 SWAP1 SLOAD SWAP1 PUSH2 0x100 EXP SWAP1 DIV PUSH20 0xFFFFFFFFFFFFFFFFFFFFFFFFFFFFFFFFFFFFFFFF AND DUP2 JUMP JUMPDEST PUSH1 0x0 PUSH2 0x15E2 DUP3 PUSH2 0x1937 JUMP JUMPDEST SWAP1 POP DUP1 CALLVALUE LT ISZERO PUSH2 0x1627 JUMPI PUSH1 0x40 MLOAD PUSH32 0x8C379A000000000000000000000000000000000000000000000000000000000 DUP2 MSTORE PUSH1 0x4 ADD PUSH2 0x161E SWAP1 PUSH2 0x27B4 JUMP JUMPDEST PUSH1 0x40 MLOAD DUP1 SWAP2 SUB SWAP1 REVERT JUMPDEST PUSH1 0x0 DUP2 CALLVALUE PUSH2 0x1635 SWAP2 SWAP1 PUSH2 0x2803 JUMP JUMPDEST SWAP1 POP CALLER PUSH20 0xFFFFFFFFFFFFFFFFFFFFFFFFFFFFFFFFFFFFFFFF AND PUSH2 0x8FC DUP3 SWAP1 DUP2 ISZERO MUL SWAP1 PUSH1 0x40 MLOAD PUSH1 0x0 PUSH1 0x40 MLOAD DUP1 DUP4 SUB DUP2 DUP6 DUP9 DUP9 CALL SWAP4 POP POP POP POP ISZERO DUP1 ISZERO PUSH2 0x167D JUMPI RETURNDATASIZE PUSH1 0x0 DUP1 RETURNDATACOPY RETURNDATASIZE PUSH1 0x0 REVERT JUMPDEST POP PUSH1 0x0 DUP1 PUSH1 0x0 SWAP1 SLOAD SWAP1 PUSH2 0x100 EXP SWAP1 DIV PUSH20 0xFFFFFFFFFFFFFFFFFFFFFFFFFFFFFFFFFFFFFFFF AND PUSH20 0xFFFFFFFFFFFFFFFFFFFFFFFFFFFFFFFFFFFFFFFF AND PUSH4 0x70A08231 ADDRESS PUSH1 0x40 MLOAD DUP3 PUSH4 0xFFFFFFFF AND PUSH1 0xE0 SHL DUP2 MSTORE PUSH1 0x4 ADD PUSH2 0x16DA SWAP2 SWAP1 PUSH2 0x22D1 JUMP JUMPDEST PUSH1 0x20 PUSH1 0x40 MLOAD DUP1 DUP4 SUB DUP2 DUP7 GAS STATICCALL ISZERO DUP1 ISZERO PUSH2 0x16F7 JUMPI RETURNDATASIZE PUSH1 0x0 DUP1 RETURNDATACOPY RETURNDATASIZE PUSH1 0x0 REVERT JUMPDEST POP POP POP POP PUSH1 0x40 MLOAD RETURNDATASIZE PUSH1 0x1F NOT PUSH1 0x1F DUP3 ADD AND DUP3 ADD DUP1 PUSH1 0x40 MSTORE POP DUP2 ADD SWAP1 PUSH2 0x171B SWAP2 SWAP1 PUSH2 0x2301 JUMP JUMPDEST SWAP1 POP DUP1 DUP5 GT ISZERO PUSH2 0x1760 JUMPI PUSH1 0x40 MLOAD PUSH32 0x8C379A000000000000000000000000000000000000000000000000000000000 DUP2 MSTORE PUSH1 0x4 ADD PUSH2 0x1757 SWAP1 PUSH2 0x2883 JUMP JUMPDEST PUSH1 0x40 MLOAD DUP1 SWAP2 SUB SWAP1 REVERT JUMPDEST PUSH1 0x0 DUP1 SLOAD SWAP1 PUSH2 0x100 EXP SWAP1 DIV PUSH20 0xFFFFFFFFFFFFFFFFFFFFFFFFFFFFFFFFFFFFFFFF AND PUSH20 0xFFFFFFFFFFFFFFFFFFFFFFFFFFFFFFFFFFFFFFFF AND PUSH4 0xA9059CBB CALLER DUP7 PUSH1 0x40 MLOAD DUP4 PUSH4 0xFFFFFFFF AND PUSH1 0xE0 SHL DUP2 MSTORE PUSH1 0x4 ADD PUSH2 0x17BB SWAP3 SWAP2 SWAP1 PUSH2 0x28A3 JUMP JUMPDEST PUSH1 0x20 PUSH1 0x40 MLOAD DUP1 DUP4 SUB DUP2 PUSH1 0x0 DUP8 GAS CALL ISZERO DUP1 ISZERO PUSH2 0x17DA JUMPI RETURNDATASIZE PUSH1 0x0 DUP1 RETURNDATACOPY RETURNDATASIZE PUSH1 0x0 REVERT JUMPDEST POP POP POP POP PUSH1 0x40 MLOAD RETURNDATASIZE PUSH1 0x1F NOT PUSH1 0x1F DUP3 ADD AND DUP3 ADD DUP1 PUSH1 0x40 MSTORE POP DUP2 ADD SWAP1 PUSH2 0x17FE SWAP2 SWAP1 PUSH2 0x24B5 JUMP JUMPDEST POP DUP4 PUSH1 0x2 PUSH1 0x0 CALLER PUSH20 0xFFFFFFFFFFFFFFFFFFFFFFFFFFFFFFFFFFFFFFFF AND PUSH20 0xFFFFFFFFFFFFFFFFFFFFFFFFFFFFFFFFFFFFFFFF AND DUP2 MSTORE PUSH1 0x20 ADD SWAP1 DUP2 MSTORE PUSH1 0x20 ADD PUSH1 0x0 KECCAK256 PUSH1 0x0 ADD PUSH1 0x0 DUP3 DUP3 SLOAD PUSH2 0x1851 SWAP2 SWAP1 PUSH2 0x28CC JUMP JUMPDEST SWAP3 POP POP DUP2 SWAP1 SSTORE POP POP POP POP POP JUMP JUMPDEST PUSH1 0x60 PUSH1 0x7 DUP1 SLOAD DUP1 PUSH1 0x20 MUL PUSH1 0x20 ADD PUSH1 0x40 MLOAD SWAP1 DUP2 ADD PUSH1 0x40 MSTORE DUP1 SWAP3 SWAP2 SWAP1 DUP2 DUP2 MSTORE PUSH1 0x20 ADD PUSH1 0x0 SWAP1 JUMPDEST DUP3 DUP3 LT ISZERO PUSH2 0x192E JUMPI DUP4 DUP3 SWAP1 PUSH1 0x0 MSTORE PUSH1 0x20 PUSH1 0x0 KECCAK256 ADD DUP1 SLOAD PUSH2 0x18A1 SWAP1 PUSH2 0x1FE3 JUMP JUMPDEST DUP1 PUSH1 0x1F ADD PUSH1 0x20 DUP1 SWAP2 DIV MUL PUSH1 0x20 ADD PUSH1 0x40 MLOAD SWAP1 DUP2 ADD PUSH1 0x40 MSTORE DUP1 SWAP3 SWAP2 SWAP1 DUP2 DUP2 MSTORE PUSH1 0x20 ADD DUP3 DUP1 SLOAD PUSH2 0x18CD SWAP1 PUSH2 0x1FE3 JUMP JUMPDEST DUP1 ISZERO PUSH2 0x191A JUMPI DUP1 PUSH1 0x1F LT PUSH2 0x18EF JUMPI PUSH2 0x100 DUP1 DUP4 SLOAD DIV MUL DUP4 MSTORE SWAP2 PUSH1 0x20 ADD SWAP2 PUSH2 0x191A JUMP JUMPDEST DUP3 ADD SWAP2 SWAP1 PUSH1 0x0 MSTORE PUSH1 0x20 PUSH1 0x0 KECCAK256 SWAP1 JUMPDEST DUP2 SLOAD DUP2 MSTORE SWAP1 PUSH1 0x1 ADD SWAP1 PUSH1 0x20 ADD DUP1 DUP4 GT PUSH2 0x18FD JUMPI DUP3 SWAP1 SUB PUSH1 0x1F AND DUP3 ADD SWAP2 JUMPDEST POP POP POP POP POP DUP2 MSTORE PUSH1 0x20 ADD SWAP1 PUSH1 0x1 ADD SWAP1 PUSH2 0x1882 JUMP JUMPDEST POP POP POP POP SWAP1 POP SWAP1 JUMP JUMPDEST PUSH1 0x0 PUSH8 0xDE0B6B3A7640000 DUP3 PUSH2 0x194D SWAP2 SWAP1 PUSH2 0x2900 JUMP JUMPDEST SWAP1 POP SWAP2 SWAP1 POP JUMP JUMPDEST PUSH1 0x0 PUSH1 0x40 MLOAD SWAP1 POP SWAP1 JUMP JUMPDEST PUSH1 0x0 DUP1 REVERT JUMPDEST PUSH1 0x0 DUP1 REVERT JUMPDEST PUSH1 0x0 DUP1 REVERT JUMPDEST PUSH1 0x0 DUP1 REVERT JUMPDEST PUSH1 0x0 PUSH1 0x1F NOT PUSH1 0x1F DUP4 ADD AND SWAP1 POP SWAP2 SWAP1 POP JUMP JUMPDEST PUSH32 0x4E487B7100000000000000000000000000000000000000000000000000000000 PUSH1 0x0 MSTORE PUSH1 0x41 PUSH1 0x4 MSTORE PUSH1 0x24 PUSH1 0x0 REVERT JUMPDEST PUSH2 0x19BB DUP3 PUSH2 0x1972 JUMP JUMPDEST DUP2 ADD DUP2 DUP2 LT PUSH8 0xFFFFFFFFFFFFFFFF DUP3 GT OR ISZERO PUSH2 0x19DA JUMPI PUSH2 0x19D9 PUSH2 0x1983 JUMP JUMPDEST JUMPDEST DUP1 PUSH1 0x40 MSTORE POP POP POP JUMP JUMPDEST PUSH1 0x0 PUSH2 0x19ED PUSH2 0x1954 JUMP JUMPDEST SWAP1 POP PUSH2 0x19F9 DUP3 DUP3 PUSH2 0x19B2 JUMP JUMPDEST SWAP2 SWAP1 POP JUMP JUMPDEST PUSH1 0x0 PUSH8 0xFFFFFFFFFFFFFFFF DUP3 GT ISZERO PUSH2 0x1A19 JUMPI PUSH2 0x1A18 PUSH2 0x1983 JUMP JUMPDEST JUMPDEST PUSH2 0x1A22 DUP3 PUSH2 0x1972 JUMP JUMPDEST SWAP1 POP PUSH1 0x20 DUP2 ADD SWAP1 POP SWAP2 SWAP1 POP JUMP JUMPDEST DUP3 DUP2 DUP4 CALLDATACOPY PUSH1 0x0 DUP4 DUP4 ADD MSTORE POP POP POP JUMP JUMPDEST PUSH1 0x0 PUSH2 0x1A51 PUSH2 0x1A4C DUP5 PUSH2 0x19FE JUMP JUMPDEST PUSH2 0x19E3 JUMP JUMPDEST SWAP1 POP DUP3 DUP2 MSTORE PUSH1 0x20 DUP2 ADD DUP5 DUP5 DUP5 ADD GT ISZERO PUSH2 0x1A6D JUMPI PUSH2 0x1A6C PUSH2 0x196D JUMP JUMPDEST JUMPDEST PUSH2 0x1A78 DUP5 DUP3 DUP6 PUSH2 0x1A2F JUMP JUMPDEST POP SWAP4 SWAP3 POP POP POP JUMP JUMPDEST PUSH1 0x0 DUP3 PUSH1 0x1F DUP4 ADD SLT PUSH2 0x1A95 JUMPI PUSH2 0x1A94 PUSH2 0x1968 JUMP JUMPDEST JUMPDEST DUP2 CALLDATALOAD PUSH2 0x1AA5 DUP5 DUP3 PUSH1 0x20 DUP7 ADD PUSH2 0x1A3E JUMP JUMPDEST SWAP2 POP POP SWAP3 SWAP2 POP POP JUMP JUMPDEST PUSH1 0x0 PUSH1 0x20 DUP3 DUP5 SUB SLT ISZERO PUSH2 0x1AC4 JUMPI PUSH2 0x1AC3 PUSH2 0x195E JUMP JUMPDEST JUMPDEST PUSH1 0x0 DUP3 ADD CALLDATALOAD PUSH8 0xFFFFFFFFFFFFFFFF DUP2 GT ISZERO PUSH2 0x1AE2 JUMPI PUSH2 0x1AE1 PUSH2 0x1963 JUMP JUMPDEST JUMPDEST PUSH2 0x1AEE DUP5 DUP3 DUP6 ADD PUSH2 0x1A80 JUMP JUMPDEST SWAP2 POP POP SWAP3 SWAP2 POP POP JUMP JUMPDEST PUSH1 0x0 DUP2 SWAP1 POP SWAP2 SWAP1 POP JUMP JUMPDEST PUSH2 0x1B0A DUP2 PUSH2 0x1AF7 JUMP JUMPDEST DUP2 EQ PUSH2 0x1B15 JUMPI PUSH1 0x0 DUP1 REVERT JUMPDEST POP JUMP JUMPDEST PUSH1 0x0 DUP2 CALLDATALOAD SWAP1 POP PUSH2 0x1B27 DUP2 PUSH2 0x1B01 JUMP JUMPDEST SWAP3 SWAP2 POP POP JUMP JUMPDEST PUSH1 0x0 DUP1 PUSH1 0x40 DUP4 DUP6 SUB SLT ISZERO PUSH2 0x1B44 JUMPI PUSH2 0x1B43 PUSH2 0x195E JUMP JUMPDEST JUMPDEST PUSH1 0x0 DUP4 ADD CALLDATALOAD PUSH8 0xFFFFFFFFFFFFFFFF DUP2 GT ISZERO PUSH2 0x1B62 JUMPI PUSH2 0x1B61 PUSH2 0x1963 JUMP JUMPDEST JUMPDEST PUSH2 0x1B6E DUP6 DUP3 DUP7 ADD PUSH2 0x1A80 JUMP JUMPDEST SWAP3 POP POP PUSH1 0x20 PUSH2 0x1B7F DUP6 DUP3 DUP7 ADD PUSH2 0x1B18 JUMP JUMPDEST SWAP2 POP POP SWAP3 POP SWAP3 SWAP1 POP JUMP JUMPDEST PUSH1 0x0 DUP2 MLOAD SWAP1 POP SWAP2 SWAP1 POP JUMP JUMPDEST PUSH1 0x0 DUP3 DUP3 MSTORE PUSH1 0x20 DUP3 ADD SWAP1 POP SWAP3 SWAP2 POP POP JUMP JUMPDEST PUSH1 0x0 JUMPDEST DUP4 DUP2 LT ISZERO PUSH2 0x1BC3 JUMPI DUP1 DUP3 ADD MLOAD DUP2 DUP5 ADD MSTORE PUSH1 0x20 DUP2 ADD SWAP1 POP PUSH2 0x1BA8 JUMP JUMPDEST PUSH1 0x0 DUP5 DUP5 ADD MSTORE POP POP POP POP JUMP JUMPDEST PUSH1 0x0 PUSH2 0x1BDA DUP3 PUSH2 0x1B89 JUMP JUMPDEST PUSH2 0x1BE4 DUP2 DUP6 PUSH2 0x1B94 JUMP JUMPDEST SWAP4 POP PUSH2 0x1BF4 DUP2 DUP6 PUSH1 0x20 DUP7 ADD PUSH2 0x1BA5 JUMP JUMPDEST PUSH2 0x1BFD DUP2 PUSH2 0x1972 JUMP JUMPDEST DUP5 ADD SWAP2 POP POP SWAP3 SWAP2 POP POP JUMP JUMPDEST PUSH2 0x1C11 DUP2 PUSH2 0x1AF7 JUMP JUMPDEST DUP3 MSTORE POP POP JUMP JUMPDEST PUSH1 0x0 DUP2 ISZERO ISZERO SWAP1 POP SWAP2 SWAP1 POP JUMP JUMPDEST PUSH2 0x1C2C DUP2 PUSH2 0x1C17 JUMP JUMPDEST DUP3 MSTORE POP POP JUMP JUMPDEST PUSH1 0x0 PUSH1 0x60 DUP3 ADD SWAP1 POP DUP2 DUP2 SUB PUSH1 0x0 DUP4 ADD MSTORE PUSH2 0x1C4C DUP2 DUP7 PUSH2 0x1BCF JUMP JUMPDEST SWAP1 POP PUSH2 0x1C5B PUSH1 0x20 DUP4 ADD DUP6 PUSH2 0x1C08 JUMP JUMPDEST PUSH2 0x1C68 PUSH1 0x40 DUP4 ADD DUP5 PUSH2 0x1C23 JUMP JUMPDEST SWAP5 SWAP4 POP POP POP POP JUMP JUMPDEST PUSH1 0x0 DUP2 MLOAD SWAP1 POP SWAP2 SWAP1 POP JUMP JUMPDEST PUSH1 0x0 DUP3 DUP3 MSTORE PUSH1 0x20 DUP3 ADD SWAP1 POP SWAP3 SWAP2 POP POP JUMP JUMPDEST PUSH1 0x0 DUP2 SWAP1 POP PUSH1 0x20 DUP3 ADD SWAP1 POP SWAP2 SWAP1 POP JUMP JUMPDEST PUSH1 0x0 DUP3 DUP3 MSTORE PUSH1 0x20 DUP3 ADD SWAP1 POP SWAP3 SWAP2 POP POP JUMP JUMPDEST PUSH1 0x0 PUSH2 0x1CB8 DUP3 PUSH2 0x1B89 JUMP JUMPDEST PUSH2 0x1CC2 DUP2 DUP6 PUSH2 0x1C9C JUMP JUMPDEST SWAP4 POP PUSH2 0x1CD2 DUP2 DUP6 PUSH1 0x20 DUP7 ADD PUSH2 0x1BA5 JUMP JUMPDEST PUSH2 0x1CDB DUP2 PUSH2 0x1972 JUMP JUMPDEST DUP5 ADD SWAP2 POP POP SWAP3 SWAP2 POP POP JUMP JUMPDEST PUSH1 0x0 PUSH2 0x1CF2 DUP4 DUP4 PUSH2 0x1CAD JUMP JUMPDEST SWAP1 POP SWAP3 SWAP2 POP POP JUMP JUMPDEST PUSH1 0x0 PUSH1 0x20 DUP3 ADD SWAP1 POP SWAP2 SWAP1 POP JUMP JUMPDEST PUSH1 0x0 PUSH2 0x1D12 DUP3 PUSH2 0x1C70 JUMP JUMPDEST PUSH2 0x1D1C DUP2 DUP6 PUSH2 0x1C7B JUMP JUMPDEST SWAP4 POP DUP4 PUSH1 0x20 DUP3 MUL DUP6 ADD PUSH2 0x1D2E DUP6 PUSH2 0x1C8C JUMP JUMPDEST DUP1 PUSH1 0x0 JUMPDEST DUP6 DUP2 LT ISZERO PUSH2 0x1D6A JUMPI DUP5 DUP5 SUB DUP10 MSTORE DUP2 MLOAD PUSH2 0x1D4B DUP6 DUP3 PUSH2 0x1CE6 JUMP JUMPDEST SWAP5 POP PUSH2 0x1D56 DUP4 PUSH2 0x1CFA JUMP JUMPDEST SWAP3 POP PUSH1 0x20 DUP11 ADD SWAP10 POP POP PUSH1 0x1 DUP2 ADD SWAP1 POP PUSH2 0x1D32 JUMP JUMPDEST POP DUP3 SWAP8 POP DUP8 SWAP6 POP POP POP POP POP POP SWAP3 SWAP2 POP POP JUMP JUMPDEST PUSH1 0x0 PUSH1 0x20 DUP3 ADD SWAP1 POP DUP2 DUP2 SUB PUSH1 0x0 DUP4 ADD MSTORE PUSH2 0x1D96 DUP2 DUP5 PUSH2 0x1D07 JUMP JUMPDEST SWAP1 POP SWAP3 SWAP2 POP POP JUMP JUMPDEST PUSH1 0x0 PUSH1 0x20 DUP3 ADD SWAP1 POP PUSH2 0x1DB3 PUSH1 0x0 DUP4 ADD DUP5 PUSH2 0x1C08 JUMP JUMPDEST SWAP3 SWAP2 POP POP JUMP JUMPDEST PUSH1 0x0 PUSH1 0x20 DUP3 DUP5 SUB SLT ISZERO PUSH2 0x1DCF JUMPI PUSH2 0x1DCE PUSH2 0x195E JUMP JUMPDEST JUMPDEST PUSH1 0x0 PUSH2 0x1DDD DUP5 DUP3 DUP6 ADD PUSH2 0x1B18 JUMP JUMPDEST SWAP2 POP POP SWAP3 SWAP2 POP POP JUMP JUMPDEST PUSH1 0x0 PUSH20 0xFFFFFFFFFFFFFFFFFFFFFFFFFFFFFFFFFFFFFFFF DUP3 AND SWAP1 POP SWAP2 SWAP1 POP JUMP JUMPDEST PUSH1 0x0 PUSH2 0x1E11 DUP3 PUSH2 0x1DE6 JUMP JUMPDEST SWAP1 POP SWAP2 SWAP1 POP JUMP JUMPDEST PUSH2 0x1E21 DUP2 PUSH2 0x1E06 JUMP JUMPDEST DUP2 EQ PUSH2 0x1E2C JUMPI PUSH1 0x0 DUP1 REVERT JUMPDEST POP JUMP JUMPDEST PUSH1 0x0 DUP2 CALLDATALOAD SWAP1 POP PUSH2 0x1E3E DUP2 PUSH2 0x1E18 JUMP JUMPDEST SWAP3 SWAP2 POP POP JUMP JUMPDEST PUSH1 0x0 PUSH1 0x20 DUP3 DUP5 SUB SLT ISZERO PUSH2 0x1E5A JUMPI PUSH2 0x1E59 PUSH2 0x195E JUMP JUMPDEST JUMPDEST PUSH1 0x0 PUSH2 0x1E68 DUP5 DUP3 DUP6 ADD PUSH2 0x1E2F JUMP JUMPDEST SWAP2 POP POP SWAP3 SWAP2 POP POP JUMP JUMPDEST PUSH1 0x0 PUSH2 0x1E7C DUP3 PUSH2 0x1DE6 JUMP JUMPDEST SWAP1 POP SWAP2 SWAP1 POP JUMP JUMPDEST PUSH2 0x1E8C DUP2 PUSH2 0x1E71 JUMP JUMPDEST DUP3 MSTORE POP POP JUMP JUMPDEST PUSH1 0x0 PUSH1 0x20 DUP3 ADD SWAP1 POP PUSH2 0x1EA7 PUSH1 0x0 DUP4 ADD DUP5 PUSH2 0x1E83 JUMP JUMPDEST SWAP3 SWAP2 POP POP JUMP JUMPDEST PUSH32 0x4E6F207469656E6573207065726D69736F73207061726120656A656375746172 PUSH1 0x0 DUP3 ADD MSTORE PUSH32 0x20657374612066756E63696F6E00000000000000000000000000000000000000 PUSH1 0x20 DUP3 ADD MSTORE POP JUMP JUMPDEST PUSH1 0x0 PUSH2 0x1F09 PUSH1 0x2D DUP4 PUSH2 0x1B94 JUMP JUMPDEST SWAP2 POP PUSH2 0x1F14 DUP3 PUSH2 0x1EAD JUMP JUMPDEST PUSH1 0x40 DUP3 ADD SWAP1 POP SWAP2 SWAP1 POP JUMP JUMPDEST PUSH1 0x0 PUSH1 0x20 DUP3 ADD SWAP1 POP DUP2 DUP2 SUB PUSH1 0x0 DUP4 ADD MSTORE PUSH2 0x1F38 DUP2 PUSH2 0x1EFC JUMP JUMPDEST SWAP1 POP SWAP2 SWAP1 POP JUMP JUMPDEST PUSH1 0x0 DUP2 SWAP1 POP SWAP3 SWAP2 POP POP JUMP JUMPDEST PUSH1 0x0 PUSH2 0x1F55 DUP3 PUSH2 0x1B89 JUMP JUMPDEST PUSH2 0x1F5F DUP2 DUP6 PUSH2 0x1F3F JUMP JUMPDEST SWAP4 POP PUSH2 0x1F6F DUP2 DUP6 PUSH1 0x20 DUP7 ADD PUSH2 0x1BA5 JUMP JUMPDEST DUP1 DUP5 ADD SWAP2 POP POP SWAP3 SWAP2 POP POP JUMP JUMPDEST PUSH1 0x0 PUSH2 0x1F87 DUP3 DUP5 PUSH2 0x1F4A JUMP JUMPDEST SWAP2 POP DUP2 SWAP1 POP SWAP3 SWAP2 POP POP JUMP JUMPDEST PUSH1 0x0 PUSH1 0x20 DUP3 ADD SWAP1 POP DUP2 DUP2 SUB PUSH1 0x0 DUP4 ADD MSTORE PUSH2 0x1FAC DUP2 DUP5 PUSH2 0x1BCF JUMP JUMPDEST SWAP1 POP SWAP3 SWAP2 POP POP JUMP JUMPDEST PUSH32 0x4E487B7100000000000000000000000000000000000000000000000000000000 PUSH1 0x0 MSTORE PUSH1 0x22 PUSH1 0x4 MSTORE PUSH1 0x24 PUSH1 0x0 REVERT JUMPDEST PUSH1 0x0 PUSH1 0x2 DUP3 DIV SWAP1 POP PUSH1 0x1 DUP3 AND DUP1 PUSH2 0x1FFB JUMPI PUSH1 0x7F DUP3 AND SWAP2 POP JUMPDEST PUSH1 0x20 DUP3 LT DUP2 SUB PUSH2 0x200E JUMPI PUSH2 0x200D PUSH2 0x1FB4 JUMP JUMPDEST JUMPDEST POP SWAP2 SWAP1 POP JUMP JUMPDEST PUSH1 0x0 DUP2 SWAP1 POP DUP2 PUSH1 0x0 MSTORE PUSH1 0x20 PUSH1 0x0 KECCAK256 SWAP1 POP SWAP2 SWAP1 POP JUMP JUMPDEST PUSH1 0x0 PUSH1 0x20 PUSH1 0x1F DUP4 ADD DIV SWAP1 POP SWAP2 SWAP1 POP JUMP JUMPDEST PUSH1 0x0 DUP3 DUP3 SHL SWAP1 POP SWAP3 SWAP2 POP POP JUMP JUMPDEST PUSH1 0x0 PUSH1 0x8 DUP4 MUL PUSH2 0x2076 PUSH32 0xFFFFFFFFFFFFFFFFFFFFFFFFFFFFFFFFFFFFFFFFFFFFFFFFFFFFFFFFFFFFFFFF DUP3 PUSH2 0x2039 JUMP JUMPDEST PUSH2 0x2080 DUP7 DUP4 PUSH2 0x2039 JUMP JUMPDEST SWAP6 POP DUP1 NOT DUP5 AND SWAP4 POP DUP1 DUP7 AND DUP5 OR SWAP3 POP POP POP SWAP4 SWAP3 POP POP POP JUMP JUMPDEST PUSH1 0x0 DUP2 SWAP1 POP SWAP2 SWAP1 POP JUMP JUMPDEST PUSH1 0x0 PUSH2 0x20BD PUSH2 0x20B8 PUSH2 0x20B3 DUP5 PUSH2 0x1AF7 JUMP JUMPDEST PUSH2 0x2098 JUMP JUMPDEST PUSH2 0x1AF7 JUMP JUMPDEST SWAP1 POP SWAP2 SWAP1 POP JUMP JUMPDEST PUSH1 0x0 DUP2 SWAP1 POP SWAP2 SWAP1 POP JUMP JUMPDEST PUSH2 0x20D7 DUP4 PUSH2 0x20A2 JUMP JUMPDEST PUSH2 0x20EB PUSH2 0x20E3 DUP3 PUSH2 0x20C4 JUMP JUMPDEST DUP5 DUP5 SLOAD PUSH2 0x2046 JUMP JUMPDEST DUP3 SSTORE POP POP POP POP JUMP JUMPDEST PUSH1 0x0 SWAP1 JUMP JUMPDEST PUSH2 0x2100 PUSH2 0x20F3 JUMP JUMPDEST PUSH2 0x210B DUP2 DUP5 DUP5 PUSH2 0x20CE JUMP JUMPDEST POP POP POP JUMP JUMPDEST JUMPDEST DUP2 DUP2 LT ISZERO PUSH2 0x212F JUMPI PUSH2 0x2124 PUSH1 0x0 DUP3 PUSH2 0x20F8 JUMP JUMPDEST PUSH1 0x1 DUP2 ADD SWAP1 POP PUSH2 0x2111 JUMP JUMPDEST POP POP JUMP JUMPDEST PUSH1 0x1F DUP3 GT ISZERO PUSH2 0x2174 JUMPI PUSH2 0x2145 DUP2 PUSH2 0x2014 JUMP JUMPDEST PUSH2 0x214E DUP5 PUSH2 0x2029 JUMP JUMPDEST DUP2 ADD PUSH1 0x20 DUP6 LT ISZERO PUSH2 0x215D JUMPI DUP2 SWAP1 POP JUMPDEST PUSH2 0x2171 PUSH2 0x2169 DUP6 PUSH2 0x2029 JUMP JUMPDEST DUP4 ADD DUP3 PUSH2 0x2110 JUMP JUMPDEST POP POP JUMPDEST POP POP POP JUMP JUMPDEST PUSH1 0x0 DUP3 DUP3 SHR SWAP1 POP SWAP3 SWAP2 POP POP JUMP JUMPDEST PUSH1 0x0 PUSH2 0x2197 PUSH1 0x0 NOT DUP5 PUSH1 0x8 MUL PUSH2 0x2179 JUMP JUMPDEST NOT DUP1 DUP4 AND SWAP2 POP POP SWAP3 SWAP2 POP POP JUMP JUMPDEST PUSH1 0x0 PUSH2 0x21B0 DUP4 DUP4 PUSH2 0x2186 JUMP JUMPDEST SWAP2 POP DUP3 PUSH1 0x2 MUL DUP3 OR SWAP1 POP SWAP3 SWAP2 POP POP JUMP JUMPDEST PUSH2 0x21C9 DUP3 PUSH2 0x1B89 JUMP JUMPDEST PUSH8 0xFFFFFFFFFFFFFFFF DUP2 GT ISZERO PUSH2 0x21E2 JUMPI PUSH2 0x21E1 PUSH2 0x1983 JUMP JUMPDEST JUMPDEST PUSH2 0x21EC DUP3 SLOAD PUSH2 0x1FE3 JUMP JUMPDEST PUSH2 0x21F7 DUP3 DUP3 DUP6 PUSH2 0x2133 JUMP JUMPDEST PUSH1 0x0 PUSH1 0x20 SWAP1 POP PUSH1 0x1F DUP4 GT PUSH1 0x1 DUP2 EQ PUSH2 0x222A JUMPI PUSH1 0x0 DUP5 ISZERO PUSH2 0x2218 JUMPI DUP3 DUP8 ADD MLOAD SWAP1 POP JUMPDEST PUSH2 0x2222 DUP6 DUP3 PUSH2 0x21A4 JUMP JUMPDEST DUP7 SSTORE POP PUSH2 0x228A JUMP JUMPDEST PUSH1 0x1F NOT DUP5 AND PUSH2 0x2238 DUP7 PUSH2 0x2014 JUMP JUMPDEST PUSH1 0x0 JUMPDEST DUP3 DUP2 LT ISZERO PUSH2 0x2260 JUMPI DUP5 DUP10 ADD MLOAD DUP3 SSTORE PUSH1 0x1 DUP3 ADD SWAP2 POP PUSH1 0x20 DUP6 ADD SWAP5 POP PUSH1 0x20 DUP2 ADD SWAP1 POP PUSH2 0x223B JUMP JUMPDEST DUP7 DUP4 LT ISZERO PUSH2 0x227D JUMPI DUP5 DUP10 ADD MLOAD PUSH2 0x2279 PUSH1 0x1F DUP10 AND DUP3 PUSH2 0x2186 JUMP JUMPDEST DUP4 SSTORE POP JUMPDEST PUSH1 0x1 PUSH1 0x2 DUP9 MUL ADD DUP9 SSTORE POP POP POP JUMPDEST POP POP POP POP POP POP JUMP JUMPDEST PUSH1 0x0 PUSH1 0x40 DUP3 ADD SWAP1 POP DUP2 DUP2 SUB PUSH1 0x0 DUP4 ADD MSTORE PUSH2 0x22AC DUP2 DUP6 PUSH2 0x1BCF JUMP JUMPDEST SWAP1 POP PUSH2 0x22BB PUSH1 0x20 DUP4 ADD DUP5 PUSH2 0x1C08 JUMP JUMPDEST SWAP4 SWAP3 POP POP POP JUMP JUMPDEST PUSH2 0x22CB DUP2 PUSH2 0x1E06 JUMP JUMPDEST DUP3 MSTORE POP POP JUMP JUMPDEST PUSH1 0x0 PUSH1 0x20 DUP3 ADD SWAP1 POP PUSH2 0x22E6 PUSH1 0x0 DUP4 ADD DUP5 PUSH2 0x22C2 JUMP JUMPDEST SWAP3 SWAP2 POP POP JUMP JUMPDEST PUSH1 0x0 DUP2 MLOAD SWAP1 POP PUSH2 0x22FB DUP2 PUSH2 0x1B01 JUMP JUMPDEST SWAP3 SWAP2 POP POP JUMP JUMPDEST PUSH1 0x0 PUSH1 0x20 DUP3 DUP5 SUB SLT ISZERO PUSH2 0x2317 JUMPI PUSH2 0x2316 PUSH2 0x195E JUMP JUMPDEST JUMPDEST PUSH1 0x0 PUSH2 0x2325 DUP5 DUP3 DUP6 ADD PUSH2 0x22EC JUMP JUMPDEST SWAP2 POP POP SWAP3 SWAP2 POP POP JUMP JUMPDEST PUSH32 0x4E6563657369746173206465766F6C76657220756E612063616E746964616420 PUSH1 0x0 DUP3 ADD MSTORE PUSH32 0x706F73697469766120646520746F6B656E730000000000000000000000000000 PUSH1 0x20 DUP3 ADD MSTORE POP JUMP JUMPDEST PUSH1 0x0 PUSH2 0x238A PUSH1 0x32 DUP4 PUSH2 0x1B94 JUMP JUMPDEST SWAP2 POP PUSH2 0x2395 DUP3 PUSH2 0x232E JUMP JUMPDEST PUSH1 0x40 DUP3 ADD SWAP1 POP SWAP2 SWAP1 POP JUMP JUMPDEST PUSH1 0x0 PUSH1 0x20 DUP3 ADD SWAP1 POP DUP2 DUP2 SUB PUSH1 0x0 DUP4 ADD MSTORE PUSH2 0x23B9 DUP2 PUSH2 0x237D JUMP JUMPDEST SWAP1 POP SWAP2 SWAP1 POP JUMP JUMPDEST PUSH32 0x4E6F207469656E6573206C6F7320746F6B656E73207175652064657365617320 PUSH1 0x0 DUP3 ADD MSTORE PUSH32 0x6465766F6C766572000000000000000000000000000000000000000000000000 PUSH1 0x20 DUP3 ADD MSTORE POP JUMP JUMPDEST PUSH1 0x0 PUSH2 0x241C PUSH1 0x28 DUP4 PUSH2 0x1B94 JUMP JUMPDEST SWAP2 POP PUSH2 0x2427 DUP3 PUSH2 0x23C0 JUMP JUMPDEST PUSH1 0x40 DUP3 ADD SWAP1 POP SWAP2 SWAP1 POP JUMP JUMPDEST PUSH1 0x0 PUSH1 0x20 DUP3 ADD SWAP1 POP DUP2 DUP2 SUB PUSH1 0x0 DUP4 ADD MSTORE PUSH2 0x244B DUP2 PUSH2 0x240F JUMP JUMPDEST SWAP1 POP SWAP2 SWAP1 POP JUMP JUMPDEST PUSH1 0x0 PUSH1 0x60 DUP3 ADD SWAP1 POP PUSH2 0x2467 PUSH1 0x0 DUP4 ADD DUP7 PUSH2 0x22C2 JUMP JUMPDEST PUSH2 0x2474 PUSH1 0x20 DUP4 ADD DUP6 PUSH2 0x22C2 JUMP JUMPDEST PUSH2 0x2481 PUSH1 0x40 DUP4 ADD DUP5 PUSH2 0x1C08 JUMP JUMPDEST SWAP5 SWAP4 POP POP POP POP JUMP JUMPDEST PUSH2 0x2492 DUP2 PUSH2 0x1C17 JUMP JUMPDEST DUP2 EQ PUSH2 0x249D JUMPI PUSH1 0x0 DUP1 REVERT JUMPDEST POP JUMP JUMPDEST PUSH1 0x0 DUP2 MLOAD SWAP1 POP PUSH2 0x24AF DUP2 PUSH2 0x2489 JUMP JUMPDEST SWAP3 SWAP2 POP POP JUMP JUMPDEST PUSH1 0x0 PUSH1 0x20 DUP3 DUP5 SUB SLT ISZERO PUSH2 0x24CB JUMPI PUSH2 0x24CA PUSH2 0x195E JUMP JUMPDEST JUMPDEST PUSH1 0x0 PUSH2 0x24D9 DUP5 DUP3 DUP6 ADD PUSH2 0x24A0 JUMP JUMPDEST SWAP2 POP POP SWAP3 SWAP2 POP POP JUMP JUMPDEST PUSH32 0x4573746120617472616363696F6E206E6F206573746120646973706F6E69626C PUSH1 0x0 DUP3 ADD MSTORE PUSH32 0x6500000000000000000000000000000000000000000000000000000000000000 PUSH1 0x20 DUP3 ADD MSTORE POP JUMP JUMPDEST PUSH1 0x0 PUSH2 0x253E PUSH1 0x21 DUP4 PUSH2 0x1B94 JUMP JUMPDEST SWAP2 POP PUSH2 0x2549 DUP3 PUSH2 0x24E2 JUMP JUMPDEST PUSH1 0x40 DUP3 ADD SWAP1 POP SWAP2 SWAP1 POP JUMP JUMPDEST PUSH1 0x0 PUSH1 0x20 DUP3 ADD SWAP1 POP DUP2 DUP2 SUB PUSH1 0x0 DUP4 ADD MSTORE PUSH2 0x256D DUP2 PUSH2 0x2531 JUMP JUMPDEST SWAP1 POP SWAP2 SWAP1 POP JUMP JUMPDEST PUSH32 0x4E6F207469656E6520737566696369656E74652073616C646F20706172612065 PUSH1 0x0 DUP3 ADD MSTORE PUSH32 0x73746120617472616363696F6E00000000000000000000000000000000000000 PUSH1 0x20 DUP3 ADD MSTORE POP JUMP JUMPDEST PUSH1 0x0 PUSH2 0x25D0 PUSH1 0x2D DUP4 PUSH2 0x1B94 JUMP JUMPDEST SWAP2 POP PUSH2 0x25DB DUP3 PUSH2 0x2574 JUMP JUMPDEST PUSH1 0x40 DUP3 ADD SWAP1 POP SWAP2 SWAP1 POP JUMP JUMPDEST PUSH1 0x0 PUSH1 0x20 DUP3 ADD SWAP1 POP DUP2 DUP2 SUB PUSH1 0x0 DUP4 ADD MSTORE PUSH2 0x25FF DUP2 PUSH2 0x25C3 JUMP JUMPDEST SWAP1 POP SWAP2 SWAP1 POP JUMP JUMPDEST PUSH1 0x0 PUSH1 0x60 DUP3 ADD SWAP1 POP DUP2 DUP2 SUB PUSH1 0x0 DUP4 ADD MSTORE PUSH2 0x2620 DUP2 DUP7 PUSH2 0x1BCF JUMP JUMPDEST SWAP1 POP PUSH2 0x262F PUSH1 0x20 DUP4 ADD DUP6 PUSH2 0x1C08 JUMP JUMPDEST PUSH2 0x263C PUSH1 0x40 DUP4 ADD DUP5 PUSH2 0x22C2 JUMP JUMPDEST SWAP5 SWAP4 POP POP POP POP JUMP JUMPDEST PUSH32 0x4573746120636F6D696461206E6F206573746120646973706F6E69626C650000 PUSH1 0x0 DUP3 ADD MSTORE POP JUMP JUMPDEST PUSH1 0x0 PUSH2 0x267A PUSH1 0x1E DUP4 PUSH2 0x1B94 JUMP JUMPDEST SWAP2 POP PUSH2 0x2685 DUP3 PUSH2 0x2644 JUMP JUMPDEST PUSH1 0x20 DUP3 ADD SWAP1 POP SWAP2 SWAP1 POP JUMP JUMPDEST PUSH1 0x0 PUSH1 0x20 DUP3 ADD SWAP1 POP DUP2 DUP2 SUB PUSH1 0x0 DUP4 ADD MSTORE PUSH2 0x26A9 DUP2 PUSH2 0x266D JUMP JUMPDEST SWAP1 POP SWAP2 SWAP1 POP JUMP JUMPDEST PUSH32 0x4E6F207469656E657320737566696369656E74657320746F6B656E7320706172 PUSH1 0x0 DUP3 ADD MSTORE PUSH32 0x6120706167617200000000000000000000000000000000000000000000000000 PUSH1 0x20 DUP3 ADD MSTORE POP JUMP JUMPDEST PUSH1 0x0 PUSH2 0x270C PUSH1 0x27 DUP4 PUSH2 0x1B94 JUMP JUMPDEST SWAP2 POP PUSH2 0x2717 DUP3 PUSH2 0x26B0 JUMP JUMPDEST PUSH1 0x40 DUP3 ADD SWAP1 POP SWAP2 SWAP1 POP JUMP JUMPDEST PUSH1 0x0 PUSH1 0x20 DUP3 ADD SWAP1 POP DUP2 DUP2 SUB PUSH1 0x0 DUP4 ADD MSTORE PUSH2 0x273B DUP2 PUSH2 0x26FF JUMP JUMPDEST SWAP1 POP SWAP2 SWAP1 POP JUMP JUMPDEST PUSH32 0x436F6D707261206D656E6F7320546F6B656E73206F207061676120636F6E206D PUSH1 0x0 DUP3 ADD MSTORE PUSH32 0x6173206574686572730000000000000000000000000000000000000000000000 PUSH1 0x20 DUP3 ADD MSTORE POP JUMP JUMPDEST PUSH1 0x0 PUSH2 0x279E PUSH1 0x29 DUP4 PUSH2 0x1B94 JUMP JUMPDEST SWAP2 POP PUSH2 0x27A9 DUP3 PUSH2 0x2742 JUMP JUMPDEST PUSH1 0x40 DUP3 ADD SWAP1 POP SWAP2 SWAP1 POP JUMP JUMPDEST PUSH1 0x0 PUSH1 0x20 DUP3 ADD SWAP1 POP DUP2 DUP2 SUB PUSH1 0x0 DUP4 ADD MSTORE PUSH2 0x27CD DUP2 PUSH2 0x2791 JUMP JUMPDEST SWAP1 POP SWAP2 SWAP1 POP JUMP JUMPDEST PUSH32 0x4E487B7100000000000000000000000000000000000000000000000000000000 PUSH1 0x0 MSTORE PUSH1 0x11 PUSH1 0x4 MSTORE PUSH1 0x24 PUSH1 0x0 REVERT JUMPDEST PUSH1 0x0 PUSH2 0x280E DUP3 PUSH2 0x1AF7 JUMP JUMPDEST SWAP2 POP PUSH2 0x2819 DUP4 PUSH2 0x1AF7 JUMP JUMPDEST SWAP3 POP DUP3 DUP3 SUB SWAP1 POP DUP2 DUP2 GT ISZERO PUSH2 0x2831 JUMPI PUSH2 0x2830 PUSH2 0x27D4 JUMP JUMPDEST JUMPDEST SWAP3 SWAP2 POP POP JUMP JUMPDEST PUSH32 0x436F6D70726120756E206E756D65726F206D656E6F7220646520546F6B656E73 PUSH1 0x0 DUP3 ADD MSTORE POP JUMP JUMPDEST PUSH1 0x0 PUSH2 0x286D PUSH1 0x20 DUP4 PUSH2 0x1B94 JUMP JUMPDEST SWAP2 POP PUSH2 0x2878 DUP3 PUSH2 0x2837 JUMP JUMPDEST PUSH1 0x20 DUP3 ADD SWAP1 POP SWAP2 SWAP1 POP JUMP JUMPDEST PUSH1 0x0 PUSH1 0x20 DUP3 ADD SWAP1 POP DUP2 DUP2 SUB PUSH1 0x0 DUP4 ADD MSTORE PUSH2 0x289C DUP2 PUSH2 0x2860 JUMP JUMPDEST SWAP1 POP SWAP2 SWAP1 POP JUMP JUMPDEST PUSH1 0x0 PUSH1 0x40 DUP3 ADD SWAP1 POP PUSH2 0x28B8 PUSH1 0x0 DUP4 ADD DUP6 PUSH2 0x22C2 JUMP JUMPDEST PUSH2 0x28C5 PUSH1 0x20 DUP4 ADD DUP5 PUSH2 0x1C08 JUMP JUMPDEST SWAP4 SWAP3 POP POP POP JUMP JUMPDEST PUSH1 0x0 PUSH2 0x28D7 DUP3 PUSH2 0x1AF7 JUMP JUMPDEST SWAP2 POP PUSH2 0x28E2 DUP4 PUSH2 0x1AF7 JUMP JUMPDEST SWAP3 POP DUP3 DUP3 ADD SWAP1 POP DUP1 DUP3 GT ISZERO PUSH2 0x28FA JUMPI PUSH2 0x28F9 PUSH2 0x27D4 JUMP JUMPDEST JUMPDEST SWAP3 SWAP2 POP POP JUMP JUMPDEST PUSH1 0x0 PUSH2 0x290B DUP3 PUSH2 0x1AF7 JUMP JUMPDEST SWAP2 POP PUSH2 0x2916 DUP4 PUSH2 0x1AF7 JUMP JUMPDEST SWAP3 POP DUP3 DUP3 MUL PUSH2 0x2924 DUP2 PUSH2 0x1AF7 JUMP JUMPDEST SWAP2 POP DUP3 DUP3 DIV DUP5 EQ DUP4 ISZERO OR PUSH2 0x293B JUMPI PUSH2 0x293A PUSH2 0x27D4 JUMP JUMPDEST JUMPDEST POP SWAP3 SWAP2 POP POP JUMP INVALID LOG2 PUSH5 0x6970667358 0x22 SLT KECCAK256 0xAD 0xDB PUSH29 0x2FCFDFB5896BFF92DAAAC1E9728A532D81553A5941E2CB32FEC70DD3B1 PUSH5 0x736F6C6343 STOP ADDMOD SLT STOP CALLER PUSH1 0x80 PUSH1 0x40 MSTORE CALLVALUE DUP1 ISZERO PUSH2 0x10 JUMPI PUSH1 0x0 DUP1 REVERT JUMPDEST POP PUSH1 0x40 MLOAD PUSH3 0x11B1 CODESIZE SUB DUP1 PUSH3 0x11B1 DUP4 CODECOPY DUP2 DUP2 ADD PUSH1 0x40 MSTORE DUP2 ADD SWAP1 PUSH2 0x34 SWAP2 SWAP1 PUSH2 0xC1 JUMP JUMPDEST DUP1 PUSH1 0x2 DUP2 SWAP1 SSTORE POP PUSH1 0x2 SLOAD PUSH1 0x0 DUP1 CALLER PUSH20 0xFFFFFFFFFFFFFFFFFFFFFFFFFFFFFFFFFFFFFFFF AND PUSH20 0xFFFFFFFFFFFFFFFFFFFFFFFFFFFFFFFFFFFFFFFF AND DUP2 MSTORE PUSH1 0x20 ADD SWAP1 DUP2 MSTORE PUSH1 0x20 ADD PUSH1 0x0 KECCAK256 DUP2 SWAP1 SSTORE POP POP PUSH2 0xEE JUMP JUMPDEST PUSH1 0x0 DUP1 REVERT JUMPDEST PUSH1 0x0 DUP2 SWAP1 POP SWAP2 SWAP1 POP JUMP JUMPDEST PUSH2 0x9E DUP2 PUSH2 0x8B JUMP JUMPDEST DUP2 EQ PUSH2 0xA9 JUMPI PUSH1 0x0 DUP1 REVERT JUMPDEST POP JUMP JUMPDEST PUSH1 0x0 DUP2 MLOAD SWAP1 POP PUSH2 0xBB DUP2 PUSH2 0x95 JUMP JUMPDEST SWAP3 SWAP2 POP POP JUMP JUMPDEST PUSH1 0x0 PUSH1 0x20 DUP3 DUP5 SUB SLT ISZERO PUSH2 0xD7 JUMPI PUSH2 0xD6 PUSH2 0x86 JUMP JUMPDEST JUMPDEST PUSH1 0x0 PUSH2 0xE5 DUP5 DUP3 DUP6 ADD PUSH2 0xAC JUMP JUMPDEST SWAP2 POP POP SWAP3 SWAP2 POP POP JUMP JUMPDEST PUSH2 0x10B3 DUP1 PUSH3 0xFE PUSH1 0x0 CODECOPY PUSH1 0x0 RETURN INVALID PUSH1 0x80 PUSH1 0x40 MSTORE CALLVALUE DUP1 ISZERO PUSH2 0x10 JUMPI PUSH1 0x0 DUP1 REVERT JUMPDEST POP PUSH1 0x4 CALLDATASIZE LT PUSH2 0xA9 JUMPI PUSH1 0x0 CALLDATALOAD PUSH1 0xE0 SHR DUP1 PUSH4 0x5E413C87 GT PUSH2 0x71 JUMPI DUP1 PUSH4 0x5E413C87 EQ PUSH2 0x166 JUMPI DUP1 PUSH4 0x70A08231 EQ PUSH2 0x196 JUMPI DUP1 PUSH4 0xA3F4DF7E EQ PUSH2 0x1C6 JUMPI DUP1 PUSH4 0xA9059CBB EQ PUSH2 0x1E4 JUMPI DUP1 PUSH4 0xDD62ED3E EQ PUSH2 0x214 JUMPI DUP1 PUSH4 0xF76F8D78 EQ PUSH2 0x244 JUMPI PUSH2 0xA9 JUMP JUMPDEST DUP1 PUSH4 0x95EA7B3 EQ PUSH2 0xAE JUMPI DUP1 PUSH4 0x18160DDD EQ PUSH2 0xDE JUMPI DUP1 PUSH4 0x1D43CC98 EQ PUSH2 0xFC JUMPI DUP1 PUSH4 0x23B872DD EQ PUSH2 0x118 JUMPI DUP1 PUSH4 0x2E0F2625 EQ PUSH2 0x148 JUMPI JUMPDEST PUSH1 0x0 DUP1 REVERT JUMPDEST PUSH2 0xC8 PUSH1 0x4 DUP1 CALLDATASIZE SUB DUP2 ADD SWAP1 PUSH2 0xC3 SWAP2 SWAP1 PUSH2 0xD41 JUMP JUMPDEST PUSH2 0x262 JUMP JUMPDEST PUSH1 0x40 MLOAD PUSH2 0xD5 SWAP2 SWAP1 PUSH2 0xD9C JUMP JUMPDEST PUSH1 0x40 MLOAD DUP1 SWAP2 SUB SWAP1 RETURN JUMPDEST PUSH2 0xE6 PUSH2 0x354 JUMP JUMPDEST PUSH1 0x40 MLOAD PUSH2 0xF3 SWAP2 SWAP1 PUSH2 0xDC6 JUMP JUMPDEST PUSH1 0x40 MLOAD DUP1 SWAP2 SUB SWAP1 RETURN JUMPDEST PUSH2 0x116 PUSH1 0x4 DUP1 CALLDATASIZE SUB DUP2 ADD SWAP1 PUSH2 0x111 SWAP2 SWAP1 PUSH2 0xDE1 JUMP JUMPDEST PUSH2 0x35E JUMP JUMPDEST STOP JUMPDEST PUSH2 0x132 PUSH1 0x4 DUP1 CALLDATASIZE SUB DUP2 ADD SWAP1 PUSH2 0x12D SWAP2 SWAP1 PUSH2 0xE0E JUMP JUMPDEST PUSH2 0x3CF JUMP JUMPDEST PUSH1 0x40 MLOAD PUSH2 0x13F SWAP2 SWAP1 PUSH2 0xD9C JUMP JUMPDEST PUSH1 0x40 MLOAD DUP1 SWAP2 SUB SWAP1 RETURN JUMPDEST PUSH2 0x150 PUSH2 0x74A JUMP JUMPDEST PUSH1 0x40 MLOAD PUSH2 0x15D SWAP2 SWAP1 PUSH2 0xE7D JUMP JUMPDEST PUSH1 0x40 MLOAD DUP1 SWAP2 SUB SWAP1 RETURN JUMPDEST PUSH2 0x180 PUSH1 0x4 DUP1 CALLDATASIZE SUB DUP2 ADD SWAP1 PUSH2 0x17B SWAP2 SWAP1 PUSH2 0xE0E JUMP JUMPDEST PUSH2 0x74F JUMP JUMPDEST PUSH1 0x40 MLOAD PUSH2 0x18D SWAP2 SWAP1 PUSH2 0xD9C JUMP JUMPDEST PUSH1 0x40 MLOAD DUP1 SWAP2 SUB SWAP1 RETURN JUMPDEST PUSH2 0x1B0 PUSH1 0x4 DUP1 CALLDATASIZE SUB DUP2 ADD SWAP1 PUSH2 0x1AB SWAP2 SWAP1 PUSH2 0xE98 JUMP JUMPDEST PUSH2 0x932 JUMP JUMPDEST PUSH1 0x40 MLOAD PUSH2 0x1BD SWAP2 SWAP1 PUSH2 0xDC6 JUMP JUMPDEST PUSH1 0x40 MLOAD DUP1 SWAP2 SUB SWAP1 RETURN JUMPDEST PUSH2 0x1CE PUSH2 0x97A JUMP JUMPDEST PUSH1 0x40 MLOAD PUSH2 0x1DB SWAP2 SWAP1 PUSH2 0xF55 JUMP JUMPDEST PUSH1 0x40 MLOAD DUP1 SWAP2 SUB SWAP1 RETURN JUMPDEST PUSH2 0x1FE PUSH1 0x4 DUP1 CALLDATASIZE SUB DUP2 ADD SWAP1 PUSH2 0x1F9 SWAP2 SWAP1 PUSH2 0xD41 JUMP JUMPDEST PUSH2 0x9B3 JUMP JUMPDEST PUSH1 0x40 MLOAD PUSH2 0x20B SWAP2 SWAP1 PUSH2 0xD9C JUMP JUMPDEST PUSH1 0x40 MLOAD DUP1 SWAP2 SUB SWAP1 RETURN JUMPDEST PUSH2 0x22E PUSH1 0x4 DUP1 CALLDATASIZE SUB DUP2 ADD SWAP1 PUSH2 0x229 SWAP2 SWAP1 PUSH2 0xF77 JUMP JUMPDEST PUSH2 0xB95 JUMP JUMPDEST PUSH1 0x40 MLOAD PUSH2 0x23B SWAP2 SWAP1 PUSH2 0xDC6 JUMP JUMPDEST PUSH1 0x40 MLOAD DUP1 SWAP2 SUB SWAP1 RETURN JUMPDEST PUSH2 0x24C PUSH2 0xC1C JUMP JUMPDEST PUSH1 0x40 MLOAD PUSH2 0x259 SWAP2 SWAP1 PUSH2 0xF55 JUMP JUMPDEST PUSH1 0x40 MLOAD DUP1 SWAP2 SUB SWAP1 RETURN JUMPDEST PUSH1 0x0 DUP2 PUSH1 0x1 PUSH1 0x0 CALLER PUSH20 0xFFFFFFFFFFFFFFFFFFFFFFFFFFFFFFFFFFFFFFFF AND PUSH20 0xFFFFFFFFFFFFFFFFFFFFFFFFFFFFFFFFFFFFFFFF AND DUP2 MSTORE PUSH1 0x20 ADD SWAP1 DUP2 MSTORE PUSH1 0x20 ADD PUSH1 0x0 KECCAK256 PUSH1 0x0 DUP6 PUSH20 0xFFFFFFFFFFFFFFFFFFFFFFFFFFFFFFFFFFFFFFFF AND PUSH20 0xFFFFFFFFFFFFFFFFFFFFFFFFFFFFFFFFFFFFFFFF AND DUP2 MSTORE PUSH1 0x20 ADD SWAP1 DUP2 MSTORE PUSH1 0x20 ADD PUSH1 0x0 KECCAK256 DUP2 SWAP1 SSTORE POP DUP3 PUSH20 0xFFFFFFFFFFFFFFFFFFFFFFFFFFFFFFFFFFFFFFFF AND CALLER PUSH20 0xFFFFFFFFFFFFFFFFFFFFFFFFFFFFFFFFFFFFFFFF AND PUSH32 0x8C5BE1E5EBEC7D5BD14F71427D1E84F3DD0314C0F7B2291E5B200AC8C7C3B925 DUP5 PUSH1 0x40 MLOAD PUSH2 0x342 SWAP2 SWAP1 PUSH2 0xDC6 JUMP JUMPDEST PUSH1 0x40 MLOAD DUP1 SWAP2 SUB SWAP1 LOG3 PUSH1 0x1 SWAP1 POP SWAP3 SWAP2 POP POP JUMP JUMPDEST PUSH1 0x0 PUSH1 0x2 SLOAD SWAP1 POP SWAP1 JUMP JUMPDEST DUP1 PUSH1 0x2 PUSH1 0x0 DUP3 DUP3 SLOAD PUSH2 0x370 SWAP2 SWAP1 PUSH2 0xFE6 JUMP JUMPDEST SWAP3 POP POP DUP2 SWAP1 SSTORE POP DUP1 PUSH1 0x0 DUP1 CALLER PUSH20 0xFFFFFFFFFFFFFFFFFFFFFFFFFFFFFFFFFFFFFFFF AND PUSH20 0xFFFFFFFFFFFFFFFFFFFFFFFFFFFFFFFFFFFFFFFF AND DUP2 MSTORE PUSH1 0x20 ADD SWAP1 DUP2 MSTORE PUSH1 0x20 ADD PUSH1 0x0 KECCAK256 PUSH1 0x0 DUP3 DUP3 SLOAD PUSH2 0x3C5 SWAP2 SWAP1 PUSH2 0xFE6 JUMP JUMPDEST SWAP3 POP POP DUP2 SWAP1 SSTORE POP POP JUMP JUMPDEST PUSH1 0x0 DUP1 PUSH1 0x0 DUP6 PUSH20 0xFFFFFFFFFFFFFFFFFFFFFFFFFFFFFFFFFFFFFFFF AND PUSH20 0xFFFFFFFFFFFFFFFFFFFFFFFFFFFFFFFFFFFFFFFF AND DUP2 MSTORE PUSH1 0x20 ADD SWAP1 DUP2 MSTORE PUSH1 0x20 ADD PUSH1 0x0 KECCAK256 SLOAD DUP3 GT ISZERO PUSH2 0x41C JUMPI PUSH1 0x0 DUP1 REVERT JUMPDEST PUSH1 0x1 PUSH1 0x0 DUP6 PUSH20 0xFFFFFFFFFFFFFFFFFFFFFFFFFFFFFFFFFFFFFFFF AND PUSH20 0xFFFFFFFFFFFFFFFFFFFFFFFFFFFFFFFFFFFFFFFF AND DUP2 MSTORE PUSH1 0x20 ADD SWAP1 DUP2 MSTORE PUSH1 0x20 ADD PUSH1 0x0 KECCAK256 PUSH1 0x0 CALLER PUSH20 0xFFFFFFFFFFFFFFFFFFFFFFFFFFFFFFFFFFFFFFFF AND PUSH20 0xFFFFFFFFFFFFFFFFFFFFFFFFFFFFFFFFFFFFFFFF AND DUP2 MSTORE PUSH1 0x20 ADD SWAP1 DUP2 MSTORE PUSH1 0x20 ADD PUSH1 0x0 KECCAK256 SLOAD DUP3 GT ISZERO PUSH2 0x4A5 JUMPI PUSH1 0x0 DUP1 REVERT JUMPDEST PUSH2 0x4F6 DUP3 PUSH1 0x0 DUP1 DUP8 PUSH20 0xFFFFFFFFFFFFFFFFFFFFFFFFFFFFFFFFFFFFFFFF AND PUSH20 0xFFFFFFFFFFFFFFFFFFFFFFFFFFFFFFFFFFFFFFFF AND DUP2 MSTORE PUSH1 0x20 ADD SWAP1 DUP2 MSTORE PUSH1 0x20 ADD PUSH1 0x0 KECCAK256 SLOAD PUSH2 0xC55 SWAP1 SWAP2 SWAP1 PUSH4 0xFFFFFFFF AND JUMP JUMPDEST PUSH1 0x0 DUP1 DUP7 PUSH20 0xFFFFFFFFFFFFFFFFFFFFFFFFFFFFFFFFFFFFFFFF AND PUSH20 0xFFFFFFFFFFFFFFFFFFFFFFFFFFFFFFFFFFFFFFFF AND DUP2 MSTORE PUSH1 0x20 ADD SWAP1 DUP2 MSTORE PUSH1 0x20 ADD PUSH1 0x0 KECCAK256 DUP2 SWAP1 SSTORE POP PUSH2 0x5C7 DUP3 PUSH1 0x1 PUSH1 0x0 DUP8 PUSH20 0xFFFFFFFFFFFFFFFFFFFFFFFFFFFFFFFFFFFFFFFF AND PUSH20 0xFFFFFFFFFFFFFFFFFFFFFFFFFFFFFFFFFFFFFFFF AND DUP2 MSTORE PUSH1 0x20 ADD SWAP1 DUP2 MSTORE PUSH1 0x20 ADD PUSH1 0x0 KECCAK256 PUSH1 0x0 CALLER PUSH20 0xFFFFFFFFFFFFFFFFFFFFFFFFFFFFFFFFFFFFFFFF AND PUSH20 0xFFFFFFFFFFFFFFFFFFFFFFFFFFFFFFFFFFFFFFFF AND DUP2 MSTORE PUSH1 0x20 ADD SWAP1 DUP2 MSTORE PUSH1 0x20 ADD PUSH1 0x0 KECCAK256 SLOAD PUSH2 0xC55 SWAP1 SWAP2 SWAP1 PUSH4 0xFFFFFFFF AND JUMP JUMPDEST PUSH1 0x1 PUSH1 0x0 DUP7 PUSH20 0xFFFFFFFFFFFFFFFFFFFFFFFFFFFFFFFFFFFFFFFF AND PUSH20 0xFFFFFFFFFFFFFFFFFFFFFFFFFFFFFFFFFFFFFFFF AND DUP2 MSTORE PUSH1 0x20 ADD SWAP1 DUP2 MSTORE PUSH1 0x20 ADD PUSH1 0x0 KECCAK256 PUSH1 0x0 CALLER PUSH20 0xFFFFFFFFFFFFFFFFFFFFFFFFFFFFFFFFFFFFFFFF AND PUSH20 0xFFFFFFFFFFFFFFFFFFFFFFFFFFFFFFFFFFFFFFFF AND DUP2 MSTORE PUSH1 0x20 ADD SWAP1 DUP2 MSTORE PUSH1 0x20 ADD PUSH1 0x0 KECCAK256 DUP2 SWAP1 SSTORE POP PUSH2 0x698 DUP3 PUSH1 0x0 DUP1 DUP7 PUSH20 0xFFFFFFFFFFFFFFFFFFFFFFFFFFFFFFFFFFFFFFFF AND PUSH20 0xFFFFFFFFFFFFFFFFFFFFFFFFFFFFFFFFFFFFFFFF AND DUP2 MSTORE PUSH1 0x20 ADD SWAP1 DUP2 MSTORE PUSH1 0x20 ADD PUSH1 0x0 KECCAK256 SLOAD PUSH2 0xC7C SWAP1 SWAP2 SWAP1 PUSH4 0xFFFFFFFF AND JUMP JUMPDEST PUSH1 0x0 DUP1 DUP6 PUSH20 0xFFFFFFFFFFFFFFFFFFFFFFFFFFFFFFFFFFFFFFFF AND PUSH20 0xFFFFFFFFFFFFFFFFFFFFFFFFFFFFFFFFFFFFFFFF AND DUP2 MSTORE PUSH1 0x20 ADD SWAP1 DUP2 MSTORE PUSH1 0x20 ADD PUSH1 0x0 KECCAK256 DUP2 SWAP1 SSTORE POP DUP3 PUSH20 0xFFFFFFFFFFFFFFFFFFFFFFFFFFFFFFFFFFFFFFFF AND DUP5 PUSH20 0xFFFFFFFFFFFFFFFFFFFFFFFFFFFFFFFFFFFFFFFF AND PUSH32 0xDDF252AD1BE2C89B69C2B068FC378DAA952BA7F163C4A11628F55A4DF523B3EF DUP5 PUSH1 0x40 MLOAD PUSH2 0x737 SWAP2 SWAP1 PUSH2 0xDC6 JUMP JUMPDEST PUSH1 0x40 MLOAD DUP1 SWAP2 SUB SWAP1 LOG3 PUSH1 0x1 SWAP1 POP SWAP4 SWAP3 POP POP POP JUMP JUMPDEST PUSH1 0x2 DUP2 JUMP JUMPDEST PUSH1 0x0 DUP1 PUSH1 0x0 DUP6 PUSH20 0xFFFFFFFFFFFFFFFFFFFFFFFFFFFFFFFFFFFFFFFF AND PUSH20 0xFFFFFFFFFFFFFFFFFFFFFFFFFFFFFFFFFFFFFFFF AND DUP2 MSTORE PUSH1 0x20 ADD SWAP1 DUP2 MSTORE PUSH1 0x20 ADD PUSH1 0x0 KECCAK256 SLOAD DUP3 GT ISZERO PUSH2 0x79C JUMPI PUSH1 0x0 DUP1 REVERT JUMPDEST PUSH2 0x7ED DUP3 PUSH1 0x0 DUP1 DUP8 PUSH20 0xFFFFFFFFFFFFFFFFFFFFFFFFFFFFFFFFFFFFFFFF AND PUSH20 0xFFFFFFFFFFFFFFFFFFFFFFFFFFFFFFFFFFFFFFFF AND DUP2 MSTORE PUSH1 0x20 ADD SWAP1 DUP2 MSTORE PUSH1 0x20 ADD PUSH1 0x0 KECCAK256 SLOAD PUSH2 0xC55 SWAP1 SWAP2 SWAP1 PUSH4 0xFFFFFFFF AND JUMP JUMPDEST PUSH1 0x0 DUP1 DUP7 PUSH20 0xFFFFFFFFFFFFFFFFFFFFFFFFFFFFFFFFFFFFFFFF AND PUSH20 0xFFFFFFFFFFFFFFFFFFFFFFFFFFFFFFFFFFFFFFFF AND DUP2 MSTORE PUSH1 0x20 ADD SWAP1 DUP2 MSTORE PUSH1 0x20 ADD PUSH1 0x0 KECCAK256 DUP2 SWAP1 SSTORE POP PUSH2 0x880 DUP3 PUSH1 0x0 DUP1 DUP8 PUSH20 0xFFFFFFFFFFFFFFFFFFFFFFFFFFFFFFFFFFFFFFFF AND PUSH20 0xFFFFFFFFFFFFFFFFFFFFFFFFFFFFFFFFFFFFFFFF AND DUP2 MSTORE PUSH1 0x20 ADD SWAP1 DUP2 MSTORE PUSH1 0x20 ADD PUSH1 0x0 KECCAK256 SLOAD PUSH2 0xC7C SWAP1 SWAP2 SWAP1 PUSH4 0xFFFFFFFF AND JUMP JUMPDEST PUSH1 0x0 DUP1 DUP6 PUSH20 0xFFFFFFFFFFFFFFFFFFFFFFFFFFFFFFFFFFFFFFFF AND PUSH20 0xFFFFFFFFFFFFFFFFFFFFFFFFFFFFFFFFFFFFFFFF AND DUP2 MSTORE PUSH1 0x20 ADD SWAP1 DUP2 MSTORE PUSH1 0x20 ADD PUSH1 0x0 KECCAK256 DUP2 SWAP1 SSTORE POP DUP3 PUSH20 0xFFFFFFFFFFFFFFFFFFFFFFFFFFFFFFFFFFFFFFFF AND DUP5 PUSH20 0xFFFFFFFFFFFFFFFFFFFFFFFFFFFFFFFFFFFFFFFF AND PUSH32 0xDDF252AD1BE2C89B69C2B068FC378DAA952BA7F163C4A11628F55A4DF523B3EF DUP5 PUSH1 0x40 MLOAD PUSH2 0x91F SWAP2 SWAP1 PUSH2 0xDC6 JUMP JUMPDEST PUSH1 0x40 MLOAD DUP1 SWAP2 SUB SWAP1 LOG3 PUSH1 0x1 SWAP1 POP SWAP4 SWAP3 POP POP POP JUMP JUMPDEST PUSH1 0x0 DUP1 PUSH1 0x0 DUP4 PUSH20 0xFFFFFFFFFFFFFFFFFFFFFFFFFFFFFFFFFFFFFFFF AND PUSH20 0xFFFFFFFFFFFFFFFFFFFFFFFFFFFFFFFFFFFFFFFF AND DUP2 MSTORE PUSH1 0x20 ADD SWAP1 DUP2 MSTORE PUSH1 0x20 ADD PUSH1 0x0 KECCAK256 SLOAD SWAP1 POP SWAP2 SWAP1 POP JUMP JUMPDEST PUSH1 0x40 MLOAD DUP1 PUSH1 0x40 ADD PUSH1 0x40 MSTORE DUP1 PUSH1 0x11 DUP2 MSTORE PUSH1 0x20 ADD PUSH32 0x4552433230426C6F636B636861696E415A000000000000000000000000000000 DUP2 MSTORE POP DUP2 JUMP JUMPDEST PUSH1 0x0 DUP1 PUSH1 0x0 CALLER PUSH20 0xFFFFFFFFFFFFFFFFFFFFFFFFFFFFFFFFFFFFFFFF AND PUSH20 0xFFFFFFFFFFFFFFFFFFFFFFFFFFFFFFFFFFFFFFFF AND DUP2 MSTORE PUSH1 0x20 ADD SWAP1 DUP2 MSTORE PUSH1 0x20 ADD PUSH1 0x0 KECCAK256 SLOAD DUP3 GT ISZERO PUSH2 0xA00 JUMPI PUSH1 0x0 DUP1 REVERT JUMPDEST PUSH2 0xA51 DUP3 PUSH1 0x0 DUP1 CALLER PUSH20 0xFFFFFFFFFFFFFFFFFFFFFFFFFFFFFFFFFFFFFFFF AND PUSH20 0xFFFFFFFFFFFFFFFFFFFFFFFFFFFFFFFFFFFFFFFF AND DUP2 MSTORE PUSH1 0x20 ADD SWAP1 DUP2 MSTORE PUSH1 0x20 ADD PUSH1 0x0 KECCAK256 SLOAD PUSH2 0xC55 SWAP1 SWAP2 SWAP1 PUSH4 0xFFFFFFFF AND JUMP JUMPDEST PUSH1 0x0 DUP1 CALLER PUSH20 0xFFFFFFFFFFFFFFFFFFFFFFFFFFFFFFFFFFFFFFFF AND PUSH20 0xFFFFFFFFFFFFFFFFFFFFFFFFFFFFFFFFFFFFFFFF AND DUP2 MSTORE PUSH1 0x20 ADD SWAP1 DUP2 MSTORE PUSH1 0x20 ADD PUSH1 0x0 KECCAK256 DUP2 SWAP1 SSTORE POP PUSH2 0xAE4 DUP3 PUSH1 0x0 DUP1 DUP7 PUSH20 0xFFFFFFFFFFFFFFFFFFFFFFFFFFFFFFFFFFFFFFFF AND PUSH20 0xFFFFFFFFFFFFFFFFFFFFFFFFFFFFFFFFFFFFFFFF AND DUP2 MSTORE PUSH1 0x20 ADD SWAP1 DUP2 MSTORE PUSH1 0x20 ADD PUSH1 0x0 KECCAK256 SLOAD PUSH2 0xC7C SWAP1 SWAP2 SWAP1 PUSH4 0xFFFFFFFF AND JUMP JUMPDEST PUSH1 0x0 DUP1 DUP6 PUSH20 0xFFFFFFFFFFFFFFFFFFFFFFFFFFFFFFFFFFFFFFFF AND PUSH20 0xFFFFFFFFFFFFFFFFFFFFFFFFFFFFFFFFFFFFFFFF AND DUP2 MSTORE PUSH1 0x20 ADD SWAP1 DUP2 MSTORE PUSH1 0x20 ADD PUSH1 0x0 KECCAK256 DUP2 SWAP1 SSTORE POP DUP3 PUSH20 0xFFFFFFFFFFFFFFFFFFFFFFFFFFFFFFFFFFFFFFFF AND CALLER PUSH20 0xFFFFFFFFFFFFFFFFFFFFFFFFFFFFFFFFFFFFFFFF AND PUSH32 0xDDF252AD1BE2C89B69C2B068FC378DAA952BA7F163C4A11628F55A4DF523B3EF DUP5 PUSH1 0x40 MLOAD PUSH2 0xB83 SWAP2 SWAP1 PUSH2 0xDC6 JUMP JUMPDEST PUSH1 0x40 MLOAD DUP1 SWAP2 SUB SWAP1 LOG3 PUSH1 0x1 SWAP1 POP SWAP3 SWAP2 POP POP JUMP JUMPDEST PUSH1 0x0 PUSH1 0x1 PUSH1 0x0 DUP5 PUSH20 0xFFFFFFFFFFFFFFFFFFFFFFFFFFFFFFFFFFFFFFFF AND PUSH20 0xFFFFFFFFFFFFFFFFFFFFFFFFFFFFFFFFFFFFFFFF AND DUP2 MSTORE PUSH1 0x20 ADD SWAP1 DUP2 MSTORE PUSH1 0x20 ADD PUSH1 0x0 KECCAK256 PUSH1 0x0 DUP4 PUSH20 0xFFFFFFFFFFFFFFFFFFFFFFFFFFFFFFFFFFFFFFFF AND PUSH20 0xFFFFFFFFFFFFFFFFFFFFFFFFFFFFFFFFFFFFFFFF AND DUP2 MSTORE PUSH1 0x20 ADD SWAP1 DUP2 MSTORE PUSH1 0x20 ADD PUSH1 0x0 KECCAK256 SLOAD SWAP1 POP SWAP3 SWAP2 POP POP JUMP JUMPDEST PUSH1 0x40 MLOAD DUP1 PUSH1 0x40 ADD PUSH1 0x40 MSTORE DUP1 PUSH1 0x3 DUP2 MSTORE PUSH1 0x20 ADD PUSH32 0x4552430000000000000000000000000000000000000000000000000000000000 DUP2 MSTORE POP DUP2 JUMP JUMPDEST PUSH1 0x0 DUP3 DUP3 GT ISZERO PUSH2 0xC68 JUMPI PUSH2 0xC67 PUSH2 0x101A JUMP JUMPDEST JUMPDEST DUP2 DUP4 PUSH2 0xC74 SWAP2 SWAP1 PUSH2 0x1049 JUMP JUMPDEST SWAP1 POP SWAP3 SWAP2 POP POP JUMP JUMPDEST PUSH1 0x0 DUP1 DUP3 DUP5 PUSH2 0xC8B SWAP2 SWAP1 PUSH2 0xFE6 JUMP JUMPDEST SWAP1 POP DUP4 DUP2 LT ISZERO PUSH2 0xC9E JUMPI PUSH2 0xC9D PUSH2 0x101A JUMP JUMPDEST JUMPDEST DUP1 SWAP2 POP POP SWAP3 SWAP2 POP POP JUMP JUMPDEST PUSH1 0x0 DUP1 REVERT JUMPDEST PUSH1 0x0 PUSH20 0xFFFFFFFFFFFFFFFFFFFFFFFFFFFFFFFFFFFFFFFF DUP3 AND SWAP1 POP SWAP2 SWAP1 POP JUMP JUMPDEST PUSH1 0x0 PUSH2 0xCD8 DUP3 PUSH2 0xCAD JUMP JUMPDEST SWAP1 POP SWAP2 SWAP1 POP JUMP JUMPDEST PUSH2 0xCE8 DUP2 PUSH2 0xCCD JUMP JUMPDEST DUP2 EQ PUSH2 0xCF3 JUMPI PUSH1 0x0 DUP1 REVERT JUMPDEST POP JUMP JUMPDEST PUSH1 0x0 DUP2 CALLDATALOAD SWAP1 POP PUSH2 0xD05 DUP2 PUSH2 0xCDF JUMP JUMPDEST SWAP3 SWAP2 POP POP JUMP JUMPDEST PUSH1 0x0 DUP2 SWAP1 POP SWAP2 SWAP1 POP JUMP JUMPDEST PUSH2 0xD1E DUP2 PUSH2 0xD0B JUMP JUMPDEST DUP2 EQ PUSH2 0xD29 JUMPI PUSH1 0x0 DUP1 REVERT JUMPDEST POP JUMP JUMPDEST PUSH1 0x0 DUP2 CALLDATALOAD SWAP1 POP PUSH2 0xD3B DUP2 PUSH2 0xD15 JUMP JUMPDEST SWAP3 SWAP2 POP POP JUMP JUMPDEST PUSH1 0x0 DUP1 PUSH1 0x40 DUP4 DUP6 SUB SLT ISZERO PUSH2 0xD58 JUMPI PUSH2 0xD57 PUSH2 0xCA8 JUMP JUMPDEST JUMPDEST PUSH1 0x0 PUSH2 0xD66 DUP6 DUP3 DUP7 ADD PUSH2 0xCF6 JUMP JUMPDEST SWAP3 POP POP PUSH1 0x20 PUSH2 0xD77 DUP6 DUP3 DUP7 ADD PUSH2 0xD2C JUMP JUMPDEST SWAP2 POP POP SWAP3 POP SWAP3 SWAP1 POP JUMP JUMPDEST PUSH1 0x0 DUP2 ISZERO ISZERO SWAP1 POP SWAP2 SWAP1 POP JUMP JUMPDEST PUSH2 0xD96 DUP2 PUSH2 0xD81 JUMP JUMPDEST DUP3 MSTORE POP POP JUMP JUMPDEST PUSH1 0x0 PUSH1 0x20 DUP3 ADD SWAP1 POP PUSH2 0xDB1 PUSH1 0x0 DUP4 ADD DUP5 PUSH2 0xD8D JUMP JUMPDEST SWAP3 SWAP2 POP POP JUMP JUMPDEST PUSH2 0xDC0 DUP2 PUSH2 0xD0B JUMP JUMPDEST DUP3 MSTORE POP POP JUMP JUMPDEST PUSH1 0x0 PUSH1 0x20 DUP3 ADD SWAP1 POP PUSH2 0xDDB PUSH1 0x0 DUP4 ADD DUP5 PUSH2 0xDB7 JUMP JUMPDEST SWAP3 SWAP2 POP POP JUMP JUMPDEST PUSH1 0x0 PUSH1 0x20 DUP3 DUP5 SUB SLT ISZERO PUSH2 0xDF7 JUMPI PUSH2 0xDF6 PUSH2 0xCA8 JUMP JUMPDEST JUMPDEST PUSH1 0x0 PUSH2 0xE05 DUP5 DUP3 DUP6 ADD PUSH2 0xD2C JUMP JUMPDEST SWAP2 POP POP SWAP3 SWAP2 POP POP JUMP JUMPDEST PUSH1 0x0 DUP1 PUSH1 0x0 PUSH1 0x60 DUP5 DUP7 SUB SLT ISZERO PUSH2 0xE27 JUMPI PUSH2 0xE26 PUSH2 0xCA8 JUMP JUMPDEST JUMPDEST PUSH1 0x0 PUSH2 0xE35 DUP7 DUP3 DUP8 ADD PUSH2 0xCF6 JUMP JUMPDEST SWAP4 POP POP PUSH1 0x20 PUSH2 0xE46 DUP7 DUP3 DUP8 ADD PUSH2 0xCF6 JUMP JUMPDEST SWAP3 POP POP PUSH1 0x40 PUSH2 0xE57 DUP7 DUP3 DUP8 ADD PUSH2 0xD2C JUMP JUMPDEST SWAP2 POP POP SWAP3 POP SWAP3 POP SWAP3 JUMP JUMPDEST PUSH1 0x0 PUSH1 0xFF DUP3 AND SWAP1 POP SWAP2 SWAP1 POP JUMP JUMPDEST PUSH2 0xE77 DUP2 PUSH2 0xE61 JUMP JUMPDEST DUP3 MSTORE POP POP JUMP JUMPDEST PUSH1 0x0 PUSH1 0x20 DUP3 ADD SWAP1 POP PUSH2 0xE92 PUSH1 0x0 DUP4 ADD DUP5 PUSH2 0xE6E JUMP JUMPDEST SWAP3 SWAP2 POP POP JUMP JUMPDEST PUSH1 0x0 PUSH1 0x20 DUP3 DUP5 SUB SLT ISZERO PUSH2 0xEAE JUMPI PUSH2 0xEAD PUSH2 0xCA8 JUMP JUMPDEST JUMPDEST PUSH1 0x0 PUSH2 0xEBC DUP5 DUP3 DUP6 ADD PUSH2 0xCF6 JUMP JUMPDEST SWAP2 POP POP SWAP3 SWAP2 POP POP JUMP JUMPDEST PUSH1 0x0 DUP2 MLOAD SWAP1 POP SWAP2 SWAP1 POP JUMP JUMPDEST PUSH1 0x0 DUP3 DUP3 MSTORE PUSH1 0x20 DUP3 ADD SWAP1 POP SWAP3 SWAP2 POP POP JUMP JUMPDEST PUSH1 0x0 JUMPDEST DUP4 DUP2 LT ISZERO PUSH2 0xEFF JUMPI DUP1 DUP3 ADD MLOAD DUP2 DUP5 ADD MSTORE PUSH1 0x20 DUP2 ADD SWAP1 POP PUSH2 0xEE4 JUMP JUMPDEST PUSH1 0x0 DUP5 DUP5 ADD MSTORE POP POP POP POP JUMP JUMPDEST PUSH1 0x0 PUSH1 0x1F NOT PUSH1 0x1F DUP4 ADD AND SWAP1 POP SWAP2 SWAP1 POP JUMP JUMPDEST PUSH1 0x0 PUSH2 0xF27 DUP3 PUSH2 0xEC5 JUMP JUMPDEST PUSH2 0xF31 DUP2 DUP6 PUSH2 0xED0 JUMP JUMPDEST SWAP4 POP PUSH2 0xF41 DUP2 DUP6 PUSH1 0x20 DUP7 ADD PUSH2 0xEE1 JUMP JUMPDEST PUSH2 0xF4A DUP2 PUSH2 0xF0B JUMP JUMPDEST DUP5 ADD SWAP2 POP POP SWAP3 SWAP2 POP POP JUMP JUMPDEST PUSH1 0x0 PUSH1 0x20 DUP3 ADD SWAP1 POP DUP2 DUP2 SUB PUSH1 0x0 DUP4 ADD MSTORE PUSH2 0xF6F DUP2 DUP5 PUSH2 0xF1C JUMP JUMPDEST SWAP1 POP SWAP3 SWAP2 POP POP JUMP JUMPDEST PUSH1 0x0 DUP1 PUSH1 0x40 DUP4 DUP6 SUB SLT ISZERO PUSH2 0xF8E JUMPI PUSH2 0xF8D PUSH2 0xCA8 JUMP JUMPDEST JUMPDEST PUSH1 0x0 PUSH2 0xF9C DUP6 DUP3 DUP7 ADD PUSH2 0xCF6 JUMP JUMPDEST SWAP3 POP POP PUSH1 0x20 PUSH2 0xFAD DUP6 DUP3 DUP7 ADD PUSH2 0xCF6 JUMP JUMPDEST SWAP2 POP POP SWAP3 POP SWAP3 SWAP1 POP JUMP JUMPDEST PUSH32 0x4E487B7100000000000000000000000000000000000000000000000000000000 PUSH1 0x0 MSTORE PUSH1 0x11 PUSH1 0x4 MSTORE PUSH1 0x24 PUSH1 0x0 REVERT JUMPDEST PUSH1 0x0 PUSH2 0xFF1 DUP3 PUSH2 0xD0B JUMP JUMPDEST SWAP2 POP PUSH2 0xFFC DUP4 PUSH2 0xD0B JUMP JUMPDEST SWAP3 POP DUP3 DUP3 ADD SWAP1 POP DUP1 DUP3 GT ISZERO PUSH2 0x1014 JUMPI PUSH2 0x1013 PUSH2 0xFB7 JUMP JUMPDEST JUMPDEST SWAP3 SWAP2 POP POP JUMP JUMPDEST PUSH32 0x4E487B7100000000000000000000000000000000000000000000000000000000 PUSH1 0x0 MSTORE PUSH1 0x1 PUSH1 0x4 MSTORE PUSH1 0x24 PUSH1 0x0 REVERT JUMPDEST PUSH1 0x0 PUSH2 0x1054 DUP3 PUSH2 0xD0B JUMP JUMPDEST SWAP2 POP PUSH2 0x105F DUP4 PUSH2 0xD0B JUMP JUMPDEST SWAP3 POP DUP3 DUP3 SUB SWAP1 POP DUP2 DUP2 GT ISZERO PUSH2 0x1077 JUMPI PUSH2 0x1076 PUSH2 0xFB7 JUMP JUMPDEST JUMPDEST SWAP3 SWAP2 POP POP JUMP INVALID LOG2 PUSH5 0x6970667358 0x22 SLT KECCAK256 SHR 0xAF JUMPDEST JUMPI 0x4B SHR 0x28 CHAINID ORIGIN PUSH3 0x388DB4 0x49 SWAP12 NOT EXTCODECOPY CHAINID SLT RETURNDATASIZE 0xF8 0x2C DUP2 PUSH17 0x60C1BE22681F535164736F6C6343000812 STOP CALLER "
				},
				"gasEstimates": {
					"creation": {
						"codeDepositCost": "2123200",
						"executionCost": "infinite",
						"totalCost": "infinite"
					},
					"external": {
						"agregarAtraccion(string,uint256)": "infinite",
						"agregarComida(string,uint256)": "infinite",
						"atraccionesDisponibles()": "infinite",
						"clientes(address)": "2850",
						"comerComida(string)": "infinite",
						"compraTokens(uint256)": "infinite",
						"consultarComidas()": "infinite",
						"consultarHistorialComidas()": "infinite",
						"deshabilitarAtraccion(string)": "infinite",
						"devolverTokens(uint256)": "infinite",
						"eliminarComida(string)": "infinite",
						"generaTokens(uint256)": "infinite",
						"historial()": "infinite",
						"mappingAtracciones(string)": "infinite",
						"mappingComidas(string)": "infinite",
						"misTokens()": "infinite",
						"owner()": "2580",
						"subirseAtraccion(string)": "infinite"
					},
					"internal": {
						"precioTokens(uint256)": "infinite"
					}
				},
				"methodIdentifiers": {
					"agregarAtraccion(string,uint256)": "11f91c4b",
					"agregarComida(string,uint256)": "13e746fa",
					"atraccionesDisponibles()": "369ccfaa",
					"clientes(address)": "74b23349",
					"comerComida(string)": "7ac48e04",
					"compraTokens(uint256)": "c29dd7c9",
					"consultarComidas()": "fba9f844",
					"consultarHistorialComidas()": "6d3a0894",
					"deshabilitarAtraccion(string)": "0cd93f64",
					"devolverTokens(uint256)": "2e95161c",
					"eliminarComida(string)": "6328f1c1",
					"generaTokens(uint256)": "4947830d",
					"historial()": "216f91c1",
					"mappingAtracciones(string)": "652b67aa",
					"mappingComidas(string)": "14b9a735",
					"misTokens()": "21e0528b",
					"owner()": "8da5cb5b",
					"subirseAtraccion(string)": "33ea0db2"
				}
			},
			"storageLayout": {
				"storage": [
					{
						"astId": 480,
						"contract": "DISNEY/disney.sol:Disney",
						"label": "token",
						"offset": 0,
						"slot": "0",
						"type": "t_contract(ERC20Basic)392"
					},
					{
						"astId": 482,
						"contract": "DISNEY/disney.sol:Disney",
						"label": "owner",
						"offset": 0,
						"slot": "1",
						"type": "t_address_payable"
					},
					{
						"astId": 513,
						"contract": "DISNEY/disney.sol:Disney",
						"label": "clientes",
						"offset": 0,
						"slot": "2",
						"type": "t_mapping(t_address,t_struct(cliente)508_storage)"
					},
					{
						"astId": 666,
						"contract": "DISNEY/disney.sol:Disney",
						"label": "mappingAtracciones",
						"offset": 0,
						"slot": "3",
						"type": "t_mapping(t_string_memory_ptr,t_struct(atraccion)661_storage)"
					},
					{
						"astId": 669,
						"contract": "DISNEY/disney.sol:Disney",
						"label": "atracciones",
						"offset": 0,
						"slot": "4",
						"type": "t_array(t_string_storage)dyn_storage"
					},
					{
						"astId": 674,
						"contract": "DISNEY/disney.sol:Disney",
						"label": "historialAtracciones",
						"offset": 0,
						"slot": "5",
						"type": "t_mapping(t_address,t_array(t_string_storage)dyn_storage)"
					},
					{
						"astId": 881,
						"contract": "DISNEY/disney.sol:Disney",
						"label": "mappingComidas",
						"offset": 0,
						"slot": "6",
						"type": "t_mapping(t_string_memory_ptr,t_struct(comida)876_storage)"
					},
					{
						"astId": 884,
						"contract": "DISNEY/disney.sol:Disney",
						"label": "comidas",
						"offset": 0,
						"slot": "7",
						"type": "t_array(t_string_storage)dyn_storage"
					},
					{
						"astId": 889,
						"contract": "DISNEY/disney.sol:Disney",
						"label": "historialComidas",
						"offset": 0,
						"slot": "8",
						"type": "t_mapping(t_address,t_array(t_string_storage)dyn_storage)"
					}
				],
				"types": {
					"t_address": {
						"encoding": "inplace",
						"label": "address",
						"numberOfBytes": "20"
					},
					"t_address_payable": {
						"encoding": "inplace",
						"label": "address payable",
						"numberOfBytes": "20"
					},
					"t_array(t_string_storage)dyn_storage": {
						"base": "t_string_storage",
						"encoding": "dynamic_array",
						"label": "string[]",
						"numberOfBytes": "32"
					},
					"t_bool": {
						"encoding": "inplace",
						"label": "bool",
						"numberOfBytes": "1"
					},
					"t_contract(ERC20Basic)392": {
						"encoding": "inplace",
						"label": "contract ERC20Basic",
						"numberOfBytes": "20"
					},
					"t_mapping(t_address,t_array(t_string_storage)dyn_storage)": {
						"encoding": "mapping",
						"key": "t_address",
						"label": "mapping(address => string[])",
						"numberOfBytes": "32",
						"value": "t_array(t_string_storage)dyn_storage"
					},
					"t_mapping(t_address,t_struct(cliente)508_storage)": {
						"encoding": "mapping",
						"key": "t_address",
						"label": "mapping(address => struct Disney.cliente)",
						"numberOfBytes": "32",
						"value": "t_struct(cliente)508_storage"
					},
					"t_mapping(t_string_memory_ptr,t_struct(atraccion)661_storage)": {
						"encoding": "mapping",
						"key": "t_string_memory_ptr",
						"label": "mapping(string => struct Disney.atraccion)",
						"numberOfBytes": "32",
						"value": "t_struct(atraccion)661_storage"
					},
					"t_mapping(t_string_memory_ptr,t_struct(comida)876_storage)": {
						"encoding": "mapping",
						"key": "t_string_memory_ptr",
						"label": "mapping(string => struct Disney.comida)",
						"numberOfBytes": "32",
						"value": "t_struct(comida)876_storage"
					},
					"t_string_memory_ptr": {
						"encoding": "bytes",
						"label": "string",
						"numberOfBytes": "32"
					},
					"t_string_storage": {
						"encoding": "bytes",
						"label": "string",
						"numberOfBytes": "32"
					},
					"t_struct(atraccion)661_storage": {
						"encoding": "inplace",
						"label": "struct Disney.atraccion",
						"members": [
							{
								"astId": 656,
								"contract": "DISNEY/disney.sol:Disney",
								"label": "nombre",
								"offset": 0,
								"slot": "0",
								"type": "t_string_storage"
							},
							{
								"astId": 658,
								"contract": "DISNEY/disney.sol:Disney",
								"label": "precio",
								"offset": 0,
								"slot": "1",
								"type": "t_uint256"
							},
							{
								"astId": 660,
								"contract": "DISNEY/disney.sol:Disney",
								"label": "estado",
								"offset": 0,
								"slot": "2",
								"type": "t_bool"
							}
						],
						"numberOfBytes": "96"
					},
					"t_struct(cliente)508_storage": {
						"encoding": "inplace",
						"label": "struct Disney.cliente",
						"members": [
							{
								"astId": 504,
								"contract": "DISNEY/disney.sol:Disney",
								"label": "tokensComprados",
								"offset": 0,
								"slot": "0",
								"type": "t_uint256"
							},
							{
								"astId": 507,
								"contract": "DISNEY/disney.sol:Disney",
								"label": "atraccionesDisfrutadas",
								"offset": 0,
								"slot": "1",
								"type": "t_array(t_string_storage)dyn_storage"
							}
						],
						"numberOfBytes": "64"
					},
					"t_struct(comida)876_storage": {
						"encoding": "inplace",
						"label": "struct Disney.comida",
						"members": [
							{
								"astId": 871,
								"contract": "DISNEY/disney.sol:Disney",
								"label": "nombre",
								"offset": 0,
								"slot": "0",
								"type": "t_string_storage"
							},
							{
								"astId": 873,
								"contract": "DISNEY/disney.sol:Disney",
								"label": "precio",
								"offset": 0,
								"slot": "1",
								"type": "t_uint256"
							},
							{
								"astId": 875,
								"contract": "DISNEY/disney.sol:Disney",
								"label": "disponible",
								"offset": 0,
								"slot": "2",
								"type": "t_bool"
							}
						],
						"numberOfBytes": "96"
					},
					"t_uint256": {
						"encoding": "inplace",
						"label": "uint256",
						"numberOfBytes": "32"
					}
				}
			},
			"userdoc": {
				"kind": "user",
				"methods": {},
				"version": 1
			}
		}
	}
}