{
	"LOTERIA/ERC20.sol": {
		"ERC20Basic": {
			"abi": [
				{
					"inputs": [
						{
							"internalType": "uint256",
							"name": "_initialSupply",
							"type": "uint256"
						}
					],
					"stateMutability": "nonpayable",
					"type": "constructor"
				},
				{
					"anonymous": false,
					"inputs": [
						{
							"indexed": true,
							"internalType": "address",
							"name": "_owner",
							"type": "address"
						},
						{
							"indexed": true,
							"internalType": "address",
							"name": "_spender",
							"type": "address"
						},
						{
							"indexed": false,
							"internalType": "uint256",
							"name": "_value",
							"type": "uint256"
						}
					],
					"name": "Approval",
					"type": "event"
				},
				{
					"anonymous": false,
					"inputs": [
						{
							"indexed": true,
							"internalType": "address",
							"name": "_from",
							"type": "address"
						},
						{
							"indexed": true,
							"internalType": "address",
							"name": "_to",
							"type": "address"
						},
						{
							"indexed": false,
							"internalType": "uint256",
							"name": "_value",
							"type": "uint256"
						}
					],
					"name": "Transfer",
					"type": "event"
				},
				{
					"inputs": [],
					"name": "DECIMALS",
					"outputs": [
						{
							"internalType": "uint8",
							"name": "",
							"type": "uint8"
						}
					],
					"stateMutability": "view",
					"type": "function"
				},
				{
					"inputs": [],
					"name": "NAME",
					"outputs": [
						{
							"internalType": "string",
							"name": "",
							"type": "string"
						}
					],
					"stateMutability": "view",
					"type": "function"
				},
				{
					"inputs": [],
					"name": "SYMBOL",
					"outputs": [
						{
							"internalType": "string",
							"name": "",
							"type": "string"
						}
					],
					"stateMutability": "view",
					"type": "function"
				},
				{
					"inputs": [
						{
							"internalType": "address",
							"name": "_owner",
							"type": "address"
						},
						{
							"internalType": "address",
							"name": "_delegate",
							"type": "address"
						}
					],
					"name": "allowance",
					"outputs": [
						{
							"internalType": "uint256",
							"name": "",
							"type": "uint256"
						}
					],
					"stateMutability": "view",
					"type": "function"
				},
				{
					"inputs": [
						{
							"internalType": "address",
							"name": "_delegate",
							"type": "address"
						},
						{
							"internalType": "uint256",
							"name": "_numTokens",
							"type": "uint256"
						}
					],
					"name": "approve",
					"outputs": [
						{
							"internalType": "bool",
							"name": "",
							"type": "bool"
						}
					],
					"stateMutability": "nonpayable",
					"type": "function"
				},
				{
					"inputs": [
						{
							"internalType": "address",
							"name": "_tokenOwner",
							"type": "address"
						}
					],
					"name": "balanceOf",
					"outputs": [
						{
							"internalType": "uint256",
							"name": "",
							"type": "uint256"
						}
					],
					"stateMutability": "view",
					"type": "function"
				},
				{
					"inputs": [
						{
							"internalType": "uint256",
							"name": "newTokensAmount",
							"type": "uint256"
						}
					],
					"name": "increaseTotalSupply",
					"outputs": [],
					"stateMutability": "nonpayable",
					"type": "function"
				},
				{
					"inputs": [],
					"name": "totalSupply",
					"outputs": [
						{
							"internalType": "uint256",
							"name": "",
							"type": "uint256"
						}
					],
					"stateMutability": "view",
					"type": "function"
				},
				{
					"inputs": [
						{
							"internalType": "address",
							"name": "_recipient",
							"type": "address"
						},
						{
							"internalType": "uint256",
							"name": "_numTokens",
							"type": "uint256"
						}
					],
					"name": "transfer",
					"outputs": [
						{
							"internalType": "bool",
							"name": "",
							"type": "bool"
						}
					],
					"stateMutability": "nonpayable",
					"type": "function"
				},
				{
					"inputs": [
						{
							"internalType": "address",
							"name": "_owner",
							"type": "address"
						},
						{
							"internalType": "address",
							"name": "_buyer",
							"type": "address"
						},
						{
							"internalType": "uint256",
							"name": "_numTokens",
							"type": "uint256"
						}
					],
					"name": "transferFrom",
					"outputs": [
						{
							"internalType": "bool",
							"name": "",
							"type": "bool"
						}
					],
					"stateMutability": "nonpayable",
					"type": "function"
				},
				{
					"inputs": [
						{
							"internalType": "address",
							"name": "_client",
							"type": "address"
						},
						{
							"internalType": "address",
							"name": "_recipient",
							"type": "address"
						},
						{
							"internalType": "uint256",
							"name": "_numTokens",
							"type": "uint256"
						}
					],
					"name": "transferLoteria",
					"outputs": [
						{
							"internalType": "bool",
							"name": "",
							"type": "bool"
						}
					],
					"stateMutability": "nonpayable",
					"type": "function"
				}
			],
			"devdoc": {
				"kind": "dev",
				"methods": {},
				"version": 1
			},
			"evm": {
				"assembly": "    /* \"LOTERIA/ERC20.sol\":1921:4865  contract ERC20Basic is IERC20 {... */\n  mstore(0x40, 0x80)\n    /* \"LOTERIA/ERC20.sol\":2434:2562  constructor (uint _initialSupply) {... */\n  callvalue\n  dup1\n  iszero\n  tag_1\n  jumpi\n  0x00\n  dup1\n  revert\ntag_1:\n  pop\n  mload(0x40)\n  sub(codesize, bytecodeSize)\n  dup1\n  bytecodeSize\n  dup4\n  codecopy\n  dup2\n  dup2\n  add\n  0x40\n  mstore\n  dup2\n  add\n  swap1\n  tag_2\n  swap2\n  swap1\n  tag_3\n  jump\t// in\ntag_2:\n    /* \"LOTERIA/ERC20.sol\":2494:2508  _initialSupply */\n  dup1\n    /* \"LOTERIA/ERC20.sol\":2479:2491  totalSupply_ */\n  0x02\n    /* \"LOTERIA/ERC20.sol\":2479:2508  totalSupply_ = _initialSupply */\n  dup2\n  swap1\n  sstore\n  pop\n    /* \"LOTERIA/ERC20.sol\":2542:2554  totalSupply_ */\n  sload(0x02)\n    /* \"LOTERIA/ERC20.sol\":2519:2527  balances */\n  0x00\n    /* \"LOTERIA/ERC20.sol\":2519:2539  balances[msg.sender] */\n  dup1\n    /* \"LOTERIA/ERC20.sol\":2528:2538  msg.sender */\n  caller\n    /* \"LOTERIA/ERC20.sol\":2519:2539  balances[msg.sender] */\n  0xffffffffffffffffffffffffffffffffffffffff\n  and\n  0xffffffffffffffffffffffffffffffffffffffff\n  and\n  dup2\n  mstore\n  0x20\n  add\n  swap1\n  dup2\n  mstore\n  0x20\n  add\n  0x00\n  keccak256\n    /* \"LOTERIA/ERC20.sol\":2519:2554  balances[msg.sender] = totalSupply_ */\n  dup2\n  swap1\n  sstore\n  pop\n    /* \"LOTERIA/ERC20.sol\":2434:2562  constructor (uint _initialSupply) {... */\n  pop\n    /* \"LOTERIA/ERC20.sol\":1921:4865  contract ERC20Basic is IERC20 {... */\n  jump(tag_6)\n    /* \"#utility.yul\":88:205   */\ntag_8:\n    /* \"#utility.yul\":197:198   */\n  0x00\n    /* \"#utility.yul\":194:195   */\n  dup1\n    /* \"#utility.yul\":187:199   */\n  revert\n    /* \"#utility.yul\":334:411   */\ntag_10:\n    /* \"#utility.yul\":371:378   */\n  0x00\n    /* \"#utility.yul\":400:405   */\n  dup2\n    /* \"#utility.yul\":389:405   */\n  swap1\n  pop\n    /* \"#utility.yul\":334:411   */\n  swap2\n  swap1\n  pop\n  jump\t// out\n    /* \"#utility.yul\":417:539   */\ntag_11:\n    /* \"#utility.yul\":490:514   */\n  tag_19\n    /* \"#utility.yul\":508:513   */\n  dup2\n    /* \"#utility.yul\":490:514   */\n  tag_10\n  jump\t// in\ntag_19:\n    /* \"#utility.yul\":483:488   */\n  dup2\n    /* \"#utility.yul\":480:515   */\n  eq\n    /* \"#utility.yul\":470:533   */\n  tag_20\n  jumpi\n    /* \"#utility.yul\":529:530   */\n  0x00\n    /* \"#utility.yul\":526:527   */\n  dup1\n    /* \"#utility.yul\":519:531   */\n  revert\n    /* \"#utility.yul\":470:533   */\ntag_20:\n    /* \"#utility.yul\":417:539   */\n  pop\n  jump\t// out\n    /* \"#utility.yul\":545:688   */\ntag_12:\n    /* \"#utility.yul\":602:607   */\n  0x00\n    /* \"#utility.yul\":633:639   */\n  dup2\n    /* \"#utility.yul\":627:640   */\n  mload\n    /* \"#utility.yul\":618:640   */\n  swap1\n  pop\n    /* \"#utility.yul\":649:682   */\n  tag_22\n    /* \"#utility.yul\":676:681   */\n  dup2\n    /* \"#utility.yul\":649:682   */\n  tag_11\n  jump\t// in\ntag_22:\n    /* \"#utility.yul\":545:688   */\n  swap3\n  swap2\n  pop\n  pop\n  jump\t// out\n    /* \"#utility.yul\":694:1045   */\ntag_3:\n    /* \"#utility.yul\":764:770   */\n  0x00\n    /* \"#utility.yul\":813:815   */\n  0x20\n    /* \"#utility.yul\":801:810   */\n  dup3\n    /* \"#utility.yul\":792:799   */\n  dup5\n    /* \"#utility.yul\":788:811   */\n  sub\n    /* \"#utility.yul\":784:816   */\n  slt\n    /* \"#utility.yul\":781:900   */\n  iszero\n  tag_24\n  jumpi\n    /* \"#utility.yul\":819:898   */\n  tag_25\n  tag_8\n  jump\t// in\ntag_25:\n    /* \"#utility.yul\":781:900   */\ntag_24:\n    /* \"#utility.yul\":939:940   */\n  0x00\n    /* \"#utility.yul\":964:1028   */\n  tag_26\n    /* \"#utility.yul\":1020:1027   */\n  dup5\n    /* \"#utility.yul\":1011:1017   */\n  dup3\n    /* \"#utility.yul\":1000:1009   */\n  dup6\n    /* \"#utility.yul\":996:1018   */\n  add\n    /* \"#utility.yul\":964:1028   */\n  tag_12\n  jump\t// in\ntag_26:\n    /* \"#utility.yul\":954:1028   */\n  swap2\n  pop\n    /* \"#utility.yul\":910:1038   */\n  pop\n    /* \"#utility.yul\":694:1045   */\n  swap3\n  swap2\n  pop\n  pop\n  jump\t// out\n    /* \"LOTERIA/ERC20.sol\":1921:4865  contract ERC20Basic is IERC20 {... */\ntag_6:\n  dataSize(sub_0)\n  dup1\n  dataOffset(sub_0)\n  0x00\n  codecopy\n  0x00\n  return\nstop\n\nsub_0: assembly {\n        /* \"LOTERIA/ERC20.sol\":1921:4865  contract ERC20Basic is IERC20 {... */\n      mstore(0x40, 0x80)\n      callvalue\n      dup1\n      iszero\n      tag_1\n      jumpi\n      0x00\n      dup1\n      revert\n    tag_1:\n      pop\n      jumpi(tag_2, lt(calldatasize, 0x04))\n      shr(0xe0, calldataload(0x00))\n      dup1\n      0x5c79febb\n      gt\n      tag_14\n      jumpi\n      dup1\n      0x5c79febb\n      eq\n      tag_8\n      jumpi\n      dup1\n      0x70a08231\n      eq\n      tag_9\n      jumpi\n      dup1\n      0xa3f4df7e\n      eq\n      tag_10\n      jumpi\n      dup1\n      0xa9059cbb\n      eq\n      tag_11\n      jumpi\n      dup1\n      0xdd62ed3e\n      eq\n      tag_12\n      jumpi\n      dup1\n      0xf76f8d78\n      eq\n      tag_13\n      jumpi\n      jump(tag_2)\n    tag_14:\n      dup1\n      0x095ea7b3\n      eq\n      tag_3\n      jumpi\n      dup1\n      0x18160ddd\n      eq\n      tag_4\n      jumpi\n      dup1\n      0x1d43cc98\n      eq\n      tag_5\n      jumpi\n      dup1\n      0x23b872dd\n      eq\n      tag_6\n      jumpi\n      dup1\n      0x2e0f2625\n      eq\n      tag_7\n      jumpi\n    tag_2:\n      0x00\n      dup1\n      revert\n        /* \"LOTERIA/ERC20.sol\":4120:4346  function approve(address _delegate, uint _numTokens) public override returns(bool) {... */\n    tag_3:\n      tag_15\n      0x04\n      dup1\n      calldatasize\n      sub\n      dup2\n      add\n      swap1\n      tag_16\n      swap2\n      swap1\n      tag_17\n      jump\t// in\n    tag_16:\n      tag_18\n      jump\t// in\n    tag_15:\n      mload(0x40)\n      tag_19\n      swap2\n      swap1\n      tag_20\n      jump\t// in\n    tag_19:\n      mload(0x40)\n      dup1\n      swap2\n      sub\n      swap1\n      return\n        /* \"LOTERIA/ERC20.sol\":2572:2668  function totalSupply() public override view returns(uint) {... */\n    tag_4:\n      tag_21\n      tag_22\n      jump\t// in\n    tag_21:\n      mload(0x40)\n      tag_23\n      swap2\n      swap1\n      tag_24\n      jump\t// in\n    tag_23:\n      mload(0x40)\n      dup1\n      swap2\n      sub\n      swap1\n      return\n        /* \"LOTERIA/ERC20.sol\":2676:2834  function increaseTotalSupply(uint newTokensAmount) public {... */\n    tag_5:\n      tag_25\n      0x04\n      dup1\n      calldatasize\n      sub\n      dup2\n      add\n      swap1\n      tag_26\n      swap2\n      swap1\n      tag_27\n      jump\t// in\n    tag_26:\n      tag_28\n      jump\t// in\n    tag_25:\n      stop\n        /* \"LOTERIA/ERC20.sol\":4354:4862  function transferFrom(address _owner, address _buyer, uint _numTokens) public override returns(bool) {... */\n    tag_6:\n      tag_29\n      0x04\n      dup1\n      calldatasize\n      sub\n      dup2\n      add\n      swap1\n      tag_30\n      swap2\n      swap1\n      tag_31\n      jump\t// in\n    tag_30:\n      tag_32\n      jump\t// in\n    tag_29:\n      mload(0x40)\n      tag_33\n      swap2\n      swap1\n      tag_20\n      jump\t// in\n    tag_33:\n      mload(0x40)\n      dup1\n      swap2\n      sub\n      swap1\n      return\n        /* \"LOTERIA/ERC20.sol\":2060:2094  uint8 public constant DECIMALS = 2 */\n    tag_7:\n      tag_34\n      tag_35\n      jump\t// in\n    tag_34:\n      mload(0x40)\n      tag_36\n      swap2\n      swap1\n      tag_37\n      jump\t// in\n    tag_36:\n      mload(0x40)\n      dup1\n      swap2\n      sub\n      swap1\n      return\n        /* \"LOTERIA/ERC20.sol\":3614:4112  function transferLoteria(address _client, address _recipient, uint _numTokens) public override returns(bool) {... */\n    tag_8:\n      tag_38\n      0x04\n      dup1\n      calldatasize\n      sub\n      dup2\n      add\n      swap1\n      tag_39\n      swap2\n      swap1\n      tag_31\n      jump\t// in\n    tag_39:\n      tag_40\n      jump\t// in\n    tag_38:\n      mload(0x40)\n      tag_41\n      swap2\n      swap1\n      tag_20\n      jump\t// in\n    tag_41:\n      mload(0x40)\n      dup1\n      swap2\n      sub\n      swap1\n      return\n        /* \"LOTERIA/ERC20.sol\":2842:2964  function balanceOf(address _tokenOwner) public override view returns(uint) {... */\n    tag_9:\n      tag_42\n      0x04\n      dup1\n      calldatasize\n      sub\n      dup2\n      add\n      swap1\n      tag_43\n      swap2\n      swap1\n      tag_44\n      jump\t// in\n    tag_43:\n      tag_45\n      jump\t// in\n    tag_42:\n      mload(0x40)\n      tag_46\n      swap2\n      swap1\n      tag_24\n      jump\t// in\n    tag_46:\n      mload(0x40)\n      dup1\n      swap2\n      sub\n      swap1\n      return\n        /* \"LOTERIA/ERC20.sol\":1960:2009  string public constant NAME = \"ERC20BlockchainAZ\" */\n    tag_10:\n      tag_47\n      tag_48\n      jump\t// in\n    tag_47:\n      mload(0x40)\n      tag_49\n      swap2\n      swap1\n      tag_50\n      jump\t// in\n    tag_49:\n      mload(0x40)\n      dup1\n      swap2\n      sub\n      swap1\n      return\n        /* \"LOTERIA/ERC20.sol\":3121:3606  function transfer(address _recipient, uint _numTokens) public override returns(bool) {... */\n    tag_11:\n      tag_51\n      0x04\n      dup1\n      calldatasize\n      sub\n      dup2\n      add\n      swap1\n      tag_52\n      swap2\n      swap1\n      tag_17\n      jump\t// in\n    tag_52:\n      tag_53\n      jump\t// in\n    tag_51:\n      mload(0x40)\n      tag_54\n      swap2\n      swap1\n      tag_20\n      jump\t// in\n    tag_54:\n      mload(0x40)\n      dup1\n      swap2\n      sub\n      swap1\n      return\n        /* \"LOTERIA/ERC20.sol\":2972:3113  function allowance(address _owner, address _delegate) public override view returns(uint) {... */\n    tag_12:\n      tag_55\n      0x04\n      dup1\n      calldatasize\n      sub\n      dup2\n      add\n      swap1\n      tag_56\n      swap2\n      swap1\n      tag_57\n      jump\t// in\n    tag_56:\n      tag_58\n      jump\t// in\n    tag_55:\n      mload(0x40)\n      tag_59\n      swap2\n      swap1\n      tag_24\n      jump\t// in\n    tag_59:\n      mload(0x40)\n      dup1\n      swap2\n      sub\n      swap1\n      return\n        /* \"LOTERIA/ERC20.sol\":2016:2053  string public constant SYMBOL = \"ERC\" */\n    tag_13:\n      tag_60\n      tag_61\n      jump\t// in\n    tag_60:\n      mload(0x40)\n      tag_62\n      swap2\n      swap1\n      tag_50\n      jump\t// in\n    tag_62:\n      mload(0x40)\n      dup1\n      swap2\n      sub\n      swap1\n      return\n        /* \"LOTERIA/ERC20.sol\":4120:4346  function approve(address _delegate, uint _numTokens) public override returns(bool) {... */\n    tag_18:\n        /* \"LOTERIA/ERC20.sol\":4197:4201  bool */\n      0x00\n        /* \"LOTERIA/ERC20.sol\":4247:4257  _numTokens */\n      dup2\n        /* \"LOTERIA/ERC20.sol\":4214:4221  allowed */\n      0x01\n        /* \"LOTERIA/ERC20.sol\":4214:4233  allowed[msg.sender] */\n      0x00\n        /* \"LOTERIA/ERC20.sol\":4222:4232  msg.sender */\n      caller\n        /* \"LOTERIA/ERC20.sol\":4214:4233  allowed[msg.sender] */\n      0xffffffffffffffffffffffffffffffffffffffff\n      and\n      0xffffffffffffffffffffffffffffffffffffffff\n      and\n      dup2\n      mstore\n      0x20\n      add\n      swap1\n      dup2\n      mstore\n      0x20\n      add\n      0x00\n      keccak256\n        /* \"LOTERIA/ERC20.sol\":4214:4244  allowed[msg.sender][_delegate] */\n      0x00\n        /* \"LOTERIA/ERC20.sol\":4234:4243  _delegate */\n      dup6\n        /* \"LOTERIA/ERC20.sol\":4214:4244  allowed[msg.sender][_delegate] */\n      0xffffffffffffffffffffffffffffffffffffffff\n      and\n      0xffffffffffffffffffffffffffffffffffffffff\n      and\n      dup2\n      mstore\n      0x20\n      add\n      swap1\n      dup2\n      mstore\n      0x20\n      add\n      0x00\n      keccak256\n        /* \"LOTERIA/ERC20.sol\":4214:4257  allowed[msg.sender][_delegate] = _numTokens */\n      dup2\n      swap1\n      sstore\n      pop\n        /* \"LOTERIA/ERC20.sol\":4294:4303  _delegate */\n      dup3\n        /* \"LOTERIA/ERC20.sol\":4273:4316  Approval(msg.sender, _delegate, _numTokens) */\n      0xffffffffffffffffffffffffffffffffffffffff\n      and\n        /* \"LOTERIA/ERC20.sol\":4282:4292  msg.sender */\n      caller\n        /* \"LOTERIA/ERC20.sol\":4273:4316  Approval(msg.sender, _delegate, _numTokens) */\n      0xffffffffffffffffffffffffffffffffffffffff\n      and\n      0x8c5be1e5ebec7d5bd14f71427d1e84f3dd0314c0f7b2291e5b200ac8c7c3b925\n        /* \"LOTERIA/ERC20.sol\":4305:4315  _numTokens */\n      dup5\n        /* \"LOTERIA/ERC20.sol\":4273:4316  Approval(msg.sender, _delegate, _numTokens) */\n      mload(0x40)\n      tag_64\n      swap2\n      swap1\n      tag_24\n      jump\t// in\n    tag_64:\n      mload(0x40)\n      dup1\n      swap2\n      sub\n      swap1\n      log3\n        /* \"LOTERIA/ERC20.sol\":4334:4338  true */\n      0x01\n        /* \"LOTERIA/ERC20.sol\":4327:4338  return true */\n      swap1\n      pop\n        /* \"LOTERIA/ERC20.sol\":4120:4346  function approve(address _delegate, uint _numTokens) public override returns(bool) {... */\n      swap3\n      swap2\n      pop\n      pop\n      jump\t// out\n        /* \"LOTERIA/ERC20.sol\":2572:2668  function totalSupply() public override view returns(uint) {... */\n    tag_22:\n        /* \"LOTERIA/ERC20.sol\":2624:2628  uint */\n      0x00\n        /* \"LOTERIA/ERC20.sol\":2648:2660  totalSupply_ */\n      sload(0x02)\n        /* \"LOTERIA/ERC20.sol\":2641:2660  return totalSupply_ */\n      swap1\n      pop\n        /* \"LOTERIA/ERC20.sol\":2572:2668  function totalSupply() public override view returns(uint) {... */\n      swap1\n      jump\t// out\n        /* \"LOTERIA/ERC20.sol\":2676:2834  function increaseTotalSupply(uint newTokensAmount) public {... */\n    tag_28:\n        /* \"LOTERIA/ERC20.sol\":2761:2776  newTokensAmount */\n      dup1\n        /* \"LOTERIA/ERC20.sol\":2745:2757  totalSupply_ */\n      0x02\n      0x00\n        /* \"LOTERIA/ERC20.sol\":2745:2776  totalSupply_ += newTokensAmount */\n      dup3\n      dup3\n      sload\n      tag_67\n      swap2\n      swap1\n      tag_68\n      jump\t// in\n    tag_67:\n      swap3\n      pop\n      pop\n      dup2\n      swap1\n      sstore\n      pop\n        /* \"LOTERIA/ERC20.sol\":2811:2826  newTokensAmount */\n      dup1\n        /* \"LOTERIA/ERC20.sol\":2787:2795  balances */\n      0x00\n        /* \"LOTERIA/ERC20.sol\":2787:2807  balances[msg.sender] */\n      dup1\n        /* \"LOTERIA/ERC20.sol\":2796:2806  msg.sender */\n      caller\n        /* \"LOTERIA/ERC20.sol\":2787:2807  balances[msg.sender] */\n      0xffffffffffffffffffffffffffffffffffffffff\n      and\n      0xffffffffffffffffffffffffffffffffffffffff\n      and\n      dup2\n      mstore\n      0x20\n      add\n      swap1\n      dup2\n      mstore\n      0x20\n      add\n      0x00\n      keccak256\n      0x00\n        /* \"LOTERIA/ERC20.sol\":2787:2826  balances[msg.sender] += newTokensAmount */\n      dup3\n      dup3\n      sload\n      tag_69\n      swap2\n      swap1\n      tag_68\n      jump\t// in\n    tag_69:\n      swap3\n      pop\n      pop\n      dup2\n      swap1\n      sstore\n      pop\n        /* \"LOTERIA/ERC20.sol\":2676:2834  function increaseTotalSupply(uint newTokensAmount) public {... */\n      pop\n      jump\t// out\n        /* \"LOTERIA/ERC20.sol\":4354:4862  function transferFrom(address _owner, address _buyer, uint _numTokens) public override returns(bool) {... */\n    tag_32:\n        /* \"LOTERIA/ERC20.sol\":4449:4453  bool */\n      0x00\n        /* \"LOTERIA/ERC20.sol\":4488:4496  balances */\n      dup1\n        /* \"LOTERIA/ERC20.sol\":4488:4504  balances[_owner] */\n      0x00\n        /* \"LOTERIA/ERC20.sol\":4497:4503  _owner */\n      dup6\n        /* \"LOTERIA/ERC20.sol\":4488:4504  balances[_owner] */\n      0xffffffffffffffffffffffffffffffffffffffff\n      and\n      0xffffffffffffffffffffffffffffffffffffffff\n      and\n      dup2\n      mstore\n      0x20\n      add\n      swap1\n      dup2\n      mstore\n      0x20\n      add\n      0x00\n      keccak256\n      sload\n        /* \"LOTERIA/ERC20.sol\":4474:4484  _numTokens */\n      dup3\n        /* \"LOTERIA/ERC20.sol\":4474:4504  _numTokens <= balances[_owner] */\n      gt\n      iszero\n        /* \"LOTERIA/ERC20.sol\":4466:4505  require(_numTokens <= balances[_owner]) */\n      tag_71\n      jumpi\n      0x00\n      dup1\n      revert\n    tag_71:\n        /* \"LOTERIA/ERC20.sol\":4538:4545  allowed */\n      0x01\n        /* \"LOTERIA/ERC20.sol\":4538:4553  allowed[_owner] */\n      0x00\n        /* \"LOTERIA/ERC20.sol\":4546:4552  _owner */\n      dup6\n        /* \"LOTERIA/ERC20.sol\":4538:4553  allowed[_owner] */\n      0xffffffffffffffffffffffffffffffffffffffff\n      and\n      0xffffffffffffffffffffffffffffffffffffffff\n      and\n      dup2\n      mstore\n      0x20\n      add\n      swap1\n      dup2\n      mstore\n      0x20\n      add\n      0x00\n      keccak256\n        /* \"LOTERIA/ERC20.sol\":4538:4565  allowed[_owner][msg.sender] */\n      0x00\n        /* \"LOTERIA/ERC20.sol\":4554:4564  msg.sender */\n      caller\n        /* \"LOTERIA/ERC20.sol\":4538:4565  allowed[_owner][msg.sender] */\n      0xffffffffffffffffffffffffffffffffffffffff\n      and\n      0xffffffffffffffffffffffffffffffffffffffff\n      and\n      dup2\n      mstore\n      0x20\n      add\n      swap1\n      dup2\n      mstore\n      0x20\n      add\n      0x00\n      keccak256\n      sload\n        /* \"LOTERIA/ERC20.sol\":4524:4534  _numTokens */\n      dup3\n        /* \"LOTERIA/ERC20.sol\":4524:4565  _numTokens <= allowed[_owner][msg.sender] */\n      gt\n      iszero\n        /* \"LOTERIA/ERC20.sol\":4516:4566  require(_numTokens <= allowed[_owner][msg.sender]) */\n      tag_72\n      jumpi\n      0x00\n      dup1\n      revert\n    tag_72:\n        /* \"LOTERIA/ERC20.sol\":4598:4630  balances[_owner].sub(_numTokens) */\n      tag_73\n        /* \"LOTERIA/ERC20.sol\":4619:4629  _numTokens */\n      dup3\n        /* \"LOTERIA/ERC20.sol\":4598:4606  balances */\n      0x00\n        /* \"LOTERIA/ERC20.sol\":4598:4614  balances[_owner] */\n      dup1\n        /* \"LOTERIA/ERC20.sol\":4607:4613  _owner */\n      dup8\n        /* \"LOTERIA/ERC20.sol\":4598:4614  balances[_owner] */\n      0xffffffffffffffffffffffffffffffffffffffff\n      and\n      0xffffffffffffffffffffffffffffffffffffffff\n      and\n      dup2\n      mstore\n      0x20\n      add\n      swap1\n      dup2\n      mstore\n      0x20\n      add\n      0x00\n      keccak256\n      sload\n        /* \"LOTERIA/ERC20.sol\":4598:4618  balances[_owner].sub */\n      tag_74\n      swap1\n        /* \"LOTERIA/ERC20.sol\":4598:4630  balances[_owner].sub(_numTokens) */\n      swap2\n      swap1\n      0xffffffff\n      and\n      jump\t// in\n    tag_73:\n        /* \"LOTERIA/ERC20.sol\":4579:4587  balances */\n      0x00\n        /* \"LOTERIA/ERC20.sol\":4579:4595  balances[_owner] */\n      dup1\n        /* \"LOTERIA/ERC20.sol\":4588:4594  _owner */\n      dup7\n        /* \"LOTERIA/ERC20.sol\":4579:4595  balances[_owner] */\n      0xffffffffffffffffffffffffffffffffffffffff\n      and\n      0xffffffffffffffffffffffffffffffffffffffff\n      and\n      dup2\n      mstore\n      0x20\n      add\n      swap1\n      dup2\n      mstore\n      0x20\n      add\n      0x00\n      keccak256\n        /* \"LOTERIA/ERC20.sol\":4579:4630  balances[_owner] = balances[_owner].sub(_numTokens) */\n      dup2\n      swap1\n      sstore\n      pop\n        /* \"LOTERIA/ERC20.sol\":4671:4714  allowed[_owner][msg.sender].sub(_numTokens) */\n      tag_75\n        /* \"LOTERIA/ERC20.sol\":4703:4713  _numTokens */\n      dup3\n        /* \"LOTERIA/ERC20.sol\":4671:4678  allowed */\n      0x01\n        /* \"LOTERIA/ERC20.sol\":4671:4686  allowed[_owner] */\n      0x00\n        /* \"LOTERIA/ERC20.sol\":4679:4685  _owner */\n      dup8\n        /* \"LOTERIA/ERC20.sol\":4671:4686  allowed[_owner] */\n      0xffffffffffffffffffffffffffffffffffffffff\n      and\n      0xffffffffffffffffffffffffffffffffffffffff\n      and\n      dup2\n      mstore\n      0x20\n      add\n      swap1\n      dup2\n      mstore\n      0x20\n      add\n      0x00\n      keccak256\n        /* \"LOTERIA/ERC20.sol\":4671:4698  allowed[_owner][msg.sender] */\n      0x00\n        /* \"LOTERIA/ERC20.sol\":4687:4697  msg.sender */\n      caller\n        /* \"LOTERIA/ERC20.sol\":4671:4698  allowed[_owner][msg.sender] */\n      0xffffffffffffffffffffffffffffffffffffffff\n      and\n      0xffffffffffffffffffffffffffffffffffffffff\n      and\n      dup2\n      mstore\n      0x20\n      add\n      swap1\n      dup2\n      mstore\n      0x20\n      add\n      0x00\n      keccak256\n      sload\n        /* \"LOTERIA/ERC20.sol\":4671:4702  allowed[_owner][msg.sender].sub */\n      tag_74\n      swap1\n        /* \"LOTERIA/ERC20.sol\":4671:4714  allowed[_owner][msg.sender].sub(_numTokens) */\n      swap2\n      swap1\n      0xffffffff\n      and\n      jump\t// in\n    tag_75:\n        /* \"LOTERIA/ERC20.sol\":4641:4648  allowed */\n      0x01\n        /* \"LOTERIA/ERC20.sol\":4641:4656  allowed[_owner] */\n      0x00\n        /* \"LOTERIA/ERC20.sol\":4649:4655  _owner */\n      dup7\n        /* \"LOTERIA/ERC20.sol\":4641:4656  allowed[_owner] */\n      0xffffffffffffffffffffffffffffffffffffffff\n      and\n      0xffffffffffffffffffffffffffffffffffffffff\n      and\n      dup2\n      mstore\n      0x20\n      add\n      swap1\n      dup2\n      mstore\n      0x20\n      add\n      0x00\n      keccak256\n        /* \"LOTERIA/ERC20.sol\":4641:4668  allowed[_owner][msg.sender] */\n      0x00\n        /* \"LOTERIA/ERC20.sol\":4657:4667  msg.sender */\n      caller\n        /* \"LOTERIA/ERC20.sol\":4641:4668  allowed[_owner][msg.sender] */\n      0xffffffffffffffffffffffffffffffffffffffff\n      and\n      0xffffffffffffffffffffffffffffffffffffffff\n      and\n      dup2\n      mstore\n      0x20\n      add\n      swap1\n      dup2\n      mstore\n      0x20\n      add\n      0x00\n      keccak256\n        /* \"LOTERIA/ERC20.sol\":4641:4714  allowed[_owner][msg.sender] = allowed[_owner][msg.sender].sub(_numTokens) */\n      dup2\n      swap1\n      sstore\n      pop\n        /* \"LOTERIA/ERC20.sol\":4744:4776  balances[_buyer].add(_numTokens) */\n      tag_76\n        /* \"LOTERIA/ERC20.sol\":4765:4775  _numTokens */\n      dup3\n        /* \"LOTERIA/ERC20.sol\":4744:4752  balances */\n      0x00\n        /* \"LOTERIA/ERC20.sol\":4744:4760  balances[_buyer] */\n      dup1\n        /* \"LOTERIA/ERC20.sol\":4753:4759  _buyer */\n      dup7\n        /* \"LOTERIA/ERC20.sol\":4744:4760  balances[_buyer] */\n      0xffffffffffffffffffffffffffffffffffffffff\n      and\n      0xffffffffffffffffffffffffffffffffffffffff\n      and\n      dup2\n      mstore\n      0x20\n      add\n      swap1\n      dup2\n      mstore\n      0x20\n      add\n      0x00\n      keccak256\n      sload\n        /* \"LOTERIA/ERC20.sol\":4744:4764  balances[_buyer].add */\n      tag_77\n      swap1\n        /* \"LOTERIA/ERC20.sol\":4744:4776  balances[_buyer].add(_numTokens) */\n      swap2\n      swap1\n      0xffffffff\n      and\n      jump\t// in\n    tag_76:\n        /* \"LOTERIA/ERC20.sol\":4725:4733  balances */\n      0x00\n        /* \"LOTERIA/ERC20.sol\":4725:4741  balances[_buyer] */\n      dup1\n        /* \"LOTERIA/ERC20.sol\":4734:4740  _buyer */\n      dup6\n        /* \"LOTERIA/ERC20.sol\":4725:4741  balances[_buyer] */\n      0xffffffffffffffffffffffffffffffffffffffff\n      and\n      0xffffffffffffffffffffffffffffffffffffffff\n      and\n      dup2\n      mstore\n      0x20\n      add\n      swap1\n      dup2\n      mstore\n      0x20\n      add\n      0x00\n      keccak256\n        /* \"LOTERIA/ERC20.sol\":4725:4776  balances[_buyer] = balances[_buyer].add(_numTokens) */\n      dup2\n      swap1\n      sstore\n      pop\n        /* \"LOTERIA/ERC20.sol\":4811:4817  _buyer */\n      dup3\n        /* \"LOTERIA/ERC20.sol\":4794:4830  Transfer(_owner, _buyer, _numTokens) */\n      0xffffffffffffffffffffffffffffffffffffffff\n      and\n        /* \"LOTERIA/ERC20.sol\":4803:4809  _owner */\n      dup5\n        /* \"LOTERIA/ERC20.sol\":4794:4830  Transfer(_owner, _buyer, _numTokens) */\n      0xffffffffffffffffffffffffffffffffffffffff\n      and\n      0xddf252ad1be2c89b69c2b068fc378daa952ba7f163c4a11628f55a4df523b3ef\n        /* \"LOTERIA/ERC20.sol\":4819:4829  _numTokens */\n      dup5\n        /* \"LOTERIA/ERC20.sol\":4794:4830  Transfer(_owner, _buyer, _numTokens) */\n      mload(0x40)\n      tag_78\n      swap2\n      swap1\n      tag_24\n      jump\t// in\n    tag_78:\n      mload(0x40)\n      dup1\n      swap2\n      sub\n      swap1\n      log3\n        /* \"LOTERIA/ERC20.sol\":4850:4854  true */\n      0x01\n        /* \"LOTERIA/ERC20.sol\":4843:4854  return true */\n      swap1\n      pop\n        /* \"LOTERIA/ERC20.sol\":4354:4862  function transferFrom(address _owner, address _buyer, uint _numTokens) public override returns(bool) {... */\n      swap4\n      swap3\n      pop\n      pop\n      pop\n      jump\t// out\n        /* \"LOTERIA/ERC20.sol\":2060:2094  uint8 public constant DECIMALS = 2 */\n    tag_35:\n        /* \"LOTERIA/ERC20.sol\":2093:2094  2 */\n      0x02\n        /* \"LOTERIA/ERC20.sol\":2060:2094  uint8 public constant DECIMALS = 2 */\n      dup2\n      jump\t// out\n        /* \"LOTERIA/ERC20.sol\":3614:4112  function transferLoteria(address _client, address _recipient, uint _numTokens) public override returns(bool) {... */\n    tag_40:\n        /* \"LOTERIA/ERC20.sol\":3717:3721  bool */\n      0x00\n        /* \"LOTERIA/ERC20.sol\":3756:3764  balances */\n      dup1\n        /* \"LOTERIA/ERC20.sol\":3756:3773  balances[_client] */\n      0x00\n        /* \"LOTERIA/ERC20.sol\":3765:3772  _client */\n      dup6\n        /* \"LOTERIA/ERC20.sol\":3756:3773  balances[_client] */\n      0xffffffffffffffffffffffffffffffffffffffff\n      and\n      0xffffffffffffffffffffffffffffffffffffffff\n      and\n      dup2\n      mstore\n      0x20\n      add\n      swap1\n      dup2\n      mstore\n      0x20\n      add\n      0x00\n      keccak256\n      sload\n        /* \"LOTERIA/ERC20.sol\":3742:3752  _numTokens */\n      dup3\n        /* \"LOTERIA/ERC20.sol\":3742:3773  _numTokens <= balances[_client] */\n      gt\n      iszero\n        /* \"LOTERIA/ERC20.sol\":3734:3774  require(_numTokens <= balances[_client]) */\n      tag_80\n      jumpi\n      0x00\n      dup1\n      revert\n    tag_80:\n        /* \"LOTERIA/ERC20.sol\":3861:3894  balances[_client].sub(_numTokens) */\n      tag_81\n        /* \"LOTERIA/ERC20.sol\":3883:3893  _numTokens */\n      dup3\n        /* \"LOTERIA/ERC20.sol\":3861:3869  balances */\n      0x00\n        /* \"LOTERIA/ERC20.sol\":3861:3878  balances[_client] */\n      dup1\n        /* \"LOTERIA/ERC20.sol\":3870:3877  _client */\n      dup8\n        /* \"LOTERIA/ERC20.sol\":3861:3878  balances[_client] */\n      0xffffffffffffffffffffffffffffffffffffffff\n      and\n      0xffffffffffffffffffffffffffffffffffffffff\n      and\n      dup2\n      mstore\n      0x20\n      add\n      swap1\n      dup2\n      mstore\n      0x20\n      add\n      0x00\n      keccak256\n      sload\n        /* \"LOTERIA/ERC20.sol\":3861:3882  balances[_client].sub */\n      tag_74\n      swap1\n        /* \"LOTERIA/ERC20.sol\":3861:3894  balances[_client].sub(_numTokens) */\n      swap2\n      swap1\n      0xffffffff\n      and\n      jump\t// in\n    tag_81:\n        /* \"LOTERIA/ERC20.sol\":3841:3849  balances */\n      0x00\n        /* \"LOTERIA/ERC20.sol\":3841:3858  balances[_client] */\n      dup1\n        /* \"LOTERIA/ERC20.sol\":3850:3857  _client */\n      dup7\n        /* \"LOTERIA/ERC20.sol\":3841:3858  balances[_client] */\n      0xffffffffffffffffffffffffffffffffffffffff\n      and\n      0xffffffffffffffffffffffffffffffffffffffff\n      and\n      dup2\n      mstore\n      0x20\n      add\n      swap1\n      dup2\n      mstore\n      0x20\n      add\n      0x00\n      keccak256\n        /* \"LOTERIA/ERC20.sol\":3841:3894  balances[_client] = balances[_client].sub(_numTokens) */\n      dup2\n      swap1\n      sstore\n      pop\n        /* \"LOTERIA/ERC20.sol\":3985:4021  balances[_recipient].add(_numTokens) */\n      tag_82\n        /* \"LOTERIA/ERC20.sol\":4010:4020  _numTokens */\n      dup3\n        /* \"LOTERIA/ERC20.sol\":3985:3993  balances */\n      0x00\n        /* \"LOTERIA/ERC20.sol\":3985:4005  balances[_recipient] */\n      dup1\n        /* \"LOTERIA/ERC20.sol\":3994:4004  _recipient */\n      dup7\n        /* \"LOTERIA/ERC20.sol\":3985:4005  balances[_recipient] */\n      0xffffffffffffffffffffffffffffffffffffffff\n      and\n      0xffffffffffffffffffffffffffffffffffffffff\n      and\n      dup2\n      mstore\n      0x20\n      add\n      swap1\n      dup2\n      mstore\n      0x20\n      add\n      0x00\n      keccak256\n      sload\n        /* \"LOTERIA/ERC20.sol\":3985:4009  balances[_recipient].add */\n      tag_77\n      swap1\n        /* \"LOTERIA/ERC20.sol\":3985:4021  balances[_recipient].add(_numTokens) */\n      swap2\n      swap1\n      0xffffffff\n      and\n      jump\t// in\n    tag_82:\n        /* \"LOTERIA/ERC20.sol\":3962:3970  balances */\n      0x00\n        /* \"LOTERIA/ERC20.sol\":3962:3982  balances[_recipient] */\n      dup1\n        /* \"LOTERIA/ERC20.sol\":3971:3981  _recipient */\n      dup6\n        /* \"LOTERIA/ERC20.sol\":3962:3982  balances[_recipient] */\n      0xffffffffffffffffffffffffffffffffffffffff\n      and\n      0xffffffffffffffffffffffffffffffffffffffff\n      and\n      dup2\n      mstore\n      0x20\n      add\n      swap1\n      dup2\n      mstore\n      0x20\n      add\n      0x00\n      keccak256\n        /* \"LOTERIA/ERC20.sol\":3962:4021  balances[_recipient] = balances[_recipient].add(_numTokens) */\n      dup2\n      swap1\n      sstore\n      pop\n        /* \"LOTERIA/ERC20.sol\":4057:4067  _recipient */\n      dup3\n        /* \"LOTERIA/ERC20.sol\":4039:4080  Transfer(_client, _recipient, _numTokens) */\n      0xffffffffffffffffffffffffffffffffffffffff\n      and\n        /* \"LOTERIA/ERC20.sol\":4048:4055  _client */\n      dup5\n        /* \"LOTERIA/ERC20.sol\":4039:4080  Transfer(_client, _recipient, _numTokens) */\n      0xffffffffffffffffffffffffffffffffffffffff\n      and\n      0xddf252ad1be2c89b69c2b068fc378daa952ba7f163c4a11628f55a4df523b3ef\n        /* \"LOTERIA/ERC20.sol\":4069:4079  _numTokens */\n      dup5\n        /* \"LOTERIA/ERC20.sol\":4039:4080  Transfer(_client, _recipient, _numTokens) */\n      mload(0x40)\n      tag_83\n      swap2\n      swap1\n      tag_24\n      jump\t// in\n    tag_83:\n      mload(0x40)\n      dup1\n      swap2\n      sub\n      swap1\n      log3\n        /* \"LOTERIA/ERC20.sol\":4100:4104  true */\n      0x01\n        /* \"LOTERIA/ERC20.sol\":4093:4104  return true */\n      swap1\n      pop\n        /* \"LOTERIA/ERC20.sol\":3614:4112  function transferLoteria(address _client, address _recipient, uint _numTokens) public override returns(bool) {... */\n      swap4\n      swap3\n      pop\n      pop\n      pop\n      jump\t// out\n        /* \"LOTERIA/ERC20.sol\":2842:2964  function balanceOf(address _tokenOwner) public override view returns(uint) {... */\n    tag_45:\n        /* \"LOTERIA/ERC20.sol\":2911:2915  uint */\n      0x00\n        /* \"LOTERIA/ERC20.sol\":2935:2943  balances */\n      dup1\n        /* \"LOTERIA/ERC20.sol\":2935:2956  balances[_tokenOwner] */\n      0x00\n        /* \"LOTERIA/ERC20.sol\":2944:2955  _tokenOwner */\n      dup4\n        /* \"LOTERIA/ERC20.sol\":2935:2956  balances[_tokenOwner] */\n      0xffffffffffffffffffffffffffffffffffffffff\n      and\n      0xffffffffffffffffffffffffffffffffffffffff\n      and\n      dup2\n      mstore\n      0x20\n      add\n      swap1\n      dup2\n      mstore\n      0x20\n      add\n      0x00\n      keccak256\n      sload\n        /* \"LOTERIA/ERC20.sol\":2928:2956  return balances[_tokenOwner] */\n      swap1\n      pop\n        /* \"LOTERIA/ERC20.sol\":2842:2964  function balanceOf(address _tokenOwner) public override view returns(uint) {... */\n      swap2\n      swap1\n      pop\n      jump\t// out\n        /* \"LOTERIA/ERC20.sol\":1960:2009  string public constant NAME = \"ERC20BlockchainAZ\" */\n    tag_48:\n      mload(0x40)\n      dup1\n      0x40\n      add\n      0x40\n      mstore\n      dup1\n      0x11\n      dup2\n      mstore\n      0x20\n      add\n      0x4552433230426c6f636b636861696e415a000000000000000000000000000000\n      dup2\n      mstore\n      pop\n      dup2\n      jump\t// out\n        /* \"LOTERIA/ERC20.sol\":3121:3606  function transfer(address _recipient, uint _numTokens) public override returns(bool) {... */\n    tag_53:\n        /* \"LOTERIA/ERC20.sol\":3200:3204  bool */\n      0x00\n        /* \"LOTERIA/ERC20.sol\":3239:3247  balances */\n      dup1\n        /* \"LOTERIA/ERC20.sol\":3239:3259  balances[msg.sender] */\n      0x00\n        /* \"LOTERIA/ERC20.sol\":3248:3258  msg.sender */\n      caller\n        /* \"LOTERIA/ERC20.sol\":3239:3259  balances[msg.sender] */\n      0xffffffffffffffffffffffffffffffffffffffff\n      and\n      0xffffffffffffffffffffffffffffffffffffffff\n      and\n      dup2\n      mstore\n      0x20\n      add\n      swap1\n      dup2\n      mstore\n      0x20\n      add\n      0x00\n      keccak256\n      sload\n        /* \"LOTERIA/ERC20.sol\":3225:3235  _numTokens */\n      dup3\n        /* \"LOTERIA/ERC20.sol\":3225:3259  _numTokens <= balances[msg.sender] */\n      gt\n      iszero\n        /* \"LOTERIA/ERC20.sol\":3217:3260  require(_numTokens <= balances[msg.sender]) */\n      tag_86\n      jumpi\n      0x00\n      dup1\n      revert\n    tag_86:\n        /* \"LOTERIA/ERC20.sol\":3349:3385  balances[msg.sender].sub(_numTokens) */\n      tag_87\n        /* \"LOTERIA/ERC20.sol\":3374:3384  _numTokens */\n      dup3\n        /* \"LOTERIA/ERC20.sol\":3349:3357  balances */\n      0x00\n        /* \"LOTERIA/ERC20.sol\":3349:3369  balances[msg.sender] */\n      dup1\n        /* \"LOTERIA/ERC20.sol\":3358:3368  msg.sender */\n      caller\n        /* \"LOTERIA/ERC20.sol\":3349:3369  balances[msg.sender] */\n      0xffffffffffffffffffffffffffffffffffffffff\n      and\n      0xffffffffffffffffffffffffffffffffffffffff\n      and\n      dup2\n      mstore\n      0x20\n      add\n      swap1\n      dup2\n      mstore\n      0x20\n      add\n      0x00\n      keccak256\n      sload\n        /* \"LOTERIA/ERC20.sol\":3349:3373  balances[msg.sender].sub */\n      tag_74\n      swap1\n        /* \"LOTERIA/ERC20.sol\":3349:3385  balances[msg.sender].sub(_numTokens) */\n      swap2\n      swap1\n      0xffffffff\n      and\n      jump\t// in\n    tag_87:\n        /* \"LOTERIA/ERC20.sol\":3326:3334  balances */\n      0x00\n        /* \"LOTERIA/ERC20.sol\":3326:3346  balances[msg.sender] */\n      dup1\n        /* \"LOTERIA/ERC20.sol\":3335:3345  msg.sender */\n      caller\n        /* \"LOTERIA/ERC20.sol\":3326:3346  balances[msg.sender] */\n      0xffffffffffffffffffffffffffffffffffffffff\n      and\n      0xffffffffffffffffffffffffffffffffffffffff\n      and\n      dup2\n      mstore\n      0x20\n      add\n      swap1\n      dup2\n      mstore\n      0x20\n      add\n      0x00\n      keccak256\n        /* \"LOTERIA/ERC20.sol\":3326:3385  balances[msg.sender] = balances[msg.sender].sub(_numTokens) */\n      dup2\n      swap1\n      sstore\n      pop\n        /* \"LOTERIA/ERC20.sol\":3476:3512  balances[_recipient].add(_numTokens) */\n      tag_88\n        /* \"LOTERIA/ERC20.sol\":3501:3511  _numTokens */\n      dup3\n        /* \"LOTERIA/ERC20.sol\":3476:3484  balances */\n      0x00\n        /* \"LOTERIA/ERC20.sol\":3476:3496  balances[_recipient] */\n      dup1\n        /* \"LOTERIA/ERC20.sol\":3485:3495  _recipient */\n      dup7\n        /* \"LOTERIA/ERC20.sol\":3476:3496  balances[_recipient] */\n      0xffffffffffffffffffffffffffffffffffffffff\n      and\n      0xffffffffffffffffffffffffffffffffffffffff\n      and\n      dup2\n      mstore\n      0x20\n      add\n      swap1\n      dup2\n      mstore\n      0x20\n      add\n      0x00\n      keccak256\n      sload\n        /* \"LOTERIA/ERC20.sol\":3476:3500  balances[_recipient].add */\n      tag_77\n      swap1\n        /* \"LOTERIA/ERC20.sol\":3476:3512  balances[_recipient].add(_numTokens) */\n      swap2\n      swap1\n      0xffffffff\n      and\n      jump\t// in\n    tag_88:\n        /* \"LOTERIA/ERC20.sol\":3453:3461  balances */\n      0x00\n        /* \"LOTERIA/ERC20.sol\":3453:3473  balances[_recipient] */\n      dup1\n        /* \"LOTERIA/ERC20.sol\":3462:3472  _recipient */\n      dup6\n        /* \"LOTERIA/ERC20.sol\":3453:3473  balances[_recipient] */\n      0xffffffffffffffffffffffffffffffffffffffff\n      and\n      0xffffffffffffffffffffffffffffffffffffffff\n      and\n      dup2\n      mstore\n      0x20\n      add\n      swap1\n      dup2\n      mstore\n      0x20\n      add\n      0x00\n      keccak256\n        /* \"LOTERIA/ERC20.sol\":3453:3512  balances[_recipient] = balances[_recipient].add(_numTokens) */\n      dup2\n      swap1\n      sstore\n      pop\n        /* \"LOTERIA/ERC20.sol\":3551:3561  _recipient */\n      dup3\n        /* \"LOTERIA/ERC20.sol\":3530:3574  Transfer(msg.sender, _recipient, _numTokens) */\n      0xffffffffffffffffffffffffffffffffffffffff\n      and\n        /* \"LOTERIA/ERC20.sol\":3539:3549  msg.sender */\n      caller\n        /* \"LOTERIA/ERC20.sol\":3530:3574  Transfer(msg.sender, _recipient, _numTokens) */\n      0xffffffffffffffffffffffffffffffffffffffff\n      and\n      0xddf252ad1be2c89b69c2b068fc378daa952ba7f163c4a11628f55a4df523b3ef\n        /* \"LOTERIA/ERC20.sol\":3563:3573  _numTokens */\n      dup5\n        /* \"LOTERIA/ERC20.sol\":3530:3574  Transfer(msg.sender, _recipient, _numTokens) */\n      mload(0x40)\n      tag_89\n      swap2\n      swap1\n      tag_24\n      jump\t// in\n    tag_89:\n      mload(0x40)\n      dup1\n      swap2\n      sub\n      swap1\n      log3\n        /* \"LOTERIA/ERC20.sol\":3594:3598  true */\n      0x01\n        /* \"LOTERIA/ERC20.sol\":3587:3598  return true */\n      swap1\n      pop\n        /* \"LOTERIA/ERC20.sol\":3121:3606  function transfer(address _recipient, uint _numTokens) public override returns(bool) {... */\n      swap3\n      swap2\n      pop\n      pop\n      jump\t// out\n        /* \"LOTERIA/ERC20.sol\":2972:3113  function allowance(address _owner, address _delegate) public override view returns(uint) {... */\n    tag_58:\n        /* \"LOTERIA/ERC20.sol\":3055:3059  uint */\n      0x00\n        /* \"LOTERIA/ERC20.sol\":3079:3086  allowed */\n      0x01\n        /* \"LOTERIA/ERC20.sol\":3079:3094  allowed[_owner] */\n      0x00\n        /* \"LOTERIA/ERC20.sol\":3087:3093  _owner */\n      dup5\n        /* \"LOTERIA/ERC20.sol\":3079:3094  allowed[_owner] */\n      0xffffffffffffffffffffffffffffffffffffffff\n      and\n      0xffffffffffffffffffffffffffffffffffffffff\n      and\n      dup2\n      mstore\n      0x20\n      add\n      swap1\n      dup2\n      mstore\n      0x20\n      add\n      0x00\n      keccak256\n        /* \"LOTERIA/ERC20.sol\":3079:3105  allowed[_owner][_delegate] */\n      0x00\n        /* \"LOTERIA/ERC20.sol\":3095:3104  _delegate */\n      dup4\n        /* \"LOTERIA/ERC20.sol\":3079:3105  allowed[_owner][_delegate] */\n      0xffffffffffffffffffffffffffffffffffffffff\n      and\n      0xffffffffffffffffffffffffffffffffffffffff\n      and\n      dup2\n      mstore\n      0x20\n      add\n      swap1\n      dup2\n      mstore\n      0x20\n      add\n      0x00\n      keccak256\n      sload\n        /* \"LOTERIA/ERC20.sol\":3072:3105  return allowed[_owner][_delegate] */\n      swap1\n      pop\n        /* \"LOTERIA/ERC20.sol\":2972:3113  function allowance(address _owner, address _delegate) public override view returns(uint) {... */\n      swap3\n      swap2\n      pop\n      pop\n      jump\t// out\n        /* \"LOTERIA/ERC20.sol\":2016:2053  string public constant SYMBOL = \"ERC\" */\n    tag_61:\n      mload(0x40)\n      dup1\n      0x40\n      add\n      0x40\n      mstore\n      dup1\n      0x03\n      dup2\n      mstore\n      0x20\n      add\n      0x4552430000000000000000000000000000000000000000000000000000000000\n      dup2\n      mstore\n      pop\n      dup2\n      jump\t// out\n        /* \"LOTERIA/SafeMath.sol\":319:438  function sub(uint256 a, uint256 b) internal pure returns (uint256) {... */\n    tag_74:\n        /* \"LOTERIA/SafeMath.sol\":377:384  uint256 */\n      0x00\n        /* \"LOTERIA/SafeMath.sol\":407:408  a */\n      dup3\n        /* \"LOTERIA/SafeMath.sol\":402:403  b */\n      dup3\n        /* \"LOTERIA/SafeMath.sol\":402:408  b <= a */\n      gt\n      iszero\n        /* \"LOTERIA/SafeMath.sol\":395:409  assert(b <= a) */\n      tag_92\n      jumpi\n      tag_93\n      tag_94\n      jump\t// in\n    tag_93:\n    tag_92:\n        /* \"LOTERIA/SafeMath.sol\":429:430  b */\n      dup2\n        /* \"LOTERIA/SafeMath.sol\":425:426  a */\n      dup4\n        /* \"LOTERIA/SafeMath.sol\":425:430  a - b */\n      tag_95\n      swap2\n      swap1\n      tag_96\n      jump\t// in\n    tag_95:\n        /* \"LOTERIA/SafeMath.sol\":418:430  return a - b */\n      swap1\n      pop\n        /* \"LOTERIA/SafeMath.sol\":319:438  function sub(uint256 a, uint256 b) internal pure returns (uint256) {... */\n      swap3\n      swap2\n      pop\n      pop\n      jump\t// out\n        /* \"LOTERIA/SafeMath.sol\":464:605  function add(uint256 a, uint256 b) internal pure returns (uint256) {... */\n    tag_77:\n        /* \"LOTERIA/SafeMath.sol\":522:529  uint256 */\n      0x00\n        /* \"LOTERIA/SafeMath.sol\":540:549  uint256 c */\n      dup1\n        /* \"LOTERIA/SafeMath.sol\":556:557  b */\n      dup3\n        /* \"LOTERIA/SafeMath.sol\":552:553  a */\n      dup5\n        /* \"LOTERIA/SafeMath.sol\":552:557  a + b */\n      tag_98\n      swap2\n      swap1\n      tag_68\n      jump\t// in\n    tag_98:\n        /* \"LOTERIA/SafeMath.sol\":540:557  uint256 c = a + b */\n      swap1\n      pop\n        /* \"LOTERIA/SafeMath.sol\":578:579  a */\n      dup4\n        /* \"LOTERIA/SafeMath.sol\":573:574  c */\n      dup2\n        /* \"LOTERIA/SafeMath.sol\":573:579  c >= a */\n      lt\n      iszero\n        /* \"LOTERIA/SafeMath.sol\":566:580  assert(c >= a) */\n      tag_99\n      jumpi\n      tag_100\n      tag_94\n      jump\t// in\n    tag_100:\n    tag_99:\n        /* \"LOTERIA/SafeMath.sol\":596:597  c */\n      dup1\n        /* \"LOTERIA/SafeMath.sol\":589:597  return c */\n      swap2\n      pop\n      pop\n        /* \"LOTERIA/SafeMath.sol\":464:605  function add(uint256 a, uint256 b) internal pure returns (uint256) {... */\n      swap3\n      swap2\n      pop\n      pop\n      jump\t// out\n        /* \"#utility.yul\":88:205   */\n    tag_102:\n        /* \"#utility.yul\":197:198   */\n      0x00\n        /* \"#utility.yul\":194:195   */\n      dup1\n        /* \"#utility.yul\":187:199   */\n      revert\n        /* \"#utility.yul\":334:460   */\n    tag_104:\n        /* \"#utility.yul\":371:378   */\n      0x00\n        /* \"#utility.yul\":411:453   */\n      0xffffffffffffffffffffffffffffffffffffffff\n        /* \"#utility.yul\":404:409   */\n      dup3\n        /* \"#utility.yul\":400:454   */\n      and\n        /* \"#utility.yul\":389:454   */\n      swap1\n      pop\n        /* \"#utility.yul\":334:460   */\n      swap2\n      swap1\n      pop\n      jump\t// out\n        /* \"#utility.yul\":466:562   */\n    tag_105:\n        /* \"#utility.yul\":503:510   */\n      0x00\n        /* \"#utility.yul\":532:556   */\n      tag_128\n        /* \"#utility.yul\":550:555   */\n      dup3\n        /* \"#utility.yul\":532:556   */\n      tag_104\n      jump\t// in\n    tag_128:\n        /* \"#utility.yul\":521:556   */\n      swap1\n      pop\n        /* \"#utility.yul\":466:562   */\n      swap2\n      swap1\n      pop\n      jump\t// out\n        /* \"#utility.yul\":568:690   */\n    tag_106:\n        /* \"#utility.yul\":641:665   */\n      tag_130\n        /* \"#utility.yul\":659:664   */\n      dup2\n        /* \"#utility.yul\":641:665   */\n      tag_105\n      jump\t// in\n    tag_130:\n        /* \"#utility.yul\":634:639   */\n      dup2\n        /* \"#utility.yul\":631:666   */\n      eq\n        /* \"#utility.yul\":621:684   */\n      tag_131\n      jumpi\n        /* \"#utility.yul\":680:681   */\n      0x00\n        /* \"#utility.yul\":677:678   */\n      dup1\n        /* \"#utility.yul\":670:682   */\n      revert\n        /* \"#utility.yul\":621:684   */\n    tag_131:\n        /* \"#utility.yul\":568:690   */\n      pop\n      jump\t// out\n        /* \"#utility.yul\":696:835   */\n    tag_107:\n        /* \"#utility.yul\":742:747   */\n      0x00\n        /* \"#utility.yul\":780:786   */\n      dup2\n        /* \"#utility.yul\":767:787   */\n      calldataload\n        /* \"#utility.yul\":758:787   */\n      swap1\n      pop\n        /* \"#utility.yul\":796:829   */\n      tag_133\n        /* \"#utility.yul\":823:828   */\n      dup2\n        /* \"#utility.yul\":796:829   */\n      tag_106\n      jump\t// in\n    tag_133:\n        /* \"#utility.yul\":696:835   */\n      swap3\n      swap2\n      pop\n      pop\n      jump\t// out\n        /* \"#utility.yul\":841:918   */\n    tag_108:\n        /* \"#utility.yul\":878:885   */\n      0x00\n        /* \"#utility.yul\":907:912   */\n      dup2\n        /* \"#utility.yul\":896:912   */\n      swap1\n      pop\n        /* \"#utility.yul\":841:918   */\n      swap2\n      swap1\n      pop\n      jump\t// out\n        /* \"#utility.yul\":924:1046   */\n    tag_109:\n        /* \"#utility.yul\":997:1021   */\n      tag_136\n        /* \"#utility.yul\":1015:1020   */\n      dup2\n        /* \"#utility.yul\":997:1021   */\n      tag_108\n      jump\t// in\n    tag_136:\n        /* \"#utility.yul\":990:995   */\n      dup2\n        /* \"#utility.yul\":987:1022   */\n      eq\n        /* \"#utility.yul\":977:1040   */\n      tag_137\n      jumpi\n        /* \"#utility.yul\":1036:1037   */\n      0x00\n        /* \"#utility.yul\":1033:1034   */\n      dup1\n        /* \"#utility.yul\":1026:1038   */\n      revert\n        /* \"#utility.yul\":977:1040   */\n    tag_137:\n        /* \"#utility.yul\":924:1046   */\n      pop\n      jump\t// out\n        /* \"#utility.yul\":1052:1191   */\n    tag_110:\n        /* \"#utility.yul\":1098:1103   */\n      0x00\n        /* \"#utility.yul\":1136:1142   */\n      dup2\n        /* \"#utility.yul\":1123:1143   */\n      calldataload\n        /* \"#utility.yul\":1114:1143   */\n      swap1\n      pop\n        /* \"#utility.yul\":1152:1185   */\n      tag_139\n        /* \"#utility.yul\":1179:1184   */\n      dup2\n        /* \"#utility.yul\":1152:1185   */\n      tag_109\n      jump\t// in\n    tag_139:\n        /* \"#utility.yul\":1052:1191   */\n      swap3\n      swap2\n      pop\n      pop\n      jump\t// out\n        /* \"#utility.yul\":1197:1671   */\n    tag_17:\n        /* \"#utility.yul\":1265:1271   */\n      0x00\n        /* \"#utility.yul\":1273:1279   */\n      dup1\n        /* \"#utility.yul\":1322:1324   */\n      0x40\n        /* \"#utility.yul\":1310:1319   */\n      dup4\n        /* \"#utility.yul\":1301:1308   */\n      dup6\n        /* \"#utility.yul\":1297:1320   */\n      sub\n        /* \"#utility.yul\":1293:1325   */\n      slt\n        /* \"#utility.yul\":1290:1409   */\n      iszero\n      tag_141\n      jumpi\n        /* \"#utility.yul\":1328:1407   */\n      tag_142\n      tag_102\n      jump\t// in\n    tag_142:\n        /* \"#utility.yul\":1290:1409   */\n    tag_141:\n        /* \"#utility.yul\":1448:1449   */\n      0x00\n        /* \"#utility.yul\":1473:1526   */\n      tag_143\n        /* \"#utility.yul\":1518:1525   */\n      dup6\n        /* \"#utility.yul\":1509:1515   */\n      dup3\n        /* \"#utility.yul\":1498:1507   */\n      dup7\n        /* \"#utility.yul\":1494:1516   */\n      add\n        /* \"#utility.yul\":1473:1526   */\n      tag_107\n      jump\t// in\n    tag_143:\n        /* \"#utility.yul\":1463:1526   */\n      swap3\n      pop\n        /* \"#utility.yul\":1419:1536   */\n      pop\n        /* \"#utility.yul\":1575:1577   */\n      0x20\n        /* \"#utility.yul\":1601:1654   */\n      tag_144\n        /* \"#utility.yul\":1646:1653   */\n      dup6\n        /* \"#utility.yul\":1637:1643   */\n      dup3\n        /* \"#utility.yul\":1626:1635   */\n      dup7\n        /* \"#utility.yul\":1622:1644   */\n      add\n        /* \"#utility.yul\":1601:1654   */\n      tag_110\n      jump\t// in\n    tag_144:\n        /* \"#utility.yul\":1591:1654   */\n      swap2\n      pop\n        /* \"#utility.yul\":1546:1664   */\n      pop\n        /* \"#utility.yul\":1197:1671   */\n      swap3\n      pop\n      swap3\n      swap1\n      pop\n      jump\t// out\n        /* \"#utility.yul\":1677:1767   */\n    tag_111:\n        /* \"#utility.yul\":1711:1718   */\n      0x00\n        /* \"#utility.yul\":1754:1759   */\n      dup2\n        /* \"#utility.yul\":1747:1760   */\n      iszero\n        /* \"#utility.yul\":1740:1761   */\n      iszero\n        /* \"#utility.yul\":1729:1761   */\n      swap1\n      pop\n        /* \"#utility.yul\":1677:1767   */\n      swap2\n      swap1\n      pop\n      jump\t// out\n        /* \"#utility.yul\":1773:1882   */\n    tag_112:\n        /* \"#utility.yul\":1854:1875   */\n      tag_147\n        /* \"#utility.yul\":1869:1874   */\n      dup2\n        /* \"#utility.yul\":1854:1875   */\n      tag_111\n      jump\t// in\n    tag_147:\n        /* \"#utility.yul\":1849:1852   */\n      dup3\n        /* \"#utility.yul\":1842:1876   */\n      mstore\n        /* \"#utility.yul\":1773:1882   */\n      pop\n      pop\n      jump\t// out\n        /* \"#utility.yul\":1888:2098   */\n    tag_20:\n        /* \"#utility.yul\":1975:1979   */\n      0x00\n        /* \"#utility.yul\":2013:2015   */\n      0x20\n        /* \"#utility.yul\":2002:2011   */\n      dup3\n        /* \"#utility.yul\":1998:2016   */\n      add\n        /* \"#utility.yul\":1990:2016   */\n      swap1\n      pop\n        /* \"#utility.yul\":2026:2091   */\n      tag_149\n        /* \"#utility.yul\":2088:2089   */\n      0x00\n        /* \"#utility.yul\":2077:2086   */\n      dup4\n        /* \"#utility.yul\":2073:2090   */\n      add\n        /* \"#utility.yul\":2064:2070   */\n      dup5\n        /* \"#utility.yul\":2026:2091   */\n      tag_112\n      jump\t// in\n    tag_149:\n        /* \"#utility.yul\":1888:2098   */\n      swap3\n      swap2\n      pop\n      pop\n      jump\t// out\n        /* \"#utility.yul\":2104:2222   */\n    tag_113:\n        /* \"#utility.yul\":2191:2215   */\n      tag_151\n        /* \"#utility.yul\":2209:2214   */\n      dup2\n        /* \"#utility.yul\":2191:2215   */\n      tag_108\n      jump\t// in\n    tag_151:\n        /* \"#utility.yul\":2186:2189   */\n      dup3\n        /* \"#utility.yul\":2179:2216   */\n      mstore\n        /* \"#utility.yul\":2104:2222   */\n      pop\n      pop\n      jump\t// out\n        /* \"#utility.yul\":2228:2450   */\n    tag_24:\n        /* \"#utility.yul\":2321:2325   */\n      0x00\n        /* \"#utility.yul\":2359:2361   */\n      0x20\n        /* \"#utility.yul\":2348:2357   */\n      dup3\n        /* \"#utility.yul\":2344:2362   */\n      add\n        /* \"#utility.yul\":2336:2362   */\n      swap1\n      pop\n        /* \"#utility.yul\":2372:2443   */\n      tag_153\n        /* \"#utility.yul\":2440:2441   */\n      0x00\n        /* \"#utility.yul\":2429:2438   */\n      dup4\n        /* \"#utility.yul\":2425:2442   */\n      add\n        /* \"#utility.yul\":2416:2422   */\n      dup5\n        /* \"#utility.yul\":2372:2443   */\n      tag_113\n      jump\t// in\n    tag_153:\n        /* \"#utility.yul\":2228:2450   */\n      swap3\n      swap2\n      pop\n      pop\n      jump\t// out\n        /* \"#utility.yul\":2456:2785   */\n    tag_27:\n        /* \"#utility.yul\":2515:2521   */\n      0x00\n        /* \"#utility.yul\":2564:2566   */\n      0x20\n        /* \"#utility.yul\":2552:2561   */\n      dup3\n        /* \"#utility.yul\":2543:2550   */\n      dup5\n        /* \"#utility.yul\":2539:2562   */\n      sub\n        /* \"#utility.yul\":2535:2567   */\n      slt\n        /* \"#utility.yul\":2532:2651   */\n      iszero\n      tag_155\n      jumpi\n        /* \"#utility.yul\":2570:2649   */\n      tag_156\n      tag_102\n      jump\t// in\n    tag_156:\n        /* \"#utility.yul\":2532:2651   */\n    tag_155:\n        /* \"#utility.yul\":2690:2691   */\n      0x00\n        /* \"#utility.yul\":2715:2768   */\n      tag_157\n        /* \"#utility.yul\":2760:2767   */\n      dup5\n        /* \"#utility.yul\":2751:2757   */\n      dup3\n        /* \"#utility.yul\":2740:2749   */\n      dup6\n        /* \"#utility.yul\":2736:2758   */\n      add\n        /* \"#utility.yul\":2715:2768   */\n      tag_110\n      jump\t// in\n    tag_157:\n        /* \"#utility.yul\":2705:2768   */\n      swap2\n      pop\n        /* \"#utility.yul\":2661:2778   */\n      pop\n        /* \"#utility.yul\":2456:2785   */\n      swap3\n      swap2\n      pop\n      pop\n      jump\t// out\n        /* \"#utility.yul\":2791:3410   */\n    tag_31:\n        /* \"#utility.yul\":2868:2874   */\n      0x00\n        /* \"#utility.yul\":2876:2882   */\n      dup1\n        /* \"#utility.yul\":2884:2890   */\n      0x00\n        /* \"#utility.yul\":2933:2935   */\n      0x60\n        /* \"#utility.yul\":2921:2930   */\n      dup5\n        /* \"#utility.yul\":2912:2919   */\n      dup7\n        /* \"#utility.yul\":2908:2931   */\n      sub\n        /* \"#utility.yul\":2904:2936   */\n      slt\n        /* \"#utility.yul\":2901:3020   */\n      iszero\n      tag_159\n      jumpi\n        /* \"#utility.yul\":2939:3018   */\n      tag_160\n      tag_102\n      jump\t// in\n    tag_160:\n        /* \"#utility.yul\":2901:3020   */\n    tag_159:\n        /* \"#utility.yul\":3059:3060   */\n      0x00\n        /* \"#utility.yul\":3084:3137   */\n      tag_161\n        /* \"#utility.yul\":3129:3136   */\n      dup7\n        /* \"#utility.yul\":3120:3126   */\n      dup3\n        /* \"#utility.yul\":3109:3118   */\n      dup8\n        /* \"#utility.yul\":3105:3127   */\n      add\n        /* \"#utility.yul\":3084:3137   */\n      tag_107\n      jump\t// in\n    tag_161:\n        /* \"#utility.yul\":3074:3137   */\n      swap4\n      pop\n        /* \"#utility.yul\":3030:3147   */\n      pop\n        /* \"#utility.yul\":3186:3188   */\n      0x20\n        /* \"#utility.yul\":3212:3265   */\n      tag_162\n        /* \"#utility.yul\":3257:3264   */\n      dup7\n        /* \"#utility.yul\":3248:3254   */\n      dup3\n        /* \"#utility.yul\":3237:3246   */\n      dup8\n        /* \"#utility.yul\":3233:3255   */\n      add\n        /* \"#utility.yul\":3212:3265   */\n      tag_107\n      jump\t// in\n    tag_162:\n        /* \"#utility.yul\":3202:3265   */\n      swap3\n      pop\n        /* \"#utility.yul\":3157:3275   */\n      pop\n        /* \"#utility.yul\":3314:3316   */\n      0x40\n        /* \"#utility.yul\":3340:3393   */\n      tag_163\n        /* \"#utility.yul\":3385:3392   */\n      dup7\n        /* \"#utility.yul\":3376:3382   */\n      dup3\n        /* \"#utility.yul\":3365:3374   */\n      dup8\n        /* \"#utility.yul\":3361:3383   */\n      add\n        /* \"#utility.yul\":3340:3393   */\n      tag_110\n      jump\t// in\n    tag_163:\n        /* \"#utility.yul\":3330:3393   */\n      swap2\n      pop\n        /* \"#utility.yul\":3285:3403   */\n      pop\n        /* \"#utility.yul\":2791:3410   */\n      swap3\n      pop\n      swap3\n      pop\n      swap3\n      jump\t// out\n        /* \"#utility.yul\":3416:3502   */\n    tag_114:\n        /* \"#utility.yul\":3451:3458   */\n      0x00\n        /* \"#utility.yul\":3491:3495   */\n      0xff\n        /* \"#utility.yul\":3484:3489   */\n      dup3\n        /* \"#utility.yul\":3480:3496   */\n      and\n        /* \"#utility.yul\":3469:3496   */\n      swap1\n      pop\n        /* \"#utility.yul\":3416:3502   */\n      swap2\n      swap1\n      pop\n      jump\t// out\n        /* \"#utility.yul\":3508:3620   */\n    tag_115:\n        /* \"#utility.yul\":3591:3613   */\n      tag_166\n        /* \"#utility.yul\":3607:3612   */\n      dup2\n        /* \"#utility.yul\":3591:3613   */\n      tag_114\n      jump\t// in\n    tag_166:\n        /* \"#utility.yul\":3586:3589   */\n      dup3\n        /* \"#utility.yul\":3579:3614   */\n      mstore\n        /* \"#utility.yul\":3508:3620   */\n      pop\n      pop\n      jump\t// out\n        /* \"#utility.yul\":3626:3840   */\n    tag_37:\n        /* \"#utility.yul\":3715:3719   */\n      0x00\n        /* \"#utility.yul\":3753:3755   */\n      0x20\n        /* \"#utility.yul\":3742:3751   */\n      dup3\n        /* \"#utility.yul\":3738:3756   */\n      add\n        /* \"#utility.yul\":3730:3756   */\n      swap1\n      pop\n        /* \"#utility.yul\":3766:3833   */\n      tag_168\n        /* \"#utility.yul\":3830:3831   */\n      0x00\n        /* \"#utility.yul\":3819:3828   */\n      dup4\n        /* \"#utility.yul\":3815:3832   */\n      add\n        /* \"#utility.yul\":3806:3812   */\n      dup5\n        /* \"#utility.yul\":3766:3833   */\n      tag_115\n      jump\t// in\n    tag_168:\n        /* \"#utility.yul\":3626:3840   */\n      swap3\n      swap2\n      pop\n      pop\n      jump\t// out\n        /* \"#utility.yul\":3846:4175   */\n    tag_44:\n        /* \"#utility.yul\":3905:3911   */\n      0x00\n        /* \"#utility.yul\":3954:3956   */\n      0x20\n        /* \"#utility.yul\":3942:3951   */\n      dup3\n        /* \"#utility.yul\":3933:3940   */\n      dup5\n        /* \"#utility.yul\":3929:3952   */\n      sub\n        /* \"#utility.yul\":3925:3957   */\n      slt\n        /* \"#utility.yul\":3922:4041   */\n      iszero\n      tag_170\n      jumpi\n        /* \"#utility.yul\":3960:4039   */\n      tag_171\n      tag_102\n      jump\t// in\n    tag_171:\n        /* \"#utility.yul\":3922:4041   */\n    tag_170:\n        /* \"#utility.yul\":4080:4081   */\n      0x00\n        /* \"#utility.yul\":4105:4158   */\n      tag_172\n        /* \"#utility.yul\":4150:4157   */\n      dup5\n        /* \"#utility.yul\":4141:4147   */\n      dup3\n        /* \"#utility.yul\":4130:4139   */\n      dup6\n        /* \"#utility.yul\":4126:4148   */\n      add\n        /* \"#utility.yul\":4105:4158   */\n      tag_107\n      jump\t// in\n    tag_172:\n        /* \"#utility.yul\":4095:4158   */\n      swap2\n      pop\n        /* \"#utility.yul\":4051:4168   */\n      pop\n        /* \"#utility.yul\":3846:4175   */\n      swap3\n      swap2\n      pop\n      pop\n      jump\t// out\n        /* \"#utility.yul\":4181:4280   */\n    tag_116:\n        /* \"#utility.yul\":4233:4239   */\n      0x00\n        /* \"#utility.yul\":4267:4272   */\n      dup2\n        /* \"#utility.yul\":4261:4273   */\n      mload\n        /* \"#utility.yul\":4251:4273   */\n      swap1\n      pop\n        /* \"#utility.yul\":4181:4280   */\n      swap2\n      swap1\n      pop\n      jump\t// out\n        /* \"#utility.yul\":4286:4455   */\n    tag_117:\n        /* \"#utility.yul\":4370:4381   */\n      0x00\n        /* \"#utility.yul\":4404:4410   */\n      dup3\n        /* \"#utility.yul\":4399:4402   */\n      dup3\n        /* \"#utility.yul\":4392:4411   */\n      mstore\n        /* \"#utility.yul\":4444:4448   */\n      0x20\n        /* \"#utility.yul\":4439:4442   */\n      dup3\n        /* \"#utility.yul\":4435:4449   */\n      add\n        /* \"#utility.yul\":4420:4449   */\n      swap1\n      pop\n        /* \"#utility.yul\":4286:4455   */\n      swap3\n      swap2\n      pop\n      pop\n      jump\t// out\n        /* \"#utility.yul\":4461:4707   */\n    tag_118:\n        /* \"#utility.yul\":4542:4543   */\n      0x00\n        /* \"#utility.yul\":4552:4665   */\n    tag_176:\n        /* \"#utility.yul\":4566:4572   */\n      dup4\n        /* \"#utility.yul\":4563:4564   */\n      dup2\n        /* \"#utility.yul\":4560:4573   */\n      lt\n        /* \"#utility.yul\":4552:4665   */\n      iszero\n      tag_178\n      jumpi\n        /* \"#utility.yul\":4651:4652   */\n      dup1\n        /* \"#utility.yul\":4646:4649   */\n      dup3\n        /* \"#utility.yul\":4642:4653   */\n      add\n        /* \"#utility.yul\":4636:4654   */\n      mload\n        /* \"#utility.yul\":4632:4633   */\n      dup2\n        /* \"#utility.yul\":4627:4630   */\n      dup5\n        /* \"#utility.yul\":4623:4634   */\n      add\n        /* \"#utility.yul\":4616:4655   */\n      mstore\n        /* \"#utility.yul\":4588:4590   */\n      0x20\n        /* \"#utility.yul\":4585:4586   */\n      dup2\n        /* \"#utility.yul\":4581:4591   */\n      add\n        /* \"#utility.yul\":4576:4591   */\n      swap1\n      pop\n        /* \"#utility.yul\":4552:4665   */\n      jump(tag_176)\n    tag_178:\n        /* \"#utility.yul\":4699:4700   */\n      0x00\n        /* \"#utility.yul\":4690:4696   */\n      dup5\n        /* \"#utility.yul\":4685:4688   */\n      dup5\n        /* \"#utility.yul\":4681:4697   */\n      add\n        /* \"#utility.yul\":4674:4701   */\n      mstore\n        /* \"#utility.yul\":4523:4707   */\n      pop\n        /* \"#utility.yul\":4461:4707   */\n      pop\n      pop\n      pop\n      jump\t// out\n        /* \"#utility.yul\":4713:4815   */\n    tag_119:\n        /* \"#utility.yul\":4754:4760   */\n      0x00\n        /* \"#utility.yul\":4805:4807   */\n      0x1f\n        /* \"#utility.yul\":4801:4808   */\n      not\n        /* \"#utility.yul\":4796:4798   */\n      0x1f\n        /* \"#utility.yul\":4789:4794   */\n      dup4\n        /* \"#utility.yul\":4785:4799   */\n      add\n        /* \"#utility.yul\":4781:4809   */\n      and\n        /* \"#utility.yul\":4771:4809   */\n      swap1\n      pop\n        /* \"#utility.yul\":4713:4815   */\n      swap2\n      swap1\n      pop\n      jump\t// out\n        /* \"#utility.yul\":4821:5198   */\n    tag_120:\n        /* \"#utility.yul\":4909:4912   */\n      0x00\n        /* \"#utility.yul\":4937:4976   */\n      tag_181\n        /* \"#utility.yul\":4970:4975   */\n      dup3\n        /* \"#utility.yul\":4937:4976   */\n      tag_116\n      jump\t// in\n    tag_181:\n        /* \"#utility.yul\":4992:5063   */\n      tag_182\n        /* \"#utility.yul\":5056:5062   */\n      dup2\n        /* \"#utility.yul\":5051:5054   */\n      dup6\n        /* \"#utility.yul\":4992:5063   */\n      tag_117\n      jump\t// in\n    tag_182:\n        /* \"#utility.yul\":4985:5063   */\n      swap4\n      pop\n        /* \"#utility.yul\":5072:5137   */\n      tag_183\n        /* \"#utility.yul\":5130:5136   */\n      dup2\n        /* \"#utility.yul\":5125:5128   */\n      dup6\n        /* \"#utility.yul\":5118:5122   */\n      0x20\n        /* \"#utility.yul\":5111:5116   */\n      dup7\n        /* \"#utility.yul\":5107:5123   */\n      add\n        /* \"#utility.yul\":5072:5137   */\n      tag_118\n      jump\t// in\n    tag_183:\n        /* \"#utility.yul\":5162:5191   */\n      tag_184\n        /* \"#utility.yul\":5184:5190   */\n      dup2\n        /* \"#utility.yul\":5162:5191   */\n      tag_119\n      jump\t// in\n    tag_184:\n        /* \"#utility.yul\":5157:5160   */\n      dup5\n        /* \"#utility.yul\":5153:5192   */\n      add\n        /* \"#utility.yul\":5146:5192   */\n      swap2\n      pop\n        /* \"#utility.yul\":4913:5198   */\n      pop\n        /* \"#utility.yul\":4821:5198   */\n      swap3\n      swap2\n      pop\n      pop\n      jump\t// out\n        /* \"#utility.yul\":5204:5517   */\n    tag_50:\n        /* \"#utility.yul\":5317:5321   */\n      0x00\n        /* \"#utility.yul\":5355:5357   */\n      0x20\n        /* \"#utility.yul\":5344:5353   */\n      dup3\n        /* \"#utility.yul\":5340:5358   */\n      add\n        /* \"#utility.yul\":5332:5358   */\n      swap1\n      pop\n        /* \"#utility.yul\":5404:5413   */\n      dup2\n        /* \"#utility.yul\":5398:5402   */\n      dup2\n        /* \"#utility.yul\":5394:5414   */\n      sub\n        /* \"#utility.yul\":5390:5391   */\n      0x00\n        /* \"#utility.yul\":5379:5388   */\n      dup4\n        /* \"#utility.yul\":5375:5392   */\n      add\n        /* \"#utility.yul\":5368:5415   */\n      mstore\n        /* \"#utility.yul\":5432:5510   */\n      tag_186\n        /* \"#utility.yul\":5505:5509   */\n      dup2\n        /* \"#utility.yul\":5496:5502   */\n      dup5\n        /* \"#utility.yul\":5432:5510   */\n      tag_120\n      jump\t// in\n    tag_186:\n        /* \"#utility.yul\":5424:5510   */\n      swap1\n      pop\n        /* \"#utility.yul\":5204:5517   */\n      swap3\n      swap2\n      pop\n      pop\n      jump\t// out\n        /* \"#utility.yul\":5523:5997   */\n    tag_57:\n        /* \"#utility.yul\":5591:5597   */\n      0x00\n        /* \"#utility.yul\":5599:5605   */\n      dup1\n        /* \"#utility.yul\":5648:5650   */\n      0x40\n        /* \"#utility.yul\":5636:5645   */\n      dup4\n        /* \"#utility.yul\":5627:5634   */\n      dup6\n        /* \"#utility.yul\":5623:5646   */\n      sub\n        /* \"#utility.yul\":5619:5651   */\n      slt\n        /* \"#utility.yul\":5616:5735   */\n      iszero\n      tag_188\n      jumpi\n        /* \"#utility.yul\":5654:5733   */\n      tag_189\n      tag_102\n      jump\t// in\n    tag_189:\n        /* \"#utility.yul\":5616:5735   */\n    tag_188:\n        /* \"#utility.yul\":5774:5775   */\n      0x00\n        /* \"#utility.yul\":5799:5852   */\n      tag_190\n        /* \"#utility.yul\":5844:5851   */\n      dup6\n        /* \"#utility.yul\":5835:5841   */\n      dup3\n        /* \"#utility.yul\":5824:5833   */\n      dup7\n        /* \"#utility.yul\":5820:5842   */\n      add\n        /* \"#utility.yul\":5799:5852   */\n      tag_107\n      jump\t// in\n    tag_190:\n        /* \"#utility.yul\":5789:5852   */\n      swap3\n      pop\n        /* \"#utility.yul\":5745:5862   */\n      pop\n        /* \"#utility.yul\":5901:5903   */\n      0x20\n        /* \"#utility.yul\":5927:5980   */\n      tag_191\n        /* \"#utility.yul\":5972:5979   */\n      dup6\n        /* \"#utility.yul\":5963:5969   */\n      dup3\n        /* \"#utility.yul\":5952:5961   */\n      dup7\n        /* \"#utility.yul\":5948:5970   */\n      add\n        /* \"#utility.yul\":5927:5980   */\n      tag_107\n      jump\t// in\n    tag_191:\n        /* \"#utility.yul\":5917:5980   */\n      swap2\n      pop\n        /* \"#utility.yul\":5872:5990   */\n      pop\n        /* \"#utility.yul\":5523:5997   */\n      swap3\n      pop\n      swap3\n      swap1\n      pop\n      jump\t// out\n        /* \"#utility.yul\":6003:6183   */\n    tag_121:\n        /* \"#utility.yul\":6051:6128   */\n      0x4e487b7100000000000000000000000000000000000000000000000000000000\n        /* \"#utility.yul\":6048:6049   */\n      0x00\n        /* \"#utility.yul\":6041:6129   */\n      mstore\n        /* \"#utility.yul\":6148:6152   */\n      0x11\n        /* \"#utility.yul\":6145:6146   */\n      0x04\n        /* \"#utility.yul\":6138:6153   */\n      mstore\n        /* \"#utility.yul\":6172:6176   */\n      0x24\n        /* \"#utility.yul\":6169:6170   */\n      0x00\n        /* \"#utility.yul\":6162:6177   */\n      revert\n        /* \"#utility.yul\":6189:6380   */\n    tag_68:\n        /* \"#utility.yul\":6229:6232   */\n      0x00\n        /* \"#utility.yul\":6248:6268   */\n      tag_194\n        /* \"#utility.yul\":6266:6267   */\n      dup3\n        /* \"#utility.yul\":6248:6268   */\n      tag_108\n      jump\t// in\n    tag_194:\n        /* \"#utility.yul\":6243:6268   */\n      swap2\n      pop\n        /* \"#utility.yul\":6282:6302   */\n      tag_195\n        /* \"#utility.yul\":6300:6301   */\n      dup4\n        /* \"#utility.yul\":6282:6302   */\n      tag_108\n      jump\t// in\n    tag_195:\n        /* \"#utility.yul\":6277:6302   */\n      swap3\n      pop\n        /* \"#utility.yul\":6325:6326   */\n      dup3\n        /* \"#utility.yul\":6322:6323   */\n      dup3\n        /* \"#utility.yul\":6318:6327   */\n      add\n        /* \"#utility.yul\":6311:6327   */\n      swap1\n      pop\n        /* \"#utility.yul\":6346:6349   */\n      dup1\n        /* \"#utility.yul\":6343:6344   */\n      dup3\n        /* \"#utility.yul\":6340:6350   */\n      gt\n        /* \"#utility.yul\":6337:6373   */\n      iszero\n      tag_196\n      jumpi\n        /* \"#utility.yul\":6353:6371   */\n      tag_197\n      tag_121\n      jump\t// in\n    tag_197:\n        /* \"#utility.yul\":6337:6373   */\n    tag_196:\n        /* \"#utility.yul\":6189:6380   */\n      swap3\n      swap2\n      pop\n      pop\n      jump\t// out\n        /* \"#utility.yul\":6386:6566   */\n    tag_94:\n        /* \"#utility.yul\":6434:6511   */\n      0x4e487b7100000000000000000000000000000000000000000000000000000000\n        /* \"#utility.yul\":6431:6432   */\n      0x00\n        /* \"#utility.yul\":6424:6512   */\n      mstore\n        /* \"#utility.yul\":6531:6535   */\n      0x01\n        /* \"#utility.yul\":6528:6529   */\n      0x04\n        /* \"#utility.yul\":6521:6536   */\n      mstore\n        /* \"#utility.yul\":6555:6559   */\n      0x24\n        /* \"#utility.yul\":6552:6553   */\n      0x00\n        /* \"#utility.yul\":6545:6560   */\n      revert\n        /* \"#utility.yul\":6572:6766   */\n    tag_96:\n        /* \"#utility.yul\":6612:6616   */\n      0x00\n        /* \"#utility.yul\":6632:6652   */\n      tag_200\n        /* \"#utility.yul\":6650:6651   */\n      dup3\n        /* \"#utility.yul\":6632:6652   */\n      tag_108\n      jump\t// in\n    tag_200:\n        /* \"#utility.yul\":6627:6652   */\n      swap2\n      pop\n        /* \"#utility.yul\":6666:6686   */\n      tag_201\n        /* \"#utility.yul\":6684:6685   */\n      dup4\n        /* \"#utility.yul\":6666:6686   */\n      tag_108\n      jump\t// in\n    tag_201:\n        /* \"#utility.yul\":6661:6686   */\n      swap3\n      pop\n        /* \"#utility.yul\":6710:6711   */\n      dup3\n        /* \"#utility.yul\":6707:6708   */\n      dup3\n        /* \"#utility.yul\":6703:6712   */\n      sub\n        /* \"#utility.yul\":6695:6712   */\n      swap1\n      pop\n        /* \"#utility.yul\":6734:6735   */\n      dup2\n        /* \"#utility.yul\":6728:6732   */\n      dup2\n        /* \"#utility.yul\":6725:6736   */\n      gt\n        /* \"#utility.yul\":6722:6759   */\n      iszero\n      tag_202\n      jumpi\n        /* \"#utility.yul\":6739:6757   */\n      tag_203\n      tag_121\n      jump\t// in\n    tag_203:\n        /* \"#utility.yul\":6722:6759   */\n    tag_202:\n        /* \"#utility.yul\":6572:6766   */\n      swap3\n      swap2\n      pop\n      pop\n      jump\t// out\n\n    auxdata: 0xa2646970667358221220831f4ef1a58e85adee03776e6de24b5b9e6021f7a5b1ef140a5ff6a28f25ba7f64736f6c63430008120033\n}\n",
				"bytecode": {
					"linkReferences": {},
					"object": "608060405234801561001057600080fd5b50604051620011b1380380620011b1833981810160405281019061003491906100c1565b806002819055506002546000803373ffffffffffffffffffffffffffffffffffffffff1673ffffffffffffffffffffffffffffffffffffffff16815260200190815260200160002081905550506100ee565b600080fd5b6000819050919050565b61009e8161008b565b81146100a957600080fd5b50565b6000815190506100bb81610095565b92915050565b6000602082840312156100d7576100d6610086565b5b60006100e5848285016100ac565b91505092915050565b6110b380620000fe6000396000f3fe608060405234801561001057600080fd5b50600436106100a95760003560e01c80635c79febb116100715780635c79febb1461016657806370a0823114610196578063a3f4df7e146101c6578063a9059cbb146101e4578063dd62ed3e14610214578063f76f8d7814610244576100a9565b8063095ea7b3146100ae57806318160ddd146100de5780631d43cc98146100fc57806323b872dd146101185780632e0f262514610148575b600080fd5b6100c860048036038101906100c39190610d41565b610262565b6040516100d59190610d9c565b60405180910390f35b6100e6610354565b6040516100f39190610dc6565b60405180910390f35b61011660048036038101906101119190610de1565b61035e565b005b610132600480360381019061012d9190610e0e565b6103cf565b60405161013f9190610d9c565b60405180910390f35b61015061074a565b60405161015d9190610e7d565b60405180910390f35b610180600480360381019061017b9190610e0e565b61074f565b60405161018d9190610d9c565b60405180910390f35b6101b060048036038101906101ab9190610e98565b610932565b6040516101bd9190610dc6565b60405180910390f35b6101ce61097a565b6040516101db9190610f55565b60405180910390f35b6101fe60048036038101906101f99190610d41565b6109b3565b60405161020b9190610d9c565b60405180910390f35b61022e60048036038101906102299190610f77565b610b95565b60405161023b9190610dc6565b60405180910390f35b61024c610c1c565b6040516102599190610f55565b60405180910390f35b600081600160003373ffffffffffffffffffffffffffffffffffffffff1673ffffffffffffffffffffffffffffffffffffffff16815260200190815260200160002060008573ffffffffffffffffffffffffffffffffffffffff1673ffffffffffffffffffffffffffffffffffffffff168152602001908152602001600020819055508273ffffffffffffffffffffffffffffffffffffffff163373ffffffffffffffffffffffffffffffffffffffff167f8c5be1e5ebec7d5bd14f71427d1e84f3dd0314c0f7b2291e5b200ac8c7c3b925846040516103429190610dc6565b60405180910390a36001905092915050565b6000600254905090565b80600260008282546103709190610fe6565b92505081905550806000803373ffffffffffffffffffffffffffffffffffffffff1673ffffffffffffffffffffffffffffffffffffffff16815260200190815260200160002060008282546103c59190610fe6565b9250508190555050565b60008060008573ffffffffffffffffffffffffffffffffffffffff1673ffffffffffffffffffffffffffffffffffffffff1681526020019081526020016000205482111561041c57600080fd5b600160008573ffffffffffffffffffffffffffffffffffffffff1673ffffffffffffffffffffffffffffffffffffffff16815260200190815260200160002060003373ffffffffffffffffffffffffffffffffffffffff1673ffffffffffffffffffffffffffffffffffffffff168152602001908152602001600020548211156104a557600080fd5b6104f6826000808773ffffffffffffffffffffffffffffffffffffffff1673ffffffffffffffffffffffffffffffffffffffff16815260200190815260200160002054610c5590919063ffffffff16565b6000808673ffffffffffffffffffffffffffffffffffffffff1673ffffffffffffffffffffffffffffffffffffffff168152602001908152602001600020819055506105c782600160008773ffffffffffffffffffffffffffffffffffffffff1673ffffffffffffffffffffffffffffffffffffffff16815260200190815260200160002060003373ffffffffffffffffffffffffffffffffffffffff1673ffffffffffffffffffffffffffffffffffffffff16815260200190815260200160002054610c5590919063ffffffff16565b600160008673ffffffffffffffffffffffffffffffffffffffff1673ffffffffffffffffffffffffffffffffffffffff16815260200190815260200160002060003373ffffffffffffffffffffffffffffffffffffffff1673ffffffffffffffffffffffffffffffffffffffff16815260200190815260200160002081905550610698826000808673ffffffffffffffffffffffffffffffffffffffff1673ffffffffffffffffffffffffffffffffffffffff16815260200190815260200160002054610c7c90919063ffffffff16565b6000808573ffffffffffffffffffffffffffffffffffffffff1673ffffffffffffffffffffffffffffffffffffffff168152602001908152602001600020819055508273ffffffffffffffffffffffffffffffffffffffff168473ffffffffffffffffffffffffffffffffffffffff167fddf252ad1be2c89b69c2b068fc378daa952ba7f163c4a11628f55a4df523b3ef846040516107379190610dc6565b60405180910390a3600190509392505050565b600281565b60008060008573ffffffffffffffffffffffffffffffffffffffff1673ffffffffffffffffffffffffffffffffffffffff1681526020019081526020016000205482111561079c57600080fd5b6107ed826000808773ffffffffffffffffffffffffffffffffffffffff1673ffffffffffffffffffffffffffffffffffffffff16815260200190815260200160002054610c5590919063ffffffff16565b6000808673ffffffffffffffffffffffffffffffffffffffff1673ffffffffffffffffffffffffffffffffffffffff16815260200190815260200160002081905550610880826000808673ffffffffffffffffffffffffffffffffffffffff1673ffffffffffffffffffffffffffffffffffffffff16815260200190815260200160002054610c7c90919063ffffffff16565b6000808573ffffffffffffffffffffffffffffffffffffffff1673ffffffffffffffffffffffffffffffffffffffff168152602001908152602001600020819055508273ffffffffffffffffffffffffffffffffffffffff168473ffffffffffffffffffffffffffffffffffffffff167fddf252ad1be2c89b69c2b068fc378daa952ba7f163c4a11628f55a4df523b3ef8460405161091f9190610dc6565b60405180910390a3600190509392505050565b60008060008373ffffffffffffffffffffffffffffffffffffffff1673ffffffffffffffffffffffffffffffffffffffff168152602001908152602001600020549050919050565b6040518060400160405280601181526020017f4552433230426c6f636b636861696e415a00000000000000000000000000000081525081565b60008060003373ffffffffffffffffffffffffffffffffffffffff1673ffffffffffffffffffffffffffffffffffffffff16815260200190815260200160002054821115610a0057600080fd5b610a51826000803373ffffffffffffffffffffffffffffffffffffffff1673ffffffffffffffffffffffffffffffffffffffff16815260200190815260200160002054610c5590919063ffffffff16565b6000803373ffffffffffffffffffffffffffffffffffffffff1673ffffffffffffffffffffffffffffffffffffffff16815260200190815260200160002081905550610ae4826000808673ffffffffffffffffffffffffffffffffffffffff1673ffffffffffffffffffffffffffffffffffffffff16815260200190815260200160002054610c7c90919063ffffffff16565b6000808573ffffffffffffffffffffffffffffffffffffffff1673ffffffffffffffffffffffffffffffffffffffff168152602001908152602001600020819055508273ffffffffffffffffffffffffffffffffffffffff163373ffffffffffffffffffffffffffffffffffffffff167fddf252ad1be2c89b69c2b068fc378daa952ba7f163c4a11628f55a4df523b3ef84604051610b839190610dc6565b60405180910390a36001905092915050565b6000600160008473ffffffffffffffffffffffffffffffffffffffff1673ffffffffffffffffffffffffffffffffffffffff16815260200190815260200160002060008373ffffffffffffffffffffffffffffffffffffffff1673ffffffffffffffffffffffffffffffffffffffff16815260200190815260200160002054905092915050565b6040518060400160405280600381526020017f455243000000000000000000000000000000000000000000000000000000000081525081565b600082821115610c6857610c6761101a565b5b8183610c749190611049565b905092915050565b6000808284610c8b9190610fe6565b905083811015610c9e57610c9d61101a565b5b8091505092915050565b600080fd5b600073ffffffffffffffffffffffffffffffffffffffff82169050919050565b6000610cd882610cad565b9050919050565b610ce881610ccd565b8114610cf357600080fd5b50565b600081359050610d0581610cdf565b92915050565b6000819050919050565b610d1e81610d0b565b8114610d2957600080fd5b50565b600081359050610d3b81610d15565b92915050565b60008060408385031215610d5857610d57610ca8565b5b6000610d6685828601610cf6565b9250506020610d7785828601610d2c565b9150509250929050565b60008115159050919050565b610d9681610d81565b82525050565b6000602082019050610db16000830184610d8d565b92915050565b610dc081610d0b565b82525050565b6000602082019050610ddb6000830184610db7565b92915050565b600060208284031215610df757610df6610ca8565b5b6000610e0584828501610d2c565b91505092915050565b600080600060608486031215610e2757610e26610ca8565b5b6000610e3586828701610cf6565b9350506020610e4686828701610cf6565b9250506040610e5786828701610d2c565b9150509250925092565b600060ff82169050919050565b610e7781610e61565b82525050565b6000602082019050610e926000830184610e6e565b92915050565b600060208284031215610eae57610ead610ca8565b5b6000610ebc84828501610cf6565b91505092915050565b600081519050919050565b600082825260208201905092915050565b60005b83811015610eff578082015181840152602081019050610ee4565b60008484015250505050565b6000601f19601f8301169050919050565b6000610f2782610ec5565b610f318185610ed0565b9350610f41818560208601610ee1565b610f4a81610f0b565b840191505092915050565b60006020820190508181036000830152610f6f8184610f1c565b905092915050565b60008060408385031215610f8e57610f8d610ca8565b5b6000610f9c85828601610cf6565b9250506020610fad85828601610cf6565b9150509250929050565b7f4e487b7100000000000000000000000000000000000000000000000000000000600052601160045260246000fd5b6000610ff182610d0b565b9150610ffc83610d0b565b925082820190508082111561101457611013610fb7565b5b92915050565b7f4e487b7100000000000000000000000000000000000000000000000000000000600052600160045260246000fd5b600061105482610d0b565b915061105f83610d0b565b925082820390508181111561107757611076610fb7565b5b9291505056fea2646970667358221220831f4ef1a58e85adee03776e6de24b5b9e6021f7a5b1ef140a5ff6a28f25ba7f64736f6c63430008120033",
					"opcodes": "PUSH1 0x80 PUSH1 0x40 MSTORE CALLVALUE DUP1 ISZERO PUSH2 0x10 JUMPI PUSH1 0x0 DUP1 REVERT JUMPDEST POP PUSH1 0x40 MLOAD PUSH3 0x11B1 CODESIZE SUB DUP1 PUSH3 0x11B1 DUP4 CODECOPY DUP2 DUP2 ADD PUSH1 0x40 MSTORE DUP2 ADD SWAP1 PUSH2 0x34 SWAP2 SWAP1 PUSH2 0xC1 JUMP JUMPDEST DUP1 PUSH1 0x2 DUP2 SWAP1 SSTORE POP PUSH1 0x2 SLOAD PUSH1 0x0 DUP1 CALLER PUSH20 0xFFFFFFFFFFFFFFFFFFFFFFFFFFFFFFFFFFFFFFFF AND PUSH20 0xFFFFFFFFFFFFFFFFFFFFFFFFFFFFFFFFFFFFFFFF AND DUP2 MSTORE PUSH1 0x20 ADD SWAP1 DUP2 MSTORE PUSH1 0x20 ADD PUSH1 0x0 KECCAK256 DUP2 SWAP1 SSTORE POP POP PUSH2 0xEE JUMP JUMPDEST PUSH1 0x0 DUP1 REVERT JUMPDEST PUSH1 0x0 DUP2 SWAP1 POP SWAP2 SWAP1 POP JUMP JUMPDEST PUSH2 0x9E DUP2 PUSH2 0x8B JUMP JUMPDEST DUP2 EQ PUSH2 0xA9 JUMPI PUSH1 0x0 DUP1 REVERT JUMPDEST POP JUMP JUMPDEST PUSH1 0x0 DUP2 MLOAD SWAP1 POP PUSH2 0xBB DUP2 PUSH2 0x95 JUMP JUMPDEST SWAP3 SWAP2 POP POP JUMP JUMPDEST PUSH1 0x0 PUSH1 0x20 DUP3 DUP5 SUB SLT ISZERO PUSH2 0xD7 JUMPI PUSH2 0xD6 PUSH2 0x86 JUMP JUMPDEST JUMPDEST PUSH1 0x0 PUSH2 0xE5 DUP5 DUP3 DUP6 ADD PUSH2 0xAC JUMP JUMPDEST SWAP2 POP POP SWAP3 SWAP2 POP POP JUMP JUMPDEST PUSH2 0x10B3 DUP1 PUSH3 0xFE PUSH1 0x0 CODECOPY PUSH1 0x0 RETURN INVALID PUSH1 0x80 PUSH1 0x40 MSTORE CALLVALUE DUP1 ISZERO PUSH2 0x10 JUMPI PUSH1 0x0 DUP1 REVERT JUMPDEST POP PUSH1 0x4 CALLDATASIZE LT PUSH2 0xA9 JUMPI PUSH1 0x0 CALLDATALOAD PUSH1 0xE0 SHR DUP1 PUSH4 0x5C79FEBB GT PUSH2 0x71 JUMPI DUP1 PUSH4 0x5C79FEBB EQ PUSH2 0x166 JUMPI DUP1 PUSH4 0x70A08231 EQ PUSH2 0x196 JUMPI DUP1 PUSH4 0xA3F4DF7E EQ PUSH2 0x1C6 JUMPI DUP1 PUSH4 0xA9059CBB EQ PUSH2 0x1E4 JUMPI DUP1 PUSH4 0xDD62ED3E EQ PUSH2 0x214 JUMPI DUP1 PUSH4 0xF76F8D78 EQ PUSH2 0x244 JUMPI PUSH2 0xA9 JUMP JUMPDEST DUP1 PUSH4 0x95EA7B3 EQ PUSH2 0xAE JUMPI DUP1 PUSH4 0x18160DDD EQ PUSH2 0xDE JUMPI DUP1 PUSH4 0x1D43CC98 EQ PUSH2 0xFC JUMPI DUP1 PUSH4 0x23B872DD EQ PUSH2 0x118 JUMPI DUP1 PUSH4 0x2E0F2625 EQ PUSH2 0x148 JUMPI JUMPDEST PUSH1 0x0 DUP1 REVERT JUMPDEST PUSH2 0xC8 PUSH1 0x4 DUP1 CALLDATASIZE SUB DUP2 ADD SWAP1 PUSH2 0xC3 SWAP2 SWAP1 PUSH2 0xD41 JUMP JUMPDEST PUSH2 0x262 JUMP JUMPDEST PUSH1 0x40 MLOAD PUSH2 0xD5 SWAP2 SWAP1 PUSH2 0xD9C JUMP JUMPDEST PUSH1 0x40 MLOAD DUP1 SWAP2 SUB SWAP1 RETURN JUMPDEST PUSH2 0xE6 PUSH2 0x354 JUMP JUMPDEST PUSH1 0x40 MLOAD PUSH2 0xF3 SWAP2 SWAP1 PUSH2 0xDC6 JUMP JUMPDEST PUSH1 0x40 MLOAD DUP1 SWAP2 SUB SWAP1 RETURN JUMPDEST PUSH2 0x116 PUSH1 0x4 DUP1 CALLDATASIZE SUB DUP2 ADD SWAP1 PUSH2 0x111 SWAP2 SWAP1 PUSH2 0xDE1 JUMP JUMPDEST PUSH2 0x35E JUMP JUMPDEST STOP JUMPDEST PUSH2 0x132 PUSH1 0x4 DUP1 CALLDATASIZE SUB DUP2 ADD SWAP1 PUSH2 0x12D SWAP2 SWAP1 PUSH2 0xE0E JUMP JUMPDEST PUSH2 0x3CF JUMP JUMPDEST PUSH1 0x40 MLOAD PUSH2 0x13F SWAP2 SWAP1 PUSH2 0xD9C JUMP JUMPDEST PUSH1 0x40 MLOAD DUP1 SWAP2 SUB SWAP1 RETURN JUMPDEST PUSH2 0x150 PUSH2 0x74A JUMP JUMPDEST PUSH1 0x40 MLOAD PUSH2 0x15D SWAP2 SWAP1 PUSH2 0xE7D JUMP JUMPDEST PUSH1 0x40 MLOAD DUP1 SWAP2 SUB SWAP1 RETURN JUMPDEST PUSH2 0x180 PUSH1 0x4 DUP1 CALLDATASIZE SUB DUP2 ADD SWAP1 PUSH2 0x17B SWAP2 SWAP1 PUSH2 0xE0E JUMP JUMPDEST PUSH2 0x74F JUMP JUMPDEST PUSH1 0x40 MLOAD PUSH2 0x18D SWAP2 SWAP1 PUSH2 0xD9C JUMP JUMPDEST PUSH1 0x40 MLOAD DUP1 SWAP2 SUB SWAP1 RETURN JUMPDEST PUSH2 0x1B0 PUSH1 0x4 DUP1 CALLDATASIZE SUB DUP2 ADD SWAP1 PUSH2 0x1AB SWAP2 SWAP1 PUSH2 0xE98 JUMP JUMPDEST PUSH2 0x932 JUMP JUMPDEST PUSH1 0x40 MLOAD PUSH2 0x1BD SWAP2 SWAP1 PUSH2 0xDC6 JUMP JUMPDEST PUSH1 0x40 MLOAD DUP1 SWAP2 SUB SWAP1 RETURN JUMPDEST PUSH2 0x1CE PUSH2 0x97A JUMP JUMPDEST PUSH1 0x40 MLOAD PUSH2 0x1DB SWAP2 SWAP1 PUSH2 0xF55 JUMP JUMPDEST PUSH1 0x40 MLOAD DUP1 SWAP2 SUB SWAP1 RETURN JUMPDEST PUSH2 0x1FE PUSH1 0x4 DUP1 CALLDATASIZE SUB DUP2 ADD SWAP1 PUSH2 0x1F9 SWAP2 SWAP1 PUSH2 0xD41 JUMP JUMPDEST PUSH2 0x9B3 JUMP JUMPDEST PUSH1 0x40 MLOAD PUSH2 0x20B SWAP2 SWAP1 PUSH2 0xD9C JUMP JUMPDEST PUSH1 0x40 MLOAD DUP1 SWAP2 SUB SWAP1 RETURN JUMPDEST PUSH2 0x22E PUSH1 0x4 DUP1 CALLDATASIZE SUB DUP2 ADD SWAP1 PUSH2 0x229 SWAP2 SWAP1 PUSH2 0xF77 JUMP JUMPDEST PUSH2 0xB95 JUMP JUMPDEST PUSH1 0x40 MLOAD PUSH2 0x23B SWAP2 SWAP1 PUSH2 0xDC6 JUMP JUMPDEST PUSH1 0x40 MLOAD DUP1 SWAP2 SUB SWAP1 RETURN JUMPDEST PUSH2 0x24C PUSH2 0xC1C JUMP JUMPDEST PUSH1 0x40 MLOAD PUSH2 0x259 SWAP2 SWAP1 PUSH2 0xF55 JUMP JUMPDEST PUSH1 0x40 MLOAD DUP1 SWAP2 SUB SWAP1 RETURN JUMPDEST PUSH1 0x0 DUP2 PUSH1 0x1 PUSH1 0x0 CALLER PUSH20 0xFFFFFFFFFFFFFFFFFFFFFFFFFFFFFFFFFFFFFFFF AND PUSH20 0xFFFFFFFFFFFFFFFFFFFFFFFFFFFFFFFFFFFFFFFF AND DUP2 MSTORE PUSH1 0x20 ADD SWAP1 DUP2 MSTORE PUSH1 0x20 ADD PUSH1 0x0 KECCAK256 PUSH1 0x0 DUP6 PUSH20 0xFFFFFFFFFFFFFFFFFFFFFFFFFFFFFFFFFFFFFFFF AND PUSH20 0xFFFFFFFFFFFFFFFFFFFFFFFFFFFFFFFFFFFFFFFF AND DUP2 MSTORE PUSH1 0x20 ADD SWAP1 DUP2 MSTORE PUSH1 0x20 ADD PUSH1 0x0 KECCAK256 DUP2 SWAP1 SSTORE POP DUP3 PUSH20 0xFFFFFFFFFFFFFFFFFFFFFFFFFFFFFFFFFFFFFFFF AND CALLER PUSH20 0xFFFFFFFFFFFFFFFFFFFFFFFFFFFFFFFFFFFFFFFF AND PUSH32 0x8C5BE1E5EBEC7D5BD14F71427D1E84F3DD0314C0F7B2291E5B200AC8C7C3B925 DUP5 PUSH1 0x40 MLOAD PUSH2 0x342 SWAP2 SWAP1 PUSH2 0xDC6 JUMP JUMPDEST PUSH1 0x40 MLOAD DUP1 SWAP2 SUB SWAP1 LOG3 PUSH1 0x1 SWAP1 POP SWAP3 SWAP2 POP POP JUMP JUMPDEST PUSH1 0x0 PUSH1 0x2 SLOAD SWAP1 POP SWAP1 JUMP JUMPDEST DUP1 PUSH1 0x2 PUSH1 0x0 DUP3 DUP3 SLOAD PUSH2 0x370 SWAP2 SWAP1 PUSH2 0xFE6 JUMP JUMPDEST SWAP3 POP POP DUP2 SWAP1 SSTORE POP DUP1 PUSH1 0x0 DUP1 CALLER PUSH20 0xFFFFFFFFFFFFFFFFFFFFFFFFFFFFFFFFFFFFFFFF AND PUSH20 0xFFFFFFFFFFFFFFFFFFFFFFFFFFFFFFFFFFFFFFFF AND DUP2 MSTORE PUSH1 0x20 ADD SWAP1 DUP2 MSTORE PUSH1 0x20 ADD PUSH1 0x0 KECCAK256 PUSH1 0x0 DUP3 DUP3 SLOAD PUSH2 0x3C5 SWAP2 SWAP1 PUSH2 0xFE6 JUMP JUMPDEST SWAP3 POP POP DUP2 SWAP1 SSTORE POP POP JUMP JUMPDEST PUSH1 0x0 DUP1 PUSH1 0x0 DUP6 PUSH20 0xFFFFFFFFFFFFFFFFFFFFFFFFFFFFFFFFFFFFFFFF AND PUSH20 0xFFFFFFFFFFFFFFFFFFFFFFFFFFFFFFFFFFFFFFFF AND DUP2 MSTORE PUSH1 0x20 ADD SWAP1 DUP2 MSTORE PUSH1 0x20 ADD PUSH1 0x0 KECCAK256 SLOAD DUP3 GT ISZERO PUSH2 0x41C JUMPI PUSH1 0x0 DUP1 REVERT JUMPDEST PUSH1 0x1 PUSH1 0x0 DUP6 PUSH20 0xFFFFFFFFFFFFFFFFFFFFFFFFFFFFFFFFFFFFFFFF AND PUSH20 0xFFFFFFFFFFFFFFFFFFFFFFFFFFFFFFFFFFFFFFFF AND DUP2 MSTORE PUSH1 0x20 ADD SWAP1 DUP2 MSTORE PUSH1 0x20 ADD PUSH1 0x0 KECCAK256 PUSH1 0x0 CALLER PUSH20 0xFFFFFFFFFFFFFFFFFFFFFFFFFFFFFFFFFFFFFFFF AND PUSH20 0xFFFFFFFFFFFFFFFFFFFFFFFFFFFFFFFFFFFFFFFF AND DUP2 MSTORE PUSH1 0x20 ADD SWAP1 DUP2 MSTORE PUSH1 0x20 ADD PUSH1 0x0 KECCAK256 SLOAD DUP3 GT ISZERO PUSH2 0x4A5 JUMPI PUSH1 0x0 DUP1 REVERT JUMPDEST PUSH2 0x4F6 DUP3 PUSH1 0x0 DUP1 DUP8 PUSH20 0xFFFFFFFFFFFFFFFFFFFFFFFFFFFFFFFFFFFFFFFF AND PUSH20 0xFFFFFFFFFFFFFFFFFFFFFFFFFFFFFFFFFFFFFFFF AND DUP2 MSTORE PUSH1 0x20 ADD SWAP1 DUP2 MSTORE PUSH1 0x20 ADD PUSH1 0x0 KECCAK256 SLOAD PUSH2 0xC55 SWAP1 SWAP2 SWAP1 PUSH4 0xFFFFFFFF AND JUMP JUMPDEST PUSH1 0x0 DUP1 DUP7 PUSH20 0xFFFFFFFFFFFFFFFFFFFFFFFFFFFFFFFFFFFFFFFF AND PUSH20 0xFFFFFFFFFFFFFFFFFFFFFFFFFFFFFFFFFFFFFFFF AND DUP2 MSTORE PUSH1 0x20 ADD SWAP1 DUP2 MSTORE PUSH1 0x20 ADD PUSH1 0x0 KECCAK256 DUP2 SWAP1 SSTORE POP PUSH2 0x5C7 DUP3 PUSH1 0x1 PUSH1 0x0 DUP8 PUSH20 0xFFFFFFFFFFFFFFFFFFFFFFFFFFFFFFFFFFFFFFFF AND PUSH20 0xFFFFFFFFFFFFFFFFFFFFFFFFFFFFFFFFFFFFFFFF AND DUP2 MSTORE PUSH1 0x20 ADD SWAP1 DUP2 MSTORE PUSH1 0x20 ADD PUSH1 0x0 KECCAK256 PUSH1 0x0 CALLER PUSH20 0xFFFFFFFFFFFFFFFFFFFFFFFFFFFFFFFFFFFFFFFF AND PUSH20 0xFFFFFFFFFFFFFFFFFFFFFFFFFFFFFFFFFFFFFFFF AND DUP2 MSTORE PUSH1 0x20 ADD SWAP1 DUP2 MSTORE PUSH1 0x20 ADD PUSH1 0x0 KECCAK256 SLOAD PUSH2 0xC55 SWAP1 SWAP2 SWAP1 PUSH4 0xFFFFFFFF AND JUMP JUMPDEST PUSH1 0x1 PUSH1 0x0 DUP7 PUSH20 0xFFFFFFFFFFFFFFFFFFFFFFFFFFFFFFFFFFFFFFFF AND PUSH20 0xFFFFFFFFFFFFFFFFFFFFFFFFFFFFFFFFFFFFFFFF AND DUP2 MSTORE PUSH1 0x20 ADD SWAP1 DUP2 MSTORE PUSH1 0x20 ADD PUSH1 0x0 KECCAK256 PUSH1 0x0 CALLER PUSH20 0xFFFFFFFFFFFFFFFFFFFFFFFFFFFFFFFFFFFFFFFF AND PUSH20 0xFFFFFFFFFFFFFFFFFFFFFFFFFFFFFFFFFFFFFFFF AND DUP2 MSTORE PUSH1 0x20 ADD SWAP1 DUP2 MSTORE PUSH1 0x20 ADD PUSH1 0x0 KECCAK256 DUP2 SWAP1 SSTORE POP PUSH2 0x698 DUP3 PUSH1 0x0 DUP1 DUP7 PUSH20 0xFFFFFFFFFFFFFFFFFFFFFFFFFFFFFFFFFFFFFFFF AND PUSH20 0xFFFFFFFFFFFFFFFFFFFFFFFFFFFFFFFFFFFFFFFF AND DUP2 MSTORE PUSH1 0x20 ADD SWAP1 DUP2 MSTORE PUSH1 0x20 ADD PUSH1 0x0 KECCAK256 SLOAD PUSH2 0xC7C SWAP1 SWAP2 SWAP1 PUSH4 0xFFFFFFFF AND JUMP JUMPDEST PUSH1 0x0 DUP1 DUP6 PUSH20 0xFFFFFFFFFFFFFFFFFFFFFFFFFFFFFFFFFFFFFFFF AND PUSH20 0xFFFFFFFFFFFFFFFFFFFFFFFFFFFFFFFFFFFFFFFF AND DUP2 MSTORE PUSH1 0x20 ADD SWAP1 DUP2 MSTORE PUSH1 0x20 ADD PUSH1 0x0 KECCAK256 DUP2 SWAP1 SSTORE POP DUP3 PUSH20 0xFFFFFFFFFFFFFFFFFFFFFFFFFFFFFFFFFFFFFFFF AND DUP5 PUSH20 0xFFFFFFFFFFFFFFFFFFFFFFFFFFFFFFFFFFFFFFFF AND PUSH32 0xDDF252AD1BE2C89B69C2B068FC378DAA952BA7F163C4A11628F55A4DF523B3EF DUP5 PUSH1 0x40 MLOAD PUSH2 0x737 SWAP2 SWAP1 PUSH2 0xDC6 JUMP JUMPDEST PUSH1 0x40 MLOAD DUP1 SWAP2 SUB SWAP1 LOG3 PUSH1 0x1 SWAP1 POP SWAP4 SWAP3 POP POP POP JUMP JUMPDEST PUSH1 0x2 DUP2 JUMP JUMPDEST PUSH1 0x0 DUP1 PUSH1 0x0 DUP6 PUSH20 0xFFFFFFFFFFFFFFFFFFFFFFFFFFFFFFFFFFFFFFFF AND PUSH20 0xFFFFFFFFFFFFFFFFFFFFFFFFFFFFFFFFFFFFFFFF AND DUP2 MSTORE PUSH1 0x20 ADD SWAP1 DUP2 MSTORE PUSH1 0x20 ADD PUSH1 0x0 KECCAK256 SLOAD DUP3 GT ISZERO PUSH2 0x79C JUMPI PUSH1 0x0 DUP1 REVERT JUMPDEST PUSH2 0x7ED DUP3 PUSH1 0x0 DUP1 DUP8 PUSH20 0xFFFFFFFFFFFFFFFFFFFFFFFFFFFFFFFFFFFFFFFF AND PUSH20 0xFFFFFFFFFFFFFFFFFFFFFFFFFFFFFFFFFFFFFFFF AND DUP2 MSTORE PUSH1 0x20 ADD SWAP1 DUP2 MSTORE PUSH1 0x20 ADD PUSH1 0x0 KECCAK256 SLOAD PUSH2 0xC55 SWAP1 SWAP2 SWAP1 PUSH4 0xFFFFFFFF AND JUMP JUMPDEST PUSH1 0x0 DUP1 DUP7 PUSH20 0xFFFFFFFFFFFFFFFFFFFFFFFFFFFFFFFFFFFFFFFF AND PUSH20 0xFFFFFFFFFFFFFFFFFFFFFFFFFFFFFFFFFFFFFFFF AND DUP2 MSTORE PUSH1 0x20 ADD SWAP1 DUP2 MSTORE PUSH1 0x20 ADD PUSH1 0x0 KECCAK256 DUP2 SWAP1 SSTORE POP PUSH2 0x880 DUP3 PUSH1 0x0 DUP1 DUP7 PUSH20 0xFFFFFFFFFFFFFFFFFFFFFFFFFFFFFFFFFFFFFFFF AND PUSH20 0xFFFFFFFFFFFFFFFFFFFFFFFFFFFFFFFFFFFFFFFF AND DUP2 MSTORE PUSH1 0x20 ADD SWAP1 DUP2 MSTORE PUSH1 0x20 ADD PUSH1 0x0 KECCAK256 SLOAD PUSH2 0xC7C SWAP1 SWAP2 SWAP1 PUSH4 0xFFFFFFFF AND JUMP JUMPDEST PUSH1 0x0 DUP1 DUP6 PUSH20 0xFFFFFFFFFFFFFFFFFFFFFFFFFFFFFFFFFFFFFFFF AND PUSH20 0xFFFFFFFFFFFFFFFFFFFFFFFFFFFFFFFFFFFFFFFF AND DUP2 MSTORE PUSH1 0x20 ADD SWAP1 DUP2 MSTORE PUSH1 0x20 ADD PUSH1 0x0 KECCAK256 DUP2 SWAP1 SSTORE POP DUP3 PUSH20 0xFFFFFFFFFFFFFFFFFFFFFFFFFFFFFFFFFFFFFFFF AND DUP5 PUSH20 0xFFFFFFFFFFFFFFFFFFFFFFFFFFFFFFFFFFFFFFFF AND PUSH32 0xDDF252AD1BE2C89B69C2B068FC378DAA952BA7F163C4A11628F55A4DF523B3EF DUP5 PUSH1 0x40 MLOAD PUSH2 0x91F SWAP2 SWAP1 PUSH2 0xDC6 JUMP JUMPDEST PUSH1 0x40 MLOAD DUP1 SWAP2 SUB SWAP1 LOG3 PUSH1 0x1 SWAP1 POP SWAP4 SWAP3 POP POP POP JUMP JUMPDEST PUSH1 0x0 DUP1 PUSH1 0x0 DUP4 PUSH20 0xFFFFFFFFFFFFFFFFFFFFFFFFFFFFFFFFFFFFFFFF AND PUSH20 0xFFFFFFFFFFFFFFFFFFFFFFFFFFFFFFFFFFFFFFFF AND DUP2 MSTORE PUSH1 0x20 ADD SWAP1 DUP2 MSTORE PUSH1 0x20 ADD PUSH1 0x0 KECCAK256 SLOAD SWAP1 POP SWAP2 SWAP1 POP JUMP JUMPDEST PUSH1 0x40 MLOAD DUP1 PUSH1 0x40 ADD PUSH1 0x40 MSTORE DUP1 PUSH1 0x11 DUP2 MSTORE PUSH1 0x20 ADD PUSH32 0x4552433230426C6F636B636861696E415A000000000000000000000000000000 DUP2 MSTORE POP DUP2 JUMP JUMPDEST PUSH1 0x0 DUP1 PUSH1 0x0 CALLER PUSH20 0xFFFFFFFFFFFFFFFFFFFFFFFFFFFFFFFFFFFFFFFF AND PUSH20 0xFFFFFFFFFFFFFFFFFFFFFFFFFFFFFFFFFFFFFFFF AND DUP2 MSTORE PUSH1 0x20 ADD SWAP1 DUP2 MSTORE PUSH1 0x20 ADD PUSH1 0x0 KECCAK256 SLOAD DUP3 GT ISZERO PUSH2 0xA00 JUMPI PUSH1 0x0 DUP1 REVERT JUMPDEST PUSH2 0xA51 DUP3 PUSH1 0x0 DUP1 CALLER PUSH20 0xFFFFFFFFFFFFFFFFFFFFFFFFFFFFFFFFFFFFFFFF AND PUSH20 0xFFFFFFFFFFFFFFFFFFFFFFFFFFFFFFFFFFFFFFFF AND DUP2 MSTORE PUSH1 0x20 ADD SWAP1 DUP2 MSTORE PUSH1 0x20 ADD PUSH1 0x0 KECCAK256 SLOAD PUSH2 0xC55 SWAP1 SWAP2 SWAP1 PUSH4 0xFFFFFFFF AND JUMP JUMPDEST PUSH1 0x0 DUP1 CALLER PUSH20 0xFFFFFFFFFFFFFFFFFFFFFFFFFFFFFFFFFFFFFFFF AND PUSH20 0xFFFFFFFFFFFFFFFFFFFFFFFFFFFFFFFFFFFFFFFF AND DUP2 MSTORE PUSH1 0x20 ADD SWAP1 DUP2 MSTORE PUSH1 0x20 ADD PUSH1 0x0 KECCAK256 DUP2 SWAP1 SSTORE POP PUSH2 0xAE4 DUP3 PUSH1 0x0 DUP1 DUP7 PUSH20 0xFFFFFFFFFFFFFFFFFFFFFFFFFFFFFFFFFFFFFFFF AND PUSH20 0xFFFFFFFFFFFFFFFFFFFFFFFFFFFFFFFFFFFFFFFF AND DUP2 MSTORE PUSH1 0x20 ADD SWAP1 DUP2 MSTORE PUSH1 0x20 ADD PUSH1 0x0 KECCAK256 SLOAD PUSH2 0xC7C SWAP1 SWAP2 SWAP1 PUSH4 0xFFFFFFFF AND JUMP JUMPDEST PUSH1 0x0 DUP1 DUP6 PUSH20 0xFFFFFFFFFFFFFFFFFFFFFFFFFFFFFFFFFFFFFFFF AND PUSH20 0xFFFFFFFFFFFFFFFFFFFFFFFFFFFFFFFFFFFFFFFF AND DUP2 MSTORE PUSH1 0x20 ADD SWAP1 DUP2 MSTORE PUSH1 0x20 ADD PUSH1 0x0 KECCAK256 DUP2 SWAP1 SSTORE POP DUP3 PUSH20 0xFFFFFFFFFFFFFFFFFFFFFFFFFFFFFFFFFFFFFFFF AND CALLER PUSH20 0xFFFFFFFFFFFFFFFFFFFFFFFFFFFFFFFFFFFFFFFF AND PUSH32 0xDDF252AD1BE2C89B69C2B068FC378DAA952BA7F163C4A11628F55A4DF523B3EF DUP5 PUSH1 0x40 MLOAD PUSH2 0xB83 SWAP2 SWAP1 PUSH2 0xDC6 JUMP JUMPDEST PUSH1 0x40 MLOAD DUP1 SWAP2 SUB SWAP1 LOG3 PUSH1 0x1 SWAP1 POP SWAP3 SWAP2 POP POP JUMP JUMPDEST PUSH1 0x0 PUSH1 0x1 PUSH1 0x0 DUP5 PUSH20 0xFFFFFFFFFFFFFFFFFFFFFFFFFFFFFFFFFFFFFFFF AND PUSH20 0xFFFFFFFFFFFFFFFFFFFFFFFFFFFFFFFFFFFFFFFF AND DUP2 MSTORE PUSH1 0x20 ADD SWAP1 DUP2 MSTORE PUSH1 0x20 ADD PUSH1 0x0 KECCAK256 PUSH1 0x0 DUP4 PUSH20 0xFFFFFFFFFFFFFFFFFFFFFFFFFFFFFFFFFFFFFFFF AND PUSH20 0xFFFFFFFFFFFFFFFFFFFFFFFFFFFFFFFFFFFFFFFF AND DUP2 MSTORE PUSH1 0x20 ADD SWAP1 DUP2 MSTORE PUSH1 0x20 ADD PUSH1 0x0 KECCAK256 SLOAD SWAP1 POP SWAP3 SWAP2 POP POP JUMP JUMPDEST PUSH1 0x40 MLOAD DUP1 PUSH1 0x40 ADD PUSH1 0x40 MSTORE DUP1 PUSH1 0x3 DUP2 MSTORE PUSH1 0x20 ADD PUSH32 0x4552430000000000000000000000000000000000000000000000000000000000 DUP2 MSTORE POP DUP2 JUMP JUMPDEST PUSH1 0x0 DUP3 DUP3 GT ISZERO PUSH2 0xC68 JUMPI PUSH2 0xC67 PUSH2 0x101A JUMP JUMPDEST JUMPDEST DUP2 DUP4 PUSH2 0xC74 SWAP2 SWAP1 PUSH2 0x1049 JUMP JUMPDEST SWAP1 POP SWAP3 SWAP2 POP POP JUMP JUMPDEST PUSH1 0x0 DUP1 DUP3 DUP5 PUSH2 0xC8B SWAP2 SWAP1 PUSH2 0xFE6 JUMP JUMPDEST SWAP1 POP DUP4 DUP2 LT ISZERO PUSH2 0xC9E JUMPI PUSH2 0xC9D PUSH2 0x101A JUMP JUMPDEST JUMPDEST DUP1 SWAP2 POP POP SWAP3 SWAP2 POP POP JUMP JUMPDEST PUSH1 0x0 DUP1 REVERT JUMPDEST PUSH1 0x0 PUSH20 0xFFFFFFFFFFFFFFFFFFFFFFFFFFFFFFFFFFFFFFFF DUP3 AND SWAP1 POP SWAP2 SWAP1 POP JUMP JUMPDEST PUSH1 0x0 PUSH2 0xCD8 DUP3 PUSH2 0xCAD JUMP JUMPDEST SWAP1 POP SWAP2 SWAP1 POP JUMP JUMPDEST PUSH2 0xCE8 DUP2 PUSH2 0xCCD JUMP JUMPDEST DUP2 EQ PUSH2 0xCF3 JUMPI PUSH1 0x0 DUP1 REVERT JUMPDEST POP JUMP JUMPDEST PUSH1 0x0 DUP2 CALLDATALOAD SWAP1 POP PUSH2 0xD05 DUP2 PUSH2 0xCDF JUMP JUMPDEST SWAP3 SWAP2 POP POP JUMP JUMPDEST PUSH1 0x0 DUP2 SWAP1 POP SWAP2 SWAP1 POP JUMP JUMPDEST PUSH2 0xD1E DUP2 PUSH2 0xD0B JUMP JUMPDEST DUP2 EQ PUSH2 0xD29 JUMPI PUSH1 0x0 DUP1 REVERT JUMPDEST POP JUMP JUMPDEST PUSH1 0x0 DUP2 CALLDATALOAD SWAP1 POP PUSH2 0xD3B DUP2 PUSH2 0xD15 JUMP JUMPDEST SWAP3 SWAP2 POP POP JUMP JUMPDEST PUSH1 0x0 DUP1 PUSH1 0x40 DUP4 DUP6 SUB SLT ISZERO PUSH2 0xD58 JUMPI PUSH2 0xD57 PUSH2 0xCA8 JUMP JUMPDEST JUMPDEST PUSH1 0x0 PUSH2 0xD66 DUP6 DUP3 DUP7 ADD PUSH2 0xCF6 JUMP JUMPDEST SWAP3 POP POP PUSH1 0x20 PUSH2 0xD77 DUP6 DUP3 DUP7 ADD PUSH2 0xD2C JUMP JUMPDEST SWAP2 POP POP SWAP3 POP SWAP3 SWAP1 POP JUMP JUMPDEST PUSH1 0x0 DUP2 ISZERO ISZERO SWAP1 POP SWAP2 SWAP1 POP JUMP JUMPDEST PUSH2 0xD96 DUP2 PUSH2 0xD81 JUMP JUMPDEST DUP3 MSTORE POP POP JUMP JUMPDEST PUSH1 0x0 PUSH1 0x20 DUP3 ADD SWAP1 POP PUSH2 0xDB1 PUSH1 0x0 DUP4 ADD DUP5 PUSH2 0xD8D JUMP JUMPDEST SWAP3 SWAP2 POP POP JUMP JUMPDEST PUSH2 0xDC0 DUP2 PUSH2 0xD0B JUMP JUMPDEST DUP3 MSTORE POP POP JUMP JUMPDEST PUSH1 0x0 PUSH1 0x20 DUP3 ADD SWAP1 POP PUSH2 0xDDB PUSH1 0x0 DUP4 ADD DUP5 PUSH2 0xDB7 JUMP JUMPDEST SWAP3 SWAP2 POP POP JUMP JUMPDEST PUSH1 0x0 PUSH1 0x20 DUP3 DUP5 SUB SLT ISZERO PUSH2 0xDF7 JUMPI PUSH2 0xDF6 PUSH2 0xCA8 JUMP JUMPDEST JUMPDEST PUSH1 0x0 PUSH2 0xE05 DUP5 DUP3 DUP6 ADD PUSH2 0xD2C JUMP JUMPDEST SWAP2 POP POP SWAP3 SWAP2 POP POP JUMP JUMPDEST PUSH1 0x0 DUP1 PUSH1 0x0 PUSH1 0x60 DUP5 DUP7 SUB SLT ISZERO PUSH2 0xE27 JUMPI PUSH2 0xE26 PUSH2 0xCA8 JUMP JUMPDEST JUMPDEST PUSH1 0x0 PUSH2 0xE35 DUP7 DUP3 DUP8 ADD PUSH2 0xCF6 JUMP JUMPDEST SWAP4 POP POP PUSH1 0x20 PUSH2 0xE46 DUP7 DUP3 DUP8 ADD PUSH2 0xCF6 JUMP JUMPDEST SWAP3 POP POP PUSH1 0x40 PUSH2 0xE57 DUP7 DUP3 DUP8 ADD PUSH2 0xD2C JUMP JUMPDEST SWAP2 POP POP SWAP3 POP SWAP3 POP SWAP3 JUMP JUMPDEST PUSH1 0x0 PUSH1 0xFF DUP3 AND SWAP1 POP SWAP2 SWAP1 POP JUMP JUMPDEST PUSH2 0xE77 DUP2 PUSH2 0xE61 JUMP JUMPDEST DUP3 MSTORE POP POP JUMP JUMPDEST PUSH1 0x0 PUSH1 0x20 DUP3 ADD SWAP1 POP PUSH2 0xE92 PUSH1 0x0 DUP4 ADD DUP5 PUSH2 0xE6E JUMP JUMPDEST SWAP3 SWAP2 POP POP JUMP JUMPDEST PUSH1 0x0 PUSH1 0x20 DUP3 DUP5 SUB SLT ISZERO PUSH2 0xEAE JUMPI PUSH2 0xEAD PUSH2 0xCA8 JUMP JUMPDEST JUMPDEST PUSH1 0x0 PUSH2 0xEBC DUP5 DUP3 DUP6 ADD PUSH2 0xCF6 JUMP JUMPDEST SWAP2 POP POP SWAP3 SWAP2 POP POP JUMP JUMPDEST PUSH1 0x0 DUP2 MLOAD SWAP1 POP SWAP2 SWAP1 POP JUMP JUMPDEST PUSH1 0x0 DUP3 DUP3 MSTORE PUSH1 0x20 DUP3 ADD SWAP1 POP SWAP3 SWAP2 POP POP JUMP JUMPDEST PUSH1 0x0 JUMPDEST DUP4 DUP2 LT ISZERO PUSH2 0xEFF JUMPI DUP1 DUP3 ADD MLOAD DUP2 DUP5 ADD MSTORE PUSH1 0x20 DUP2 ADD SWAP1 POP PUSH2 0xEE4 JUMP JUMPDEST PUSH1 0x0 DUP5 DUP5 ADD MSTORE POP POP POP POP JUMP JUMPDEST PUSH1 0x0 PUSH1 0x1F NOT PUSH1 0x1F DUP4 ADD AND SWAP1 POP SWAP2 SWAP1 POP JUMP JUMPDEST PUSH1 0x0 PUSH2 0xF27 DUP3 PUSH2 0xEC5 JUMP JUMPDEST PUSH2 0xF31 DUP2 DUP6 PUSH2 0xED0 JUMP JUMPDEST SWAP4 POP PUSH2 0xF41 DUP2 DUP6 PUSH1 0x20 DUP7 ADD PUSH2 0xEE1 JUMP JUMPDEST PUSH2 0xF4A DUP2 PUSH2 0xF0B JUMP JUMPDEST DUP5 ADD SWAP2 POP POP SWAP3 SWAP2 POP POP JUMP JUMPDEST PUSH1 0x0 PUSH1 0x20 DUP3 ADD SWAP1 POP DUP2 DUP2 SUB PUSH1 0x0 DUP4 ADD MSTORE PUSH2 0xF6F DUP2 DUP5 PUSH2 0xF1C JUMP JUMPDEST SWAP1 POP SWAP3 SWAP2 POP POP JUMP JUMPDEST PUSH1 0x0 DUP1 PUSH1 0x40 DUP4 DUP6 SUB SLT ISZERO PUSH2 0xF8E JUMPI PUSH2 0xF8D PUSH2 0xCA8 JUMP JUMPDEST JUMPDEST PUSH1 0x0 PUSH2 0xF9C DUP6 DUP3 DUP7 ADD PUSH2 0xCF6 JUMP JUMPDEST SWAP3 POP POP PUSH1 0x20 PUSH2 0xFAD DUP6 DUP3 DUP7 ADD PUSH2 0xCF6 JUMP JUMPDEST SWAP2 POP POP SWAP3 POP SWAP3 SWAP1 POP JUMP JUMPDEST PUSH32 0x4E487B7100000000000000000000000000000000000000000000000000000000 PUSH1 0x0 MSTORE PUSH1 0x11 PUSH1 0x4 MSTORE PUSH1 0x24 PUSH1 0x0 REVERT JUMPDEST PUSH1 0x0 PUSH2 0xFF1 DUP3 PUSH2 0xD0B JUMP JUMPDEST SWAP2 POP PUSH2 0xFFC DUP4 PUSH2 0xD0B JUMP JUMPDEST SWAP3 POP DUP3 DUP3 ADD SWAP1 POP DUP1 DUP3 GT ISZERO PUSH2 0x1014 JUMPI PUSH2 0x1013 PUSH2 0xFB7 JUMP JUMPDEST JUMPDEST SWAP3 SWAP2 POP POP JUMP JUMPDEST PUSH32 0x4E487B7100000000000000000000000000000000000000000000000000000000 PUSH1 0x0 MSTORE PUSH1 0x1 PUSH1 0x4 MSTORE PUSH1 0x24 PUSH1 0x0 REVERT JUMPDEST PUSH1 0x0 PUSH2 0x1054 DUP3 PUSH2 0xD0B JUMP JUMPDEST SWAP2 POP PUSH2 0x105F DUP4 PUSH2 0xD0B JUMP JUMPDEST SWAP3 POP DUP3 DUP3 SUB SWAP1 POP DUP2 DUP2 GT ISZERO PUSH2 0x1077 JUMPI PUSH2 0x1076 PUSH2 0xFB7 JUMP JUMPDEST JUMPDEST SWAP3 SWAP2 POP POP JUMP INVALID LOG2 PUSH5 0x6970667358 0x22 SLT KECCAK256 DUP4 0x1F 0x4E CALL 0xA5 DUP15 DUP6 0xAD 0xEE SUB PUSH24 0x6E6DE24B5B9E6021F7A5B1EF140A5FF6A28F25BA7F64736F PUSH13 0x63430008120033000000000000 "
				},
				"gasEstimates": {
					"creation": {
						"codeDepositCost": "855000",
						"executionCost": "infinite",
						"totalCost": "infinite"
					},
					"external": {
						"DECIMALS()": "424",
						"NAME()": "infinite",
						"SYMBOL()": "infinite",
						"allowance(address,address)": "infinite",
						"approve(address,uint256)": "infinite",
						"balanceOf(address)": "2863",
						"increaseTotalSupply(uint256)": "infinite",
						"totalSupply()": "2460",
						"transfer(address,uint256)": "infinite",
						"transferFrom(address,address,uint256)": "infinite",
						"transferLoteria(address,address,uint256)": "infinite"
					}
				},
				"methodIdentifiers": {
					"DECIMALS()": "2e0f2625",
					"NAME()": "a3f4df7e",
					"SYMBOL()": "f76f8d78",
					"allowance(address,address)": "dd62ed3e",
					"approve(address,uint256)": "095ea7b3",
					"balanceOf(address)": "70a08231",
					"increaseTotalSupply(uint256)": "1d43cc98",
					"totalSupply()": "18160ddd",
					"transfer(address,uint256)": "a9059cbb",
					"transferFrom(address,address,uint256)": "23b872dd",
					"transferLoteria(address,address,uint256)": "5c79febb"
				}
			},
			"storageLayout": {
				"storage": [
					{
						"astId": 98,
						"contract": "LOTERIA/ERC20.sol:ERC20Basic",
						"label": "balances",
						"offset": 0,
						"slot": "0",
						"type": "t_mapping(t_address,t_uint256)"
					},
					{
						"astId": 104,
						"contract": "LOTERIA/ERC20.sol:ERC20Basic",
						"label": "allowed",
						"offset": 0,
						"slot": "1",
						"type": "t_mapping(t_address,t_mapping(t_address,t_uint256))"
					},
					{
						"astId": 106,
						"contract": "LOTERIA/ERC20.sol:ERC20Basic",
						"label": "totalSupply_",
						"offset": 0,
						"slot": "2",
						"type": "t_uint256"
					}
				],
				"types": {
					"t_address": {
						"encoding": "inplace",
						"label": "address",
						"numberOfBytes": "20"
					},
					"t_mapping(t_address,t_mapping(t_address,t_uint256))": {
						"encoding": "mapping",
						"key": "t_address",
						"label": "mapping(address => mapping(address => uint256))",
						"numberOfBytes": "32",
						"value": "t_mapping(t_address,t_uint256)"
					},
					"t_mapping(t_address,t_uint256)": {
						"encoding": "mapping",
						"key": "t_address",
						"label": "mapping(address => uint256)",
						"numberOfBytes": "32",
						"value": "t_uint256"
					},
					"t_uint256": {
						"encoding": "inplace",
						"label": "uint256",
						"numberOfBytes": "32"
					}
				}
			},
			"userdoc": {
				"kind": "user",
				"methods": {},
				"version": 1
			}
		}
	}
}