{
	"LOTERIA/loteria.sol": {
		"Loteria": {
			"abi": [
				{
					"inputs": [],
					"stateMutability": "nonpayable",
					"type": "constructor"
				},
				{
					"anonymous": false,
					"inputs": [
						{
							"indexed": false,
							"internalType": "uint256",
							"name": "",
							"type": "uint256"
						},
						{
							"indexed": false,
							"internalType": "address",
							"name": "",
							"type": "address"
						}
					],
					"name": "boletoComprado",
					"type": "event"
				},
				{
					"anonymous": false,
					"inputs": [
						{
							"indexed": false,
							"internalType": "uint256",
							"name": "",
							"type": "uint256"
						},
						{
							"indexed": false,
							"internalType": "address",
							"name": "",
							"type": "address"
						}
					],
					"name": "boletoGanador",
					"type": "event"
				},
				{
					"anonymous": false,
					"inputs": [
						{
							"indexed": false,
							"internalType": "uint256",
							"name": "",
							"type": "uint256"
						},
						{
							"indexed": false,
							"internalType": "address",
							"name": "",
							"type": "address"
						}
					],
					"name": "comprandoTokens",
					"type": "event"
				},
				{
					"anonymous": false,
					"inputs": [
						{
							"indexed": false,
							"internalType": "uint256",
							"name": "",
							"type": "uint256"
						},
						{
							"indexed": false,
							"internalType": "address",
							"name": "",
							"type": "address"
						}
					],
					"name": "tokensDevueltos",
					"type": "event"
				},
				{
					"inputs": [],
					"name": "bote",
					"outputs": [
						{
							"internalType": "uint256",
							"name": "",
							"type": "uint256"
						}
					],
					"stateMutability": "view",
					"type": "function"
				},
				{
					"inputs": [
						{
							"internalType": "uint256",
							"name": "_numTokens",
							"type": "uint256"
						}
					],
					"name": "compraTokens",
					"outputs": [],
					"stateMutability": "payable",
					"type": "function"
				},
				{
					"inputs": [
						{
							"internalType": "uint256",
							"name": "_numBoletos",
							"type": "uint256"
						}
					],
					"name": "comprarBoleto",
					"outputs": [],
					"stateMutability": "nonpayable",
					"type": "function"
				},
				{
					"inputs": [],
					"name": "contrato",
					"outputs": [
						{
							"internalType": "address",
							"name": "",
							"type": "address"
						}
					],
					"stateMutability": "view",
					"type": "function"
				},
				{
					"inputs": [
						{
							"internalType": "uint256",
							"name": "_numTokens",
							"type": "uint256"
						}
					],
					"name": "devolverTokens",
					"outputs": [],
					"stateMutability": "payable",
					"type": "function"
				},
				{
					"inputs": [],
					"name": "generaGanador",
					"outputs": [],
					"stateMutability": "nonpayable",
					"type": "function"
				},
				{
					"inputs": [
						{
							"internalType": "uint256",
							"name": "_numTokens",
							"type": "uint256"
						}
					],
					"name": "generaTokens",
					"outputs": [],
					"stateMutability": "nonpayable",
					"type": "function"
				},
				{
					"inputs": [],
					"name": "misBoletos",
					"outputs": [
						{
							"internalType": "uint256[]",
							"name": "",
							"type": "uint256[]"
						}
					],
					"stateMutability": "view",
					"type": "function"
				},
				{
					"inputs": [],
					"name": "misTokens",
					"outputs": [
						{
							"internalType": "uint256",
							"name": "",
							"type": "uint256"
						}
					],
					"stateMutability": "view",
					"type": "function"
				},
				{
					"inputs": [],
					"name": "owner",
					"outputs": [
						{
							"internalType": "address",
							"name": "",
							"type": "address"
						}
					],
					"stateMutability": "view",
					"type": "function"
				},
				{
					"inputs": [],
					"name": "precioBoleto",
					"outputs": [
						{
							"internalType": "uint256",
							"name": "",
							"type": "uint256"
						}
					],
					"stateMutability": "view",
					"type": "function"
				},
				{
					"inputs": [],
					"name": "tokenCreados",
					"outputs": [
						{
							"internalType": "uint256",
							"name": "",
							"type": "uint256"
						}
					],
					"stateMutability": "view",
					"type": "function"
				},
				{
					"inputs": [],
					"name": "tokensDisponibles",
					"outputs": [
						{
							"internalType": "uint256",
							"name": "",
							"type": "uint256"
						}
					],
					"stateMutability": "view",
					"type": "function"
				}
			],
			"devdoc": {
				"kind": "dev",
				"methods": {},
				"version": 1
			},
			"evm": {
				"assembly": "    /* \"LOTERIA/loteria.sol\":95:6706  contract Loteria {... */\n  mstore(0x40, 0x80)\n    /* \"LOTERIA/loteria.sol\":331:336  10000 */\n  0x2710\n    /* \"LOTERIA/loteria.sol\":304:336  uint public tokenCreados = 10000 */\n  0x03\n  sstore\n    /* \"LOTERIA/loteria.sol\":2637:2638  5 */\n  0x05\n    /* \"LOTERIA/loteria.sol\":2610:2638  uint public precioBoleto = 5 */\n  0x04\n  sstore\n    /* \"LOTERIA/loteria.sol\":2925:2926  0 */\n  0x00\n    /* \"LOTERIA/loteria.sol\":2908:2926  uint randNonce = 0 */\n  0x07\n  sstore\n    /* \"LOTERIA/loteria.sol\":406:540  constructor () {... */\n  callvalue\n  dup1\n  iszero\n  tag_1\n  jumpi\n  0x00\n  dup1\n  revert\ntag_1:\n  pop\n    /* \"LOTERIA/loteria.sol\":455:467  tokenCreados */\n  sload(0x03)\n    /* \"LOTERIA/loteria.sol\":440:468  new ERC20Basic(tokenCreados) */\n  mload(0x40)\n  tag_4\n  swap1\n  tag_5\n  jump\t// in\ntag_4:\n  tag_6\n  swap2\n  swap1\n  tag_7\n  jump\t// in\ntag_6:\n  mload(0x40)\n  dup1\n  swap2\n  sub\n  swap1\n  0x00\n  create\n  dup1\n  iszero\n  dup1\n  iszero\n  tag_8\n  jumpi\n  returndatasize\n  0x00\n  dup1\n  returndatacopy\n  revert(0x00, returndatasize)\ntag_8:\n  pop\n    /* \"LOTERIA/loteria.sol\":432:437  token */\n  0x00\n  dup1\n    /* \"LOTERIA/loteria.sol\":432:468  token = new ERC20Basic(tokenCreados) */\n  0x0100\n  exp\n  dup2\n  sload\n  dup2\n  0xffffffffffffffffffffffffffffffffffffffff\n  mul\n  not\n  and\n  swap1\n  dup4\n  0xffffffffffffffffffffffffffffffffffffffff\n  and\n  mul\n  or\n  swap1\n  sstore\n  pop\n    /* \"LOTERIA/loteria.sol\":487:497  msg.sender */\n  caller\n    /* \"LOTERIA/loteria.sol\":479:484  owner */\n  0x01\n  0x00\n    /* \"LOTERIA/loteria.sol\":479:497  owner = msg.sender */\n  0x0100\n  exp\n  dup2\n  sload\n  dup2\n  0xffffffffffffffffffffffffffffffffffffffff\n  mul\n  not\n  and\n  swap1\n  dup4\n  0xffffffffffffffffffffffffffffffffffffffff\n  and\n  mul\n  or\n  swap1\n  sstore\n  pop\n    /* \"LOTERIA/loteria.sol\":527:531  this */\n  address\n    /* \"LOTERIA/loteria.sol\":508:516  contrato */\n  0x02\n  0x00\n    /* \"LOTERIA/loteria.sol\":508:532  contrato = address(this) */\n  0x0100\n  exp\n  dup2\n  sload\n  dup2\n  0xffffffffffffffffffffffffffffffffffffffff\n  mul\n  not\n  and\n  swap1\n  dup4\n  0xffffffffffffffffffffffffffffffffffffffff\n  and\n  mul\n  or\n  swap1\n  sstore\n  pop\n    /* \"LOTERIA/loteria.sol\":95:6706  contract Loteria {... */\n  jump(tag_9)\ntag_5:\n  dataSize(sub_1)\n  dup1\n  dataOffset(sub_1)\n  dup4\n  codecopy\n  add\n  swap1\n  jump\t// out\n    /* \"#utility.yul\":7:84   */\ntag_10:\n    /* \"#utility.yul\":44:51   */\n  0x00\n    /* \"#utility.yul\":73:78   */\n  dup2\n    /* \"#utility.yul\":62:78   */\n  swap1\n  pop\n    /* \"#utility.yul\":7:84   */\n  swap2\n  swap1\n  pop\n  jump\t// out\n    /* \"#utility.yul\":90:208   */\ntag_11:\n    /* \"#utility.yul\":177:201   */\n  tag_15\n    /* \"#utility.yul\":195:200   */\n  dup2\n    /* \"#utility.yul\":177:201   */\n  tag_10\n  jump\t// in\ntag_15:\n    /* \"#utility.yul\":172:175   */\n  dup3\n    /* \"#utility.yul\":165:202   */\n  mstore\n    /* \"#utility.yul\":90:208   */\n  pop\n  pop\n  jump\t// out\n    /* \"#utility.yul\":214:436   */\ntag_7:\n    /* \"#utility.yul\":307:311   */\n  0x00\n    /* \"#utility.yul\":345:347   */\n  0x20\n    /* \"#utility.yul\":334:343   */\n  dup3\n    /* \"#utility.yul\":330:348   */\n  add\n    /* \"#utility.yul\":322:348   */\n  swap1\n  pop\n    /* \"#utility.yul\":358:429   */\n  tag_17\n    /* \"#utility.yul\":426:427   */\n  0x00\n    /* \"#utility.yul\":415:424   */\n  dup4\n    /* \"#utility.yul\":411:428   */\n  add\n    /* \"#utility.yul\":402:408   */\n  dup5\n    /* \"#utility.yul\":358:429   */\n  tag_11\n  jump\t// in\ntag_17:\n    /* \"#utility.yul\":214:436   */\n  swap3\n  swap2\n  pop\n  pop\n  jump\t// out\n    /* \"LOTERIA/loteria.sol\":95:6706  contract Loteria {... */\ntag_9:\n  dataSize(sub_0)\n  dup1\n  dataOffset(sub_0)\n  0x00\n  codecopy\n  0x00\n  return\nstop\n\nsub_0: assembly {\n        /* \"LOTERIA/loteria.sol\":95:6706  contract Loteria {... */\n      mstore(0x40, 0x80)\n      jumpi(tag_1, lt(calldatasize, 0x04))\n      shr(0xe0, calldataload(0x00))\n      dup1\n      0x7f30e11c\n      gt\n      tag_15\n      jumpi\n      dup1\n      0xe1a01e67\n      gt\n      tag_16\n      jumpi\n      dup1\n      0xe1a01e67\n      eq\n      tag_11\n      jumpi\n      dup1\n      0xec980ef9\n      eq\n      tag_12\n      jumpi\n      dup1\n      0xee5ade83\n      eq\n      tag_13\n      jumpi\n      dup1\n      0xefb40e2d\n      eq\n      tag_14\n      jumpi\n      jump(tag_1)\n    tag_16:\n      dup1\n      0x7f30e11c\n      eq\n      tag_8\n      jumpi\n      dup1\n      0x8da5cb5b\n      eq\n      tag_9\n      jumpi\n      dup1\n      0xc29dd7c9\n      eq\n      tag_10\n      jumpi\n      jump(tag_1)\n    tag_15:\n      dup1\n      0x066265c5\n      eq\n      tag_2\n      jumpi\n      dup1\n      0x21e0528b\n      eq\n      tag_3\n      jumpi\n      dup1\n      0x2d8e6adc\n      eq\n      tag_4\n      jumpi\n      dup1\n      0x2e95161c\n      eq\n      tag_5\n      jumpi\n      dup1\n      0x4947830d\n      eq\n      tag_6\n      jumpi\n      dup1\n      0x779c6a4c\n      eq\n      tag_7\n      jumpi\n    tag_1:\n      0x00\n      dup1\n      revert\n        /* \"LOTERIA/loteria.sol\":5018:5991  function generaGanador() public onlyOwner(msg.sender) {... */\n    tag_2:\n      callvalue\n      dup1\n      iszero\n      tag_17\n      jumpi\n      0x00\n      dup1\n      revert\n    tag_17:\n      pop\n      tag_18\n      tag_19\n      jump\t// in\n    tag_18:\n      stop\n        /* \"LOTERIA/loteria.sol\":2429:2529  function misTokens() public view returns(uint) {... */\n    tag_3:\n      callvalue\n      dup1\n      iszero\n      tag_20\n      jumpi\n      0x00\n      dup1\n      revert\n    tag_20:\n      pop\n      tag_21\n      tag_22\n      jump\t// in\n    tag_21:\n      mload(0x40)\n      tag_23\n      swap2\n      swap1\n      tag_24\n      jump\t// in\n    tag_23:\n      mload(0x40)\n      dup1\n      swap2\n      sub\n      swap1\n      return\n        /* \"LOTERIA/loteria.sol\":304:336  uint public tokenCreados = 10000 */\n    tag_4:\n      callvalue\n      dup1\n      iszero\n      tag_25\n      jumpi\n      0x00\n      dup1\n      revert\n    tag_25:\n      pop\n      tag_26\n      tag_27\n      jump\t// in\n    tag_26:\n      mload(0x40)\n      tag_28\n      swap2\n      swap1\n      tag_24\n      jump\t// in\n    tag_28:\n      mload(0x40)\n      dup1\n      swap2\n      sub\n      swap1\n      return\n        /* \"LOTERIA/loteria.sol\":6033:6701  function devolverTokens(uint _numTokens) public payable {... */\n    tag_5:\n      tag_29\n      0x04\n      dup1\n      calldatasize\n      sub\n      dup2\n      add\n      swap1\n      tag_30\n      swap2\n      swap1\n      tag_31\n      jump\t// in\n    tag_30:\n      tag_32\n      jump\t// in\n    tag_29:\n      stop\n        /* \"LOTERIA/loteria.sol\":766:890  function generaTokens(uint _numTokens) public onlyOwner(msg.sender) {... */\n    tag_6:\n      callvalue\n      dup1\n      iszero\n      tag_33\n      jumpi\n      0x00\n      dup1\n      revert\n    tag_33:\n      pop\n      tag_34\n      0x04\n      dup1\n      calldatasize\n      sub\n      dup2\n      add\n      swap1\n      tag_35\n      swap2\n      swap1\n      tag_31\n      jump\t// in\n    tag_35:\n      tag_36\n      jump\t// in\n    tag_34:\n      stop\n        /* \"LOTERIA/loteria.sol\":2117:2223  function tokensDisponibles() public view returns(uint) {... */\n    tag_7:\n      callvalue\n      dup1\n      iszero\n      tag_37\n      jumpi\n      0x00\n      dup1\n      revert\n    tag_37:\n      pop\n      tag_38\n      tag_39\n      jump\t// in\n    tag_38:\n      mload(0x40)\n      tag_40\n      swap2\n      swap1\n      tag_24\n      jump\t// in\n    tag_40:\n      mload(0x40)\n      dup1\n      swap2\n      sub\n      swap1\n      return\n        /* \"LOTERIA/loteria.sol\":3232:4771  function comprarBoleto(uint _numBoletos) public  {... */\n    tag_8:\n      callvalue\n      dup1\n      iszero\n      tag_41\n      jumpi\n      0x00\n      dup1\n      revert\n    tag_41:\n      pop\n      tag_42\n      0x04\n      dup1\n      calldatasize\n      sub\n      dup2\n      add\n      swap1\n      tag_43\n      swap2\n      swap1\n      tag_31\n      jump\t// in\n    tag_43:\n      tag_44\n      jump\t// in\n    tag_42:\n      stop\n        /* \"LOTERIA/loteria.sol\":211:231  address public owner */\n    tag_9:\n      callvalue\n      dup1\n      iszero\n      tag_45\n      jumpi\n      0x00\n      dup1\n      revert\n    tag_45:\n      pop\n      tag_46\n      tag_47\n      jump\t// in\n    tag_46:\n      mload(0x40)\n      tag_48\n      swap2\n      swap1\n      tag_49\n      jump\t// in\n    tag_48:\n      mload(0x40)\n      dup1\n      swap2\n      sub\n      swap1\n      return\n        /* \"LOTERIA/loteria.sol\":1201:2056  function compraTokens(uint _numTokens) public payable {... */\n    tag_10:\n      tag_50\n      0x04\n      dup1\n      calldatasize\n      sub\n      dup2\n      add\n      swap1\n      tag_51\n      swap2\n      swap1\n      tag_31\n      jump\t// in\n    tag_51:\n      tag_52\n      jump\t// in\n    tag_50:\n      stop\n        /* \"LOTERIA/loteria.sol\":238:261  address public contrato */\n    tag_11:\n      callvalue\n      dup1\n      iszero\n      tag_53\n      jumpi\n      0x00\n      dup1\n      revert\n    tag_53:\n      pop\n      tag_54\n      tag_55\n      jump\t// in\n    tag_54:\n      mload(0x40)\n      tag_56\n      swap2\n      swap1\n      tag_49\n      jump\t// in\n    tag_56:\n      mload(0x40)\n      dup1\n      swap2\n      sub\n      swap1\n      return\n        /* \"LOTERIA/loteria.sol\":2290:2380  function bote() public view returns(uint) {... */\n    tag_12:\n      callvalue\n      dup1\n      iszero\n      tag_57\n      jumpi\n      0x00\n      dup1\n      revert\n    tag_57:\n      pop\n      tag_58\n      tag_59\n      jump\t// in\n    tag_58:\n      mload(0x40)\n      tag_60\n      swap2\n      swap1\n      tag_24\n      jump\t// in\n    tag_60:\n      mload(0x40)\n      dup1\n      swap2\n      sub\n      swap1\n      return\n        /* \"LOTERIA/loteria.sol\":2610:2638  uint public precioBoleto = 5 */\n    tag_13:\n      callvalue\n      dup1\n      iszero\n      tag_61\n      jumpi\n      0x00\n      dup1\n      revert\n    tag_61:\n      pop\n      tag_62\n      tag_63\n      jump\t// in\n    tag_62:\n      mload(0x40)\n      tag_64\n      swap2\n      swap1\n      tag_24\n      jump\t// in\n    tag_64:\n      mload(0x40)\n      dup1\n      swap2\n      sub\n      swap1\n      return\n        /* \"LOTERIA/loteria.sol\":4835:4946  function misBoletos() public view returns(uint[] memory) {... */\n    tag_14:\n      callvalue\n      dup1\n      iszero\n      tag_65\n      jumpi\n      0x00\n      dup1\n      revert\n    tag_65:\n      pop\n      tag_66\n      tag_67\n      jump\t// in\n    tag_66:\n      mload(0x40)\n      tag_68\n      swap2\n      swap1\n      tag_69\n      jump\t// in\n    tag_68:\n      mload(0x40)\n      dup1\n      swap2\n      sub\n      swap1\n      return\n        /* \"LOTERIA/loteria.sol\":5018:5991  function generaGanador() public onlyOwner(msg.sender) {... */\n    tag_19:\n        /* \"LOTERIA/loteria.sol\":5060:5070  msg.sender */\n      caller\n        /* \"LOTERIA/loteria.sol\":1057:1062  owner */\n      0x01\n      0x00\n      swap1\n      sload\n      swap1\n      0x0100\n      exp\n      swap1\n      div\n      0xffffffffffffffffffffffffffffffffffffffff\n      and\n        /* \"LOTERIA/loteria.sol\":1043:1062  _direccion == owner */\n      0xffffffffffffffffffffffffffffffffffffffff\n      and\n        /* \"LOTERIA/loteria.sol\":1043:1053  _direccion */\n      dup2\n        /* \"LOTERIA/loteria.sol\":1043:1062  _direccion == owner */\n      0xffffffffffffffffffffffffffffffffffffffff\n      and\n      eq\n        /* \"LOTERIA/loteria.sol\":1035:1112  require(_direccion == owner, \"No tienes permisos para ejecutar esta funcion\") */\n      tag_71\n      jumpi\n      mload(0x40)\n      0x08c379a000000000000000000000000000000000000000000000000000000000\n      dup2\n      mstore\n      0x04\n      add\n      tag_72\n      swap1\n      tag_73\n      jump\t// in\n    tag_72:\n      mload(0x40)\n      dup1\n      swap2\n      sub\n      swap1\n      revert\n    tag_71:\n        /* \"LOTERIA/loteria.sol\":5158:5159  0 */\n      0x00\n        /* \"LOTERIA/loteria.sol\":5132:5148  boletosComprados */\n      0x08\n        /* \"LOTERIA/loteria.sol\":5132:5155  boletosComprados.length */\n      dup1\n      sload\n      swap1\n      pop\n        /* \"LOTERIA/loteria.sol\":5132:5159  boletosComprados.length > 0 */\n      gt\n        /* \"LOTERIA/loteria.sol\":5124:5188  require(boletosComprados.length > 0, \"No hay boletos comprados\") */\n      tag_75\n      jumpi\n      mload(0x40)\n      0x08c379a000000000000000000000000000000000000000000000000000000000\n      dup2\n      mstore\n      0x04\n      add\n      tag_76\n      swap1\n      tag_77\n      jump\t// in\n    tag_76:\n      mload(0x40)\n      dup1\n      swap2\n      sub\n      swap1\n      revert\n    tag_75:\n        /* \"LOTERIA/loteria.sol\":5249:5262  uint longitud */\n      0x00\n        /* \"LOTERIA/loteria.sol\":5265:5281  boletosComprados */\n      0x08\n        /* \"LOTERIA/loteria.sol\":5265:5288  boletosComprados.length */\n      dup1\n      sload\n      swap1\n      pop\n        /* \"LOTERIA/loteria.sol\":5249:5288  uint longitud = boletosComprados.length */\n      swap1\n      pop\n        /* \"LOTERIA/loteria.sol\":5427:5445  uint posicionArray */\n      0x00\n        /* \"LOTERIA/loteria.sol\":5501:5509  longitud */\n      dup2\n        /* \"LOTERIA/loteria.sol\":5480:5495  block.timestamp */\n      timestamp\n        /* \"LOTERIA/loteria.sol\":5463:5496  abi.encodePacked(block.timestamp) */\n      add(0x20, mload(0x40))\n      tag_78\n      swap2\n      swap1\n      tag_79\n      jump\t// in\n    tag_78:\n      mload(0x40)\n      0x20\n      dup2\n      dup4\n      sub\n      sub\n      dup2\n      mstore\n      swap1\n      0x40\n      mstore\n        /* \"LOTERIA/loteria.sol\":5453:5497  keccak256(abi.encodePacked(block.timestamp)) */\n      dup1\n      mload\n      swap1\n      0x20\n      add\n      keccak256\n        /* \"LOTERIA/loteria.sol\":5448:5498  uint(keccak256(abi.encodePacked(block.timestamp))) */\n      0x00\n      shr\n        /* \"LOTERIA/loteria.sol\":5448:5509  uint(keccak256(abi.encodePacked(block.timestamp))) % longitud */\n      tag_80\n      swap2\n      swap1\n      tag_81\n      jump\t// in\n    tag_80:\n        /* \"LOTERIA/loteria.sol\":5427:5509  uint posicionArray = uint(keccak256(abi.encodePacked(block.timestamp))) % longitud */\n      swap1\n      pop\n        /* \"LOTERIA/loteria.sol\":5610:5623  uint eleccion */\n      0x00\n        /* \"LOTERIA/loteria.sol\":5626:5642  boletosComprados */\n      0x08\n        /* \"LOTERIA/loteria.sol\":5643:5656  posicionArray */\n      dup3\n        /* \"LOTERIA/loteria.sol\":5626:5657  boletosComprados[posicionArray] */\n      dup2\n      sload\n      dup2\n      lt\n      tag_82\n      jumpi\n      tag_83\n      tag_84\n      jump\t// in\n    tag_83:\n    tag_82:\n      swap1\n      0x00\n      mstore\n      keccak256(0x00, 0x20)\n      add\n      sload\n        /* \"LOTERIA/loteria.sol\":5610:5657  uint eleccion = boletosComprados[posicionArray] */\n      swap1\n      pop\n        /* \"LOTERIA/loteria.sol\":5716:5740  address direccionGanador */\n      0x00\n        /* \"LOTERIA/loteria.sol\":5743:5752  adnBoleto */\n      0x06\n        /* \"LOTERIA/loteria.sol\":5743:5762  adnBoleto[eleccion] */\n      0x00\n        /* \"LOTERIA/loteria.sol\":5753:5761  eleccion */\n      dup4\n        /* \"LOTERIA/loteria.sol\":5743:5762  adnBoleto[eleccion] */\n      dup2\n      mstore\n      0x20\n      add\n      swap1\n      dup2\n      mstore\n      0x20\n      add\n      0x00\n      keccak256\n      0x00\n      swap1\n      sload\n      swap1\n      0x0100\n      exp\n      swap1\n      div\n      0xffffffffffffffffffffffffffffffffffffffff\n      and\n        /* \"LOTERIA/loteria.sol\":5716:5762  address direccionGanador = adnBoleto[eleccion] */\n      swap1\n      pop\n        /* \"LOTERIA/loteria.sol\":5822:5863  boletoGanador(eleccion, direccionGanador) */\n      0xdf318f1f5a0a5907e4daeb60c6a1de77a7808f267a25358a284adafa13309c61\n        /* \"LOTERIA/loteria.sol\":5836:5844  eleccion */\n      dup3\n        /* \"LOTERIA/loteria.sol\":5846:5862  direccionGanador */\n      dup3\n        /* \"LOTERIA/loteria.sol\":5822:5863  boletoGanador(eleccion, direccionGanador) */\n      mload(0x40)\n      tag_86\n      swap3\n      swap2\n      swap1\n      tag_87\n      jump\t// in\n    tag_86:\n      mload(0x40)\n      dup1\n      swap2\n      sub\n      swap1\n      log1\n        /* \"LOTERIA/loteria.sol\":5928:5933  token */\n      0x00\n      dup1\n      sload\n      swap1\n      0x0100\n      exp\n      swap1\n      div\n      0xffffffffffffffffffffffffffffffffffffffff\n      and\n        /* \"LOTERIA/loteria.sol\":5928:5949  token.transferLoteria */\n      0xffffffffffffffffffffffffffffffffffffffff\n      and\n      0x5c79febb\n        /* \"LOTERIA/loteria.sol\":5950:5955  owner */\n      0x01\n      0x00\n      swap1\n      sload\n      swap1\n      0x0100\n      exp\n      swap1\n      div\n      0xffffffffffffffffffffffffffffffffffffffff\n      and\n        /* \"LOTERIA/loteria.sol\":5957:5973  direccionGanador */\n      dup4\n        /* \"LOTERIA/loteria.sol\":5975:5981  bote() */\n      tag_88\n        /* \"LOTERIA/loteria.sol\":5975:5979  bote */\n      tag_59\n        /* \"LOTERIA/loteria.sol\":5975:5981  bote() */\n      jump\t// in\n    tag_88:\n        /* \"LOTERIA/loteria.sol\":5928:5982  token.transferLoteria(owner, direccionGanador, bote()) */\n      mload(0x40)\n      dup5\n      0xffffffff\n      and\n      0xe0\n      shl\n      dup2\n      mstore\n      0x04\n      add\n      tag_89\n      swap4\n      swap3\n      swap2\n      swap1\n      tag_90\n      jump\t// in\n    tag_89:\n      0x20\n      mload(0x40)\n      dup1\n      dup4\n      sub\n      dup2\n      0x00\n      dup8\n      gas\n      call\n      iszero\n      dup1\n      iszero\n      tag_92\n      jumpi\n      returndatasize\n      0x00\n      dup1\n      returndatacopy\n      revert(0x00, returndatasize)\n    tag_92:\n      pop\n      pop\n      pop\n      pop\n      mload(0x40)\n      returndatasize\n      not(0x1f)\n      0x1f\n      dup3\n      add\n      and\n      dup3\n      add\n      dup1\n      0x40\n      mstore\n      pop\n      dup2\n      add\n      swap1\n      tag_93\n      swap2\n      swap1\n      tag_94\n      jump\t// in\n    tag_93:\n      pop\n        /* \"LOTERIA/loteria.sol\":5072:5991  {... */\n      pop\n      pop\n      pop\n      pop\n        /* \"LOTERIA/loteria.sol\":5018:5991  function generaGanador() public onlyOwner(msg.sender) {... */\n      pop\n      jump\t// out\n        /* \"LOTERIA/loteria.sol\":2429:2529  function misTokens() public view returns(uint) {... */\n    tag_22:\n        /* \"LOTERIA/loteria.sol\":2470:2474  uint */\n      0x00\n        /* \"LOTERIA/loteria.sol\":2494:2499  token */\n      dup1\n      0x00\n      swap1\n      sload\n      swap1\n      0x0100\n      exp\n      swap1\n      div\n      0xffffffffffffffffffffffffffffffffffffffff\n      and\n        /* \"LOTERIA/loteria.sol\":2494:2509  token.balanceOf */\n      0xffffffffffffffffffffffffffffffffffffffff\n      and\n      0x70a08231\n        /* \"LOTERIA/loteria.sol\":2510:2520  msg.sender */\n      caller\n        /* \"LOTERIA/loteria.sol\":2494:2521  token.balanceOf(msg.sender) */\n      mload(0x40)\n      dup3\n      0xffffffff\n      and\n      0xe0\n      shl\n      dup2\n      mstore\n      0x04\n      add\n      tag_96\n      swap2\n      swap1\n      tag_49\n      jump\t// in\n    tag_96:\n      0x20\n      mload(0x40)\n      dup1\n      dup4\n      sub\n      dup2\n      dup7\n      gas\n      staticcall\n      iszero\n      dup1\n      iszero\n      tag_98\n      jumpi\n      returndatasize\n      0x00\n      dup1\n      returndatacopy\n      revert(0x00, returndatasize)\n    tag_98:\n      pop\n      pop\n      pop\n      pop\n      mload(0x40)\n      returndatasize\n      not(0x1f)\n      0x1f\n      dup3\n      add\n      and\n      dup3\n      add\n      dup1\n      0x40\n      mstore\n      pop\n      dup2\n      add\n      swap1\n      tag_99\n      swap2\n      swap1\n      tag_100\n      jump\t// in\n    tag_99:\n        /* \"LOTERIA/loteria.sol\":2487:2521  return token.balanceOf(msg.sender) */\n      swap1\n      pop\n        /* \"LOTERIA/loteria.sol\":2429:2529  function misTokens() public view returns(uint) {... */\n      swap1\n      jump\t// out\n        /* \"LOTERIA/loteria.sol\":304:336  uint public tokenCreados = 10000 */\n    tag_27:\n      sload(0x03)\n      dup2\n      jump\t// out\n        /* \"LOTERIA/loteria.sol\":6033:6701  function devolverTokens(uint _numTokens) public payable {... */\n    tag_32:\n        /* \"LOTERIA/loteria.sol\":6184:6185  0 */\n      0x00\n        /* \"LOTERIA/loteria.sol\":6171:6181  _numTokens */\n      dup2\n        /* \"LOTERIA/loteria.sol\":6171:6185  _numTokens > 0 */\n      gt\n        /* \"LOTERIA/loteria.sol\":6163:6217  require(_numTokens > 0, \"No hay tokens para devolver\") */\n      tag_102\n      jumpi\n      mload(0x40)\n      0x08c379a000000000000000000000000000000000000000000000000000000000\n      dup2\n      mstore\n      0x04\n      add\n      tag_103\n      swap1\n      tag_104\n      jump\t// in\n    tag_103:\n      mload(0x40)\n      dup1\n      swap2\n      sub\n      swap1\n      revert\n    tag_102:\n        /* \"LOTERIA/loteria.sol\":6322:6333  misTokens() */\n      tag_105\n        /* \"LOTERIA/loteria.sol\":6322:6331  misTokens */\n      tag_22\n        /* \"LOTERIA/loteria.sol\":6322:6333  misTokens() */\n      jump\t// in\n    tag_105:\n        /* \"LOTERIA/loteria.sol\":6308:6318  _numTokens */\n      dup2\n        /* \"LOTERIA/loteria.sol\":6308:6333  _numTokens <= misTokens() */\n      gt\n      iszero\n        /* \"LOTERIA/loteria.sol\":6300:6378  require(_numTokens <= misTokens(), \"No tienes los tokens que deseas devolver\") */\n      tag_106\n      jumpi\n      mload(0x40)\n      0x08c379a000000000000000000000000000000000000000000000000000000000\n      dup2\n      mstore\n      0x04\n      add\n      tag_107\n      swap1\n      tag_108\n      jump\t// in\n    tag_107:\n      mload(0x40)\n      dup1\n      swap2\n      sub\n      swap1\n      revert\n    tag_106:\n        /* \"LOTERIA/loteria.sol\":6513:6518  token */\n      0x00\n      dup1\n      sload\n      swap1\n      0x0100\n      exp\n      swap1\n      div\n      0xffffffffffffffffffffffffffffffffffffffff\n      and\n        /* \"LOTERIA/loteria.sol\":6513:6534  token.transferLoteria */\n      0xffffffffffffffffffffffffffffffffffffffff\n      and\n      0x5c79febb\n        /* \"LOTERIA/loteria.sol\":6535:6545  msg.sender */\n      caller\n        /* \"LOTERIA/loteria.sol\":6555:6559  this */\n      address\n        /* \"LOTERIA/loteria.sol\":6562:6572  _numTokens */\n      dup5\n        /* \"LOTERIA/loteria.sol\":6513:6573  token.transferLoteria(msg.sender, address(this), _numTokens) */\n      mload(0x40)\n      dup5\n      0xffffffff\n      and\n      0xe0\n      shl\n      dup2\n      mstore\n      0x04\n      add\n      tag_109\n      swap4\n      swap3\n      swap2\n      swap1\n      tag_90\n      jump\t// in\n    tag_109:\n      0x20\n      mload(0x40)\n      dup1\n      dup4\n      sub\n      dup2\n      0x00\n      dup8\n      gas\n      call\n      iszero\n      dup1\n      iszero\n      tag_111\n      jumpi\n      returndatasize\n      0x00\n      dup1\n      returndatacopy\n      revert(0x00, returndatasize)\n    tag_111:\n      pop\n      pop\n      pop\n      pop\n      mload(0x40)\n      returndatasize\n      not(0x1f)\n      0x1f\n      dup3\n      add\n      and\n      dup3\n      add\n      dup1\n      0x40\n      mstore\n      pop\n      dup2\n      add\n      swap1\n      tag_112\n      swap2\n      swap1\n      tag_94\n      jump\t// in\n    tag_112:\n      pop\n        /* \"LOTERIA/loteria.sol\":6592:6602  msg.sender */\n      caller\n        /* \"LOTERIA/loteria.sol\":6584:6612  payable(msg.sender).transfer */\n      0xffffffffffffffffffffffffffffffffffffffff\n      and\n        /* \"LOTERIA/loteria.sol\":6584:6638  payable(msg.sender).transfer(precioTokens(_numTokens)) */\n      0x08fc\n        /* \"LOTERIA/loteria.sol\":6613:6637  precioTokens(_numTokens) */\n      tag_113\n        /* \"LOTERIA/loteria.sol\":6626:6636  _numTokens */\n      dup4\n        /* \"LOTERIA/loteria.sol\":6613:6625  precioTokens */\n      tag_114\n        /* \"LOTERIA/loteria.sol\":6613:6637  precioTokens(_numTokens) */\n      jump\t// in\n    tag_113:\n        /* \"LOTERIA/loteria.sol\":6584:6638  payable(msg.sender).transfer(precioTokens(_numTokens)) */\n      swap1\n      dup2\n      iszero\n      mul\n      swap1\n      mload(0x40)\n      0x00\n      mload(0x40)\n      dup1\n      dup4\n      sub\n      dup2\n      dup6\n      dup9\n      dup9\n      call\n      swap4\n      pop\n      pop\n      pop\n      pop\n      iszero\n      dup1\n      iszero\n      tag_116\n      jumpi\n      returndatasize\n      0x00\n      dup1\n      returndatacopy\n      revert(0x00, returndatasize)\n    tag_116:\n      pop\n        /* \"LOTERIA/loteria.sol\":6654:6693  tokensDevueltos(_numTokens, msg.sender) */\n      0xa997a52566b1f8380f086c733e70d49a141eafece6addc432a411a73ec45c688\n        /* \"LOTERIA/loteria.sol\":6670:6680  _numTokens */\n      dup2\n        /* \"LOTERIA/loteria.sol\":6682:6692  msg.sender */\n      caller\n        /* \"LOTERIA/loteria.sol\":6654:6693  tokensDevueltos(_numTokens, msg.sender) */\n      mload(0x40)\n      tag_117\n      swap3\n      swap2\n      swap1\n      tag_87\n      jump\t// in\n    tag_117:\n      mload(0x40)\n      dup1\n      swap2\n      sub\n      swap1\n      log1\n        /* \"LOTERIA/loteria.sol\":6033:6701  function devolverTokens(uint _numTokens) public payable {... */\n      pop\n      jump\t// out\n        /* \"LOTERIA/loteria.sol\":766:890  function generaTokens(uint _numTokens) public onlyOwner(msg.sender) {... */\n    tag_36:\n        /* \"LOTERIA/loteria.sol\":822:832  msg.sender */\n      caller\n        /* \"LOTERIA/loteria.sol\":1057:1062  owner */\n      0x01\n      0x00\n      swap1\n      sload\n      swap1\n      0x0100\n      exp\n      swap1\n      div\n      0xffffffffffffffffffffffffffffffffffffffff\n      and\n        /* \"LOTERIA/loteria.sol\":1043:1062  _direccion == owner */\n      0xffffffffffffffffffffffffffffffffffffffff\n      and\n        /* \"LOTERIA/loteria.sol\":1043:1053  _direccion */\n      dup2\n        /* \"LOTERIA/loteria.sol\":1043:1062  _direccion == owner */\n      0xffffffffffffffffffffffffffffffffffffffff\n      and\n      eq\n        /* \"LOTERIA/loteria.sol\":1035:1112  require(_direccion == owner, \"No tienes permisos para ejecutar esta funcion\") */\n      tag_119\n      jumpi\n      mload(0x40)\n      0x08c379a000000000000000000000000000000000000000000000000000000000\n      dup2\n      mstore\n      0x04\n      add\n      tag_120\n      swap1\n      tag_73\n      jump\t// in\n    tag_120:\n      mload(0x40)\n      dup1\n      swap2\n      sub\n      swap1\n      revert\n    tag_119:\n        /* \"LOTERIA/loteria.sol\":845:850  token */\n      0x00\n      dup1\n      sload\n      swap1\n      0x0100\n      exp\n      swap1\n      div\n      0xffffffffffffffffffffffffffffffffffffffff\n      and\n        /* \"LOTERIA/loteria.sol\":845:870  token.increaseTotalSupply */\n      0xffffffffffffffffffffffffffffffffffffffff\n      and\n      0x1d43cc98\n        /* \"LOTERIA/loteria.sol\":871:881  _numTokens */\n      dup4\n        /* \"LOTERIA/loteria.sol\":845:882  token.increaseTotalSupply(_numTokens) */\n      mload(0x40)\n      dup3\n      0xffffffff\n      and\n      0xe0\n      shl\n      dup2\n      mstore\n      0x04\n      add\n      tag_122\n      swap2\n      swap1\n      tag_24\n      jump\t// in\n    tag_122:\n      0x00\n      mload(0x40)\n      dup1\n      dup4\n      sub\n      dup2\n      0x00\n      dup8\n      dup1\n      extcodesize\n      iszero\n      dup1\n      iszero\n      tag_123\n      jumpi\n      0x00\n      dup1\n      revert\n    tag_123:\n      pop\n      gas\n      call\n      iszero\n      dup1\n      iszero\n      tag_125\n      jumpi\n      returndatasize\n      0x00\n      dup1\n      returndatacopy\n      revert(0x00, returndatasize)\n    tag_125:\n      pop\n      pop\n      pop\n      pop\n        /* \"LOTERIA/loteria.sol\":766:890  function generaTokens(uint _numTokens) public onlyOwner(msg.sender) {... */\n      pop\n      pop\n      jump\t// out\n        /* \"LOTERIA/loteria.sol\":2117:2223  function tokensDisponibles() public view returns(uint) {... */\n    tag_39:\n        /* \"LOTERIA/loteria.sol\":2166:2170  uint */\n      0x00\n        /* \"LOTERIA/loteria.sol\":2190:2195  token */\n      dup1\n      0x00\n      swap1\n      sload\n      swap1\n      0x0100\n      exp\n      swap1\n      div\n      0xffffffffffffffffffffffffffffffffffffffff\n      and\n        /* \"LOTERIA/loteria.sol\":2190:2205  token.balanceOf */\n      0xffffffffffffffffffffffffffffffffffffffff\n      and\n      0x70a08231\n        /* \"LOTERIA/loteria.sol\":2206:2214  contrato */\n      0x02\n      0x00\n      swap1\n      sload\n      swap1\n      0x0100\n      exp\n      swap1\n      div\n      0xffffffffffffffffffffffffffffffffffffffff\n      and\n        /* \"LOTERIA/loteria.sol\":2190:2215  token.balanceOf(contrato) */\n      mload(0x40)\n      dup3\n      0xffffffff\n      and\n      0xe0\n      shl\n      dup2\n      mstore\n      0x04\n      add\n      tag_127\n      swap2\n      swap1\n      tag_49\n      jump\t// in\n    tag_127:\n      0x20\n      mload(0x40)\n      dup1\n      dup4\n      sub\n      dup2\n      dup7\n      gas\n      staticcall\n      iszero\n      dup1\n      iszero\n      tag_129\n      jumpi\n      returndatasize\n      0x00\n      dup1\n      returndatacopy\n      revert(0x00, returndatasize)\n    tag_129:\n      pop\n      pop\n      pop\n      pop\n      mload(0x40)\n      returndatasize\n      not(0x1f)\n      0x1f\n      dup3\n      add\n      and\n      dup3\n      add\n      dup1\n      0x40\n      mstore\n      pop\n      dup2\n      add\n      swap1\n      tag_130\n      swap2\n      swap1\n      tag_100\n      jump\t// in\n    tag_130:\n        /* \"LOTERIA/loteria.sol\":2183:2215  return token.balanceOf(contrato) */\n      swap1\n      pop\n        /* \"LOTERIA/loteria.sol\":2117:2223  function tokensDisponibles() public view returns(uint) {... */\n      swap1\n      jump\t// out\n        /* \"LOTERIA/loteria.sol\":3232:4771  function comprarBoleto(uint _numBoletos) public  {... */\n    tag_44:\n        /* \"LOTERIA/loteria.sol\":3342:3357  uint costeTotal */\n      0x00\n        /* \"LOTERIA/loteria.sol\":3372:3384  precioBoleto */\n      sload(0x04)\n        /* \"LOTERIA/loteria.sol\":3360:3371  _numBoletos */\n      dup3\n        /* \"LOTERIA/loteria.sol\":3360:3384  _numBoletos*precioBoleto */\n      tag_132\n      swap2\n      swap1\n      tag_133\n      jump\t// in\n    tag_132:\n        /* \"LOTERIA/loteria.sol\":3342:3384  uint costeTotal = _numBoletos*precioBoleto */\n      swap1\n      pop\n        /* \"LOTERIA/loteria.sol\":3417:3428  misTokens() */\n      tag_134\n        /* \"LOTERIA/loteria.sol\":3417:3426  misTokens */\n      tag_22\n        /* \"LOTERIA/loteria.sol\":3417:3428  misTokens() */\n      jump\t// in\n    tag_134:\n        /* \"LOTERIA/loteria.sol\":3403:3413  costeTotal */\n      dup2\n        /* \"LOTERIA/loteria.sol\":3403:3428  costeTotal <= misTokens() */\n      gt\n      iszero\n        /* \"LOTERIA/loteria.sol\":3395:3461  require(costeTotal <= misTokens(), \"No tienes suficientes tokens\") */\n      tag_135\n      jumpi\n      mload(0x40)\n      0x08c379a000000000000000000000000000000000000000000000000000000000\n      dup2\n      mstore\n      0x04\n      add\n      tag_136\n      swap1\n      tag_137\n      jump\t// in\n    tag_136:\n      mload(0x40)\n      dup1\n      swap2\n      sub\n      swap1\n      revert\n    tag_135:\n        /* \"LOTERIA/loteria.sol\":3971:3976  token */\n      0x00\n      dup1\n      sload\n      swap1\n      0x0100\n      exp\n      swap1\n      div\n      0xffffffffffffffffffffffffffffffffffffffff\n      and\n        /* \"LOTERIA/loteria.sol\":3971:3992  token.transferLoteria */\n      0xffffffffffffffffffffffffffffffffffffffff\n      and\n      0x5c79febb\n        /* \"LOTERIA/loteria.sol\":3993:4003  msg.sender */\n      caller\n        /* \"LOTERIA/loteria.sol\":4005:4010  owner */\n      0x01\n      0x00\n      swap1\n      sload\n      swap1\n      0x0100\n      exp\n      swap1\n      div\n      0xffffffffffffffffffffffffffffffffffffffff\n      and\n        /* \"LOTERIA/loteria.sol\":4012:4022  costeTotal */\n      dup5\n        /* \"LOTERIA/loteria.sol\":3971:4023  token.transferLoteria(msg.sender, owner, costeTotal) */\n      mload(0x40)\n      dup5\n      0xffffffff\n      and\n      0xe0\n      shl\n      dup2\n      mstore\n      0x04\n      add\n      tag_138\n      swap4\n      swap3\n      swap2\n      swap1\n      tag_90\n      jump\t// in\n    tag_138:\n      0x20\n      mload(0x40)\n      dup1\n      dup4\n      sub\n      dup2\n      0x00\n      dup8\n      gas\n      call\n      iszero\n      dup1\n      iszero\n      tag_140\n      jumpi\n      returndatasize\n      0x00\n      dup1\n      returndatacopy\n      revert(0x00, returndatasize)\n    tag_140:\n      pop\n      pop\n      pop\n      pop\n      mload(0x40)\n      returndatasize\n      not(0x1f)\n      0x1f\n      dup3\n      add\n      and\n      dup3\n      add\n      dup1\n      0x40\n      mstore\n      pop\n      dup2\n      add\n      swap1\n      tag_141\n      swap2\n      swap1\n      tag_94\n      jump\t// in\n    tag_141:\n      pop\n        /* \"LOTERIA/loteria.sol\":4041:4047  uint i */\n      0x00\n        /* \"LOTERIA/loteria.sol\":4036:4764  for (uint i = 0; i < _numBoletos; i++) {... */\n    tag_142:\n        /* \"LOTERIA/loteria.sol\":4057:4068  _numBoletos */\n      dup3\n        /* \"LOTERIA/loteria.sol\":4053:4054  i */\n      dup2\n        /* \"LOTERIA/loteria.sol\":4053:4068  i < _numBoletos */\n      lt\n        /* \"LOTERIA/loteria.sol\":4036:4764  for (uint i = 0; i < _numBoletos; i++) {... */\n      iszero\n      tag_143\n      jumpi\n        /* \"LOTERIA/loteria.sol\":4229:4240  uint random */\n      0x00\n        /* \"LOTERIA/loteria.sol\":4319:4324  10000 */\n      0x2710\n        /* \"LOTERIA/loteria.sol\":4275:4290  block.timestamp */\n      timestamp\n        /* \"LOTERIA/loteria.sol\":4292:4302  msg.sender */\n      caller\n        /* \"LOTERIA/loteria.sol\":4304:4313  randNonce */\n      sload(0x07)\n        /* \"LOTERIA/loteria.sol\":4258:4314  abi.encodePacked(block.timestamp, msg.sender, randNonce) */\n      add(0x20, mload(0x40))\n      tag_145\n      swap4\n      swap3\n      swap2\n      swap1\n      tag_146\n      jump\t// in\n    tag_145:\n      mload(0x40)\n      0x20\n      dup2\n      dup4\n      sub\n      sub\n      dup2\n      mstore\n      swap1\n      0x40\n      mstore\n        /* \"LOTERIA/loteria.sol\":4248:4315  keccak256(abi.encodePacked(block.timestamp, msg.sender, randNonce)) */\n      dup1\n      mload\n      swap1\n      0x20\n      add\n      keccak256\n        /* \"LOTERIA/loteria.sol\":4243:4316  uint(keccak256(abi.encodePacked(block.timestamp, msg.sender, randNonce))) */\n      0x00\n      shr\n        /* \"LOTERIA/loteria.sol\":4243:4324  uint(keccak256(abi.encodePacked(block.timestamp, msg.sender, randNonce))) % 10000 */\n      tag_147\n      swap2\n      swap1\n      tag_81\n      jump\t// in\n    tag_147:\n        /* \"LOTERIA/loteria.sol\":4229:4324  uint random = uint(keccak256(abi.encodePacked(block.timestamp, msg.sender, randNonce))) % 10000 */\n      swap1\n      pop\n        /* \"LOTERIA/loteria.sol\":4339:4348  randNonce */\n      0x07\n      0x00\n        /* \"LOTERIA/loteria.sol\":4339:4350  randNonce++ */\n      dup2\n      sload\n      dup1\n      swap3\n      swap2\n      swap1\n      tag_148\n      swap1\n      tag_149\n      jump\t// in\n    tag_148:\n      swap2\n      swap1\n      pop\n      sstore\n      pop\n        /* \"LOTERIA/loteria.sol\":4418:4434  idPersonaBoletos */\n      0x05\n        /* \"LOTERIA/loteria.sol\":4418:4446  idPersonaBoletos[msg.sender] */\n      0x00\n        /* \"LOTERIA/loteria.sol\":4435:4445  msg.sender */\n      caller\n        /* \"LOTERIA/loteria.sol\":4418:4446  idPersonaBoletos[msg.sender] */\n      0xffffffffffffffffffffffffffffffffffffffff\n      and\n      0xffffffffffffffffffffffffffffffffffffffff\n      and\n      dup2\n      mstore\n      0x20\n      add\n      swap1\n      dup2\n      mstore\n      0x20\n      add\n      0x00\n      keccak256\n        /* \"LOTERIA/loteria.sol\":4452:4458  random */\n      dup2\n        /* \"LOTERIA/loteria.sol\":4418:4459  idPersonaBoletos[msg.sender].push(random) */\n      swap1\n      dup1\n      0x01\n      dup2\n      sload\n      add\n      dup1\n      dup3\n      sstore\n      dup1\n      swap2\n      pop\n      pop\n      0x01\n      swap1\n      sub\n      swap1\n      0x00\n      mstore\n      keccak256(0x00, 0x20)\n      add\n      0x00\n      swap1\n      swap2\n      swap1\n      swap2\n      swap1\n      swap2\n      pop\n      sstore\n        /* \"LOTERIA/loteria.sol\":4518:4534  boletosComprados */\n      0x08\n        /* \"LOTERIA/loteria.sol\":4540:4546  random */\n      dup2\n        /* \"LOTERIA/loteria.sol\":4518:4547  boletosComprados.push(random) */\n      swap1\n      dup1\n      0x01\n      dup2\n      sload\n      add\n      dup1\n      dup3\n      sstore\n      dup1\n      swap2\n      pop\n      pop\n      0x01\n      swap1\n      sub\n      swap1\n      0x00\n      mstore\n      keccak256(0x00, 0x20)\n      add\n      0x00\n      swap1\n      swap2\n      swap1\n      swap2\n      swap1\n      swap2\n      pop\n      sstore\n        /* \"LOTERIA/loteria.sol\":4651:4661  msg.sender */\n      caller\n        /* \"LOTERIA/loteria.sol\":4631:4640  adnBoleto */\n      0x06\n        /* \"LOTERIA/loteria.sol\":4631:4648  adnBoleto[random] */\n      0x00\n        /* \"LOTERIA/loteria.sol\":4641:4647  random */\n      dup4\n        /* \"LOTERIA/loteria.sol\":4631:4648  adnBoleto[random] */\n      dup2\n      mstore\n      0x20\n      add\n      swap1\n      dup2\n      mstore\n      0x20\n      add\n      0x00\n      keccak256\n      0x00\n        /* \"LOTERIA/loteria.sol\":4631:4661  adnBoleto[random] = msg.sender */\n      0x0100\n      exp\n      dup2\n      sload\n      dup2\n      0xffffffffffffffffffffffffffffffffffffffff\n      mul\n      not\n      and\n      swap1\n      dup4\n      0xffffffffffffffffffffffffffffffffffffffff\n      and\n      mul\n      or\n      swap1\n      sstore\n      pop\n        /* \"LOTERIA/loteria.sol\":4718:4752  boletoComprado(random, msg.sender) */\n      0xc050fb32d57ba0cfd6bf3bf1cc039866094f4506ec6d20be323decd380f86434\n        /* \"LOTERIA/loteria.sol\":4733:4739  random */\n      dup2\n        /* \"LOTERIA/loteria.sol\":4741:4751  msg.sender */\n      caller\n        /* \"LOTERIA/loteria.sol\":4718:4752  boletoComprado(random, msg.sender) */\n      mload(0x40)\n      tag_152\n      swap3\n      swap2\n      swap1\n      tag_87\n      jump\t// in\n    tag_152:\n      mload(0x40)\n      dup1\n      swap2\n      sub\n      swap1\n      log1\n        /* \"LOTERIA/loteria.sol\":4075:4764  {... */\n      pop\n        /* \"LOTERIA/loteria.sol\":4070:4073  i++ */\n      dup1\n      dup1\n      tag_153\n      swap1\n      tag_149\n      jump\t// in\n    tag_153:\n      swap2\n      pop\n      pop\n        /* \"LOTERIA/loteria.sol\":4036:4764  for (uint i = 0; i < _numBoletos; i++) {... */\n      jump(tag_142)\n    tag_143:\n      pop\n        /* \"LOTERIA/loteria.sol\":3281:4771  {... */\n      pop\n        /* \"LOTERIA/loteria.sol\":3232:4771  function comprarBoleto(uint _numBoletos) public  {... */\n      pop\n      jump\t// out\n        /* \"LOTERIA/loteria.sol\":211:231  address public owner */\n    tag_47:\n      0x01\n      0x00\n      swap1\n      sload\n      swap1\n      0x0100\n      exp\n      swap1\n      div\n      0xffffffffffffffffffffffffffffffffffffffff\n      and\n      dup2\n      jump\t// out\n        /* \"LOTERIA/loteria.sol\":1201:2056  function compraTokens(uint _numTokens) public payable {... */\n    tag_52:\n        /* \"LOTERIA/loteria.sol\":1310:1320  uint coste */\n      0x00\n        /* \"LOTERIA/loteria.sol\":1323:1347  precioTokens(_numTokens) */\n      tag_155\n        /* \"LOTERIA/loteria.sol\":1336:1346  _numTokens */\n      dup3\n        /* \"LOTERIA/loteria.sol\":1323:1335  precioTokens */\n      tag_114\n        /* \"LOTERIA/loteria.sol\":1323:1347  precioTokens(_numTokens) */\n      jump\t// in\n    tag_155:\n        /* \"LOTERIA/loteria.sol\":1310:1347  uint coste = precioTokens(_numTokens) */\n      swap1\n      pop\n        /* \"LOTERIA/loteria.sol\":1375:1384  msg.value */\n      callvalue\n        /* \"LOTERIA/loteria.sol\":1366:1371  coste */\n      dup2\n        /* \"LOTERIA/loteria.sol\":1366:1384  coste <= msg.value */\n      gt\n      iszero\n        /* \"LOTERIA/loteria.sol\":1358:1430  require(coste <= msg.value, \"Compra menos Tokens o paga con mas Ethers\") */\n      tag_156\n      jumpi\n      mload(0x40)\n      0x08c379a000000000000000000000000000000000000000000000000000000000\n      dup2\n      mstore\n      0x04\n      add\n      tag_157\n      swap1\n      tag_158\n      jump\t// in\n    tag_157:\n      mload(0x40)\n      dup1\n      swap2\n      sub\n      swap1\n      revert\n    tag_156:\n        /* \"LOTERIA/loteria.sol\":1509:1525  uint returnValue */\n      0x00\n        /* \"LOTERIA/loteria.sol\":1540:1545  coste */\n      dup2\n        /* \"LOTERIA/loteria.sol\":1528:1537  msg.value */\n      callvalue\n        /* \"LOTERIA/loteria.sol\":1528:1545  msg.value - coste */\n      tag_159\n      swap2\n      swap1\n      tag_160\n      jump\t// in\n    tag_159:\n        /* \"LOTERIA/loteria.sol\":1509:1545  uint returnValue = msg.value - coste */\n      swap1\n      pop\n        /* \"LOTERIA/loteria.sol\":1564:1574  msg.sender */\n      caller\n        /* \"LOTERIA/loteria.sol\":1556:1584  payable(msg.sender).transfer */\n      0xffffffffffffffffffffffffffffffffffffffff\n      and\n        /* \"LOTERIA/loteria.sol\":1556:1597  payable(msg.sender).transfer(returnValue) */\n      0x08fc\n        /* \"LOTERIA/loteria.sol\":1585:1596  returnValue */\n      dup3\n        /* \"LOTERIA/loteria.sol\":1556:1597  payable(msg.sender).transfer(returnValue) */\n      swap1\n      dup2\n      iszero\n      mul\n      swap1\n      mload(0x40)\n      0x00\n      mload(0x40)\n      dup1\n      dup4\n      sub\n      dup2\n      dup6\n      dup9\n      dup9\n      call\n      swap4\n      pop\n      pop\n      pop\n      pop\n      iszero\n      dup1\n      iszero\n      tag_162\n      jumpi\n      returndatasize\n      0x00\n      dup1\n      returndatacopy\n      revert(0x00, returndatasize)\n    tag_162:\n      pop\n        /* \"LOTERIA/loteria.sol\":1652:1664  uint balance */\n      0x00\n        /* \"LOTERIA/loteria.sol\":1667:1686  tokensDisponibles() */\n      tag_163\n        /* \"LOTERIA/loteria.sol\":1667:1684  tokensDisponibles */\n      tag_39\n        /* \"LOTERIA/loteria.sol\":1667:1686  tokensDisponibles() */\n      jump\t// in\n    tag_163:\n        /* \"LOTERIA/loteria.sol\":1652:1686  uint balance = tokensDisponibles() */\n      swap1\n      pop\n        /* \"LOTERIA/loteria.sol\":1799:1806  balance */\n      dup1\n        /* \"LOTERIA/loteria.sol\":1785:1795  _numTokens */\n      dup5\n        /* \"LOTERIA/loteria.sol\":1785:1806  _numTokens <= balance */\n      gt\n      iszero\n        /* \"LOTERIA/loteria.sol\":1777:1846  require(_numTokens <= balance, \"Compra un numero de tokens adecuado\") */\n      tag_164\n      jumpi\n      mload(0x40)\n      0x08c379a000000000000000000000000000000000000000000000000000000000\n      dup2\n      mstore\n      0x04\n      add\n      tag_165\n      swap1\n      tag_166\n      jump\t// in\n    tag_165:\n      mload(0x40)\n      dup1\n      swap2\n      sub\n      swap1\n      revert\n    tag_164:\n        /* \"LOTERIA/loteria.sol\":1906:1911  token */\n      0x00\n      dup1\n      sload\n      swap1\n      0x0100\n      exp\n      swap1\n      div\n      0xffffffffffffffffffffffffffffffffffffffff\n      and\n        /* \"LOTERIA/loteria.sol\":1906:1920  token.transfer */\n      0xffffffffffffffffffffffffffffffffffffffff\n      and\n      0xa9059cbb\n        /* \"LOTERIA/loteria.sol\":1921:1931  msg.sender */\n      caller\n        /* \"LOTERIA/loteria.sol\":1933:1943  _numTokens */\n      dup7\n        /* \"LOTERIA/loteria.sol\":1906:1944  token.transfer(msg.sender, _numTokens) */\n      mload(0x40)\n      dup4\n      0xffffffff\n      and\n      0xe0\n      shl\n      dup2\n      mstore\n      0x04\n      add\n      tag_167\n      swap3\n      swap2\n      swap1\n      tag_168\n      jump\t// in\n    tag_167:\n      0x20\n      mload(0x40)\n      dup1\n      dup4\n      sub\n      dup2\n      0x00\n      dup8\n      gas\n      call\n      iszero\n      dup1\n      iszero\n      tag_170\n      jumpi\n      returndatasize\n      0x00\n      dup1\n      returndatacopy\n      revert(0x00, returndatasize)\n    tag_170:\n      pop\n      pop\n      pop\n      pop\n      mload(0x40)\n      returndatasize\n      not(0x1f)\n      0x1f\n      dup3\n      add\n      and\n      dup3\n      add\n      dup1\n      0x40\n      mstore\n      pop\n      dup2\n      add\n      swap1\n      tag_171\n      swap2\n      swap1\n      tag_94\n      jump\t// in\n    tag_171:\n      pop\n        /* \"LOTERIA/loteria.sol\":2009:2048  comprandoTokens(_numTokens, msg.sender) */\n      0xd4321bcee18ff277071c0da811f0aa05f00127696b4d8077e37f5f5891f43950\n        /* \"LOTERIA/loteria.sol\":2025:2035  _numTokens */\n      dup5\n        /* \"LOTERIA/loteria.sol\":2037:2047  msg.sender */\n      caller\n        /* \"LOTERIA/loteria.sol\":2009:2048  comprandoTokens(_numTokens, msg.sender) */\n      mload(0x40)\n      tag_172\n      swap3\n      swap2\n      swap1\n      tag_87\n      jump\t// in\n    tag_172:\n      mload(0x40)\n      dup1\n      swap2\n      sub\n      swap1\n      log1\n        /* \"LOTERIA/loteria.sol\":1255:2056  {... */\n      pop\n      pop\n      pop\n        /* \"LOTERIA/loteria.sol\":1201:2056  function compraTokens(uint _numTokens) public payable {... */\n      pop\n      jump\t// out\n        /* \"LOTERIA/loteria.sol\":238:261  address public contrato */\n    tag_55:\n      0x02\n      0x00\n      swap1\n      sload\n      swap1\n      0x0100\n      exp\n      swap1\n      div\n      0xffffffffffffffffffffffffffffffffffffffff\n      and\n      dup2\n      jump\t// out\n        /* \"LOTERIA/loteria.sol\":2290:2380  function bote() public view returns(uint) {... */\n    tag_59:\n        /* \"LOTERIA/loteria.sol\":2326:2330  uint */\n      0x00\n        /* \"LOTERIA/loteria.sol\":2350:2355  token */\n      dup1\n      0x00\n      swap1\n      sload\n      swap1\n      0x0100\n      exp\n      swap1\n      div\n      0xffffffffffffffffffffffffffffffffffffffff\n      and\n        /* \"LOTERIA/loteria.sol\":2350:2365  token.balanceOf */\n      0xffffffffffffffffffffffffffffffffffffffff\n      and\n      0x70a08231\n        /* \"LOTERIA/loteria.sol\":2366:2371  owner */\n      0x01\n      0x00\n      swap1\n      sload\n      swap1\n      0x0100\n      exp\n      swap1\n      div\n      0xffffffffffffffffffffffffffffffffffffffff\n      and\n        /* \"LOTERIA/loteria.sol\":2350:2372  token.balanceOf(owner) */\n      mload(0x40)\n      dup3\n      0xffffffff\n      and\n      0xe0\n      shl\n      dup2\n      mstore\n      0x04\n      add\n      tag_174\n      swap2\n      swap1\n      tag_49\n      jump\t// in\n    tag_174:\n      0x20\n      mload(0x40)\n      dup1\n      dup4\n      sub\n      dup2\n      dup7\n      gas\n      staticcall\n      iszero\n      dup1\n      iszero\n      tag_176\n      jumpi\n      returndatasize\n      0x00\n      dup1\n      returndatacopy\n      revert(0x00, returndatasize)\n    tag_176:\n      pop\n      pop\n      pop\n      pop\n      mload(0x40)\n      returndatasize\n      not(0x1f)\n      0x1f\n      dup3\n      add\n      and\n      dup3\n      add\n      dup1\n      0x40\n      mstore\n      pop\n      dup2\n      add\n      swap1\n      tag_177\n      swap2\n      swap1\n      tag_100\n      jump\t// in\n    tag_177:\n        /* \"LOTERIA/loteria.sol\":2343:2372  return token.balanceOf(owner) */\n      swap1\n      pop\n        /* \"LOTERIA/loteria.sol\":2290:2380  function bote() public view returns(uint) {... */\n      swap1\n      jump\t// out\n        /* \"LOTERIA/loteria.sol\":2610:2638  uint public precioBoleto = 5 */\n    tag_63:\n      sload(0x04)\n      dup2\n      jump\t// out\n        /* \"LOTERIA/loteria.sol\":4835:4946  function misBoletos() public view returns(uint[] memory) {... */\n    tag_67:\n        /* \"LOTERIA/loteria.sol\":4877:4890  uint[] memory */\n      0x60\n        /* \"LOTERIA/loteria.sol\":4910:4926  idPersonaBoletos */\n      0x05\n        /* \"LOTERIA/loteria.sol\":4910:4938  idPersonaBoletos[msg.sender] */\n      0x00\n        /* \"LOTERIA/loteria.sol\":4927:4937  msg.sender */\n      caller\n        /* \"LOTERIA/loteria.sol\":4910:4938  idPersonaBoletos[msg.sender] */\n      0xffffffffffffffffffffffffffffffffffffffff\n      and\n      0xffffffffffffffffffffffffffffffffffffffff\n      and\n      dup2\n      mstore\n      0x20\n      add\n      swap1\n      dup2\n      mstore\n      0x20\n      add\n      0x00\n      keccak256\n        /* \"LOTERIA/loteria.sol\":4903:4938  return idPersonaBoletos[msg.sender] */\n      dup1\n      sload\n      dup1\n      0x20\n      mul\n      0x20\n      add\n      mload(0x40)\n      swap1\n      dup2\n      add\n      0x40\n      mstore\n      dup1\n      swap3\n      swap2\n      swap1\n      dup2\n      dup2\n      mstore\n      0x20\n      add\n      dup3\n      dup1\n      sload\n      dup1\n      iszero\n      tag_179\n      jumpi\n      0x20\n      mul\n      dup3\n      add\n      swap2\n      swap1\n      0x00\n      mstore\n      keccak256(0x00, 0x20)\n      swap1\n    tag_180:\n      dup2\n      sload\n      dup2\n      mstore\n      0x20\n      add\n      swap1\n      0x01\n      add\n      swap1\n      dup1\n      dup4\n      gt\n      tag_180\n      jumpi\n    tag_179:\n      pop\n      pop\n      pop\n      pop\n      pop\n      swap1\n      pop\n        /* \"LOTERIA/loteria.sol\":4835:4946  function misBoletos() public view returns(uint[] memory) {... */\n      swap1\n      jump\t// out\n        /* \"LOTERIA/loteria.sol\":601:715  function precioTokens(uint _numTokens) internal pure returns (uint) {... */\n    tag_114:\n        /* \"LOTERIA/loteria.sol\":663:667  uint */\n      0x00\n        /* \"LOTERIA/loteria.sol\":699:706  1 ether */\n      0x0de0b6b3a7640000\n        /* \"LOTERIA/loteria.sol\":687:697  _numTokens */\n      dup3\n        /* \"LOTERIA/loteria.sol\":687:707  _numTokens*(1 ether) */\n      tag_182\n      swap2\n      swap1\n      tag_133\n      jump\t// in\n    tag_182:\n        /* \"LOTERIA/loteria.sol\":680:707  return _numTokens*(1 ether) */\n      swap1\n      pop\n        /* \"LOTERIA/loteria.sol\":601:715  function precioTokens(uint _numTokens) internal pure returns (uint) {... */\n      swap2\n      swap1\n      pop\n      jump\t// out\n        /* \"#utility.yul\":7:84   */\n    tag_183:\n        /* \"#utility.yul\":44:51   */\n      0x00\n        /* \"#utility.yul\":73:78   */\n      dup2\n        /* \"#utility.yul\":62:78   */\n      swap1\n      pop\n        /* \"#utility.yul\":7:84   */\n      swap2\n      swap1\n      pop\n      jump\t// out\n        /* \"#utility.yul\":90:208   */\n    tag_184:\n        /* \"#utility.yul\":177:201   */\n      tag_230\n        /* \"#utility.yul\":195:200   */\n      dup2\n        /* \"#utility.yul\":177:201   */\n      tag_183\n      jump\t// in\n    tag_230:\n        /* \"#utility.yul\":172:175   */\n      dup3\n        /* \"#utility.yul\":165:202   */\n      mstore\n        /* \"#utility.yul\":90:208   */\n      pop\n      pop\n      jump\t// out\n        /* \"#utility.yul\":214:436   */\n    tag_24:\n        /* \"#utility.yul\":307:311   */\n      0x00\n        /* \"#utility.yul\":345:347   */\n      0x20\n        /* \"#utility.yul\":334:343   */\n      dup3\n        /* \"#utility.yul\":330:348   */\n      add\n        /* \"#utility.yul\":322:348   */\n      swap1\n      pop\n        /* \"#utility.yul\":358:429   */\n      tag_232\n        /* \"#utility.yul\":426:427   */\n      0x00\n        /* \"#utility.yul\":415:424   */\n      dup4\n        /* \"#utility.yul\":411:428   */\n      add\n        /* \"#utility.yul\":402:408   */\n      dup5\n        /* \"#utility.yul\":358:429   */\n      tag_184\n      jump\t// in\n    tag_232:\n        /* \"#utility.yul\":214:436   */\n      swap3\n      swap2\n      pop\n      pop\n      jump\t// out\n        /* \"#utility.yul\":523:640   */\n    tag_186:\n        /* \"#utility.yul\":632:633   */\n      0x00\n        /* \"#utility.yul\":629:630   */\n      dup1\n        /* \"#utility.yul\":622:634   */\n      revert\n        /* \"#utility.yul\":769:891   */\n    tag_188:\n        /* \"#utility.yul\":842:866   */\n      tag_237\n        /* \"#utility.yul\":860:865   */\n      dup2\n        /* \"#utility.yul\":842:866   */\n      tag_183\n      jump\t// in\n    tag_237:\n        /* \"#utility.yul\":835:840   */\n      dup2\n        /* \"#utility.yul\":832:867   */\n      eq\n        /* \"#utility.yul\":822:885   */\n      tag_238\n      jumpi\n        /* \"#utility.yul\":881:882   */\n      0x00\n        /* \"#utility.yul\":878:879   */\n      dup1\n        /* \"#utility.yul\":871:883   */\n      revert\n        /* \"#utility.yul\":822:885   */\n    tag_238:\n        /* \"#utility.yul\":769:891   */\n      pop\n      jump\t// out\n        /* \"#utility.yul\":897:1036   */\n    tag_189:\n        /* \"#utility.yul\":943:948   */\n      0x00\n        /* \"#utility.yul\":981:987   */\n      dup2\n        /* \"#utility.yul\":968:988   */\n      calldataload\n        /* \"#utility.yul\":959:988   */\n      swap1\n      pop\n        /* \"#utility.yul\":997:1030   */\n      tag_240\n        /* \"#utility.yul\":1024:1029   */\n      dup2\n        /* \"#utility.yul\":997:1030   */\n      tag_188\n      jump\t// in\n    tag_240:\n        /* \"#utility.yul\":897:1036   */\n      swap3\n      swap2\n      pop\n      pop\n      jump\t// out\n        /* \"#utility.yul\":1042:1371   */\n    tag_31:\n        /* \"#utility.yul\":1101:1107   */\n      0x00\n        /* \"#utility.yul\":1150:1152   */\n      0x20\n        /* \"#utility.yul\":1138:1147   */\n      dup3\n        /* \"#utility.yul\":1129:1136   */\n      dup5\n        /* \"#utility.yul\":1125:1148   */\n      sub\n        /* \"#utility.yul\":1121:1153   */\n      slt\n        /* \"#utility.yul\":1118:1237   */\n      iszero\n      tag_242\n      jumpi\n        /* \"#utility.yul\":1156:1235   */\n      tag_243\n      tag_186\n      jump\t// in\n    tag_243:\n        /* \"#utility.yul\":1118:1237   */\n    tag_242:\n        /* \"#utility.yul\":1276:1277   */\n      0x00\n        /* \"#utility.yul\":1301:1354   */\n      tag_244\n        /* \"#utility.yul\":1346:1353   */\n      dup5\n        /* \"#utility.yul\":1337:1343   */\n      dup3\n        /* \"#utility.yul\":1326:1335   */\n      dup6\n        /* \"#utility.yul\":1322:1344   */\n      add\n        /* \"#utility.yul\":1301:1354   */\n      tag_189\n      jump\t// in\n    tag_244:\n        /* \"#utility.yul\":1291:1354   */\n      swap2\n      pop\n        /* \"#utility.yul\":1247:1364   */\n      pop\n        /* \"#utility.yul\":1042:1371   */\n      swap3\n      swap2\n      pop\n      pop\n      jump\t// out\n        /* \"#utility.yul\":1377:1503   */\n    tag_190:\n        /* \"#utility.yul\":1414:1421   */\n      0x00\n        /* \"#utility.yul\":1454:1496   */\n      0xffffffffffffffffffffffffffffffffffffffff\n        /* \"#utility.yul\":1447:1452   */\n      dup3\n        /* \"#utility.yul\":1443:1497   */\n      and\n        /* \"#utility.yul\":1432:1497   */\n      swap1\n      pop\n        /* \"#utility.yul\":1377:1503   */\n      swap2\n      swap1\n      pop\n      jump\t// out\n        /* \"#utility.yul\":1509:1605   */\n    tag_191:\n        /* \"#utility.yul\":1546:1553   */\n      0x00\n        /* \"#utility.yul\":1575:1599   */\n      tag_247\n        /* \"#utility.yul\":1593:1598   */\n      dup3\n        /* \"#utility.yul\":1575:1599   */\n      tag_190\n      jump\t// in\n    tag_247:\n        /* \"#utility.yul\":1564:1599   */\n      swap1\n      pop\n        /* \"#utility.yul\":1509:1605   */\n      swap2\n      swap1\n      pop\n      jump\t// out\n        /* \"#utility.yul\":1611:1729   */\n    tag_192:\n        /* \"#utility.yul\":1698:1722   */\n      tag_249\n        /* \"#utility.yul\":1716:1721   */\n      dup2\n        /* \"#utility.yul\":1698:1722   */\n      tag_191\n      jump\t// in\n    tag_249:\n        /* \"#utility.yul\":1693:1696   */\n      dup3\n        /* \"#utility.yul\":1686:1723   */\n      mstore\n        /* \"#utility.yul\":1611:1729   */\n      pop\n      pop\n      jump\t// out\n        /* \"#utility.yul\":1735:1957   */\n    tag_49:\n        /* \"#utility.yul\":1828:1832   */\n      0x00\n        /* \"#utility.yul\":1866:1868   */\n      0x20\n        /* \"#utility.yul\":1855:1864   */\n      dup3\n        /* \"#utility.yul\":1851:1869   */\n      add\n        /* \"#utility.yul\":1843:1869   */\n      swap1\n      pop\n        /* \"#utility.yul\":1879:1950   */\n      tag_251\n        /* \"#utility.yul\":1947:1948   */\n      0x00\n        /* \"#utility.yul\":1936:1945   */\n      dup4\n        /* \"#utility.yul\":1932:1949   */\n      add\n        /* \"#utility.yul\":1923:1929   */\n      dup5\n        /* \"#utility.yul\":1879:1950   */\n      tag_192\n      jump\t// in\n    tag_251:\n        /* \"#utility.yul\":1735:1957   */\n      swap3\n      swap2\n      pop\n      pop\n      jump\t// out\n        /* \"#utility.yul\":1963:2077   */\n    tag_193:\n        /* \"#utility.yul\":2030:2036   */\n      0x00\n        /* \"#utility.yul\":2064:2069   */\n      dup2\n        /* \"#utility.yul\":2058:2070   */\n      mload\n        /* \"#utility.yul\":2048:2070   */\n      swap1\n      pop\n        /* \"#utility.yul\":1963:2077   */\n      swap2\n      swap1\n      pop\n      jump\t// out\n        /* \"#utility.yul\":2083:2267   */\n    tag_194:\n        /* \"#utility.yul\":2182:2193   */\n      0x00\n        /* \"#utility.yul\":2216:2222   */\n      dup3\n        /* \"#utility.yul\":2211:2214   */\n      dup3\n        /* \"#utility.yul\":2204:2223   */\n      mstore\n        /* \"#utility.yul\":2256:2260   */\n      0x20\n        /* \"#utility.yul\":2251:2254   */\n      dup3\n        /* \"#utility.yul\":2247:2261   */\n      add\n        /* \"#utility.yul\":2232:2261   */\n      swap1\n      pop\n        /* \"#utility.yul\":2083:2267   */\n      swap3\n      swap2\n      pop\n      pop\n      jump\t// out\n        /* \"#utility.yul\":2273:2405   */\n    tag_195:\n        /* \"#utility.yul\":2340:2344   */\n      0x00\n        /* \"#utility.yul\":2363:2366   */\n      dup2\n        /* \"#utility.yul\":2355:2366   */\n      swap1\n      pop\n        /* \"#utility.yul\":2393:2397   */\n      0x20\n        /* \"#utility.yul\":2388:2391   */\n      dup3\n        /* \"#utility.yul\":2384:2398   */\n      add\n        /* \"#utility.yul\":2376:2398   */\n      swap1\n      pop\n        /* \"#utility.yul\":2273:2405   */\n      swap2\n      swap1\n      pop\n      jump\t// out\n        /* \"#utility.yul\":2411:2519   */\n    tag_196:\n        /* \"#utility.yul\":2488:2512   */\n      tag_256\n        /* \"#utility.yul\":2506:2511   */\n      dup2\n        /* \"#utility.yul\":2488:2512   */\n      tag_183\n      jump\t// in\n    tag_256:\n        /* \"#utility.yul\":2483:2486   */\n      dup3\n        /* \"#utility.yul\":2476:2513   */\n      mstore\n        /* \"#utility.yul\":2411:2519   */\n      pop\n      pop\n      jump\t// out\n        /* \"#utility.yul\":2525:2704   */\n    tag_197:\n        /* \"#utility.yul\":2594:2604   */\n      0x00\n        /* \"#utility.yul\":2615:2661   */\n      tag_258\n        /* \"#utility.yul\":2657:2660   */\n      dup4\n        /* \"#utility.yul\":2649:2655   */\n      dup4\n        /* \"#utility.yul\":2615:2661   */\n      tag_196\n      jump\t// in\n    tag_258:\n        /* \"#utility.yul\":2693:2697   */\n      0x20\n        /* \"#utility.yul\":2688:2691   */\n      dup4\n        /* \"#utility.yul\":2684:2698   */\n      add\n        /* \"#utility.yul\":2670:2698   */\n      swap1\n      pop\n        /* \"#utility.yul\":2525:2704   */\n      swap3\n      swap2\n      pop\n      pop\n      jump\t// out\n        /* \"#utility.yul\":2710:2823   */\n    tag_198:\n        /* \"#utility.yul\":2780:2784   */\n      0x00\n        /* \"#utility.yul\":2812:2816   */\n      0x20\n        /* \"#utility.yul\":2807:2810   */\n      dup3\n        /* \"#utility.yul\":2803:2817   */\n      add\n        /* \"#utility.yul\":2795:2817   */\n      swap1\n      pop\n        /* \"#utility.yul\":2710:2823   */\n      swap2\n      swap1\n      pop\n      jump\t// out\n        /* \"#utility.yul\":2859:3591   */\n    tag_199:\n        /* \"#utility.yul\":2978:2981   */\n      0x00\n        /* \"#utility.yul\":3007:3061   */\n      tag_261\n        /* \"#utility.yul\":3055:3060   */\n      dup3\n        /* \"#utility.yul\":3007:3061   */\n      tag_193\n      jump\t// in\n    tag_261:\n        /* \"#utility.yul\":3077:3163   */\n      tag_262\n        /* \"#utility.yul\":3156:3162   */\n      dup2\n        /* \"#utility.yul\":3151:3154   */\n      dup6\n        /* \"#utility.yul\":3077:3163   */\n      tag_194\n      jump\t// in\n    tag_262:\n        /* \"#utility.yul\":3070:3163   */\n      swap4\n      pop\n        /* \"#utility.yul\":3187:3243   */\n      tag_263\n        /* \"#utility.yul\":3237:3242   */\n      dup4\n        /* \"#utility.yul\":3187:3243   */\n      tag_195\n      jump\t// in\n    tag_263:\n        /* \"#utility.yul\":3266:3273   */\n      dup1\n        /* \"#utility.yul\":3297:3298   */\n      0x00\n        /* \"#utility.yul\":3282:3566   */\n    tag_264:\n        /* \"#utility.yul\":3307:3313   */\n      dup4\n        /* \"#utility.yul\":3304:3305   */\n      dup2\n        /* \"#utility.yul\":3301:3314   */\n      lt\n        /* \"#utility.yul\":3282:3566   */\n      iszero\n      tag_266\n      jumpi\n        /* \"#utility.yul\":3383:3389   */\n      dup2\n        /* \"#utility.yul\":3377:3390   */\n      mload\n        /* \"#utility.yul\":3410:3473   */\n      tag_267\n        /* \"#utility.yul\":3469:3472   */\n      dup9\n        /* \"#utility.yul\":3454:3467   */\n      dup3\n        /* \"#utility.yul\":3410:3473   */\n      tag_197\n      jump\t// in\n    tag_267:\n        /* \"#utility.yul\":3403:3473   */\n      swap8\n      pop\n        /* \"#utility.yul\":3496:3556   */\n      tag_268\n        /* \"#utility.yul\":3549:3555   */\n      dup4\n        /* \"#utility.yul\":3496:3556   */\n      tag_198\n      jump\t// in\n    tag_268:\n        /* \"#utility.yul\":3486:3556   */\n      swap3\n      pop\n        /* \"#utility.yul\":3342:3566   */\n      pop\n        /* \"#utility.yul\":3329:3330   */\n      0x01\n        /* \"#utility.yul\":3326:3327   */\n      dup2\n        /* \"#utility.yul\":3322:3331   */\n      add\n        /* \"#utility.yul\":3317:3331   */\n      swap1\n      pop\n        /* \"#utility.yul\":3282:3566   */\n      jump(tag_264)\n    tag_266:\n        /* \"#utility.yul\":3286:3300   */\n      pop\n        /* \"#utility.yul\":3582:3585   */\n      dup6\n        /* \"#utility.yul\":3575:3585   */\n      swap4\n      pop\n        /* \"#utility.yul\":2983:3591   */\n      pop\n      pop\n      pop\n        /* \"#utility.yul\":2859:3591   */\n      swap3\n      swap2\n      pop\n      pop\n      jump\t// out\n        /* \"#utility.yul\":3597:3970   */\n    tag_69:\n        /* \"#utility.yul\":3740:3744   */\n      0x00\n        /* \"#utility.yul\":3778:3780   */\n      0x20\n        /* \"#utility.yul\":3767:3776   */\n      dup3\n        /* \"#utility.yul\":3763:3781   */\n      add\n        /* \"#utility.yul\":3755:3781   */\n      swap1\n      pop\n        /* \"#utility.yul\":3827:3836   */\n      dup2\n        /* \"#utility.yul\":3821:3825   */\n      dup2\n        /* \"#utility.yul\":3817:3837   */\n      sub\n        /* \"#utility.yul\":3813:3814   */\n      0x00\n        /* \"#utility.yul\":3802:3811   */\n      dup4\n        /* \"#utility.yul\":3798:3815   */\n      add\n        /* \"#utility.yul\":3791:3838   */\n      mstore\n        /* \"#utility.yul\":3855:3963   */\n      tag_270\n        /* \"#utility.yul\":3958:3962   */\n      dup2\n        /* \"#utility.yul\":3949:3955   */\n      dup5\n        /* \"#utility.yul\":3855:3963   */\n      tag_199\n      jump\t// in\n    tag_270:\n        /* \"#utility.yul\":3847:3963   */\n      swap1\n      pop\n        /* \"#utility.yul\":3597:3970   */\n      swap3\n      swap2\n      pop\n      pop\n      jump\t// out\n        /* \"#utility.yul\":3976:4145   */\n    tag_200:\n        /* \"#utility.yul\":4060:4071   */\n      0x00\n        /* \"#utility.yul\":4094:4100   */\n      dup3\n        /* \"#utility.yul\":4089:4092   */\n      dup3\n        /* \"#utility.yul\":4082:4101   */\n      mstore\n        /* \"#utility.yul\":4134:4138   */\n      0x20\n        /* \"#utility.yul\":4129:4132   */\n      dup3\n        /* \"#utility.yul\":4125:4139   */\n      add\n        /* \"#utility.yul\":4110:4139   */\n      swap1\n      pop\n        /* \"#utility.yul\":3976:4145   */\n      swap3\n      swap2\n      pop\n      pop\n      jump\t// out\n        /* \"#utility.yul\":4151:4383   */\n    tag_201:\n        /* \"#utility.yul\":4291:4325   */\n      0x4e6f207469656e6573207065726d69736f73207061726120656a656375746172\n        /* \"#utility.yul\":4287:4288   */\n      0x00\n        /* \"#utility.yul\":4279:4285   */\n      dup3\n        /* \"#utility.yul\":4275:4289   */\n      add\n        /* \"#utility.yul\":4268:4326   */\n      mstore\n        /* \"#utility.yul\":4360:4375   */\n      0x20657374612066756e63696f6e00000000000000000000000000000000000000\n        /* \"#utility.yul\":4355:4357   */\n      0x20\n        /* \"#utility.yul\":4347:4353   */\n      dup3\n        /* \"#utility.yul\":4343:4358   */\n      add\n        /* \"#utility.yul\":4336:4376   */\n      mstore\n        /* \"#utility.yul\":4151:4383   */\n      pop\n      jump\t// out\n        /* \"#utility.yul\":4389:4755   */\n    tag_202:\n        /* \"#utility.yul\":4531:4534   */\n      0x00\n        /* \"#utility.yul\":4552:4619   */\n      tag_274\n        /* \"#utility.yul\":4616:4618   */\n      0x2d\n        /* \"#utility.yul\":4611:4614   */\n      dup4\n        /* \"#utility.yul\":4552:4619   */\n      tag_200\n      jump\t// in\n    tag_274:\n        /* \"#utility.yul\":4545:4619   */\n      swap2\n      pop\n        /* \"#utility.yul\":4628:4721   */\n      tag_275\n        /* \"#utility.yul\":4717:4720   */\n      dup3\n        /* \"#utility.yul\":4628:4721   */\n      tag_201\n      jump\t// in\n    tag_275:\n        /* \"#utility.yul\":4746:4748   */\n      0x40\n        /* \"#utility.yul\":4741:4744   */\n      dup3\n        /* \"#utility.yul\":4737:4749   */\n      add\n        /* \"#utility.yul\":4730:4749   */\n      swap1\n      pop\n        /* \"#utility.yul\":4389:4755   */\n      swap2\n      swap1\n      pop\n      jump\t// out\n        /* \"#utility.yul\":4761:5180   */\n    tag_73:\n        /* \"#utility.yul\":4927:4931   */\n      0x00\n        /* \"#utility.yul\":4965:4967   */\n      0x20\n        /* \"#utility.yul\":4954:4963   */\n      dup3\n        /* \"#utility.yul\":4950:4968   */\n      add\n        /* \"#utility.yul\":4942:4968   */\n      swap1\n      pop\n        /* \"#utility.yul\":5014:5023   */\n      dup2\n        /* \"#utility.yul\":5008:5012   */\n      dup2\n        /* \"#utility.yul\":5004:5024   */\n      sub\n        /* \"#utility.yul\":5000:5001   */\n      0x00\n        /* \"#utility.yul\":4989:4998   */\n      dup4\n        /* \"#utility.yul\":4985:5002   */\n      add\n        /* \"#utility.yul\":4978:5025   */\n      mstore\n        /* \"#utility.yul\":5042:5173   */\n      tag_277\n        /* \"#utility.yul\":5168:5172   */\n      dup2\n        /* \"#utility.yul\":5042:5173   */\n      tag_202\n      jump\t// in\n    tag_277:\n        /* \"#utility.yul\":5034:5173   */\n      swap1\n      pop\n        /* \"#utility.yul\":4761:5180   */\n      swap2\n      swap1\n      pop\n      jump\t// out\n        /* \"#utility.yul\":5186:5360   */\n    tag_203:\n        /* \"#utility.yul\":5326:5352   */\n      0x4e6f2068617920626f6c65746f7320636f6d707261646f730000000000000000\n        /* \"#utility.yul\":5322:5323   */\n      0x00\n        /* \"#utility.yul\":5314:5320   */\n      dup3\n        /* \"#utility.yul\":5310:5324   */\n      add\n        /* \"#utility.yul\":5303:5353   */\n      mstore\n        /* \"#utility.yul\":5186:5360   */\n      pop\n      jump\t// out\n        /* \"#utility.yul\":5366:5732   */\n    tag_204:\n        /* \"#utility.yul\":5508:5511   */\n      0x00\n        /* \"#utility.yul\":5529:5596   */\n      tag_280\n        /* \"#utility.yul\":5593:5595   */\n      0x18\n        /* \"#utility.yul\":5588:5591   */\n      dup4\n        /* \"#utility.yul\":5529:5596   */\n      tag_200\n      jump\t// in\n    tag_280:\n        /* \"#utility.yul\":5522:5596   */\n      swap2\n      pop\n        /* \"#utility.yul\":5605:5698   */\n      tag_281\n        /* \"#utility.yul\":5694:5697   */\n      dup3\n        /* \"#utility.yul\":5605:5698   */\n      tag_203\n      jump\t// in\n    tag_281:\n        /* \"#utility.yul\":5723:5725   */\n      0x20\n        /* \"#utility.yul\":5718:5721   */\n      dup3\n        /* \"#utility.yul\":5714:5726   */\n      add\n        /* \"#utility.yul\":5707:5726   */\n      swap1\n      pop\n        /* \"#utility.yul\":5366:5732   */\n      swap2\n      swap1\n      pop\n      jump\t// out\n        /* \"#utility.yul\":5738:6157   */\n    tag_77:\n        /* \"#utility.yul\":5904:5908   */\n      0x00\n        /* \"#utility.yul\":5942:5944   */\n      0x20\n        /* \"#utility.yul\":5931:5940   */\n      dup3\n        /* \"#utility.yul\":5927:5945   */\n      add\n        /* \"#utility.yul\":5919:5945   */\n      swap1\n      pop\n        /* \"#utility.yul\":5991:6000   */\n      dup2\n        /* \"#utility.yul\":5985:5989   */\n      dup2\n        /* \"#utility.yul\":5981:6001   */\n      sub\n        /* \"#utility.yul\":5977:5978   */\n      0x00\n        /* \"#utility.yul\":5966:5975   */\n      dup4\n        /* \"#utility.yul\":5962:5979   */\n      add\n        /* \"#utility.yul\":5955:6002   */\n      mstore\n        /* \"#utility.yul\":6019:6150   */\n      tag_283\n        /* \"#utility.yul\":6145:6149   */\n      dup2\n        /* \"#utility.yul\":6019:6150   */\n      tag_204\n      jump\t// in\n    tag_283:\n        /* \"#utility.yul\":6011:6150   */\n      swap1\n      pop\n        /* \"#utility.yul\":5738:6157   */\n      swap2\n      swap1\n      pop\n      jump\t// out\n        /* \"#utility.yul\":6163:6242   */\n    tag_205:\n        /* \"#utility.yul\":6202:6209   */\n      0x00\n        /* \"#utility.yul\":6231:6236   */\n      dup2\n        /* \"#utility.yul\":6220:6236   */\n      swap1\n      pop\n        /* \"#utility.yul\":6163:6242   */\n      swap2\n      swap1\n      pop\n      jump\t// out\n        /* \"#utility.yul\":6248:6405   */\n    tag_206:\n        /* \"#utility.yul\":6353:6398   */\n      tag_286\n        /* \"#utility.yul\":6373:6397   */\n      tag_287\n        /* \"#utility.yul\":6391:6396   */\n      dup3\n        /* \"#utility.yul\":6373:6397   */\n      tag_183\n      jump\t// in\n    tag_287:\n        /* \"#utility.yul\":6353:6398   */\n      tag_205\n      jump\t// in\n    tag_286:\n        /* \"#utility.yul\":6348:6351   */\n      dup3\n        /* \"#utility.yul\":6341:6399   */\n      mstore\n        /* \"#utility.yul\":6248:6405   */\n      pop\n      pop\n      jump\t// out\n        /* \"#utility.yul\":6411:6667   */\n    tag_79:\n        /* \"#utility.yul\":6523:6526   */\n      0x00\n        /* \"#utility.yul\":6538:6613   */\n      tag_289\n        /* \"#utility.yul\":6609:6612   */\n      dup3\n        /* \"#utility.yul\":6600:6606   */\n      dup5\n        /* \"#utility.yul\":6538:6613   */\n      tag_206\n      jump\t// in\n    tag_289:\n        /* \"#utility.yul\":6638:6640   */\n      0x20\n        /* \"#utility.yul\":6633:6636   */\n      dup3\n        /* \"#utility.yul\":6629:6641   */\n      add\n        /* \"#utility.yul\":6622:6641   */\n      swap2\n      pop\n        /* \"#utility.yul\":6658:6661   */\n      dup2\n        /* \"#utility.yul\":6651:6661   */\n      swap1\n      pop\n        /* \"#utility.yul\":6411:6667   */\n      swap3\n      swap2\n      pop\n      pop\n      jump\t// out\n        /* \"#utility.yul\":6673:6853   */\n    tag_207:\n        /* \"#utility.yul\":6721:6798   */\n      0x4e487b7100000000000000000000000000000000000000000000000000000000\n        /* \"#utility.yul\":6718:6719   */\n      0x00\n        /* \"#utility.yul\":6711:6799   */\n      mstore\n        /* \"#utility.yul\":6818:6822   */\n      0x12\n        /* \"#utility.yul\":6815:6816   */\n      0x04\n        /* \"#utility.yul\":6808:6823   */\n      mstore\n        /* \"#utility.yul\":6842:6846   */\n      0x24\n        /* \"#utility.yul\":6839:6840   */\n      0x00\n        /* \"#utility.yul\":6832:6847   */\n      revert\n        /* \"#utility.yul\":6859:7035   */\n    tag_81:\n        /* \"#utility.yul\":6891:6892   */\n      0x00\n        /* \"#utility.yul\":6908:6928   */\n      tag_292\n        /* \"#utility.yul\":6926:6927   */\n      dup3\n        /* \"#utility.yul\":6908:6928   */\n      tag_183\n      jump\t// in\n    tag_292:\n        /* \"#utility.yul\":6903:6928   */\n      swap2\n      pop\n        /* \"#utility.yul\":6942:6962   */\n      tag_293\n        /* \"#utility.yul\":6960:6961   */\n      dup4\n        /* \"#utility.yul\":6942:6962   */\n      tag_183\n      jump\t// in\n    tag_293:\n        /* \"#utility.yul\":6937:6962   */\n      swap3\n      pop\n        /* \"#utility.yul\":6981:6982   */\n      dup3\n        /* \"#utility.yul\":6971:7006   */\n      tag_294\n      jumpi\n        /* \"#utility.yul\":6986:7004   */\n      tag_295\n      tag_207\n      jump\t// in\n    tag_295:\n        /* \"#utility.yul\":6971:7006   */\n    tag_294:\n        /* \"#utility.yul\":7027:7028   */\n      dup3\n        /* \"#utility.yul\":7024:7025   */\n      dup3\n        /* \"#utility.yul\":7020:7029   */\n      mod\n        /* \"#utility.yul\":7015:7029   */\n      swap1\n      pop\n        /* \"#utility.yul\":6859:7035   */\n      swap3\n      swap2\n      pop\n      pop\n      jump\t// out\n        /* \"#utility.yul\":7041:7221   */\n    tag_84:\n        /* \"#utility.yul\":7089:7166   */\n      0x4e487b7100000000000000000000000000000000000000000000000000000000\n        /* \"#utility.yul\":7086:7087   */\n      0x00\n        /* \"#utility.yul\":7079:7167   */\n      mstore\n        /* \"#utility.yul\":7186:7190   */\n      0x32\n        /* \"#utility.yul\":7183:7184   */\n      0x04\n        /* \"#utility.yul\":7176:7191   */\n      mstore\n        /* \"#utility.yul\":7210:7214   */\n      0x24\n        /* \"#utility.yul\":7207:7208   */\n      0x00\n        /* \"#utility.yul\":7200:7215   */\n      revert\n        /* \"#utility.yul\":7227:7559   */\n    tag_87:\n        /* \"#utility.yul\":7348:7352   */\n      0x00\n        /* \"#utility.yul\":7386:7388   */\n      0x40\n        /* \"#utility.yul\":7375:7384   */\n      dup3\n        /* \"#utility.yul\":7371:7389   */\n      add\n        /* \"#utility.yul\":7363:7389   */\n      swap1\n      pop\n        /* \"#utility.yul\":7399:7470   */\n      tag_298\n        /* \"#utility.yul\":7467:7468   */\n      0x00\n        /* \"#utility.yul\":7456:7465   */\n      dup4\n        /* \"#utility.yul\":7452:7469   */\n      add\n        /* \"#utility.yul\":7443:7449   */\n      dup6\n        /* \"#utility.yul\":7399:7470   */\n      tag_184\n      jump\t// in\n    tag_298:\n        /* \"#utility.yul\":7480:7552   */\n      tag_299\n        /* \"#utility.yul\":7548:7550   */\n      0x20\n        /* \"#utility.yul\":7537:7546   */\n      dup4\n        /* \"#utility.yul\":7533:7551   */\n      add\n        /* \"#utility.yul\":7524:7530   */\n      dup5\n        /* \"#utility.yul\":7480:7552   */\n      tag_192\n      jump\t// in\n    tag_299:\n        /* \"#utility.yul\":7227:7559   */\n      swap4\n      swap3\n      pop\n      pop\n      pop\n      jump\t// out\n        /* \"#utility.yul\":7565:8007   */\n    tag_90:\n        /* \"#utility.yul\":7714:7718   */\n      0x00\n        /* \"#utility.yul\":7752:7754   */\n      0x60\n        /* \"#utility.yul\":7741:7750   */\n      dup3\n        /* \"#utility.yul\":7737:7755   */\n      add\n        /* \"#utility.yul\":7729:7755   */\n      swap1\n      pop\n        /* \"#utility.yul\":7765:7836   */\n      tag_301\n        /* \"#utility.yul\":7833:7834   */\n      0x00\n        /* \"#utility.yul\":7822:7831   */\n      dup4\n        /* \"#utility.yul\":7818:7835   */\n      add\n        /* \"#utility.yul\":7809:7815   */\n      dup7\n        /* \"#utility.yul\":7765:7836   */\n      tag_192\n      jump\t// in\n    tag_301:\n        /* \"#utility.yul\":7846:7918   */\n      tag_302\n        /* \"#utility.yul\":7914:7916   */\n      0x20\n        /* \"#utility.yul\":7903:7912   */\n      dup4\n        /* \"#utility.yul\":7899:7917   */\n      add\n        /* \"#utility.yul\":7890:7896   */\n      dup6\n        /* \"#utility.yul\":7846:7918   */\n      tag_192\n      jump\t// in\n    tag_302:\n        /* \"#utility.yul\":7928:8000   */\n      tag_303\n        /* \"#utility.yul\":7996:7998   */\n      0x40\n        /* \"#utility.yul\":7985:7994   */\n      dup4\n        /* \"#utility.yul\":7981:7999   */\n      add\n        /* \"#utility.yul\":7972:7978   */\n      dup5\n        /* \"#utility.yul\":7928:8000   */\n      tag_184\n      jump\t// in\n    tag_303:\n        /* \"#utility.yul\":7565:8007   */\n      swap5\n      swap4\n      pop\n      pop\n      pop\n      pop\n      jump\t// out\n        /* \"#utility.yul\":8013:8103   */\n    tag_208:\n        /* \"#utility.yul\":8047:8054   */\n      0x00\n        /* \"#utility.yul\":8090:8095   */\n      dup2\n        /* \"#utility.yul\":8083:8096   */\n      iszero\n        /* \"#utility.yul\":8076:8097   */\n      iszero\n        /* \"#utility.yul\":8065:8097   */\n      swap1\n      pop\n        /* \"#utility.yul\":8013:8103   */\n      swap2\n      swap1\n      pop\n      jump\t// out\n        /* \"#utility.yul\":8109:8225   */\n    tag_209:\n        /* \"#utility.yul\":8179:8200   */\n      tag_306\n        /* \"#utility.yul\":8194:8199   */\n      dup2\n        /* \"#utility.yul\":8179:8200   */\n      tag_208\n      jump\t// in\n    tag_306:\n        /* \"#utility.yul\":8172:8177   */\n      dup2\n        /* \"#utility.yul\":8169:8201   */\n      eq\n        /* \"#utility.yul\":8159:8219   */\n      tag_307\n      jumpi\n        /* \"#utility.yul\":8215:8216   */\n      0x00\n        /* \"#utility.yul\":8212:8213   */\n      dup1\n        /* \"#utility.yul\":8205:8217   */\n      revert\n        /* \"#utility.yul\":8159:8219   */\n    tag_307:\n        /* \"#utility.yul\":8109:8225   */\n      pop\n      jump\t// out\n        /* \"#utility.yul\":8231:8368   */\n    tag_210:\n        /* \"#utility.yul\":8285:8290   */\n      0x00\n        /* \"#utility.yul\":8316:8322   */\n      dup2\n        /* \"#utility.yul\":8310:8323   */\n      mload\n        /* \"#utility.yul\":8301:8323   */\n      swap1\n      pop\n        /* \"#utility.yul\":8332:8362   */\n      tag_309\n        /* \"#utility.yul\":8356:8361   */\n      dup2\n        /* \"#utility.yul\":8332:8362   */\n      tag_209\n      jump\t// in\n    tag_309:\n        /* \"#utility.yul\":8231:8368   */\n      swap3\n      swap2\n      pop\n      pop\n      jump\t// out\n        /* \"#utility.yul\":8374:8719   */\n    tag_94:\n        /* \"#utility.yul\":8441:8447   */\n      0x00\n        /* \"#utility.yul\":8490:8492   */\n      0x20\n        /* \"#utility.yul\":8478:8487   */\n      dup3\n        /* \"#utility.yul\":8469:8476   */\n      dup5\n        /* \"#utility.yul\":8465:8488   */\n      sub\n        /* \"#utility.yul\":8461:8493   */\n      slt\n        /* \"#utility.yul\":8458:8577   */\n      iszero\n      tag_311\n      jumpi\n        /* \"#utility.yul\":8496:8575   */\n      tag_312\n      tag_186\n      jump\t// in\n    tag_312:\n        /* \"#utility.yul\":8458:8577   */\n    tag_311:\n        /* \"#utility.yul\":8616:8617   */\n      0x00\n        /* \"#utility.yul\":8641:8702   */\n      tag_313\n        /* \"#utility.yul\":8694:8701   */\n      dup5\n        /* \"#utility.yul\":8685:8691   */\n      dup3\n        /* \"#utility.yul\":8674:8683   */\n      dup6\n        /* \"#utility.yul\":8670:8692   */\n      add\n        /* \"#utility.yul\":8641:8702   */\n      tag_210\n      jump\t// in\n    tag_313:\n        /* \"#utility.yul\":8631:8702   */\n      swap2\n      pop\n        /* \"#utility.yul\":8587:8712   */\n      pop\n        /* \"#utility.yul\":8374:8719   */\n      swap3\n      swap2\n      pop\n      pop\n      jump\t// out\n        /* \"#utility.yul\":8725:8868   */\n    tag_211:\n        /* \"#utility.yul\":8782:8787   */\n      0x00\n        /* \"#utility.yul\":8813:8819   */\n      dup2\n        /* \"#utility.yul\":8807:8820   */\n      mload\n        /* \"#utility.yul\":8798:8820   */\n      swap1\n      pop\n        /* \"#utility.yul\":8829:8862   */\n      tag_315\n        /* \"#utility.yul\":8856:8861   */\n      dup2\n        /* \"#utility.yul\":8829:8862   */\n      tag_188\n      jump\t// in\n    tag_315:\n        /* \"#utility.yul\":8725:8868   */\n      swap3\n      swap2\n      pop\n      pop\n      jump\t// out\n        /* \"#utility.yul\":8874:9225   */\n    tag_100:\n        /* \"#utility.yul\":8944:8950   */\n      0x00\n        /* \"#utility.yul\":8993:8995   */\n      0x20\n        /* \"#utility.yul\":8981:8990   */\n      dup3\n        /* \"#utility.yul\":8972:8979   */\n      dup5\n        /* \"#utility.yul\":8968:8991   */\n      sub\n        /* \"#utility.yul\":8964:8996   */\n      slt\n        /* \"#utility.yul\":8961:9080   */\n      iszero\n      tag_317\n      jumpi\n        /* \"#utility.yul\":8999:9078   */\n      tag_318\n      tag_186\n      jump\t// in\n    tag_318:\n        /* \"#utility.yul\":8961:9080   */\n    tag_317:\n        /* \"#utility.yul\":9119:9120   */\n      0x00\n        /* \"#utility.yul\":9144:9208   */\n      tag_319\n        /* \"#utility.yul\":9200:9207   */\n      dup5\n        /* \"#utility.yul\":9191:9197   */\n      dup3\n        /* \"#utility.yul\":9180:9189   */\n      dup6\n        /* \"#utility.yul\":9176:9198   */\n      add\n        /* \"#utility.yul\":9144:9208   */\n      tag_211\n      jump\t// in\n    tag_319:\n        /* \"#utility.yul\":9134:9208   */\n      swap2\n      pop\n        /* \"#utility.yul\":9090:9218   */\n      pop\n        /* \"#utility.yul\":8874:9225   */\n      swap3\n      swap2\n      pop\n      pop\n      jump\t// out\n        /* \"#utility.yul\":9231:9408   */\n    tag_212:\n        /* \"#utility.yul\":9371:9400   */\n      0x4e6f2068617920746f6b656e732070617261206465766f6c7665720000000000\n        /* \"#utility.yul\":9367:9368   */\n      0x00\n        /* \"#utility.yul\":9359:9365   */\n      dup3\n        /* \"#utility.yul\":9355:9369   */\n      add\n        /* \"#utility.yul\":9348:9401   */\n      mstore\n        /* \"#utility.yul\":9231:9408   */\n      pop\n      jump\t// out\n        /* \"#utility.yul\":9414:9780   */\n    tag_213:\n        /* \"#utility.yul\":9556:9559   */\n      0x00\n        /* \"#utility.yul\":9577:9644   */\n      tag_322\n        /* \"#utility.yul\":9641:9643   */\n      0x1b\n        /* \"#utility.yul\":9636:9639   */\n      dup4\n        /* \"#utility.yul\":9577:9644   */\n      tag_200\n      jump\t// in\n    tag_322:\n        /* \"#utility.yul\":9570:9644   */\n      swap2\n      pop\n        /* \"#utility.yul\":9653:9746   */\n      tag_323\n        /* \"#utility.yul\":9742:9745   */\n      dup3\n        /* \"#utility.yul\":9653:9746   */\n      tag_212\n      jump\t// in\n    tag_323:\n        /* \"#utility.yul\":9771:9773   */\n      0x20\n        /* \"#utility.yul\":9766:9769   */\n      dup3\n        /* \"#utility.yul\":9762:9774   */\n      add\n        /* \"#utility.yul\":9755:9774   */\n      swap1\n      pop\n        /* \"#utility.yul\":9414:9780   */\n      swap2\n      swap1\n      pop\n      jump\t// out\n        /* \"#utility.yul\":9786:10205   */\n    tag_104:\n        /* \"#utility.yul\":9952:9956   */\n      0x00\n        /* \"#utility.yul\":9990:9992   */\n      0x20\n        /* \"#utility.yul\":9979:9988   */\n      dup3\n        /* \"#utility.yul\":9975:9993   */\n      add\n        /* \"#utility.yul\":9967:9993   */\n      swap1\n      pop\n        /* \"#utility.yul\":10039:10048   */\n      dup2\n        /* \"#utility.yul\":10033:10037   */\n      dup2\n        /* \"#utility.yul\":10029:10049   */\n      sub\n        /* \"#utility.yul\":10025:10026   */\n      0x00\n        /* \"#utility.yul\":10014:10023   */\n      dup4\n        /* \"#utility.yul\":10010:10027   */\n      add\n        /* \"#utility.yul\":10003:10050   */\n      mstore\n        /* \"#utility.yul\":10067:10198   */\n      tag_325\n        /* \"#utility.yul\":10193:10197   */\n      dup2\n        /* \"#utility.yul\":10067:10198   */\n      tag_213\n      jump\t// in\n    tag_325:\n        /* \"#utility.yul\":10059:10198   */\n      swap1\n      pop\n        /* \"#utility.yul\":9786:10205   */\n      swap2\n      swap1\n      pop\n      jump\t// out\n        /* \"#utility.yul\":10211:10438   */\n    tag_214:\n        /* \"#utility.yul\":10351:10385   */\n      0x4e6f207469656e6573206c6f7320746f6b656e73207175652064657365617320\n        /* \"#utility.yul\":10347:10348   */\n      0x00\n        /* \"#utility.yul\":10339:10345   */\n      dup3\n        /* \"#utility.yul\":10335:10349   */\n      add\n        /* \"#utility.yul\":10328:10386   */\n      mstore\n        /* \"#utility.yul\":10420:10430   */\n      0x6465766f6c766572000000000000000000000000000000000000000000000000\n        /* \"#utility.yul\":10415:10417   */\n      0x20\n        /* \"#utility.yul\":10407:10413   */\n      dup3\n        /* \"#utility.yul\":10403:10418   */\n      add\n        /* \"#utility.yul\":10396:10431   */\n      mstore\n        /* \"#utility.yul\":10211:10438   */\n      pop\n      jump\t// out\n        /* \"#utility.yul\":10444:10810   */\n    tag_215:\n        /* \"#utility.yul\":10586:10589   */\n      0x00\n        /* \"#utility.yul\":10607:10674   */\n      tag_328\n        /* \"#utility.yul\":10671:10673   */\n      0x28\n        /* \"#utility.yul\":10666:10669   */\n      dup4\n        /* \"#utility.yul\":10607:10674   */\n      tag_200\n      jump\t// in\n    tag_328:\n        /* \"#utility.yul\":10600:10674   */\n      swap2\n      pop\n        /* \"#utility.yul\":10683:10776   */\n      tag_329\n        /* \"#utility.yul\":10772:10775   */\n      dup3\n        /* \"#utility.yul\":10683:10776   */\n      tag_214\n      jump\t// in\n    tag_329:\n        /* \"#utility.yul\":10801:10803   */\n      0x40\n        /* \"#utility.yul\":10796:10799   */\n      dup3\n        /* \"#utility.yul\":10792:10804   */\n      add\n        /* \"#utility.yul\":10785:10804   */\n      swap1\n      pop\n        /* \"#utility.yul\":10444:10810   */\n      swap2\n      swap1\n      pop\n      jump\t// out\n        /* \"#utility.yul\":10816:11235   */\n    tag_108:\n        /* \"#utility.yul\":10982:10986   */\n      0x00\n        /* \"#utility.yul\":11020:11022   */\n      0x20\n        /* \"#utility.yul\":11009:11018   */\n      dup3\n        /* \"#utility.yul\":11005:11023   */\n      add\n        /* \"#utility.yul\":10997:11023   */\n      swap1\n      pop\n        /* \"#utility.yul\":11069:11078   */\n      dup2\n        /* \"#utility.yul\":11063:11067   */\n      dup2\n        /* \"#utility.yul\":11059:11079   */\n      sub\n        /* \"#utility.yul\":11055:11056   */\n      0x00\n        /* \"#utility.yul\":11044:11053   */\n      dup4\n        /* \"#utility.yul\":11040:11057   */\n      add\n        /* \"#utility.yul\":11033:11080   */\n      mstore\n        /* \"#utility.yul\":11097:11228   */\n      tag_331\n        /* \"#utility.yul\":11223:11227   */\n      dup2\n        /* \"#utility.yul\":11097:11228   */\n      tag_215\n      jump\t// in\n    tag_331:\n        /* \"#utility.yul\":11089:11228   */\n      swap1\n      pop\n        /* \"#utility.yul\":10816:11235   */\n      swap2\n      swap1\n      pop\n      jump\t// out\n        /* \"#utility.yul\":11241:11421   */\n    tag_216:\n        /* \"#utility.yul\":11289:11366   */\n      0x4e487b7100000000000000000000000000000000000000000000000000000000\n        /* \"#utility.yul\":11286:11287   */\n      0x00\n        /* \"#utility.yul\":11279:11367   */\n      mstore\n        /* \"#utility.yul\":11386:11390   */\n      0x11\n        /* \"#utility.yul\":11383:11384   */\n      0x04\n        /* \"#utility.yul\":11376:11391   */\n      mstore\n        /* \"#utility.yul\":11410:11414   */\n      0x24\n        /* \"#utility.yul\":11407:11408   */\n      0x00\n        /* \"#utility.yul\":11400:11415   */\n      revert\n        /* \"#utility.yul\":11427:11837   */\n    tag_133:\n        /* \"#utility.yul\":11467:11474   */\n      0x00\n        /* \"#utility.yul\":11490:11510   */\n      tag_334\n        /* \"#utility.yul\":11508:11509   */\n      dup3\n        /* \"#utility.yul\":11490:11510   */\n      tag_183\n      jump\t// in\n    tag_334:\n        /* \"#utility.yul\":11485:11510   */\n      swap2\n      pop\n        /* \"#utility.yul\":11524:11544   */\n      tag_335\n        /* \"#utility.yul\":11542:11543   */\n      dup4\n        /* \"#utility.yul\":11524:11544   */\n      tag_183\n      jump\t// in\n    tag_335:\n        /* \"#utility.yul\":11519:11544   */\n      swap3\n      pop\n        /* \"#utility.yul\":11579:11580   */\n      dup3\n        /* \"#utility.yul\":11576:11577   */\n      dup3\n        /* \"#utility.yul\":11572:11581   */\n      mul\n        /* \"#utility.yul\":11601:11631   */\n      tag_336\n        /* \"#utility.yul\":11619:11630   */\n      dup2\n        /* \"#utility.yul\":11601:11631   */\n      tag_183\n      jump\t// in\n    tag_336:\n        /* \"#utility.yul\":11590:11631   */\n      swap2\n      pop\n        /* \"#utility.yul\":11780:11781   */\n      dup3\n        /* \"#utility.yul\":11771:11778   */\n      dup3\n        /* \"#utility.yul\":11767:11782   */\n      div\n        /* \"#utility.yul\":11764:11765   */\n      dup5\n        /* \"#utility.yul\":11761:11783   */\n      eq\n        /* \"#utility.yul\":11741:11742   */\n      dup4\n        /* \"#utility.yul\":11734:11743   */\n      iszero\n        /* \"#utility.yul\":11714:11797   */\n      or\n        /* \"#utility.yul\":11691:11830   */\n      tag_337\n      jumpi\n        /* \"#utility.yul\":11810:11828   */\n      tag_338\n      tag_216\n      jump\t// in\n    tag_338:\n        /* \"#utility.yul\":11691:11830   */\n    tag_337:\n        /* \"#utility.yul\":11475:11837   */\n      pop\n        /* \"#utility.yul\":11427:11837   */\n      swap3\n      swap2\n      pop\n      pop\n      jump\t// out\n        /* \"#utility.yul\":11843:12021   */\n    tag_217:\n        /* \"#utility.yul\":11983:12013   */\n      0x4e6f207469656e657320737566696369656e74657320746f6b656e7300000000\n        /* \"#utility.yul\":11979:11980   */\n      0x00\n        /* \"#utility.yul\":11971:11977   */\n      dup3\n        /* \"#utility.yul\":11967:11981   */\n      add\n        /* \"#utility.yul\":11960:12014   */\n      mstore\n        /* \"#utility.yul\":11843:12021   */\n      pop\n      jump\t// out\n        /* \"#utility.yul\":12027:12393   */\n    tag_218:\n        /* \"#utility.yul\":12169:12172   */\n      0x00\n        /* \"#utility.yul\":12190:12257   */\n      tag_341\n        /* \"#utility.yul\":12254:12256   */\n      0x1c\n        /* \"#utility.yul\":12249:12252   */\n      dup4\n        /* \"#utility.yul\":12190:12257   */\n      tag_200\n      jump\t// in\n    tag_341:\n        /* \"#utility.yul\":12183:12257   */\n      swap2\n      pop\n        /* \"#utility.yul\":12266:12359   */\n      tag_342\n        /* \"#utility.yul\":12355:12358   */\n      dup3\n        /* \"#utility.yul\":12266:12359   */\n      tag_217\n      jump\t// in\n    tag_342:\n        /* \"#utility.yul\":12384:12386   */\n      0x20\n        /* \"#utility.yul\":12379:12382   */\n      dup3\n        /* \"#utility.yul\":12375:12387   */\n      add\n        /* \"#utility.yul\":12368:12387   */\n      swap1\n      pop\n        /* \"#utility.yul\":12027:12393   */\n      swap2\n      swap1\n      pop\n      jump\t// out\n        /* \"#utility.yul\":12399:12818   */\n    tag_137:\n        /* \"#utility.yul\":12565:12569   */\n      0x00\n        /* \"#utility.yul\":12603:12605   */\n      0x20\n        /* \"#utility.yul\":12592:12601   */\n      dup3\n        /* \"#utility.yul\":12588:12606   */\n      add\n        /* \"#utility.yul\":12580:12606   */\n      swap1\n      pop\n        /* \"#utility.yul\":12652:12661   */\n      dup2\n        /* \"#utility.yul\":12646:12650   */\n      dup2\n        /* \"#utility.yul\":12642:12662   */\n      sub\n        /* \"#utility.yul\":12638:12639   */\n      0x00\n        /* \"#utility.yul\":12627:12636   */\n      dup4\n        /* \"#utility.yul\":12623:12640   */\n      add\n        /* \"#utility.yul\":12616:12663   */\n      mstore\n        /* \"#utility.yul\":12680:12811   */\n      tag_344\n        /* \"#utility.yul\":12806:12810   */\n      dup2\n        /* \"#utility.yul\":12680:12811   */\n      tag_218\n      jump\t// in\n    tag_344:\n        /* \"#utility.yul\":12672:12811   */\n      swap1\n      pop\n        /* \"#utility.yul\":12399:12818   */\n      swap2\n      swap1\n      pop\n      jump\t// out\n        /* \"#utility.yul\":12824:12918   */\n    tag_219:\n        /* \"#utility.yul\":12857:12865   */\n      0x00\n        /* \"#utility.yul\":12905:12910   */\n      dup2\n        /* \"#utility.yul\":12901:12903   */\n      0x60\n        /* \"#utility.yul\":12897:12911   */\n      shl\n        /* \"#utility.yul\":12876:12911   */\n      swap1\n      pop\n        /* \"#utility.yul\":12824:12918   */\n      swap2\n      swap1\n      pop\n      jump\t// out\n        /* \"#utility.yul\":12924:13018   */\n    tag_220:\n        /* \"#utility.yul\":12963:12970   */\n      0x00\n        /* \"#utility.yul\":12992:13012   */\n      tag_347\n        /* \"#utility.yul\":13006:13011   */\n      dup3\n        /* \"#utility.yul\":12992:13012   */\n      tag_219\n      jump\t// in\n    tag_347:\n        /* \"#utility.yul\":12981:13012   */\n      swap1\n      pop\n        /* \"#utility.yul\":12924:13018   */\n      swap2\n      swap1\n      pop\n      jump\t// out\n        /* \"#utility.yul\":13024:13124   */\n    tag_221:\n        /* \"#utility.yul\":13063:13070   */\n      0x00\n        /* \"#utility.yul\":13092:13118   */\n      tag_349\n        /* \"#utility.yul\":13112:13117   */\n      dup3\n        /* \"#utility.yul\":13092:13118   */\n      tag_220\n      jump\t// in\n    tag_349:\n        /* \"#utility.yul\":13081:13118   */\n      swap1\n      pop\n        /* \"#utility.yul\":13024:13124   */\n      swap2\n      swap1\n      pop\n      jump\t// out\n        /* \"#utility.yul\":13130:13287   */\n    tag_222:\n        /* \"#utility.yul\":13235:13280   */\n      tag_351\n        /* \"#utility.yul\":13255:13279   */\n      tag_352\n        /* \"#utility.yul\":13273:13278   */\n      dup3\n        /* \"#utility.yul\":13255:13279   */\n      tag_191\n      jump\t// in\n    tag_352:\n        /* \"#utility.yul\":13235:13280   */\n      tag_221\n      jump\t// in\n    tag_351:\n        /* \"#utility.yul\":13230:13233   */\n      dup3\n        /* \"#utility.yul\":13223:13281   */\n      mstore\n        /* \"#utility.yul\":13130:13287   */\n      pop\n      pop\n      jump\t// out\n        /* \"#utility.yul\":13293:13831   */\n    tag_146:\n        /* \"#utility.yul\":13461:13464   */\n      0x00\n        /* \"#utility.yul\":13476:13551   */\n      tag_354\n        /* \"#utility.yul\":13547:13550   */\n      dup3\n        /* \"#utility.yul\":13538:13544   */\n      dup7\n        /* \"#utility.yul\":13476:13551   */\n      tag_206\n      jump\t// in\n    tag_354:\n        /* \"#utility.yul\":13576:13578   */\n      0x20\n        /* \"#utility.yul\":13571:13574   */\n      dup3\n        /* \"#utility.yul\":13567:13579   */\n      add\n        /* \"#utility.yul\":13560:13579   */\n      swap2\n      pop\n        /* \"#utility.yul\":13589:13664   */\n      tag_355\n        /* \"#utility.yul\":13660:13663   */\n      dup3\n        /* \"#utility.yul\":13651:13657   */\n      dup6\n        /* \"#utility.yul\":13589:13664   */\n      tag_222\n      jump\t// in\n    tag_355:\n        /* \"#utility.yul\":13689:13691   */\n      0x14\n        /* \"#utility.yul\":13684:13687   */\n      dup3\n        /* \"#utility.yul\":13680:13692   */\n      add\n        /* \"#utility.yul\":13673:13692   */\n      swap2\n      pop\n        /* \"#utility.yul\":13702:13777   */\n      tag_356\n        /* \"#utility.yul\":13773:13776   */\n      dup3\n        /* \"#utility.yul\":13764:13770   */\n      dup5\n        /* \"#utility.yul\":13702:13777   */\n      tag_206\n      jump\t// in\n    tag_356:\n        /* \"#utility.yul\":13802:13804   */\n      0x20\n        /* \"#utility.yul\":13797:13800   */\n      dup3\n        /* \"#utility.yul\":13793:13805   */\n      add\n        /* \"#utility.yul\":13786:13805   */\n      swap2\n      pop\n        /* \"#utility.yul\":13822:13825   */\n      dup2\n        /* \"#utility.yul\":13815:13825   */\n      swap1\n      pop\n        /* \"#utility.yul\":13293:13831   */\n      swap5\n      swap4\n      pop\n      pop\n      pop\n      pop\n      jump\t// out\n        /* \"#utility.yul\":13837:14070   */\n    tag_149:\n        /* \"#utility.yul\":13876:13879   */\n      0x00\n        /* \"#utility.yul\":13899:13923   */\n      tag_358\n        /* \"#utility.yul\":13917:13922   */\n      dup3\n        /* \"#utility.yul\":13899:13923   */\n      tag_183\n      jump\t// in\n    tag_358:\n        /* \"#utility.yul\":13890:13923   */\n      swap2\n      pop\n        /* \"#utility.yul\":13945:14011   */\n      0xffffffffffffffffffffffffffffffffffffffffffffffffffffffffffffffff\n        /* \"#utility.yul\":13938:13943   */\n      dup3\n        /* \"#utility.yul\":13935:14012   */\n      sub\n        /* \"#utility.yul\":13932:14035   */\n      tag_359\n      jumpi\n        /* \"#utility.yul\":14015:14033   */\n      tag_360\n      tag_216\n      jump\t// in\n    tag_360:\n        /* \"#utility.yul\":13932:14035   */\n    tag_359:\n        /* \"#utility.yul\":14062:14063   */\n      0x01\n        /* \"#utility.yul\":14055:14060   */\n      dup3\n        /* \"#utility.yul\":14051:14064   */\n      add\n        /* \"#utility.yul\":14044:14064   */\n      swap1\n      pop\n        /* \"#utility.yul\":13837:14070   */\n      swap2\n      swap1\n      pop\n      jump\t// out\n        /* \"#utility.yul\":14076:14304   */\n    tag_223:\n        /* \"#utility.yul\":14216:14250   */\n      0x436f6d707261206d656e6f7320546f6b656e73206f207061676120636f6e206d\n        /* \"#utility.yul\":14212:14213   */\n      0x00\n        /* \"#utility.yul\":14204:14210   */\n      dup3\n        /* \"#utility.yul\":14200:14214   */\n      add\n        /* \"#utility.yul\":14193:14251   */\n      mstore\n        /* \"#utility.yul\":14285:14296   */\n      0x6173204574686572730000000000000000000000000000000000000000000000\n        /* \"#utility.yul\":14280:14282   */\n      0x20\n        /* \"#utility.yul\":14272:14278   */\n      dup3\n        /* \"#utility.yul\":14268:14283   */\n      add\n        /* \"#utility.yul\":14261:14297   */\n      mstore\n        /* \"#utility.yul\":14076:14304   */\n      pop\n      jump\t// out\n        /* \"#utility.yul\":14310:14676   */\n    tag_224:\n        /* \"#utility.yul\":14452:14455   */\n      0x00\n        /* \"#utility.yul\":14473:14540   */\n      tag_363\n        /* \"#utility.yul\":14537:14539   */\n      0x29\n        /* \"#utility.yul\":14532:14535   */\n      dup4\n        /* \"#utility.yul\":14473:14540   */\n      tag_200\n      jump\t// in\n    tag_363:\n        /* \"#utility.yul\":14466:14540   */\n      swap2\n      pop\n        /* \"#utility.yul\":14549:14642   */\n      tag_364\n        /* \"#utility.yul\":14638:14641   */\n      dup3\n        /* \"#utility.yul\":14549:14642   */\n      tag_223\n      jump\t// in\n    tag_364:\n        /* \"#utility.yul\":14667:14669   */\n      0x40\n        /* \"#utility.yul\":14662:14665   */\n      dup3\n        /* \"#utility.yul\":14658:14670   */\n      add\n        /* \"#utility.yul\":14651:14670   */\n      swap1\n      pop\n        /* \"#utility.yul\":14310:14676   */\n      swap2\n      swap1\n      pop\n      jump\t// out\n        /* \"#utility.yul\":14682:15101   */\n    tag_158:\n        /* \"#utility.yul\":14848:14852   */\n      0x00\n        /* \"#utility.yul\":14886:14888   */\n      0x20\n        /* \"#utility.yul\":14875:14884   */\n      dup3\n        /* \"#utility.yul\":14871:14889   */\n      add\n        /* \"#utility.yul\":14863:14889   */\n      swap1\n      pop\n        /* \"#utility.yul\":14935:14944   */\n      dup2\n        /* \"#utility.yul\":14929:14933   */\n      dup2\n        /* \"#utility.yul\":14925:14945   */\n      sub\n        /* \"#utility.yul\":14921:14922   */\n      0x00\n        /* \"#utility.yul\":14910:14919   */\n      dup4\n        /* \"#utility.yul\":14906:14923   */\n      add\n        /* \"#utility.yul\":14899:14946   */\n      mstore\n        /* \"#utility.yul\":14963:15094   */\n      tag_366\n        /* \"#utility.yul\":15089:15093   */\n      dup2\n        /* \"#utility.yul\":14963:15094   */\n      tag_224\n      jump\t// in\n    tag_366:\n        /* \"#utility.yul\":14955:15094   */\n      swap1\n      pop\n        /* \"#utility.yul\":14682:15101   */\n      swap2\n      swap1\n      pop\n      jump\t// out\n        /* \"#utility.yul\":15107:15301   */\n    tag_160:\n        /* \"#utility.yul\":15147:15151   */\n      0x00\n        /* \"#utility.yul\":15167:15187   */\n      tag_368\n        /* \"#utility.yul\":15185:15186   */\n      dup3\n        /* \"#utility.yul\":15167:15187   */\n      tag_183\n      jump\t// in\n    tag_368:\n        /* \"#utility.yul\":15162:15187   */\n      swap2\n      pop\n        /* \"#utility.yul\":15201:15221   */\n      tag_369\n        /* \"#utility.yul\":15219:15220   */\n      dup4\n        /* \"#utility.yul\":15201:15221   */\n      tag_183\n      jump\t// in\n    tag_369:\n        /* \"#utility.yul\":15196:15221   */\n      swap3\n      pop\n        /* \"#utility.yul\":15245:15246   */\n      dup3\n        /* \"#utility.yul\":15242:15243   */\n      dup3\n        /* \"#utility.yul\":15238:15247   */\n      sub\n        /* \"#utility.yul\":15230:15247   */\n      swap1\n      pop\n        /* \"#utility.yul\":15269:15270   */\n      dup2\n        /* \"#utility.yul\":15263:15267   */\n      dup2\n        /* \"#utility.yul\":15260:15271   */\n      gt\n        /* \"#utility.yul\":15257:15294   */\n      iszero\n      tag_370\n      jumpi\n        /* \"#utility.yul\":15274:15292   */\n      tag_371\n      tag_216\n      jump\t// in\n    tag_371:\n        /* \"#utility.yul\":15257:15294   */\n    tag_370:\n        /* \"#utility.yul\":15107:15301   */\n      swap3\n      swap2\n      pop\n      pop\n      jump\t// out\n        /* \"#utility.yul\":15307:15529   */\n    tag_225:\n        /* \"#utility.yul\":15447:15481   */\n      0x436f6d70726120756e206e756d65726f20646520746f6b656e73206164656375\n        /* \"#utility.yul\":15443:15444   */\n      0x00\n        /* \"#utility.yul\":15435:15441   */\n      dup3\n        /* \"#utility.yul\":15431:15445   */\n      add\n        /* \"#utility.yul\":15424:15482   */\n      mstore\n        /* \"#utility.yul\":15516:15521   */\n      0x61646f0000000000000000000000000000000000000000000000000000000000\n        /* \"#utility.yul\":15511:15513   */\n      0x20\n        /* \"#utility.yul\":15503:15509   */\n      dup3\n        /* \"#utility.yul\":15499:15514   */\n      add\n        /* \"#utility.yul\":15492:15522   */\n      mstore\n        /* \"#utility.yul\":15307:15529   */\n      pop\n      jump\t// out\n        /* \"#utility.yul\":15535:15901   */\n    tag_226:\n        /* \"#utility.yul\":15677:15680   */\n      0x00\n        /* \"#utility.yul\":15698:15765   */\n      tag_374\n        /* \"#utility.yul\":15762:15764   */\n      0x23\n        /* \"#utility.yul\":15757:15760   */\n      dup4\n        /* \"#utility.yul\":15698:15765   */\n      tag_200\n      jump\t// in\n    tag_374:\n        /* \"#utility.yul\":15691:15765   */\n      swap2\n      pop\n        /* \"#utility.yul\":15774:15867   */\n      tag_375\n        /* \"#utility.yul\":15863:15866   */\n      dup3\n        /* \"#utility.yul\":15774:15867   */\n      tag_225\n      jump\t// in\n    tag_375:\n        /* \"#utility.yul\":15892:15894   */\n      0x40\n        /* \"#utility.yul\":15887:15890   */\n      dup3\n        /* \"#utility.yul\":15883:15895   */\n      add\n        /* \"#utility.yul\":15876:15895   */\n      swap1\n      pop\n        /* \"#utility.yul\":15535:15901   */\n      swap2\n      swap1\n      pop\n      jump\t// out\n        /* \"#utility.yul\":15907:16326   */\n    tag_166:\n        /* \"#utility.yul\":16073:16077   */\n      0x00\n        /* \"#utility.yul\":16111:16113   */\n      0x20\n        /* \"#utility.yul\":16100:16109   */\n      dup3\n        /* \"#utility.yul\":16096:16114   */\n      add\n        /* \"#utility.yul\":16088:16114   */\n      swap1\n      pop\n        /* \"#utility.yul\":16160:16169   */\n      dup2\n        /* \"#utility.yul\":16154:16158   */\n      dup2\n        /* \"#utility.yul\":16150:16170   */\n      sub\n        /* \"#utility.yul\":16146:16147   */\n      0x00\n        /* \"#utility.yul\":16135:16144   */\n      dup4\n        /* \"#utility.yul\":16131:16148   */\n      add\n        /* \"#utility.yul\":16124:16171   */\n      mstore\n        /* \"#utility.yul\":16188:16319   */\n      tag_377\n        /* \"#utility.yul\":16314:16318   */\n      dup2\n        /* \"#utility.yul\":16188:16319   */\n      tag_226\n      jump\t// in\n    tag_377:\n        /* \"#utility.yul\":16180:16319   */\n      swap1\n      pop\n        /* \"#utility.yul\":15907:16326   */\n      swap2\n      swap1\n      pop\n      jump\t// out\n        /* \"#utility.yul\":16332:16664   */\n    tag_168:\n        /* \"#utility.yul\":16453:16457   */\n      0x00\n        /* \"#utility.yul\":16491:16493   */\n      0x40\n        /* \"#utility.yul\":16480:16489   */\n      dup3\n        /* \"#utility.yul\":16476:16494   */\n      add\n        /* \"#utility.yul\":16468:16494   */\n      swap1\n      pop\n        /* \"#utility.yul\":16504:16575   */\n      tag_379\n        /* \"#utility.yul\":16572:16573   */\n      0x00\n        /* \"#utility.yul\":16561:16570   */\n      dup4\n        /* \"#utility.yul\":16557:16574   */\n      add\n        /* \"#utility.yul\":16548:16554   */\n      dup6\n        /* \"#utility.yul\":16504:16575   */\n      tag_192\n      jump\t// in\n    tag_379:\n        /* \"#utility.yul\":16585:16657   */\n      tag_380\n        /* \"#utility.yul\":16653:16655   */\n      0x20\n        /* \"#utility.yul\":16642:16651   */\n      dup4\n        /* \"#utility.yul\":16638:16656   */\n      add\n        /* \"#utility.yul\":16629:16635   */\n      dup5\n        /* \"#utility.yul\":16585:16657   */\n      tag_184\n      jump\t// in\n    tag_380:\n        /* \"#utility.yul\":16332:16664   */\n      swap4\n      swap3\n      pop\n      pop\n      pop\n      jump\t// out\n\n    auxdata: 0xa26469706673582212204bd005d762e8cbf1d956c906b4c6c3a8e9b3ce216d6aebc68fb8a905edd7253b64736f6c63430008120033\n}\n\nsub_1: assembly {\n        /* \"LOTERIA/ERC20.sol\":1921:4865  contract ERC20Basic is IERC20 {... */\n      mstore(0x40, 0x80)\n        /* \"LOTERIA/ERC20.sol\":2434:2562  constructor (uint _initialSupply) {... */\n      callvalue\n      dup1\n      iszero\n      tag_1\n      jumpi\n      0x00\n      dup1\n      revert\n    tag_1:\n      pop\n      mload(0x40)\n      sub(codesize, bytecodeSize)\n      dup1\n      bytecodeSize\n      dup4\n      codecopy\n      dup2\n      dup2\n      add\n      0x40\n      mstore\n      dup2\n      add\n      swap1\n      tag_2\n      swap2\n      swap1\n      tag_3\n      jump\t// in\n    tag_2:\n        /* \"LOTERIA/ERC20.sol\":2494:2508  _initialSupply */\n      dup1\n        /* \"LOTERIA/ERC20.sol\":2479:2491  totalSupply_ */\n      0x02\n        /* \"LOTERIA/ERC20.sol\":2479:2508  totalSupply_ = _initialSupply */\n      dup2\n      swap1\n      sstore\n      pop\n        /* \"LOTERIA/ERC20.sol\":2542:2554  totalSupply_ */\n      sload(0x02)\n        /* \"LOTERIA/ERC20.sol\":2519:2527  balances */\n      0x00\n        /* \"LOTERIA/ERC20.sol\":2519:2539  balances[msg.sender] */\n      dup1\n        /* \"LOTERIA/ERC20.sol\":2528:2538  msg.sender */\n      caller\n        /* \"LOTERIA/ERC20.sol\":2519:2539  balances[msg.sender] */\n      0xffffffffffffffffffffffffffffffffffffffff\n      and\n      0xffffffffffffffffffffffffffffffffffffffff\n      and\n      dup2\n      mstore\n      0x20\n      add\n      swap1\n      dup2\n      mstore\n      0x20\n      add\n      0x00\n      keccak256\n        /* \"LOTERIA/ERC20.sol\":2519:2554  balances[msg.sender] = totalSupply_ */\n      dup2\n      swap1\n      sstore\n      pop\n        /* \"LOTERIA/ERC20.sol\":2434:2562  constructor (uint _initialSupply) {... */\n      pop\n        /* \"LOTERIA/ERC20.sol\":1921:4865  contract ERC20Basic is IERC20 {... */\n      jump(tag_6)\n        /* \"#utility.yul\":88:205   */\n    tag_8:\n        /* \"#utility.yul\":197:198   */\n      0x00\n        /* \"#utility.yul\":194:195   */\n      dup1\n        /* \"#utility.yul\":187:199   */\n      revert\n        /* \"#utility.yul\":334:411   */\n    tag_10:\n        /* \"#utility.yul\":371:378   */\n      0x00\n        /* \"#utility.yul\":400:405   */\n      dup2\n        /* \"#utility.yul\":389:405   */\n      swap1\n      pop\n        /* \"#utility.yul\":334:411   */\n      swap2\n      swap1\n      pop\n      jump\t// out\n        /* \"#utility.yul\":417:539   */\n    tag_11:\n        /* \"#utility.yul\":490:514   */\n      tag_19\n        /* \"#utility.yul\":508:513   */\n      dup2\n        /* \"#utility.yul\":490:514   */\n      tag_10\n      jump\t// in\n    tag_19:\n        /* \"#utility.yul\":483:488   */\n      dup2\n        /* \"#utility.yul\":480:515   */\n      eq\n        /* \"#utility.yul\":470:533   */\n      tag_20\n      jumpi\n        /* \"#utility.yul\":529:530   */\n      0x00\n        /* \"#utility.yul\":526:527   */\n      dup1\n        /* \"#utility.yul\":519:531   */\n      revert\n        /* \"#utility.yul\":470:533   */\n    tag_20:\n        /* \"#utility.yul\":417:539   */\n      pop\n      jump\t// out\n        /* \"#utility.yul\":545:688   */\n    tag_12:\n        /* \"#utility.yul\":602:607   */\n      0x00\n        /* \"#utility.yul\":633:639   */\n      dup2\n        /* \"#utility.yul\":627:640   */\n      mload\n        /* \"#utility.yul\":618:640   */\n      swap1\n      pop\n        /* \"#utility.yul\":649:682   */\n      tag_22\n        /* \"#utility.yul\":676:681   */\n      dup2\n        /* \"#utility.yul\":649:682   */\n      tag_11\n      jump\t// in\n    tag_22:\n        /* \"#utility.yul\":545:688   */\n      swap3\n      swap2\n      pop\n      pop\n      jump\t// out\n        /* \"#utility.yul\":694:1045   */\n    tag_3:\n        /* \"#utility.yul\":764:770   */\n      0x00\n        /* \"#utility.yul\":813:815   */\n      0x20\n        /* \"#utility.yul\":801:810   */\n      dup3\n        /* \"#utility.yul\":792:799   */\n      dup5\n        /* \"#utility.yul\":788:811   */\n      sub\n        /* \"#utility.yul\":784:816   */\n      slt\n        /* \"#utility.yul\":781:900   */\n      iszero\n      tag_24\n      jumpi\n        /* \"#utility.yul\":819:898   */\n      tag_25\n      tag_8\n      jump\t// in\n    tag_25:\n        /* \"#utility.yul\":781:900   */\n    tag_24:\n        /* \"#utility.yul\":939:940   */\n      0x00\n        /* \"#utility.yul\":964:1028   */\n      tag_26\n        /* \"#utility.yul\":1020:1027   */\n      dup5\n        /* \"#utility.yul\":1011:1017   */\n      dup3\n        /* \"#utility.yul\":1000:1009   */\n      dup6\n        /* \"#utility.yul\":996:1018   */\n      add\n        /* \"#utility.yul\":964:1028   */\n      tag_12\n      jump\t// in\n    tag_26:\n        /* \"#utility.yul\":954:1028   */\n      swap2\n      pop\n        /* \"#utility.yul\":910:1038   */\n      pop\n        /* \"#utility.yul\":694:1045   */\n      swap3\n      swap2\n      pop\n      pop\n      jump\t// out\n        /* \"LOTERIA/ERC20.sol\":1921:4865  contract ERC20Basic is IERC20 {... */\n    tag_6:\n      dataSize(sub_0)\n      dup1\n      dataOffset(sub_0)\n      0x00\n      codecopy\n      0x00\n      return\n    stop\n\n    sub_0: assembly {\n            /* \"LOTERIA/ERC20.sol\":1921:4865  contract ERC20Basic is IERC20 {... */\n          mstore(0x40, 0x80)\n          callvalue\n          dup1\n          iszero\n          tag_1\n          jumpi\n          0x00\n          dup1\n          revert\n        tag_1:\n          pop\n          jumpi(tag_2, lt(calldatasize, 0x04))\n          shr(0xe0, calldataload(0x00))\n          dup1\n          0x5c79febb\n          gt\n          tag_14\n          jumpi\n          dup1\n          0x5c79febb\n          eq\n          tag_8\n          jumpi\n          dup1\n          0x70a08231\n          eq\n          tag_9\n          jumpi\n          dup1\n          0xa3f4df7e\n          eq\n          tag_10\n          jumpi\n          dup1\n          0xa9059cbb\n          eq\n          tag_11\n          jumpi\n          dup1\n          0xdd62ed3e\n          eq\n          tag_12\n          jumpi\n          dup1\n          0xf76f8d78\n          eq\n          tag_13\n          jumpi\n          jump(tag_2)\n        tag_14:\n          dup1\n          0x095ea7b3\n          eq\n          tag_3\n          jumpi\n          dup1\n          0x18160ddd\n          eq\n          tag_4\n          jumpi\n          dup1\n          0x1d43cc98\n          eq\n          tag_5\n          jumpi\n          dup1\n          0x23b872dd\n          eq\n          tag_6\n          jumpi\n          dup1\n          0x2e0f2625\n          eq\n          tag_7\n          jumpi\n        tag_2:\n          0x00\n          dup1\n          revert\n            /* \"LOTERIA/ERC20.sol\":4120:4346  function approve(address _delegate, uint _numTokens) public override returns(bool) {... */\n        tag_3:\n          tag_15\n          0x04\n          dup1\n          calldatasize\n          sub\n          dup2\n          add\n          swap1\n          tag_16\n          swap2\n          swap1\n          tag_17\n          jump\t// in\n        tag_16:\n          tag_18\n          jump\t// in\n        tag_15:\n          mload(0x40)\n          tag_19\n          swap2\n          swap1\n          tag_20\n          jump\t// in\n        tag_19:\n          mload(0x40)\n          dup1\n          swap2\n          sub\n          swap1\n          return\n            /* \"LOTERIA/ERC20.sol\":2572:2668  function totalSupply() public override view returns(uint) {... */\n        tag_4:\n          tag_21\n          tag_22\n          jump\t// in\n        tag_21:\n          mload(0x40)\n          tag_23\n          swap2\n          swap1\n          tag_24\n          jump\t// in\n        tag_23:\n          mload(0x40)\n          dup1\n          swap2\n          sub\n          swap1\n          return\n            /* \"LOTERIA/ERC20.sol\":2676:2834  function increaseTotalSupply(uint newTokensAmount) public {... */\n        tag_5:\n          tag_25\n          0x04\n          dup1\n          calldatasize\n          sub\n          dup2\n          add\n          swap1\n          tag_26\n          swap2\n          swap1\n          tag_27\n          jump\t// in\n        tag_26:\n          tag_28\n          jump\t// in\n        tag_25:\n          stop\n            /* \"LOTERIA/ERC20.sol\":4354:4862  function transferFrom(address _owner, address _buyer, uint _numTokens) public override returns(bool) {... */\n        tag_6:\n          tag_29\n          0x04\n          dup1\n          calldatasize\n          sub\n          dup2\n          add\n          swap1\n          tag_30\n          swap2\n          swap1\n          tag_31\n          jump\t// in\n        tag_30:\n          tag_32\n          jump\t// in\n        tag_29:\n          mload(0x40)\n          tag_33\n          swap2\n          swap1\n          tag_20\n          jump\t// in\n        tag_33:\n          mload(0x40)\n          dup1\n          swap2\n          sub\n          swap1\n          return\n            /* \"LOTERIA/ERC20.sol\":2060:2094  uint8 public constant DECIMALS = 2 */\n        tag_7:\n          tag_34\n          tag_35\n          jump\t// in\n        tag_34:\n          mload(0x40)\n          tag_36\n          swap2\n          swap1\n          tag_37\n          jump\t// in\n        tag_36:\n          mload(0x40)\n          dup1\n          swap2\n          sub\n          swap1\n          return\n            /* \"LOTERIA/ERC20.sol\":3614:4112  function transferLoteria(address _client, address _recipient, uint _numTokens) public override returns(bool) {... */\n        tag_8:\n          tag_38\n          0x04\n          dup1\n          calldatasize\n          sub\n          dup2\n          add\n          swap1\n          tag_39\n          swap2\n          swap1\n          tag_31\n          jump\t// in\n        tag_39:\n          tag_40\n          jump\t// in\n        tag_38:\n          mload(0x40)\n          tag_41\n          swap2\n          swap1\n          tag_20\n          jump\t// in\n        tag_41:\n          mload(0x40)\n          dup1\n          swap2\n          sub\n          swap1\n          return\n            /* \"LOTERIA/ERC20.sol\":2842:2964  function balanceOf(address _tokenOwner) public override view returns(uint) {... */\n        tag_9:\n          tag_42\n          0x04\n          dup1\n          calldatasize\n          sub\n          dup2\n          add\n          swap1\n          tag_43\n          swap2\n          swap1\n          tag_44\n          jump\t// in\n        tag_43:\n          tag_45\n          jump\t// in\n        tag_42:\n          mload(0x40)\n          tag_46\n          swap2\n          swap1\n          tag_24\n          jump\t// in\n        tag_46:\n          mload(0x40)\n          dup1\n          swap2\n          sub\n          swap1\n          return\n            /* \"LOTERIA/ERC20.sol\":1960:2009  string public constant NAME = \"ERC20BlockchainAZ\" */\n        tag_10:\n          tag_47\n          tag_48\n          jump\t// in\n        tag_47:\n          mload(0x40)\n          tag_49\n          swap2\n          swap1\n          tag_50\n          jump\t// in\n        tag_49:\n          mload(0x40)\n          dup1\n          swap2\n          sub\n          swap1\n          return\n            /* \"LOTERIA/ERC20.sol\":3121:3606  function transfer(address _recipient, uint _numTokens) public override returns(bool) {... */\n        tag_11:\n          tag_51\n          0x04\n          dup1\n          calldatasize\n          sub\n          dup2\n          add\n          swap1\n          tag_52\n          swap2\n          swap1\n          tag_17\n          jump\t// in\n        tag_52:\n          tag_53\n          jump\t// in\n        tag_51:\n          mload(0x40)\n          tag_54\n          swap2\n          swap1\n          tag_20\n          jump\t// in\n        tag_54:\n          mload(0x40)\n          dup1\n          swap2\n          sub\n          swap1\n          return\n            /* \"LOTERIA/ERC20.sol\":2972:3113  function allowance(address _owner, address _delegate) public override view returns(uint) {... */\n        tag_12:\n          tag_55\n          0x04\n          dup1\n          calldatasize\n          sub\n          dup2\n          add\n          swap1\n          tag_56\n          swap2\n          swap1\n          tag_57\n          jump\t// in\n        tag_56:\n          tag_58\n          jump\t// in\n        tag_55:\n          mload(0x40)\n          tag_59\n          swap2\n          swap1\n          tag_24\n          jump\t// in\n        tag_59:\n          mload(0x40)\n          dup1\n          swap2\n          sub\n          swap1\n          return\n            /* \"LOTERIA/ERC20.sol\":2016:2053  string public constant SYMBOL = \"ERC\" */\n        tag_13:\n          tag_60\n          tag_61\n          jump\t// in\n        tag_60:\n          mload(0x40)\n          tag_62\n          swap2\n          swap1\n          tag_50\n          jump\t// in\n        tag_62:\n          mload(0x40)\n          dup1\n          swap2\n          sub\n          swap1\n          return\n            /* \"LOTERIA/ERC20.sol\":4120:4346  function approve(address _delegate, uint _numTokens) public override returns(bool) {... */\n        tag_18:\n            /* \"LOTERIA/ERC20.sol\":4197:4201  bool */\n          0x00\n            /* \"LOTERIA/ERC20.sol\":4247:4257  _numTokens */\n          dup2\n            /* \"LOTERIA/ERC20.sol\":4214:4221  allowed */\n          0x01\n            /* \"LOTERIA/ERC20.sol\":4214:4233  allowed[msg.sender] */\n          0x00\n            /* \"LOTERIA/ERC20.sol\":4222:4232  msg.sender */\n          caller\n            /* \"LOTERIA/ERC20.sol\":4214:4233  allowed[msg.sender] */\n          0xffffffffffffffffffffffffffffffffffffffff\n          and\n          0xffffffffffffffffffffffffffffffffffffffff\n          and\n          dup2\n          mstore\n          0x20\n          add\n          swap1\n          dup2\n          mstore\n          0x20\n          add\n          0x00\n          keccak256\n            /* \"LOTERIA/ERC20.sol\":4214:4244  allowed[msg.sender][_delegate] */\n          0x00\n            /* \"LOTERIA/ERC20.sol\":4234:4243  _delegate */\n          dup6\n            /* \"LOTERIA/ERC20.sol\":4214:4244  allowed[msg.sender][_delegate] */\n          0xffffffffffffffffffffffffffffffffffffffff\n          and\n          0xffffffffffffffffffffffffffffffffffffffff\n          and\n          dup2\n          mstore\n          0x20\n          add\n          swap1\n          dup2\n          mstore\n          0x20\n          add\n          0x00\n          keccak256\n            /* \"LOTERIA/ERC20.sol\":4214:4257  allowed[msg.sender][_delegate] = _numTokens */\n          dup2\n          swap1\n          sstore\n          pop\n            /* \"LOTERIA/ERC20.sol\":4294:4303  _delegate */\n          dup3\n            /* \"LOTERIA/ERC20.sol\":4273:4316  Approval(msg.sender, _delegate, _numTokens) */\n          0xffffffffffffffffffffffffffffffffffffffff\n          and\n            /* \"LOTERIA/ERC20.sol\":4282:4292  msg.sender */\n          caller\n            /* \"LOTERIA/ERC20.sol\":4273:4316  Approval(msg.sender, _delegate, _numTokens) */\n          0xffffffffffffffffffffffffffffffffffffffff\n          and\n          0x8c5be1e5ebec7d5bd14f71427d1e84f3dd0314c0f7b2291e5b200ac8c7c3b925\n            /* \"LOTERIA/ERC20.sol\":4305:4315  _numTokens */\n          dup5\n            /* \"LOTERIA/ERC20.sol\":4273:4316  Approval(msg.sender, _delegate, _numTokens) */\n          mload(0x40)\n          tag_64\n          swap2\n          swap1\n          tag_24\n          jump\t// in\n        tag_64:\n          mload(0x40)\n          dup1\n          swap2\n          sub\n          swap1\n          log3\n            /* \"LOTERIA/ERC20.sol\":4334:4338  true */\n          0x01\n            /* \"LOTERIA/ERC20.sol\":4327:4338  return true */\n          swap1\n          pop\n            /* \"LOTERIA/ERC20.sol\":4120:4346  function approve(address _delegate, uint _numTokens) public override returns(bool) {... */\n          swap3\n          swap2\n          pop\n          pop\n          jump\t// out\n            /* \"LOTERIA/ERC20.sol\":2572:2668  function totalSupply() public override view returns(uint) {... */\n        tag_22:\n            /* \"LOTERIA/ERC20.sol\":2624:2628  uint */\n          0x00\n            /* \"LOTERIA/ERC20.sol\":2648:2660  totalSupply_ */\n          sload(0x02)\n            /* \"LOTERIA/ERC20.sol\":2641:2660  return totalSupply_ */\n          swap1\n          pop\n            /* \"LOTERIA/ERC20.sol\":2572:2668  function totalSupply() public override view returns(uint) {... */\n          swap1\n          jump\t// out\n            /* \"LOTERIA/ERC20.sol\":2676:2834  function increaseTotalSupply(uint newTokensAmount) public {... */\n        tag_28:\n            /* \"LOTERIA/ERC20.sol\":2761:2776  newTokensAmount */\n          dup1\n            /* \"LOTERIA/ERC20.sol\":2745:2757  totalSupply_ */\n          0x02\n          0x00\n            /* \"LOTERIA/ERC20.sol\":2745:2776  totalSupply_ += newTokensAmount */\n          dup3\n          dup3\n          sload\n          tag_67\n          swap2\n          swap1\n          tag_68\n          jump\t// in\n        tag_67:\n          swap3\n          pop\n          pop\n          dup2\n          swap1\n          sstore\n          pop\n            /* \"LOTERIA/ERC20.sol\":2811:2826  newTokensAmount */\n          dup1\n            /* \"LOTERIA/ERC20.sol\":2787:2795  balances */\n          0x00\n            /* \"LOTERIA/ERC20.sol\":2787:2807  balances[msg.sender] */\n          dup1\n            /* \"LOTERIA/ERC20.sol\":2796:2806  msg.sender */\n          caller\n            /* \"LOTERIA/ERC20.sol\":2787:2807  balances[msg.sender] */\n          0xffffffffffffffffffffffffffffffffffffffff\n          and\n          0xffffffffffffffffffffffffffffffffffffffff\n          and\n          dup2\n          mstore\n          0x20\n          add\n          swap1\n          dup2\n          mstore\n          0x20\n          add\n          0x00\n          keccak256\n          0x00\n            /* \"LOTERIA/ERC20.sol\":2787:2826  balances[msg.sender] += newTokensAmount */\n          dup3\n          dup3\n          sload\n          tag_69\n          swap2\n          swap1\n          tag_68\n          jump\t// in\n        tag_69:\n          swap3\n          pop\n          pop\n          dup2\n          swap1\n          sstore\n          pop\n            /* \"LOTERIA/ERC20.sol\":2676:2834  function increaseTotalSupply(uint newTokensAmount) public {... */\n          pop\n          jump\t// out\n            /* \"LOTERIA/ERC20.sol\":4354:4862  function transferFrom(address _owner, address _buyer, uint _numTokens) public override returns(bool) {... */\n        tag_32:\n            /* \"LOTERIA/ERC20.sol\":4449:4453  bool */\n          0x00\n            /* \"LOTERIA/ERC20.sol\":4488:4496  balances */\n          dup1\n            /* \"LOTERIA/ERC20.sol\":4488:4504  balances[_owner] */\n          0x00\n            /* \"LOTERIA/ERC20.sol\":4497:4503  _owner */\n          dup6\n            /* \"LOTERIA/ERC20.sol\":4488:4504  balances[_owner] */\n          0xffffffffffffffffffffffffffffffffffffffff\n          and\n          0xffffffffffffffffffffffffffffffffffffffff\n          and\n          dup2\n          mstore\n          0x20\n          add\n          swap1\n          dup2\n          mstore\n          0x20\n          add\n          0x00\n          keccak256\n          sload\n            /* \"LOTERIA/ERC20.sol\":4474:4484  _numTokens */\n          dup3\n            /* \"LOTERIA/ERC20.sol\":4474:4504  _numTokens <= balances[_owner] */\n          gt\n          iszero\n            /* \"LOTERIA/ERC20.sol\":4466:4505  require(_numTokens <= balances[_owner]) */\n          tag_71\n          jumpi\n          0x00\n          dup1\n          revert\n        tag_71:\n            /* \"LOTERIA/ERC20.sol\":4538:4545  allowed */\n          0x01\n            /* \"LOTERIA/ERC20.sol\":4538:4553  allowed[_owner] */\n          0x00\n            /* \"LOTERIA/ERC20.sol\":4546:4552  _owner */\n          dup6\n            /* \"LOTERIA/ERC20.sol\":4538:4553  allowed[_owner] */\n          0xffffffffffffffffffffffffffffffffffffffff\n          and\n          0xffffffffffffffffffffffffffffffffffffffff\n          and\n          dup2\n          mstore\n          0x20\n          add\n          swap1\n          dup2\n          mstore\n          0x20\n          add\n          0x00\n          keccak256\n            /* \"LOTERIA/ERC20.sol\":4538:4565  allowed[_owner][msg.sender] */\n          0x00\n            /* \"LOTERIA/ERC20.sol\":4554:4564  msg.sender */\n          caller\n            /* \"LOTERIA/ERC20.sol\":4538:4565  allowed[_owner][msg.sender] */\n          0xffffffffffffffffffffffffffffffffffffffff\n          and\n          0xffffffffffffffffffffffffffffffffffffffff\n          and\n          dup2\n          mstore\n          0x20\n          add\n          swap1\n          dup2\n          mstore\n          0x20\n          add\n          0x00\n          keccak256\n          sload\n            /* \"LOTERIA/ERC20.sol\":4524:4534  _numTokens */\n          dup3\n            /* \"LOTERIA/ERC20.sol\":4524:4565  _numTokens <= allowed[_owner][msg.sender] */\n          gt\n          iszero\n            /* \"LOTERIA/ERC20.sol\":4516:4566  require(_numTokens <= allowed[_owner][msg.sender]) */\n          tag_72\n          jumpi\n          0x00\n          dup1\n          revert\n        tag_72:\n            /* \"LOTERIA/ERC20.sol\":4598:4630  balances[_owner].sub(_numTokens) */\n          tag_73\n            /* \"LOTERIA/ERC20.sol\":4619:4629  _numTokens */\n          dup3\n            /* \"LOTERIA/ERC20.sol\":4598:4606  balances */\n          0x00\n            /* \"LOTERIA/ERC20.sol\":4598:4614  balances[_owner] */\n          dup1\n            /* \"LOTERIA/ERC20.sol\":4607:4613  _owner */\n          dup8\n            /* \"LOTERIA/ERC20.sol\":4598:4614  balances[_owner] */\n          0xffffffffffffffffffffffffffffffffffffffff\n          and\n          0xffffffffffffffffffffffffffffffffffffffff\n          and\n          dup2\n          mstore\n          0x20\n          add\n          swap1\n          dup2\n          mstore\n          0x20\n          add\n          0x00\n          keccak256\n          sload\n            /* \"LOTERIA/ERC20.sol\":4598:4618  balances[_owner].sub */\n          tag_74\n          swap1\n            /* \"LOTERIA/ERC20.sol\":4598:4630  balances[_owner].sub(_numTokens) */\n          swap2\n          swap1\n          0xffffffff\n          and\n          jump\t// in\n        tag_73:\n            /* \"LOTERIA/ERC20.sol\":4579:4587  balances */\n          0x00\n            /* \"LOTERIA/ERC20.sol\":4579:4595  balances[_owner] */\n          dup1\n            /* \"LOTERIA/ERC20.sol\":4588:4594  _owner */\n          dup7\n            /* \"LOTERIA/ERC20.sol\":4579:4595  balances[_owner] */\n          0xffffffffffffffffffffffffffffffffffffffff\n          and\n          0xffffffffffffffffffffffffffffffffffffffff\n          and\n          dup2\n          mstore\n          0x20\n          add\n          swap1\n          dup2\n          mstore\n          0x20\n          add\n          0x00\n          keccak256\n            /* \"LOTERIA/ERC20.sol\":4579:4630  balances[_owner] = balances[_owner].sub(_numTokens) */\n          dup2\n          swap1\n          sstore\n          pop\n            /* \"LOTERIA/ERC20.sol\":4671:4714  allowed[_owner][msg.sender].sub(_numTokens) */\n          tag_75\n            /* \"LOTERIA/ERC20.sol\":4703:4713  _numTokens */\n          dup3\n            /* \"LOTERIA/ERC20.sol\":4671:4678  allowed */\n          0x01\n            /* \"LOTERIA/ERC20.sol\":4671:4686  allowed[_owner] */\n          0x00\n            /* \"LOTERIA/ERC20.sol\":4679:4685  _owner */\n          dup8\n            /* \"LOTERIA/ERC20.sol\":4671:4686  allowed[_owner] */\n          0xffffffffffffffffffffffffffffffffffffffff\n          and\n          0xffffffffffffffffffffffffffffffffffffffff\n          and\n          dup2\n          mstore\n          0x20\n          add\n          swap1\n          dup2\n          mstore\n          0x20\n          add\n          0x00\n          keccak256\n            /* \"LOTERIA/ERC20.sol\":4671:4698  allowed[_owner][msg.sender] */\n          0x00\n            /* \"LOTERIA/ERC20.sol\":4687:4697  msg.sender */\n          caller\n            /* \"LOTERIA/ERC20.sol\":4671:4698  allowed[_owner][msg.sender] */\n          0xffffffffffffffffffffffffffffffffffffffff\n          and\n          0xffffffffffffffffffffffffffffffffffffffff\n          and\n          dup2\n          mstore\n          0x20\n          add\n          swap1\n          dup2\n          mstore\n          0x20\n          add\n          0x00\n          keccak256\n          sload\n            /* \"LOTERIA/ERC20.sol\":4671:4702  allowed[_owner][msg.sender].sub */\n          tag_74\n          swap1\n            /* \"LOTERIA/ERC20.sol\":4671:4714  allowed[_owner][msg.sender].sub(_numTokens) */\n          swap2\n          swap1\n          0xffffffff\n          and\n          jump\t// in\n        tag_75:\n            /* \"LOTERIA/ERC20.sol\":4641:4648  allowed */\n          0x01\n            /* \"LOTERIA/ERC20.sol\":4641:4656  allowed[_owner] */\n          0x00\n            /* \"LOTERIA/ERC20.sol\":4649:4655  _owner */\n          dup7\n            /* \"LOTERIA/ERC20.sol\":4641:4656  allowed[_owner] */\n          0xffffffffffffffffffffffffffffffffffffffff\n          and\n          0xffffffffffffffffffffffffffffffffffffffff\n          and\n          dup2\n          mstore\n          0x20\n          add\n          swap1\n          dup2\n          mstore\n          0x20\n          add\n          0x00\n          keccak256\n            /* \"LOTERIA/ERC20.sol\":4641:4668  allowed[_owner][msg.sender] */\n          0x00\n            /* \"LOTERIA/ERC20.sol\":4657:4667  msg.sender */\n          caller\n            /* \"LOTERIA/ERC20.sol\":4641:4668  allowed[_owner][msg.sender] */\n          0xffffffffffffffffffffffffffffffffffffffff\n          and\n          0xffffffffffffffffffffffffffffffffffffffff\n          and\n          dup2\n          mstore\n          0x20\n          add\n          swap1\n          dup2\n          mstore\n          0x20\n          add\n          0x00\n          keccak256\n            /* \"LOTERIA/ERC20.sol\":4641:4714  allowed[_owner][msg.sender] = allowed[_owner][msg.sender].sub(_numTokens) */\n          dup2\n          swap1\n          sstore\n          pop\n            /* \"LOTERIA/ERC20.sol\":4744:4776  balances[_buyer].add(_numTokens) */\n          tag_76\n            /* \"LOTERIA/ERC20.sol\":4765:4775  _numTokens */\n          dup3\n            /* \"LOTERIA/ERC20.sol\":4744:4752  balances */\n          0x00\n            /* \"LOTERIA/ERC20.sol\":4744:4760  balances[_buyer] */\n          dup1\n            /* \"LOTERIA/ERC20.sol\":4753:4759  _buyer */\n          dup7\n            /* \"LOTERIA/ERC20.sol\":4744:4760  balances[_buyer] */\n          0xffffffffffffffffffffffffffffffffffffffff\n          and\n          0xffffffffffffffffffffffffffffffffffffffff\n          and\n          dup2\n          mstore\n          0x20\n          add\n          swap1\n          dup2\n          mstore\n          0x20\n          add\n          0x00\n          keccak256\n          sload\n            /* \"LOTERIA/ERC20.sol\":4744:4764  balances[_buyer].add */\n          tag_77\n          swap1\n            /* \"LOTERIA/ERC20.sol\":4744:4776  balances[_buyer].add(_numTokens) */\n          swap2\n          swap1\n          0xffffffff\n          and\n          jump\t// in\n        tag_76:\n            /* \"LOTERIA/ERC20.sol\":4725:4733  balances */\n          0x00\n            /* \"LOTERIA/ERC20.sol\":4725:4741  balances[_buyer] */\n          dup1\n            /* \"LOTERIA/ERC20.sol\":4734:4740  _buyer */\n          dup6\n            /* \"LOTERIA/ERC20.sol\":4725:4741  balances[_buyer] */\n          0xffffffffffffffffffffffffffffffffffffffff\n          and\n          0xffffffffffffffffffffffffffffffffffffffff\n          and\n          dup2\n          mstore\n          0x20\n          add\n          swap1\n          dup2\n          mstore\n          0x20\n          add\n          0x00\n          keccak256\n            /* \"LOTERIA/ERC20.sol\":4725:4776  balances[_buyer] = balances[_buyer].add(_numTokens) */\n          dup2\n          swap1\n          sstore\n          pop\n            /* \"LOTERIA/ERC20.sol\":4811:4817  _buyer */\n          dup3\n            /* \"LOTERIA/ERC20.sol\":4794:4830  Transfer(_owner, _buyer, _numTokens) */\n          0xffffffffffffffffffffffffffffffffffffffff\n          and\n            /* \"LOTERIA/ERC20.sol\":4803:4809  _owner */\n          dup5\n            /* \"LOTERIA/ERC20.sol\":4794:4830  Transfer(_owner, _buyer, _numTokens) */\n          0xffffffffffffffffffffffffffffffffffffffff\n          and\n          0xddf252ad1be2c89b69c2b068fc378daa952ba7f163c4a11628f55a4df523b3ef\n            /* \"LOTERIA/ERC20.sol\":4819:4829  _numTokens */\n          dup5\n            /* \"LOTERIA/ERC20.sol\":4794:4830  Transfer(_owner, _buyer, _numTokens) */\n          mload(0x40)\n          tag_78\n          swap2\n          swap1\n          tag_24\n          jump\t// in\n        tag_78:\n          mload(0x40)\n          dup1\n          swap2\n          sub\n          swap1\n          log3\n            /* \"LOTERIA/ERC20.sol\":4850:4854  true */\n          0x01\n            /* \"LOTERIA/ERC20.sol\":4843:4854  return true */\n          swap1\n          pop\n            /* \"LOTERIA/ERC20.sol\":4354:4862  function transferFrom(address _owner, address _buyer, uint _numTokens) public override returns(bool) {... */\n          swap4\n          swap3\n          pop\n          pop\n          pop\n          jump\t// out\n            /* \"LOTERIA/ERC20.sol\":2060:2094  uint8 public constant DECIMALS = 2 */\n        tag_35:\n            /* \"LOTERIA/ERC20.sol\":2093:2094  2 */\n          0x02\n            /* \"LOTERIA/ERC20.sol\":2060:2094  uint8 public constant DECIMALS = 2 */\n          dup2\n          jump\t// out\n            /* \"LOTERIA/ERC20.sol\":3614:4112  function transferLoteria(address _client, address _recipient, uint _numTokens) public override returns(bool) {... */\n        tag_40:\n            /* \"LOTERIA/ERC20.sol\":3717:3721  bool */\n          0x00\n            /* \"LOTERIA/ERC20.sol\":3756:3764  balances */\n          dup1\n            /* \"LOTERIA/ERC20.sol\":3756:3773  balances[_client] */\n          0x00\n            /* \"LOTERIA/ERC20.sol\":3765:3772  _client */\n          dup6\n            /* \"LOTERIA/ERC20.sol\":3756:3773  balances[_client] */\n          0xffffffffffffffffffffffffffffffffffffffff\n          and\n          0xffffffffffffffffffffffffffffffffffffffff\n          and\n          dup2\n          mstore\n          0x20\n          add\n          swap1\n          dup2\n          mstore\n          0x20\n          add\n          0x00\n          keccak256\n          sload\n            /* \"LOTERIA/ERC20.sol\":3742:3752  _numTokens */\n          dup3\n            /* \"LOTERIA/ERC20.sol\":3742:3773  _numTokens <= balances[_client] */\n          gt\n          iszero\n            /* \"LOTERIA/ERC20.sol\":3734:3774  require(_numTokens <= balances[_client]) */\n          tag_80\n          jumpi\n          0x00\n          dup1\n          revert\n        tag_80:\n            /* \"LOTERIA/ERC20.sol\":3861:3894  balances[_client].sub(_numTokens) */\n          tag_81\n            /* \"LOTERIA/ERC20.sol\":3883:3893  _numTokens */\n          dup3\n            /* \"LOTERIA/ERC20.sol\":3861:3869  balances */\n          0x00\n            /* \"LOTERIA/ERC20.sol\":3861:3878  balances[_client] */\n          dup1\n            /* \"LOTERIA/ERC20.sol\":3870:3877  _client */\n          dup8\n            /* \"LOTERIA/ERC20.sol\":3861:3878  balances[_client] */\n          0xffffffffffffffffffffffffffffffffffffffff\n          and\n          0xffffffffffffffffffffffffffffffffffffffff\n          and\n          dup2\n          mstore\n          0x20\n          add\n          swap1\n          dup2\n          mstore\n          0x20\n          add\n          0x00\n          keccak256\n          sload\n            /* \"LOTERIA/ERC20.sol\":3861:3882  balances[_client].sub */\n          tag_74\n          swap1\n            /* \"LOTERIA/ERC20.sol\":3861:3894  balances[_client].sub(_numTokens) */\n          swap2\n          swap1\n          0xffffffff\n          and\n          jump\t// in\n        tag_81:\n            /* \"LOTERIA/ERC20.sol\":3841:3849  balances */\n          0x00\n            /* \"LOTERIA/ERC20.sol\":3841:3858  balances[_client] */\n          dup1\n            /* \"LOTERIA/ERC20.sol\":3850:3857  _client */\n          dup7\n            /* \"LOTERIA/ERC20.sol\":3841:3858  balances[_client] */\n          0xffffffffffffffffffffffffffffffffffffffff\n          and\n          0xffffffffffffffffffffffffffffffffffffffff\n          and\n          dup2\n          mstore\n          0x20\n          add\n          swap1\n          dup2\n          mstore\n          0x20\n          add\n          0x00\n          keccak256\n            /* \"LOTERIA/ERC20.sol\":3841:3894  balances[_client] = balances[_client].sub(_numTokens) */\n          dup2\n          swap1\n          sstore\n          pop\n            /* \"LOTERIA/ERC20.sol\":3985:4021  balances[_recipient].add(_numTokens) */\n          tag_82\n            /* \"LOTERIA/ERC20.sol\":4010:4020  _numTokens */\n          dup3\n            /* \"LOTERIA/ERC20.sol\":3985:3993  balances */\n          0x00\n            /* \"LOTERIA/ERC20.sol\":3985:4005  balances[_recipient] */\n          dup1\n            /* \"LOTERIA/ERC20.sol\":3994:4004  _recipient */\n          dup7\n            /* \"LOTERIA/ERC20.sol\":3985:4005  balances[_recipient] */\n          0xffffffffffffffffffffffffffffffffffffffff\n          and\n          0xffffffffffffffffffffffffffffffffffffffff\n          and\n          dup2\n          mstore\n          0x20\n          add\n          swap1\n          dup2\n          mstore\n          0x20\n          add\n          0x00\n          keccak256\n          sload\n            /* \"LOTERIA/ERC20.sol\":3985:4009  balances[_recipient].add */\n          tag_77\n          swap1\n            /* \"LOTERIA/ERC20.sol\":3985:4021  balances[_recipient].add(_numTokens) */\n          swap2\n          swap1\n          0xffffffff\n          and\n          jump\t// in\n        tag_82:\n            /* \"LOTERIA/ERC20.sol\":3962:3970  balances */\n          0x00\n            /* \"LOTERIA/ERC20.sol\":3962:3982  balances[_recipient] */\n          dup1\n            /* \"LOTERIA/ERC20.sol\":3971:3981  _recipient */\n          dup6\n            /* \"LOTERIA/ERC20.sol\":3962:3982  balances[_recipient] */\n          0xffffffffffffffffffffffffffffffffffffffff\n          and\n          0xffffffffffffffffffffffffffffffffffffffff\n          and\n          dup2\n          mstore\n          0x20\n          add\n          swap1\n          dup2\n          mstore\n          0x20\n          add\n          0x00\n          keccak256\n            /* \"LOTERIA/ERC20.sol\":3962:4021  balances[_recipient] = balances[_recipient].add(_numTokens) */\n          dup2\n          swap1\n          sstore\n          pop\n            /* \"LOTERIA/ERC20.sol\":4057:4067  _recipient */\n          dup3\n            /* \"LOTERIA/ERC20.sol\":4039:4080  Transfer(_client, _recipient, _numTokens) */\n          0xffffffffffffffffffffffffffffffffffffffff\n          and\n            /* \"LOTERIA/ERC20.sol\":4048:4055  _client */\n          dup5\n            /* \"LOTERIA/ERC20.sol\":4039:4080  Transfer(_client, _recipient, _numTokens) */\n          0xffffffffffffffffffffffffffffffffffffffff\n          and\n          0xddf252ad1be2c89b69c2b068fc378daa952ba7f163c4a11628f55a4df523b3ef\n            /* \"LOTERIA/ERC20.sol\":4069:4079  _numTokens */\n          dup5\n            /* \"LOTERIA/ERC20.sol\":4039:4080  Transfer(_client, _recipient, _numTokens) */\n          mload(0x40)\n          tag_83\n          swap2\n          swap1\n          tag_24\n          jump\t// in\n        tag_83:\n          mload(0x40)\n          dup1\n          swap2\n          sub\n          swap1\n          log3\n            /* \"LOTERIA/ERC20.sol\":4100:4104  true */\n          0x01\n            /* \"LOTERIA/ERC20.sol\":4093:4104  return true */\n          swap1\n          pop\n            /* \"LOTERIA/ERC20.sol\":3614:4112  function transferLoteria(address _client, address _recipient, uint _numTokens) public override returns(bool) {... */\n          swap4\n          swap3\n          pop\n          pop\n          pop\n          jump\t// out\n            /* \"LOTERIA/ERC20.sol\":2842:2964  function balanceOf(address _tokenOwner) public override view returns(uint) {... */\n        tag_45:\n            /* \"LOTERIA/ERC20.sol\":2911:2915  uint */\n          0x00\n            /* \"LOTERIA/ERC20.sol\":2935:2943  balances */\n          dup1\n            /* \"LOTERIA/ERC20.sol\":2935:2956  balances[_tokenOwner] */\n          0x00\n            /* \"LOTERIA/ERC20.sol\":2944:2955  _tokenOwner */\n          dup4\n            /* \"LOTERIA/ERC20.sol\":2935:2956  balances[_tokenOwner] */\n          0xffffffffffffffffffffffffffffffffffffffff\n          and\n          0xffffffffffffffffffffffffffffffffffffffff\n          and\n          dup2\n          mstore\n          0x20\n          add\n          swap1\n          dup2\n          mstore\n          0x20\n          add\n          0x00\n          keccak256\n          sload\n            /* \"LOTERIA/ERC20.sol\":2928:2956  return balances[_tokenOwner] */\n          swap1\n          pop\n            /* \"LOTERIA/ERC20.sol\":2842:2964  function balanceOf(address _tokenOwner) public override view returns(uint) {... */\n          swap2\n          swap1\n          pop\n          jump\t// out\n            /* \"LOTERIA/ERC20.sol\":1960:2009  string public constant NAME = \"ERC20BlockchainAZ\" */\n        tag_48:\n          mload(0x40)\n          dup1\n          0x40\n          add\n          0x40\n          mstore\n          dup1\n          0x11\n          dup2\n          mstore\n          0x20\n          add\n          0x4552433230426c6f636b636861696e415a000000000000000000000000000000\n          dup2\n          mstore\n          pop\n          dup2\n          jump\t// out\n            /* \"LOTERIA/ERC20.sol\":3121:3606  function transfer(address _recipient, uint _numTokens) public override returns(bool) {... */\n        tag_53:\n            /* \"LOTERIA/ERC20.sol\":3200:3204  bool */\n          0x00\n            /* \"LOTERIA/ERC20.sol\":3239:3247  balances */\n          dup1\n            /* \"LOTERIA/ERC20.sol\":3239:3259  balances[msg.sender] */\n          0x00\n            /* \"LOTERIA/ERC20.sol\":3248:3258  msg.sender */\n          caller\n            /* \"LOTERIA/ERC20.sol\":3239:3259  balances[msg.sender] */\n          0xffffffffffffffffffffffffffffffffffffffff\n          and\n          0xffffffffffffffffffffffffffffffffffffffff\n          and\n          dup2\n          mstore\n          0x20\n          add\n          swap1\n          dup2\n          mstore\n          0x20\n          add\n          0x00\n          keccak256\n          sload\n            /* \"LOTERIA/ERC20.sol\":3225:3235  _numTokens */\n          dup3\n            /* \"LOTERIA/ERC20.sol\":3225:3259  _numTokens <= balances[msg.sender] */\n          gt\n          iszero\n            /* \"LOTERIA/ERC20.sol\":3217:3260  require(_numTokens <= balances[msg.sender]) */\n          tag_86\n          jumpi\n          0x00\n          dup1\n          revert\n        tag_86:\n            /* \"LOTERIA/ERC20.sol\":3349:3385  balances[msg.sender].sub(_numTokens) */\n          tag_87\n            /* \"LOTERIA/ERC20.sol\":3374:3384  _numTokens */\n          dup3\n            /* \"LOTERIA/ERC20.sol\":3349:3357  balances */\n          0x00\n            /* \"LOTERIA/ERC20.sol\":3349:3369  balances[msg.sender] */\n          dup1\n            /* \"LOTERIA/ERC20.sol\":3358:3368  msg.sender */\n          caller\n            /* \"LOTERIA/ERC20.sol\":3349:3369  balances[msg.sender] */\n          0xffffffffffffffffffffffffffffffffffffffff\n          and\n          0xffffffffffffffffffffffffffffffffffffffff\n          and\n          dup2\n          mstore\n          0x20\n          add\n          swap1\n          dup2\n          mstore\n          0x20\n          add\n          0x00\n          keccak256\n          sload\n            /* \"LOTERIA/ERC20.sol\":3349:3373  balances[msg.sender].sub */\n          tag_74\n          swap1\n            /* \"LOTERIA/ERC20.sol\":3349:3385  balances[msg.sender].sub(_numTokens) */\n          swap2\n          swap1\n          0xffffffff\n          and\n          jump\t// in\n        tag_87:\n            /* \"LOTERIA/ERC20.sol\":3326:3334  balances */\n          0x00\n            /* \"LOTERIA/ERC20.sol\":3326:3346  balances[msg.sender] */\n          dup1\n            /* \"LOTERIA/ERC20.sol\":3335:3345  msg.sender */\n          caller\n            /* \"LOTERIA/ERC20.sol\":3326:3346  balances[msg.sender] */\n          0xffffffffffffffffffffffffffffffffffffffff\n          and\n          0xffffffffffffffffffffffffffffffffffffffff\n          and\n          dup2\n          mstore\n          0x20\n          add\n          swap1\n          dup2\n          mstore\n          0x20\n          add\n          0x00\n          keccak256\n            /* \"LOTERIA/ERC20.sol\":3326:3385  balances[msg.sender] = balances[msg.sender].sub(_numTokens) */\n          dup2\n          swap1\n          sstore\n          pop\n            /* \"LOTERIA/ERC20.sol\":3476:3512  balances[_recipient].add(_numTokens) */\n          tag_88\n            /* \"LOTERIA/ERC20.sol\":3501:3511  _numTokens */\n          dup3\n            /* \"LOTERIA/ERC20.sol\":3476:3484  balances */\n          0x00\n            /* \"LOTERIA/ERC20.sol\":3476:3496  balances[_recipient] */\n          dup1\n            /* \"LOTERIA/ERC20.sol\":3485:3495  _recipient */\n          dup7\n            /* \"LOTERIA/ERC20.sol\":3476:3496  balances[_recipient] */\n          0xffffffffffffffffffffffffffffffffffffffff\n          and\n          0xffffffffffffffffffffffffffffffffffffffff\n          and\n          dup2\n          mstore\n          0x20\n          add\n          swap1\n          dup2\n          mstore\n          0x20\n          add\n          0x00\n          keccak256\n          sload\n            /* \"LOTERIA/ERC20.sol\":3476:3500  balances[_recipient].add */\n          tag_77\n          swap1\n            /* \"LOTERIA/ERC20.sol\":3476:3512  balances[_recipient].add(_numTokens) */\n          swap2\n          swap1\n          0xffffffff\n          and\n          jump\t// in\n        tag_88:\n            /* \"LOTERIA/ERC20.sol\":3453:3461  balances */\n          0x00\n            /* \"LOTERIA/ERC20.sol\":3453:3473  balances[_recipient] */\n          dup1\n            /* \"LOTERIA/ERC20.sol\":3462:3472  _recipient */\n          dup6\n            /* \"LOTERIA/ERC20.sol\":3453:3473  balances[_recipient] */\n          0xffffffffffffffffffffffffffffffffffffffff\n          and\n          0xffffffffffffffffffffffffffffffffffffffff\n          and\n          dup2\n          mstore\n          0x20\n          add\n          swap1\n          dup2\n          mstore\n          0x20\n          add\n          0x00\n          keccak256\n            /* \"LOTERIA/ERC20.sol\":3453:3512  balances[_recipient] = balances[_recipient].add(_numTokens) */\n          dup2\n          swap1\n          sstore\n          pop\n            /* \"LOTERIA/ERC20.sol\":3551:3561  _recipient */\n          dup3\n            /* \"LOTERIA/ERC20.sol\":3530:3574  Transfer(msg.sender, _recipient, _numTokens) */\n          0xffffffffffffffffffffffffffffffffffffffff\n          and\n            /* \"LOTERIA/ERC20.sol\":3539:3549  msg.sender */\n          caller\n            /* \"LOTERIA/ERC20.sol\":3530:3574  Transfer(msg.sender, _recipient, _numTokens) */\n          0xffffffffffffffffffffffffffffffffffffffff\n          and\n          0xddf252ad1be2c89b69c2b068fc378daa952ba7f163c4a11628f55a4df523b3ef\n            /* \"LOTERIA/ERC20.sol\":3563:3573  _numTokens */\n          dup5\n            /* \"LOTERIA/ERC20.sol\":3530:3574  Transfer(msg.sender, _recipient, _numTokens) */\n          mload(0x40)\n          tag_89\n          swap2\n          swap1\n          tag_24\n          jump\t// in\n        tag_89:\n          mload(0x40)\n          dup1\n          swap2\n          sub\n          swap1\n          log3\n            /* \"LOTERIA/ERC20.sol\":3594:3598  true */\n          0x01\n            /* \"LOTERIA/ERC20.sol\":3587:3598  return true */\n          swap1\n          pop\n            /* \"LOTERIA/ERC20.sol\":3121:3606  function transfer(address _recipient, uint _numTokens) public override returns(bool) {... */\n          swap3\n          swap2\n          pop\n          pop\n          jump\t// out\n            /* \"LOTERIA/ERC20.sol\":2972:3113  function allowance(address _owner, address _delegate) public override view returns(uint) {... */\n        tag_58:\n            /* \"LOTERIA/ERC20.sol\":3055:3059  uint */\n          0x00\n            /* \"LOTERIA/ERC20.sol\":3079:3086  allowed */\n          0x01\n            /* \"LOTERIA/ERC20.sol\":3079:3094  allowed[_owner] */\n          0x00\n            /* \"LOTERIA/ERC20.sol\":3087:3093  _owner */\n          dup5\n            /* \"LOTERIA/ERC20.sol\":3079:3094  allowed[_owner] */\n          0xffffffffffffffffffffffffffffffffffffffff\n          and\n          0xffffffffffffffffffffffffffffffffffffffff\n          and\n          dup2\n          mstore\n          0x20\n          add\n          swap1\n          dup2\n          mstore\n          0x20\n          add\n          0x00\n          keccak256\n            /* \"LOTERIA/ERC20.sol\":3079:3105  allowed[_owner][_delegate] */\n          0x00\n            /* \"LOTERIA/ERC20.sol\":3095:3104  _delegate */\n          dup4\n            /* \"LOTERIA/ERC20.sol\":3079:3105  allowed[_owner][_delegate] */\n          0xffffffffffffffffffffffffffffffffffffffff\n          and\n          0xffffffffffffffffffffffffffffffffffffffff\n          and\n          dup2\n          mstore\n          0x20\n          add\n          swap1\n          dup2\n          mstore\n          0x20\n          add\n          0x00\n          keccak256\n          sload\n            /* \"LOTERIA/ERC20.sol\":3072:3105  return allowed[_owner][_delegate] */\n          swap1\n          pop\n            /* \"LOTERIA/ERC20.sol\":2972:3113  function allowance(address _owner, address _delegate) public override view returns(uint) {... */\n          swap3\n          swap2\n          pop\n          pop\n          jump\t// out\n            /* \"LOTERIA/ERC20.sol\":2016:2053  string public constant SYMBOL = \"ERC\" */\n        tag_61:\n          mload(0x40)\n          dup1\n          0x40\n          add\n          0x40\n          mstore\n          dup1\n          0x03\n          dup2\n          mstore\n          0x20\n          add\n          0x4552430000000000000000000000000000000000000000000000000000000000\n          dup2\n          mstore\n          pop\n          dup2\n          jump\t// out\n            /* \"LOTERIA/SafeMath.sol\":319:438  function sub(uint256 a, uint256 b) internal pure returns (uint256) {... */\n        tag_74:\n            /* \"LOTERIA/SafeMath.sol\":377:384  uint256 */\n          0x00\n            /* \"LOTERIA/SafeMath.sol\":407:408  a */\n          dup3\n            /* \"LOTERIA/SafeMath.sol\":402:403  b */\n          dup3\n            /* \"LOTERIA/SafeMath.sol\":402:408  b <= a */\n          gt\n          iszero\n            /* \"LOTERIA/SafeMath.sol\":395:409  assert(b <= a) */\n          tag_92\n          jumpi\n          tag_93\n          tag_94\n          jump\t// in\n        tag_93:\n        tag_92:\n            /* \"LOTERIA/SafeMath.sol\":429:430  b */\n          dup2\n            /* \"LOTERIA/SafeMath.sol\":425:426  a */\n          dup4\n            /* \"LOTERIA/SafeMath.sol\":425:430  a - b */\n          tag_95\n          swap2\n          swap1\n          tag_96\n          jump\t// in\n        tag_95:\n            /* \"LOTERIA/SafeMath.sol\":418:430  return a - b */\n          swap1\n          pop\n            /* \"LOTERIA/SafeMath.sol\":319:438  function sub(uint256 a, uint256 b) internal pure returns (uint256) {... */\n          swap3\n          swap2\n          pop\n          pop\n          jump\t// out\n            /* \"LOTERIA/SafeMath.sol\":464:605  function add(uint256 a, uint256 b) internal pure returns (uint256) {... */\n        tag_77:\n            /* \"LOTERIA/SafeMath.sol\":522:529  uint256 */\n          0x00\n            /* \"LOTERIA/SafeMath.sol\":540:549  uint256 c */\n          dup1\n            /* \"LOTERIA/SafeMath.sol\":556:557  b */\n          dup3\n            /* \"LOTERIA/SafeMath.sol\":552:553  a */\n          dup5\n            /* \"LOTERIA/SafeMath.sol\":552:557  a + b */\n          tag_98\n          swap2\n          swap1\n          tag_68\n          jump\t// in\n        tag_98:\n            /* \"LOTERIA/SafeMath.sol\":540:557  uint256 c = a + b */\n          swap1\n          pop\n            /* \"LOTERIA/SafeMath.sol\":578:579  a */\n          dup4\n            /* \"LOTERIA/SafeMath.sol\":573:574  c */\n          dup2\n            /* \"LOTERIA/SafeMath.sol\":573:579  c >= a */\n          lt\n          iszero\n            /* \"LOTERIA/SafeMath.sol\":566:580  assert(c >= a) */\n          tag_99\n          jumpi\n          tag_100\n          tag_94\n          jump\t// in\n        tag_100:\n        tag_99:\n            /* \"LOTERIA/SafeMath.sol\":596:597  c */\n          dup1\n            /* \"LOTERIA/SafeMath.sol\":589:597  return c */\n          swap2\n          pop\n          pop\n            /* \"LOTERIA/SafeMath.sol\":464:605  function add(uint256 a, uint256 b) internal pure returns (uint256) {... */\n          swap3\n          swap2\n          pop\n          pop\n          jump\t// out\n            /* \"#utility.yul\":88:205   */\n        tag_102:\n            /* \"#utility.yul\":197:198   */\n          0x00\n            /* \"#utility.yul\":194:195   */\n          dup1\n            /* \"#utility.yul\":187:199   */\n          revert\n            /* \"#utility.yul\":334:460   */\n        tag_104:\n            /* \"#utility.yul\":371:378   */\n          0x00\n            /* \"#utility.yul\":411:453   */\n          0xffffffffffffffffffffffffffffffffffffffff\n            /* \"#utility.yul\":404:409   */\n          dup3\n            /* \"#utility.yul\":400:454   */\n          and\n            /* \"#utility.yul\":389:454   */\n          swap1\n          pop\n            /* \"#utility.yul\":334:460   */\n          swap2\n          swap1\n          pop\n          jump\t// out\n            /* \"#utility.yul\":466:562   */\n        tag_105:\n            /* \"#utility.yul\":503:510   */\n          0x00\n            /* \"#utility.yul\":532:556   */\n          tag_128\n            /* \"#utility.yul\":550:555   */\n          dup3\n            /* \"#utility.yul\":532:556   */\n          tag_104\n          jump\t// in\n        tag_128:\n            /* \"#utility.yul\":521:556   */\n          swap1\n          pop\n            /* \"#utility.yul\":466:562   */\n          swap2\n          swap1\n          pop\n          jump\t// out\n            /* \"#utility.yul\":568:690   */\n        tag_106:\n            /* \"#utility.yul\":641:665   */\n          tag_130\n            /* \"#utility.yul\":659:664   */\n          dup2\n            /* \"#utility.yul\":641:665   */\n          tag_105\n          jump\t// in\n        tag_130:\n            /* \"#utility.yul\":634:639   */\n          dup2\n            /* \"#utility.yul\":631:666   */\n          eq\n            /* \"#utility.yul\":621:684   */\n          tag_131\n          jumpi\n            /* \"#utility.yul\":680:681   */\n          0x00\n            /* \"#utility.yul\":677:678   */\n          dup1\n            /* \"#utility.yul\":670:682   */\n          revert\n            /* \"#utility.yul\":621:684   */\n        tag_131:\n            /* \"#utility.yul\":568:690   */\n          pop\n          jump\t// out\n            /* \"#utility.yul\":696:835   */\n        tag_107:\n            /* \"#utility.yul\":742:747   */\n          0x00\n            /* \"#utility.yul\":780:786   */\n          dup2\n            /* \"#utility.yul\":767:787   */\n          calldataload\n            /* \"#utility.yul\":758:787   */\n          swap1\n          pop\n            /* \"#utility.yul\":796:829   */\n          tag_133\n            /* \"#utility.yul\":823:828   */\n          dup2\n            /* \"#utility.yul\":796:829   */\n          tag_106\n          jump\t// in\n        tag_133:\n            /* \"#utility.yul\":696:835   */\n          swap3\n          swap2\n          pop\n          pop\n          jump\t// out\n            /* \"#utility.yul\":841:918   */\n        tag_108:\n            /* \"#utility.yul\":878:885   */\n          0x00\n            /* \"#utility.yul\":907:912   */\n          dup2\n            /* \"#utility.yul\":896:912   */\n          swap1\n          pop\n            /* \"#utility.yul\":841:918   */\n          swap2\n          swap1\n          pop\n          jump\t// out\n            /* \"#utility.yul\":924:1046   */\n        tag_109:\n            /* \"#utility.yul\":997:1021   */\n          tag_136\n            /* \"#utility.yul\":1015:1020   */\n          dup2\n            /* \"#utility.yul\":997:1021   */\n          tag_108\n          jump\t// in\n        tag_136:\n            /* \"#utility.yul\":990:995   */\n          dup2\n            /* \"#utility.yul\":987:1022   */\n          eq\n            /* \"#utility.yul\":977:1040   */\n          tag_137\n          jumpi\n            /* \"#utility.yul\":1036:1037   */\n          0x00\n            /* \"#utility.yul\":1033:1034   */\n          dup1\n            /* \"#utility.yul\":1026:1038   */\n          revert\n            /* \"#utility.yul\":977:1040   */\n        tag_137:\n            /* \"#utility.yul\":924:1046   */\n          pop\n          jump\t// out\n            /* \"#utility.yul\":1052:1191   */\n        tag_110:\n            /* \"#utility.yul\":1098:1103   */\n          0x00\n            /* \"#utility.yul\":1136:1142   */\n          dup2\n            /* \"#utility.yul\":1123:1143   */\n          calldataload\n            /* \"#utility.yul\":1114:1143   */\n          swap1\n          pop\n            /* \"#utility.yul\":1152:1185   */\n          tag_139\n            /* \"#utility.yul\":1179:1184   */\n          dup2\n            /* \"#utility.yul\":1152:1185   */\n          tag_109\n          jump\t// in\n        tag_139:\n            /* \"#utility.yul\":1052:1191   */\n          swap3\n          swap2\n          pop\n          pop\n          jump\t// out\n            /* \"#utility.yul\":1197:1671   */\n        tag_17:\n            /* \"#utility.yul\":1265:1271   */\n          0x00\n            /* \"#utility.yul\":1273:1279   */\n          dup1\n            /* \"#utility.yul\":1322:1324   */\n          0x40\n            /* \"#utility.yul\":1310:1319   */\n          dup4\n            /* \"#utility.yul\":1301:1308   */\n          dup6\n            /* \"#utility.yul\":1297:1320   */\n          sub\n            /* \"#utility.yul\":1293:1325   */\n          slt\n            /* \"#utility.yul\":1290:1409   */\n          iszero\n          tag_141\n          jumpi\n            /* \"#utility.yul\":1328:1407   */\n          tag_142\n          tag_102\n          jump\t// in\n        tag_142:\n            /* \"#utility.yul\":1290:1409   */\n        tag_141:\n            /* \"#utility.yul\":1448:1449   */\n          0x00\n            /* \"#utility.yul\":1473:1526   */\n          tag_143\n            /* \"#utility.yul\":1518:1525   */\n          dup6\n            /* \"#utility.yul\":1509:1515   */\n          dup3\n            /* \"#utility.yul\":1498:1507   */\n          dup7\n            /* \"#utility.yul\":1494:1516   */\n          add\n            /* \"#utility.yul\":1473:1526   */\n          tag_107\n          jump\t// in\n        tag_143:\n            /* \"#utility.yul\":1463:1526   */\n          swap3\n          pop\n            /* \"#utility.yul\":1419:1536   */\n          pop\n            /* \"#utility.yul\":1575:1577   */\n          0x20\n            /* \"#utility.yul\":1601:1654   */\n          tag_144\n            /* \"#utility.yul\":1646:1653   */\n          dup6\n            /* \"#utility.yul\":1637:1643   */\n          dup3\n            /* \"#utility.yul\":1626:1635   */\n          dup7\n            /* \"#utility.yul\":1622:1644   */\n          add\n            /* \"#utility.yul\":1601:1654   */\n          tag_110\n          jump\t// in\n        tag_144:\n            /* \"#utility.yul\":1591:1654   */\n          swap2\n          pop\n            /* \"#utility.yul\":1546:1664   */\n          pop\n            /* \"#utility.yul\":1197:1671   */\n          swap3\n          pop\n          swap3\n          swap1\n          pop\n          jump\t// out\n            /* \"#utility.yul\":1677:1767   */\n        tag_111:\n            /* \"#utility.yul\":1711:1718   */\n          0x00\n            /* \"#utility.yul\":1754:1759   */\n          dup2\n            /* \"#utility.yul\":1747:1760   */\n          iszero\n            /* \"#utility.yul\":1740:1761   */\n          iszero\n            /* \"#utility.yul\":1729:1761   */\n          swap1\n          pop\n            /* \"#utility.yul\":1677:1767   */\n          swap2\n          swap1\n          pop\n          jump\t// out\n            /* \"#utility.yul\":1773:1882   */\n        tag_112:\n            /* \"#utility.yul\":1854:1875   */\n          tag_147\n            /* \"#utility.yul\":1869:1874   */\n          dup2\n            /* \"#utility.yul\":1854:1875   */\n          tag_111\n          jump\t// in\n        tag_147:\n            /* \"#utility.yul\":1849:1852   */\n          dup3\n            /* \"#utility.yul\":1842:1876   */\n          mstore\n            /* \"#utility.yul\":1773:1882   */\n          pop\n          pop\n          jump\t// out\n            /* \"#utility.yul\":1888:2098   */\n        tag_20:\n            /* \"#utility.yul\":1975:1979   */\n          0x00\n            /* \"#utility.yul\":2013:2015   */\n          0x20\n            /* \"#utility.yul\":2002:2011   */\n          dup3\n            /* \"#utility.yul\":1998:2016   */\n          add\n            /* \"#utility.yul\":1990:2016   */\n          swap1\n          pop\n            /* \"#utility.yul\":2026:2091   */\n          tag_149\n            /* \"#utility.yul\":2088:2089   */\n          0x00\n            /* \"#utility.yul\":2077:2086   */\n          dup4\n            /* \"#utility.yul\":2073:2090   */\n          add\n            /* \"#utility.yul\":2064:2070   */\n          dup5\n            /* \"#utility.yul\":2026:2091   */\n          tag_112\n          jump\t// in\n        tag_149:\n            /* \"#utility.yul\":1888:2098   */\n          swap3\n          swap2\n          pop\n          pop\n          jump\t// out\n            /* \"#utility.yul\":2104:2222   */\n        tag_113:\n            /* \"#utility.yul\":2191:2215   */\n          tag_151\n            /* \"#utility.yul\":2209:2214   */\n          dup2\n            /* \"#utility.yul\":2191:2215   */\n          tag_108\n          jump\t// in\n        tag_151:\n            /* \"#utility.yul\":2186:2189   */\n          dup3\n            /* \"#utility.yul\":2179:2216   */\n          mstore\n            /* \"#utility.yul\":2104:2222   */\n          pop\n          pop\n          jump\t// out\n            /* \"#utility.yul\":2228:2450   */\n        tag_24:\n            /* \"#utility.yul\":2321:2325   */\n          0x00\n            /* \"#utility.yul\":2359:2361   */\n          0x20\n            /* \"#utility.yul\":2348:2357   */\n          dup3\n            /* \"#utility.yul\":2344:2362   */\n          add\n            /* \"#utility.yul\":2336:2362   */\n          swap1\n          pop\n            /* \"#utility.yul\":2372:2443   */\n          tag_153\n            /* \"#utility.yul\":2440:2441   */\n          0x00\n            /* \"#utility.yul\":2429:2438   */\n          dup4\n            /* \"#utility.yul\":2425:2442   */\n          add\n            /* \"#utility.yul\":2416:2422   */\n          dup5\n            /* \"#utility.yul\":2372:2443   */\n          tag_113\n          jump\t// in\n        tag_153:\n            /* \"#utility.yul\":2228:2450   */\n          swap3\n          swap2\n          pop\n          pop\n          jump\t// out\n            /* \"#utility.yul\":2456:2785   */\n        tag_27:\n            /* \"#utility.yul\":2515:2521   */\n          0x00\n            /* \"#utility.yul\":2564:2566   */\n          0x20\n            /* \"#utility.yul\":2552:2561   */\n          dup3\n            /* \"#utility.yul\":2543:2550   */\n          dup5\n            /* \"#utility.yul\":2539:2562   */\n          sub\n            /* \"#utility.yul\":2535:2567   */\n          slt\n            /* \"#utility.yul\":2532:2651   */\n          iszero\n          tag_155\n          jumpi\n            /* \"#utility.yul\":2570:2649   */\n          tag_156\n          tag_102\n          jump\t// in\n        tag_156:\n            /* \"#utility.yul\":2532:2651   */\n        tag_155:\n            /* \"#utility.yul\":2690:2691   */\n          0x00\n            /* \"#utility.yul\":2715:2768   */\n          tag_157\n            /* \"#utility.yul\":2760:2767   */\n          dup5\n            /* \"#utility.yul\":2751:2757   */\n          dup3\n            /* \"#utility.yul\":2740:2749   */\n          dup6\n            /* \"#utility.yul\":2736:2758   */\n          add\n            /* \"#utility.yul\":2715:2768   */\n          tag_110\n          jump\t// in\n        tag_157:\n            /* \"#utility.yul\":2705:2768   */\n          swap2\n          pop\n            /* \"#utility.yul\":2661:2778   */\n          pop\n            /* \"#utility.yul\":2456:2785   */\n          swap3\n          swap2\n          pop\n          pop\n          jump\t// out\n            /* \"#utility.yul\":2791:3410   */\n        tag_31:\n            /* \"#utility.yul\":2868:2874   */\n          0x00\n            /* \"#utility.yul\":2876:2882   */\n          dup1\n            /* \"#utility.yul\":2884:2890   */\n          0x00\n            /* \"#utility.yul\":2933:2935   */\n          0x60\n            /* \"#utility.yul\":2921:2930   */\n          dup5\n            /* \"#utility.yul\":2912:2919   */\n          dup7\n            /* \"#utility.yul\":2908:2931   */\n          sub\n            /* \"#utility.yul\":2904:2936   */\n          slt\n            /* \"#utility.yul\":2901:3020   */\n          iszero\n          tag_159\n          jumpi\n            /* \"#utility.yul\":2939:3018   */\n          tag_160\n          tag_102\n          jump\t// in\n        tag_160:\n            /* \"#utility.yul\":2901:3020   */\n        tag_159:\n            /* \"#utility.yul\":3059:3060   */\n          0x00\n            /* \"#utility.yul\":3084:3137   */\n          tag_161\n            /* \"#utility.yul\":3129:3136   */\n          dup7\n            /* \"#utility.yul\":3120:3126   */\n          dup3\n            /* \"#utility.yul\":3109:3118   */\n          dup8\n            /* \"#utility.yul\":3105:3127   */\n          add\n            /* \"#utility.yul\":3084:3137   */\n          tag_107\n          jump\t// in\n        tag_161:\n            /* \"#utility.yul\":3074:3137   */\n          swap4\n          pop\n            /* \"#utility.yul\":3030:3147   */\n          pop\n            /* \"#utility.yul\":3186:3188   */\n          0x20\n            /* \"#utility.yul\":3212:3265   */\n          tag_162\n            /* \"#utility.yul\":3257:3264   */\n          dup7\n            /* \"#utility.yul\":3248:3254   */\n          dup3\n            /* \"#utility.yul\":3237:3246   */\n          dup8\n            /* \"#utility.yul\":3233:3255   */\n          add\n            /* \"#utility.yul\":3212:3265   */\n          tag_107\n          jump\t// in\n        tag_162:\n            /* \"#utility.yul\":3202:3265   */\n          swap3\n          pop\n            /* \"#utility.yul\":3157:3275   */\n          pop\n            /* \"#utility.yul\":3314:3316   */\n          0x40\n            /* \"#utility.yul\":3340:3393   */\n          tag_163\n            /* \"#utility.yul\":3385:3392   */\n          dup7\n            /* \"#utility.yul\":3376:3382   */\n          dup3\n            /* \"#utility.yul\":3365:3374   */\n          dup8\n            /* \"#utility.yul\":3361:3383   */\n          add\n            /* \"#utility.yul\":3340:3393   */\n          tag_110\n          jump\t// in\n        tag_163:\n            /* \"#utility.yul\":3330:3393   */\n          swap2\n          pop\n            /* \"#utility.yul\":3285:3403   */\n          pop\n            /* \"#utility.yul\":2791:3410   */\n          swap3\n          pop\n          swap3\n          pop\n          swap3\n          jump\t// out\n            /* \"#utility.yul\":3416:3502   */\n        tag_114:\n            /* \"#utility.yul\":3451:3458   */\n          0x00\n            /* \"#utility.yul\":3491:3495   */\n          0xff\n            /* \"#utility.yul\":3484:3489   */\n          dup3\n            /* \"#utility.yul\":3480:3496   */\n          and\n            /* \"#utility.yul\":3469:3496   */\n          swap1\n          pop\n            /* \"#utility.yul\":3416:3502   */\n          swap2\n          swap1\n          pop\n          jump\t// out\n            /* \"#utility.yul\":3508:3620   */\n        tag_115:\n            /* \"#utility.yul\":3591:3613   */\n          tag_166\n            /* \"#utility.yul\":3607:3612   */\n          dup2\n            /* \"#utility.yul\":3591:3613   */\n          tag_114\n          jump\t// in\n        tag_166:\n            /* \"#utility.yul\":3586:3589   */\n          dup3\n            /* \"#utility.yul\":3579:3614   */\n          mstore\n            /* \"#utility.yul\":3508:3620   */\n          pop\n          pop\n          jump\t// out\n            /* \"#utility.yul\":3626:3840   */\n        tag_37:\n            /* \"#utility.yul\":3715:3719   */\n          0x00\n            /* \"#utility.yul\":3753:3755   */\n          0x20\n            /* \"#utility.yul\":3742:3751   */\n          dup3\n            /* \"#utility.yul\":3738:3756   */\n          add\n            /* \"#utility.yul\":3730:3756   */\n          swap1\n          pop\n            /* \"#utility.yul\":3766:3833   */\n          tag_168\n            /* \"#utility.yul\":3830:3831   */\n          0x00\n            /* \"#utility.yul\":3819:3828   */\n          dup4\n            /* \"#utility.yul\":3815:3832   */\n          add\n            /* \"#utility.yul\":3806:3812   */\n          dup5\n            /* \"#utility.yul\":3766:3833   */\n          tag_115\n          jump\t// in\n        tag_168:\n            /* \"#utility.yul\":3626:3840   */\n          swap3\n          swap2\n          pop\n          pop\n          jump\t// out\n            /* \"#utility.yul\":3846:4175   */\n        tag_44:\n            /* \"#utility.yul\":3905:3911   */\n          0x00\n            /* \"#utility.yul\":3954:3956   */\n          0x20\n            /* \"#utility.yul\":3942:3951   */\n          dup3\n            /* \"#utility.yul\":3933:3940   */\n          dup5\n            /* \"#utility.yul\":3929:3952   */\n          sub\n            /* \"#utility.yul\":3925:3957   */\n          slt\n            /* \"#utility.yul\":3922:4041   */\n          iszero\n          tag_170\n          jumpi\n            /* \"#utility.yul\":3960:4039   */\n          tag_171\n          tag_102\n          jump\t// in\n        tag_171:\n            /* \"#utility.yul\":3922:4041   */\n        tag_170:\n            /* \"#utility.yul\":4080:4081   */\n          0x00\n            /* \"#utility.yul\":4105:4158   */\n          tag_172\n            /* \"#utility.yul\":4150:4157   */\n          dup5\n            /* \"#utility.yul\":4141:4147   */\n          dup3\n            /* \"#utility.yul\":4130:4139   */\n          dup6\n            /* \"#utility.yul\":4126:4148   */\n          add\n            /* \"#utility.yul\":4105:4158   */\n          tag_107\n          jump\t// in\n        tag_172:\n            /* \"#utility.yul\":4095:4158   */\n          swap2\n          pop\n            /* \"#utility.yul\":4051:4168   */\n          pop\n            /* \"#utility.yul\":3846:4175   */\n          swap3\n          swap2\n          pop\n          pop\n          jump\t// out\n            /* \"#utility.yul\":4181:4280   */\n        tag_116:\n            /* \"#utility.yul\":4233:4239   */\n          0x00\n            /* \"#utility.yul\":4267:4272   */\n          dup2\n            /* \"#utility.yul\":4261:4273   */\n          mload\n            /* \"#utility.yul\":4251:4273   */\n          swap1\n          pop\n            /* \"#utility.yul\":4181:4280   */\n          swap2\n          swap1\n          pop\n          jump\t// out\n            /* \"#utility.yul\":4286:4455   */\n        tag_117:\n            /* \"#utility.yul\":4370:4381   */\n          0x00\n            /* \"#utility.yul\":4404:4410   */\n          dup3\n            /* \"#utility.yul\":4399:4402   */\n          dup3\n            /* \"#utility.yul\":4392:4411   */\n          mstore\n            /* \"#utility.yul\":4444:4448   */\n          0x20\n            /* \"#utility.yul\":4439:4442   */\n          dup3\n            /* \"#utility.yul\":4435:4449   */\n          add\n            /* \"#utility.yul\":4420:4449   */\n          swap1\n          pop\n            /* \"#utility.yul\":4286:4455   */\n          swap3\n          swap2\n          pop\n          pop\n          jump\t// out\n            /* \"#utility.yul\":4461:4707   */\n        tag_118:\n            /* \"#utility.yul\":4542:4543   */\n          0x00\n            /* \"#utility.yul\":4552:4665   */\n        tag_176:\n            /* \"#utility.yul\":4566:4572   */\n          dup4\n            /* \"#utility.yul\":4563:4564   */\n          dup2\n            /* \"#utility.yul\":4560:4573   */\n          lt\n            /* \"#utility.yul\":4552:4665   */\n          iszero\n          tag_178\n          jumpi\n            /* \"#utility.yul\":4651:4652   */\n          dup1\n            /* \"#utility.yul\":4646:4649   */\n          dup3\n            /* \"#utility.yul\":4642:4653   */\n          add\n            /* \"#utility.yul\":4636:4654   */\n          mload\n            /* \"#utility.yul\":4632:4633   */\n          dup2\n            /* \"#utility.yul\":4627:4630   */\n          dup5\n            /* \"#utility.yul\":4623:4634   */\n          add\n            /* \"#utility.yul\":4616:4655   */\n          mstore\n            /* \"#utility.yul\":4588:4590   */\n          0x20\n            /* \"#utility.yul\":4585:4586   */\n          dup2\n            /* \"#utility.yul\":4581:4591   */\n          add\n            /* \"#utility.yul\":4576:4591   */\n          swap1\n          pop\n            /* \"#utility.yul\":4552:4665   */\n          jump(tag_176)\n        tag_178:\n            /* \"#utility.yul\":4699:4700   */\n          0x00\n            /* \"#utility.yul\":4690:4696   */\n          dup5\n            /* \"#utility.yul\":4685:4688   */\n          dup5\n            /* \"#utility.yul\":4681:4697   */\n          add\n            /* \"#utility.yul\":4674:4701   */\n          mstore\n            /* \"#utility.yul\":4523:4707   */\n          pop\n            /* \"#utility.yul\":4461:4707   */\n          pop\n          pop\n          pop\n          jump\t// out\n            /* \"#utility.yul\":4713:4815   */\n        tag_119:\n            /* \"#utility.yul\":4754:4760   */\n          0x00\n            /* \"#utility.yul\":4805:4807   */\n          0x1f\n            /* \"#utility.yul\":4801:4808   */\n          not\n            /* \"#utility.yul\":4796:4798   */\n          0x1f\n            /* \"#utility.yul\":4789:4794   */\n          dup4\n            /* \"#utility.yul\":4785:4799   */\n          add\n            /* \"#utility.yul\":4781:4809   */\n          and\n            /* \"#utility.yul\":4771:4809   */\n          swap1\n          pop\n            /* \"#utility.yul\":4713:4815   */\n          swap2\n          swap1\n          pop\n          jump\t// out\n            /* \"#utility.yul\":4821:5198   */\n        tag_120:\n            /* \"#utility.yul\":4909:4912   */\n          0x00\n            /* \"#utility.yul\":4937:4976   */\n          tag_181\n            /* \"#utility.yul\":4970:4975   */\n          dup3\n            /* \"#utility.yul\":4937:4976   */\n          tag_116\n          jump\t// in\n        tag_181:\n            /* \"#utility.yul\":4992:5063   */\n          tag_182\n            /* \"#utility.yul\":5056:5062   */\n          dup2\n            /* \"#utility.yul\":5051:5054   */\n          dup6\n            /* \"#utility.yul\":4992:5063   */\n          tag_117\n          jump\t// in\n        tag_182:\n            /* \"#utility.yul\":4985:5063   */\n          swap4\n          pop\n            /* \"#utility.yul\":5072:5137   */\n          tag_183\n            /* \"#utility.yul\":5130:5136   */\n          dup2\n            /* \"#utility.yul\":5125:5128   */\n          dup6\n            /* \"#utility.yul\":5118:5122   */\n          0x20\n            /* \"#utility.yul\":5111:5116   */\n          dup7\n            /* \"#utility.yul\":5107:5123   */\n          add\n            /* \"#utility.yul\":5072:5137   */\n          tag_118\n          jump\t// in\n        tag_183:\n            /* \"#utility.yul\":5162:5191   */\n          tag_184\n            /* \"#utility.yul\":5184:5190   */\n          dup2\n            /* \"#utility.yul\":5162:5191   */\n          tag_119\n          jump\t// in\n        tag_184:\n            /* \"#utility.yul\":5157:5160   */\n          dup5\n            /* \"#utility.yul\":5153:5192   */\n          add\n            /* \"#utility.yul\":5146:5192   */\n          swap2\n          pop\n            /* \"#utility.yul\":4913:5198   */\n          pop\n            /* \"#utility.yul\":4821:5198   */\n          swap3\n          swap2\n          pop\n          pop\n          jump\t// out\n            /* \"#utility.yul\":5204:5517   */\n        tag_50:\n            /* \"#utility.yul\":5317:5321   */\n          0x00\n            /* \"#utility.yul\":5355:5357   */\n          0x20\n            /* \"#utility.yul\":5344:5353   */\n          dup3\n            /* \"#utility.yul\":5340:5358   */\n          add\n            /* \"#utility.yul\":5332:5358   */\n          swap1\n          pop\n            /* \"#utility.yul\":5404:5413   */\n          dup2\n            /* \"#utility.yul\":5398:5402   */\n          dup2\n            /* \"#utility.yul\":5394:5414   */\n          sub\n            /* \"#utility.yul\":5390:5391   */\n          0x00\n            /* \"#utility.yul\":5379:5388   */\n          dup4\n            /* \"#utility.yul\":5375:5392   */\n          add\n            /* \"#utility.yul\":5368:5415   */\n          mstore\n            /* \"#utility.yul\":5432:5510   */\n          tag_186\n            /* \"#utility.yul\":5505:5509   */\n          dup2\n            /* \"#utility.yul\":5496:5502   */\n          dup5\n            /* \"#utility.yul\":5432:5510   */\n          tag_120\n          jump\t// in\n        tag_186:\n            /* \"#utility.yul\":5424:5510   */\n          swap1\n          pop\n            /* \"#utility.yul\":5204:5517   */\n          swap3\n          swap2\n          pop\n          pop\n          jump\t// out\n            /* \"#utility.yul\":5523:5997   */\n        tag_57:\n            /* \"#utility.yul\":5591:5597   */\n          0x00\n            /* \"#utility.yul\":5599:5605   */\n          dup1\n            /* \"#utility.yul\":5648:5650   */\n          0x40\n            /* \"#utility.yul\":5636:5645   */\n          dup4\n            /* \"#utility.yul\":5627:5634   */\n          dup6\n            /* \"#utility.yul\":5623:5646   */\n          sub\n            /* \"#utility.yul\":5619:5651   */\n          slt\n            /* \"#utility.yul\":5616:5735   */\n          iszero\n          tag_188\n          jumpi\n            /* \"#utility.yul\":5654:5733   */\n          tag_189\n          tag_102\n          jump\t// in\n        tag_189:\n            /* \"#utility.yul\":5616:5735   */\n        tag_188:\n            /* \"#utility.yul\":5774:5775   */\n          0x00\n            /* \"#utility.yul\":5799:5852   */\n          tag_190\n            /* \"#utility.yul\":5844:5851   */\n          dup6\n            /* \"#utility.yul\":5835:5841   */\n          dup3\n            /* \"#utility.yul\":5824:5833   */\n          dup7\n            /* \"#utility.yul\":5820:5842   */\n          add\n            /* \"#utility.yul\":5799:5852   */\n          tag_107\n          jump\t// in\n        tag_190:\n            /* \"#utility.yul\":5789:5852   */\n          swap3\n          pop\n            /* \"#utility.yul\":5745:5862   */\n          pop\n            /* \"#utility.yul\":5901:5903   */\n          0x20\n            /* \"#utility.yul\":5927:5980   */\n          tag_191\n            /* \"#utility.yul\":5972:5979   */\n          dup6\n            /* \"#utility.yul\":5963:5969   */\n          dup3\n            /* \"#utility.yul\":5952:5961   */\n          dup7\n            /* \"#utility.yul\":5948:5970   */\n          add\n            /* \"#utility.yul\":5927:5980   */\n          tag_107\n          jump\t// in\n        tag_191:\n            /* \"#utility.yul\":5917:5980   */\n          swap2\n          pop\n            /* \"#utility.yul\":5872:5990   */\n          pop\n            /* \"#utility.yul\":5523:5997   */\n          swap3\n          pop\n          swap3\n          swap1\n          pop\n          jump\t// out\n            /* \"#utility.yul\":6003:6183   */\n        tag_121:\n            /* \"#utility.yul\":6051:6128   */\n          0x4e487b7100000000000000000000000000000000000000000000000000000000\n            /* \"#utility.yul\":6048:6049   */\n          0x00\n            /* \"#utility.yul\":6041:6129   */\n          mstore\n            /* \"#utility.yul\":6148:6152   */\n          0x11\n            /* \"#utility.yul\":6145:6146   */\n          0x04\n            /* \"#utility.yul\":6138:6153   */\n          mstore\n            /* \"#utility.yul\":6172:6176   */\n          0x24\n            /* \"#utility.yul\":6169:6170   */\n          0x00\n            /* \"#utility.yul\":6162:6177   */\n          revert\n            /* \"#utility.yul\":6189:6380   */\n        tag_68:\n            /* \"#utility.yul\":6229:6232   */\n          0x00\n            /* \"#utility.yul\":6248:6268   */\n          tag_194\n            /* \"#utility.yul\":6266:6267   */\n          dup3\n            /* \"#utility.yul\":6248:6268   */\n          tag_108\n          jump\t// in\n        tag_194:\n            /* \"#utility.yul\":6243:6268   */\n          swap2\n          pop\n            /* \"#utility.yul\":6282:6302   */\n          tag_195\n            /* \"#utility.yul\":6300:6301   */\n          dup4\n            /* \"#utility.yul\":6282:6302   */\n          tag_108\n          jump\t// in\n        tag_195:\n            /* \"#utility.yul\":6277:6302   */\n          swap3\n          pop\n            /* \"#utility.yul\":6325:6326   */\n          dup3\n            /* \"#utility.yul\":6322:6323   */\n          dup3\n            /* \"#utility.yul\":6318:6327   */\n          add\n            /* \"#utility.yul\":6311:6327   */\n          swap1\n          pop\n            /* \"#utility.yul\":6346:6349   */\n          dup1\n            /* \"#utility.yul\":6343:6344   */\n          dup3\n            /* \"#utility.yul\":6340:6350   */\n          gt\n            /* \"#utility.yul\":6337:6373   */\n          iszero\n          tag_196\n          jumpi\n            /* \"#utility.yul\":6353:6371   */\n          tag_197\n          tag_121\n          jump\t// in\n        tag_197:\n            /* \"#utility.yul\":6337:6373   */\n        tag_196:\n            /* \"#utility.yul\":6189:6380   */\n          swap3\n          swap2\n          pop\n          pop\n          jump\t// out\n            /* \"#utility.yul\":6386:6566   */\n        tag_94:\n            /* \"#utility.yul\":6434:6511   */\n          0x4e487b7100000000000000000000000000000000000000000000000000000000\n            /* \"#utility.yul\":6431:6432   */\n          0x00\n            /* \"#utility.yul\":6424:6512   */\n          mstore\n            /* \"#utility.yul\":6531:6535   */\n          0x01\n            /* \"#utility.yul\":6528:6529   */\n          0x04\n            /* \"#utility.yul\":6521:6536   */\n          mstore\n            /* \"#utility.yul\":6555:6559   */\n          0x24\n            /* \"#utility.yul\":6552:6553   */\n          0x00\n            /* \"#utility.yul\":6545:6560   */\n          revert\n            /* \"#utility.yul\":6572:6766   */\n        tag_96:\n            /* \"#utility.yul\":6612:6616   */\n          0x00\n            /* \"#utility.yul\":6632:6652   */\n          tag_200\n            /* \"#utility.yul\":6650:6651   */\n          dup3\n            /* \"#utility.yul\":6632:6652   */\n          tag_108\n          jump\t// in\n        tag_200:\n            /* \"#utility.yul\":6627:6652   */\n          swap2\n          pop\n            /* \"#utility.yul\":6666:6686   */\n          tag_201\n            /* \"#utility.yul\":6684:6685   */\n          dup4\n            /* \"#utility.yul\":6666:6686   */\n          tag_108\n          jump\t// in\n        tag_201:\n            /* \"#utility.yul\":6661:6686   */\n          swap3\n          pop\n            /* \"#utility.yul\":6710:6711   */\n          dup3\n            /* \"#utility.yul\":6707:6708   */\n          dup3\n            /* \"#utility.yul\":6703:6712   */\n          sub\n            /* \"#utility.yul\":6695:6712   */\n          swap1\n          pop\n            /* \"#utility.yul\":6734:6735   */\n          dup2\n            /* \"#utility.yul\":6728:6732   */\n          dup2\n            /* \"#utility.yul\":6725:6736   */\n          gt\n            /* \"#utility.yul\":6722:6759   */\n          iszero\n          tag_202\n          jumpi\n            /* \"#utility.yul\":6739:6757   */\n          tag_203\n          tag_121\n          jump\t// in\n        tag_203:\n            /* \"#utility.yul\":6722:6759   */\n        tag_202:\n            /* \"#utility.yul\":6572:6766   */\n          swap3\n          swap2\n          pop\n          pop\n          jump\t// out\n\n        auxdata: 0xa2646970667358221220831f4ef1a58e85adee03776e6de24b5b9e6021f7a5b1ef140a5ff6a28f25ba7f64736f6c63430008120033\n    }\n}\n",
				"bytecode": {
					"linkReferences": {},
					"object": "6080604052612710600355600560045560006007553480156200002157600080fd5b50600354604051620000339062000124565b6200003f91906200014d565b604051809103906000f0801580156200005c573d6000803e3d6000fd5b506000806101000a81548173ffffffffffffffffffffffffffffffffffffffff021916908373ffffffffffffffffffffffffffffffffffffffff16021790555033600160006101000a81548173ffffffffffffffffffffffffffffffffffffffff021916908373ffffffffffffffffffffffffffffffffffffffff16021790555030600260006101000a81548173ffffffffffffffffffffffffffffffffffffffff021916908373ffffffffffffffffffffffffffffffffffffffff1602179055506200016a565b6111b18062001a6083390190565b6000819050919050565b620001478162000132565b82525050565b60006020820190506200016460008301846200013c565b92915050565b6118e6806200017a6000396000f3fe6080604052600436106100c25760003560e01c80637f30e11c1161007f578063e1a01e6711610059578063e1a01e6714610214578063ec980ef91461023f578063ee5ade831461026a578063efb40e2d14610295576100c2565b80637f30e11c146101a45780638da5cb5b146101cd578063c29dd7c9146101f8576100c2565b8063066265c5146100c757806321e0528b146100de5780632d8e6adc146101095780632e95161c146101345780634947830d14610150578063779c6a4c14610179575b600080fd5b3480156100d357600080fd5b506100dc6102c0565b005b3480156100ea57600080fd5b506100f3610541565b6040516101009190610ff1565b60405180910390f35b34801561011557600080fd5b5061011e6105e3565b60405161012b9190610ff1565b60405180910390f35b61014e6004803603810190610149919061103d565b6105e9565b005b34801561015c57600080fd5b506101776004803603810190610172919061103d565b6107a2565b005b34801561018557600080fd5b5061018e6108c2565b60405161019b9190610ff1565b60405180910390f35b3480156101b057600080fd5b506101cb60048036038101906101c6919061103d565b610986565b005b3480156101d957600080fd5b506101e2610c3c565b6040516101ef91906110ab565b60405180910390f35b610212600480360381019061020d919061103d565b610c62565b005b34801561022057600080fd5b50610229610e36565b60405161023691906110ab565b60405180910390f35b34801561024b57600080fd5b50610254610e5c565b6040516102619190610ff1565b60405180910390f35b34801561027657600080fd5b5061027f610f20565b60405161028c9190610ff1565b60405180910390f35b3480156102a157600080fd5b506102aa610f26565b6040516102b79190611184565b60405180910390f35b33600160009054906101000a900473ffffffffffffffffffffffffffffffffffffffff1673ffffffffffffffffffffffffffffffffffffffff168173ffffffffffffffffffffffffffffffffffffffff1614610351576040517f08c379a000000000000000000000000000000000000000000000000000000000815260040161034890611229565b60405180910390fd5b600060088054905011610399576040517f08c379a000000000000000000000000000000000000000000000000000000000815260040161039090611295565b60405180910390fd5b60006008805490509050600081426040516020016103b791906112d6565b6040516020818303038152906040528051906020012060001c6103da9190611320565b90506000600882815481106103f2576103f1611351565b5b9060005260206000200154905060006006600083815260200190815260200160002060009054906101000a900473ffffffffffffffffffffffffffffffffffffffff1690507fdf318f1f5a0a5907e4daeb60c6a1de77a7808f267a25358a284adafa13309c618282604051610468929190611380565b60405180910390a160008054906101000a900473ffffffffffffffffffffffffffffffffffffffff1673ffffffffffffffffffffffffffffffffffffffff16635c79febb600160009054906101000a900473ffffffffffffffffffffffffffffffffffffffff16836104d8610e5c565b6040518463ffffffff1660e01b81526004016104f6939291906113a9565b6020604051808303816000875af1158015610515573d6000803e3d6000fd5b505050506040513d601f19601f820116820180604052508101906105399190611418565b505050505050565b60008060009054906101000a900473ffffffffffffffffffffffffffffffffffffffff1673ffffffffffffffffffffffffffffffffffffffff166370a08231336040518263ffffffff1660e01b815260040161059d91906110ab565b602060405180830381865afa1580156105ba573d6000803e3d6000fd5b505050506040513d601f19601f820116820180604052508101906105de919061145a565b905090565b60035481565b6000811161062c576040517f08c379a0000000000000000000000000000000000000000000000000000000008152600401610623906114d3565b60405180910390fd5b610634610541565b811115610676576040517f08c379a000000000000000000000000000000000000000000000000000000000815260040161066d90611565565b60405180910390fd5b60008054906101000a900473ffffffffffffffffffffffffffffffffffffffff1673ffffffffffffffffffffffffffffffffffffffff16635c79febb3330846040518463ffffffff1660e01b81526004016106d3939291906113a9565b6020604051808303816000875af11580156106f2573d6000803e3d6000fd5b505050506040513d601f19601f820116820180604052508101906107169190611418565b503373ffffffffffffffffffffffffffffffffffffffff166108fc61073a83610fbb565b9081150290604051600060405180830381858888f19350505050158015610765573d6000803e3d6000fd5b507fa997a52566b1f8380f086c733e70d49a141eafece6addc432a411a73ec45c6888133604051610797929190611380565b60405180910390a150565b33600160009054906101000a900473ffffffffffffffffffffffffffffffffffffffff1673ffffffffffffffffffffffffffffffffffffffff168173ffffffffffffffffffffffffffffffffffffffff1614610833576040517f08c379a000000000000000000000000000000000000000000000000000000000815260040161082a90611229565b60405180910390fd5b60008054906101000a900473ffffffffffffffffffffffffffffffffffffffff1673ffffffffffffffffffffffffffffffffffffffff16631d43cc98836040518263ffffffff1660e01b815260040161088c9190610ff1565b600060405180830381600087803b1580156108a657600080fd5b505af11580156108ba573d6000803e3d6000fd5b505050505050565b60008060009054906101000a900473ffffffffffffffffffffffffffffffffffffffff1673ffffffffffffffffffffffffffffffffffffffff166370a08231600260009054906101000a900473ffffffffffffffffffffffffffffffffffffffff166040518263ffffffff1660e01b815260040161094091906110ab565b602060405180830381865afa15801561095d573d6000803e3d6000fd5b505050506040513d601f19601f82011682018060405250810190610981919061145a565b905090565b60006004548261099691906115b4565b90506109a0610541565b8111156109e2576040517f08c379a00000000000000000000000000000000000000000000000000000000081526004016109d990611642565b60405180910390fd5b60008054906101000a900473ffffffffffffffffffffffffffffffffffffffff1673ffffffffffffffffffffffffffffffffffffffff16635c79febb33600160009054906101000a900473ffffffffffffffffffffffffffffffffffffffff16846040518463ffffffff1660e01b8152600401610a61939291906113a9565b6020604051808303816000875af1158015610a80573d6000803e3d6000fd5b505050506040513d601f19601f82011682018060405250810190610aa49190611418565b5060005b82811015610c375760006127104233600754604051602001610acc939291906116aa565b6040516020818303038152906040528051906020012060001c610aef9190611320565b905060076000815480929190610b04906116e7565b9190505550600560003373ffffffffffffffffffffffffffffffffffffffff1673ffffffffffffffffffffffffffffffffffffffff1681526020019081526020016000208190806001815401808255809150506001900390600052602060002001600090919091909150556008819080600181540180825580915050600190039060005260206000200160009091909190915055336006600083815260200190815260200160002060006101000a81548173ffffffffffffffffffffffffffffffffffffffff021916908373ffffffffffffffffffffffffffffffffffffffff1602179055507fc050fb32d57ba0cfd6bf3bf1cc039866094f4506ec6d20be323decd380f864348133604051610c1b929190611380565b60405180910390a1508080610c2f906116e7565b915050610aa8565b505050565b600160009054906101000a900473ffffffffffffffffffffffffffffffffffffffff1681565b6000610c6d82610fbb565b905034811115610cb2576040517f08c379a0000000000000000000000000000000000000000000000000000000008152600401610ca9906117a1565b60405180910390fd5b60008134610cc091906117c1565b90503373ffffffffffffffffffffffffffffffffffffffff166108fc829081150290604051600060405180830381858888f19350505050158015610d08573d6000803e3d6000fd5b506000610d136108c2565b905080841115610d58576040517f08c379a0000000000000000000000000000000000000000000000000000000008152600401610d4f90611867565b60405180910390fd5b60008054906101000a900473ffffffffffffffffffffffffffffffffffffffff1673ffffffffffffffffffffffffffffffffffffffff1663a9059cbb33866040518363ffffffff1660e01b8152600401610db3929190611887565b6020604051808303816000875af1158015610dd2573d6000803e3d6000fd5b505050506040513d601f19601f82011682018060405250810190610df69190611418565b507fd4321bcee18ff277071c0da811f0aa05f00127696b4d8077e37f5f5891f439508433604051610e28929190611380565b60405180910390a150505050565b600260009054906101000a900473ffffffffffffffffffffffffffffffffffffffff1681565b60008060009054906101000a900473ffffffffffffffffffffffffffffffffffffffff1673ffffffffffffffffffffffffffffffffffffffff166370a08231600160009054906101000a900473ffffffffffffffffffffffffffffffffffffffff166040518263ffffffff1660e01b8152600401610eda91906110ab565b602060405180830381865afa158015610ef7573d6000803e3d6000fd5b505050506040513d601f19601f82011682018060405250810190610f1b919061145a565b905090565b60045481565b6060600560003373ffffffffffffffffffffffffffffffffffffffff1673ffffffffffffffffffffffffffffffffffffffff168152602001908152602001600020805480602002602001604051908101604052809291908181526020018280548015610fb157602002820191906000526020600020905b815481526020019060010190808311610f9d575b5050505050905090565b6000670de0b6b3a764000082610fd191906115b4565b9050919050565b6000819050919050565b610feb81610fd8565b82525050565b60006020820190506110066000830184610fe2565b92915050565b600080fd5b61101a81610fd8565b811461102557600080fd5b50565b60008135905061103781611011565b92915050565b6000602082840312156110535761105261100c565b5b600061106184828501611028565b91505092915050565b600073ffffffffffffffffffffffffffffffffffffffff82169050919050565b60006110958261106a565b9050919050565b6110a58161108a565b82525050565b60006020820190506110c0600083018461109c565b92915050565b600081519050919050565b600082825260208201905092915050565b6000819050602082019050919050565b6110fb81610fd8565b82525050565b600061110d83836110f2565b60208301905092915050565b6000602082019050919050565b6000611131826110c6565b61113b81856110d1565b9350611146836110e2565b8060005b8381101561117757815161115e8882611101565b975061116983611119565b92505060018101905061114a565b5085935050505092915050565b6000602082019050818103600083015261119e8184611126565b905092915050565b600082825260208201905092915050565b7f4e6f207469656e6573207065726d69736f73207061726120656a65637574617260008201527f20657374612066756e63696f6e00000000000000000000000000000000000000602082015250565b6000611213602d836111a6565b915061121e826111b7565b604082019050919050565b6000602082019050818103600083015261124281611206565b9050919050565b7f4e6f2068617920626f6c65746f7320636f6d707261646f730000000000000000600082015250565b600061127f6018836111a6565b915061128a82611249565b602082019050919050565b600060208201905081810360008301526112ae81611272565b9050919050565b6000819050919050565b6112d06112cb82610fd8565b6112b5565b82525050565b60006112e282846112bf565b60208201915081905092915050565b7f4e487b7100000000000000000000000000000000000000000000000000000000600052601260045260246000fd5b600061132b82610fd8565b915061133683610fd8565b925082611346576113456112f1565b5b828206905092915050565b7f4e487b7100000000000000000000000000000000000000000000000000000000600052603260045260246000fd5b60006040820190506113956000830185610fe2565b6113a2602083018461109c565b9392505050565b60006060820190506113be600083018661109c565b6113cb602083018561109c565b6113d86040830184610fe2565b949350505050565b60008115159050919050565b6113f5816113e0565b811461140057600080fd5b50565b600081519050611412816113ec565b92915050565b60006020828403121561142e5761142d61100c565b5b600061143c84828501611403565b91505092915050565b60008151905061145481611011565b92915050565b6000602082840312156114705761146f61100c565b5b600061147e84828501611445565b91505092915050565b7f4e6f2068617920746f6b656e732070617261206465766f6c7665720000000000600082015250565b60006114bd601b836111a6565b91506114c882611487565b602082019050919050565b600060208201905081810360008301526114ec816114b0565b9050919050565b7f4e6f207469656e6573206c6f7320746f6b656e7320717565206465736561732060008201527f6465766f6c766572000000000000000000000000000000000000000000000000602082015250565b600061154f6028836111a6565b915061155a826114f3565b604082019050919050565b6000602082019050818103600083015261157e81611542565b9050919050565b7f4e487b7100000000000000000000000000000000000000000000000000000000600052601160045260246000fd5b60006115bf82610fd8565b91506115ca83610fd8565b92508282026115d881610fd8565b915082820484148315176115ef576115ee611585565b5b5092915050565b7f4e6f207469656e657320737566696369656e74657320746f6b656e7300000000600082015250565b600061162c601c836111a6565b9150611637826115f6565b602082019050919050565b6000602082019050818103600083015261165b8161161f565b9050919050565b60008160601b9050919050565b600061167a82611662565b9050919050565b600061168c8261166f565b9050919050565b6116a461169f8261108a565b611681565b82525050565b60006116b682866112bf565b6020820191506116c68285611693565b6014820191506116d682846112bf565b602082019150819050949350505050565b60006116f282610fd8565b91507fffffffffffffffffffffffffffffffffffffffffffffffffffffffffffffffff820361172457611723611585565b5b600182019050919050565b7f436f6d707261206d656e6f7320546f6b656e73206f207061676120636f6e206d60008201527f6173204574686572730000000000000000000000000000000000000000000000602082015250565b600061178b6029836111a6565b91506117968261172f565b604082019050919050565b600060208201905081810360008301526117ba8161177e565b9050919050565b60006117cc82610fd8565b91506117d783610fd8565b92508282039050818111156117ef576117ee611585565b5b92915050565b7f436f6d70726120756e206e756d65726f20646520746f6b656e7320616465637560008201527f61646f0000000000000000000000000000000000000000000000000000000000602082015250565b60006118516023836111a6565b915061185c826117f5565b604082019050919050565b6000602082019050818103600083015261188081611844565b9050919050565b600060408201905061189c600083018561109c565b6118a96020830184610fe2565b939250505056fea26469706673582212204bd005d762e8cbf1d956c906b4c6c3a8e9b3ce216d6aebc68fb8a905edd7253b64736f6c63430008120033608060405234801561001057600080fd5b50604051620011b1380380620011b1833981810160405281019061003491906100c1565b806002819055506002546000803373ffffffffffffffffffffffffffffffffffffffff1673ffffffffffffffffffffffffffffffffffffffff16815260200190815260200160002081905550506100ee565b600080fd5b6000819050919050565b61009e8161008b565b81146100a957600080fd5b50565b6000815190506100bb81610095565b92915050565b6000602082840312156100d7576100d6610086565b5b60006100e5848285016100ac565b91505092915050565b6110b380620000fe6000396000f3fe608060405234801561001057600080fd5b50600436106100a95760003560e01c80635c79febb116100715780635c79febb1461016657806370a0823114610196578063a3f4df7e146101c6578063a9059cbb146101e4578063dd62ed3e14610214578063f76f8d7814610244576100a9565b8063095ea7b3146100ae57806318160ddd146100de5780631d43cc98146100fc57806323b872dd146101185780632e0f262514610148575b600080fd5b6100c860048036038101906100c39190610d41565b610262565b6040516100d59190610d9c565b60405180910390f35b6100e6610354565b6040516100f39190610dc6565b60405180910390f35b61011660048036038101906101119190610de1565b61035e565b005b610132600480360381019061012d9190610e0e565b6103cf565b60405161013f9190610d9c565b60405180910390f35b61015061074a565b60405161015d9190610e7d565b60405180910390f35b610180600480360381019061017b9190610e0e565b61074f565b60405161018d9190610d9c565b60405180910390f35b6101b060048036038101906101ab9190610e98565b610932565b6040516101bd9190610dc6565b60405180910390f35b6101ce61097a565b6040516101db9190610f55565b60405180910390f35b6101fe60048036038101906101f99190610d41565b6109b3565b60405161020b9190610d9c565b60405180910390f35b61022e60048036038101906102299190610f77565b610b95565b60405161023b9190610dc6565b60405180910390f35b61024c610c1c565b6040516102599190610f55565b60405180910390f35b600081600160003373ffffffffffffffffffffffffffffffffffffffff1673ffffffffffffffffffffffffffffffffffffffff16815260200190815260200160002060008573ffffffffffffffffffffffffffffffffffffffff1673ffffffffffffffffffffffffffffffffffffffff168152602001908152602001600020819055508273ffffffffffffffffffffffffffffffffffffffff163373ffffffffffffffffffffffffffffffffffffffff167f8c5be1e5ebec7d5bd14f71427d1e84f3dd0314c0f7b2291e5b200ac8c7c3b925846040516103429190610dc6565b60405180910390a36001905092915050565b6000600254905090565b80600260008282546103709190610fe6565b92505081905550806000803373ffffffffffffffffffffffffffffffffffffffff1673ffffffffffffffffffffffffffffffffffffffff16815260200190815260200160002060008282546103c59190610fe6565b9250508190555050565b60008060008573ffffffffffffffffffffffffffffffffffffffff1673ffffffffffffffffffffffffffffffffffffffff1681526020019081526020016000205482111561041c57600080fd5b600160008573ffffffffffffffffffffffffffffffffffffffff1673ffffffffffffffffffffffffffffffffffffffff16815260200190815260200160002060003373ffffffffffffffffffffffffffffffffffffffff1673ffffffffffffffffffffffffffffffffffffffff168152602001908152602001600020548211156104a557600080fd5b6104f6826000808773ffffffffffffffffffffffffffffffffffffffff1673ffffffffffffffffffffffffffffffffffffffff16815260200190815260200160002054610c5590919063ffffffff16565b6000808673ffffffffffffffffffffffffffffffffffffffff1673ffffffffffffffffffffffffffffffffffffffff168152602001908152602001600020819055506105c782600160008773ffffffffffffffffffffffffffffffffffffffff1673ffffffffffffffffffffffffffffffffffffffff16815260200190815260200160002060003373ffffffffffffffffffffffffffffffffffffffff1673ffffffffffffffffffffffffffffffffffffffff16815260200190815260200160002054610c5590919063ffffffff16565b600160008673ffffffffffffffffffffffffffffffffffffffff1673ffffffffffffffffffffffffffffffffffffffff16815260200190815260200160002060003373ffffffffffffffffffffffffffffffffffffffff1673ffffffffffffffffffffffffffffffffffffffff16815260200190815260200160002081905550610698826000808673ffffffffffffffffffffffffffffffffffffffff1673ffffffffffffffffffffffffffffffffffffffff16815260200190815260200160002054610c7c90919063ffffffff16565b6000808573ffffffffffffffffffffffffffffffffffffffff1673ffffffffffffffffffffffffffffffffffffffff168152602001908152602001600020819055508273ffffffffffffffffffffffffffffffffffffffff168473ffffffffffffffffffffffffffffffffffffffff167fddf252ad1be2c89b69c2b068fc378daa952ba7f163c4a11628f55a4df523b3ef846040516107379190610dc6565b60405180910390a3600190509392505050565b600281565b60008060008573ffffffffffffffffffffffffffffffffffffffff1673ffffffffffffffffffffffffffffffffffffffff1681526020019081526020016000205482111561079c57600080fd5b6107ed826000808773ffffffffffffffffffffffffffffffffffffffff1673ffffffffffffffffffffffffffffffffffffffff16815260200190815260200160002054610c5590919063ffffffff16565b6000808673ffffffffffffffffffffffffffffffffffffffff1673ffffffffffffffffffffffffffffffffffffffff16815260200190815260200160002081905550610880826000808673ffffffffffffffffffffffffffffffffffffffff1673ffffffffffffffffffffffffffffffffffffffff16815260200190815260200160002054610c7c90919063ffffffff16565b6000808573ffffffffffffffffffffffffffffffffffffffff1673ffffffffffffffffffffffffffffffffffffffff168152602001908152602001600020819055508273ffffffffffffffffffffffffffffffffffffffff168473ffffffffffffffffffffffffffffffffffffffff167fddf252ad1be2c89b69c2b068fc378daa952ba7f163c4a11628f55a4df523b3ef8460405161091f9190610dc6565b60405180910390a3600190509392505050565b60008060008373ffffffffffffffffffffffffffffffffffffffff1673ffffffffffffffffffffffffffffffffffffffff168152602001908152602001600020549050919050565b6040518060400160405280601181526020017f4552433230426c6f636b636861696e415a00000000000000000000000000000081525081565b60008060003373ffffffffffffffffffffffffffffffffffffffff1673ffffffffffffffffffffffffffffffffffffffff16815260200190815260200160002054821115610a0057600080fd5b610a51826000803373ffffffffffffffffffffffffffffffffffffffff1673ffffffffffffffffffffffffffffffffffffffff16815260200190815260200160002054610c5590919063ffffffff16565b6000803373ffffffffffffffffffffffffffffffffffffffff1673ffffffffffffffffffffffffffffffffffffffff16815260200190815260200160002081905550610ae4826000808673ffffffffffffffffffffffffffffffffffffffff1673ffffffffffffffffffffffffffffffffffffffff16815260200190815260200160002054610c7c90919063ffffffff16565b6000808573ffffffffffffffffffffffffffffffffffffffff1673ffffffffffffffffffffffffffffffffffffffff168152602001908152602001600020819055508273ffffffffffffffffffffffffffffffffffffffff163373ffffffffffffffffffffffffffffffffffffffff167fddf252ad1be2c89b69c2b068fc378daa952ba7f163c4a11628f55a4df523b3ef84604051610b839190610dc6565b60405180910390a36001905092915050565b6000600160008473ffffffffffffffffffffffffffffffffffffffff1673ffffffffffffffffffffffffffffffffffffffff16815260200190815260200160002060008373ffffffffffffffffffffffffffffffffffffffff1673ffffffffffffffffffffffffffffffffffffffff16815260200190815260200160002054905092915050565b6040518060400160405280600381526020017f455243000000000000000000000000000000000000000000000000000000000081525081565b600082821115610c6857610c6761101a565b5b8183610c749190611049565b905092915050565b6000808284610c8b9190610fe6565b905083811015610c9e57610c9d61101a565b5b8091505092915050565b600080fd5b600073ffffffffffffffffffffffffffffffffffffffff82169050919050565b6000610cd882610cad565b9050919050565b610ce881610ccd565b8114610cf357600080fd5b50565b600081359050610d0581610cdf565b92915050565b6000819050919050565b610d1e81610d0b565b8114610d2957600080fd5b50565b600081359050610d3b81610d15565b92915050565b60008060408385031215610d5857610d57610ca8565b5b6000610d6685828601610cf6565b9250506020610d7785828601610d2c565b9150509250929050565b60008115159050919050565b610d9681610d81565b82525050565b6000602082019050610db16000830184610d8d565b92915050565b610dc081610d0b565b82525050565b6000602082019050610ddb6000830184610db7565b92915050565b600060208284031215610df757610df6610ca8565b5b6000610e0584828501610d2c565b91505092915050565b600080600060608486031215610e2757610e26610ca8565b5b6000610e3586828701610cf6565b9350506020610e4686828701610cf6565b9250506040610e5786828701610d2c565b9150509250925092565b600060ff82169050919050565b610e7781610e61565b82525050565b6000602082019050610e926000830184610e6e565b92915050565b600060208284031215610eae57610ead610ca8565b5b6000610ebc84828501610cf6565b91505092915050565b600081519050919050565b600082825260208201905092915050565b60005b83811015610eff578082015181840152602081019050610ee4565b60008484015250505050565b6000601f19601f8301169050919050565b6000610f2782610ec5565b610f318185610ed0565b9350610f41818560208601610ee1565b610f4a81610f0b565b840191505092915050565b60006020820190508181036000830152610f6f8184610f1c565b905092915050565b60008060408385031215610f8e57610f8d610ca8565b5b6000610f9c85828601610cf6565b9250506020610fad85828601610cf6565b9150509250929050565b7f4e487b7100000000000000000000000000000000000000000000000000000000600052601160045260246000fd5b6000610ff182610d0b565b9150610ffc83610d0b565b925082820190508082111561101457611013610fb7565b5b92915050565b7f4e487b7100000000000000000000000000000000000000000000000000000000600052600160045260246000fd5b600061105482610d0b565b915061105f83610d0b565b925082820390508181111561107757611076610fb7565b5b9291505056fea2646970667358221220831f4ef1a58e85adee03776e6de24b5b9e6021f7a5b1ef140a5ff6a28f25ba7f64736f6c63430008120033",
					"opcodes": "PUSH1 0x80 PUSH1 0x40 MSTORE PUSH2 0x2710 PUSH1 0x3 SSTORE PUSH1 0x5 PUSH1 0x4 SSTORE PUSH1 0x0 PUSH1 0x7 SSTORE CALLVALUE DUP1 ISZERO PUSH3 0x21 JUMPI PUSH1 0x0 DUP1 REVERT JUMPDEST POP PUSH1 0x3 SLOAD PUSH1 0x40 MLOAD PUSH3 0x33 SWAP1 PUSH3 0x124 JUMP JUMPDEST PUSH3 0x3F SWAP2 SWAP1 PUSH3 0x14D JUMP JUMPDEST PUSH1 0x40 MLOAD DUP1 SWAP2 SUB SWAP1 PUSH1 0x0 CREATE DUP1 ISZERO DUP1 ISZERO PUSH3 0x5C JUMPI RETURNDATASIZE PUSH1 0x0 DUP1 RETURNDATACOPY RETURNDATASIZE PUSH1 0x0 REVERT JUMPDEST POP PUSH1 0x0 DUP1 PUSH2 0x100 EXP DUP2 SLOAD DUP2 PUSH20 0xFFFFFFFFFFFFFFFFFFFFFFFFFFFFFFFFFFFFFFFF MUL NOT AND SWAP1 DUP4 PUSH20 0xFFFFFFFFFFFFFFFFFFFFFFFFFFFFFFFFFFFFFFFF AND MUL OR SWAP1 SSTORE POP CALLER PUSH1 0x1 PUSH1 0x0 PUSH2 0x100 EXP DUP2 SLOAD DUP2 PUSH20 0xFFFFFFFFFFFFFFFFFFFFFFFFFFFFFFFFFFFFFFFF MUL NOT AND SWAP1 DUP4 PUSH20 0xFFFFFFFFFFFFFFFFFFFFFFFFFFFFFFFFFFFFFFFF AND MUL OR SWAP1 SSTORE POP ADDRESS PUSH1 0x2 PUSH1 0x0 PUSH2 0x100 EXP DUP2 SLOAD DUP2 PUSH20 0xFFFFFFFFFFFFFFFFFFFFFFFFFFFFFFFFFFFFFFFF MUL NOT AND SWAP1 DUP4 PUSH20 0xFFFFFFFFFFFFFFFFFFFFFFFFFFFFFFFFFFFFFFFF AND MUL OR SWAP1 SSTORE POP PUSH3 0x16A JUMP JUMPDEST PUSH2 0x11B1 DUP1 PUSH3 0x1A60 DUP4 CODECOPY ADD SWAP1 JUMP JUMPDEST PUSH1 0x0 DUP2 SWAP1 POP SWAP2 SWAP1 POP JUMP JUMPDEST PUSH3 0x147 DUP2 PUSH3 0x132 JUMP JUMPDEST DUP3 MSTORE POP POP JUMP JUMPDEST PUSH1 0x0 PUSH1 0x20 DUP3 ADD SWAP1 POP PUSH3 0x164 PUSH1 0x0 DUP4 ADD DUP5 PUSH3 0x13C JUMP JUMPDEST SWAP3 SWAP2 POP POP JUMP JUMPDEST PUSH2 0x18E6 DUP1 PUSH3 0x17A PUSH1 0x0 CODECOPY PUSH1 0x0 RETURN INVALID PUSH1 0x80 PUSH1 0x40 MSTORE PUSH1 0x4 CALLDATASIZE LT PUSH2 0xC2 JUMPI PUSH1 0x0 CALLDATALOAD PUSH1 0xE0 SHR DUP1 PUSH4 0x7F30E11C GT PUSH2 0x7F JUMPI DUP1 PUSH4 0xE1A01E67 GT PUSH2 0x59 JUMPI DUP1 PUSH4 0xE1A01E67 EQ PUSH2 0x214 JUMPI DUP1 PUSH4 0xEC980EF9 EQ PUSH2 0x23F JUMPI DUP1 PUSH4 0xEE5ADE83 EQ PUSH2 0x26A JUMPI DUP1 PUSH4 0xEFB40E2D EQ PUSH2 0x295 JUMPI PUSH2 0xC2 JUMP JUMPDEST DUP1 PUSH4 0x7F30E11C EQ PUSH2 0x1A4 JUMPI DUP1 PUSH4 0x8DA5CB5B EQ PUSH2 0x1CD JUMPI DUP1 PUSH4 0xC29DD7C9 EQ PUSH2 0x1F8 JUMPI PUSH2 0xC2 JUMP JUMPDEST DUP1 PUSH4 0x66265C5 EQ PUSH2 0xC7 JUMPI DUP1 PUSH4 0x21E0528B EQ PUSH2 0xDE JUMPI DUP1 PUSH4 0x2D8E6ADC EQ PUSH2 0x109 JUMPI DUP1 PUSH4 0x2E95161C EQ PUSH2 0x134 JUMPI DUP1 PUSH4 0x4947830D EQ PUSH2 0x150 JUMPI DUP1 PUSH4 0x779C6A4C EQ PUSH2 0x179 JUMPI JUMPDEST PUSH1 0x0 DUP1 REVERT JUMPDEST CALLVALUE DUP1 ISZERO PUSH2 0xD3 JUMPI PUSH1 0x0 DUP1 REVERT JUMPDEST POP PUSH2 0xDC PUSH2 0x2C0 JUMP JUMPDEST STOP JUMPDEST CALLVALUE DUP1 ISZERO PUSH2 0xEA JUMPI PUSH1 0x0 DUP1 REVERT JUMPDEST POP PUSH2 0xF3 PUSH2 0x541 JUMP JUMPDEST PUSH1 0x40 MLOAD PUSH2 0x100 SWAP2 SWAP1 PUSH2 0xFF1 JUMP JUMPDEST PUSH1 0x40 MLOAD DUP1 SWAP2 SUB SWAP1 RETURN JUMPDEST CALLVALUE DUP1 ISZERO PUSH2 0x115 JUMPI PUSH1 0x0 DUP1 REVERT JUMPDEST POP PUSH2 0x11E PUSH2 0x5E3 JUMP JUMPDEST PUSH1 0x40 MLOAD PUSH2 0x12B SWAP2 SWAP1 PUSH2 0xFF1 JUMP JUMPDEST PUSH1 0x40 MLOAD DUP1 SWAP2 SUB SWAP1 RETURN JUMPDEST PUSH2 0x14E PUSH1 0x4 DUP1 CALLDATASIZE SUB DUP2 ADD SWAP1 PUSH2 0x149 SWAP2 SWAP1 PUSH2 0x103D JUMP JUMPDEST PUSH2 0x5E9 JUMP JUMPDEST STOP JUMPDEST CALLVALUE DUP1 ISZERO PUSH2 0x15C JUMPI PUSH1 0x0 DUP1 REVERT JUMPDEST POP PUSH2 0x177 PUSH1 0x4 DUP1 CALLDATASIZE SUB DUP2 ADD SWAP1 PUSH2 0x172 SWAP2 SWAP1 PUSH2 0x103D JUMP JUMPDEST PUSH2 0x7A2 JUMP JUMPDEST STOP JUMPDEST CALLVALUE DUP1 ISZERO PUSH2 0x185 JUMPI PUSH1 0x0 DUP1 REVERT JUMPDEST POP PUSH2 0x18E PUSH2 0x8C2 JUMP JUMPDEST PUSH1 0x40 MLOAD PUSH2 0x19B SWAP2 SWAP1 PUSH2 0xFF1 JUMP JUMPDEST PUSH1 0x40 MLOAD DUP1 SWAP2 SUB SWAP1 RETURN JUMPDEST CALLVALUE DUP1 ISZERO PUSH2 0x1B0 JUMPI PUSH1 0x0 DUP1 REVERT JUMPDEST POP PUSH2 0x1CB PUSH1 0x4 DUP1 CALLDATASIZE SUB DUP2 ADD SWAP1 PUSH2 0x1C6 SWAP2 SWAP1 PUSH2 0x103D JUMP JUMPDEST PUSH2 0x986 JUMP JUMPDEST STOP JUMPDEST CALLVALUE DUP1 ISZERO PUSH2 0x1D9 JUMPI PUSH1 0x0 DUP1 REVERT JUMPDEST POP PUSH2 0x1E2 PUSH2 0xC3C JUMP JUMPDEST PUSH1 0x40 MLOAD PUSH2 0x1EF SWAP2 SWAP1 PUSH2 0x10AB JUMP JUMPDEST PUSH1 0x40 MLOAD DUP1 SWAP2 SUB SWAP1 RETURN JUMPDEST PUSH2 0x212 PUSH1 0x4 DUP1 CALLDATASIZE SUB DUP2 ADD SWAP1 PUSH2 0x20D SWAP2 SWAP1 PUSH2 0x103D JUMP JUMPDEST PUSH2 0xC62 JUMP JUMPDEST STOP JUMPDEST CALLVALUE DUP1 ISZERO PUSH2 0x220 JUMPI PUSH1 0x0 DUP1 REVERT JUMPDEST POP PUSH2 0x229 PUSH2 0xE36 JUMP JUMPDEST PUSH1 0x40 MLOAD PUSH2 0x236 SWAP2 SWAP1 PUSH2 0x10AB JUMP JUMPDEST PUSH1 0x40 MLOAD DUP1 SWAP2 SUB SWAP1 RETURN JUMPDEST CALLVALUE DUP1 ISZERO PUSH2 0x24B JUMPI PUSH1 0x0 DUP1 REVERT JUMPDEST POP PUSH2 0x254 PUSH2 0xE5C JUMP JUMPDEST PUSH1 0x40 MLOAD PUSH2 0x261 SWAP2 SWAP1 PUSH2 0xFF1 JUMP JUMPDEST PUSH1 0x40 MLOAD DUP1 SWAP2 SUB SWAP1 RETURN JUMPDEST CALLVALUE DUP1 ISZERO PUSH2 0x276 JUMPI PUSH1 0x0 DUP1 REVERT JUMPDEST POP PUSH2 0x27F PUSH2 0xF20 JUMP JUMPDEST PUSH1 0x40 MLOAD PUSH2 0x28C SWAP2 SWAP1 PUSH2 0xFF1 JUMP JUMPDEST PUSH1 0x40 MLOAD DUP1 SWAP2 SUB SWAP1 RETURN JUMPDEST CALLVALUE DUP1 ISZERO PUSH2 0x2A1 JUMPI PUSH1 0x0 DUP1 REVERT JUMPDEST POP PUSH2 0x2AA PUSH2 0xF26 JUMP JUMPDEST PUSH1 0x40 MLOAD PUSH2 0x2B7 SWAP2 SWAP1 PUSH2 0x1184 JUMP JUMPDEST PUSH1 0x40 MLOAD DUP1 SWAP2 SUB SWAP1 RETURN JUMPDEST CALLER PUSH1 0x1 PUSH1 0x0 SWAP1 SLOAD SWAP1 PUSH2 0x100 EXP SWAP1 DIV PUSH20 0xFFFFFFFFFFFFFFFFFFFFFFFFFFFFFFFFFFFFFFFF AND PUSH20 0xFFFFFFFFFFFFFFFFFFFFFFFFFFFFFFFFFFFFFFFF AND DUP2 PUSH20 0xFFFFFFFFFFFFFFFFFFFFFFFFFFFFFFFFFFFFFFFF AND EQ PUSH2 0x351 JUMPI PUSH1 0x40 MLOAD PUSH32 0x8C379A000000000000000000000000000000000000000000000000000000000 DUP2 MSTORE PUSH1 0x4 ADD PUSH2 0x348 SWAP1 PUSH2 0x1229 JUMP JUMPDEST PUSH1 0x40 MLOAD DUP1 SWAP2 SUB SWAP1 REVERT JUMPDEST PUSH1 0x0 PUSH1 0x8 DUP1 SLOAD SWAP1 POP GT PUSH2 0x399 JUMPI PUSH1 0x40 MLOAD PUSH32 0x8C379A000000000000000000000000000000000000000000000000000000000 DUP2 MSTORE PUSH1 0x4 ADD PUSH2 0x390 SWAP1 PUSH2 0x1295 JUMP JUMPDEST PUSH1 0x40 MLOAD DUP1 SWAP2 SUB SWAP1 REVERT JUMPDEST PUSH1 0x0 PUSH1 0x8 DUP1 SLOAD SWAP1 POP SWAP1 POP PUSH1 0x0 DUP2 TIMESTAMP PUSH1 0x40 MLOAD PUSH1 0x20 ADD PUSH2 0x3B7 SWAP2 SWAP1 PUSH2 0x12D6 JUMP JUMPDEST PUSH1 0x40 MLOAD PUSH1 0x20 DUP2 DUP4 SUB SUB DUP2 MSTORE SWAP1 PUSH1 0x40 MSTORE DUP1 MLOAD SWAP1 PUSH1 0x20 ADD KECCAK256 PUSH1 0x0 SHR PUSH2 0x3DA SWAP2 SWAP1 PUSH2 0x1320 JUMP JUMPDEST SWAP1 POP PUSH1 0x0 PUSH1 0x8 DUP3 DUP2 SLOAD DUP2 LT PUSH2 0x3F2 JUMPI PUSH2 0x3F1 PUSH2 0x1351 JUMP JUMPDEST JUMPDEST SWAP1 PUSH1 0x0 MSTORE PUSH1 0x20 PUSH1 0x0 KECCAK256 ADD SLOAD SWAP1 POP PUSH1 0x0 PUSH1 0x6 PUSH1 0x0 DUP4 DUP2 MSTORE PUSH1 0x20 ADD SWAP1 DUP2 MSTORE PUSH1 0x20 ADD PUSH1 0x0 KECCAK256 PUSH1 0x0 SWAP1 SLOAD SWAP1 PUSH2 0x100 EXP SWAP1 DIV PUSH20 0xFFFFFFFFFFFFFFFFFFFFFFFFFFFFFFFFFFFFFFFF AND SWAP1 POP PUSH32 0xDF318F1F5A0A5907E4DAEB60C6A1DE77A7808F267A25358A284ADAFA13309C61 DUP3 DUP3 PUSH1 0x40 MLOAD PUSH2 0x468 SWAP3 SWAP2 SWAP1 PUSH2 0x1380 JUMP JUMPDEST PUSH1 0x40 MLOAD DUP1 SWAP2 SUB SWAP1 LOG1 PUSH1 0x0 DUP1 SLOAD SWAP1 PUSH2 0x100 EXP SWAP1 DIV PUSH20 0xFFFFFFFFFFFFFFFFFFFFFFFFFFFFFFFFFFFFFFFF AND PUSH20 0xFFFFFFFFFFFFFFFFFFFFFFFFFFFFFFFFFFFFFFFF AND PUSH4 0x5C79FEBB PUSH1 0x1 PUSH1 0x0 SWAP1 SLOAD SWAP1 PUSH2 0x100 EXP SWAP1 DIV PUSH20 0xFFFFFFFFFFFFFFFFFFFFFFFFFFFFFFFFFFFFFFFF AND DUP4 PUSH2 0x4D8 PUSH2 0xE5C JUMP JUMPDEST PUSH1 0x40 MLOAD DUP5 PUSH4 0xFFFFFFFF AND PUSH1 0xE0 SHL DUP2 MSTORE PUSH1 0x4 ADD PUSH2 0x4F6 SWAP4 SWAP3 SWAP2 SWAP1 PUSH2 0x13A9 JUMP JUMPDEST PUSH1 0x20 PUSH1 0x40 MLOAD DUP1 DUP4 SUB DUP2 PUSH1 0x0 DUP8 GAS CALL ISZERO DUP1 ISZERO PUSH2 0x515 JUMPI RETURNDATASIZE PUSH1 0x0 DUP1 RETURNDATACOPY RETURNDATASIZE PUSH1 0x0 REVERT JUMPDEST POP POP POP POP PUSH1 0x40 MLOAD RETURNDATASIZE PUSH1 0x1F NOT PUSH1 0x1F DUP3 ADD AND DUP3 ADD DUP1 PUSH1 0x40 MSTORE POP DUP2 ADD SWAP1 PUSH2 0x539 SWAP2 SWAP1 PUSH2 0x1418 JUMP JUMPDEST POP POP POP POP POP POP JUMP JUMPDEST PUSH1 0x0 DUP1 PUSH1 0x0 SWAP1 SLOAD SWAP1 PUSH2 0x100 EXP SWAP1 DIV PUSH20 0xFFFFFFFFFFFFFFFFFFFFFFFFFFFFFFFFFFFFFFFF AND PUSH20 0xFFFFFFFFFFFFFFFFFFFFFFFFFFFFFFFFFFFFFFFF AND PUSH4 0x70A08231 CALLER PUSH1 0x40 MLOAD DUP3 PUSH4 0xFFFFFFFF AND PUSH1 0xE0 SHL DUP2 MSTORE PUSH1 0x4 ADD PUSH2 0x59D SWAP2 SWAP1 PUSH2 0x10AB JUMP JUMPDEST PUSH1 0x20 PUSH1 0x40 MLOAD DUP1 DUP4 SUB DUP2 DUP7 GAS STATICCALL ISZERO DUP1 ISZERO PUSH2 0x5BA JUMPI RETURNDATASIZE PUSH1 0x0 DUP1 RETURNDATACOPY RETURNDATASIZE PUSH1 0x0 REVERT JUMPDEST POP POP POP POP PUSH1 0x40 MLOAD RETURNDATASIZE PUSH1 0x1F NOT PUSH1 0x1F DUP3 ADD AND DUP3 ADD DUP1 PUSH1 0x40 MSTORE POP DUP2 ADD SWAP1 PUSH2 0x5DE SWAP2 SWAP1 PUSH2 0x145A JUMP JUMPDEST SWAP1 POP SWAP1 JUMP JUMPDEST PUSH1 0x3 SLOAD DUP2 JUMP JUMPDEST PUSH1 0x0 DUP2 GT PUSH2 0x62C JUMPI PUSH1 0x40 MLOAD PUSH32 0x8C379A000000000000000000000000000000000000000000000000000000000 DUP2 MSTORE PUSH1 0x4 ADD PUSH2 0x623 SWAP1 PUSH2 0x14D3 JUMP JUMPDEST PUSH1 0x40 MLOAD DUP1 SWAP2 SUB SWAP1 REVERT JUMPDEST PUSH2 0x634 PUSH2 0x541 JUMP JUMPDEST DUP2 GT ISZERO PUSH2 0x676 JUMPI PUSH1 0x40 MLOAD PUSH32 0x8C379A000000000000000000000000000000000000000000000000000000000 DUP2 MSTORE PUSH1 0x4 ADD PUSH2 0x66D SWAP1 PUSH2 0x1565 JUMP JUMPDEST PUSH1 0x40 MLOAD DUP1 SWAP2 SUB SWAP1 REVERT JUMPDEST PUSH1 0x0 DUP1 SLOAD SWAP1 PUSH2 0x100 EXP SWAP1 DIV PUSH20 0xFFFFFFFFFFFFFFFFFFFFFFFFFFFFFFFFFFFFFFFF AND PUSH20 0xFFFFFFFFFFFFFFFFFFFFFFFFFFFFFFFFFFFFFFFF AND PUSH4 0x5C79FEBB CALLER ADDRESS DUP5 PUSH1 0x40 MLOAD DUP5 PUSH4 0xFFFFFFFF AND PUSH1 0xE0 SHL DUP2 MSTORE PUSH1 0x4 ADD PUSH2 0x6D3 SWAP4 SWAP3 SWAP2 SWAP1 PUSH2 0x13A9 JUMP JUMPDEST PUSH1 0x20 PUSH1 0x40 MLOAD DUP1 DUP4 SUB DUP2 PUSH1 0x0 DUP8 GAS CALL ISZERO DUP1 ISZERO PUSH2 0x6F2 JUMPI RETURNDATASIZE PUSH1 0x0 DUP1 RETURNDATACOPY RETURNDATASIZE PUSH1 0x0 REVERT JUMPDEST POP POP POP POP PUSH1 0x40 MLOAD RETURNDATASIZE PUSH1 0x1F NOT PUSH1 0x1F DUP3 ADD AND DUP3 ADD DUP1 PUSH1 0x40 MSTORE POP DUP2 ADD SWAP1 PUSH2 0x716 SWAP2 SWAP1 PUSH2 0x1418 JUMP JUMPDEST POP CALLER PUSH20 0xFFFFFFFFFFFFFFFFFFFFFFFFFFFFFFFFFFFFFFFF AND PUSH2 0x8FC PUSH2 0x73A DUP4 PUSH2 0xFBB JUMP JUMPDEST SWAP1 DUP2 ISZERO MUL SWAP1 PUSH1 0x40 MLOAD PUSH1 0x0 PUSH1 0x40 MLOAD DUP1 DUP4 SUB DUP2 DUP6 DUP9 DUP9 CALL SWAP4 POP POP POP POP ISZERO DUP1 ISZERO PUSH2 0x765 JUMPI RETURNDATASIZE PUSH1 0x0 DUP1 RETURNDATACOPY RETURNDATASIZE PUSH1 0x0 REVERT JUMPDEST POP PUSH32 0xA997A52566B1F8380F086C733E70D49A141EAFECE6ADDC432A411A73EC45C688 DUP2 CALLER PUSH1 0x40 MLOAD PUSH2 0x797 SWAP3 SWAP2 SWAP1 PUSH2 0x1380 JUMP JUMPDEST PUSH1 0x40 MLOAD DUP1 SWAP2 SUB SWAP1 LOG1 POP JUMP JUMPDEST CALLER PUSH1 0x1 PUSH1 0x0 SWAP1 SLOAD SWAP1 PUSH2 0x100 EXP SWAP1 DIV PUSH20 0xFFFFFFFFFFFFFFFFFFFFFFFFFFFFFFFFFFFFFFFF AND PUSH20 0xFFFFFFFFFFFFFFFFFFFFFFFFFFFFFFFFFFFFFFFF AND DUP2 PUSH20 0xFFFFFFFFFFFFFFFFFFFFFFFFFFFFFFFFFFFFFFFF AND EQ PUSH2 0x833 JUMPI PUSH1 0x40 MLOAD PUSH32 0x8C379A000000000000000000000000000000000000000000000000000000000 DUP2 MSTORE PUSH1 0x4 ADD PUSH2 0x82A SWAP1 PUSH2 0x1229 JUMP JUMPDEST PUSH1 0x40 MLOAD DUP1 SWAP2 SUB SWAP1 REVERT JUMPDEST PUSH1 0x0 DUP1 SLOAD SWAP1 PUSH2 0x100 EXP SWAP1 DIV PUSH20 0xFFFFFFFFFFFFFFFFFFFFFFFFFFFFFFFFFFFFFFFF AND PUSH20 0xFFFFFFFFFFFFFFFFFFFFFFFFFFFFFFFFFFFFFFFF AND PUSH4 0x1D43CC98 DUP4 PUSH1 0x40 MLOAD DUP3 PUSH4 0xFFFFFFFF AND PUSH1 0xE0 SHL DUP2 MSTORE PUSH1 0x4 ADD PUSH2 0x88C SWAP2 SWAP1 PUSH2 0xFF1 JUMP JUMPDEST PUSH1 0x0 PUSH1 0x40 MLOAD DUP1 DUP4 SUB DUP2 PUSH1 0x0 DUP8 DUP1 EXTCODESIZE ISZERO DUP1 ISZERO PUSH2 0x8A6 JUMPI PUSH1 0x0 DUP1 REVERT JUMPDEST POP GAS CALL ISZERO DUP1 ISZERO PUSH2 0x8BA JUMPI RETURNDATASIZE PUSH1 0x0 DUP1 RETURNDATACOPY RETURNDATASIZE PUSH1 0x0 REVERT JUMPDEST POP POP POP POP POP POP JUMP JUMPDEST PUSH1 0x0 DUP1 PUSH1 0x0 SWAP1 SLOAD SWAP1 PUSH2 0x100 EXP SWAP1 DIV PUSH20 0xFFFFFFFFFFFFFFFFFFFFFFFFFFFFFFFFFFFFFFFF AND PUSH20 0xFFFFFFFFFFFFFFFFFFFFFFFFFFFFFFFFFFFFFFFF AND PUSH4 0x70A08231 PUSH1 0x2 PUSH1 0x0 SWAP1 SLOAD SWAP1 PUSH2 0x100 EXP SWAP1 DIV PUSH20 0xFFFFFFFFFFFFFFFFFFFFFFFFFFFFFFFFFFFFFFFF AND PUSH1 0x40 MLOAD DUP3 PUSH4 0xFFFFFFFF AND PUSH1 0xE0 SHL DUP2 MSTORE PUSH1 0x4 ADD PUSH2 0x940 SWAP2 SWAP1 PUSH2 0x10AB JUMP JUMPDEST PUSH1 0x20 PUSH1 0x40 MLOAD DUP1 DUP4 SUB DUP2 DUP7 GAS STATICCALL ISZERO DUP1 ISZERO PUSH2 0x95D JUMPI RETURNDATASIZE PUSH1 0x0 DUP1 RETURNDATACOPY RETURNDATASIZE PUSH1 0x0 REVERT JUMPDEST POP POP POP POP PUSH1 0x40 MLOAD RETURNDATASIZE PUSH1 0x1F NOT PUSH1 0x1F DUP3 ADD AND DUP3 ADD DUP1 PUSH1 0x40 MSTORE POP DUP2 ADD SWAP1 PUSH2 0x981 SWAP2 SWAP1 PUSH2 0x145A JUMP JUMPDEST SWAP1 POP SWAP1 JUMP JUMPDEST PUSH1 0x0 PUSH1 0x4 SLOAD DUP3 PUSH2 0x996 SWAP2 SWAP1 PUSH2 0x15B4 JUMP JUMPDEST SWAP1 POP PUSH2 0x9A0 PUSH2 0x541 JUMP JUMPDEST DUP2 GT ISZERO PUSH2 0x9E2 JUMPI PUSH1 0x40 MLOAD PUSH32 0x8C379A000000000000000000000000000000000000000000000000000000000 DUP2 MSTORE PUSH1 0x4 ADD PUSH2 0x9D9 SWAP1 PUSH2 0x1642 JUMP JUMPDEST PUSH1 0x40 MLOAD DUP1 SWAP2 SUB SWAP1 REVERT JUMPDEST PUSH1 0x0 DUP1 SLOAD SWAP1 PUSH2 0x100 EXP SWAP1 DIV PUSH20 0xFFFFFFFFFFFFFFFFFFFFFFFFFFFFFFFFFFFFFFFF AND PUSH20 0xFFFFFFFFFFFFFFFFFFFFFFFFFFFFFFFFFFFFFFFF AND PUSH4 0x5C79FEBB CALLER PUSH1 0x1 PUSH1 0x0 SWAP1 SLOAD SWAP1 PUSH2 0x100 EXP SWAP1 DIV PUSH20 0xFFFFFFFFFFFFFFFFFFFFFFFFFFFFFFFFFFFFFFFF AND DUP5 PUSH1 0x40 MLOAD DUP5 PUSH4 0xFFFFFFFF AND PUSH1 0xE0 SHL DUP2 MSTORE PUSH1 0x4 ADD PUSH2 0xA61 SWAP4 SWAP3 SWAP2 SWAP1 PUSH2 0x13A9 JUMP JUMPDEST PUSH1 0x20 PUSH1 0x40 MLOAD DUP1 DUP4 SUB DUP2 PUSH1 0x0 DUP8 GAS CALL ISZERO DUP1 ISZERO PUSH2 0xA80 JUMPI RETURNDATASIZE PUSH1 0x0 DUP1 RETURNDATACOPY RETURNDATASIZE PUSH1 0x0 REVERT JUMPDEST POP POP POP POP PUSH1 0x40 MLOAD RETURNDATASIZE PUSH1 0x1F NOT PUSH1 0x1F DUP3 ADD AND DUP3 ADD DUP1 PUSH1 0x40 MSTORE POP DUP2 ADD SWAP1 PUSH2 0xAA4 SWAP2 SWAP1 PUSH2 0x1418 JUMP JUMPDEST POP PUSH1 0x0 JUMPDEST DUP3 DUP2 LT ISZERO PUSH2 0xC37 JUMPI PUSH1 0x0 PUSH2 0x2710 TIMESTAMP CALLER PUSH1 0x7 SLOAD PUSH1 0x40 MLOAD PUSH1 0x20 ADD PUSH2 0xACC SWAP4 SWAP3 SWAP2 SWAP1 PUSH2 0x16AA JUMP JUMPDEST PUSH1 0x40 MLOAD PUSH1 0x20 DUP2 DUP4 SUB SUB DUP2 MSTORE SWAP1 PUSH1 0x40 MSTORE DUP1 MLOAD SWAP1 PUSH1 0x20 ADD KECCAK256 PUSH1 0x0 SHR PUSH2 0xAEF SWAP2 SWAP1 PUSH2 0x1320 JUMP JUMPDEST SWAP1 POP PUSH1 0x7 PUSH1 0x0 DUP2 SLOAD DUP1 SWAP3 SWAP2 SWAP1 PUSH2 0xB04 SWAP1 PUSH2 0x16E7 JUMP JUMPDEST SWAP2 SWAP1 POP SSTORE POP PUSH1 0x5 PUSH1 0x0 CALLER PUSH20 0xFFFFFFFFFFFFFFFFFFFFFFFFFFFFFFFFFFFFFFFF AND PUSH20 0xFFFFFFFFFFFFFFFFFFFFFFFFFFFFFFFFFFFFFFFF AND DUP2 MSTORE PUSH1 0x20 ADD SWAP1 DUP2 MSTORE PUSH1 0x20 ADD PUSH1 0x0 KECCAK256 DUP2 SWAP1 DUP1 PUSH1 0x1 DUP2 SLOAD ADD DUP1 DUP3 SSTORE DUP1 SWAP2 POP POP PUSH1 0x1 SWAP1 SUB SWAP1 PUSH1 0x0 MSTORE PUSH1 0x20 PUSH1 0x0 KECCAK256 ADD PUSH1 0x0 SWAP1 SWAP2 SWAP1 SWAP2 SWAP1 SWAP2 POP SSTORE PUSH1 0x8 DUP2 SWAP1 DUP1 PUSH1 0x1 DUP2 SLOAD ADD DUP1 DUP3 SSTORE DUP1 SWAP2 POP POP PUSH1 0x1 SWAP1 SUB SWAP1 PUSH1 0x0 MSTORE PUSH1 0x20 PUSH1 0x0 KECCAK256 ADD PUSH1 0x0 SWAP1 SWAP2 SWAP1 SWAP2 SWAP1 SWAP2 POP SSTORE CALLER PUSH1 0x6 PUSH1 0x0 DUP4 DUP2 MSTORE PUSH1 0x20 ADD SWAP1 DUP2 MSTORE PUSH1 0x20 ADD PUSH1 0x0 KECCAK256 PUSH1 0x0 PUSH2 0x100 EXP DUP2 SLOAD DUP2 PUSH20 0xFFFFFFFFFFFFFFFFFFFFFFFFFFFFFFFFFFFFFFFF MUL NOT AND SWAP1 DUP4 PUSH20 0xFFFFFFFFFFFFFFFFFFFFFFFFFFFFFFFFFFFFFFFF AND MUL OR SWAP1 SSTORE POP PUSH32 0xC050FB32D57BA0CFD6BF3BF1CC039866094F4506EC6D20BE323DECD380F86434 DUP2 CALLER PUSH1 0x40 MLOAD PUSH2 0xC1B SWAP3 SWAP2 SWAP1 PUSH2 0x1380 JUMP JUMPDEST PUSH1 0x40 MLOAD DUP1 SWAP2 SUB SWAP1 LOG1 POP DUP1 DUP1 PUSH2 0xC2F SWAP1 PUSH2 0x16E7 JUMP JUMPDEST SWAP2 POP POP PUSH2 0xAA8 JUMP JUMPDEST POP POP POP JUMP JUMPDEST PUSH1 0x1 PUSH1 0x0 SWAP1 SLOAD SWAP1 PUSH2 0x100 EXP SWAP1 DIV PUSH20 0xFFFFFFFFFFFFFFFFFFFFFFFFFFFFFFFFFFFFFFFF AND DUP2 JUMP JUMPDEST PUSH1 0x0 PUSH2 0xC6D DUP3 PUSH2 0xFBB JUMP JUMPDEST SWAP1 POP CALLVALUE DUP2 GT ISZERO PUSH2 0xCB2 JUMPI PUSH1 0x40 MLOAD PUSH32 0x8C379A000000000000000000000000000000000000000000000000000000000 DUP2 MSTORE PUSH1 0x4 ADD PUSH2 0xCA9 SWAP1 PUSH2 0x17A1 JUMP JUMPDEST PUSH1 0x40 MLOAD DUP1 SWAP2 SUB SWAP1 REVERT JUMPDEST PUSH1 0x0 DUP2 CALLVALUE PUSH2 0xCC0 SWAP2 SWAP1 PUSH2 0x17C1 JUMP JUMPDEST SWAP1 POP CALLER PUSH20 0xFFFFFFFFFFFFFFFFFFFFFFFFFFFFFFFFFFFFFFFF AND PUSH2 0x8FC DUP3 SWAP1 DUP2 ISZERO MUL SWAP1 PUSH1 0x40 MLOAD PUSH1 0x0 PUSH1 0x40 MLOAD DUP1 DUP4 SUB DUP2 DUP6 DUP9 DUP9 CALL SWAP4 POP POP POP POP ISZERO DUP1 ISZERO PUSH2 0xD08 JUMPI RETURNDATASIZE PUSH1 0x0 DUP1 RETURNDATACOPY RETURNDATASIZE PUSH1 0x0 REVERT JUMPDEST POP PUSH1 0x0 PUSH2 0xD13 PUSH2 0x8C2 JUMP JUMPDEST SWAP1 POP DUP1 DUP5 GT ISZERO PUSH2 0xD58 JUMPI PUSH1 0x40 MLOAD PUSH32 0x8C379A000000000000000000000000000000000000000000000000000000000 DUP2 MSTORE PUSH1 0x4 ADD PUSH2 0xD4F SWAP1 PUSH2 0x1867 JUMP JUMPDEST PUSH1 0x40 MLOAD DUP1 SWAP2 SUB SWAP1 REVERT JUMPDEST PUSH1 0x0 DUP1 SLOAD SWAP1 PUSH2 0x100 EXP SWAP1 DIV PUSH20 0xFFFFFFFFFFFFFFFFFFFFFFFFFFFFFFFFFFFFFFFF AND PUSH20 0xFFFFFFFFFFFFFFFFFFFFFFFFFFFFFFFFFFFFFFFF AND PUSH4 0xA9059CBB CALLER DUP7 PUSH1 0x40 MLOAD DUP4 PUSH4 0xFFFFFFFF AND PUSH1 0xE0 SHL DUP2 MSTORE PUSH1 0x4 ADD PUSH2 0xDB3 SWAP3 SWAP2 SWAP1 PUSH2 0x1887 JUMP JUMPDEST PUSH1 0x20 PUSH1 0x40 MLOAD DUP1 DUP4 SUB DUP2 PUSH1 0x0 DUP8 GAS CALL ISZERO DUP1 ISZERO PUSH2 0xDD2 JUMPI RETURNDATASIZE PUSH1 0x0 DUP1 RETURNDATACOPY RETURNDATASIZE PUSH1 0x0 REVERT JUMPDEST POP POP POP POP PUSH1 0x40 MLOAD RETURNDATASIZE PUSH1 0x1F NOT PUSH1 0x1F DUP3 ADD AND DUP3 ADD DUP1 PUSH1 0x40 MSTORE POP DUP2 ADD SWAP1 PUSH2 0xDF6 SWAP2 SWAP1 PUSH2 0x1418 JUMP JUMPDEST POP PUSH32 0xD4321BCEE18FF277071C0DA811F0AA05F00127696B4D8077E37F5F5891F43950 DUP5 CALLER PUSH1 0x40 MLOAD PUSH2 0xE28 SWAP3 SWAP2 SWAP1 PUSH2 0x1380 JUMP JUMPDEST PUSH1 0x40 MLOAD DUP1 SWAP2 SUB SWAP1 LOG1 POP POP POP POP JUMP JUMPDEST PUSH1 0x2 PUSH1 0x0 SWAP1 SLOAD SWAP1 PUSH2 0x100 EXP SWAP1 DIV PUSH20 0xFFFFFFFFFFFFFFFFFFFFFFFFFFFFFFFFFFFFFFFF AND DUP2 JUMP JUMPDEST PUSH1 0x0 DUP1 PUSH1 0x0 SWAP1 SLOAD SWAP1 PUSH2 0x100 EXP SWAP1 DIV PUSH20 0xFFFFFFFFFFFFFFFFFFFFFFFFFFFFFFFFFFFFFFFF AND PUSH20 0xFFFFFFFFFFFFFFFFFFFFFFFFFFFFFFFFFFFFFFFF AND PUSH4 0x70A08231 PUSH1 0x1 PUSH1 0x0 SWAP1 SLOAD SWAP1 PUSH2 0x100 EXP SWAP1 DIV PUSH20 0xFFFFFFFFFFFFFFFFFFFFFFFFFFFFFFFFFFFFFFFF AND PUSH1 0x40 MLOAD DUP3 PUSH4 0xFFFFFFFF AND PUSH1 0xE0 SHL DUP2 MSTORE PUSH1 0x4 ADD PUSH2 0xEDA SWAP2 SWAP1 PUSH2 0x10AB JUMP JUMPDEST PUSH1 0x20 PUSH1 0x40 MLOAD DUP1 DUP4 SUB DUP2 DUP7 GAS STATICCALL ISZERO DUP1 ISZERO PUSH2 0xEF7 JUMPI RETURNDATASIZE PUSH1 0x0 DUP1 RETURNDATACOPY RETURNDATASIZE PUSH1 0x0 REVERT JUMPDEST POP POP POP POP PUSH1 0x40 MLOAD RETURNDATASIZE PUSH1 0x1F NOT PUSH1 0x1F DUP3 ADD AND DUP3 ADD DUP1 PUSH1 0x40 MSTORE POP DUP2 ADD SWAP1 PUSH2 0xF1B SWAP2 SWAP1 PUSH2 0x145A JUMP JUMPDEST SWAP1 POP SWAP1 JUMP JUMPDEST PUSH1 0x4 SLOAD DUP2 JUMP JUMPDEST PUSH1 0x60 PUSH1 0x5 PUSH1 0x0 CALLER PUSH20 0xFFFFFFFFFFFFFFFFFFFFFFFFFFFFFFFFFFFFFFFF AND PUSH20 0xFFFFFFFFFFFFFFFFFFFFFFFFFFFFFFFFFFFFFFFF AND DUP2 MSTORE PUSH1 0x20 ADD SWAP1 DUP2 MSTORE PUSH1 0x20 ADD PUSH1 0x0 KECCAK256 DUP1 SLOAD DUP1 PUSH1 0x20 MUL PUSH1 0x20 ADD PUSH1 0x40 MLOAD SWAP1 DUP2 ADD PUSH1 0x40 MSTORE DUP1 SWAP3 SWAP2 SWAP1 DUP2 DUP2 MSTORE PUSH1 0x20 ADD DUP3 DUP1 SLOAD DUP1 ISZERO PUSH2 0xFB1 JUMPI PUSH1 0x20 MUL DUP3 ADD SWAP2 SWAP1 PUSH1 0x0 MSTORE PUSH1 0x20 PUSH1 0x0 KECCAK256 SWAP1 JUMPDEST DUP2 SLOAD DUP2 MSTORE PUSH1 0x20 ADD SWAP1 PUSH1 0x1 ADD SWAP1 DUP1 DUP4 GT PUSH2 0xF9D JUMPI JUMPDEST POP POP POP POP POP SWAP1 POP SWAP1 JUMP JUMPDEST PUSH1 0x0 PUSH8 0xDE0B6B3A7640000 DUP3 PUSH2 0xFD1 SWAP2 SWAP1 PUSH2 0x15B4 JUMP JUMPDEST SWAP1 POP SWAP2 SWAP1 POP JUMP JUMPDEST PUSH1 0x0 DUP2 SWAP1 POP SWAP2 SWAP1 POP JUMP JUMPDEST PUSH2 0xFEB DUP2 PUSH2 0xFD8 JUMP JUMPDEST DUP3 MSTORE POP POP JUMP JUMPDEST PUSH1 0x0 PUSH1 0x20 DUP3 ADD SWAP1 POP PUSH2 0x1006 PUSH1 0x0 DUP4 ADD DUP5 PUSH2 0xFE2 JUMP JUMPDEST SWAP3 SWAP2 POP POP JUMP JUMPDEST PUSH1 0x0 DUP1 REVERT JUMPDEST PUSH2 0x101A DUP2 PUSH2 0xFD8 JUMP JUMPDEST DUP2 EQ PUSH2 0x1025 JUMPI PUSH1 0x0 DUP1 REVERT JUMPDEST POP JUMP JUMPDEST PUSH1 0x0 DUP2 CALLDATALOAD SWAP1 POP PUSH2 0x1037 DUP2 PUSH2 0x1011 JUMP JUMPDEST SWAP3 SWAP2 POP POP JUMP JUMPDEST PUSH1 0x0 PUSH1 0x20 DUP3 DUP5 SUB SLT ISZERO PUSH2 0x1053 JUMPI PUSH2 0x1052 PUSH2 0x100C JUMP JUMPDEST JUMPDEST PUSH1 0x0 PUSH2 0x1061 DUP5 DUP3 DUP6 ADD PUSH2 0x1028 JUMP JUMPDEST SWAP2 POP POP SWAP3 SWAP2 POP POP JUMP JUMPDEST PUSH1 0x0 PUSH20 0xFFFFFFFFFFFFFFFFFFFFFFFFFFFFFFFFFFFFFFFF DUP3 AND SWAP1 POP SWAP2 SWAP1 POP JUMP JUMPDEST PUSH1 0x0 PUSH2 0x1095 DUP3 PUSH2 0x106A JUMP JUMPDEST SWAP1 POP SWAP2 SWAP1 POP JUMP JUMPDEST PUSH2 0x10A5 DUP2 PUSH2 0x108A JUMP JUMPDEST DUP3 MSTORE POP POP JUMP JUMPDEST PUSH1 0x0 PUSH1 0x20 DUP3 ADD SWAP1 POP PUSH2 0x10C0 PUSH1 0x0 DUP4 ADD DUP5 PUSH2 0x109C JUMP JUMPDEST SWAP3 SWAP2 POP POP JUMP JUMPDEST PUSH1 0x0 DUP2 MLOAD SWAP1 POP SWAP2 SWAP1 POP JUMP JUMPDEST PUSH1 0x0 DUP3 DUP3 MSTORE PUSH1 0x20 DUP3 ADD SWAP1 POP SWAP3 SWAP2 POP POP JUMP JUMPDEST PUSH1 0x0 DUP2 SWAP1 POP PUSH1 0x20 DUP3 ADD SWAP1 POP SWAP2 SWAP1 POP JUMP JUMPDEST PUSH2 0x10FB DUP2 PUSH2 0xFD8 JUMP JUMPDEST DUP3 MSTORE POP POP JUMP JUMPDEST PUSH1 0x0 PUSH2 0x110D DUP4 DUP4 PUSH2 0x10F2 JUMP JUMPDEST PUSH1 0x20 DUP4 ADD SWAP1 POP SWAP3 SWAP2 POP POP JUMP JUMPDEST PUSH1 0x0 PUSH1 0x20 DUP3 ADD SWAP1 POP SWAP2 SWAP1 POP JUMP JUMPDEST PUSH1 0x0 PUSH2 0x1131 DUP3 PUSH2 0x10C6 JUMP JUMPDEST PUSH2 0x113B DUP2 DUP6 PUSH2 0x10D1 JUMP JUMPDEST SWAP4 POP PUSH2 0x1146 DUP4 PUSH2 0x10E2 JUMP JUMPDEST DUP1 PUSH1 0x0 JUMPDEST DUP4 DUP2 LT ISZERO PUSH2 0x1177 JUMPI DUP2 MLOAD PUSH2 0x115E DUP9 DUP3 PUSH2 0x1101 JUMP JUMPDEST SWAP8 POP PUSH2 0x1169 DUP4 PUSH2 0x1119 JUMP JUMPDEST SWAP3 POP POP PUSH1 0x1 DUP2 ADD SWAP1 POP PUSH2 0x114A JUMP JUMPDEST POP DUP6 SWAP4 POP POP POP POP SWAP3 SWAP2 POP POP JUMP JUMPDEST PUSH1 0x0 PUSH1 0x20 DUP3 ADD SWAP1 POP DUP2 DUP2 SUB PUSH1 0x0 DUP4 ADD MSTORE PUSH2 0x119E DUP2 DUP5 PUSH2 0x1126 JUMP JUMPDEST SWAP1 POP SWAP3 SWAP2 POP POP JUMP JUMPDEST PUSH1 0x0 DUP3 DUP3 MSTORE PUSH1 0x20 DUP3 ADD SWAP1 POP SWAP3 SWAP2 POP POP JUMP JUMPDEST PUSH32 0x4E6F207469656E6573207065726D69736F73207061726120656A656375746172 PUSH1 0x0 DUP3 ADD MSTORE PUSH32 0x20657374612066756E63696F6E00000000000000000000000000000000000000 PUSH1 0x20 DUP3 ADD MSTORE POP JUMP JUMPDEST PUSH1 0x0 PUSH2 0x1213 PUSH1 0x2D DUP4 PUSH2 0x11A6 JUMP JUMPDEST SWAP2 POP PUSH2 0x121E DUP3 PUSH2 0x11B7 JUMP JUMPDEST PUSH1 0x40 DUP3 ADD SWAP1 POP SWAP2 SWAP1 POP JUMP JUMPDEST PUSH1 0x0 PUSH1 0x20 DUP3 ADD SWAP1 POP DUP2 DUP2 SUB PUSH1 0x0 DUP4 ADD MSTORE PUSH2 0x1242 DUP2 PUSH2 0x1206 JUMP JUMPDEST SWAP1 POP SWAP2 SWAP1 POP JUMP JUMPDEST PUSH32 0x4E6F2068617920626F6C65746F7320636F6D707261646F730000000000000000 PUSH1 0x0 DUP3 ADD MSTORE POP JUMP JUMPDEST PUSH1 0x0 PUSH2 0x127F PUSH1 0x18 DUP4 PUSH2 0x11A6 JUMP JUMPDEST SWAP2 POP PUSH2 0x128A DUP3 PUSH2 0x1249 JUMP JUMPDEST PUSH1 0x20 DUP3 ADD SWAP1 POP SWAP2 SWAP1 POP JUMP JUMPDEST PUSH1 0x0 PUSH1 0x20 DUP3 ADD SWAP1 POP DUP2 DUP2 SUB PUSH1 0x0 DUP4 ADD MSTORE PUSH2 0x12AE DUP2 PUSH2 0x1272 JUMP JUMPDEST SWAP1 POP SWAP2 SWAP1 POP JUMP JUMPDEST PUSH1 0x0 DUP2 SWAP1 POP SWAP2 SWAP1 POP JUMP JUMPDEST PUSH2 0x12D0 PUSH2 0x12CB DUP3 PUSH2 0xFD8 JUMP JUMPDEST PUSH2 0x12B5 JUMP JUMPDEST DUP3 MSTORE POP POP JUMP JUMPDEST PUSH1 0x0 PUSH2 0x12E2 DUP3 DUP5 PUSH2 0x12BF JUMP JUMPDEST PUSH1 0x20 DUP3 ADD SWAP2 POP DUP2 SWAP1 POP SWAP3 SWAP2 POP POP JUMP JUMPDEST PUSH32 0x4E487B7100000000000000000000000000000000000000000000000000000000 PUSH1 0x0 MSTORE PUSH1 0x12 PUSH1 0x4 MSTORE PUSH1 0x24 PUSH1 0x0 REVERT JUMPDEST PUSH1 0x0 PUSH2 0x132B DUP3 PUSH2 0xFD8 JUMP JUMPDEST SWAP2 POP PUSH2 0x1336 DUP4 PUSH2 0xFD8 JUMP JUMPDEST SWAP3 POP DUP3 PUSH2 0x1346 JUMPI PUSH2 0x1345 PUSH2 0x12F1 JUMP JUMPDEST JUMPDEST DUP3 DUP3 MOD SWAP1 POP SWAP3 SWAP2 POP POP JUMP JUMPDEST PUSH32 0x4E487B7100000000000000000000000000000000000000000000000000000000 PUSH1 0x0 MSTORE PUSH1 0x32 PUSH1 0x4 MSTORE PUSH1 0x24 PUSH1 0x0 REVERT JUMPDEST PUSH1 0x0 PUSH1 0x40 DUP3 ADD SWAP1 POP PUSH2 0x1395 PUSH1 0x0 DUP4 ADD DUP6 PUSH2 0xFE2 JUMP JUMPDEST PUSH2 0x13A2 PUSH1 0x20 DUP4 ADD DUP5 PUSH2 0x109C JUMP JUMPDEST SWAP4 SWAP3 POP POP POP JUMP JUMPDEST PUSH1 0x0 PUSH1 0x60 DUP3 ADD SWAP1 POP PUSH2 0x13BE PUSH1 0x0 DUP4 ADD DUP7 PUSH2 0x109C JUMP JUMPDEST PUSH2 0x13CB PUSH1 0x20 DUP4 ADD DUP6 PUSH2 0x109C JUMP JUMPDEST PUSH2 0x13D8 PUSH1 0x40 DUP4 ADD DUP5 PUSH2 0xFE2 JUMP JUMPDEST SWAP5 SWAP4 POP POP POP POP JUMP JUMPDEST PUSH1 0x0 DUP2 ISZERO ISZERO SWAP1 POP SWAP2 SWAP1 POP JUMP JUMPDEST PUSH2 0x13F5 DUP2 PUSH2 0x13E0 JUMP JUMPDEST DUP2 EQ PUSH2 0x1400 JUMPI PUSH1 0x0 DUP1 REVERT JUMPDEST POP JUMP JUMPDEST PUSH1 0x0 DUP2 MLOAD SWAP1 POP PUSH2 0x1412 DUP2 PUSH2 0x13EC JUMP JUMPDEST SWAP3 SWAP2 POP POP JUMP JUMPDEST PUSH1 0x0 PUSH1 0x20 DUP3 DUP5 SUB SLT ISZERO PUSH2 0x142E JUMPI PUSH2 0x142D PUSH2 0x100C JUMP JUMPDEST JUMPDEST PUSH1 0x0 PUSH2 0x143C DUP5 DUP3 DUP6 ADD PUSH2 0x1403 JUMP JUMPDEST SWAP2 POP POP SWAP3 SWAP2 POP POP JUMP JUMPDEST PUSH1 0x0 DUP2 MLOAD SWAP1 POP PUSH2 0x1454 DUP2 PUSH2 0x1011 JUMP JUMPDEST SWAP3 SWAP2 POP POP JUMP JUMPDEST PUSH1 0x0 PUSH1 0x20 DUP3 DUP5 SUB SLT ISZERO PUSH2 0x1470 JUMPI PUSH2 0x146F PUSH2 0x100C JUMP JUMPDEST JUMPDEST PUSH1 0x0 PUSH2 0x147E DUP5 DUP3 DUP6 ADD PUSH2 0x1445 JUMP JUMPDEST SWAP2 POP POP SWAP3 SWAP2 POP POP JUMP JUMPDEST PUSH32 0x4E6F2068617920746F6B656E732070617261206465766F6C7665720000000000 PUSH1 0x0 DUP3 ADD MSTORE POP JUMP JUMPDEST PUSH1 0x0 PUSH2 0x14BD PUSH1 0x1B DUP4 PUSH2 0x11A6 JUMP JUMPDEST SWAP2 POP PUSH2 0x14C8 DUP3 PUSH2 0x1487 JUMP JUMPDEST PUSH1 0x20 DUP3 ADD SWAP1 POP SWAP2 SWAP1 POP JUMP JUMPDEST PUSH1 0x0 PUSH1 0x20 DUP3 ADD SWAP1 POP DUP2 DUP2 SUB PUSH1 0x0 DUP4 ADD MSTORE PUSH2 0x14EC DUP2 PUSH2 0x14B0 JUMP JUMPDEST SWAP1 POP SWAP2 SWAP1 POP JUMP JUMPDEST PUSH32 0x4E6F207469656E6573206C6F7320746F6B656E73207175652064657365617320 PUSH1 0x0 DUP3 ADD MSTORE PUSH32 0x6465766F6C766572000000000000000000000000000000000000000000000000 PUSH1 0x20 DUP3 ADD MSTORE POP JUMP JUMPDEST PUSH1 0x0 PUSH2 0x154F PUSH1 0x28 DUP4 PUSH2 0x11A6 JUMP JUMPDEST SWAP2 POP PUSH2 0x155A DUP3 PUSH2 0x14F3 JUMP JUMPDEST PUSH1 0x40 DUP3 ADD SWAP1 POP SWAP2 SWAP1 POP JUMP JUMPDEST PUSH1 0x0 PUSH1 0x20 DUP3 ADD SWAP1 POP DUP2 DUP2 SUB PUSH1 0x0 DUP4 ADD MSTORE PUSH2 0x157E DUP2 PUSH2 0x1542 JUMP JUMPDEST SWAP1 POP SWAP2 SWAP1 POP JUMP JUMPDEST PUSH32 0x4E487B7100000000000000000000000000000000000000000000000000000000 PUSH1 0x0 MSTORE PUSH1 0x11 PUSH1 0x4 MSTORE PUSH1 0x24 PUSH1 0x0 REVERT JUMPDEST PUSH1 0x0 PUSH2 0x15BF DUP3 PUSH2 0xFD8 JUMP JUMPDEST SWAP2 POP PUSH2 0x15CA DUP4 PUSH2 0xFD8 JUMP JUMPDEST SWAP3 POP DUP3 DUP3 MUL PUSH2 0x15D8 DUP2 PUSH2 0xFD8 JUMP JUMPDEST SWAP2 POP DUP3 DUP3 DIV DUP5 EQ DUP4 ISZERO OR PUSH2 0x15EF JUMPI PUSH2 0x15EE PUSH2 0x1585 JUMP JUMPDEST JUMPDEST POP SWAP3 SWAP2 POP POP JUMP JUMPDEST PUSH32 0x4E6F207469656E657320737566696369656E74657320746F6B656E7300000000 PUSH1 0x0 DUP3 ADD MSTORE POP JUMP JUMPDEST PUSH1 0x0 PUSH2 0x162C PUSH1 0x1C DUP4 PUSH2 0x11A6 JUMP JUMPDEST SWAP2 POP PUSH2 0x1637 DUP3 PUSH2 0x15F6 JUMP JUMPDEST PUSH1 0x20 DUP3 ADD SWAP1 POP SWAP2 SWAP1 POP JUMP JUMPDEST PUSH1 0x0 PUSH1 0x20 DUP3 ADD SWAP1 POP DUP2 DUP2 SUB PUSH1 0x0 DUP4 ADD MSTORE PUSH2 0x165B DUP2 PUSH2 0x161F JUMP JUMPDEST SWAP1 POP SWAP2 SWAP1 POP JUMP JUMPDEST PUSH1 0x0 DUP2 PUSH1 0x60 SHL SWAP1 POP SWAP2 SWAP1 POP JUMP JUMPDEST PUSH1 0x0 PUSH2 0x167A DUP3 PUSH2 0x1662 JUMP JUMPDEST SWAP1 POP SWAP2 SWAP1 POP JUMP JUMPDEST PUSH1 0x0 PUSH2 0x168C DUP3 PUSH2 0x166F JUMP JUMPDEST SWAP1 POP SWAP2 SWAP1 POP JUMP JUMPDEST PUSH2 0x16A4 PUSH2 0x169F DUP3 PUSH2 0x108A JUMP JUMPDEST PUSH2 0x1681 JUMP JUMPDEST DUP3 MSTORE POP POP JUMP JUMPDEST PUSH1 0x0 PUSH2 0x16B6 DUP3 DUP7 PUSH2 0x12BF JUMP JUMPDEST PUSH1 0x20 DUP3 ADD SWAP2 POP PUSH2 0x16C6 DUP3 DUP6 PUSH2 0x1693 JUMP JUMPDEST PUSH1 0x14 DUP3 ADD SWAP2 POP PUSH2 0x16D6 DUP3 DUP5 PUSH2 0x12BF JUMP JUMPDEST PUSH1 0x20 DUP3 ADD SWAP2 POP DUP2 SWAP1 POP SWAP5 SWAP4 POP POP POP POP JUMP JUMPDEST PUSH1 0x0 PUSH2 0x16F2 DUP3 PUSH2 0xFD8 JUMP JUMPDEST SWAP2 POP PUSH32 0xFFFFFFFFFFFFFFFFFFFFFFFFFFFFFFFFFFFFFFFFFFFFFFFFFFFFFFFFFFFFFFFF DUP3 SUB PUSH2 0x1724 JUMPI PUSH2 0x1723 PUSH2 0x1585 JUMP JUMPDEST JUMPDEST PUSH1 0x1 DUP3 ADD SWAP1 POP SWAP2 SWAP1 POP JUMP JUMPDEST PUSH32 0x436F6D707261206D656E6F7320546F6B656E73206F207061676120636F6E206D PUSH1 0x0 DUP3 ADD MSTORE PUSH32 0x6173204574686572730000000000000000000000000000000000000000000000 PUSH1 0x20 DUP3 ADD MSTORE POP JUMP JUMPDEST PUSH1 0x0 PUSH2 0x178B PUSH1 0x29 DUP4 PUSH2 0x11A6 JUMP JUMPDEST SWAP2 POP PUSH2 0x1796 DUP3 PUSH2 0x172F JUMP JUMPDEST PUSH1 0x40 DUP3 ADD SWAP1 POP SWAP2 SWAP1 POP JUMP JUMPDEST PUSH1 0x0 PUSH1 0x20 DUP3 ADD SWAP1 POP DUP2 DUP2 SUB PUSH1 0x0 DUP4 ADD MSTORE PUSH2 0x17BA DUP2 PUSH2 0x177E JUMP JUMPDEST SWAP1 POP SWAP2 SWAP1 POP JUMP JUMPDEST PUSH1 0x0 PUSH2 0x17CC DUP3 PUSH2 0xFD8 JUMP JUMPDEST SWAP2 POP PUSH2 0x17D7 DUP4 PUSH2 0xFD8 JUMP JUMPDEST SWAP3 POP DUP3 DUP3 SUB SWAP1 POP DUP2 DUP2 GT ISZERO PUSH2 0x17EF JUMPI PUSH2 0x17EE PUSH2 0x1585 JUMP JUMPDEST JUMPDEST SWAP3 SWAP2 POP POP JUMP JUMPDEST PUSH32 0x436F6D70726120756E206E756D65726F20646520746F6B656E73206164656375 PUSH1 0x0 DUP3 ADD MSTORE PUSH32 0x61646F0000000000000000000000000000000000000000000000000000000000 PUSH1 0x20 DUP3 ADD MSTORE POP JUMP JUMPDEST PUSH1 0x0 PUSH2 0x1851 PUSH1 0x23 DUP4 PUSH2 0x11A6 JUMP JUMPDEST SWAP2 POP PUSH2 0x185C DUP3 PUSH2 0x17F5 JUMP JUMPDEST PUSH1 0x40 DUP3 ADD SWAP1 POP SWAP2 SWAP1 POP JUMP JUMPDEST PUSH1 0x0 PUSH1 0x20 DUP3 ADD SWAP1 POP DUP2 DUP2 SUB PUSH1 0x0 DUP4 ADD MSTORE PUSH2 0x1880 DUP2 PUSH2 0x1844 JUMP JUMPDEST SWAP1 POP SWAP2 SWAP1 POP JUMP JUMPDEST PUSH1 0x0 PUSH1 0x40 DUP3 ADD SWAP1 POP PUSH2 0x189C PUSH1 0x0 DUP4 ADD DUP6 PUSH2 0x109C JUMP JUMPDEST PUSH2 0x18A9 PUSH1 0x20 DUP4 ADD DUP5 PUSH2 0xFE2 JUMP JUMPDEST SWAP4 SWAP3 POP POP POP JUMP INVALID LOG2 PUSH5 0x6970667358 0x22 SLT KECCAK256 0x4B 0xD0 SDIV 0xD7 PUSH3 0xE8CBF1 0xD9 JUMP 0xC9 MOD 0xB4 0xC6 0xC3 0xA8 0xE9 0xB3 0xCE 0x21 PUSH14 0x6AEBC68FB8A905EDD7253B64736F PUSH13 0x63430008120033608060405234 DUP1 ISZERO PUSH2 0x10 JUMPI PUSH1 0x0 DUP1 REVERT JUMPDEST POP PUSH1 0x40 MLOAD PUSH3 0x11B1 CODESIZE SUB DUP1 PUSH3 0x11B1 DUP4 CODECOPY DUP2 DUP2 ADD PUSH1 0x40 MSTORE DUP2 ADD SWAP1 PUSH2 0x34 SWAP2 SWAP1 PUSH2 0xC1 JUMP JUMPDEST DUP1 PUSH1 0x2 DUP2 SWAP1 SSTORE POP PUSH1 0x2 SLOAD PUSH1 0x0 DUP1 CALLER PUSH20 0xFFFFFFFFFFFFFFFFFFFFFFFFFFFFFFFFFFFFFFFF AND PUSH20 0xFFFFFFFFFFFFFFFFFFFFFFFFFFFFFFFFFFFFFFFF AND DUP2 MSTORE PUSH1 0x20 ADD SWAP1 DUP2 MSTORE PUSH1 0x20 ADD PUSH1 0x0 KECCAK256 DUP2 SWAP1 SSTORE POP POP PUSH2 0xEE JUMP JUMPDEST PUSH1 0x0 DUP1 REVERT JUMPDEST PUSH1 0x0 DUP2 SWAP1 POP SWAP2 SWAP1 POP JUMP JUMPDEST PUSH2 0x9E DUP2 PUSH2 0x8B JUMP JUMPDEST DUP2 EQ PUSH2 0xA9 JUMPI PUSH1 0x0 DUP1 REVERT JUMPDEST POP JUMP JUMPDEST PUSH1 0x0 DUP2 MLOAD SWAP1 POP PUSH2 0xBB DUP2 PUSH2 0x95 JUMP JUMPDEST SWAP3 SWAP2 POP POP JUMP JUMPDEST PUSH1 0x0 PUSH1 0x20 DUP3 DUP5 SUB SLT ISZERO PUSH2 0xD7 JUMPI PUSH2 0xD6 PUSH2 0x86 JUMP JUMPDEST JUMPDEST PUSH1 0x0 PUSH2 0xE5 DUP5 DUP3 DUP6 ADD PUSH2 0xAC JUMP JUMPDEST SWAP2 POP POP SWAP3 SWAP2 POP POP JUMP JUMPDEST PUSH2 0x10B3 DUP1 PUSH3 0xFE PUSH1 0x0 CODECOPY PUSH1 0x0 RETURN INVALID PUSH1 0x80 PUSH1 0x40 MSTORE CALLVALUE DUP1 ISZERO PUSH2 0x10 JUMPI PUSH1 0x0 DUP1 REVERT JUMPDEST POP PUSH1 0x4 CALLDATASIZE LT PUSH2 0xA9 JUMPI PUSH1 0x0 CALLDATALOAD PUSH1 0xE0 SHR DUP1 PUSH4 0x5C79FEBB GT PUSH2 0x71 JUMPI DUP1 PUSH4 0x5C79FEBB EQ PUSH2 0x166 JUMPI DUP1 PUSH4 0x70A08231 EQ PUSH2 0x196 JUMPI DUP1 PUSH4 0xA3F4DF7E EQ PUSH2 0x1C6 JUMPI DUP1 PUSH4 0xA9059CBB EQ PUSH2 0x1E4 JUMPI DUP1 PUSH4 0xDD62ED3E EQ PUSH2 0x214 JUMPI DUP1 PUSH4 0xF76F8D78 EQ PUSH2 0x244 JUMPI PUSH2 0xA9 JUMP JUMPDEST DUP1 PUSH4 0x95EA7B3 EQ PUSH2 0xAE JUMPI DUP1 PUSH4 0x18160DDD EQ PUSH2 0xDE JUMPI DUP1 PUSH4 0x1D43CC98 EQ PUSH2 0xFC JUMPI DUP1 PUSH4 0x23B872DD EQ PUSH2 0x118 JUMPI DUP1 PUSH4 0x2E0F2625 EQ PUSH2 0x148 JUMPI JUMPDEST PUSH1 0x0 DUP1 REVERT JUMPDEST PUSH2 0xC8 PUSH1 0x4 DUP1 CALLDATASIZE SUB DUP2 ADD SWAP1 PUSH2 0xC3 SWAP2 SWAP1 PUSH2 0xD41 JUMP JUMPDEST PUSH2 0x262 JUMP JUMPDEST PUSH1 0x40 MLOAD PUSH2 0xD5 SWAP2 SWAP1 PUSH2 0xD9C JUMP JUMPDEST PUSH1 0x40 MLOAD DUP1 SWAP2 SUB SWAP1 RETURN JUMPDEST PUSH2 0xE6 PUSH2 0x354 JUMP JUMPDEST PUSH1 0x40 MLOAD PUSH2 0xF3 SWAP2 SWAP1 PUSH2 0xDC6 JUMP JUMPDEST PUSH1 0x40 MLOAD DUP1 SWAP2 SUB SWAP1 RETURN JUMPDEST PUSH2 0x116 PUSH1 0x4 DUP1 CALLDATASIZE SUB DUP2 ADD SWAP1 PUSH2 0x111 SWAP2 SWAP1 PUSH2 0xDE1 JUMP JUMPDEST PUSH2 0x35E JUMP JUMPDEST STOP JUMPDEST PUSH2 0x132 PUSH1 0x4 DUP1 CALLDATASIZE SUB DUP2 ADD SWAP1 PUSH2 0x12D SWAP2 SWAP1 PUSH2 0xE0E JUMP JUMPDEST PUSH2 0x3CF JUMP JUMPDEST PUSH1 0x40 MLOAD PUSH2 0x13F SWAP2 SWAP1 PUSH2 0xD9C JUMP JUMPDEST PUSH1 0x40 MLOAD DUP1 SWAP2 SUB SWAP1 RETURN JUMPDEST PUSH2 0x150 PUSH2 0x74A JUMP JUMPDEST PUSH1 0x40 MLOAD PUSH2 0x15D SWAP2 SWAP1 PUSH2 0xE7D JUMP JUMPDEST PUSH1 0x40 MLOAD DUP1 SWAP2 SUB SWAP1 RETURN JUMPDEST PUSH2 0x180 PUSH1 0x4 DUP1 CALLDATASIZE SUB DUP2 ADD SWAP1 PUSH2 0x17B SWAP2 SWAP1 PUSH2 0xE0E JUMP JUMPDEST PUSH2 0x74F JUMP JUMPDEST PUSH1 0x40 MLOAD PUSH2 0x18D SWAP2 SWAP1 PUSH2 0xD9C JUMP JUMPDEST PUSH1 0x40 MLOAD DUP1 SWAP2 SUB SWAP1 RETURN JUMPDEST PUSH2 0x1B0 PUSH1 0x4 DUP1 CALLDATASIZE SUB DUP2 ADD SWAP1 PUSH2 0x1AB SWAP2 SWAP1 PUSH2 0xE98 JUMP JUMPDEST PUSH2 0x932 JUMP JUMPDEST PUSH1 0x40 MLOAD PUSH2 0x1BD SWAP2 SWAP1 PUSH2 0xDC6 JUMP JUMPDEST PUSH1 0x40 MLOAD DUP1 SWAP2 SUB SWAP1 RETURN JUMPDEST PUSH2 0x1CE PUSH2 0x97A JUMP JUMPDEST PUSH1 0x40 MLOAD PUSH2 0x1DB SWAP2 SWAP1 PUSH2 0xF55 JUMP JUMPDEST PUSH1 0x40 MLOAD DUP1 SWAP2 SUB SWAP1 RETURN JUMPDEST PUSH2 0x1FE PUSH1 0x4 DUP1 CALLDATASIZE SUB DUP2 ADD SWAP1 PUSH2 0x1F9 SWAP2 SWAP1 PUSH2 0xD41 JUMP JUMPDEST PUSH2 0x9B3 JUMP JUMPDEST PUSH1 0x40 MLOAD PUSH2 0x20B SWAP2 SWAP1 PUSH2 0xD9C JUMP JUMPDEST PUSH1 0x40 MLOAD DUP1 SWAP2 SUB SWAP1 RETURN JUMPDEST PUSH2 0x22E PUSH1 0x4 DUP1 CALLDATASIZE SUB DUP2 ADD SWAP1 PUSH2 0x229 SWAP2 SWAP1 PUSH2 0xF77 JUMP JUMPDEST PUSH2 0xB95 JUMP JUMPDEST PUSH1 0x40 MLOAD PUSH2 0x23B SWAP2 SWAP1 PUSH2 0xDC6 JUMP JUMPDEST PUSH1 0x40 MLOAD DUP1 SWAP2 SUB SWAP1 RETURN JUMPDEST PUSH2 0x24C PUSH2 0xC1C JUMP JUMPDEST PUSH1 0x40 MLOAD PUSH2 0x259 SWAP2 SWAP1 PUSH2 0xF55 JUMP JUMPDEST PUSH1 0x40 MLOAD DUP1 SWAP2 SUB SWAP1 RETURN JUMPDEST PUSH1 0x0 DUP2 PUSH1 0x1 PUSH1 0x0 CALLER PUSH20 0xFFFFFFFFFFFFFFFFFFFFFFFFFFFFFFFFFFFFFFFF AND PUSH20 0xFFFFFFFFFFFFFFFFFFFFFFFFFFFFFFFFFFFFFFFF AND DUP2 MSTORE PUSH1 0x20 ADD SWAP1 DUP2 MSTORE PUSH1 0x20 ADD PUSH1 0x0 KECCAK256 PUSH1 0x0 DUP6 PUSH20 0xFFFFFFFFFFFFFFFFFFFFFFFFFFFFFFFFFFFFFFFF AND PUSH20 0xFFFFFFFFFFFFFFFFFFFFFFFFFFFFFFFFFFFFFFFF AND DUP2 MSTORE PUSH1 0x20 ADD SWAP1 DUP2 MSTORE PUSH1 0x20 ADD PUSH1 0x0 KECCAK256 DUP2 SWAP1 SSTORE POP DUP3 PUSH20 0xFFFFFFFFFFFFFFFFFFFFFFFFFFFFFFFFFFFFFFFF AND CALLER PUSH20 0xFFFFFFFFFFFFFFFFFFFFFFFFFFFFFFFFFFFFFFFF AND PUSH32 0x8C5BE1E5EBEC7D5BD14F71427D1E84F3DD0314C0F7B2291E5B200AC8C7C3B925 DUP5 PUSH1 0x40 MLOAD PUSH2 0x342 SWAP2 SWAP1 PUSH2 0xDC6 JUMP JUMPDEST PUSH1 0x40 MLOAD DUP1 SWAP2 SUB SWAP1 LOG3 PUSH1 0x1 SWAP1 POP SWAP3 SWAP2 POP POP JUMP JUMPDEST PUSH1 0x0 PUSH1 0x2 SLOAD SWAP1 POP SWAP1 JUMP JUMPDEST DUP1 PUSH1 0x2 PUSH1 0x0 DUP3 DUP3 SLOAD PUSH2 0x370 SWAP2 SWAP1 PUSH2 0xFE6 JUMP JUMPDEST SWAP3 POP POP DUP2 SWAP1 SSTORE POP DUP1 PUSH1 0x0 DUP1 CALLER PUSH20 0xFFFFFFFFFFFFFFFFFFFFFFFFFFFFFFFFFFFFFFFF AND PUSH20 0xFFFFFFFFFFFFFFFFFFFFFFFFFFFFFFFFFFFFFFFF AND DUP2 MSTORE PUSH1 0x20 ADD SWAP1 DUP2 MSTORE PUSH1 0x20 ADD PUSH1 0x0 KECCAK256 PUSH1 0x0 DUP3 DUP3 SLOAD PUSH2 0x3C5 SWAP2 SWAP1 PUSH2 0xFE6 JUMP JUMPDEST SWAP3 POP POP DUP2 SWAP1 SSTORE POP POP JUMP JUMPDEST PUSH1 0x0 DUP1 PUSH1 0x0 DUP6 PUSH20 0xFFFFFFFFFFFFFFFFFFFFFFFFFFFFFFFFFFFFFFFF AND PUSH20 0xFFFFFFFFFFFFFFFFFFFFFFFFFFFFFFFFFFFFFFFF AND DUP2 MSTORE PUSH1 0x20 ADD SWAP1 DUP2 MSTORE PUSH1 0x20 ADD PUSH1 0x0 KECCAK256 SLOAD DUP3 GT ISZERO PUSH2 0x41C JUMPI PUSH1 0x0 DUP1 REVERT JUMPDEST PUSH1 0x1 PUSH1 0x0 DUP6 PUSH20 0xFFFFFFFFFFFFFFFFFFFFFFFFFFFFFFFFFFFFFFFF AND PUSH20 0xFFFFFFFFFFFFFFFFFFFFFFFFFFFFFFFFFFFFFFFF AND DUP2 MSTORE PUSH1 0x20 ADD SWAP1 DUP2 MSTORE PUSH1 0x20 ADD PUSH1 0x0 KECCAK256 PUSH1 0x0 CALLER PUSH20 0xFFFFFFFFFFFFFFFFFFFFFFFFFFFFFFFFFFFFFFFF AND PUSH20 0xFFFFFFFFFFFFFFFFFFFFFFFFFFFFFFFFFFFFFFFF AND DUP2 MSTORE PUSH1 0x20 ADD SWAP1 DUP2 MSTORE PUSH1 0x20 ADD PUSH1 0x0 KECCAK256 SLOAD DUP3 GT ISZERO PUSH2 0x4A5 JUMPI PUSH1 0x0 DUP1 REVERT JUMPDEST PUSH2 0x4F6 DUP3 PUSH1 0x0 DUP1 DUP8 PUSH20 0xFFFFFFFFFFFFFFFFFFFFFFFFFFFFFFFFFFFFFFFF AND PUSH20 0xFFFFFFFFFFFFFFFFFFFFFFFFFFFFFFFFFFFFFFFF AND DUP2 MSTORE PUSH1 0x20 ADD SWAP1 DUP2 MSTORE PUSH1 0x20 ADD PUSH1 0x0 KECCAK256 SLOAD PUSH2 0xC55 SWAP1 SWAP2 SWAP1 PUSH4 0xFFFFFFFF AND JUMP JUMPDEST PUSH1 0x0 DUP1 DUP7 PUSH20 0xFFFFFFFFFFFFFFFFFFFFFFFFFFFFFFFFFFFFFFFF AND PUSH20 0xFFFFFFFFFFFFFFFFFFFFFFFFFFFFFFFFFFFFFFFF AND DUP2 MSTORE PUSH1 0x20 ADD SWAP1 DUP2 MSTORE PUSH1 0x20 ADD PUSH1 0x0 KECCAK256 DUP2 SWAP1 SSTORE POP PUSH2 0x5C7 DUP3 PUSH1 0x1 PUSH1 0x0 DUP8 PUSH20 0xFFFFFFFFFFFFFFFFFFFFFFFFFFFFFFFFFFFFFFFF AND PUSH20 0xFFFFFFFFFFFFFFFFFFFFFFFFFFFFFFFFFFFFFFFF AND DUP2 MSTORE PUSH1 0x20 ADD SWAP1 DUP2 MSTORE PUSH1 0x20 ADD PUSH1 0x0 KECCAK256 PUSH1 0x0 CALLER PUSH20 0xFFFFFFFFFFFFFFFFFFFFFFFFFFFFFFFFFFFFFFFF AND PUSH20 0xFFFFFFFFFFFFFFFFFFFFFFFFFFFFFFFFFFFFFFFF AND DUP2 MSTORE PUSH1 0x20 ADD SWAP1 DUP2 MSTORE PUSH1 0x20 ADD PUSH1 0x0 KECCAK256 SLOAD PUSH2 0xC55 SWAP1 SWAP2 SWAP1 PUSH4 0xFFFFFFFF AND JUMP JUMPDEST PUSH1 0x1 PUSH1 0x0 DUP7 PUSH20 0xFFFFFFFFFFFFFFFFFFFFFFFFFFFFFFFFFFFFFFFF AND PUSH20 0xFFFFFFFFFFFFFFFFFFFFFFFFFFFFFFFFFFFFFFFF AND DUP2 MSTORE PUSH1 0x20 ADD SWAP1 DUP2 MSTORE PUSH1 0x20 ADD PUSH1 0x0 KECCAK256 PUSH1 0x0 CALLER PUSH20 0xFFFFFFFFFFFFFFFFFFFFFFFFFFFFFFFFFFFFFFFF AND PUSH20 0xFFFFFFFFFFFFFFFFFFFFFFFFFFFFFFFFFFFFFFFF AND DUP2 MSTORE PUSH1 0x20 ADD SWAP1 DUP2 MSTORE PUSH1 0x20 ADD PUSH1 0x0 KECCAK256 DUP2 SWAP1 SSTORE POP PUSH2 0x698 DUP3 PUSH1 0x0 DUP1 DUP7 PUSH20 0xFFFFFFFFFFFFFFFFFFFFFFFFFFFFFFFFFFFFFFFF AND PUSH20 0xFFFFFFFFFFFFFFFFFFFFFFFFFFFFFFFFFFFFFFFF AND DUP2 MSTORE PUSH1 0x20 ADD SWAP1 DUP2 MSTORE PUSH1 0x20 ADD PUSH1 0x0 KECCAK256 SLOAD PUSH2 0xC7C SWAP1 SWAP2 SWAP1 PUSH4 0xFFFFFFFF AND JUMP JUMPDEST PUSH1 0x0 DUP1 DUP6 PUSH20 0xFFFFFFFFFFFFFFFFFFFFFFFFFFFFFFFFFFFFFFFF AND PUSH20 0xFFFFFFFFFFFFFFFFFFFFFFFFFFFFFFFFFFFFFFFF AND DUP2 MSTORE PUSH1 0x20 ADD SWAP1 DUP2 MSTORE PUSH1 0x20 ADD PUSH1 0x0 KECCAK256 DUP2 SWAP1 SSTORE POP DUP3 PUSH20 0xFFFFFFFFFFFFFFFFFFFFFFFFFFFFFFFFFFFFFFFF AND DUP5 PUSH20 0xFFFFFFFFFFFFFFFFFFFFFFFFFFFFFFFFFFFFFFFF AND PUSH32 0xDDF252AD1BE2C89B69C2B068FC378DAA952BA7F163C4A11628F55A4DF523B3EF DUP5 PUSH1 0x40 MLOAD PUSH2 0x737 SWAP2 SWAP1 PUSH2 0xDC6 JUMP JUMPDEST PUSH1 0x40 MLOAD DUP1 SWAP2 SUB SWAP1 LOG3 PUSH1 0x1 SWAP1 POP SWAP4 SWAP3 POP POP POP JUMP JUMPDEST PUSH1 0x2 DUP2 JUMP JUMPDEST PUSH1 0x0 DUP1 PUSH1 0x0 DUP6 PUSH20 0xFFFFFFFFFFFFFFFFFFFFFFFFFFFFFFFFFFFFFFFF AND PUSH20 0xFFFFFFFFFFFFFFFFFFFFFFFFFFFFFFFFFFFFFFFF AND DUP2 MSTORE PUSH1 0x20 ADD SWAP1 DUP2 MSTORE PUSH1 0x20 ADD PUSH1 0x0 KECCAK256 SLOAD DUP3 GT ISZERO PUSH2 0x79C JUMPI PUSH1 0x0 DUP1 REVERT JUMPDEST PUSH2 0x7ED DUP3 PUSH1 0x0 DUP1 DUP8 PUSH20 0xFFFFFFFFFFFFFFFFFFFFFFFFFFFFFFFFFFFFFFFF AND PUSH20 0xFFFFFFFFFFFFFFFFFFFFFFFFFFFFFFFFFFFFFFFF AND DUP2 MSTORE PUSH1 0x20 ADD SWAP1 DUP2 MSTORE PUSH1 0x20 ADD PUSH1 0x0 KECCAK256 SLOAD PUSH2 0xC55 SWAP1 SWAP2 SWAP1 PUSH4 0xFFFFFFFF AND JUMP JUMPDEST PUSH1 0x0 DUP1 DUP7 PUSH20 0xFFFFFFFFFFFFFFFFFFFFFFFFFFFFFFFFFFFFFFFF AND PUSH20 0xFFFFFFFFFFFFFFFFFFFFFFFFFFFFFFFFFFFFFFFF AND DUP2 MSTORE PUSH1 0x20 ADD SWAP1 DUP2 MSTORE PUSH1 0x20 ADD PUSH1 0x0 KECCAK256 DUP2 SWAP1 SSTORE POP PUSH2 0x880 DUP3 PUSH1 0x0 DUP1 DUP7 PUSH20 0xFFFFFFFFFFFFFFFFFFFFFFFFFFFFFFFFFFFFFFFF AND PUSH20 0xFFFFFFFFFFFFFFFFFFFFFFFFFFFFFFFFFFFFFFFF AND DUP2 MSTORE PUSH1 0x20 ADD SWAP1 DUP2 MSTORE PUSH1 0x20 ADD PUSH1 0x0 KECCAK256 SLOAD PUSH2 0xC7C SWAP1 SWAP2 SWAP1 PUSH4 0xFFFFFFFF AND JUMP JUMPDEST PUSH1 0x0 DUP1 DUP6 PUSH20 0xFFFFFFFFFFFFFFFFFFFFFFFFFFFFFFFFFFFFFFFF AND PUSH20 0xFFFFFFFFFFFFFFFFFFFFFFFFFFFFFFFFFFFFFFFF AND DUP2 MSTORE PUSH1 0x20 ADD SWAP1 DUP2 MSTORE PUSH1 0x20 ADD PUSH1 0x0 KECCAK256 DUP2 SWAP1 SSTORE POP DUP3 PUSH20 0xFFFFFFFFFFFFFFFFFFFFFFFFFFFFFFFFFFFFFFFF AND DUP5 PUSH20 0xFFFFFFFFFFFFFFFFFFFFFFFFFFFFFFFFFFFFFFFF AND PUSH32 0xDDF252AD1BE2C89B69C2B068FC378DAA952BA7F163C4A11628F55A4DF523B3EF DUP5 PUSH1 0x40 MLOAD PUSH2 0x91F SWAP2 SWAP1 PUSH2 0xDC6 JUMP JUMPDEST PUSH1 0x40 MLOAD DUP1 SWAP2 SUB SWAP1 LOG3 PUSH1 0x1 SWAP1 POP SWAP4 SWAP3 POP POP POP JUMP JUMPDEST PUSH1 0x0 DUP1 PUSH1 0x0 DUP4 PUSH20 0xFFFFFFFFFFFFFFFFFFFFFFFFFFFFFFFFFFFFFFFF AND PUSH20 0xFFFFFFFFFFFFFFFFFFFFFFFFFFFFFFFFFFFFFFFF AND DUP2 MSTORE PUSH1 0x20 ADD SWAP1 DUP2 MSTORE PUSH1 0x20 ADD PUSH1 0x0 KECCAK256 SLOAD SWAP1 POP SWAP2 SWAP1 POP JUMP JUMPDEST PUSH1 0x40 MLOAD DUP1 PUSH1 0x40 ADD PUSH1 0x40 MSTORE DUP1 PUSH1 0x11 DUP2 MSTORE PUSH1 0x20 ADD PUSH32 0x4552433230426C6F636B636861696E415A000000000000000000000000000000 DUP2 MSTORE POP DUP2 JUMP JUMPDEST PUSH1 0x0 DUP1 PUSH1 0x0 CALLER PUSH20 0xFFFFFFFFFFFFFFFFFFFFFFFFFFFFFFFFFFFFFFFF AND PUSH20 0xFFFFFFFFFFFFFFFFFFFFFFFFFFFFFFFFFFFFFFFF AND DUP2 MSTORE PUSH1 0x20 ADD SWAP1 DUP2 MSTORE PUSH1 0x20 ADD PUSH1 0x0 KECCAK256 SLOAD DUP3 GT ISZERO PUSH2 0xA00 JUMPI PUSH1 0x0 DUP1 REVERT JUMPDEST PUSH2 0xA51 DUP3 PUSH1 0x0 DUP1 CALLER PUSH20 0xFFFFFFFFFFFFFFFFFFFFFFFFFFFFFFFFFFFFFFFF AND PUSH20 0xFFFFFFFFFFFFFFFFFFFFFFFFFFFFFFFFFFFFFFFF AND DUP2 MSTORE PUSH1 0x20 ADD SWAP1 DUP2 MSTORE PUSH1 0x20 ADD PUSH1 0x0 KECCAK256 SLOAD PUSH2 0xC55 SWAP1 SWAP2 SWAP1 PUSH4 0xFFFFFFFF AND JUMP JUMPDEST PUSH1 0x0 DUP1 CALLER PUSH20 0xFFFFFFFFFFFFFFFFFFFFFFFFFFFFFFFFFFFFFFFF AND PUSH20 0xFFFFFFFFFFFFFFFFFFFFFFFFFFFFFFFFFFFFFFFF AND DUP2 MSTORE PUSH1 0x20 ADD SWAP1 DUP2 MSTORE PUSH1 0x20 ADD PUSH1 0x0 KECCAK256 DUP2 SWAP1 SSTORE POP PUSH2 0xAE4 DUP3 PUSH1 0x0 DUP1 DUP7 PUSH20 0xFFFFFFFFFFFFFFFFFFFFFFFFFFFFFFFFFFFFFFFF AND PUSH20 0xFFFFFFFFFFFFFFFFFFFFFFFFFFFFFFFFFFFFFFFF AND DUP2 MSTORE PUSH1 0x20 ADD SWAP1 DUP2 MSTORE PUSH1 0x20 ADD PUSH1 0x0 KECCAK256 SLOAD PUSH2 0xC7C SWAP1 SWAP2 SWAP1 PUSH4 0xFFFFFFFF AND JUMP JUMPDEST PUSH1 0x0 DUP1 DUP6 PUSH20 0xFFFFFFFFFFFFFFFFFFFFFFFFFFFFFFFFFFFFFFFF AND PUSH20 0xFFFFFFFFFFFFFFFFFFFFFFFFFFFFFFFFFFFFFFFF AND DUP2 MSTORE PUSH1 0x20 ADD SWAP1 DUP2 MSTORE PUSH1 0x20 ADD PUSH1 0x0 KECCAK256 DUP2 SWAP1 SSTORE POP DUP3 PUSH20 0xFFFFFFFFFFFFFFFFFFFFFFFFFFFFFFFFFFFFFFFF AND CALLER PUSH20 0xFFFFFFFFFFFFFFFFFFFFFFFFFFFFFFFFFFFFFFFF AND PUSH32 0xDDF252AD1BE2C89B69C2B068FC378DAA952BA7F163C4A11628F55A4DF523B3EF DUP5 PUSH1 0x40 MLOAD PUSH2 0xB83 SWAP2 SWAP1 PUSH2 0xDC6 JUMP JUMPDEST PUSH1 0x40 MLOAD DUP1 SWAP2 SUB SWAP1 LOG3 PUSH1 0x1 SWAP1 POP SWAP3 SWAP2 POP POP JUMP JUMPDEST PUSH1 0x0 PUSH1 0x1 PUSH1 0x0 DUP5 PUSH20 0xFFFFFFFFFFFFFFFFFFFFFFFFFFFFFFFFFFFFFFFF AND PUSH20 0xFFFFFFFFFFFFFFFFFFFFFFFFFFFFFFFFFFFFFFFF AND DUP2 MSTORE PUSH1 0x20 ADD SWAP1 DUP2 MSTORE PUSH1 0x20 ADD PUSH1 0x0 KECCAK256 PUSH1 0x0 DUP4 PUSH20 0xFFFFFFFFFFFFFFFFFFFFFFFFFFFFFFFFFFFFFFFF AND PUSH20 0xFFFFFFFFFFFFFFFFFFFFFFFFFFFFFFFFFFFFFFFF AND DUP2 MSTORE PUSH1 0x20 ADD SWAP1 DUP2 MSTORE PUSH1 0x20 ADD PUSH1 0x0 KECCAK256 SLOAD SWAP1 POP SWAP3 SWAP2 POP POP JUMP JUMPDEST PUSH1 0x40 MLOAD DUP1 PUSH1 0x40 ADD PUSH1 0x40 MSTORE DUP1 PUSH1 0x3 DUP2 MSTORE PUSH1 0x20 ADD PUSH32 0x4552430000000000000000000000000000000000000000000000000000000000 DUP2 MSTORE POP DUP2 JUMP JUMPDEST PUSH1 0x0 DUP3 DUP3 GT ISZERO PUSH2 0xC68 JUMPI PUSH2 0xC67 PUSH2 0x101A JUMP JUMPDEST JUMPDEST DUP2 DUP4 PUSH2 0xC74 SWAP2 SWAP1 PUSH2 0x1049 JUMP JUMPDEST SWAP1 POP SWAP3 SWAP2 POP POP JUMP JUMPDEST PUSH1 0x0 DUP1 DUP3 DUP5 PUSH2 0xC8B SWAP2 SWAP1 PUSH2 0xFE6 JUMP JUMPDEST SWAP1 POP DUP4 DUP2 LT ISZERO PUSH2 0xC9E JUMPI PUSH2 0xC9D PUSH2 0x101A JUMP JUMPDEST JUMPDEST DUP1 SWAP2 POP POP SWAP3 SWAP2 POP POP JUMP JUMPDEST PUSH1 0x0 DUP1 REVERT JUMPDEST PUSH1 0x0 PUSH20 0xFFFFFFFFFFFFFFFFFFFFFFFFFFFFFFFFFFFFFFFF DUP3 AND SWAP1 POP SWAP2 SWAP1 POP JUMP JUMPDEST PUSH1 0x0 PUSH2 0xCD8 DUP3 PUSH2 0xCAD JUMP JUMPDEST SWAP1 POP SWAP2 SWAP1 POP JUMP JUMPDEST PUSH2 0xCE8 DUP2 PUSH2 0xCCD JUMP JUMPDEST DUP2 EQ PUSH2 0xCF3 JUMPI PUSH1 0x0 DUP1 REVERT JUMPDEST POP JUMP JUMPDEST PUSH1 0x0 DUP2 CALLDATALOAD SWAP1 POP PUSH2 0xD05 DUP2 PUSH2 0xCDF JUMP JUMPDEST SWAP3 SWAP2 POP POP JUMP JUMPDEST PUSH1 0x0 DUP2 SWAP1 POP SWAP2 SWAP1 POP JUMP JUMPDEST PUSH2 0xD1E DUP2 PUSH2 0xD0B JUMP JUMPDEST DUP2 EQ PUSH2 0xD29 JUMPI PUSH1 0x0 DUP1 REVERT JUMPDEST POP JUMP JUMPDEST PUSH1 0x0 DUP2 CALLDATALOAD SWAP1 POP PUSH2 0xD3B DUP2 PUSH2 0xD15 JUMP JUMPDEST SWAP3 SWAP2 POP POP JUMP JUMPDEST PUSH1 0x0 DUP1 PUSH1 0x40 DUP4 DUP6 SUB SLT ISZERO PUSH2 0xD58 JUMPI PUSH2 0xD57 PUSH2 0xCA8 JUMP JUMPDEST JUMPDEST PUSH1 0x0 PUSH2 0xD66 DUP6 DUP3 DUP7 ADD PUSH2 0xCF6 JUMP JUMPDEST SWAP3 POP POP PUSH1 0x20 PUSH2 0xD77 DUP6 DUP3 DUP7 ADD PUSH2 0xD2C JUMP JUMPDEST SWAP2 POP POP SWAP3 POP SWAP3 SWAP1 POP JUMP JUMPDEST PUSH1 0x0 DUP2 ISZERO ISZERO SWAP1 POP SWAP2 SWAP1 POP JUMP JUMPDEST PUSH2 0xD96 DUP2 PUSH2 0xD81 JUMP JUMPDEST DUP3 MSTORE POP POP JUMP JUMPDEST PUSH1 0x0 PUSH1 0x20 DUP3 ADD SWAP1 POP PUSH2 0xDB1 PUSH1 0x0 DUP4 ADD DUP5 PUSH2 0xD8D JUMP JUMPDEST SWAP3 SWAP2 POP POP JUMP JUMPDEST PUSH2 0xDC0 DUP2 PUSH2 0xD0B JUMP JUMPDEST DUP3 MSTORE POP POP JUMP JUMPDEST PUSH1 0x0 PUSH1 0x20 DUP3 ADD SWAP1 POP PUSH2 0xDDB PUSH1 0x0 DUP4 ADD DUP5 PUSH2 0xDB7 JUMP JUMPDEST SWAP3 SWAP2 POP POP JUMP JUMPDEST PUSH1 0x0 PUSH1 0x20 DUP3 DUP5 SUB SLT ISZERO PUSH2 0xDF7 JUMPI PUSH2 0xDF6 PUSH2 0xCA8 JUMP JUMPDEST JUMPDEST PUSH1 0x0 PUSH2 0xE05 DUP5 DUP3 DUP6 ADD PUSH2 0xD2C JUMP JUMPDEST SWAP2 POP POP SWAP3 SWAP2 POP POP JUMP JUMPDEST PUSH1 0x0 DUP1 PUSH1 0x0 PUSH1 0x60 DUP5 DUP7 SUB SLT ISZERO PUSH2 0xE27 JUMPI PUSH2 0xE26 PUSH2 0xCA8 JUMP JUMPDEST JUMPDEST PUSH1 0x0 PUSH2 0xE35 DUP7 DUP3 DUP8 ADD PUSH2 0xCF6 JUMP JUMPDEST SWAP4 POP POP PUSH1 0x20 PUSH2 0xE46 DUP7 DUP3 DUP8 ADD PUSH2 0xCF6 JUMP JUMPDEST SWAP3 POP POP PUSH1 0x40 PUSH2 0xE57 DUP7 DUP3 DUP8 ADD PUSH2 0xD2C JUMP JUMPDEST SWAP2 POP POP SWAP3 POP SWAP3 POP SWAP3 JUMP JUMPDEST PUSH1 0x0 PUSH1 0xFF DUP3 AND SWAP1 POP SWAP2 SWAP1 POP JUMP JUMPDEST PUSH2 0xE77 DUP2 PUSH2 0xE61 JUMP JUMPDEST DUP3 MSTORE POP POP JUMP JUMPDEST PUSH1 0x0 PUSH1 0x20 DUP3 ADD SWAP1 POP PUSH2 0xE92 PUSH1 0x0 DUP4 ADD DUP5 PUSH2 0xE6E JUMP JUMPDEST SWAP3 SWAP2 POP POP JUMP JUMPDEST PUSH1 0x0 PUSH1 0x20 DUP3 DUP5 SUB SLT ISZERO PUSH2 0xEAE JUMPI PUSH2 0xEAD PUSH2 0xCA8 JUMP JUMPDEST JUMPDEST PUSH1 0x0 PUSH2 0xEBC DUP5 DUP3 DUP6 ADD PUSH2 0xCF6 JUMP JUMPDEST SWAP2 POP POP SWAP3 SWAP2 POP POP JUMP JUMPDEST PUSH1 0x0 DUP2 MLOAD SWAP1 POP SWAP2 SWAP1 POP JUMP JUMPDEST PUSH1 0x0 DUP3 DUP3 MSTORE PUSH1 0x20 DUP3 ADD SWAP1 POP SWAP3 SWAP2 POP POP JUMP JUMPDEST PUSH1 0x0 JUMPDEST DUP4 DUP2 LT ISZERO PUSH2 0xEFF JUMPI DUP1 DUP3 ADD MLOAD DUP2 DUP5 ADD MSTORE PUSH1 0x20 DUP2 ADD SWAP1 POP PUSH2 0xEE4 JUMP JUMPDEST PUSH1 0x0 DUP5 DUP5 ADD MSTORE POP POP POP POP JUMP JUMPDEST PUSH1 0x0 PUSH1 0x1F NOT PUSH1 0x1F DUP4 ADD AND SWAP1 POP SWAP2 SWAP1 POP JUMP JUMPDEST PUSH1 0x0 PUSH2 0xF27 DUP3 PUSH2 0xEC5 JUMP JUMPDEST PUSH2 0xF31 DUP2 DUP6 PUSH2 0xED0 JUMP JUMPDEST SWAP4 POP PUSH2 0xF41 DUP2 DUP6 PUSH1 0x20 DUP7 ADD PUSH2 0xEE1 JUMP JUMPDEST PUSH2 0xF4A DUP2 PUSH2 0xF0B JUMP JUMPDEST DUP5 ADD SWAP2 POP POP SWAP3 SWAP2 POP POP JUMP JUMPDEST PUSH1 0x0 PUSH1 0x20 DUP3 ADD SWAP1 POP DUP2 DUP2 SUB PUSH1 0x0 DUP4 ADD MSTORE PUSH2 0xF6F DUP2 DUP5 PUSH2 0xF1C JUMP JUMPDEST SWAP1 POP SWAP3 SWAP2 POP POP JUMP JUMPDEST PUSH1 0x0 DUP1 PUSH1 0x40 DUP4 DUP6 SUB SLT ISZERO PUSH2 0xF8E JUMPI PUSH2 0xF8D PUSH2 0xCA8 JUMP JUMPDEST JUMPDEST PUSH1 0x0 PUSH2 0xF9C DUP6 DUP3 DUP7 ADD PUSH2 0xCF6 JUMP JUMPDEST SWAP3 POP POP PUSH1 0x20 PUSH2 0xFAD DUP6 DUP3 DUP7 ADD PUSH2 0xCF6 JUMP JUMPDEST SWAP2 POP POP SWAP3 POP SWAP3 SWAP1 POP JUMP JUMPDEST PUSH32 0x4E487B7100000000000000000000000000000000000000000000000000000000 PUSH1 0x0 MSTORE PUSH1 0x11 PUSH1 0x4 MSTORE PUSH1 0x24 PUSH1 0x0 REVERT JUMPDEST PUSH1 0x0 PUSH2 0xFF1 DUP3 PUSH2 0xD0B JUMP JUMPDEST SWAP2 POP PUSH2 0xFFC DUP4 PUSH2 0xD0B JUMP JUMPDEST SWAP3 POP DUP3 DUP3 ADD SWAP1 POP DUP1 DUP3 GT ISZERO PUSH2 0x1014 JUMPI PUSH2 0x1013 PUSH2 0xFB7 JUMP JUMPDEST JUMPDEST SWAP3 SWAP2 POP POP JUMP JUMPDEST PUSH32 0x4E487B7100000000000000000000000000000000000000000000000000000000 PUSH1 0x0 MSTORE PUSH1 0x1 PUSH1 0x4 MSTORE PUSH1 0x24 PUSH1 0x0 REVERT JUMPDEST PUSH1 0x0 PUSH2 0x1054 DUP3 PUSH2 0xD0B JUMP JUMPDEST SWAP2 POP PUSH2 0x105F DUP4 PUSH2 0xD0B JUMP JUMPDEST SWAP3 POP DUP3 DUP3 SUB SWAP1 POP DUP2 DUP2 GT ISZERO PUSH2 0x1077 JUMPI PUSH2 0x1076 PUSH2 0xFB7 JUMP JUMPDEST JUMPDEST SWAP3 SWAP2 POP POP JUMP INVALID LOG2 PUSH5 0x6970667358 0x22 SLT KECCAK256 DUP4 0x1F 0x4E CALL 0xA5 DUP15 DUP6 0xAD 0xEE SUB PUSH24 0x6E6DE24B5B9E6021F7A5B1EF140A5FF6A28F25BA7F64736F PUSH13 0x63430008120033000000000000 "
				},
				"gasEstimates": {
					"creation": {
						"codeDepositCost": "1274800",
						"executionCost": "infinite",
						"totalCost": "infinite"
					},
					"external": {
						"bote()": "infinite",
						"compraTokens(uint256)": "infinite",
						"comprarBoleto(uint256)": "infinite",
						"contrato()": "2536",
						"devolverTokens(uint256)": "infinite",
						"generaGanador()": "infinite",
						"generaTokens(uint256)": "infinite",
						"misBoletos()": "infinite",
						"misTokens()": "infinite",
						"owner()": "2559",
						"precioBoleto()": "2495",
						"tokenCreados()": "2474",
						"tokensDisponibles()": "infinite"
					},
					"internal": {
						"precioTokens(uint256)": "infinite"
					}
				},
				"methodIdentifiers": {
					"bote()": "ec980ef9",
					"compraTokens(uint256)": "c29dd7c9",
					"comprarBoleto(uint256)": "7f30e11c",
					"contrato()": "e1a01e67",
					"devolverTokens(uint256)": "2e95161c",
					"generaGanador()": "066265c5",
					"generaTokens(uint256)": "4947830d",
					"misBoletos()": "efb40e2d",
					"misTokens()": "21e0528b",
					"owner()": "8da5cb5b",
					"precioBoleto()": "ee5ade83",
					"tokenCreados()": "2d8e6adc",
					"tokensDisponibles()": "779c6a4c"
				}
			},
			"storageLayout": {
				"storage": [
					{
						"astId": 480,
						"contract": "LOTERIA/loteria.sol:Loteria",
						"label": "token",
						"offset": 0,
						"slot": "0",
						"type": "t_contract(ERC20Basic)392"
					},
					{
						"astId": 482,
						"contract": "LOTERIA/loteria.sol:Loteria",
						"label": "owner",
						"offset": 0,
						"slot": "1",
						"type": "t_address"
					},
					{
						"astId": 484,
						"contract": "LOTERIA/loteria.sol:Loteria",
						"label": "contrato",
						"offset": 0,
						"slot": "2",
						"type": "t_address"
					},
					{
						"astId": 487,
						"contract": "LOTERIA/loteria.sol:Loteria",
						"label": "tokenCreados",
						"offset": 0,
						"slot": "3",
						"type": "t_uint256"
					},
					{
						"astId": 658,
						"contract": "LOTERIA/loteria.sol:Loteria",
						"label": "precioBoleto",
						"offset": 0,
						"slot": "4",
						"type": "t_uint256"
					},
					{
						"astId": 663,
						"contract": "LOTERIA/loteria.sol:Loteria",
						"label": "idPersonaBoletos",
						"offset": 0,
						"slot": "5",
						"type": "t_mapping(t_address,t_array(t_uint256)dyn_storage)"
					},
					{
						"astId": 667,
						"contract": "LOTERIA/loteria.sol:Loteria",
						"label": "adnBoleto",
						"offset": 0,
						"slot": "6",
						"type": "t_mapping(t_uint256,t_address)"
					},
					{
						"astId": 670,
						"contract": "LOTERIA/loteria.sol:Loteria",
						"label": "randNonce",
						"offset": 0,
						"slot": "7",
						"type": "t_uint256"
					},
					{
						"astId": 673,
						"contract": "LOTERIA/loteria.sol:Loteria",
						"label": "boletosComprados",
						"offset": 0,
						"slot": "8",
						"type": "t_array(t_uint256)dyn_storage"
					}
				],
				"types": {
					"t_address": {
						"encoding": "inplace",
						"label": "address",
						"numberOfBytes": "20"
					},
					"t_array(t_uint256)dyn_storage": {
						"base": "t_uint256",
						"encoding": "dynamic_array",
						"label": "uint256[]",
						"numberOfBytes": "32"
					},
					"t_contract(ERC20Basic)392": {
						"encoding": "inplace",
						"label": "contract ERC20Basic",
						"numberOfBytes": "20"
					},
					"t_mapping(t_address,t_array(t_uint256)dyn_storage)": {
						"encoding": "mapping",
						"key": "t_address",
						"label": "mapping(address => uint256[])",
						"numberOfBytes": "32",
						"value": "t_array(t_uint256)dyn_storage"
					},
					"t_mapping(t_uint256,t_address)": {
						"encoding": "mapping",
						"key": "t_uint256",
						"label": "mapping(uint256 => address)",
						"numberOfBytes": "32",
						"value": "t_address"
					},
					"t_uint256": {
						"encoding": "inplace",
						"label": "uint256",
						"numberOfBytes": "32"
					}
				}
			},
			"userdoc": {
				"kind": "user",
				"methods": {},
				"version": 1
			}
		}
	}
}